:10000000285D0020D5240000A1960100C124000035
:10001000C1240000C1240000C1240000C12400004C
:100020000000000000000000000000000D2500009E
:10003000C124000000000000E1260000C1240000EF
:100040006127000061270000612700006127000090
:100050006127000061270000612700006127000080
:100060006127000061270000612700006127000070
:100070006127000061270000612700006127000060
:1002600061270000612700000527010061270000C9
:10027000612700006127000061270000612700005E
:10028000612700006127000061270000612700004E
:10029000612700006127000061270000612700003E
:1002A000612700006127000061270000612700002E
:10047C0053B94AB9002908BF00281CBF4FF0FF31FF
:10048C004FF0FF3000F00CB8ADF1080C6DE904CE64
:10049C0000F018F8DDF804E0DDE9022304B0704741
:1004AC00704700BF034611F8012B03F8012B002AFB
:1004BC00F9D17047034613F8012B002AFBD1181A07
:1004CC00013870472DE9F0478C468E46089E15463C
:1004DC0004461946002B40F0D080724547D9B2FA39
:1004EC0082F74FB1C7F120030EFA07FCBD40BC40A8
:1004FC0020FA03F343EA0C0C4FEA154EA8B2230C76
:10050C00BCFBFEF80EFB18CC08FB00F943EA0C43CD
:10051C00994528D9EB1808F1FF3204D2994502D934
:10052C00A8F102022B44A3EB0903A4B2B3FBFEFC1B
:10053C000EFB1C330CFB00F044EA0344A04214D91C
:10054C002C190CF1FF3304D2A04202D9ACF10203F6
:10055C002C44241A43EA02401EB1FC4000233460B0
:10056C007360BDE8F0874246DDE76346F1E7002A99
:10057C0079D0B2FA82F3002B3FD01946C1F1200397
:10058C0002FA01F500FA01F42EFA03F20EFA01FE5A
:10059C0020FA03F3AFB243EA0E034FEA154EB2FB57
:1005AC00FEFC0EFB1C201A0C0CFB07F842EA004266
:1005BC0090455AD9AA180CF1FF3004D2904502D9B3
:1005CC00ACF102002A44A2EB08029BB2B2FBFEFC87
:1005DC000EFB1C220CFB07F743EA02439F4246D951
:1005EC00EB180CF1FF3204D29F4202D9ACF102029B
:1005FC002B44DB1B42EA004202E0AEEB0203012279
:10060C004FEA154EAFB2200CB3FBFEFC0EFB1C33B5
:10061C000CFB07F840EA034398452AD9EB180CF178
:10062C00FF3004D2984502D9ACF102002B44A3EB65
:10063C000803A4B2B3FBFEFC0EFB1C330CFB07F748
:10064C0044EA0344A74216D92C190CF1FF3304D207
:10065C00A74202D9ACF102032C44E41B43EA00404C
:10066C000F46114678E71F2188E76046ABE76246E4
:10067C00BFE76046DBE76346EFE7734506D916B97B
:10068C00002108466DE7C6E9000EF9E7B3FA83F7D7
:10069C0087B9734501D3824207D8841A6EEB0303E2
:1006AC0001209C461EB900215BE73846FAE7C6E9F3
:1006BC00004CF8E7C7F1200CBB4000FA07F422FA13
:1006CC000CF520FA0CF1BA401D432EFA0CF30EFA7D
:1006DC0007FE4FEA154941EA0E011FFA85FEB3FBEE
:1006EC00F9F809FB18300B0C08FB0EFA43EA00432F
:1006FC009A4540D9EB1808F1FF3004D29A4502D93B
:10070C00A8F102002B44A3EB0A0389B2B3FBF9F85E
:10071C0009FB183308FB0EFE41EA03418E452CD928
:10072C00691808F1FF3304D28E4502D9A8F10203EF
:10073C00294443EA0040A1EB0E01A0FB029841457D
:10074C00CE46434602D306D14C4504D20138B9EB10
:10075C00020E68EB0503002EA5D0B4EB0E0261EB84
:10076C00030101FA0CFC22FA07F3F9404CEA0303EB
:10077C00C6E9003197E74046C5E74346D9E7000094
:10078C0030B505491846D1E900451A1945F1000361
:10079C00C1E9002330BD00BF38080020184630B531
:1007AC00064A0749136801331360D1E90045021961
:1007BC0045F10003C1E9002330BD00BF381500200E
:1007CC00400800204A780248097818F0FAB900BFAE
:1007DC00CCD40100F7B5184C0E46D4E900231A43CB
:1007EC0026D01BF0C0F9D4E900454FF47A77A0FB72
:1007FC00070C47F61222002307FB01C1FFF738FE56
:10080C00021B61EB05030D490D4809680068091AC4
:10081C0000910C48314618F0D4F90B4A1368013397
:10082C0013600022094B1E70094B1A7003B0F0BD07
:10083C004FF0FF321346E6E7300800203815002051
:10084C0030150020DDD40100341500209435002033
:10085C009535002000220023014816F0B3BF00BFDD
:10086C000000002070B5114D88B003AC06460FCDCA
:10087C000FC42B680E49236000230222009303A8A7
:10088C0004F0DAFB014610B110F1780F04D10948DD
:10089C0018F097F908B070BD074818F092F940F6B7
:1008AC0035420023304616F08DFFF3E750C90100A6
:1008BC00E8C9010018D5010025D5010000B58DB09F
:1008CC0029B108480DB05DF804EB18F07AB901A90C
:1008DC0005F024FC18B90699034818F072F90DB00C
:1008EC005DF804FB50D5010067D501002DE9F04FF0
:1008FC0000263746B246A9B0002147F612201BF05D
:10090C0084F8294B294AD3F80080294BA8EB070718
:10091C00D3F80090274BA9EB0606D3E90034CDE9B8
:10092C000C340C99244B0AF1010AD3E900BCD2E92E
:10093C0000430C1B0D9961EB0303A10A41EA83539D
:10094C001E490F93D1E90053BBEB05056CEB030378
:10095C00AD0A45EA8355DDE90C34C2E9003410AB2D
:10096C00C1E900BC6022002118461BF095F9034632
:10097C00134A144914481278096800780B93002321
:10098C00CDE90510CDE90933CDE90733CDE9029660
:10099C00CDE9008704922B4651460F9A0B4818F06C
:1009AC0010F94E464746A7E738150020A807002047
:1009BC00103000204008002038080020A00700203C
:1009CC0095350020341500209435002082D5010087
:1009DC0070B54B1E124C59425941217023789BB172
:1009EC001BF0C1F84FF47A75A0FB050647F61222EE
:1009FC00002305FB0161FFF73BFD0A4BC3E9000136
:100A0C00094B1A68094B1A602178094B094A0A48A4
:100A1C00002918BF1A46BDE87040114618F0D1B82D
:100A2C0095350020300800203815002030150020A6
:100A3C0002D601000AD601000ED60100002008B52E
:100A4C0003F076FE014620B1054818F0BAF80020F4
:100A5C0008BD044818F0B5F8FFF7FCFEF7E700BF37
:100A6C001ED601002CD601002DE9F84F8A4600AFA6
:100A7C00002974D004680E1F361BF50826F00706F3
:100A8C0004EB0608B8F802B01BF0010B16D1E946CE
:100A9C0088B06A46334BCDE90531032342F8103F49
:100AAC004FF4C2515B46304800F0A4FFCD468BF3A7
:100ABC001188BFF36F8F0423184602DF29462046A6
:100ACC0017F0FBFE284434F83030C01A854217D09A
:100ADC00E94688B06A46254BCDE9053A032342F82E
:100AEC00103F00234FF4C2511F4800F083FF002336
:100AFC00CD4683F31188BFF36F8F0423184602DFB2
:100B0C00B8F80230294623F00103A8F80230204639
:100B1C0017F0D3FE05EB000804EBC8035B88DA077B
:100B2C0008D44146204617F011FF4246294620467C
:100B3C0017F051FFA65BAE1B04EBC6035B88DB070B
:100B4C0009D43146204617F001FF2A46314620468B
:100B5C0017F041FF35462946204617F0B3FEBD4637
:100B6C00BDE8F88FC6D6010018C901009DD601005A
:100B7C002DE9F04F91B0009302F004030293C2F3FD
:100B8C00C2030133840705460E46DDF868A00392C4
:100B9C00059340F09C81041D002849D101F0070603
:100BAC00341DC6F10806009B00274FF004085A1E9E
:100BBC004FF0FF33B9460193BB46434604970DB142
:100BCC00009921600598002800F3D6808F48009981
:100BDC00814203D38E488142C0F0CE800399601BC2
:100BEC0011F0020C40F0D680B9F10F0F00F2CF805B
:100BFC00002D00F0D68009F140010DEB010E01999A
:100C0C00C0F387000EF8200C0EF8101CBCF1000F7E
:100C1C0000F0C38060F07F000EF8200C013709F162
:100C2C000109C5F108014FF6DA7E043406918CE017
:100C3C000729B8D86FF01B0011B0BDE8F08F7A28E7
:100C4C005BD84B280FD8472857D829282ED82528C9
:100C5C0050D052D8202818BF23280CBF4FF0010BBE
:100C6C004FF0000B71E04C382E2846D8DFE800F02E
:100C7C006D454545454545454545454548454545ED
:100C8C004545454545564548485656566D486A456E
:100C9C006D4518481845457F7C48454548457C00BE
:100CAC0000204FF0000B4FF0040835E001212A38EA
:100CBC00C0B201FA00F010EA0E0F46D110F0625CDF
:100CCC002CD110EA010B40D06046013C4444B4FBEB
:100CDC00F8F408FB04F425B1A3EB050CA444B445CB
:100CEC00A8D8002870D00599013905915AF8041B31
:100CFC00009164E70199013901914FF0000B24E058
:100D0C0012F8010C6C2834D1002012F8023C8346F6
:100D1C006C2BC8D14FF008084346D6E70AF1070AF6
:100D2C002AF0070A073424F00704FAE802BC35B1AC
:100D3C0006982044B0423FF67DAFC4E900BC4FF0AA
:100D4C00000B08344FF00808434612F8010F002836
:100D5C0053D0BBF1000F7FF472AF2528F5D14FF0C3
:100D6C00010B019B013301934FF00408ECE758464B
:100D7C0097E700208346A8E7039988077FF551AFD2
:100D8C004FF0010C601BB0F5007FFFF42DAF6FF03E
:100D9C00150051E74FF0000CF5E704980130049072
:100DAC003DE7BCF1000F01D0013638E7029802365E
:100DBC0000287FF434AF0098CDE90632FFF77AFBB8
:100DCC00DDE9063206442AE7042B08D10AF10400B7
:100DDC0015B1DAF80010216082460434B5E70AF147
:100DEC00070323F0070303F1080A1DB1D3E900013F
:100DFC00C4E9000108230834A7E7631BB3F5806F2F
:100E0C00C5D23DB9A6F10804E01815E7B0BD010044
:100E1C002CF30100029A9B0828602B709DF810306F
:100E2C00AAB1EB70AF702FB1002208A8C5F1010C6C
:100E3C0091450ED14FF0000AC5F101030DF12008C8
:100E4C0001930DF1300BD14512D1601BF4E66B70A0
:100E5C00E8E710F8013B190608D50CEB040EB64573
:100E6C0003F07F033FF6E6AE04F8013B0132DFE707
:100E7C001FB198F90020002A17DB029BD3B11AF896
:100E8C000B2004F8012B0022019B18191044B042CE
:100E9C003FF6D0AE98F80000009904F8010B2046FC
:100EAC0003921AF0D3FE039A14440AF1010A08F1D2
:100EBC000108C8E798F8002055F822300093029BEF
:100ECC00009845F82230FFF7F5FA421CDCE76FF08A
:100EDC000D00B1E62DE9F04F97B000AF05468A46FC
:100EEC00C7E90A3249B903784678807800EB830069
:100EFC002844564524D8A0EB050AD7F8803095F83D
:100F0C00028003F00103D7F88040FB61EB78B8F165
:100F1C00000F0CBF002404F001047B621BB1D7F856
:100F2C0080309A0715D4A4B9FB6A1BB151462846E8
:100F3C00BA6A9847564630465C37BD46BDE8F08FD6
:100F4C00441C2046FFF7B6FA013020440AF1010A8E
:100F5C00CFE7D7F88030C3F3C0033B622B78BB617B
:100F6C009B003B616B687B61BB6905EB830BFB6A88
:100F7C00002B77D15646D844BCB11C461BF8013B1C
:100F8C0055F82300FFF796FAD7F88430013043B1B7
:100F9C00D7F88830A34282BFD7F8843023F81400E6
:100FAC000134C3450644E9D1D846D7F880304FF018
:100FBC00000913F0050F0CBF4FF0020B4FF0010BA3
:100FCC007B6A9945B7D298F8013008F1020855F8B8
:100FDC0023A0AE4B9A45C0F04C81AD4B3A6A9A4572
:100FEC002CBF002301230AB318F8021C7869FB629A
:100FFC0017F0C6FDFB6AC8B1EA468AB06A46A54B33
:10100C0005937B69CDE906314FF40073ADF82030C0
:10101C00A14B42F8103F00234FF412519F4800F0AF
:10102C00E9FCD546023E09F10109C9E723B1FB6988
:10103C0033B9A6EB0B06F6E7D7F880309B07F2D551
:10104C005046FFF737FAD7F884304BB1D7F88830D1
:10105C009C423FBFD7F88420431C22F81430013443
:10106C000644E0E7002C6AD1B8F1000F6DD0D7F838
:10107C00803058076CD5C14607F1480042465946A6
:10108C001AF0E4FD00220BEB0803FB600233796AD3
:10109C008A425FD3D7F8802095F801B0F96992079E
:1010AC0004EB0B0348BF0022DBB258BF4FEA5902D6
:1010BC00002940F0A680D7F8801011F0040F14BF5F
:1010CC00494600216B70A970EA702846BA6A3969E2
:1010DC00FB6A9847061EFFF62EAFBB6949462B707C
:1010EC007B6ABA6AEB7085F801B0FB6A85F80280FE
:1010FC0007F148009847B0F10009C0F2B6803B698F
:10110C007A6A786A03EB4201FB68414403EB4000C6
:10111C00BA6AFB6AAAEB010198470028C0F2A780C3
:10112C004FF0000BB14409EB000607F1380AA34558
:10113C0069D30021BA6A0846FB6A9847FBE6444625
:10114C004FF0000907F1380098E74446C14699E78B
:10115C00A14697E713F8016CDFF830C155F826006B
:10116C0013F8021C6045C0F08A80DFF824C160458A
:10117C00386A2CBF4FF0000B4FF0010B38B1786977
:10118C00C7E9013217F0FCFCD7E90132F0B9BBF129
:10119C00000F1ED0F96949B1611C04F1280007F158
:1011AC003004041904F8206CCCB20FE0D7F880108E
:1011BC0049070BD509F1280007F1300C09F10101A1
:1011CC0000EB0C0909F8106C5FFA81F9013202335B
:1011DC005DE7D7F880008007DED409F1280C07F111
:1011EC00300EF44409F101000CF8101C07F1580101
:1011FC0009F1020951FA80F05FFA89F900F8106CD4
:10120C00E4E700215EE71BF80A3055F8239087F8D5
:10121C003730D7F884302BB3D7F888309B4521D2A0
:10122C00D7F8843033F81B800121BA6AFB6A07F1C6
:10123C003700984700281ADB0644B8F1000F06D196
:10124C004846FFF737F900F101081FFA88F84146C4
:10125C004846BA6AFB6A9847002808DB06440BF13B
:10126C00010B64E74FF00008DEE74E4663E60646E6
:10127C0061E63B6A002B3FF4DFAE0023B4E6386A2C
:10128C000028A6D04FF0000B79E700BFB0BD0100DD
:10129C002CF30100F3D6010004000001D0C80100BA
:1012AC00014B1860704700BF4802002080B505460E
:1012BC000E461746984616F00DFD034601F05CFAF3
:1012CC000446DFF81890424649F80030394630465B
:1012DC00A84754F8090001F0E7F900BF0800000026
:1012EC002DE9F047058B0446280717460CD5012934
:1012FC000CBF45F0100545F02005258387F31188B8
:10130C00BFF36F8FBDE8F087022905F0070540F0A9
:10131C009480204617F0F6FE052864D801A353F8F4
:10132C0020F000BF0913000047140000F313000065
:10133C00B5130000CF130000E113000001F0070308
:10134C005A1F012A1FD8002221F00701062BD4F8BE
:10135C00008089B2C4E9002209D1434603E0628BC4
:10136C00013262831B68002BF9D141F00201204647
:10137C00218317F0C7FE4FF0000900286DD041F013
:10138C002001218369E0042B0AD121F0070189B2E5
:10139C002046218317F0B6FE10B141F020012183C5
:1013AC004FF00008C14658E02369D3F80090238B16
:1013BC0023F0070343F006034FF00008238346464F
:1013CC004BE02369D3F80490238B23F0070343F0FD
:1013DC000403F1E72369D3F80890238B23F0070368
:1013EC0043F00503E8E74FF00008C146E7E70122A8
:1013FC0043F00803238387F31188BFF36F8F002A10
:10140C003BD1B8F1000F4AD1B9F1000F02D0204600
:10141C002C49C847EFF31187202383F31288BFF3BD
:10142C006F8F238B23F008039BB22383D9063FD500
:10143C0023F01002228303F007056669218B002E2E
:10144C00BFF67CAF00239946D4F8008021F0070149
:10145C00C4E9003341F001012183238B03F0070A17
:10146C00AA4502D0A268002AC1D1B8F1000F02D15E
:10147C00B9F1000FDAD00022BAE7A1680029C0D078
:10148C000D680029BDD03346524620464F68B847F8
:10149C001DB12B6829461D46F3E72B46FAE741465A
:1014AC00334652462046D8F8008017F057FEA8E77E
:1014BC009A067FF523AF23F02002228303F0070561
:1014CC0027E700BF959101002DE9F0470446074638
:1014DC004FF00109DFF84C8094FAA4F5B5FA85F5C4
:1014EC0009FA05F32E0108EB05156FEA030A24EA45
:1014FC0003042B7B63B158F806301B696BB9464467
:10150C00736804222846196807EA0A0717F035FFA2
:10151C00002CE1D13846BDE8F087284698470028D2
:10152C00F6D1ECE738C9010010B5002288B00E499D
:10153C000E481AF060FB002200230024CDE906239C
:10154C000E234FF44072CDE90334CDE90144084B2E
:10155C0008490094084816F0ADF9084906481AF0F5
:10156C0094F9204608B010BD8D150000D00C002059
:10157C00A9180000583A002048080020B2D70100F2
:10158C00014815F0CBBE00BF700600202DE9F047D6
:10159C00804621480F4617F0D4FE0646002833D06B
:1015AC0000252846BDE8F087237B83B12368DB68E0
:1015BC000BB120469847636883F8069023681B6933
:1015CC00D3B9636804222046196817F0D6FE013699
:1015DC0010345445E8D3B8F1000FE2D0002DDFD021
:1015EC002846FFF771FF0546002FF7D0002140F287
:1015FC0039101AF00AFAF1E7204698470028E0D093
:10160C0009FA06F31D43E2E705464FF00109034CC6
:10161C00DFF80CA0DDE700BF4C15002038C9010035
:10162C0048C90100014B53F82000704784CA0100DF
:10163C0008B5034608462BB1044A136000F03AFC87
:10164C00002008BD6FF01500FBE700BF4C02002026
:10165C0010B5044C237813B9034815F05FFE012331
:10166C00237010BD963500207006002010B504467E
:10167C00094817F066FE3CB1084BD3E8EF1F01395F
:10168C00C3E8E21F002AF8D1054816F047FEBDE872
:10169C001040044815F042BE4415002048150020A7
:1016AC00D00C0020700600200022044BD3E8EF0F72
:1016BC00C3E8E12F0029F9D1704700BF4415002081
:1016CC0070B5FFF7F1FF0546074C084EB44200D346
:1016DC0070BD63685B792BB123685B6813B12946D5
:1016EC00204698471034F1E738C9010048C9010079
:1016FC0010B5044C0449204617F07EFB034B1C60CC
:10170C0010BD00BFCC05002070CA01003C150020A4
:10171C0000230D4A10B513700C4A0D4913600D4A85
:10172C000D481360FFF784FFFFF7E2FF0B4B0C49EA
:10173C0018468B4200D310BD1A1A5C681211013284
:10174C0022711033F5E700BF9735002044150020B7
:10175C0040420F00481500204B93010038C901008E
:10176C0048C90100014600220023014817F065BB5F
:10177C00CC050020014817F0FCBB00BFCC050020B5
:10178C00024B0146186817F04FBC00BF3C150020F7
:10179C00014817F084BC00BFCC050020F8B5284BDD
:1017AC001B78002B4AD0FFF7E5FF0446002842D1F6
:1017BC00244B254D1B68002B19DD1AF0D4F94FF47E
:1017CC007A76A0FB060747F61222002306FB01716E
:1017DC00FEF74EFED5E90032C01A40F2E93361EB58
:1017EC000201984271F1000101D3FFF769FFD5E9BD
:1017FC00003213F57A7342F10002C5E90032ECB104
:10180C00BDE8F840FFF7C4BF6B685B7923B12B6868
:10181C00214628461B6898471035B542F4D320461C
:10182C00FFF7AEFF094BD3E8EF1F0139C3E8E21F06
:10183C00002ABDD0F7E7064D064EEEE70020F8BDB6
:10184C009635002044150020C80C002048150020B7
:10185C0038C9010048C9010070B50D4D297861B92E
:10186C000120FFF793FE0B4C0B4EB44206D3FFF74F
:10187C0095FF0028FBD101232B7070BD63685B7949
:10188C001BB1236820469B6898471034EDE700BFD6
:10189C009735002038C9010048C9010000212DE905
:1018AC00F8430846FFF772FE044648B340F21B6843
:1018BC004FF0000900F060FF1A4B1B4A1B581360D5
:1018CC0033B11A4B1B68092B02DD194815F026FDA4
:1018DC000025184F44B12046FFF7F6FD044618B911
:1018EC004FF0FF384FF0FF39FFF758FF064628B985
:1018FC00B5B90F4842464B4615F044FD3546E9E76D
:10190C004FF0FF384FF0FF39D4E72B689B691BB1C0
:10191C0000222846114698471035BD42F5D3E8E71A
:10192C00054DFAE70800000040150020481500207E
:10193C007006002048C9010038C9010013B51848C9
:10194C0017F0FFFC174B1B7873B1EFF311842023B6
:10195C0083F31288BFF36F8FFFF720FF84F3118896
:10196C00BFF36F8F02B010BD0F4B1B68002BF9D06B
:10197C0050B9002200230D48CDE9002347F612226E
:10198C00002316F093FCEDE70928EBD1074816F07D
:10199C00C5FC074802B0BDE8104015F0BFBC00BF45
:1019AC00481500209735002040150020D00C002051
:1019BC007006002010B5064B04461B68984721465C
:1019CC00A060044817F0B6FABDE81040FFF7B6BFA8
:1019DC004C020020CC050020044A054B9B1AB1EBAD
:1019EC00D30F34BF52F831000020704758C80100A3
:1019FC0038C901002DE9F04F8FB0C1F34A2604AF6E
:101A0C000D469046B8607B600C0D002E61D04FF0F7
:101A1C0000090A234FF0040B07F1140AFE60C7E912
:101A2C000799C7F824900093CDF808B0CDF804A01E
:101A3C0007F11C034A464046F968FFF74BFAB0F52C
:101A4C00006F03461CD36C468AB0D8F8041004AB64
:101A5C0024481A46C3E9050140F2FF71D9614FF4DD
:101A6C0000711984204B42F8103F4FF412514B4631
:101A7C001E48FFF7BFFFA5462C37BD46BDE8F08FCB
:101A8C00C0F30A0604F11700184420F00700800880
:101A9C003B60FFF767FE66F35325044680B13B6855
:101AAC0000F11001C7E908390A23F961CDE901AB4E
:101ABC00009340460E4AF96807F11C03FFF70AFA37
:101ACC0066F353252A4620467B68B96817F075FCE7
:101ADC00D2E704F1170020F007008008FFF742FE60
:101AEC000446EDE7C7D7010004000001E0C801007F
:101AFC00999301002DE9F04F87B00546DDE9106B95
:101B0C00DDE9127A884614469946BFB110213B464E
:101B1C005A460020CDF800A0CDF814A0FFF728F805
:101B2C00B0F5006F01460BD340F2FF730221184A47
:101B3C00184807B0BDE8F04F17F098BC3946384646
:101B4C0004F0070305F00704E40044EA831444EAB4
:101B5C00402444EA065406F11700084420F007001C
:101B6C0080080391FFF7FEFD054640B13FB13B46AF
:101B7C005A460399CDF800A01030FEF7F9FF4B46FA
:101B8C0022464146284607B0BDE8F04F17F015BC79
:101B9C0006D80100E0C80100406820B1034BC01A10
:101BAC0040F3CF0070474FF0FF30704758C801002A
:101BBC000EB403B503AB53F8042B01460448019350
:101BCC0001F00EF802B05DF804EB03B0704700BFF3
:101BDC00DB940100CA0605D48B064CBF02490349AD
:101BEC00FFF7E6BF704700BF3FD801003ED80100A9
:101BFC002DE9F04F89B098469DF85090159B0446FE
:101C0C0006930D46DDE916A3189F05920493B9F1CE
:101C1C00000F00F0B08007F48073079317F0ABFB54
:101C2C0007F0020B0246002874D020467749FFF7D4
:101C3C00BFFF0646BBF1000F08D017F0440F6BD165
:101C4C002A4620467249FFF7B3FF064407F001030A
:101C5C0053B1704B204653F829206F4B6F49002A23
:101C6C0008BF1A46FFF7A4FF07F48073002B07F098
:101C7C00080318BF4FF00008002B79D0684B2046A2
:101C8C0053F829206749FFF793FF0546059B2BB1B5
:101C9C001A4620466449FFF78BFF0544B8F1000F44
:101CAC0005D0424620466149FFF782FF0544604853
:101CBC003544069B1BB122465E4916F030FF049B4F
:101CCC00002B00F08E80DDF810803946B8F1100F33
:101CDC00204628BF4FF010080026FFF77BFFB542C7
:101CEC0050DC0026334620461AF803205249FFF7F1
:101CFC005FFF0136102E4BD0710703D120464F49A0
:101D0C00FFF756FF46453346EDD320464C49FFF7C7
:101D1C004FFFEEE706468DE74A4B1868002894D033
:101D2C00494B4FF47A7B1B684FF03C0CB5FBF3F539
:101D3C00B5FBF0F14FF4616300FB11550BFB05F59E
:101D4C00B1FBF3F2B5FBF0FE03FB121100FB1E55C9
:101D5C00B1FBFCF30BFB05F5B5FBF0F50CFB13111C
:101D6C0020460091CDE901E53849FFF721FF6CE7EA
:101D7C0007F008058AE7B8F1010F4D460CBF2C4857
:101D8C00334896E720462D49FFF712FF0136A6E7A8
:101D9C00002620462F49FFF70BFF33461AF8032085
:101DAC002046A2F120035F2B28BF2E222A49FFF7E1
:101DBC00FFFE0136102E0DD0720703D120461F49AD
:101DCC00FFF7F6FEB0453346E8D820461B49FFF72F
:101DDC00EFFEEEE7049BC244B3EB080304937FF4DD
:101DEC0072AFB9F1000F0AD0FB0704D520460A4A9E
:101DFC000A49FFF7DDFE39462046FFF7EBFE204689
:101E0C0009B0BDE8F04F17F055BB00BF46D8010034
:101E1C004AD8010094CA010041D80100C8E201006F
:101E2C00A8CA01006FD8010075D8010079D801004B
:101E3C00DB940100ED2B00007ED8010086D8010058
:101E4C0084D80100541500205015002053D80100EF
:101E5C000995010088D801008AD8010042F20F735D
:101E6C0073B58B4228BF0B460568044605216846AE
:101E7C000D4A16F0B3FA0646636828460B225B68D7
:101E8C000A4917F009FB63683246694628465B68C5
:101E9C0017F002FB63681B2228465B68044917F0A5
:101EAC00FBFA02B070BD00BF3BDE010083F2010003
:101EBC0067F2010000210123064A904206D8064A27
:101ECC0001B901231360054B1860704701214008CC
:101EDC005B00F2E740420F00501500205415002023
:101EEC00F8B50D460446064F4618B44201D12846B3
:101EFC00F8BD14F8011BBB6801485B689847F4E710
:101F0C00C4BE0100014B036000207047F0CA010001
:101F1C0008B50348034A0021121A17F0B3FB08BD99
:101F2C00A007002054360020074808B5074A084986
:101F3C00121A17F0A9FBBDE808400648064A0749E3
:101F4C00121A17F0A1BB00BF000000209C07002054
:101F5C002CF3010000000020000000202CF30100F5
:101F6C002DE9F04706460C4600AF002936D0D1E9E2
:101F7C000012E9468AB06D46A3684FF0050AE846A0
:101F8C001F48CDE90723CDE9050148F810AF002320
:101F9C0042464FF421511B48FFF72CFDD4E90312A4
:101FAC00CD466369AD461848C5E90723C5E9050167
:101FBC00C5F810A0002342464FF421511148FFF7F9
:101FCC0019FDCD46E3690121104A0E4817F04EFA6F
:101FDC00A36901210E4A0B4817F048FA012E07D1CC
:101FEC00EFF305830B4A31460648103B17F03EFAD7
:101FFC002146304614F082FFBD46BDE8F08700BF95
:10200C00C7D8010010C90100F6D8010025D901007C
:10201C0034D9010062D9010030BFFFF7FDBF00BF0A
:10202C002DE9F04105460B4EDFF82C80324606EBCD
:10203C000807CC1B2046094919F008FEA019424696
:10204C000021083C19F028FE2C6707F10800BDE8B8
:10205C00F08100BF000000000400000048C901002E
:10206C0010B5244C2449254817F01BFBA36A990191
:10207C003ED52248224917F014FB1E20A36ADA0130
:10208C0004D51E481F4917F00CFB1F20194CA36ADE
:10209C00DB0204D519481C4917F003FB0220A36A84
:1020AC001C0304D51548194917F0FBFA2120114CD3
:1020BC00A36A590304D51148154917F0F2FA2220E6
:1020CC00A36A9A0304D50D48124917F0EAFA2320A3
:1020DC00084CA36ADB0304D508480F4917F0E1FA52
:1020EC002420A36A6FEA03436FEA1343A36210BD73
:1020FC001D20C3E700ED00E075D9010010C90100F7
:10210C008DD90100A0D90100BAD90100E4D9010090
:10211C0002DA010027DA010041DA010070B5064647
:10212C000D46294C29492A4817F0BBFAA36ADB064D
:10213C0047D52748274917F0B4FA1120A36A1C0782
:10214C0004D52348244917F0ACFA12201E4CA36A7C
:10215C00990712D521491E4817F0A3FA636BA26A9E
:10216C00120609D501211E4A194817F07FF91EB134
:10217C00A36A23F08003A3621320134CA36ADE0727
:10218C0004D51348174917F08CFA1420A36A9C063F
:10219C0004D50F48144917F084FA15200A4B9A6A93
:1021AC00D10658BF9A6A9A6A920642BF5A6A22F4BA
:1021BC0000525A629A6A42F0FF029A6200232B7014
:1021CC0070BD1020BAE700BF00ED00E06CDA010032
:1021DC0010C9010082DA0100B5DA0100C8DA010089
:1021EC00E0DA0100F6DA010015DB010070B50646F5
:1021FC000D46284C2849294817F053FAA36AD904EC
:10220C003CD52648264917F04CFA1720A36A1A0524
:10221C0004D52248234917F044FA18201D4CA36A10
:10222C009B0512D51D48204917F03BFAA36BA26AF7
:10223C00100409D501211D4A184817F017F91EB1D1
:10224C00A36A23F40043A3621920124CA36A590514
:10225C0004D51248164917F024FA1A20A36ADA0595
:10226C000ED50E48134917F01CFA1B20094A936A25
:10227C0043F47F43936200232B7070BD1620C5E797
:10228C00A36A9B04F2D505480B4917F00AFA1C20E7
:10229C00ECE700BF00ED00E044DB010010C90100D9
:1022AC005ADB0100B5DA01006BDB010084DB0100B5
:1022BC0099DB0100B4DB010015DB01002DE9F041D5
:1022CC008AB0674B0446D3F80480002500AFC8F3EE
:1022DC00080685F31188BFF36F8F02F07F43B3F1CB
:1022EC007F4F07D102F00C03082B12D15D495E48D9
:1022FC0017F0D7F900252C460023FB71F31E092B90
:10230C0000F28E80DFE803F00A8487808C8C8C8C42
:10231C008C8A10074CBF0C460125EDE753495248F7
:10232C0017F0BFF900234E4EFB71F36A9A0705D5DF
:10233C004F494D4817F0B5F900232DE0F36A002BF7
:10234C0001DA4C49F5E7F36A5B00F5D54A49464892
:10235C0017F0A7F97369A26943F480737361BFF333
:10236C004F8FBFF36F8F32F8023C726922F4807288
:10237C007261BFF34F8FBFF36F8F03F47F42B2F5DF
:10238C005F4F2BD1DBB2022B28D1236801213B4AB2
:10239C00354817F06BF82368FA79DAB907F10806B3
:1023AC0004F1200C324620686168083403C264458D
:1023BC001646F7D17A6A002D4FD0C2F3080121B925
:1023CC006FEA52226FEA42227A62184607F108013C
:1023DC00FFF7C6FD2837BD46BDE8F081204B9A6A51
:1023EC00D2B222B10120F91DFFF798FE0EE09A6AD5
:1023FC0012F47F4F04D00120F91DFFF7F7FE05E022
:10240C009B6AB3F5803F97D3FFF72AFE0346C3E7D9
:10241C000020F91DE8E70020F91DEEE7184988E7D0
:10242C00184A18F4F87FE8468AB0174B08BF1346D1
:10243C006A461649103ECDE905134FF40073ADF80A
:10244C002030134B079642F8103F00234FF41151E4
:10245C000548FFF7CFFAC5466EE76FF30802B3E7FE
:10246C0000ED00E0FADB010010C9010025DC0100E1
:10247C003CDC01005DDC01006BDC01008ADC01004E
:10248C00A6DC0100CCDB0100E1DB0100CADC0100B1
:10249C0004000001064B5A6942F010025A615A6955
:1024AC0042F480625A615A6922F008025A617047FC
:1024BC0000ED00E0EFF30880EFF3098101B57246FF
:1024CC00FFF7FCFE01BD00BF0B4880F3088813F03A
:1024DC0061FD202080F3118808484FF400614018FA
:1024EC0080F30988EFF314800221084380F31488E9
:1024FC00BFF36F8F00F06AF8285D0020E84B0020D6
:10250C001EF0040F0CBFEFF30880EFF30980816914
:10251C0011F8021C0229FFD001B5724617F0B6F86B
:10252C0001BD00BF00B2002807DB01234109034AAB
:10253C0000F01F00834042F82130704700E100E0BA
:10254C0000B200280CDB01220649430900F01F00F1
:10255C008240203341F82320BFF34F8FBFF36F8F9E
:10256C00704700BF00E100E0054B420953F8222000
:10257C00012300F01F0003FA00F01040704700BF69
:10258C0000E100E000B2002801F10101ACBF00F154
:10259C006040064B4FEA4111C9B2ABBF00F5614038
:1025AC0000F00F0080F800131954704714ED00E090
:1025BC00044B054A23F07F039360BFF34F8FBFF3A7
:1025CC006F8F70470000000000ED00E008B5FFF7CA
:1025DC00EFFF0B4AD2F8883023F47003C2F888302E
:1025EC00EFF3148323F0040383F31488BFF36F8F8A
:1025FC00FFF78EFCFFF798FC00F09CF814F0A0FDA0
:10260C0000ED00E042F8203C009B0B4942F81C3CDA
:10261C00019B21F0010142F8183C029B42F8081C76
:10262C0042F8143C4FF0807342F8043C0023203AEB
:10263C0002654367704700BFB912000000B50D4B2F
:10264C0015469860026F0C4B0E461A60036E83F3AE
:10265C000B882C4686F309880020044B98472046AB
:10266C00002100220023024C20470000CD960100DF
:10267C00B9120000403500207C1500201022014BBF
:10268C001A61704700ED00E0054B5A699B689A424D
:10269C001FBF044A536843F080535360704700BF18
:1026AC004035002000ED00E0084B9B6883420BD1C5
:1026BC00EFF3058343B1064B5A6842F080525A60DF
:1026CC005A6A22F400425A6215F00ABB40350020C7
:1026DC0000ED00E014498A684FF030001044EFF32D
:1026EC00098C80E8F01F202080F31288BFF36F8FD5
:1026FC000E4F4FF000664A698A603E60106F0C4CBA
:10270C002060506F0023536780F3118802F1300072
:10271C0090E8F01F8CF3098802F1000004B516F064
:10272C00C8FFBDE8044070474035002004ED00E0D0
:10273C007C1500200023202040F20F1210B5044C11
:10274C00E1180133934281F80003F9D110BD00BFA9
:10275C0000E100E008B5EFF30583064A103B02EBFD
:10276C00C30152F8330049688847BDE80840FFF7B9
:10277C008BBF00BFFCBE0100014800687047000021
:10278C007C1500201FB50121094B0A4A0A4800F0AC
:10279C000FF90023064A0393084B0121019301A86A
:1027AC00D31A029300F00EF905B05DF804FB00BFDC
:1027BC0000000420000000207CCB0100A0070020BA
:1027CC000A7A0B6810B562F304031C46CB685209F5
:1027DC0023F01F0343EA4203044A43F00103C2F807
:1027EC009800C2F89C40C2F8A03010BD00ED00E08B
:1027FC0010B50A4BD3F89030C3F30723013B984232
:10280C0008D901210346064A064816F02FFE6FF040
:10281C00150010BDFFF7D4FFFBE700BF00ED00E093
:10282C00E1DC0100F8C801002DE9F04F894614469F
:10283C0006464FF000084F4D85B0C84527DAD6F84C
:10284C0004A0BAF1000F44D0BAF11F0F17D91AF037
:10285C001F0F14D1D6F800B01BF01F0F0FD1584624
:10286C0016F051FF07460AEB0B00013816F04BFF30
:10287C00874210D06FF015073F4A3B4601E04346B4
:10288C003E4A01213E4816F0F1FD6FF0150420463A
:10289C0005B0BDE8F08F17F1160FEDD0BC42EBDDA3
:1028AC00C5F89870D5F89C10C5F89870D5F8A0307C
:1028BC0021F01F0143F01F0BD6E900321A44994254
:1028CC0002F1FF3A1AD1D34507D13146F8B216F0CE
:1028DC0023FF08F101080C36AFE73146C5F89870B4
:1028EC00D5F89C30E0B263F30402C5F89C2016F0D6
:1028FC0013FF10F1160FC8D0441CEAE7C5F8987006
:10290C00D5F8A020013B23F01F0302F01F02134354
:10291C00D3453146E0B2C5F8A030E8D016F0FCFE45
:10292C0010F1160FB1D0C5F89870D5F89C209DF811
:10293C0008300BF1FF3B62F304038DF80830D5F837
:10294C00A0309DF808205B0863F347128DF808202F
:10295C00D6E900321344009323F01F035B44A3EB2E
:10296C000A03013023F01F036946C0B20393FFF73B
:10297C003FFFBEE700ED00E02DDD010007DD0100AB
:10298C00F8C801000522044BC3F89420BFF34F8F05
:10299C00BFF36F8F704700BF00ED00E0BFF35F8F98
:1029AC000022024BC3F89420704700BF00ED00E0FA
:1029BC0010B5034C2278FFF737FF207010BD00BF15
:1029CC00993500202DE9F74F294D8A4606464FF0E0
:1029DC000008AB46274FD0451BDAD6F80490B9F166
:1029EC00000F3FD031680846019116F08CFE01991A
:1029FC00044609EB0100013816F085FE84424FF0C5
:102A0C0014021D4B08D002FB08F36FF015024BF8B3
:102A1C00032003B0BDE8F08F14F1160F2C60F8D032
:102A2C001978A142F5DD02FB08B0C7F89840C7F849
:102A3C009840D7F89C4000F10801007B64F3040037
:102A4C000871D7F8A0000C79400860F347140C719A
:102A5C00D7F89C1021F01F016960D7F8A01021F065
:102A6C001F01296108F1010814350C36B3E700BFCA
:102A7C008015002000ED00E099350020F0B5534999
:102A8C00534DD1F890302C68C3F307239C4287B088
:102A9C0000F299800020FFF781FF4E4BC1F8C03047
:102AAC00844216D14C4D01A82C70FFF72BFA00264E
:102ABC0007464A4CB74213D100202B784349D1F832
:102ACC009020C2F30722934277DBFFF75BFF0020D5
:102ADC0046E0696801EB0011FFF772FE0130DFE799
:102AEC000199300101EB0613DA682240B2F1807FC4
:102AFC0052D00AD8B2F5001F34D0B2F5800F3ED0B8
:102B0C00B2F5801F12D00136D4E7B2F1006F43D07A
:102B1C00B2F1805FF7D15A689B680958013B22F0EB
:102B2C001F00034423F01F03012032E05A689B6806
:102B3C000958013B22F01F0003440120844623F076
:102B4C001F0340EA4C10CDE902218DF8100002A9B8
:102B5C0028780593FFF74CFE00282ADA6FF0150051
:102B6C0007B0F0BD5A689B680958013B22F01F0062
:102B7C0003444FF0020C012023F01F03E1E75A68D5
:102B8C009B680958013B22F01F000344062023F0E8
:102B9C001F034FF0000CD4E75A689B680958013B9F
:102BAC0022F01F0003444FF0030C012023F01F03FD
:102BBC00C7E72B7801332B70A5E7C1F89830C1F823
:102BCC00A00001337BE74FF0FF30C9E700ED00E0D8
:102BDC0088CB0100AAFF4400993500200000F0FFCB
:102BEC00F0B587B007460E46144600211022684601
:102BFC001D4619F051F802238DF80230054B2A4678
:102C0C0021466846CDE90476019315F011FC07B016
:102C1C00F0BD00BF5797010008B5024B1B689847E1
:102C2C00002008BD94150020034B044A18609378CB
:102C3C0043F002039370704794150020700200203B
:102C4C0008B50649064821F00701C1F1005202F50A
:102C5C00802215F023FF002008BD00BF478900200B
:102C6C009815002070B541690446867A0A4D59B111
:102C7C00437ADB0706D4242303FB0653DB691B686A
:102C8C009B689847002363612420214600FB065073
:102C9C00BDE8704018F0F1BCA00600202422024BC5
:102CAC0002FB0030704700BFA00600202421827A6E
:102CBC00054B01FB02331A6A1B7D801A1B3323F070
:102CCC000303B0FBF3F07047A006002038B52424B2
:102CDC00827A064B04FB0233DB69D3E901240C60D6
:102CEC001568FFF7E3FF04FB005038BDA006002079
:102CFC002DE9F04385B00546684690461C46039185
:102D0C0018F033FFDDE90067EFF31189202383F31B
:102D1C001288BFF36F8F6B8A002B41D02A8A9A429C
:102D2C0025D900220023284614F0C6FA0446F0B137
:102D3C0089F31188BFF36F8F039B002B41D0324670
:102D4C003B46684618F036FF2421A27A254B2046D4
:102D5C0001FB0233DB6903A91B681D68DDE9002355
:102D6C00A847606170BB2046FFF77CFF24E0698AAE
:102D7C004B1E6B8289F31188BFF36F8F2B7D2A8AD0
:102D8C002C6A1B3323F00303521A02FB0344154B2A
:102D9C00154AEB1A9B105343A3722B7DE372CBE7BE
:102DAC0089F31188BFF36F8F23464246284614F0EF
:102DBC0083FA04460028BFD10024204605B0BDE8A4
:102DCC00F0836361012300252381039B29466382E1
:102DDC00E27A656004F1180018F05EFF63692582E1
:102DEC00E360EAE7A0060020398EE33870B52425AD
:102DFC000C4C00B970BD037A4668002BFAD0013B2D
:102E0C00DBB20372002BF5D1C3604360837A05FB00
:102E1C0003439B6913B198473046EAE7FFF722FF5B
:102E2C00FAE700BFA006002008B5244A244B1A601C
:102E3C0012F01AFB4FF47A612248D0F82436C3F30F
:102E4C000802C3F309434B4382F480721E49883253
:102E5C0001FB02334FF4FA215B00B3FBF1F201FBEF
:102E6C0012331A49B3F57A3F28BF0132C1F804294D
:102E7C00D0F820364FF47A60C3F30802C3F3094349
:102E8C00434342F21C5082F4807202F2172200FB80
:102E9C0002334FF47A701B0AB3FBF0F200FB1233CF
:102EAC000020B3F5FA7F4FF0010328BF0132C1F8BF
:102EBC001C27C1F80009C1F8003608BD0020A10785
:102ECC006C05002000C0FF00F82A008000001250A2
:102EDC0048B1054B054A1B68B3FBF2F35843044B4E
:102EEC0043F00103184770476C05002040420F0067
:102EFC00D0C901000E4B402928BF402170B51D469A
:102F0C000C4C4618B04203F1020304D1002305F81F
:102F1C001130074870BD02781209A25C03F8022C2C
:102F2C0010F8012B02F00F02A25C03F8012CE9E768
:102F3C00B8350020A9F2010030B503788BB00446F7
:102F4C0007AD032B21D8DFE803F0021A1C1E12492F
:102F5C002846FDF7A7FA059563781E210493A378FC
:102F6C000E4A0393E3780E48029323790193637915
:102F7C000093A37915F032FA09480BB030BD09491A
:102F8C00E6E70949E4E70949E2E70A212846084A45
:102F9C0015F024FADFE700BF7ADD01009CDD0100AB
:102FAC009A35002081DD010088DD010092DD0100F1
:102FBC004EEE010030B50378012B11D0022B21D03D
:102FCC006BB90A46144B03F1100453F8045BA3428B
:102FDC0042F8045BF9D143881A0A8A70CB7030BD71
:102FEC000A460D4B03F1100453F8045BA34242F85C
:102FFC00045BF9D143681A0C180E4A700870C3F3BD
:10300C000722EAE700F11003013913F8012998426D
:10301C0001F8012FF9D1E2E7BAF2010010B516F070
:10302C00C3FC18F02CFC044608B914F08FFD064BB9
:10303C00D3E8AF3F0BB10A2098471CB9BDE810404C
:10304C0014F098BD10BD00BFA415002038B504467F
:10305C00084816F08BFB054648B1631EDBB21F2BEC
:10306C0096BF054A0021D15C0C3016F0FAFB2846BD
:10307C0038BD00BF54070020CAF201000F2810B55C
:10308C000CD80D280CD90A4816F070FB044618B160
:10309C0004210C3016F0E5FB204610BD1328F2D0AD
:1030AC0009B10448F0E70220BDE81040FFF7CEBF9D
:1030BC0078070020E8060020C3681B780221024A2A
:1030CC00024816F0E1BC00BFCEDD0100A8C801002B
:1030DC0038B5C5682B7893B9B5F801400F21204657
:1030EC0002F0AAFCEB78054650B90A4A118831B9AE
:1030FC006FEA04506FEA10501080074A137038BD05
:10310C004372012102F0B2FB2846BDE8384002F0C0
:10311C005BBB00BF743500203936002070B5C36826
:10312C001D78BDB9B3F801600F21304602F084FC64
:10313C00044638B901213346BDE87040064A0748B9
:10314C0016F0A2BC294602F091FB2046BDE8704067
:10315C0002F03ABB70BD00BFF6DD0100A8C801004B
:10316C0010B501210C3016F09DFB03780121BDE850
:10317C001040024A024816F087BC00BF1CDE01005A
:10318C00A8C80100014610B5084816F0F3FA084922
:10319C00084818F024FB031E06DABDE81040012194
:1031AC00054A064816F070BC10BD00BF6401002033
:1031BC0080030020A80D00203EDE0100A8C80100FD
:1031CC002DE9F14FC56801212E88304602F034FC00
:1031DC00044640B901213346284A294801B0BDE8CC
:1031EC00F04F16F051BCB5F80280EE881FFA88F348
:1031FC00AF88A3F11B022D89E02A1FFA86FA1FFA69
:10320C0087F91FFA85FB04D902211E4A1C4816F0C7
:10321C003BFCAAF11B03E02B05D9022153461A4AA9
:10322C00174816F031FC44F24812A9F5A4739BB26E
:10323C00934205D902214B46144A114816F024FC3E
:10324C0044F24812ABF5A4739BB2934205D9022108
:10325C005B460F4A0A4816F017FC2046A4F8AA80D1
:10326C00A4F8AC70A4F8AE60A4F8B05002F030FE34
:10327C00204601B0BDE8F04F02F0A6BA5BDE0100BB
:10328C00A8C801007FDE0100A8DE0100D1DE01002C
:10329C00F8DE010010B5002486B003AB00934FF4A8
:1032AC0080624FF0FF3305490548CDE9034405948E
:1032BC0014F01EFA204606B010BD00BF583D002089
:1032CC00080D002010B5084C0146062294F86F003A
:1032DC0002F002FF38B994F86F000522BDE81040E7
:1032EC00024902F0F9BE10BD300000208FF201003F
:1032FC000121024A024816F0C5BB00BF1FDF0100C6
:10330C00A8C801000B46B0B50D8A00AF044629468B
:10331C00D868FFF7EFFD8AB06A46094BCDE9075034
:10332C00CDE9053440F20243ADF82430054B4FF49F
:10333C003251054842F8103F16F0B3FBBD46B0BD04
:10334C0039DF010005000001A8C8010070B5C5688F
:10335C000121B5F80160304602F06EFB044638B925
:10336C0001213346BDE870400B4A0C4816F08CBB6B
:10337C002B783BB9D5F80330C0F89930D5F8073025
:10338C00C0F89D30201D4FF4803116F07FFB204695
:10339C00BDE8704002F018BA5BDE0100A8C801005D
:1033AC002DE9F84FD0F80C90018A99F8004000AF45
:1033BC00A30001338B425FD96D468AB06A46CDE9D2
:1033CC00073105232E484FF42151CDE905042D4832
:1033DC0042F8103F16F065FBAD46BD46BDE8F88FD0
:1033EC0001212B46284A274816F04EFB013699F846
:1033FC0000309E42F1DA09EB8603B3F801500F213D
:10340C002846B3F8038002F017FB04460028E7D0E7
:10341C0000F1CC0AB8F1000F06D0656945B901215D
:10342C001A4A184816F02EFB204602F0CDF9DDE7BB
:10343C00A2692B6895422046636108BFA36102F024
:10344C00E9F813F06BFFC5F800B0236A8BB9C4E937
:10345C000755DAE8EF3F013BCAE8E23F002AF8D112
:10346C000021204608F1FF3802F0E0F81FFA88F836
:10347C00D0E71D602562ECE70026B346B7E700BF36
:10348C005BDF0100A8C8010086DF0100A2DF01009C
:10349C0037B50446084602EBC3039A4202D16FF0DB
:1034AC005E0010E0114611F8085BA54211D1038AA9
:1034BC005178994209D908480121084A009415F01D
:1034CC00DFFF6FF0150003B030BD53689847002044
:1034DC00F9E70A46E1E700BFA8C80100B9DF01001F
:1034EC002DE9F0470C4614F031FBE5682B78022BE4
:1034FC0075D0042B0AD001213D4A3E4816F0C4FA7F
:10350C002046FFF773FC6FF015040EE0B4F8108042
:10351C00B8F1020F0ED84346374A3648012116F04F
:10352C00B3FA2046FFF762FC002414F023FB20467C
:10353C00BDE8F08768783E280CD1B8F1030F02D1B2
:10354C002E4A4346E9E7EB78012B01D00A2B46D1F2
:10355C00032704E016F084FA0746F8073FD504F178
:10356C000C0601213046D4F814A016F093F9022170
:10357C00304616F097F9814600783E2807D1E3686B
:10358C001B78012B01D00A2B06D1032614E016F070
:10359C0067FAC10706460FD441F26813184A194955
:1035AC00194815F01BFB002383F31188BFF36F8FB1
:1035BC000323184602DF0226144A0623214699F8F3
:1035CC00000016F095FAB2070DD56369A5EB0A0554
:1035DC0013FA85F5E560A4F81080BB07A4D5204646
:1035EC00FFF7D0FDA0E72046FFF700FCF5E700BF92
:1035FC0081E00100A8C80100DBDF0100F7DF01005A
:10360C0017E001004BE0010064E0010034CC010044
:10361C0010B5012104460C3016F044F92146BDE8E2
:10362C0010400223014A007816F062BA64CC010003
:10363C0073B53E4816F0B3F80446002873D000F179
:10364C000C05284616F036F90228034603D0042848
:10365C0047D0374A03E0238A032B05D8354A01218A
:10366C00354816F011FA13E00421284616F01AF921
:10367C00FF23428806882376238AC6F30B009A42DE
:10368C00608309D0012100922B482C4A15F0F8FEDA
:10369C002046FFF7ABFB12E00F2102F0CDF90546F7
:1036AC0010B9638B264ADAE702F0ECF92146207652
:1036BC00320B284602F00CF8284602F085F8214B14
:1036CC00D3F834317BB32049204818F088F8031E16
:1036DC0029DA01211E4A184802B0BDE8704016F0E4
:1036EC00D3B92846022116F0DDF8054600783E28AD
:1036FC0012D016F0B5F910F002060DD140F69A432F
:10370C00144A1549154815F069FA86F31188BFF368
:10371C006F8F0323184602DF04232146104A2878B2
:10372C0016F0E6F9B4E702B070BD00BF64010020EA
:10373C002AE1010095E00100A8C80100B6E00100F3
:10374C00DAE001003000002080030020A80D0020EA
:10375C003EDE010017E00100FCE0010064E0010026
:10376C0074CC010010B5012104460C3016F09AF807
:10377C002146BDE810400723014A007816F0B8B97D
:10378C0094CC0100F8B50121044600AF0C3016F0C2
:10379C0089F80678002321463046104AFFF778FE58
:1037AC005F3019D1258AE0682946FFF7A3FB6C46E8
:1037BC008AB06A460A4BCDE90750CDE9053640F28E
:1037CC000243ADF82430074B4FF43251064842F80F
:1037DC00103F16F066F9A546BD46F8BDCCCC0100ED
:1037EC003EE1010005000001A8C801002DE9F74FDA
:1037FC000023804689461746DFF800A1DAE8EF4F30
:10380C00CAE8E23F002AF9D1264644B901214346D1
:10381C003B4A3C4803B0BDE8F04F16F035B92046A2
:10382C00FFF744FA4FF00C0B374D0BFB005043885D
:10383C0043451BD02046FFF739FA0BFB0050438859
:10384C0001210093314A43462E4815F019FEDAE85F
:10385C00EF3FCAE8E26F002AF9D1002B4BD01E468D
:10386C00304603B0BDE8F04FFFF7C0BAA74208D00E
:10387C00204615F076FF3A8AF96804F10C0015F031
:10388C00E7FF2046FFF712FA0C2707FB00504368AE
:10389C00ABB1B9F1000F12D12046FFF707FA0121A5
:1038AC0007FB00504268536803F01F00814010680A
:1038BC005B0900EB8300137ACBB116F0E7F82046D6
:1038CC00FFF7F4F90C2707FB00508368002BC7D0D7
:1038DC002046FFF7EBF9784305F800902046FFF7F8
:1038EC00E5F907FB0055A86813F018FDB8E7C943C4
:1038FC0016F0DAF8E3E703B0BDE8F08F60010020C2
:10390C0070E10100A8C80100A815002098E1010091
:10391C0073B5C5680121B5F80160304602F08CF82A
:10392C00044640B9012133463B4A3C4802B0BDE84D
:10393C00704016F0A9B82B78061D1A2B19D1C37834
:10394C00012B50D14FF48041304616F09FF84204C1
:10395C000FD4D4F88C3069460093D4F894302046B8
:10396C00019302F0E9FE204602B0BDE8704001F080
:10397C002BBF2B78BBBB40F2E242B5F80330284991
:10398C005343C4F88830B5F80520A4F89020B5F856
:10399C000720A4F89220A3F5EA520C3A8A4204D9E3
:1039AC000221204A1D4816F06FF8B4F89030B3F598
:1039BC00FA7F04D302211C4A184816F065F840F629
:1039CC007641B4F89230A3F10A0292B28A4204D939
:1039DC000221164A114816F057F86FF48051304600
:1039EC0016F062F813E0D6E8AF3FDB04F5D52B7880
:1039FC00202BF2D194F89830002BEED0013B84F8B8
:103A0C0098300B4A002304F1400013F0DBFE2046F3
:103A1C0002F012FAA7E700BF5BDE0100A8C80100A4
:103A2C0095F03C00CBE10100F2E1010019E201004C
:103A3C005A620200B0B53C28044600AF1AD101F01E
:103A4C00F7FA6FF48071103016F02EF80020FFF7A3
:103A5C0039FC054630B90121114A124816F012F80A
:103A6C00BD46B0BD4472002101F000FF284601F0B4
:103A7C00ABFEF5E76D468AB06A460B4B4FF412511C
:103A8C00CDE90530094B0748079340F20133ADF8F7
:103A9C002030074B42F8103F16F003F8AD46DFE735
:103AAC0045E20100A8C8010066E2010040D801000F
:103ABC0004000001054BD3E8AF2F02F00B02D3E852
:103ACC00EF1FC3E8E02F0028F9D170470401002054
:103ADC0010B5C1E900239DF808300C460B72FFF7B6
:103AEC00E5F80C22024B02FB00335C6010BD00BFFA
:103AFC00A8150020F8B502460B46104815F036FE06
:103B0C000446C0B104210C3015F091FE2046FFF79D
:103B1C00CDF80C2700260A4D07FB005046802046A6
:103B2C00FFF7C4F807FB005086602046FFF7BEF88D
:103B3C0007FB00556E602046F8BD00BF3007002023
:103B4C00A81500200138C0B202289ABF014B185C9E
:103B5C0000207047EAF2010070B5C5680121B5F884
:103B6C000160304601F068FF044638B90121334644
:103B7C00BDE870400A4A0B4815F086BFE878FFF79D
:103B8C00E1FF84F8A8002879FFF7DCFF84F8A9008E
:103B9C00204602F0C3F92046BDE8704001F014BE87
:103BAC005BDE0100A8C8010010B5044692B04422A7
:103BBC00064901A818F04AF8102C9DBF12AB03EB74
:103BCC00840454F8440C024812B010BD64C90100BE
:103BDC0082E20100034B0146D3F84C0182689268E3
:103BEC00104700BF300000202DE9F047042100AF42
:103BFC00464815F04BFF6D4688B06A46444B4FF46F
:103C0C00E6510593434B444806934FF40073ADF8CB
:103C1C001C30424B424C42F8103F15F042FFAD466F
:103C2C00E179404B404E2046012998BF1E46FFF7D4
:103C3C0083F98AB06A463D4B0790CDE905363C4B7B
:103C4C004FF4235108933B4B334842F8103F15F087
:103C5C0028FFA246AD460125374EDFF8E080E37918
:103C6C000AF1070A9D423ADB94F870506E462846DA
:103C7C00FFF79AFF8CB06A46B4F87210B4F876303D
:103C8C00CDE907514FF40075DFF8B4C009932D4B03
:103C9C00CDE905C0ADF828504FF4535142F8103F10
:103CAC001D4815F0FEFEB54694F871603046FFF7DE
:103CBC007BFF8AB06A46B4F874302349CDE90763B8
:103CCC00224BCDE90510ADF824504FF43351124876
:103CDC0042F8103F15F0E5FEBD46BDE8F0875046B2
:103CEC00FFF72AF9E9468AB06A4640F20133CDE97A
:103CFC0005650790ADF820304FF41351064842F893
:103D0C00108F15F0CEFE0135CD46A8E7040100203A
:103D1C008EE20100A0E20100A8C80100030000012E
:103D2C003000002040D801008AE20100ABE2010023
:103D3C000002010304000002BAE2010004000001C9
:103D4C00CBE201000600000109E3010005000001BF
:103D5C000048704771D601000149024817F03FBD79
:103D6C0070030020080D002070B505460C4639B1D3
:103D7C00CB684A699B1A032B0ED86FF0150509E026
:103D8C004FF0FF304FF0FF31FFF7B4FE044618B987
:103D9C006FF06805284670BD2046FEF787FF0C22A1
:103DAC00164BA61802FB0033032130465D8015F03C
:103DBC0060FD0580238A0121033B8370304615F09A
:103DCC0060FD40F635439D420FD12046FFF702FFC0
:103DDC0005460028DED001210346094A094815F0A2
:103DEC0053FE2046FFF702F8D4E72146064817F0A9
:103DFC0039FC0025FFF7B0FFCCE700BFA815002069
:103E0C0030E30100A8C801006C0100202DE9F04747
:103E1C0084B0804691460C4600AF71B94FF0FF302C
:103E2C004FF0FF31FFF766FE044660B96FF068058E
:103E3C0028461037BD46BDE8F087887AFEF72EFF7E
:103E4C003B4B83426ED101220021384617F023FCF4
:103E5C002046FEF72BFF0C23DFF8D8A003FB00A0B5
:103E6C008760204615F0B1FC01464046FFF77CFF09
:103E7C00054618B12046FEF7B9FFD9E700233846AE
:103E8C002D4A13F07FFA064690B14FF4F1732B4A8A
:103E9C002B492C4814F0A2FE324641462A4814F015
:103EAC009DFE85F31188BFF36F8F0323184602DF45
:103EBC002046FEF7FBFE0C2358431AF800605EB355
:103ECC006D468AB06A46214B0796CDE90538204BE2
:103EDC004FF43251089340F20243ADF824301D4B9D
:103EEC001D4842F8103F15F0DCFD2046AD46093E5A
:103EFC00FEF77CFF092E0CD8DFE806F0050B0B084B
:103F0C00170B0B0B0B146FF06E0591E76FF00C0594
:103F1C008EE76FF004058BE7B9F1000FAAD0C9F852
:103F2C00004085E76FF0150582E76FF00B057FE722
:103F3C0030070020A8150020B4C4040017E00100CD
:103F4C0052E3010064E001005BE30100A0E3010027
:103F5C0040D8010005000001A8C8010073B5064651
:103F6C000D4642F22F00002101AAFFF74FFF044635
:103F7C0038B10121144A154815F084FD204602B0D1
:103F8C0070BD0198C368B3F801203280B3F80330D8
:103F9C002B80FEF72BFF3388A3F11B02E02A04D9F8
:103FAC0002210B4A094815F06FFD44F248112B8889
:103FBC00A3F5A47292B28A42E0D90221054A0348C1
:103FCC0015F062FDDAE700BFBFE30100A8C80100ED
:103FDC0083DE0100D5DE01002DE9F04F85B000260F
:103FEC00614BB0F80190198849F47042914204BFBA
:103FFC001E805E4B00F1040A08BF1E78C37800AF28
:10400C00012B08BF5A4B0546504614BF002493F8A9
:10401C006F4015F0C5FC07F10808514668B34FF026
:10402C00010B404615F0B1FCD5F81130C7F8013042
:10403C00B5F81530A7F80530EB78012B34D0504685
:10404C00FEF77AFF6C4688B06A464A4B4FF4E25151
:10405C00CDE905304FF40073ADF81C30464B4748A2
:10406C0042F8103F15F01DFD1321A546484615F0EA
:10407C0073FD1437BD46BDE8F08F204615F014FED5
:10408C000346006895F804B0B8609A889B79686814
:10409C00A8F8042088F80630BAF804209AF80630FC
:1040AC003860BA80BB71C7E74046FFF70BF904468E
:1040BC000028C4D00346B5F8012023F8702B98F8DB
:1040CC000620B868B8F8041020679A7140F2E242F2
:1040DC009980B5F8173053430022C4F88830B5F8EE
:1040EC001930A4F89030B5F81B30A4F89230EB7866
:1040FC006272234A012BC4F8A82002F14702C4F8CB
:10410C00AC204FF4A472E370A4F8B0201AD187F855
:10411C0000B0BA88BB793868A4F87B2084F87D306D
:10412C00C4F8770000F084FF237A1149C3EBC30372
:10413C005A18CB58C4F87E309388A4F882309379FF
:10414C0084F884300721204601F090FB26B1012130
:10415C002046667201F08AFB204601F0CFFC204617
:10416C0001F032FB85E700BF7435002039360020A2
:10417C0030000020DFE3010003000001A8C80100AB
:10418C0001011B0000B5C36889B0187820B109B0D3
:10419C005DF804EBFFF74EBCB3F801208DF800007E
:1041AC00ADF80120DA788DF80320B3F80B20ADF8C8
:1041BC001720B3F80D20ADF81920B3F80F20ADF887
:1041CC001B205A7C8DF81D20586801901A899B7A07
:1041DC00ADF808208DF80A30084B68461A689B88A1
:1041EC00CDF80B20ADF80F30CDF81120ADF815300F
:1041FC00FFF7F2FE09B05DF804FB00BFA3F201006B
:10420C000022F0B585B0114640F6034002AFFFF72F
:10421C00FDFD044600285BD1FFF74CFC214641F222
:10422C0003003A1DFFF7F2FD0446002850D17A68CE
:10423C00C84DD16805F17803D1F80100D1F805100B
:10424C0003C31046FEF7D2FD214641F201003A1D90
:10425C00FFF7DCFD044600283AD17868C3685A7829
:10426C0085F870205A88A5F872201A7985F8712083
:10427C00B3F80720A5F87420B3F80530A5F876300C
:10428C00FEF7B4FD214641F202003A1DFFF7BEFDD8
:10429C000446E8B9D7F804C005F18006DCF80C2018
:1042AC00531C4132344618685968083303C493428E
:1042BC002646F7D16046FEF799FD95F87C305906F5
:1042CC000AD40121A44AA54815F0DCFB6FF01204B6
:1042DC0020460C37BD46F0BD002142F203003A1DCA
:1042EC00FFF794FD04460028F2D17A689C4BD16804
:1042FC00D1F80100D1F8051003C31046FEF776FD86
:10430C00214642F202003A1DFFF780FD04460028C8
:10431C00DED17E68F468B4F801309AB292B1E278DA
:10432C0082B1A5F8FC30E378032B06D003220221DE
:10433C0000928A488B4A15F0A3F8E2788A48114615
:10434C0017F0A9F93046FEF751FD1F2395F87C6054
:10435C00A5F8103116F0200619D14FF0FF304FF0B0
:10436C00FF31FFF7C7FB0446002800F0A0810221B3
:10437C000C3015F067FA0123214603704670324663
:10438C0040F66D40FFF742FD04460028A0D195F899
:10439C009C301A0712D5002142F21C003A1DFFF77F
:1043AC0035FD0446002893D17868C368D3F8012002
:1043BC00D3F80530C5E93823FEF718FD95F8D83049
:1043CC009B0623D53846B91CFFF7C8FD04460028C8
:1043DC007FF47EAF4FF0FF304FF0FF31FFF78AFBD9
:1043EC000646002800F0638104210C3015F02AFAEF
:1043FC003B88224603807B883146438042F224006E
:10440C00FFF704FD044600287FF462AF4FF0FF3045
:10441C004FF0FF31FFF76EFB0446002800F0478198
:10442C0008210C3015F00EFA95F8D820214612F020
:10443C00020F14BF2F230F23960695F8D92048BFDF
:10444C0043F0400312F0090F4FF0000218BF43F481
:10445C0000630370C3F3072343708270C270027150
:10446C0042718271C27142F20100FFF7CFFC044627
:10447C0000287FF42DAF95F87C30B5F8FC10980629
:10448C005DD4C9B941F205003A1DFFF7BFFC0446E3
:10449C0000287FF41DAFB5F8FC307C684BB9E3689D
:1044AC00B3F80120A5F8FC209A882F48114617F084
:1044BC00F2F82046FEF79AFC4FF0FF304FF0FF3138
:1044CC00FFF718FB0446002800F0F18008210C309F
:1044DC0015F0B8F9102303708823002243700226CC
:1044EC00202321468270C670027142718271C371A1
:1044FC0040F60140FFF78AFC044600287FF4E8AE42
:10450C0001463A1D4FF60140FFF780FC90B3174A65
:10451C000221124815F0B6FAEB79002B40F0B78067
:10452C0000F0D0FC044600287FF4D2AE01F00AFF64
:10453C00044600287FF4CCAEFFF756FBC8E60029F2
:10454C00BAD101210A4A054815F09CFA6FF004040F
:10455C00BEE600BF30000020FBE30100A8C801004C
:10456C00080100201FE401003001002088E4010054
:10457C0065E401007B686E46DC688AB0B4F80130F3
:10458C00042B96BF574A584952F8231002AAD361FC
:10459C004FF4007355481384554BC2E9050142F89A
:1045AC00103F4FF41351534815F07BFAB4F8012027
:1045BC00B546022AB4F8033049D1052B47D84E4AE8
:1045CC0052F823106E468AB002AAD3614FF40073DE
:1045DC004A481384464BC2E9050142F8103F4FF498
:1045EC001351444815F05DFAB546637994F806C04A
:1045FC00032B98BF424AB4F80760D4F809006C4604
:10460C008CB094BF52F82310374902AAC2E9073C78
:10461C004FF40073DFF8ECE093853B4BC2E905E106
:10462C00C2E909604FF4735142F8103F314815F05C
:10463C0038FAA5467868FEF7D9FB00214FF6024000
:10464C003A1DFFF7E3FB044618B1304A60E72649F0
:10465C00B8E77868C368B3F80130A5F8C130FEF745
:10466C00C5FB95F8C1305A077FF556AF21464FF67A
:10467C0003403A1DFFF7CAFB08B1254A48E77868A2
:10468C00C3685B7885F8C030FEF7B0FB44E72E7842
:10469C00002E7FF445AF95F8C1309B061FD54FF027
:1046AC00FF304FF0FF31FFF725FA044610B96FF0D9
:1046BC0068040DE606210C3015F0C4F8D5F801306D
:1046CC0021460360134B32469B8883804FF606408D
:1046DC00FFF79CFB044600283FF422AFF8E56FF08F
:1046EC008504F5E520CC010082E20100ACE4010078
:1046FC0004000001A8C8010008CC0100C5E40100B9
:10470C00F8CB0100DDE40100070000010AE501001F
:10471C0033E501003100002010B5FFF771FD034BAC
:10472C001B6813B1BDE81040184710BDCC15002014
:10473C0073B52A4D0646D5F84C0116F04AFE48B919
:10474C000121274A274815F09DF96FF012042046E5
:10475C0002B070BD6FF0020105F1D40015F0A4F9A0
:10476C00012115F093F910EA010434D11E4B1E609F
:10477C000A4605F5907016F08EFF05F59E7016F042
:10478C0043FF1A4817F056F86FF007034FF4966280
:10479C0017491648009412F0ABFF1649134817F04E
:1047AC0074F8D5F84C01144983681B689847044683
:1047BC0030B101210346114A0A4815F065F9C6E7E4
:1047CC0026B902B0BDE87040FFF71ABD05F1C40070
:1047DC0012F088FFBBE76FF07704B8E730000020D9
:1047EC005CE50100A8C80100CC150020A80D002034
:1047FC005841002074E50100ED3400007DE5010016
:10480C0073B5C368D9789A781E8842EA0122ADF84C
:10481C00002059791A79B4B242EA0122ADF802208B
:10482C00D9799A79204642EA0122ADF804201A7A05
:10483C005B7A012142EA0323ADF8063001F0FCF863
:10484C00054658B901211D4823461D4A15F01CF98F
:10485C000221204615F0DEF902B070BD694601F068
:10486C0083FB38B91E21204615F0D4F9284600F0F8
:10487C00ABFFF1E74FF0FF304FF0FF31FFF73AF9A4
:10488C0004460028F2D00E210C3014F0DBFF00237C
:10489C000680C0F80A30BDF8003021464380BDF8D0
:1048AC0002308380BDF80430C380BDF8063003812C
:1048BC0042F22000FFF758FAD8E700BFA8C8010061
:1048CC005BDE010038B5042104460C3014F0EAFF1D
:1048DC00034640885D7818B122461978FEF786FFAA
:1048EC0035B1044812F01AFDBDE83840FFF734BA70
:1048FC0038BD00BF50010020B0B50446032100AF05
:10490C000C3014F0CFFFE2680346117840F63542C4
:10491C00B0F80100904216D16C468AB06A46104B32
:10492C001048CDE90531104B4FF41251079340F26A
:10493C000133ADF820300D4B42F8103F15F0B1F8B3
:10494C00A546BD46B0BD1D7810B12246FEF74EFF00
:10495C00002DF6D0064812F0E1FCFFF7FDF9F0E768
:10496C0099E50100A8C8010040D80100040000012D
:10497C005001002038B513F0E9F82F4DD5F83C3133
:10498C00002B56D00022002305F5907012F0FAFC93
:10499C0000284ED10022002305F59E7012F08CFCED
:1049AC00044668B940F6AA43244A2549254814F020
:1049BC0015F984F31188BFF36F8F0323184602DFB8
:1049CC00D5F830315BB101211F4A204815F05AF857
:1049DC00D5F83001FEF70AFA0023C5F8303120462D
:1049EC0014F0F3FEC5F830012046FFF7F3F8034648
:1049FC00C8B10121164A154815F046F8154812F0B1
:104A0C008DFC2046FEF752F90C22134B02FB0033AF
:104A1C00588818B122461F21FEF7E8FE2046FEF703
:104A2C00E5F9FFF799F9FFF797F9BDE8384013F06E
:104A3C00A1B801F073F8F8E73000002017E001008E
:104A4C00C2DD010064E00100D1E50100A8C801004D
:104A5C0030E3010050010020A815002070B54FF084
:104A6C00FF320D464FF0FF3300210646FEF706FBE2
:104A7C00044660B91A230A4A0A490B4814F0AEF8E6
:104A8C0084F31188BFF36F8F0323184602DF0221D2
:104A9C0004F10C0014F0D6FE06704570204670BD73
:104AAC000DE70100C2DD010064E00100F8B5064627
:104ABC000024094DEF79E3B29F4202D86FF0010058
:104ACC0007E02946304615F0E5F80735631C08B1B8
:104ADC002046F8BD1C46EEE73000002070B51A4E9B
:104AEC0006223146054617F0DFF838B34FF0FF3099
:104AFC004FF0FF31FEF7FEFF044608B306222946AD
:104B0C000C3014F0A5FE2146002242F20500FFF7FE
:104B1C007DF9044648B110F10D0F04D102210B4A66
:104B2C000B4815F0BFF8204670BD33462A6843F891
:104B3C006929AA88B280012283F868200024F2E750
:104B4C006FF06804EFE700BF9900002043E7010015
:104B5C00B0C8010073B504460D4689B12846174903
:104B6C0015F098F860B9164A2968C4EBC4041151C1
:104B7C00A318AA889A80AA799A71002002B070BDF5
:104B8C006E46304614F0F3FE0028F7D13046FFF79E
:104B9C008DFF0028F5DA0A4A0098C4EBC4041051C2
:104BAC00B179B088A31898809971002DE5D012596D
:104BBC002A609A88AA809B79AB71DEE796F2010095
:104BCC003000002070B5044629BB38B3264915F0D7
:104BDC0061F818BB2046FFF769FF00283EDA2378FE
:104BEC006BB9224AD379002B38D120681060A17997
:104BFC00A0889171012190801846D17170BD012B54
:104C0C0004D1A37903F0C003C02B07D00121184AAB
:104C1C00184815F047F86FF01500EFE7134DEB79D6
:104C2C00012B1ED005F1D403D3E8AF3FDB0707D42B
:104C3C00002CF0D020460C4915F02CF80028EAD1B5
:104C4C00EE792146731C3046EB71FFF783FF08B9F0
:104C5C003046D3E7EB79013BEB71CFE76FF0770090
:104C6C00CCE76FF00B00C9E796F201003000002092
:104C7C0052E70100B0C801002DE9F341044640B9E8
:104C8C001A4A02211A4815F00DF8002002B0BDE8AE
:104C9C00F081002141F2090001AAFFF7B7F805469F
:104CAC0008B1144AEDE7019E0622D6F80C80124991
:104CBC0008F10107384616F0F7FF28B106223846EE
:104CCC000E4916F0F1FF18B93046FEF78FF8DCE705
:104CDC00D8F801303046C4F80130BB882570A4F8F0
:104CEC000530FEF783F80120D0E700BF80E7010014
:104CFC00B0C8010099E70100A3F201009DF2010088
:104D0C0007B56846FFF7B8FF044BD87118B1694670
:104D1C000020FFF71FFF03B05DF804FB30000020FC
:104D2C002DE9F041304E88B0F179002954D196F834
:104D3C00C24014F0010411D12C4A02212C4814F069
:104D4C00B1FF0024F471162500240127F379E0B299
:104D5C0083422BD8002B3FD000203AE06A464FF616
:104D6C000940FFF753F808B1224AE6E7DDF800C026
:104D7C00DCF80C5095F80180B8F1000F0ED0AB1C8C
:104D8C0002AA1235174618685968083303C7AB4294
:104D9C003A46F7D1186838609B88BB806046FEF7AE
:104DAC0025F8B8F1000FCDD1134AC6E708AB05FBC7
:104DBC00003353F8182C33F8143C6946CDF8012015
:104DCC00ADF805308DF80070FFF7C4FE01340028F3
:104DDC00BCD008B0BDE8F0810021084608B0BDE8A1
:104DEC00F041FFF7EFBE00BF30000020B7E7010035
:104DFC00B0C80100E3E7010003E801002DE9F04130
:104E0C001D460E461746034648B145B10A0311D557
:104E1C004C0708D50121284A284814F043FF6FF0AD
:104E2C001500BDE8F08114F04CFF0028F9D10123E6
:104E3C002B70F6E7B107047824D021492FB1B206C4
:104E4C0003D591F8D820500632D5C4EBC40411F820
:104E5C000480B8F1010F09D101341846214414F033
:104E6C0028FF0028DDD185F8008002E0B8F1000FA2
:104E7C00F9D02FB1B30642BF2B7843F002032B704D
:104E8C000020CEE7720710D50D49C4EBC4040F5DAA
:104E9C00012F07D10134214414F00BFF0028C0D19D
:104EAC002F70E7E7002FE5D1FAE714F00AFFBEE711
:104EBC006FF08500B5E700BF2CE80100B0C8010019
:104ECC003000002038B5104DEB7913B1002420468A
:104EDC0038BDFFF715FF044628B10C4A01210C48D8
:104EEC0014F0E0FEF3E7EB79002BEFD1FFF718FF9E
:104EFC0004460028F1D1681CFFF7F0FD0446002899
:104F0C00E5D0044AEAE700BF300000204BE801007E
:104F1C00B0C801006AE801002DE9F74F88460190FE
:104F2C004FF0FF314FF0FF30FEF7E4FD0446002850
:104F3C004ED020210C3014F085FC002706460021B1
:104F4C00202216F0A9FE3946D8F8005006F1010BC4
:104F5C00D8F804309F4208D33170002221460198C2
:104F6C0003B0BDE8F04FFEF751BF6A78881C1318E8
:104F7C001F2B95F800C05FFA80F915D9BCF1090F09
:104F8C00C9F11F0201D1002A0CDC0121124A13487D
:104F9C0014F063FA2046FDF729FF6FF0150003B0FB
:104FAC00BDE8F08F4FF0080C5FFA82FA0AF1010E9F
:104FBC000BF801E00131C9B20BF801C06968584423
:104FCC00D14416F043FE01375FFA89F10835BFE78B
:104FDC006FF06800E3E700BF8DE8010058C80100DE
:104FEC00F7B5CDE90001694642F2080016461D46A8
:104FFC009DF82070FFF790FF044648B95FB90B4B42
:10500C00D3E8EF1F41F00401C3E8E21F002AF7D1F7
:10501C00204603B0F0BD694642F20900CDE90065B7
:10502C00FFF77AFF0028EAD00446F1E75800002089
:10503C0000487047480000202DE9F04FD0F8109040
:10504C0089B0B9F100040546934618BF0124DFF876
:10505C00C0A202910393DAE8AF3F5A0740F17D8179
:10506C00466873050CD56FF01504002240F2011050
:10507C00029B934540F07A81204609B0BDE8F08F41
:10508C00D0F81080B8F1000F01D0B707EBD0A14FCA
:10509C002878FB798342E6D9C0EBC00007229E49F1
:1050AC00384416F001FE0028DDD0B00706D197F881
:1050BC007030082B02D8AB689F2BD4D916F0300F68
:1050CC006DD0B8F1000FCED0F1066BD406F460367B
:1050DC00B6F5603FC7D0284614F00AFE804600287B
:1050EC00C1D08E4ED6E8AF2FC2F30023D20500F10B
:1050FC003781CDE90533CDF81B30AB686A68ADF864
:10510C001030EB6812F4004FADF8123014BF0623C8
:10511C000723D00348BF03F00503910348BF03F0F6
:10512C00FB038DF81D30DAE8EF3F23F48073CAE8F7
:10513C00E23F002AF7D12B7822463B7687F86F3076
:10514C00696877480DF11503FFF758FE04460028EF
:10515C008BD1744BB9F1000F30D02A6911684AF821
:10516C00B31C9188998092799A716B689A0727D0B1
:10517C00B9F1000F2BD013F0100F0CBF0123042337
:10518C008DF814302B691A68CDF816209A88ADF872
:10519C001A209B798DF81C304FF000081AE0B8F1FA
:1051AC00000F93D1D5E902239A423FF65CAF1F2A38
:1051BC007FF659AFB3F5804F88D954E7564ACDE7FF
:1051CC009B0502D4039B002B3CD0022300E04B46F2
:1051DC008DF814304FF0FF304FF0FF31FEF78AFCA2
:1051EC000446002800F0BF800F2204A90C3014F0F4
:1051FC002FFB2146002242F20600FEF707FE044672
:10520C0000287FF432AFB9F1000F1FD0686810F09E
:10521C00030027D107460121414814F06DFD0446D7
:10522C00002845D00121404A404814F016F9002FBF
:10523C003FF41BAF3846002100F018FB384600F055
:10524C00C3FA12E703238DF81430A5E75946129BD5
:10525C00039A0298CDF80080FFF7C2FE044600289E
:10526C00D4D002E73C7E07222B492E4887F86F40AA
:10527C0016F01AFD60B920462D4900F0B1FE074624
:10528C0010B96FF00B04F0E6052100F0EFFAC2E75D
:10529C002046244900F0E8FE00287FF4E4AE387E76
:1052AC00204900F09DFE07460028EAD00621ECE7D5
:1052BC0017B1384600F088FA6B689F071FD0D6E804
:1052CC00EF3F43F40073C6E8E23F002AF7D1B8F190
:1052DC00000F2FD0D6E8EF3F43F48063C6E8E23FDF
:1052EC00002AF7D16B6858072DD5D6E8EF3F43F469
:1052FC008053C6E8E23F002A3FF4B7AEF5E7D6E8A4
:10530C00EF3F23F40073C6E8E23F002ADFD0F6E754
:10531C00040100203000002096F20100580000200B
:10532C004800002051000020A6E8010058C80100E8
:10533C008FF20100D6E8EF3F23F48063C6E8E23F2A
:10534C00002ACFD0F6E7D6E8EF3F23F48053C6E827
:10535C00E23F002A3FF489AEF5E76FF00A0484E6D9
:10536C006FF0770481E66FF068047EE6198881425D
:10537C0004D1596811B10978C90702D40132083334
:10538C0077E60549054816F05BFA0023044A034802
:10539C0012F04CFA70E600BF2554000060000020AB
:1053AC001C4E0E0010B5184814F0CCFC174CD4E869
:1053BC00AF3FDA05C3F3002024D5D4E8AF3F9B05FB
:1053CC0017D513490722E01F16F06EFC0346A4F113
:1053DC00280114F8100C93B905220E4900F07CFE3C
:1053EC00044630B10021417200F040FA204600F032
:1053FC00EBF9BDE810400021034814F07DBC0622F7
:10540C002131EBE710BD00BF480000205800002000
:10541C0096F201008FF2010010B5FFF7C3FF0346AF
:10542C0030B1BDE810400221024A034814F01EB806
:10543C0010BD00BFC1E8010058C8010070B5054699
:10544C000B4B1C6844B154F81C3C1C3C13B1284653
:10545C00697A9847E469F5E7064C074EB44200D3E5
:10546C0070BD236813B12846697A98472034F5E754
:10547C000416002020C8010040C8010010B50446E5
:10548C00FDF714FC044901EB0011204614F0C9FA95
:10549C00BDE81040FEF760BCD0150020002270B5AE
:1054AC000446D1E901560748C1E9012216F0DAF8A1
:1054BC003DB1314620462B46BDE870406FF06D0281
:1054CC00184770BD9006002037B50446031DD3E87D
:1054DC00EF2F42F48061C3E8E51F002DF7D1510591
:1054EC0036D4D3E8AF3FDA0326D5E37823B90221CB
:1054FC00184A194814F03AFCA37A072B28D1174BF9
:10550C0093F8D8309B0623D514F000FB00B30DF1B3
:10551C00060101A8FEF722FDD0B92046BDF80620F1
:10552C00BDF8041014F057FB034688B101210C4A56
:10553C00094814F01BFC0BE014F032FB034620B1BD
:10554C000121084A044814F011FCA37A072BCCD093
:10555C0003B030BD08E9010070C801003000002024
:10556C0021E90100E7E8010070B50546002200239F
:10557C000E4811F007FFB8B90D4B1C6834B154F844
:10558C00143C1C3C03B19847E469F7E7094C0A4EFC
:10559C00B44204D32846BDE8704012F0A3B8A36807
:1055AC0003B198472034F3E770BD00BF800600209C
:1055BC000416002020C8010040C801002DE9F0416C
:1055CC00044620270025EFF3118287F31288BFF3DE
:1055DC006F8FE16929B1206A0B688142E36108BFD2
:1055EC00236282F31188BFF36F8F71B1D1E9016827
:1055FC000748C1E9015516F035F81EB100224146A5
:10560C002046B047FEF7A8FBDDE7BDE8F08100BF00
:10561C00900600200448B0F8FC3000F58070002B98
:10562C0008BF0020704700BF3000002030B5044692
:10563C00FDF7A2F80D460D4A0D4989B00858D2F86D
:10564C008010884205D1204609B0BDE83040FFF7F4
:10565C00B5BF24342146104616F0C1F81DB1694679
:10566C00204616F0CCF809B030BD00BFF013002076
:10567C000800000038B5002204468A4202D10024FA
:10568C00204638BD012004F1D403D3E8EF5F002D90
:10569C0004D1C3E8EC0FBCF1000FF6D102D0D83422
:1056AC000244EAE7002CEAD0D4220021204616F06E
:1056BC00F3FA04F14000044916F0C2F8034904F16E
:1056CC00240016F070F8DBE755620000899D01009C
:1056DC00F7B516460D4601210446FFF7A7FF012E2C
:1056EC0023D0022E52D123693BB131480121314ADA
:1056FC0013F0B3FE204614F05FFB256121690B8A81
:10570C00012B53D9CA681288043292B293424DD3FA
:10571C0043D9012100922648274A13F0B1FE2046B6
:10572C0003B0BDE8F04014F047BB206940B9234AF0
:10573C0031461F4813F091FE204614F03DFB01E06A
:10574C002A8A2AB9284603B0BDE8F040FDF74EBBC3
:10575C00018A438A47695B1AC168C91B5B1A9A4262
:10576C000CD9174A3146124813F077FE0022204616
:10577C00216900F0B5FF00232361E3E7E9680C30F1
:10578C0014F066F82846FDF731FBB7E701213346E4
:10579C000C4A074814F0EAFACEE70023012220460F
:1057AC00236103B0BDE8F04000F09ABF03B0F0BD38
:1057BC0070C801003DE90100BDE901005AE9010092
:1057CC0078E901009FE9010008B500F1D403D3E8A2
:1057DC00EF2F013AC3E8E12F0029F8D1AAB90B4BFE
:1057EC00984212D303F1D80290420ED2C01AD82399
:1057FC00B0FBF3F203FB120038B9054811F08EFD33
:10580C00BDE80840034811F06DBF08BD480E0020EC
:10581C0080060020A003002010B5044614F0D5FA31
:10582C0012F094F9104A04F1C803D2F8141161B9BA
:10583C00C4F8C810D2F8181159B9C2E9453312F09E
:10584C0099F9BDE81040FEF787BA8B4205D009687C
:10585C00EDE70B60C2F81831F1E712F08BF9204636
:10586C00FFF7B2FFEDE700BF30000020F8B5867AF5
:10587C0004468E420D4600AF1CD1082E98BF544BE7
:10588C006C4688B094BF53F82630524B6A46524946
:10589C00CDE905134FF40073ADF81C304F4B42F8B3
:1058AC00103F00234FF4E4514D48FCF7A3F8A546F4
:1058BC00BD46F8BD81720EB914F087FAA37A082B95
:1058CC0000F2828001A252F823F000BF255900009B
:1058DC007B590000BD580000BD580000BD580000A9
:1058EC00BD580000BD580000FD580000BD58000018
:1058FC000023C4E90D33E378012BD9D1A378394ABD
:10590C00012B08BF032304F1400008BF84F8983032
:10591C00002311F057FFCBE7082EC9D8DFE806F0BB
:10592C002005171C1C1C1720200004F140052846DC
:10593C0015F092FF01212046FFF778FE204614F067
:10594C003BFA00220023284611F070FFB0E7637A7F
:10595C0013B12046FFF772FD2046FFF735FFA7E78E
:10596C002B46214A02211E4814F000FAA0E7637A64
:10597C003E2B0FD16D4688B06A461C4BCDE90534E1
:10598C00032342F8103F00234FF4C4511448FCF792
:10599C0031F8AD46164D05F58076616911B9FEF703
:1059AC00DBF985E7A2690B68914208BFA361204629
:1059BC006361FFF773FDB5F8FC30002B14BF304664
:1059CC00002011F0ABFCE8E70A4A2B46CAE700BFFF
:1059DC00E0CC0100D8E90100E2E90100030000017C
:1059EC0070C801005A620200F3E901000AEA0100E2
:1059FC003000002031EA0100F8B5074609480D4691
:105A0C00164614F0E2F9044650B183781F4203D1D4
:105A1C00BDE8F840FFF7D8BE3146A8472046F7E767
:105A2C00F8BD00BF480E0020002201200149FFF7FD
:105A3C00E3BF00BF7D9D010070B505460E480E46C4
:105A4C0014F0C3F90446A0B1837A012B02D0073BB2
:105A5C00012B0CD82388AB4208D1A3781E4209D164
:105A6C0002212B46054A064814F080F92046FFF720
:105A7C00ABFE0024204670BD480E00204DEA01000C
:105A8C0070C80100034BC01A034BC0105843C0B27E
:105A9C00704700BF480E002013DA4B6870B51C46E7
:105AAC00144305460E460DD0FCF766FE0E49D1F8A0
:105ABC0080400E4909588C4206D102210C4A0D48EF
:105ACC0013F0CBFC002213460B49002D14BF2846C3
:105ADC00084613F04BFE044618B1711D0C3013F040
:105AEC00A6FE204670BD00BFF01300200800000089
:105AFC0064EA010070C80100A006002010B504463D
:105B0C00054811F0EFFD204600F038FD2046BDE8B9
:105B1C001040FFF793BC00BF900300202DE9F04F1D
:105B2C00002387B000AFFB607B61BB4B5A8A3AB154
:105B3C00BA4DD5F814413CB91C37BD46BDE8F08FC1
:105B4C001B68002BF4D1F7E754F8C83903B1C83BF4
:105B5C000026B34901E01C461346B5F8FC20002A88
:105B6C0000F05781D5F808214AB904F1C806002B7A
:105B7C00E2D0D3F8C820002AEDD0C83AEBE70A6887
:105B8C00002AF2D0D4F8B420002AEED0D4F8B820F1
:105B9C00002AEAD0D4F8BC20002AE6D0A37A072B3E
:105BAC006AD120469047002866D004F1CC03D3E894
:105BBC00AF3F022B60DC204614F007F904460028A6
:105BCC00BAD0A37A072B40F021812046D4F8B43008
:105BDC00B5F8FC1007F1100298478146002800F038
:105BEC000581B5F8FC203B699A4208D30146D4F8EC
:105BFC00B860204607F1140307F10C02B0477B692B
:105C0C00D7F80C803B60B9F81030002B00F0F8800E
:105C1C004846D7F810A013F01AFF7860002840F01F
:105C2C00F280B5F8FC30DFF8FCB1002B14BF5846FD
:105C3C0000200022002311F0A5FB78B900220023DC
:105C4C00774811F039FB064600283BD1B5F8FC30FB
:105C5C00002B18BF5E46304611F060FB6FF00B0551
:105C6C004846FDF7C3F8B8F1000F00F0AA802A46A9
:105C7C0020463968C047A4E0D4F8C83004F1C80203
:105C8C00C6B9D5F81811C5F814318A4201D1C5F836
:105C9C00183100232046C4F8C830D4F8BC309847DB
:105CAC0000288ED0A37A072B40F0B0802046FFF757
:105CBC00B3FD86E73360D5F818319A4208BFC5F8B2
:105CCC001861E6E73B68C0F804808360B5F8FCB067
:105CDC000022DA454FF000034FF000014E4898BF08
:105CEC001FFA8AFBFDF704F8804650B1FCF7DEFF83
:105CFC004D4B5A4603EB00134946404613F06CFEDD
:105D0C008046B5F8FC3094F8D0909A4584BF0123B6
:105D1C007B607B689CBF09F102095FFA89F984F802
:105D2C00D03004F1CC0ADAE8EF3F0133CAE8E23FA5
:105D3C00002AF8D100233360A369002B5AD1C4E99F
:105D4C000566A378012B58D108F10C0B0421584699
:105D5C0013F08FFD238809F0FD0943EA0933038012
:105D6C00B8F810300221043B4380584613F089FDEB
:105D7C004046FDF72FFF8146002847D0DAE8EF3F79
:105D8C00013BCAE8E23F002AF8D1314604F1140085
:105D9C0013F0F7FF254A4B460121254813F0E6FF87
:105DAC004046FDF723F820463146FFF777FBB5F860
:105DBC00FC301C48002B08BF002011F0AFFA6FF02C
:105DCC0004056E4688B01B4A0423CDE905256A46B6
:105DDC00079442F8103F4FF4015115480023FBF78C
:105DEC0009FE1321B546204614F003F82046FFF7B0
:105DFC00EBFCA1E61E60A661A3E76FF01509BDE7F9
:105E0C006FF079052CE76FF0040529E7FDF7A4FF87
:105E1C00ECE79368FFDE00BF0C0700203000002089
:105E2C009006002030010020D015002030E3010046
:105E3C0070C801008DEA010040F2E2432DE9F04107
:105E4C00D0F888600446B6FBF3F6031DB6B2D3E86F
:105E5C00AF2F920413D5B0F88C20B2420FD8B0F803
:105E6C008E20B2420BD3D0E92412914207D1D3E851
:105E7C00EF1F21F40051C3E8E21F002AF7D1114BA8
