:10000000A8240020A9110000B343000095110000AE
:100010009511000095110000951100009511000048
:10002000000000000000000000000000E1110000DE
:1000300095110000000000008D13000095110000D4
:100040000D1400000D1400000D1400000D1400002C
:100050000D1400000D1400000D1400000D1400001C
:100060000D1400000D1400000D1400000D1400000C
:100070000D1400000D1400000D1400000D140000FC
:100260000D1400000D1400006D0700000D140000B7
:100270000D1400000D1400000D1400000D140000FA
:100280000D1400000D1400000D1400000D140000EA
:100290000D1400000D1400000D1400000D140000DA
:1002A0000D1400000D1400000D1400000D140000CA
:10047C0053B94AB9002908BF00281CBF4FF0FF31FF
:10048C004FF0FF3000F00CB8ADF1080C6DE904CE64
:10049C0000F008F8DDF804E0DDE9022304B0704751
:1004AC00704700BF2DE9F0478C468E46089E1546D6
:1004BC0004461946002B40F0D080724547D9B2FA59
:1004CC0082F74FB1C7F120030EFA07FCBD40BC40C8
:1004DC0020FA03F343EA0C0C4FEA154EA8B2230C96
:1004EC00BCFBFEF80EFB18CC08FB00F943EA0C43EE
:1004FC00994528D9EB1808F1FF3204D2994502D955
:10050C00A8F102022B44A3EB0903A4B2B3FBFEFC3B
:10051C000EFB1C330CFB00F044EA0344A04214D93C
:10052C002C190CF1FF3304D2A04202D9ACF1020316
:10053C002C44241A43EA02401EB1FC4000233460D0
:10054C007360BDE8F0874246DDE76346F1E7002AB9
:10055C0079D0B2FA82F3002B3FD01946C1F12003B7
:10056C0002FA01F500FA01F42EFA03F20EFA01FE7A
:10057C0020FA03F3AFB243EA0E034FEA154EB2FB77
:10058C00FEFC0EFB1C201A0C0CFB07F842EA004286
:10059C0090455AD9AA180CF1FF3004D2904502D9D3
:1005AC00ACF102002A44A2EB08029BB2B2FBFEFCA7
:1005BC000EFB1C220CFB07F743EA02439F4246D971
:1005CC00EB180CF1FF3204D29F4202D9ACF10202BB
:1005DC002B44DB1B42EA004202E0AEEB0203012299
:1005EC004FEA154EAFB2200CB3FBFEFC0EFB1C33D6
:1005FC000CFB07F840EA034398452AD9EB180CF199
:10060C00FF3004D2984502D9ACF102002B44A3EB85
:10061C000803A4B2B3FBFEFC0EFB1C330CFB07F768
:10062C0044EA0344A74216D92C190CF1FF3304D227
:10063C00A74202D9ACF102032C44E41B43EA00406C
:10064C000F46114678E71F2188E76046ABE7624604
:10065C00BFE76046DBE76346EFE7734506D916B99B
:10066C00002108466DE7C6E9000EF9E7B3FA83F7F7
:10067C0087B9734501D3824207D8841A6EEB030302
:10068C0001209C461EB900215BE73846FAE7C6E913
:10069C00004CF8E7C7F1200CBB4000FA07F422FA33
:1006AC000CF520FA0CF1BA401D432EFA0CF30EFA9D
:1006BC0007FE4FEA154941EA0E011FFA85FEB3FB0E
:1006CC00F9F809FB18300B0C08FB0EFA43EA00434F
:1006DC009A4540D9EB1808F1FF3004D29A4502D95B
:1006EC00A8F102002B44A3EB0A0389B2B3FBF9F87F
:1006FC0009FB183308FB0EFE41EA03418E452CD949
:10070C00691808F1FF3304D28E4502D9A8F102030F
:10071C00294443EA0040A1EB0E01A0FB029841459D
:10072C00CE46434602D306D14C4504D20138B9EB30
:10073C00020E68EB0503002EA5D0B4EB0E0261EBA4
:10074C00030101FA0CFC22FA07F3F9404CEA03030B
:10075C00C6E9003197E74046C5E74346D9E70000B4
:10076C00684620F007018D4619B5134BD3F81C22AF
:10077C007AB100221148C3F81C220478104A11499E
:10078C006CB9D2F84C250A600F4AC3F8D02E01235D
:10079C00037000F0CFFDBDE8194085467047D2F8D4
:1007AC0048250968521A09490A60094AC3F8D02E2B
:1007BC000122084B1A70ECE700A008505D0B0020DA
:1007CC000050085094030020980300209003002050
:1007DC00D80300205C0B00202DE9F04F7D4887B03A
:1007EC0003F000FD7C4B7D4AD3F81C137C4803F0CE
:1007FC00F9FC002201217B4BC3F8002119607A49D6
:10080C000592059A8A4204DCD3F80021002A00F0F4
:10081C00DC80032003F065FC00228A20114600F0E6
:10082C0007FD8A2000F0E8FC03264FF484726F4B1E
:10083C000025C3F80065C3F8202E6D4A6D49C3F836
:10084C00282E6D4A6D48C3F82C2E7122C3F8342E15
:10085C0040F20312C3F83C5EC3F8442E684A694C5C
:10086C00C3F8482E684A2F46C3F84C2E0222C3F810
:10087C000827664AC3F81855C3F800248022C3F829
:10088C001C52C3F80C52C3F888244FF00042C3F832
:10089C001C13C3F80C03C3F8002101236360C4F8D4
:1008AC000455C4F80865C4F81035C4F8C800C4F879
:1008BC00CC10C4F8C021C4F8C4210722544B40F218
:1008CC00DC50C3F8042503F00CFCDFF848A13E46CD
:1008DC004FF00108DFF8409109F1080B41F2024298
:1008EC004FF00103AAF80020052239F8020BAAF8F0
:1008FC0002608AF804300AF802200132162AFAD172
:10090C0041F60261454A1180022111710521568080
:10091C00515401312029FBD10023344A0001C2F883
:10092C00D0AE3F4A00F5726013703E4A1370C4F8A3
:10093C000480C4F80C80C4F840153B49C4F8440545
:10094C00C4F84031C4F84431C4F80080107838B988
:10095C000391012004F06BF90399324A0139F5D166
:10096C00C4F80480127802B90135304A04201168A9
:10097C002F4A22F8161003F0B4FB0136CB452C4A53
:10098C00B6B2ABD10437BFB2B7F5487F9FD116468C
:10099C0000241E2736F8023B1F4904F00302CDE960
:1009AC00007331F81220142321462248013403F03D
:1009BC0019FCB4F5487FEDD12A4621461E4803F0B8
:1009CC0011FC002007B0BDE8F08F059A01320592AA
:1009DC0017E700BFA85A000000C0FF00294176713C
:1009EC00C85A000000E010503F0D030000A0085052
:1009FC003F000300020000800029417601000080C6
:100A0C005B060001005008505555550001000800C8
:100A1C0000200850D8030020A05A000098030020A2
:100A2C005D0B00205C0B0020A086010090030020D1
:100A3C001C050020FC5A0000355B0000014B1B68B4
:100A4C00184700BF90000020014B1860704700BF92
:100A5C009000002030B5044685B00D4610220021D0
:100A6C00684604F02EFA02238DF80230044B2A4615
:100A7C0021466846019303F0F1F805B030BD00BF84
:100A8C00490A000080B505460E461746984602F006
:100A9C0089FE034600F0C6FC0446DFF81890424677
:100AAC0049F8003039463046A84754F8090000F0A0
:100ABC0051FC00BF080000002DE9F047058B0446EF
:100ACC00280717460CD501290CBF45F0100545F039
:100ADC002005258387F31188BFF36F8FBDE8F0875E
:100AEC00022905F0070540F09480204603F087FBAF
:100AFC00052864D801A353F820F000BFE10A0000D8
:100B0C001F0C0000CB0B00008D0B0000A70B00008E
:100B1C00B90B000001F007035A1F012A1FD800224D
:100B2C0021F00701062BD4F8008089B2C4E9002219
:100B3C0009D1434603E0628B013262831B68002BB0
:100B4C00F9D141F002012046218303F058FB4FF00C
:100B5C00000900286DD041F02001218369E0042BAD
:100B6C000AD121F0070189B22046218303F047FB0B
:100B7C0010B141F0200121834FF00008C14658E02C
:100B8C002369D3F80090238B23F0070343F006036B
:100B9C004FF00008238346464BE02369D3F80490BA
:100BAC00238B23F0070343F00403F1E72369D3F805
:100BBC000890238B23F0070343F00503E8E74FF07D
:100BCC000008C146E7E7012243F00803238387F3BB
:100BDC001188BFF36F8F002A3BD1B8F1000F4AD1B7
:100BEC00B9F1000F02D020462C49C847EFF311870A
:100BFC00202383F31288BFF36F8F238B23F008031A
:100C0C009BB22383D9063FD523F01002228303F035
:100C1C0007056669218B002EBFF67CAF0023994631
:100C2C00D4F8008021F00701C4E9003341F0010140
:100C3C002183238B03F0070AAA4502D0A268002A5D
:100C4C00C1D1B8F1000F02D1B9F1000FDAD00022F6
:100C5C00BAE7A1680029C0D00D680029BDD0334681
:100C6C00524620464F68B8471DB12B6829461D4691
:100C7C00F3E72B46FAE74146334652462046D8F86E
:100C8C00008003F0E8FAA8E79A067FF523AF23F07B
:100C9C002002228303F0070527E700BF8F420000E4
:100CAC00014B0360002070477859000008B50348D9
:100CBC00034A0021121A03F06EFB08BDC801002084
:100CCC00640B0020074808B5074A0849121A03F0BC
:100CDC0064FBBDE808400648064A0749121A03F0AF
:100CEC005CBB00BF00000020C40100204460000079
:100CFC0000000020000000204460000038B50546CC
:100D0C000C4699B1D1E901230F48096803F06AFA3E
:100D1C00D4E90423E1680D4803F064FAE1690C4856
:100D2C0003F060FAA1690B4803F05CFA012D05D1C0
:100D3C00EFF305810848103903F054FA2146284690
:100D4C00BDE8384002F0A0B95B5B00008B5B000093
:100D5C00BB5B0000CB5B0000FA5B000030BFFFF711
:100D6C00FDBF00BF2DE9F04105460B4EDFF82C808E
:100D7C00324606EB0807CC1B2046094904F094F8D0
:100D8C00A01942460021083C04F09BF82C6707F19F
:100D9C000800BDE8F08100BF000000000400000066
:100DAC004C59000010B5204C204803F01BFAA36AE4
:100DBC00990137D51E4803F015FA1E20A36ADA01F3
:100DCC0003D51C4803F00EFA1F20174CA36ADB0254
:100DDC0003D5194803F006FA0220A36A1C0303D5B5
:100DEC00164803F0FFF921200F4CA36A590303D5D1
:100DFC00134803F0F7F92220A36A9A0303D511488C
:100E0C0003F0F0F92320084CA36ADB0303D50E484A
:100E1C0003F0E8F92420A36A6FEA03436FEA134353
:100E2C00A36210BD1D20C9E700ED00E00E5C0000C0
:100E3C00275C00003B5C0000565C0000815C0000FD
:100E4C00A05C0000C65C0000E15C000070B5244CA6
:100E5C00064624480D4603F0C5F9A36AD90435D5D6
:100E6C00214803F0BFF91720A36A1A0503D51F48C0
:100E7C0003F0B8F918201A4CA36A9B050FD51C482F
:100E8C0003F0B0F9A16BA36A180407D5194803F055
:100E9C00A9F91EB1A36A23F40043A3621920104CD4
:100EAC00A36A590503D5144803F09CF91A20A36AC8
:100EBC00DA050DD5114803F095F91B20084A936A01
:100ECC0043F47F43936200232B7070BD1620CBE755
:100EDC00A36A9B04F2D50A4803F084F91C20EDE7C1
:100EEC0000ED00E00D5D0000245D0000365D0000AB
:100EFC004A5D0000645D00007A5D0000965D0000B4
:100F0C00AF5D000070B5264C064626480D4603F032
:100F1C0069F9A36AD80640D5234803F063F9112078
:100F2C00A36A190703D5214803F05CF912201C4C65
:100F3C00A36A9A070FD51E4803F054F9616BA36A94
:100F4C001B0607D51B4803F04DF91EB1A36A23F00D
:100F5C008003A3621320124CA36ADE0703D5164844
:100F6C0003F040F91420A36A9C0603D5134803F040
:100F7C0039F915200A4B9A6AD10658BF9A6A9A6AAF
:100F8C00920642BF5A6A22F400525A629A6A42F09E
:100F9C00FF029A6200232B7070BD1020C0E700BFC7
:100FAC0000ED00E0DF5D0000F65D0000365D000046
:100FBC002A5E0000435E00005A5E0000AF5D000038
:100FCC002DE9F0415D4B04465F6800258AB0C7F3FC
:100FDC00080685F31188BFF36F8F02F07F43B3F1DE
:100FEC007F4F06D102F00C03082B13D1544803F0A9
:100FFC00F9F800252C464FF00008F31E8DF80780F9
:10100C00092B00F28B80DFE803F00A7F837B898950
:10101C008989898710074CBF0C460125EBE74948A5
:10102C00464E03F0DFF88DF80780F36A9A0704D573
:10103C00454803F0D7F800232AE0F36A002B01DAC5
:10104C004248F6E7F36A5B00F5D5414803F0CAF86D
:10105C007369A26943F480737361BFF34F8FBFF35D
:10106C006F8F32F8023C726922F480727261BFF3A6
:10107C004F8FBFF36F8F03F47F42B2F55F4F27D1D1
:10108C00DBB2022B24D12168324803F0ABF8236881
:10109C009DF80720CAB902AE04F120073246206839
:1010AC006168083403C2BC421646F7D1099A002D78
:1010BC0040D0C2F3080121B96FEA52226FEA4222F2
:1010CC000992184602A9FFF719FE0AB0BDE8F08193
:1010DC001A4B9A6AD2B22AB101200DF10701FFF71F
:1010EC0011FF0FE09A6A12F47F4F05D001200DF129
:1010FC000701FFF7ABFE05E09B6AB3F5803F9AD37F
:10110C00FFF750FE0346C3E700200DF10701E6E7A9
:10111C0000200DF10701ECE70F488AE70F4B17F49D
:10112C00F87F0F490F4808BF1946A6F1100203F0CB
:10113C0059F880E76FF30802C2E700BF00ED00E04A
:10114C00A85E0000D45E0000EC5E00000E5F0000A4
:10115C001D5F00003D5F00005A5F00007A5E0000DA
:10116C008F5E00007F5F0000064B5A6942F0100250
:10117C005A615A6942F480625A615A6922F0080233
:10118C005A61704700ED00E0EFF30880EFF309813E
:10119C0001B57246FFF714FF01BD00BF0B4880F389
:1011AC00088801F049F9202080F3118808484FF491
:1011BC000061401880F30988EFF314800221084382
:1011CC0080F31488BFF36F8F00F056F8A82400202A
:1011DC00680B00201EF0040F0CBFEFF30880EFF338
:1011EC000980816911F8021C0229FFD001B57246F1
:1011FC0003F0D5F801BD00BF00B2002807DB0123C6
:10120C004109034A00F01F00834042F82130704727
:10121C0000E100E0054B420953F82220012300F0C5
:10122C001F0003FA00F01040704700BF00E100E01F
:10123C0000B2002801F10101ACBF00F16040064B87
:10124C004FEA4111C9B2ABBF00F5614000F00F008D
:10125C0080F800131954704714ED00E0044B054A54
:10126C0023F07F039360BFF34F8FBFF36F8F7047F3
:10127C000000000000ED00E008B5FFF7EFFF0B4A9F
:10128C00D2F8883023F47003C2F88830EFF314835B
:10129C0023F0040383F31488BFF36F8FFFF706FD6D
:1012AC00FFF710FD00F09CF801F0B2FF00ED00E03C
:1012BC0042F8203C009B0B4942F81C3C019B21F05E
:1012CC00010142F8183C029B42F8081C42F8143CFD
:1012DC004FF0807342F8043C0023203A02654367C8
:1012EC00704700BF910A000000B50D4B1546986081
:1012FC00026F0C4B0E461A60036E83F30B882C4660
:10130C0086F309880020044B9847204600210022D0
:10131C000023024C20470000D7430000910A000034
:10132C00F0040020180400201022014B1A617047B1
:10133C0000ED00E0054B5A699B689A421FBF044AB6
:10134C00536843F080535360704700BFF004002093
:10135C0000ED00E0084B9B6883420BD1EFF3058353
:10136C0043B1064B5A6842F080525A605A6A22F4D2
:10137C0000425A6202F01CBAF004002000ED00E0BA
:10138C0014498A684FF030001044EFF3098C80E860
:10139C00F01F202080F31288BFF36F8F0E4F4FF099
:1013AC0000664A698A603E60106F0C4C2060506F7A
:1013BC000023536780F3118802F1300090E8F01F8E
:1013CC008CF3098802F1000004B502F0F7FFBDE8C8
:1013DC0004407047F004002004ED00E018040020E5
:1013EC000023202040F20F1210B5044CE1180133F9
:1013FC00934281F80003F9D110BD00BF00E100E079
:10140C0008B5EFF30583064A103B02EBC30152F813
:10141C00330049688847BDE80840FFF78BBF00BF21
:10142C008850000001480068704700001804002034
:10143C001FB50121094B0A4A0A4800F0F7F80023AE
:10144C00064A0393084B0121019301A8D31A029376
:10145C0000F0F6F805B05DF804FB00BF00000420B6
:10146C000000002078590000C80100200A7A0B689F
:10147C0010B562F304031C46CB68520923F01F031A
:10148C0043EA4203044A43F00103C2F89800C2F84D
:10149C009C40C2F8A03010BD00ED00E010B5074B29
:1014AC00D3F89030C3F30723013B984202D8FFF7DF
:1014BC00DDFF10BD6FF01500FBE700BF00ED00E095
:1014CC002DE9F04F0F46144606464FF000084B4DE1
:1014DC0085B0B84580F28E80D6F80490B9F1000F33
:1014EC0035D0B9F11F0F40F2838019F01F0F7FD157
:1014FC00D6F800A01AF01F0F7AD1504602F088FFE0
:10150C00834609EB0A00013802F082FF83456FD154
:10151C001BF1160F6CD05C456ADDC5F898B0D5F898
:10152C009C10C5F898B0D5F8A03021F01F0143F0FD
:10153C001F0AD6E900321A44994202F1FF391BD135
:10154C00CA4508D131465FFA8BF002F06AFF08F108
:10155C0001080C36BDE73146C5F898B0D5F89C307B
:10156C00E0B263F30402C5F89C2002F05AFF10F1BC
:10157C00160F3DD0441CEAE7C5F898B0D5F8A0206A
:10158C00013B23F01F0302F01F021343CA453146EF
:10159C00E0B2C5F8A030E8D002F043FF10F1160F0E
:1015AC0026D0C5F898B0D5F89C209DF808300AF1E3
:1015BC00FF3A62F304038DF80830D5F8A0309DF89B
:1015CC0008205B0863F347128DF80820D6E9003237
:1015DC001344009323F01F035344A3EB090301307E
:1015EC0023F01F036946C0B20393FFF757FFBEE712
:1015FC006FF01504204605B0BDE8F08F00ED00E05B
:10160C000522044BC3F89420BFF34F8FBFF36F8FA9
:10161C00704700BF00ED00E0BFF35F8F0022024B6C
:10162C00C3F89420704700BF00ED00E010B5034CE8
:10163C002278FFF745FF207010BD00BF5E0B002025
:10164C002DE9F74F294D8A4606464FF00008AB4668
:10165C00274FD0451BDAD6F80490B9F1000F3FD0D4
:10166C0031680846019102F0D3FE0199044609EB5A
:10167C000100013802F0CCFE84424FF014021D4BE5
:10168C0008D002FB08F36FF015024BF8032003B0EF
:10169C00BDE8F08F14F1160F2C60F8D01978A14228
:1016AC00F5DD02FB08B0C7F89840C7F89840D7F8AA
:1016BC009C4000F10801007B64F304000871D7F82A
:1016CC00A0000C79400860F347140C71D7F89C10FB
:1016DC0021F01F016960D7F8A01021F01F012961CA
:1016EC0008F1010814350C36B3E700BF1C040020C8
:1016FC0000ED00E05E0B0020F0B55349534DD1F8DE
:10170C0090302C68C3F307239C4287B000F2998079
:10171C000020FFF781FF4E4BC1F8C030844216D138
:10172C004C4D01A82C70FFF7BBFA002607464A4C1B
:10173C00B74213D100202B784349D1F89020C2F343
:10174C000722934277DBFFF75BFF002046E06968D6
:10175C0001EB0011FFF78AFE0130DFE70199300140
:10176C0001EB0613DA682240B2F1807F52D00AD81E
:10177C00B2F5001F34D0B2F5800F3ED0B2F5801F09
:10178C0012D00136D4E7B2F1006F43D0B2F1805FD2
:10179C00F7D15A689B680958013B22F01F0003449B
:1017AC0023F01F03012032E05A689B680958013B63
:1017BC0022F01F0003440120844623F01F0340EA5B
:1017CC004C10CDE902218DF8100002A92878059360
:1017DC00FFF764FE00282ADA6FF0150007B0F0BDA1
:1017EC005A689B680958013B22F01F0003444FF0D4
:1017FC00020C012023F01F03E1E75A689B6809588B
:10180C00013B22F01F000344062023F01F034FF07E
:10181C00000CD4E75A689B680958013B22F01F0062
:10182C0003444FF0030C012023F01F03C7E72B7870
:10183C0001332B70A5E7C1F89830C1F8A000013333
:10184C007BE74FF0FF30C9E700ED00E08459000062
:10185C00AAFF44005E0B00200000F0FF08B5024B0D
:10186C001B689847002008BD30040020034B044A35
:10187C001860937843F00203937070473004002093
:10188C009400002008B50649064821F00701C1F173
:10189C00005202F5802202F062FC002008BD00BF5D
:1018AC00AF2400203404002008B5244A244B1A60CD
:1018BC0000F060F84FF47A612248D0F82436C3F374
:1018CC000802C3F309434B4382F480721E498832E9
:1018DC0001FB02334FF4FA215B00B3FBF1F201FB85
:1018EC0012331A49B3F57A3F28BF0132C1F80429E3
:1018FC00D0F820364FF47A60C3F30802C3F30943DF
:10190C00434342F21C5082F4807202F2172200FB15
:10191C0002334FF47A701B0AB3FBF0F200FB123364
:10192C000020B3F5FA7F4FF0010328BF0132C1F854
:10193C001C27C1F80009C1F8003608BD0020A1071A
:10194C00A001002000C0FF00F82A00800000125007
:10195C0048B1054B054A1B68B3FBF2F35843044BE3
:10196C0043F0010318477047A001002040420F00CC
:10197C00605900000122024BC3F80424704700BFD9
:10198C00002008E0084B70B5C31A0D4607499B10A0
:10199C00044659434022064802F06AFD2B46014694
:1019AC002046BDE87040184754040020B76DDBB6E4
:1019BC00FC4F0000402373B50B4C0093041B0B46EB
:1019CC000D460A49A41061430646094A094802F02B
:1019DC007AFD014628B130462B4602B0BDE8704076
:1019EC00184702B070BD00BF54040020B76DDBB6C1
:1019FC0041450000FC4F0000F8B5002201210546CE
:101A0C0040F20510FFF714FC0F4800F0B5FD04463A
:101A1C00B8B900F0D1FD2F690C49384602F03EFCF4
:101A2C00031E09DB01263E642D69084905F11C00E3
:101A3C0002F034FC031E02DA1C462046F8BDEE64AC
:101A4C00FBE76FF00404F8E7851B0000AC590000BD
:101A5C001FB5002201236C46CDE902236B46074AD1
:101A6C00CDE9004402F05FFD28B943F6095200238A
:101A7C00684601F067FC04B010BD00BF5345000080
:101A8C0010B5EFF31184202383F31288BFF36F8F0B
:101A9C00074A136823F00201DB07116002D401200E
:101AAC0002F085FE84F31188BFF36F8F10BD00BF69
:101ABC00A40400200C22104B014602FB0033002032
:101ACC0030B4D3E90E529863EFF31180202484F3E1
:101ADC001288BFF36F8F1C6C04F0C00444F0020436
:101AEC001C6480F31188BFF36F8F1DB12B4630BC83
:101AFC000248184730BC704754040020FC4F0000CB
:101B0C0010B4EFF31180202282F31288BFF36F8F91
:101B1C0016490B6843F0020413F001030C6017D054
:101B2C00134BD3F80C3413F4803311D0EFF3118131
:101B3C0082F31288BFF36F8F0E4A136C03F0C0034D
:101B4C0043F00203136481F31188BFF36F8F0123F9
:101B5C0080F31188BFF36F8F1BB1002010BCFFF70F
:101B6C00A9BF012010BC02F01ABE00BFA4040020C3
:101B7C0000E0105054040020022808D0042808D19A
:101B8C00044B186C10F0070003D1FFF793BF012032
:101B9C00FBE77047540400202DE9F04101228046F8
:101BAC003549D1E8EF3FC1E8E02F0028F9D133B92E
:101BBC00324933484B60CB608A6002F082FB08F1FB
:101BCC00FF33012B4BD8B8F1010F06D12D4BD3F8B5
:101BDC00503403F00303012B41D003F065F80546A4
:101BEC0050B1EFF31186202383F31288BFF36F8F6C
:101BFC000125244C244F20E0244B1B78002BF0D0E3
:101C0C000422204B0646C3F80823F2E74DB33046B6
:101C1C0002F0EFFBD4F8403413F0FF030DD1D4F8ED
:101C2C00082152B1C4F80831D4F80831202201231C
:101C3C00C4F84034C7F8A0212361D4F84C24D4F85C
:101C4C004C34D203E2D503F00303012B02D0B8F1DC
:101C5C00010FDBD155B186F31188BFF36F8FBDE84F
:101C6C00F0810021202003F093F8D3E70422054BE8
:101C7C00C3F80423F3E700BF500400204004002005
:101C8C007004002000E0105000E100E0610B002027
:101C9C0008B5074802F0E7FF38B10648FFF7E6FD44
:101CAC000448FEF7D1FE002008BD6FF01200FBE7E0
:101CBC006C500000C51C00000A2838B50446074DBE
:101CCC0004D1AB680D2128465B689847AB68034884
:101CDC005B68E1B29847204638BD00BF6C500000ED
:101CEC002DE9F04340F206354768D00648BF4FF067
:101CFC00030C3B7C02EA050558BFC2F3401C87B0BD
:101D0C0001F01F06B5F5837F144646EA43168DF89D
:101D1C0003C045D00DD8062D44D005D8A5B1022D51
:101D2C0012D06FF0150038E0B5F5807FF9D10125A0
:101D3C000AE040F20222954236D0B5F5407F35D00C
:101D4C00B5F5007FEDD10425220331D501237A6846
:101D5C008B405360B86890BB5F2E06F01F034FEAB0
:101D6C00561175D83C4A52F82120C4F3004102EBBD
:101D7C008302D2F8803081F00101C4F3404423F493
:101D8C00706344EA410423F00F031C4344EA8C04BF
:101D9C0044EA0524C2F88040002007B0BDE8F08377
:101DAC000925D1E70825CFE70625CDE70525CBE7A3
:101DBC00630341BF01237A688B409360CAE73146C5
:101DCC000DF1020202F0C6FE14F4403F80460CD125
:101DDC003146B86802F0D7FEB8F1000FDCD19DF89F
:101DEC000210B86800F074FED6E74FF0000901ABA2
:101DFC00CDE90199CDE90439CDF80C903146B8689C
:101E0C0003AA02F0F0FD4845C6DB14F4003314D0ED
:101E1C009DF80330C4F3004484F001048DF80E30B7
:101E2C008DF80C508DF80D404B463146B86803AA1E
:101E3C0000F0A0FD0028CFDAAEE7CDE904330DF1B8
:101E4C00030303933146B86803AA02F0CCFDF1E713
:101E5C00203350F82330FFDEC85900004209022A13
:101E6C00034670B503D0012A18D0CAB170BD0E4E0E
:101E7C00326951680029F9D0012503F01F030C6861
:101E8C009D400029F2D08A682A4002D030464B6827
:101E9C0098473CB1236821461C46F2E7034EE7E71E
:101EAC00034EE5E72346F6E750500000345000009F
:101EBC001850000038B54568A868C0B102F05DFE46
:101ECC000146A0B9A86800F0CBFD044688B90246CB
:101EDC000949A86802F03BFE22460121DB20FFF7EE
:101EEC00A7F92246012140F20D10FFF7A1F90020BD
:101EFC0038BD6FF00400FBE7691E0000F0B54568C3
:101F0C001646A8682A7C01F01F0487B044EA4214E4
:101F1C00002868D0B6F5001F04D1214602F085FEDA
:101F2C00002051E00020B6F5800F01AA019050600E
:101F3C0039D1B3F1007F14BF052304238DF804308D
:101F4C000023CDE904230393EB680DF1030723FA77
:101F5C0001F111F0010139D1B6F1A07F36D104F0B5
:101F6C001F035F2C4FEA541003F120033ED8214A83
:101F7C0052F8202052F82330DB0727D43A4621466A
:101F8C00A86802F0E7FD163018D002972146A86821
:101F9C0003AA02F028FD002816DB01222146A868BE
:101FAC0002F0F3FDBCE7B3F1C06F05D0B3F1007FD5
:101FBC0014BF01230223C1E70323BFE73946A868F6
:101FCC0000F090FD0028E0DA07B0F0BD3A4621465B
:101FDC00A86802F0BFFD0028D8D19DF80310A868AE
:101FEC0000F076FDD2E76FF08500EDE751F8233075
:101FFC00FFDE00BFC8590000036803F01F025F2B0F
:10200C0002604FEA53129ABF024B53F82200002091
:10201C00704700BF105A00002DE9F74F15460646D1
:10202C004FF0010800EB8101B14203D1002003B055
:10203C00BDE8F08F3268C2F3C323082BC2F3080447
:10204C0000F2A0805148C75C40F2FF139C4208BFCD
:10205C004FF0FF34B2F1D05F4FEA126310D2192B5C
:10206C0012D8DFE803F014233734282F3411111160
:10207C001111111111111111111111113A717477F2
:10208C00382B6AD04E2B25D06FF08500CFE7C5F8E2
:10209C000446621C56D001A80194FFF7ADFF019BCA
:1020AC004FF0010908FA03F3436029E0C5F80C4628
:1020BC004FF0000A62E04FF00009C5F80046601CC2
:1020CC0016D13FE04FF00109C5F80446F7E7C5F813
:1020DC000846EDE7C5F81046DBE7C5F860457388A0
:1020EC00621C03F001032DD0002BD4D14FF0010959
:1020FC0001A80194FFF780FF019B08FA03F38360AA
:10210C004FF0010AD6F800B001A81BF4004F1CBF19
:10211C004FF001094FF0000A0194FFF76DFF019B8E
:10212C001B4C00EB8300D0F88020CBF3412B3B02FF
:10213C0043EA8B0343EA0A031440234343EA49036B
:10214C00C0F8803004366FE7C5F86445C7E7C5F8BA
:10215C006845C4E7C5F86C45C1E701A80194FFF7D1
:10216C004BFF4FF0010A019B00EB8300D0F880304D
:10217C0023F0E04343F08043C0F88030631CE1D08F
:10218C00D146BFE76FF0150051E700BF2860000093
:10219C00F0F0FCFF2DE9F04104460D46476802F0D3
:1021AC0083FD88B12021EFF311831A4681F3128845
:1021BC00BFF36F8F60680068D0F83001D0B983F33B
:1021CC001188BFF36F8FEEE71E4B1B78002BE9D005
:1021DC004FF02008642663681B68D3F83031FBB9D4
:1021EC00012002F0A5FA013EF5D10021202002F0D9
:1021FC00CFFDEFE77B6A00201D706368796A1B686E
:10220C00C3F83C170121C3F84017C3F83001D3F8C9
:10221C003001196582F31188BFF36F8FBDE8F0812F
:10222C00EFF311831A4688F31288BFF36F8F61683E
:10223C000968D1F830110029DCD183F31188BFF380
:10224C006F8FD2E7610B002070B40F4CD4E90015EE
:10225C00501A63EB0506400940EAC6602026E0FBF5
:10226C000615C4E90015002400250849C1E900231E
:10227C00074BC3E90045EFF3118186F31288BFF3D6
:10228C006F8F70BC01F070BCE8010020D001002001
:10229C00E001002008B500220121E420FEF7C8FF70
:1022AC00164A0020D2F8183723F44033C2F81837F6
:1022BC0000F060FD002820DB0120114900F0E6FD54
:1022CC0000281ADB00F030FD0E4B20F01F00C3E994
:1022DC0000010D4B0022C3E900014FF0FF304FF01D
:1022EC00FF310A4BC3E90001094B0A49187A00F087
:1022FC002BFD67220020084B1A6008BD00200E50F1
:10230C009C010020E8010020C8010020D001002021
:10231C009401002055220000D404002008B500F0E0
:10232C0003FD064AD2E90032C01A054B61EB0201EB
:10233C00C3E90001400940EAC16008BDE801002082
:10234C00E0010020F7B5224B0146224F187A224BB0
:10235C00D7E90056D3E900239E4208BF954211D11C
:10236C00B1F1806F0ED24901012938BF0121012240
:10237C004D1946F10006C7E9005603B0BDE8F04020
:10238C0000F00ABE154BDFF858C0D3E90043DCE976
:10239C00002CA41843EB0C0C4FF0200E2246634685
:1023AC00C1FB0E23954276EB0301C7E900230DD246
:1023BC00291B66EB0C04C82974F10004B4BF01217D
:1023CC000021009100F0B2FD03B0F0BD0021F8E750
:1023DC0094010020D8010020D0010020E801002049
:1023EC00E0010020064BD3F840231C2A05D1D3F87A
:1023FC004403431E5842584170470020704700BFA9
:10240C0000C0FF0003689A070CD50368DB070DD5E5
:10241C000922074BC3F80C250F22C3F8042501220F
:10242C001A60FEE7034B0360EF3B0360704700BF8D
:10243C0000801050F000FA5008B50123404A414882
:10244C00C2F80038404AD2F840231C2A04BF3F4A45
:10245C00C2F80C34FFF7D6FF0830FFF7D3FF083073
:10246C00FFF7D0FF0830FFF7CDFF00F5F470FFF752
:10247C00C9FF374AD2F88C3043F44063C2F88C3031
:10248C000022D30003F57F0303F54043D3F8001477
:10249C0001310AD0D3F8001439B1D3F80014013249
:1024AC00D3F80434402A0B60EBD1254BD3F84024ED
:1024BC00002A41D0FFF796FF48B1234BD3F83423C1
:1024CC00244B9A429EBF1E4B234AC3F84026FFF76B
:1024DC0089FF18B1214B224AC3F8AC27FFF782FFC2
:1024EC0048B13422164BC3F82426D3F83C2622F4E8
:1024FC000022C3F83C261B4B1549D3F80026D20703
:10250C0044BF6FF00102C3F80026174BD3F818250F
:10251C0022F00302C3F81825D3F8182542F0030261
:10252C00C3F81825D1F88C2042F44062C1F88C20F5
:10253C000022C3F8A02508BDC822C3F84024B9E77F
:10254C000000125000C50D5000C0FF0000300550B7
:10255C0000ED00E0001D0A1840E0A91E00A0085084
:10256C0078000A0400E0105000B00450014B1B68C6
:10257C00184700BFD804002010B50C4C237993B930
:10258C00012323710A4B0028206018BF184600F065
:10259C00F3F850B923680748002B08BF1846BDE86C
:1025AC00104000F035B86FF0770010BDD804002053
:1025BC0079250000A747000008B5074B1B6853B1ED
:1025CC0040F20510FEF726FE28B9BDE8084040F29F
:1025DC000510FEF711BE08BDD804002038B5042341
:1025EC000A4C42F21075C4F80833012363610023CE
:1025FC00C4F80831D4F80831D4F84C34DB0304D5D2
:10260C00012002F095F8013DF6D138BD00E01050E4
:10261C00064A13793BB9012110601171044A18461E
:10262C00C2F8403470476FF077007047E004002028
:10263C0000E0105010B51D4B1D4CD3F84C14D3F8C2
:10264C004C2411F4803F19D002F00302012A01D06E
:10265C008AB90022154BC3F840240022C3F8082184
:10266C00D3F8082101221A6122688AB9D3F808210B
:10267C00002AFBD014E0FFF7B1FFEAE7D3F84824B7
:10268C00D107E6D5D3F850249207F4D422681AB1B6
:10269C000422C3F8042310BDD3F80821002AFBD070
:1026AC000022C3F80821D3F80831F4E700E01050F9
:1026BC00E0040020F8B50125184C194ED4F80C3361
:1026CC0003F00C0303B9F8BDB3FA83F30027C3F18D
:1026DC001F039A0002F5807292B202F1A04202F539
:1026EC008712176005FA03F1022B1268D8B2C4F8EE
:1026FC00081310D1D4F84C34D4F84C349B070AD1BD
:10270C000423C4F84054C4F804332561D4F80C33C2
:10271C0003F00C03D6E733689847F7E700E0105056
:10272C00E0040020712238B5104B0021C3F80823B7
:10273C00012242F210745A60C3F80011D3F8001150
:10274C000B490A4DD1F840131C2908BFDA60D5F8A3
:10275C000C3413F4803305D0012001F0E9FF013C67
:10276C00F5D138BD034A5371FBE700BF00E01050B0
:10277C0000C0FF00E8040020054B0246187918B988
:10278C001A6001221A7170476FF07700704700BF12
:10279C00E80400200022164BC3F81021D3F81011C6
:1027AC00C3F81821D3F81811C3F81421D3F8141155
:1027BC001049D1F840131C2904BF01219960C3F8BA
:1027CC000021D3F8002101221A600B4A126852B979
:1027DC00074BD3F80021002AFBD00022C3F80021BC
:1027EC00D3F8003170477122C3F80423704700BF3F
:1027FC0000E0105000C0FF00E8040020F8B50126EE
:10280C00194C1A4DD4F80C3303F0710303B9F8BD0D
:10281C00B3FA83F30021C3F11F039A0002F580720F
:10282C0092B202F1A04202F58712116006FA03F788
:10283C00042B1268D8B2C4F8087308D0062B10D039
:10284C002B689847D4F80C3303F07103DEE70223AE
:10285C006B71C4F81411D4F814312023C4F8043368
:10286C00EEE76971ECE700BF00E01050E8040020CF
:10287C00036803F01F025F2B02604FEA53129ABFEA
:10288C00024B53F822000020704700BF6C5A000026
:10289C00034A4309D35C00F01F001844C0B27047D0
:1028AC0031600000F0B50646002487B0114F01914D
:1028BC0017F8012B06AB03EBD20313F8143C02F010
:1028CC000702D34013F0010306D10134032CEFD1DE
:1028DC000023184607B0F0BD074A03AD07CA85E8C8
:1028EC00070055F824100A6A46F824200A62002AC8
:1028FC00EBD0EEE74160000050590000F7B50446FC
:10290C000846FFF7C5FF04EB4006B38A0D46DB070C
:10291C002AD5204602F045F82946204601F0B2FFA0
:10292C0050B1204601F0C4FF0023276807EB80005C
:10293C00C0F81035C0F810352946204601F0E1FFEB
:10294C00002101A8B1820195FFF792FF019B00EBDA
:10295C008300D0F88020064B134043F00203C0F8EC
:10296C008030084603B0F0BD6FF01500FAE700BFE9
:10297C00F0F0FCFF2DE9F043044685B008461546FF
:10298C001F46FFF785FF0E46804625B3204601F013
:10299C0084FF18B9204601F075FF18BB04EB4809F9
:1029AC00B9F8143003F01C0313B16B78012B19D058
:1029BC0001238DF80F3000233046CDE900536A1CFB
:1029CC00AB1C0DF10F0101F005FFB9F8143043F009
:1029DC000303A9F81430002F3ED03146204601F0F5
:1029EC005CFF20B96FF0150005B0BDE8F083002244
:1029FC00397823684FEA810C03EB8103C3F8102567
:102A0C00C3F8102504EB4802938A23F4604323F0A7
:102A1C00200393827D78FDB12468B8786444D4F89F
:102A2C0010750E4B2D043B40C4F8103541F6F07375
:102A3C0005F4403503EA06130005D4F810752B4352
:102A4C0000F4801003433B43C4F81035938A43EAE7
:102A5C00413343F0200393820020C5E70FE0ECFFE5
:102A6C0070B590F87440054690F8756044BB4622EA
:102A7C002146143002F025FA2146134A2B6852F8ED
:102A8C0036608E4212D1002440F20D10C3F844413E
:102A9C00D3F844210D4A934208BFDB20FEF7ACFB70
:102AAC000123204685F874302B6670BDCAB29200A3
:102ABC0002F58070442A04BF1C501A580131E0E71B
:102ACC006FF07700F1E700BF785A000000A00D50BE
:102ADC0090F87500024B03EB800001F045BE00BF7F
:102AEC00A401002010B5064B90F875000C4603EBC2
:102AFC00800001F01FFE0028A4BF2070002010BD34
:102B0C00A40100202DE9F04F804658F804BB90F842
:102B1C007540DBF814136A4BC9B253F834200746DE
:102B2C008BB0584641F4003101F014FF8203054686
:102B3C0039D50023CDE907330993614BE60003EB4C
:102B4C00C404636807A819460093FFF7ABFE331D56
:102B5C0003934FF0000A5B4B0DF11C090293029A90
:102B6C00574912F8013B0292039A02EBD3028A5C9A
:102B7C0003F0070322FA03F3DB071AD40AF1010A64
:102B8C00BAF1030F09F10409E9D14FF40031002225
:102B9C00584601F0DFFE009907A8FFF783FE0028D6
:102BAC00D7D125F400350124002D73D10BB0BDE82D
:102BBC00F08F454B53440493D9F80060002EDDD0C0
:102BCC0096FAA6F6B6FA86F6049B1C7846EA4414E6
:102BDC002046FFF75DFE07EB4000818AF208C1F347
:102BEC00820305930193012319F8020006F00706EE
:102BFC0003FA06F620EA060009F8020006A8069475
:102C0C00FFF736FE069A11F0100F02F1200250F871
:102C1C002260059BC6F3014623D04046019A21460B
:102C2C0001F050FE06A80694FFF722FE069BF6B2B2
:102C3C00203350F82330C3F301439E4207D10021C7
:102C4C00204601F010FE3146204601F00CFE06A88D
:102C5C000694FFF70DFE0122069B02FA03F30362B2
:102C6C00AAE7022E14BF022103212046059301F08E
:102C7C00FAFD059B032B03D0022E07D1012BE6D1C5
:102C8C0021464046019A01F01DFEE0E7032EDED1FD
:102C9C00022BF4E795FAA5F3B3FA83F304FA03F2E3
:102CAC0025EA020503F5A2725BF8222007EB430329
:102CBC004046B3F86410C2F3014201F003FE73E71F
:102CCC00785A000041600000416000000123034A73
:102CDC0003FA00F0936803439360704700000020F0
:102CEC0073B504460191EFF31186202383F3128808
:102CFC00BFF36F8F0B4D019B6A6801A813400193C2
:102D0C0001F018FD002807DB01226B68824023EAE2
:102D1C0002036B602070002086F31188BFF36F8F65
:102D2C0002B070BD000000204FF0FF326FF0404346
:102D3C0030B5044CD4E90001824273EB0105F9D3A0
:102D4C0030BD00BF40270E5030B50C25074B1C186A
:102D5C0094F8544005FB0433C3E90312187501239E
:102D6C00034A8340C2F8243330BD00BF000000206A
:102D7C0000200E50F8B53E4C2278002A72D13D4B03
:102D8C00D3F8101521F00201C3F81015D3F8101563
:102D9C0041F00101C3F810150521C3F8A416042154
:102DAC00C3F8AC160723672101F001000244013B74
:102DBC00D2B24FEA5101F7D1052A56D119464FF03C
:102DCC00010C2B4E00256720CFB204E00CFA02F266
:102DDC0020EA0200013590FAA0F25FFA85FEBE45AA
:102DEC00B2FA82F2F2D3013132750529224482F80B
:102DFC00547006F10C06E5D1012100251E489A08F5
:102E0C0001FA02F212F0670F18BF1D500433302B79
:102E1C00F5D1E420FEF7F0F9164B1849D3F810253C
:102E2C0003F5C07322F00202C3F8902340F6FF7240
:102E3C00C3F8A82100221A60A3F5807004338B42DA
:102E4C000260F8D101250B4B0D4A1D660D4B5D2020
:102E5C001B68B3FBF2F358430B4B2B4398470020F2
:102E6C002570F8BD6FF07700FBE76FF08B00F8E78B
:102E7C000000002000200E5000210E50B0210E50FA
:102E8C0040420F00A00100207059000038B5244BBF
:102E9C000D46D3F8102594073CD4D3F8102542F0F6
:102EAC000202C3F81025C0B1D3F8482712F0010272
:102EBC0002BFD3F8481741F00101C3F84817184B6B
:102ECC00D3F84017D3F844174800F9D42AB9D3F8EB
:102EDC00482722F00102C3F84827124B124A1B68FC
:102EEC00B3FBF2F30E4A03EB4313B3B1D2F8401722
:102EFC00D2F8441749000BD44FF0FF312846FFF7A6
:102F0C00EFFE044610B92878FFF7E0FE204638BDE6
:102F1C00013BEAE76FF07704F8E76FF07304F5E72D
:102F2C0000200E50A001002040420F0070B51E463C
:102F3C001546174A9DF81010131893F854300C339B
:102F4C0002EBC30442F833506660C6F3130204016B
:102F5C00A1B104F1A04404F56224C4F82055C4F8CE
:102F6C0024250C4C80000444236833B1FFF7DCFEAD
:102F7C00A842B14101D20023236070BD04F1A043EB
:102F8C0003F56223C3F82055C3F82425F5E700BFE9
:102F9C000000002000210E50F0B50E4D2B1893F8B8
:102FAC00543000010C3355F8334005EBC3077E68F1
:102FBC00641800F1A04021F0004146F1000641EAFE
:102FCC00C27100F5622045F833407E60C0F82815C8
:102FDC00F0BD00BF00000020F7B5284B284CD3F8FB
:102FEC002C6304F188070EB903B0F0BD96FAA6F075
:102FFC000123B0FA80F08340DA43224926EA030623
:10300C00231893F85450830019440C2303FB0543F5
:10301C00DB6873B3D7E8EF3F03EA020CC7E8EECFE7
:10302C00BEF1000FF6D1C340DB0719D5020102F146
:10303C00A04202F56222D2F82435D2F82025D1F82C
:10304C0000C0BCF1000FCED04FF0000CC1F800C096
:10305C000C2101FB054529690091E9688847C2E705
:10306C0005F10C0304EBC30C54F83320DCF80430EA
:10307C00E5E70A68002AB6D00B60B4E700200E50D2
:10308C000000002000210E5038B5EFF311852023ED
:10309C0083F31288BFF36F8F064B9C6801F0F6FD2B
:1030AC0085F31188BFF36F8F2046BDE83840FEF7DB
:1030BC0051B900BFF004002038B50A4B53F820403A
:1030CC00013053F82050A54200D838BD606830B1AB
:1030DC00037EDB0701D401F0AEFD0834F3E723686F
:1030EC009847FAE7885A0000012270B5294B86B040
:1030FC0003201A70FFF7E0FF00F0AAFD0420FFF791
:10310C00DBFF254C254D2646AE4204F130040FD38F
:10311C0000F084FA204CAC4226D300F093FAFDF771
:10312C005BFB1F4A938923F00103938106B070BDAA
:10313C0054F80C3C059354F8103C049354F8143C8C
:10314C00039354F8183C029354F81C3C019354F824
:10315C00203C009354E90A2354E90C0100F018F9BF
:10316C0054F8303C5E65CEE7D4E90A23B3F1FF3F57
:10317C0008BFB2F1FF3F05D052EA0301206803D12A
:10318C0001F022FE3034C6E70649183000F05CFC32
:10319C00F8E700BF610B0020005900000059000047
:1031AC0070020020774D00000023012270B586B01C
:1031BC00CDE904230F220193CDE9023214234FF4FD
:1031CC00A0720E4D0E4E03FB00550E4906EBC016B9
:1031DC00044602FB00110C4B3046009500F0D8F869
:1031EC00337C2C7423F004033374084B013403EB4D
:1031FC00C423EE606B6006B070BD00BFF00400200D
:10320C00F0010020681300209F4C0000680B002088
:10321C007FB50020FFF750FF284B03F5006282F3C7
:10322C00088883F30A880024E023254D85F8223092
:10323C00EC772C766C76AC7685F820406B6A43F490
:10324C00E0236B6285F82340FDF78EFFFEF76CF8E8
:10325C004FF0FF33AB62EB62FEF74EFAFEF7E8F885
:10326C00184800F0D3F80120FFF726FF0220164D76
:10327C00FFF722FF00F010FA144B4FF480525D61FF
:10328C00134B1449059301232846CDE90343CDE99B
:10329C000144114B009400F07BF806462B7C284629
:1032AC0023F004032B7401F03DFD2046FFF77CFF57
:1032BC0031462846084AFEF717F800BF680B002075
:1032CC0000ED00E0F002002070020020F00400206D
:1032DC00DC5F0000A8140020F530000070B5EFF39F
:1032EC001186202383F31288BFF36F8F0468A042EA
:1032FC001AD0CCB1D4E90032002513605A60237C7B
:10330C00C4E9005523F002032374A56004F11800EE
:10331C0001F091FD2046A56701F004FD3146BDE8A2
:10332C007040074801F031BDD0E902329A4218BF13
:10333C000133836086F31188BFF36F8F70BD00BFBC
:10334C00620B002013B5EFF31181202484F3128853
:10335C00BFF36F8F846844B1013C846081F31188A2
:10336C00BFF36F8F002002B010BD52EA030406D1E8
:10337C0081F31188BFF36F8F6FF00F00F3E7CDE986
:10338C0000230246014800F027F9ECE7620B00200D
:10339C002DE9F043984685B000F15803C0E9163387
:1033AC00109B002683810423073222F00705037447
:1033BC000F9B01EB05090F4683734946C0E906666E
:1033CC008660C6730446FDF7CDFC0E9B073020F0DB
:1033DC000700A066C4E9187502930D9BA9EB0009C0
:1033EC0001930C9B4A460093394643462046FDF711
:1033FC005FFF054B66659B6803B1DB6E4846E36671
:10340C0005B0BDE8F08300BFF00400200123037475
:10341C0083810023C0E91833C366014B9860704761
:10342C00F00400206FF00A01084A93689967084974
:10343C0058674B6843F080534B60002383F311882B
:10344C00BFF36F8F9368986F704700BFF004002034
:10345C0000ED00E070B590F91020037C002A2FDB02
:10346C00D9062DD11A4C63F07F032246037452F80F
:10347C00183FE169934207D1C0E900210860E0617F
:10348C000FE09942F8D01B68002BF5D093F90E6031
:10349C0090F90E50AE42F4DD5968C0E90031086075
:1034AC005860A569954200D005B9E568A3681A7CF7
:1034BC00D20606D1DA897F2A03D9AA690AB96361CF
:1034CC0070BDAB4202D0284600F040FA6561F7E7C8
:1034DC00F004002038B590F910200146002A037C36
:1034EC0004DA03F07F03037401F0E4FB0D4D2A466C
:1034FC0052F8184FAB68944200D004B9EC688B4278
:10350C0007D01A7CD20604D1DA897F2A01D9A269A4
:10351C002AB1A34202D0204600F018FA23466B6170
:10352C0038BD00BFF0040020B3F1FF3F08BFB2F17B
:10353C00FF3F03D00249183000F086BA704700BF35
:10354C00774D0000034648B9EFF3058232B9064ABD
:10355C0051699268914201D0FFF764BF83F31188DF
:10356C00BFF36F8F704700BFF004002038B5184CC4
:10357C00A168E0690B68814214BF1A4600224968B1
:10358C000B605960A368E1692AB9124AC3E90021AA
:10359C000B60E3610AE092F90E5093F90E0085423C
:1035AC0012DD5168C3E900210B605360A569094B1A
:1035BC009D4200D005B9E568A3689D4202D028461B
:1035CC0000F0C4F9656138BD8A42DED01268DBE7D1
:1035DC00F004002008050020F8B5DDE906670D4B66
:1035EC000C46986811460C4A1060EFF311822022A9
:1035FC0082F31288BFF36F8F9D68284601F06CFB35
:10360C00284632463B46FFF78FFF2046BDE8F84080
:10361C00FFF708BFF004002010050020EFF3118124
:10362C00202383F31288BFF36F8F054B9A68D37BEB
:10363C00013BD37381F31188BFF36F8F704700BFC9
:10364C00F004002070B5EFF31186202383F3128869
:10365C00BFF36F8F0F4DAB68DA7B0132DA732A46FA
:10366C0052F8184F944200D004B9EC681A7CD20678
:10367C0004D1DA897F2A01D9A2692AB19C4202D0ED
:10368C00204600F063F923466B613046BDE870407C
:10369C00FFF758BFF0040020024B03F11802C3E9F6
:1036AC0006227047F004002070B5EFF3118620233A
:1036BC0083F31288BFF36F8F1A4CA168E0690B6813
:1036CC00814214BF1A46002249680B605960A368F6
:1036DC00E1692AB9144AC3E900210B60E3610AE0ED
:1036EC0092F90E5093F90E00854216DD5168C3E92C
:1036FC0000210B605360A5690B4B9D4200D005B9AE
:10370C00E568A3689D4202D0284600F01FF9656168
:10371C003046BDE87040FFF785BE8A42DAD01268A9
:10372C00D7E700BFF004002008050020F8B550EAE8
:10373C00010306460C4603D1FFF7B6FF0020F8BD87
:10374C00EFF31187202383F31288BFF36F8F124D91
:10375C00124BA8681860FFF7BDFEA86823463246D6
:10376C000F49183000F070F9AA680446137C3846EB
:10377C0043F004031374FFF755FEAB68D3E90A2337
:10378C00B3F1004F08BF002AD8D101F089FB201AF1
:10379C0020EAE070D3E700BFF00400201005002001
:1037AC00774D0000014B9868704700BFF004002073
:1037BC002DE9F84304468789EFF31186202383F320
:1037CC001288BFF36F8F037C190705D586F3118818
:1037DC00BFF36F8FBDE8F883D90943F008026FD1AE
:1037EC000274A36813B1204601F06CFA04F11800BE
:1037FC0001F021FBA56D04F15808A84511D04FF03C
:10380C00000975B1284601F05DFA05F1180001F0C8
:10381C0012FB2846C5F87890FFF71CFEA56DA8454D
:10382C00EFD1DFF8BC80D8F808309C4250D1EFF3D0
:10383C000589B9F1000918BF4FF00109D8F81850E3
:10384C00284A954200D00DB9D8F80C50AB4202D0A2
:10385C00284600F07BF82046C8F8145000F0B2FD62
:10386C00B9F1000F02D02048FFF7D0FDD8F808308E
:10387C009C4230D1EFF305836BBBA289D20711D5E3
:10388C0086F31188BFF36F8F83F31188BFF36F8FAB
:10389C000423184602DFEFF31186202383F31288EA
:1038AC00BFF36F8F3046FFF7BDFDFB0792D50023AA
:1038BC0083F31188BFF36F8F0423184602DF89E767
:1038CC0003F07F0343F00803037401F0F3F988E776
:1038DC004FF00009B2E786F31188BFF36F8FE4E76E
:1038EC00F004002008050020F0020020027C0346B2
:1038FC0012F01F0210D10A4988420DD009490868FC
:10390C0068B1D9897F2909D893F90E20064B1B6819
:10391C009A42B8BF0020704700207047104670478D
:10392C00F0010020AC010020140500200122044B02
:10393C00C01A044BC0105843034B1A54704700BFB5
:10394C0070030020ABAAAAAA620B002070B50C4B26
:10395C000C4D1E7CFFF7CAFF182303FB06550446CB
:10396C00284601F068FA0022074B9A553CB1621EBA
:10397C002846BDE870400549D31700F065B870BD06
:10398C00F004002070030020620B00203939000085
:10399C0038B5EFF31185202383F31288BFF36F8FB3
:1039AC000F4B104A9C681068A04206D1FFF7CEFF5F
:1039BC0085F31188BFF36F8F38BD00211B7C11601C
:1039CC00094AD35C002BF3D02046FFF78FFF002869
:1039DC00EED0237CDB0601D1FFF7C8FD2046E5E7DE
:1039EC00F004002010050020620B0020024B186828
:1039FC00984208BF00207047B0010020034B1B68A1
:103A0C000BB9FEF78BBC0020704700BF18050020D7
:103A1C0030B570B10B4B5B6898420AD0036843B168
:103A2C00D3E90421D0E90445121941EB0501C3E99E
:103A3C000421D0E9003213605A600023C0E900333E
:103A4C0030BD00BFB0010020B3F1FF3F08BFB2F1A1
:103A5C00FF3F2DE9F84F0446994615461F467AD08C
:103A6C008160EFF31188202383F31288BFF36F8FEB
:103A7C00B9F1000FDFF8E4A020DBFFF7BFFFDAE9B4
:103A8C000027013549F100092D1849EBE073064672
:103A9C004FF00109C4E90453AD1843EB0707FFF7D6
:103AAC00A5FF0346DFF8B8E0DEF804A0EBB9C4E9E3
:103ABC0000EACAF80040CEF8044028E06FF0010399
:103ACC00DAE900125B1A4FF0FF3161EB02025B1B6B
:103ADC0062EB0902012B72F10001BCBF0123002231
:103AEC004FF00009C0E90432D9E7D3E9041CD4E94A
:103AFC0004208A4270EB0C0B24DA891A5A686CEB9E
:103B0C000000C3E90410C4E9003214605C60FFF7E4
:103B1C006DFF84420ED1134B1B685BB9B9F1000FDA
:103B2C0002D1FFF76BFF0646304601F06DF900211C
:103B3C00FEF708FC88F31188BFF36F8F28463946CF
:103B4C00BDE8F88F521A60EB0C005345C4E9042011
:103B5C00ADD01B68AAE700252F46EFE788030020AD
:103B6C00B0010020180500202DE9F047DFF8A890DF
:103B7C000246C9F800000D46FFF738FF0026002763
:103B8C00DFF898804FEAE27ED8E9001350B1D0E913
:103B9C00044CA2427EEB0C0A1ADAA41A6CEB0E0649
:103BAC00C0E904460024521843EB0E032046C8E932
:103BBC000023C9F8004001F027F92146FEF7C2FBAB
:103BCC0085F31188BFF36F8FBDE8F047FFF7E0BEB8
:103BDC00611843EBE473C0E90467C8E90013FFF70D
:103BEC0017FF01224FF00043C0E9042385F311882D
:103BFC00BFF36F8F83689847EFF31185202383F30E
:103C0C001288BFF36F8FD9F80020121BC9F800205F
:103C1C00FFF7ECFEB6E700BF180500208803002074
:103C2C0010B5EFF31184202383F31288BFF36F8F49
:103C3C00FFF7E4FE0346054AD2E90001181841EBF0
:103C4C00E37184F31188BFF36F8F10BD88030020DC
:103C5C00014800F0C7BA00BFE15F00002DE9F04F4A
:103C6C0043688BB080469246009383789C0740F162
:103C7C00F98000250878002800F0F68025280AD065
:103C8C004B1C019301354146009B98470028C0F21C
:103C9C00E3800199EEE74E788B1C252E0193F1D031
:103CAC0000270A22B9463C461F2C22D8A6F1200335
:103CBC00102B20D8DFE803F0141F1F1A1F1F1F0B37
:103CCC001F1F1F121F171F1F090044F00104019B27
:103CDC0013F8016B0193002EE6D13AE044F0020494
:103CEC0044F00404F3E744F00804F0E744F0100453
:103CFC00EDE77F2C24D8A6F13003092B08D86006F9
:103D0C004EBF02FB073744F0200402FB0939DEE703
:103D1C002A2E0DD161065AF8043B53D4002BA7BFB1
:103D2C0044F020049946C3F1000944F02804CEE77E
:103D3C002E2E05D1630600F1978044F04004C6E7AF
:103D4C006C2E2ED028D8682E32D06A2E37D04C2E1E
:103D5C0035D0002F46F02003B8BF24F04004A3F167
:103D6C006502BCBF0027A4B2022A01D9612B2BD15A
:103D7C000AF1070A07279D4E2AF0070A0AF1080ADA
:103D8C00210760D506EB070B34465C455DD1AE1BB5
:103D9C00A9EB0709A21959E1742E98D07A2E96D066
:103DAC00D7E7260648BF44F4007444F080048EE73D
:103DBC00E00548BF44F4007444F4807487E744F48D
:103DCC00207484E71F4682E7A6F16302122A00F2F0
:103DDC00D880DFE812F013004D00D600D600D600D4
:103DEC00D6004D00D600D600D600D600D600E8008E
:103DFC00D100D600D6001A00D600A0005AF8043B19
:103E0C00012704AE8DF81030BAE75AF8046B784BE2
:103E1C00002E08BF1E4614F0400F304614BF394622
:103E2C004FF0FF3101F055F80746A9E74146202035
:103E3C00009B984700280FDB013CA742F6D34D446A
:103E4C00A1462D1B9EE74C46F7E7414614F8010BA3
:103E5C00009B9847002898DA98F8023043F0040346
:103E6C0088F802304FF0FF3528460BB0BDE8F08FD4
:103E7C00220630D5A3052AD50AF1070A2AF0070332
:103E8C009A4659685AF8080B24F0100B00291FFAAF
:103E9C008BFB2FDA40424BF4806B61EB410104AC9D
:103EAC000A23224601F021F81BF0400FA0EB04027C
:103EBC0000F08E802BF001049742A4B240F38F8067
:103ECC00002E40F08E802BF01104A4B21DE05AF8A5
:103EDC00040BC117D8E7E0055AF8041B01D40846B7
:103EEC00F7E7A20547BF48B241F3C01108B241F34E
:103EFC00C031C9E750EA0103D1D16306CFD5002FF9
:103F0C00CDD124F011043A46A4B23B4640F206410E
:103F1C000C4262D124E024F010040A23A4B214F061
:103F2C00800243D014F4007117BF0AF1070A5AF843
:103F3C00040B2AF0070292461CBF51685AF8080B72
:103F4C0050EA01023ED124F0160B62061FFA8BFBDD
:103F5C003CD5002F3AD124F017043A463B46A4B284
:103F6C0021075AD4E10705D5994572DDA9EB030366
:103F7C009F184B469B464AE044F0100410237826C9
:103F8C00CDE7782B04D1C6F1780343F01003C6E7D4
:103F9C0041462520009B98470028FFF65DAF02356F
:103FAC004146304670E608230026B8E714F48071C9
:103FBC005AF8040BC4D014F400711ABFC0B21146E5
:103FCC0080B2BDE724F006041FFA84FB04AC68E75A
:103FDC0013465C46E10699D52EB90133C0E713466A
:103FEC00F8E73B46F6E70233BAE700BF2060000073
:103FFC0019600000CDE9023241462020009B984711
:10400C000028FFF629AF0BF1010BDDE90232D9458F
:10401C00F0DCEB1A03EB0B055B46E10627D54146BA
:10402C003020CDE90232009B98470028FFF614AFF0
:10403C00DDE902327EB901352F44791B8A4229DB36
:10404C00144604AE94BB2A44A9EB030915469144CB
:10405C0040E017468EE7023541463046CDE9023244
:10406C00009B98470028DDE90232E5DAF4E640F2DD
:10407C0006410C42E0D014F0020F05F10105414657
:10408C0014BF2B20202014F4806FCDE9023218BF0E
:10409C002D20E5E7CDE902324146009B3020013569
:1040AC0098470028DDE90232C7DAD5E6013C4146E3
:1040BC00CDE90232305D009B98470028DDE90232E1
:1040CC00C0DAC9E641462020009B013598470028FC
:1040DC00FFF6C2AEA9EB0503002BF3DCD9E500BF5C
:1040EC00704710B547F6122C0446002140F2E73019
:1040FC004FF47A720023E4FB0C01FCF7B9F9BDE82C
:10410C00104000F045BE00EBC100408840087047ED
:10411C00F8B50346FFF7F7FFB0FA80F0C0F11F00C7
:10412C0003EB800CDCF81060CA00171D0C4606323D
:10413C008DB256B9012101FA00F0D9680143D9605A
:10414C00CCF81040DD539D52F8BDF1000431585AA3
:10415C00D85303EBC0009E52C5805D52F4E7043A7D
:10416C002DE9F843CC1D114424F0070421F0070677
:10417C00A6EB04084FEAD807B7FA87F24FF000090C
:10418C00C2F12405AD000735C2F12002ED08046030
:10419C004946A760C4F80C90920004F1100000F09E
:1041AC0090FEAAB2530043F0010363807B1B9BB2C9
:1041BC0004EBC5015800A4F80090488024F8352081
:1041CC00A6F8029024F8083004EBC7035A88294655
:1041DC0042F001025A802046BDE8F843FFF798BF31
:1041EC00002070470FB407B504A951F8040B0191D6
:1041FC00FCF730FC03B05DF804EB04B07047038BA4
:10420C0013F0070306D10368002B18BF032008BF67
:10421C0000207047022B05D1408BB0FA80F040098A
:10422C0080007047012B04D10368002B18BF0520B8
:10423C00EDE70020704710B50C4600B111B96FF0D6
:10424C00150010BD081D00F087F80028F9D1A368EF
:10425C00032BF6D9F3E72DE9F0410D460746194635
:10426C00281D90461E4600F088F8044638B13346A7
:10427C00424629463846A446BDE8F0416047BDE8B1
:10428C00F08110B4EFF31182202484F31288BFF371
:10429C006F8F416110BC0121FCF70EBC38B50C4688
:1042AC00054658B151B10B6843B14B6833B11C2270
:1042BC00002100F006FE00202C6138BD6FF01500C7
:1042CC00FBE7F8B504460E46FFF7B5FF051E3BDBD2
:1042DC00EFF31182202383F31288BFF36F8F4FF615
:1042EC00FF71638B278B8B4207F007072ED0062FAD
:1042FC002FD8DFE807F0182E082E180418006FF0DE
:10430C008505002303E0013363830225012382F337
:10431C001188BFF36F8FBBB100233A46314620465C
:10432C00FFF799FF10E000233360636823B9C4E9F9
:10433C00006627B13D46E4E71E606660F9E702219E
:10434C002046FCF7B9FB3D462846F8BD6FF00A0540
:10435C00D7E76FF00405D4E7034658B1426802F082
:10436C000302012A03D0032A04D1026812B10020EF
:10437C00986070476FF0150070474268034602F072
:10438C000302032A4FF00002816014BF104600683C
:10439C005A607047704700F094BD00F085BD01462F
:1043AC000068FCF7ABBC08B5FCF7D8FCBDE80840CE
:1043BC00FCF7C0BF00210120FCF7A0BC036E83F307
:1043CC000B8870476FF08500704761B662B680F35A
:1043DC001188BFF36F8F704772B6002383F3118877
:1043EC00BFF36F8FBFF34F8F30BF62B6BFF36F8FCA
:1043FC00704772B6002383F31188BFF36F8FBFF33E
:10440C004F8F20BF80F31188BFF36F8F62B6704758
:10441C0040E800F313F4803FD8B208BF6FF01500EA
:10442C00704730B50C684B6885B00A894D8900948B
:10443C00013B24F01F04234402F01F0242EA451200
:10444C0023F01F0369468DF808200393FDF726F827
:10445C0005B030BD08B5FDF701FA002008BD0C22EF
:10446C000369C9B202FB0133186C00F007007047F6
:10447C0070B50346C9B20069EFF31186202484F3AA
:10448C001288BFF36F8F0C2505FB0104246C14F00C
:10449C00C00401D0A24210D1012205FB010002642C
:1044AC00002086F31188BFF36F8F28B95B6803EB8C
:1044BC00C1035B689847002070BD4FF0FF30F0E7F8
:1044CC008022FFF7D5BFF8B5069F05460469C9B22F
:1044DC00EFF3118C202080F31288BFF36F8F0C2622
:1044EC0006FB0146306C00F0070EBEF1010F11D136
:1044FC00376400268CF31188BFF36F8F46B90C20FC
:10450C0000FB0144C4E90E236B6853F83130984723
:10451C003046F8BD00F0C00087420CBF6FF0770644
:10452C004FF0FF36E6E713B580240094FFF7CBFF7E
:10453C0002B010BD10B41C240069CBB204FB030004
:10454C00002110BC10471046FEF7C8BE00F03EB963
:10455C00FEF770B8436800205B68DB680B6070473F
:10456C00436802EA01005B6821EA020158600020FE
:10457C0099607047436800205B68596070474368D6
:10458C0000205B689960704743685B681A6821EA91
:10459C0002001140586000209960704730B50369E3
:1045AC00586800B30024884219D108688CB99C68FB
:1045BC005860A14200D19860002008602AB15A6866
:1045CC000A609A68596002B9996000200FE0284689
:1045DC00E9E720609868814208BF9C60ECE70568B9
:1045EC000446002DF3D1002AE9D16FF0150030BD3F
:1045FC00FEF788BA30B543681360057A446804EB5B
:10460C00C504A34202D36FF0010030BD5C790833BE
:10461C008C42F1D10020F8E743681B68D3F83031A5
:10462C00704743681B68D3F88004C3F88004704754
:10463C0042681368D3F84C0150B10020926A12788A
:10464C000A70C3F84C01D3F84C2101229A627047CE
:10465C004FF0FF30704713B501AA0446FFF7CAFFAD
:10466C00002805DB019B226819791868FDF7D4FC3A
:10467C0002B010BD38B5054600220121C620FCF75A
:10468C00D7FDC620FCF7B8FD6C680121E068FFF788
:10469C00E2FF6B6819686369C1F82435E28BA38B60
:1046AC00A07E1343228C1343628C1343627E9BB215
:1046BC000243207E02431343C1F86C3569680B68D2
:1046CC00D3F8002242F48022C3F800220822C3F857
:1046DC0000254A6A0121C3F83C270022C3F8402771
:1046EC001965D3F830110029FBD0C3F800256D688B
:1046FC000021E8682C68FFF7AEFF0823C4F80035EA
:10470C002A7A52B9AB6AC4F804370123C4F80837C3
:10471C00C4F84C21D4F84C21A362002038BD08B554
:10472C000220FDF739FA002008BD03460020184787
:10473C0000F07DBA024610B5116891B1B1FA81F35F
:10474C00C3F11F000123834021EA0303D2E8EF4F9A
:10475C008C4204D1C2E8EC3FBCF1000FF6D1EBD196
:10476C0010BD6FF00B00FBE710B50368CB40DB0707
:10477C0010D401238B40026843EA0201D0E8EF4FCA
:10478C00944204D1C0E8EC1FBCF1000FF6D1F2D179
:10479C00002010BD6FF01500FBE7FDF7E7BE10B170
:1047AC00012802D07047FDF745BFFDF7F3BF18B1E4
:1047BC00012803D100F00CB800F008B8704708B518
:1047CC00FEF71CF8BDE80840FDF774BFFDF706BF07
:1047DC00FDF7A8BFF7B51646DDE90847019001A81B
:1047EC001D46FEF745F8019BB6F1000C18BF4FF0C3
:1047FC00010C00EB83000B1E18BF0123002D43EAB4
:10480C004C030CBF4FF0000C4FF00C0C002C43EA87
:10481C000C030CBF4FF0000C4FF4706C002F43EAEC
:10482C000C030CBF4FF0000C4FF4403CD0F8802030
:10483C0043EA0C0322EA030301B109780EB136787E
:10484C00760019430DB12D78AD0031430CB12478AD
:10485C00240229430FB13F783F040C433C43C0F87A
:10486C00804003B0F0BD1FB50DF10F030193002381
:10487C008DF80F101A4619460093FFF7ABFF05B0E1
:10488C005DF804FB10B504460846FEF701F804EB8E
:10489C004004207DC0F3401010BD10B504460846FE
:1048AC00FDF7F6FF04EB4004207DC0F3400010BD83
:1048BC0010B504460846FDF7EBFF04EB4004A08A54
:1048CC00400B10BD70B5044608461646FDF7E0FFD8
:1048DC00083034F810300D46DA0509D5C3F34323FC
:1048EC0004EBC3023146284654F8333052689847DB
:1048FC00A3682BB131462846E268BDE870401847E2
:10490C0070BD10B504460846FDF7C2FF04EB40002D
:10491C00838ADA051DD5C3F3432123F4F85383822C
:10492C0004F1120204F1580032F8023F13F4807FB4
:10493C0003D0C3F3432399420BD08242F4D100221B
:10494C0004EBC1035A6004F16000BDE81040FFF7AE
:10495C000BBF10BDF0B50446002001270546844668
:10496C0095420AD1D4F8443133B10023C4F8443110
:10497C00D4F8443140F40030F0BDEBB29B0003F5A9
:10498C0080769B0807FA03F3194208D054F806E026
:10499C00BEF1000F03D044F806C0A65918430135E8
:1049AC00DEE738B504460D46FFF76CFFA8B120468C
:1049BC00FFF773FF88B92046FFF77AFF01232268BF
:1049CC008340C2F81833236803EB8000D0F810350D
:1049DC0023F00303C0F8103538BD2846BDE8384035
:1049EC000021FFF740BF2DE9F0431746044685B080
:1049FC000846FDF74DFFD7F800800E460546B8F186
:104A0C00000F1ED02046FFF748FF18B12046FFF7D5
:104A1C0039FF20BB00230DF10F02CDE900338DF8D7
:104A2C000E308DF80F30304643460DF10E01FFF776
:104A3C00D1FE04EB4502938A23F0020343F00103F9
:104A4C0093827B689BB33146204693F80080D3F861
:104A5C000490FFF722FF28B1B9F1000F1FD06FF0BF
:104A6C00150027E004EB4500838A23F4604323F010
:104A7C0020038382B9F1000F11D0B8F1030FEED8E7
:104A8C007B6821685B6893F800C04FEA8C0319447B
:104A9C00B8F1000F11D1C1F81085C1F8108504EBE5
:104AAC004502938A23F01C0343EA88039382BB6874
:104ABC004BBB002005B0BDE8F083D1F8102522F0E7
:104ACC000302C1F8102522681344D3F8102522F4F0
:104ADC00473222F47C72C3F8102541F6F072D3F8F9
:104AEC00101502EA061242EA08420A43C3F81025DE
:104AFC0004EB4C03A3F86460838A43EA4C3343F021
:104B0C0020038382CBE73146D3E900782046FFF7B8
:104B1C00F8FE002FCDD063689F4206D004F16000F0
:104B2C00FFF708FE002804DAC4E7A3689845F5D11E
:104B3C00002004EBC003C3E9017804EB4505AB8A04
:104B4C00C0B243EA402343F48073AB82B1E7C0E9BF
:104B5C000312704770B504461546FFF793FE48B133
:104B6C000846FDF795FE04EB40040020A38A5B0B7E
:104B7C002B7070BD6FF01500FBE790F874000038D7
:104B8C0018BF01207047FDF7B9BE2DE9F34104466B
:104B9C001746FFF777FE0D462668F0B12046FFF763
:104BAC007CFE8046C8B92046FFF782FE820002F5E3
:104BBC00807346F80380F35823681344D3F8102508
:104BCC0042F00102C3F8102527B10123226883406B
:104BDC00C2F8143302B0BDE8F081D6F8143328467D
:104BEC009B035CBF4FF40033C6F81433FDF750FE43
:104BFC0004EB4004A38AC3F38203042B11D0052BCE
:104C0C0011D001A80195FDF733FE019BC168D94075
:104C1C0001F001010231284602B0BDE8F041FFF776
:104C2C0022BE0321F7E70221F5E7FFF7BABE08B170
:104C3C00FCF78EBE704710B5436904463BB90020A3
:104C4C00E2684042537843F00103537010BD98471B
:104C5C000028F4D00028B8BF4042FF28A8BFFF208E
:104C6C00E3681870ECE740B1C368587810F00100A5
:104C7C001EBF1878B0FA80F040097047EFF311832B
:104C8C00202383F31288BFF36F8FFEE708B5FFF77D
:104C9C00F5FF202408B5EFF3118384F31288BFF3DA
:104CAC006F8FFFF799FBF6E7EFF30580003818BF1D
:104CBC0001207047D0E9003213605A600023C0E92C
:104CCC000033704708B5FFF7F5FF037C23F00203B0
:104CDC0003740023836008BD38B504460D46FEF707
:104CEC00F9FB237C43F002032374D5B1A5602B6838
:104CFC009D4209D16B68C4E900531C606C6010E0E4
:104D0C006A689A42F6D01B68002BF3D093F90E1008
:104D1C0094F90E209142F3DD5A68C4E90032146014
:104D2C005C6038BD10B5EFF31184202383F3128837
:104D3C00BFF36F8FFEF78EFB84F31188BFF36F8F79
:104D4C0010BD08B5037C014613F0280F0CD1836805
:104D5C000BB1FFF7B7FF0B7C084623F004030B7471
:104D6C00BDE80840FEF776BB08BD10B5EFF3118423
:104D7C00202383F31288BFF36F8F1838FFF7E1FFFE
:104D8C0084F31188BFF36F8F10BD0846FEF7DABBB2
:104D9C0070B506460D46FEF7C9FCB5F1FF3F08BFDE
:104DAC00B6F1FF3F04460CD047F6112000214FF41A
:104DBC007A7547F612220023E4FB0501FBF758FB3A
:104DCC0070BD4FF0FF30FBE738B50446EFF31185AB
:104DDC00202383F31288BFF36F8F037C5B070ED500
:104DEC00183000F028F8237C204623F004032374A9
:104DFC00FEF730FB2846BDE83840FEF7A3BB85F331
:104E0C001188BFF36F8F38BD08B50246FEF7EEFD73
:104E1C0070B1D0E904319B1A61EBE272B3F1004F2F
:104E2C0072F1000104DA002AACBF1846002008BD5C
:104E3C006FF00040FBE7024638B5EFF311852023F5
:104E4C0083F31288BFF36F8F0368D3B1FEF7CEFDE7
:104E5C0004461046FEF7DCFD00224FF0004384426E
:104E6C00C0E9042305D0002085F31188BFF36F8FB0
:104E7C0038BDFEF7C3FDFFF7C7FF0021FDF762FA4F
:104E8C00F1E7D0E90413B3F1004F08BF012904D1B5
:104E9C0000204FF00041C2E904016FF01500E3E778
:104EAC0008B5FEF7BDFE08BD0A44431E914200D171
:104EBC00704710B511F8014B914203F8014FF9D12D
:104ECC0010BD02440346934200D1704703F8011B06
:104EDC00F9E70246014410B58A42134603D01C7808
:104EEC000132002CF8D1181A10BDF0B5C3F13707F8
:104EFC00044603F01F031046FFB2082BE6B232D073
:104F0C00102B3DD06508A40845EAC17544EA8174AC
:104F1C008A082D1942EB5102290941EA02716D18D8
:104F2C0042EB1212290A41EA02616D1842EB12227D
:104F3C00290C41EA02416D1842EB1242AD1842F1C4
:104F4C000002EC0844EA4274D10804EB8402A6EB9C
:104F5C004205EDB2092D0CD90134A5F10A0541F138
:104F6C000001EDB212E0E40806F0070544EA4174D2
:104F7C00C908303554EA010200F8015BBDD1F0BD1F
:104F8C00240906F00F0544EA01740909092D84BFB0
:084F9C00ED19EDB2EDE7000094
:084FA4000CB5FF7F01000000C5
:104FAC00B518000000000000A12200000000000065
:104FBC0000000000FC4F0000000000003450000016
:104FCC0000000000185000000000000050500000CD
:104FDC00000000006C5000009D1C00000000000050
:104FEC002B4700000000000091180000000000009A
:104FFC00A25F0000B859000024590000B80100203D
:10500C0054040020051A000000000000AF5F0000EF
:10501C00D459000000590000BA010020A804002057
:10502C00C11E000000000000BB5F0000E85900003A
:10503C0000590000BC010020B4040020C11E000077
:10504C0000000000C65F0000FC5900000059000081
:10505C00BE010020C0040020C11E000000000000A2
:10506C00D15F00001C5A000040590000C001002014
:0C507C00CC040020814600000000000071
:1050880000000000C143000000000000C143000010
:1050980000000000C143000000000000C143000000
:1050A80000000000C143000000000000C1430000F0
:1050B80000000000C143000000000000C1430000E0
:1050C80000000000C143000000000000C1430000D0
:1050D80000000000C143000000000000C1430000C0
:1050E80000000000C143000000000000C1430000B0
:1050F80000000000C143000000000000C1430000A0
:1051080000000000C143000000000000C14300008F
:1051180000000000C143000000000000C14300007F
:1051280000000000C143000000000000C14300006F
:1051380000000000C143000000000000C14300005F
:1051480000000000C143000000000000C14300004F
:1051580000000000C143000000000000C14300003F
:1051680000000000C143000000000000C14300002F
:1051780000000000C143000000000000C14300001F
:1051880000000000C143000000000000C14300000F
:1051980000000000C143000000000000C1430000FF
:1051A80000000000C143000000000000C1430000EF
:1051B80000000000C143000000000000C1430000DF
:1051C80000000000C143000000000000C1430000CF
:1051D80000000000C143000000000000C1430000BF
:1051E80000000000C143000000000000C1430000AF
:1051F80000000000C143000000000000C14300009F
:1052080000000000C143000000000000C14300008E
:1052180000000000C143000000000000C14300007E
:1052280000000000C143000000000000C14300006E
:1052380000000000C143000000000000C14300005E
:1052480000000000C143000000000000C14300004E
:1052580000000000C143000000000000C14300003E
:1052680000000000C143000000000000C14300002E
:1052780000000000C143000000000000C14300001E
:1052880000000000C143000000000000C14300000E
:1052980000000000C143000000000000C1430000FE
:1052A80000000000C143000000000000C1430000EE
:1052B80000000000C143000000000000C1430000DE
:1052C80000000000C143000000000000C1430000CE
:1052D80000000000C143000000000000C1430000BE
:1052E80000000000C143000000000000C1430000AE
:1052F80000000000C143000000000000C14300009E
:1053080000000000C143000000000000C14300008D
:1053180000000000C143000000000000C14300007D
:1053280000000000C143000000000000C14300006D
:1053380000000000C143000000000000C14300005D
:1053480000000000C143000000000000C14300004D
:1053580000000000C143000000000000C14300003D
:1053680000000000C143000000000000C14300002D
:1053780000000000C143000000000000C14300001D
:1053880000000000C143000000000000C14300000D
:1053980000000000C143000000000000C1430000FD
:1053A80000000000C143000000000000C1430000ED
:1053B80000000000C143000000000000C1430000DD
:1053C80000000000C143000000000000C1430000CD
:1053D80000000000C143000000000000C1430000BD
:1053E80000000000C143000000000000C1430000AD
:1053F80000000000C143000000000000C14300009D
:1054080000000000C143000000000000C14300008C
:1054180000000000C143000000000000C14300007C
:1054280000000000C143000000000000C14300006C
:1054380000000000C143000000000000C14300005C
:1054480000000000C143000000000000C14300004C
:1054580000000000C143000000000000C14300003C
:1054680000000000C143000000000000C14300002C
:1054780000000000C143000000000000C14300001C
:1054880000000000C143000000000000C14300000C
:1054980000000000C143000000000000C1430000FC
:1054A80000000000C143000000000000C1430000EC
:1054B80000000000C143000000000000C1430000DC
:1054C80000000000C143000000000000C1430000CC
:1054D80000000000C143000000000000C1430000BC
:1054E80000000000C143000000000000C1430000AC
:1054F80000000000C143000000000000C14300009C
:1055080000000000C143000000000000C14300008B
:1055180000000000C143000000000000C14300007B
:1055280000000000C143000000000000C14300006B
:1055380000000000C143000000000000C14300005B
:1055480000000000C143000000000000C14300004B
:1055580000000000C143000000000000C14300003B
:1055680000000000C143000000000000C14300002B
:1055780000000000C143000000000000C14300001B
:1055880000000000C143000000000000C14300000B
:1055980000000000C143000000000000C1430000FB
:1055A80000000000C143000000000000C1430000EB
:1055B80000000000C143000000000000C1430000DB
:1055C80000000000C143000000000000C1430000CB
:1055D80000000000C143000000000000C1430000BB
:1055E80000000000C143000000000000C1430000AB
:1055F80000000000C143000000000000C14300009B
:1056080000000000C143000000000000C14300008A
:1056180000000000C143000000000000C14300007A
:1056280000000000C143000000000000C14300006A
:1056380000000000C143000000000000C14300005A
:1056480000000000C143000000000000C14300004A
:1056580000000000C143000000000000C14300003A
:1056680000000000C143000000000000C14300002A
:1056780000000000C143000000000000C14300001A
:1056880000000000C143000000000000C14300000A
:1056980000000000C143000000000000C1430000FA
:1056A80000000000C143000000000000C1430000EA
:1056B8006C5000002546000000000000C1430000B7
:1056C80000000000C143000000000000C1430000CA
:1056D80000000000C143000000000000C1430000BA
:1056E80000000000C143000000000000C1430000AA
:1056F80000000000C143000000000000C14300009A
:1057080000000000C143000000000000C143000089
:1057180000000000C143000000000000C143000079
:1057280000000000C143000000000000C143000069
:1057380000000000C143000000000000C143000059
:1057480000000000C143000000000000C143000049
:1057580000000000C14300001C010020FD450000BE
:1057680000000000C143000000000000C143000029
:1057780000000000C143000000000000C143000019
:1057880000000000C143000000000000C143000009
:1057980000000000C143000000000000C1430000F9
:1057A800E52F00003747000000000000C14300005B
:1057B80000000000C143000000000000C1430000D9
:1057C80000000000C143000000000000C1430000C9
:1057D80000000000C143000000000000C1430000B9
:1057E80000000000C143000000000000C1430000A9
:1057F80000000000C143000000000000C143000099
:1058080000000000C143000000000000C143000088
:1058180000000000C143000000000000C143000078
:1058280000000000C143000000000000C143000068
:1058380000000000C143000000000000C143000058
:1058480000000000C143000000000000C143000048
:1058580000000000C143000000000000C143000038
:1058680000000000C143000000000000C143000028
:1058780000000000C143000000000000C143000018
:1058880000000000C143000000000000C143000008
:1058980000000000C143000000000000C1430000F8
:1058A80000000000C1430000CB470000374700005C
:1058B80000000000C143000000000000C1430000D8
:1058C80000000000C143000000000000C1430000C8
:1058D80000000000C143000000000000C1430000B8
:1058E80000000000C1430000A4000020FD450000A6
:0858F80000000000C1430000A4
:10590000ED1C0000614500006D4500008145000070
:105910008B45000095450000091F0000A9450000C7
:045920000000000083
:105924005D1A0000CD440000334500000000000073
:0C5934006B4400000000000000000000B8
:0C5940003D460000A12100002F460000A1
:1059500000A0105000820D5000040550000000000F
:105960000338FDD870470000000000000000000070
:105970000338FDD870470000000000200000000040
:1059800006000100020000008C5900000000000029
:10599000935F000006000000E0CF17000000002029
:1059A0009B5F000021000000E0FF0320C119000000
:1059B00091190000000000000D1B00008D1A00006E
:1059C0005D4500005945000000A0105000820D50B8
:1059D000000405507F00000000A01050A40000202B
:1059E0000000000000000000FFFF010000820D50D9
:1059F0001C0100200000000001000000FF07000063
:105A0000000405500000000000000000020000003B
:105A100000A0105000820D500004055000600C5092
:105A20000000000000000000485A000000C2010011
:105A30000000D6010000000000000040000000004F
:105A4000600B00205F0B002000600C50545A0000D7
:105A5000010000005C5A0000040000002400000067
:105A600026000002250600012706000300A01050B2
:105A700000820D50000405500800000002000000E4
:105A80000400000001000000AC4F0000BC4F00000B
:105A9000EC4F0000F44F0000FC4F0000FC4F0000F2
:105AA00096006400460034000A3D3D2051312067D5
:105AB000656E657261746F7220286E524635344C83
:105AC000313529203D3D0A004649435220494E4682
:105AD0004F2E504152543D30782530387820414186
:105AE0003D307825303878206368333720314D20B9
:105AF00077686974656E3D6F66660A0047454E209B
:105B0000706169723D25752072756E675F75733DB2
:105B10002575206C656E413D2575206C656E423D96
:105B20002575206761705F67656E5F7469636B736D
:105B30003D25750A0047454E2D444F4E4520706166
:105B40006972733D2575206D69737365645F646563
:105B500061646C696E653D25750A0072302F613194
:105B60003A2020307825303878202072312F613269
:105B70003A2020307825303878202072322F613357
:105B80003A20203078253038780A0072332F61347B
:105B90003A2020307825303878207231322F6970E1
:105BA0003A2020307825303878207231342F6C72CA
:105BB0003A20203078253038780A002078707372C7
:105BC0003A20203078253038780A004661756C74A8
:105BD000696E6720696E737472756374696F6E2085
:105BE0006164647265737320287231352F70632984
:105BF0003A203078253038780A00556E68616E6436
:105C00006C6564204952516E3A2025640A002A2AA4
:105C10002A2A2A205553414745204641554C5420B5
:105C20002A2A2A2A2A0A0020204469766973696F81
:105C30006E206279207A65726F0A002020556E61AD
:105C40006C69676E6564206D656D6F727920616344
:105C5000636573730A002020537461636B206F7651
:105C60006572666C6F772028636F6E746578742038
:105C700061726561206E6F742076616C6964290AB7
:105C80000020204E6F20636F70726F636573736FB7
:105C90007220696E737472756374696F6E730A0033
:105CA0002020496C6C6567616C206C6F6164206FAB
:105CB00066204558435F52455455524E20696E74D4
:105CC0006F2050430A002020496C6C6567616C208E
:105CD000757365206F662074686520455053520ABD
:105CE000002020417474656D707420746F20657895
:105CF000656375746520756E646566696E6564209C
:105D0000696E737472756374696F6E0A002A2A2A49
:105D10002A2A20425553204641554C54202A2A2AEB
:105D20002A2A0A002020537461636B696E6720651C
:105D300072726F720A002020556E737461636B6912
:105D40006E67206572726F720A0020205072656360
:105D50006973652064617461206275732065727275
:105D60006F720A00202042464152204164647265ED
:105D700073733A20307825780A002020496D7072BC
:105D80006563697365206461746120627573206561
:105D900072726F720A002020496E73747275637498
:105DA000696F6E20627573206572726F720A0020CF
:105DB00020466C6F6174696E672D706F696E742018
:105DC0006C617A7920737461746520707265736593
:105DD00072766174696F6E206572726F720A002A42
:105DE0002A2A2A2A204D5055204641554C54202A13
:105DF0002A2A2A2A0A002020537461636B696E677D
:105E0000206572726F722028636F6E7465787420DB
:105E100061726561206D69676874206265206E6FCC
:105E2000742076616C6964290A00202044617461E1
:105E3000204163636573732056696F6C6174696F89
:105E40006E0A0020204D4D46415220416464726527
:105E500073733A20307825780A002020496E7374D5
:105E600072756374696F6E20416363657373205646
:105E7000696F6C6174696F6E0A0052657365727642
