:1000000080BE0020D10C0000CF360000BD0C0000E7
:10001000BD0C0000BD0C0000BD0C00000000000085
:10002000000000000000000000000000090D0000BA
:10003000BD0C000000000000E10E0000BD0C00003F
:10004000590F0000DD000000590F0000590F00009B
:10005000590F0000590F0000590F0000590F000000
:10006000590F0000590F0000590F0000590F0000F0
:10007000590F0000590F0000590F0000590F0000E0
:10008000590F0000590F0000590F0000590F0000D0
:10009000590F0000590F0000590F0000590F0000C0
:1000A000590F0000590F0000590F0000590F0000B0
:1000B000590F0000590F0000590F0000590F0000A0
:1000C000590F0000590F0000590F0000590F000090
:0C00D000590F0000590F0000590F0000EC
:1000DC00684620F007018D462DE9F947514B012266
:1000EC00DA64D3F84C55A3F5E043D3F804214AB1B4
:1000FC000022C3F804214C4B1B781BB14B4A1368EC
:10010C0001331360DFF82881D8F80C31B3B1464BBA
:10011C004FF0000EC8F80CE11B787BB1454A464EF7
:10012C00136801331360454B30681B68C31AB3F571
:10013C00006F17D3424A136801331360394B012205
:10014C00DA64D3F84C355B1BB3F1804F04D23D4AD3
:10015C0011688B4288BF136000F096FEBDE8F9472A
:10016C00854670472F4B384CDFF8E0A0D3F8447528
:10017C00D3F84825C0F30A0C142101FB0CF16318C9
:10018C006750BAF800105A6089B2198101F101095F
:10019C002F491FFA89F9AAF80090B1F80290A3F838
:1001AC000A9091F8049083F80E9091F801900978D8
:1001BC00A3F80C90D973D8F8481501F07F01494287
:1001CC001974D8F80014A2F5FA7201F00101D21BCF
:1001DC00597448F2DC239A4281BF1E4A13680133DA
:1001EC0013601D4A137894BF71460121DFF86CE04F
:1001FC0063B1DEF800309F4208D1DFF86480D8F894
:10020C000030013341F00201C8F800300123CEF870
:10021C0000701370142303FB0C4201309174306096
:10022C008CE700BF008000409AA4002088030020C7
:10023C000010004084030020940300209003002051
:10024C008C030020780300209803002098A4002041
:10025C0070020020800300209BA400207403002067
:10026C007C0300202DE9F04F94488BB003F048F943
:10027C004FF080539248D3F80011D3F8042103F0C7
:10028C003FF990484FF4006103F03AF94FF0804386
:10029C000022C3F8002101221A60D3F80021002AA1
:1002AC00FBD08948894D8A4FDFF828B2DFF828A2A5
:1002BC00DFF82882DFF8289203F022F90022114699
:1002CC00012000F049FD012000F02AFD854B8649F4
:1002DC0086480024012603225E60C3F80445C3F857
:1002EC000825C3F81045DE601E6003F5B8334FF0E7
:1002FC004062C3F8042542F2107300937C4A7D4B94
:10030C0003F0FEF80423C5F8FC6FC5F8103540F275
:10031C000123C5F85036784BC5F81435774BC5F822
:10032C001835774BC5F81C357123C5F8243540F2C8
:10033C000313C5F82C45C5F83065C5F83435714B39
:10034C00C5F83835704BC5F83C352523C5F8543500
:10035C000223C5F808356D4BC5F804353123C5F8B3
:10036C0000320A23C5F80C41C5F80441C5F8043322
:10037C00674B684A1C80684B14601C60674A684B6A
:10038C003C60CBF80040CAF800401460C8F800404C
:10039C00C9F800401C60634B63481C70634B42F20D
:1003AC0010711E706E6003F0ABF800214FF4A020AA
:1003BC0004F074F95D4B1C702E610021A42004F034
:1003CC006DF9544A15683A68DBF80030DBF8001018
:1003DC0040F2712041430A20B1FBF0F154480091E6
:1003EC00294603F08DF8D9F80010DFF830E1D8F881
:1003FC0000203E68D9F80030D8F800C0D8F80000CA
:10040C003F68DEF800E0DAF80080A3EB0C032F4421
:10041C00CDE90063C01B474E02902B46CDE903E8A3
:10042C00454803F06DF833462146AC4202D0B4F592
:10043C00006F12D12A46414803F062F8B5F5006FFF
:10044C0028BF4FF400650024AC420CD13C4803F0AB
:10045C0057F800200BB0BDE8F08F5A7C02B1013187
:10046C0001341433E1E73CB3306856F8103CC01A41
:10047C00D6E900730028B8BF0F300011B6F80CC0D5
:10048C00F27B31890890D81B48BF0F300011CDE9A1
:10049C0006300597B37C0493B37B03937389029363
:1004AC0096F910300193737C00932648634603F051
:1004BC0027F801341436C7E72046D9E7904B0000E3
:1004CC00B94B0000DA4B0000F74B00000010004065
:1004DC008C030020780300207C0300208403002080
:1004EC008803002000800040074C00000A4C0000EC
:1004FC00054C00002941767108010001FF00030042
:10050C00002941765B06000155555500700200200C
:10051C0098A4002094030020900300208003002066
:10052C00740300209BA400202E4C00009AA40020F1
:10053C00494C000098030020894C0000074D000036
:10054C00B74D00004A4D0000014B1B68184700BF17
:10055C0000000020014B1860704700BF0000002015
:10056C0030B5044685B00D4610220021684604F0D3
:10057C002CF902238DF802302A46044B01932146B4
:10058C00684602F009FD05B030BD00BF55050000FE
:10059C0080B505460E461746984602F0A1FA03466A
:1005AC0000F0E6FCDFF81890044649F800304246AB
:1005BC0030463946A84754F8090000F075FC00BFD6
:1005CC00080000002DE9F047058B04462807174664
:1005DC000CD501290CBF45F0100545F020052583ED
:1005EC0087F31188BFF36F8FBDE8F087022905F000
:1005FC00070540F09480204602F08FFF052864D850
:10060C0001A353F820F000BFED0500002B070000FC
:10061C00D706000099060000B3060000C5060000CE
:10062C0001F007035A1F012A1FD8002221F00701ED
:10063C00062BD4F8008089B2C4E9002209D14346C4
:10064C0003E0628B013262831B68002BF9D141F00D
:10065C0002012183204602F060FF4FF000090028C0
:10066C006DD041F02001218369E0042B0AD121F0E7
:10067C00070189B22183204602F04FFF10B141F0EF
:10068C00200121834FF00008C14658E02369D3F8BC
:10069C000090238B23F0070343F0060323834FF0D2
:1006AC00000846464BE02369D3F80490238B23F0D3
:1006BC00070343F00403F1E72369D3F80890238B75
:1006CC0023F0070343F00503E8E74FF00008C146A9
:1006DC00E7E7012243F00803238387F31188BFF374
:1006EC006F8F002A3BD1B8F1000F4AD1B9F1000F3E
:1006FC0002D02D492046C847EFF31187202383F3FE
:10070C001288BFF36F8F238B23F008039BB22383D4
:10071C00D9063FD523F01002228303F00705666942
:10072C00218B002EBFF67CAF0023D4F8008021F083
:10073C000701C4E9003341F0010121839946238B61
:10074C0003F0070AAA4502D0A268002AC1D1B8F169
:10075C00000F02D1B9F1000FDAD00022BAE7A1687C
:10076C000029C0D00D680029BDD04F6833465246D1
:10077C002046B8471DB12B6829461D46F3E72B468A
:10078C00FAE74146334652462046D8F8008002F03C
:10079C00F0FEA8E79A067FF523AF23F02002228310
:1007AC0003F0070527E700BFAB350000014B0360E2
:1007BC0000207047D84A000008B50348034A0021BE
:1007CC00121A02F076FF08BDA0000020A4A400209D
:1007DC000748084A084908B5121A02F06CFF074886
:1007EC00074A0849BDE80840121A02F064BF00BF6E
:1007FC0000000020A00000205C520000000000203F
:10080C00000000205C52000038B505460C4699B13A
:10081C00D1E901230F48096802F072FED4E90423E0
:10082C00E1680D4802F06CFEE1690C4802F068FECC
:10083C00A1690B4802F064FE012D05D1EFF305818F
:10084C000848103902F05CFE21462846BDE83840C5
:10085C0001F0A6BDC04D0000F04D0000204E000080
:10086C00304E00005F4E000030BFFFF7FDBF00BFF1
:10087C002DE9F0410B4EDFF8308006EB0807CC1B5E
:10088C00054632460949204603F091FFA01942461D
:10089C000021083C03F099FF2C6707F10800BDE824
:1008AC00F08100BF0000000004000000C44A0000FA
:1008BC002DE9F843324D804632488946174602F0FE
:1008CC001FFEAB6ADE0622D52F4802F019FE11245A
:1008DC00AB6A1D0703D52D4802F012FE1224284DD9
:1008EC00AB6A980715D52A4802F00AFE6E6BAB6A04
:1008FC00190642D52748314602F002FEB9F1000F25
:10090C0003D0AB6A23F08003AB62132403E0102402
:10091C00DEE76FF015061A4DAB6ADA0703D51E48F1
:10092C0002F0EEFD1424AB6A9B0603D51B4802F0C3
:10093C00E7FD1524124B9A6AD50602D49A6A9007E1
:10094C000AD55B68190507D54146304600F062FAB6
:10095C0010B180F309880224094B9A6A920642BFAF
:10096C005A6A22F400525A629A6A42F0FF029A6260
:10097C0000233B702046BDE8F8836FF01506C4E7F2
:10098C0000ED00E0734E00008A4E0000BE4E0000E9
:10099C00D24E0000EB4E0000024F0000224F000030
:1009AC0010B51D4C1D4802F0ABFDA36A990130D562
:1009BC001B4802F0A5FD1E20A36ADA0103D51948D5
:1009CC0002F09EFD1F20144CA36A1B0303D516488E
:1009DC0002F096FD2120A36A590303D5134802F0B7
:1009EC008FFD22200C4CA36A9A0303D5104802F009
:1009FC0087FD2320A36ADB0303D50E4802F080FD9C
:100A0C002420054A936A6FEA03436FEA1343936207
:100A1C0010BD1D20D0E700BF00ED00E0524F0000DC
:100A2C006B4F00007F4F00009A4F0000B94F000041
:100A3C00DF4F0000FA4F000070B5244C06462448E6
:100A4C000D4602F05DFDA36AD90435D5214802F0AC
:100A5C0057FD1720A36A1A0503D51F4802F050FD55
:100A6C0018201A4CA36A9B050FD51C4802F048FDB0
:100A7C00A16BA36A180407D5194802F041FD1EB1F9
:100A8C00A36A23F40043A3621920104CA36A5905EE
:100A9C0003D5144802F034FD1A20A36ADA050DD5EB
:100AAC00114802F02DFD1B20084A936A43F47F4342
:100ABC00936200232B7070BD1620CBE7A36A9B04B6
:100ACC00F2D50A4802F01CFD1C20EDE700ED00E019
:100ADC00265000003D500000BE4E00004F5000005C
:100AEC00695000007F5000009B500000224F000016
:100AFC002DE9F0415D4B5F688AB00446C7F30806E8
:100B0C00002585F31188BFF36F8F02F07F43B3F19B
:100B1C007F4F06D102F00C03082B13D1544802F07E
:100B2C00EFFC00252C464FF00008F31E8DF80780D3
:100B3C00092B00F28C80DFE803F00A80847C8A8A1F
:100B4C008A8A8A8810074CBF0C460125EBE7494876
:100B5C00464E02F0D5FC8DF80780F36A9A0704D54F
:100B6C00454802F0CDFC00232AE0F36A002B01DAA1
:100B7C004248F6E7F36A5B00F5D5414802F0C0FC49
:100B8C007369A26943F480737361BFF34F8FBFF332
:100B9C006F8F32F8023C726922F480727261BFF37B
:100BAC004F8FBFF36F8F03F47F42B2F55F4F27D1A6
:100BBC00DBB2022B24D12168324802F0A1FC23685D
:100BCC009DF80720CAB902AE04F1200720686168BD
:100BDC00324603C20834BC421646F7D1099A002D9E
:100BEC0041D0C2F3080121B96FEA52226FEA4222C6
:100BFC00099202A91846FFF707FE0AB0BDE8F0817A
:100C0C001A4B9A6AD2B232B10DF107020121204679
:100C1C00FFF74EFE0FE09A6A12F47F4F05D00DF1EC
:100C2C0007010120FFF708FF05E09B6AB3F5803F41
:100C3C0099D3FFF7B5FE0346C2E70DF10702002179
:100C4C00E5E70DF107010020ECE70F4889E70F4BB2
:100C5C000F49104817F4F87FA6F1100208BF194687
:100C6C0002F04EFC7FE76FF30802C1E700ED00E0F5
:100C7C00E25000000E5100002651000048510000C7
:100C8C00575100007751000094510000B4500000FF
:100C9C00C9500000B9510000044B5A6942F01002CF
:100CAC005A615A6922F008025A61704700ED00E05F
:100CBC00EFF30880EFF3098101B57246FFF718FFD7
:100CCC0001BD00BF0B4880F3088801F083F8202099
:100CDC0080F3118808484FF40461401880F30988A8
:100CEC00EFF314800221084380F31488BFF36F8F55
:100CFC0000F058F880BE0020C0A400201EF0040FA5
:100D0C000CBFEFF30880EFF30980816911F8021C26
:100D1C000229FFD001B5724602F0CFFC01BD00BF25
:100D2C0040B2002807DB044A4109012300F01F00F0
:100D3C00834042F82130704700E100E0054B420946
:100D4C0000F01F0053F82220012303FA00F010409A
:100D5C00704700BF00E100E040B20028A8BF00F1DE
:100D6C00604001F10101B8BF064B4FEA4111ACBF25
:100D7C0000F5614000F00F00C9B2B4BF195480F8FF
:100D8C000013704714ED00E0044B054A23F07F0379
:100D9C009360BFF34F8FBFF36F8F7047000000005D
:100DAC0000ED00E008B5FFF7EFFF0B4AD2F88830F2
:100DBC0023F47003C2F88830EFF3148323F0040398
:100DCC0083F31488BFF36F8FFFF7F6FCFFF700FD7A
:100DDC0000F0B0F801F0ACFB00ED00E042F8203C74
:100DEC00009B42F81C3C0A49019B42F8183C029BB0
:100DFC0042F8143C21F001014FF0807342F8043C9E
:100E0C0042F8081C0023203A02654367704700BF74
:100E1C009D050000094A0346906870B113F1160F46
:100E2C00006E05D0A0F14002934205D3834203D259
:100E3C00814228BF00207047002070476CA400201E
:100E4C0008B515460B4A0C4B9060026F1A600E46A3
:100E5C0000F0A0F82C4686F309880020034B984735
:100E6C002046002100220023014C2047EB360000D5
:100E7C009D0500006CA4002098A30020014B1022BB
:100E8C001A61704700ED00E0054B5A699B689A4265
:100E9C001FBF044A536843F080535360704700BF30
:100EAC006CA4002000ED00E0084B9B6883420BD142
:100EBC00EFF3058343B1064B5A6842F080525A60F7
:100ECC005A6A22F400425A6201F010BE6CA400204F
:100EDC0000ED00E014498A684FF030001044EFF345
:100EEC00098C80E8F01F202080F31288BFF36F8FED
:100EFC000E4F4FF000664A698A603E60106F0C4CD2
:100F0C002060506F0023536780F3118804B510469E
:100F1C0000F040F8BDE8044002F1300090E8F01F0A
:100F2C008CF30988704700006CA4002004ED00E0ED
:100F3C0098A30020044800232021C2180133272B3A
:100F4C0082F80013F9D1704700E100E008B5EFF327
:100F5C000583064A103B02EBC30152F83300496883
:100F6C008847BDE80840FFF78FBF00BF404900002D
:100F7C00014800687047000098A30020024B034A08
:100F8C000348012100F076B8000001200000002089
:100F9C00D84A0000036E054A403B1360044B4021C5
:100FAC00C2E901131046012100F06EB89CA3002089
:100FBC0000000B15084AC2F898000B6823F01F03B9
:100FCC00034343F01003C2F89C308B6843F00103D9
:100FDC00C2F8A030704700BF00ED00E02DE9F043EF
:100FEC00DFF8608085B00E461F4604464FF00009BE
:100FFC00B14523DA6068D8B13FB1411E08421BD11C
:10100C001F2819D92368194216D12368019302F0BD
:10101C0089FBA36803430393D8F89050C5F30725C5
:10102C00D0B2013DA84207D801A9FFF7C3FF421C6B
:10103C0009F101090C34DBE76FF01502104605B01D
:10104C00BDE8F08300ED00E0044B0522C3F89420CA
:10105C00BFF34F8FBFF36F8F704700BF00ED00E001
:10106C00BFF35F8F024B0022C3F89420704700BF80
:10107C0000ED00E010B5034C01232278FFF7AEFF22
:10108C00207010BD9CA4002008B50B4A00231278D8
:10109C00FFF7A4FF10F1160F07D0084A0021D2F871
:1010AC009030C3F30723984200DB08BDC2F89800C8
:1010BC00C2F8A0100130F2E79CA4002000ED00E083
:1010CC002DE9F0435A4B5B4DD3F890302C68C3F3A9
:1010DC0007239C4285B000F2A780FFF7C1FF0020D8
:1010EC000C2684421AD1544EDFF844913470684671
:1010FC00FFF75CFB514C524D80460027B84514D18C
:10110C0033784B490020D1F89020C2F30722934248
:10111C00C0F28480FFF798FF002045E0696806FB69
:10112C000011FFF747FF0130DBE7009800EB0711D8
:10113C004FEA071CCB682340B3F5000F4DD00AD8FB
:10114C00B3F5001F33D0B3F5800F3BD0B3F5801F40
:10115C0013D00137D2E7B3F1007F47D0B3F1805FF2
:10116C004DD0B3F1807FF4D150F80C3088684A68C8
:10117C0002F0D8FA40F0887009E050F80C3088681A
:10118C004A6802F0CFFA40F0885040F43020CDE9A4
:10119C0001230390D9F890303078C3F30723013B37
:1011AC00984234D96FF0150005B0BDE8F08350F8C3
:1011BC000C3088684A6802F0B5FA40F0885040F468
:1011CC000020E4E750F80C3088684A6802F0AAFA6C
:1011DC0040F0C06040F40030D9E750F80C3088681B
:1011EC004A6802F09FFA40F08270D0E750F80C3059
:1011FC0088684A6802F096FA40F48020C7E750F8F5
:10120C000C3088684A6802F08DFA2843BFE701A9C0
:10121C00FFF7D0FE3378013333709AE7C1F898307A
:10122C00C1F8A00001336EE74FF0FF30BCE700BF00
:10123C0000ED00E0E44A00009CA400200000F0FF58
:10124C000000021108B5024B1B689847002008BD2E
:10125C00A8A30020034B044A1860937843F00203C0
:10126C0093707047A8A300200400002008B506491D
:10127C00064821F00701C1F1005202F5803202F05C
:10128C00FCF8002008BD00BFC7BE0020ACA30020A6
:10129C00044A0123C2F840354FF080420020C2F8C6
:1012AC007835704700E0014048B1054B054A1B6892
:1012BC00B3FBF2F35843044B43F001031847704758
:1012CC008400002040420F00D04A000008B5054AB7
:1012DC00054B136010463F23536000F0A5FE002021
:1012EC0008BD00BFB8A30020FFFF0F00084B70B56E
:1012FC00C31A0D4607499B10044659430648402221
:10130C0002F02EFA2B4601462046BDE870401847E5
:10131C00D4A30020B76DDBB6EC48000073B50C4CC1
:10132C000C4A4023041B00930D460B460A49A4109B
:10133C0061430646094802F03EFA014628B13046A0
:10134C002B4602B0BDE87040184702B070BD00BF1C
:10135C00D4A3002031380000B76DDBB6EC48000098
:10136C000022F8B5012105461046FFF7F5FC1048A0
:10137C0000F082FE0446B8B900F09EFE2F690D49BC
:10138C00384602F019F9031E09DB01263E642D696B
:10139C00084905F11C0002F00FF9031E02DA1C4685
:1013AC002046F8BDEE64FBE76FF00404F8E700BFDD
:1013BC000D150000044B00001FB500220123CDE9E0
:1013CC0002236C46074A6B46CDE9004402F023FA2F
:1013DC0028B94FF480420023684601F043F904B069
:1013EC0010BD00BF4338000010B5064C23782BB954
:1013FC004FF4A57003F0A1F801232370BDE8104051
:10140C0000F0F2BE9DA4002010B5EFF31184202350
:10141C0083F31288BFF36F8F074A136823F002011E
:10142C00DB07116002D4012002F0EEFC84F311887A
:10143C00BFF36F8F10BD00BF24A4002030B4104B3D
:10144C000C2202FB003301460020D3E90E529863B4
:10145C00EFF31180202484F31288BFF36F8F1C6C80
:10146C0004F0C00444F002041C6480F31188BFF340
:10147C006F8F1DB12B46034830BC184730BC7047EA
:10148C00D4A30020EC48000010B4EFF3118020220C
:10149C0082F31288BFF36F8F17490B6843F0020475
:1014AC0013F001030C601AD04FF08043D3F80C14E6
:1014BC00D3F80C3413F0010311D0EFF3118182F344
:1014CC001288BFF36F8F0D4A136C03F0C00343F007
:1014DC000203136481F31188BFF36F8F012380F330
:1014EC001188BFF36F8F1BB110BC0020FFF7A6BF94
:1014FC0010BC012002F080BC24A40020D4A3002046
:10150C0010B1012804D07047034B1B6C5B0701D151
:10151C00FFF794BF704700BFD4A300202DE9F04122
:10152C003849BFF35B8F8046012251E8003F41E808
:10153C0000200028F9D1BFF35B8F33B9324933480F
:10154C004B60CB608A6002F04AF808F1FF33012B44
:10155C004BD8B8F1010F07D14FF08043D3F81C34AE
:10156C0003F00303012B40D003F024F8054658B1D7
:10157C00EFF31186202383F31288BFF36F8F0125BD
:10158C00234F4FF080441EE0224B1B78002BEFD0F2
:10159C004FF080430222C3F808230646F0E735B328
:1015AC00304602F0B0F8D4F8183563B9D4F80421F9
:1015BC004AB1C4F80431D4F804310123C4F8183505
:1015CC00C7F88031A360D4F81824D4F81834D203A7
:1015DC00E5D503F00303012B02D0B8F1010FDED1E6
:1015EC0055B186F31188BFF36F8FBDE8F0810021F0
:1015FC00212003F053F8D6E74FF080430222C3F8C2
:10160C000423F2E7D0A30020C0A30020F0A3002005
:10161C0000E100E0A0A4002008B5074802F0A9FFF3
:10162C0038B10648FFF716FE0448FEF793FF00207A
:10163C0008BD6FF01200FBE7244900004D160000B6
:10164C000A2838B5074D044604D1AB680D215B68F8
:10165C0028469847AB6803485B68E1B29847204638
:10166C0038BD00BF2449000038B5430906D10A4BE8
:10167C00596819B101250C68854001B938BD8A68D3
:10168C002A4002D04B68054898471CB12368214674
:10169C001C46F2E72346FAE728A40020084900007C
:1016AC0038B54568A86890B102F03FFE014670B9A4
:1016BC00A86802F01EFE044658B902460649A868FE
:1016CC0002F008FE224605210620FFF745FB00200C
:1016DC0038BD6FF00400FBE7751600002DE9F047EC
:1016EC00DFF864E1594D00EB810140F2FF1C8142AF
:1016FC0002D10020BDE8F0870468C4F3C72616F0B9
:10170C000806C4F3C327C4F3080340F08980240EF1
:10171C001EF80770634508BF4FF0FF33192C00F219
:10172C008280DFE804F00D1C2230252C3080808074
:10173C008033398080808080808080803C46494C1A
:10174C00C2F80C355C1C32D05C0973D101244FF00B
:10175C00A04804FA03F9C8F80895A04640E0C2F87E
:10176C0014355C1C23D00024F7E7C2F80835E9E7F0
:10177C00C2F808350024B3F1FF3F18D025E0C2F8B9
:10178C000C350124F7E7C2F81035EAE7C2F8083542
:10179C00002FE6D10627E4E7C2F80C35F8E7C2F8CB
:1017AC0060354488B3F1FF3F04F001040AD10430E2
:1017BC009DE7C2F86435F4E7C2F86835F1E7C2F882
:1017CC006C35EEE7002CBFD101245FEA53182DD104
:1017DC004FF001084FF0A04908FA03FAC9F80CA51C
:1017EC00D0F8009009F4004ABAF1000F0CBF46463D
:1017FC00012403F01F085B0920D14FEA880808F187
:10180C00A048C9F34129D8F800372B4043EA890393
:10181C0043EA0723334343EA4403C8F80037C6E7D7
:10182C006FF0150066E76FF0850063E70023C3F8DF
:10183C000C35FFDE0023C3F80835FAE708F5E0782D
:10184C00002353F82830F4E753520000F0F8FCFF63
:10185C002DE9F041044647680D4602F0ABFE88B115
:10186C004FF02008EFF31186314688F31288BFF34E
:10187C006F8F606802F09BF950BB86F31188BFF341
:10188C006F8FEFE71F4B1B78002BE9D04FF0200830
:10189C006426606802F08BF970B9012002F05BFAE3
:1018AC00013EF6D10021212002F0F8FEF0E786F38C
:1018BC001188BFF36F8FF5E7EFF31186314688F38C
:1018CC001288BFF36F8F606802F071F90028EED0B8
:1018DC00BB691D706368BA691B680020C3F8442596
:1018EC000122C3F84825C3F82001D3F82041C3F8DE
:1018FC005801D3F858019A6081F31188BFF36F8FA8
:10190C00BDE8F081A0A4002070B5012383400F4AEC
:10191C00BFF35B8FDC4352E8001F01EA040542E889
:10192C000056002EF7D1BFF35B8F4FF4803282400C
:10193C000748C0F80823BFF35F8FBFF36F8F03EA2C
:10194C000100003818BF012070BD00BF48A4002062
:10195C000010014070B41249D1E90034D01AC318F8
:10196C0044F10004C2F30E06C1E90034A6F580531D
:10197C00B3F5C04F09D20B4B1B685A0CDB039C19F7
:10198C00094B42F10005C3E90045EFF31181202317
:10199C0083F31288BFF36F8F70BC01F083BA00BF62
:1019AC00C00000204CA40020C800002011B3BFF3DD
:1019BC005B8F0123104A834052E800CF4CEA030CA2
:1019CC0042E800C10029F7D1BFF35B8F0B4A4FF4FB
:1019DC0080338340C2F80433094BBFF35B8F1B6821
:1019EC00BFF35B8FC340DB0742BF064B4FF40032A3
:1019FC00C3F80021704700BF48A40020001001402C
:101A0C0040A4002000E100E030B5144B1868410CF4
:101A1C00C003BFF35F8F124BD3F8043547F6FF7248
:101A2C0093420AD10F4AD2E90045844275EB010278
:101A3C0009D3C01841F1000130BD181841F1000163
:101A4C00B3F5006FF8D2074BD3E90023904271EB4A
:101A5C000303F1D210F50040ECE700BF4CA40020CA
:101A6C0000100140C80000202DE9F04F85B016464B
:101A7C001F469DF840A00446FFF746FF0190FFF774
:101A8C00C3FFB04271EB070361D2301A44F2010379
:101A9C0067EB0101984271F1000109D36FF0150554
:101AAC0020460199FFF782FF284605B0BDE8F08F6C
:101ABC00354B03EB0413D3E902239F4208BF964234
:101ACC0056D032494FF4803804F1500508FA04F826
:101ADC00AD002046C1F84883ADB202F00EF9C6F352
:101AEC000E0B05F1804504F5A87305F588355846AD
:101AFC004FF003090293C0F30E030BB90120034608
:101B0C00029A41F82230C1F84483D1F80435C01A46
:101B1C000338C0F30E0043F6FD7C604528D92868D5
:101B2C0068B1D1F804350393A3EB0B00C0F30E009E
:101B3C00B0F5804F1CD9204602F0DFF8039BBAF1B8
:101B4C00000FABD109EB030009F10109D3E7BAF19E
:101B5C00000FA3D101230E4ABFF35B8FA34052E8C1
:101B6C00000F184342E800010029F8D1BFF35B8F46
:101B7C0005490E98230101EB0412C8500F9B5360CA
:101B8C00C2E9026700258BE7A0000020001001408D
:101B9C0040A4002070B5294C294B2A4A86B0C4F8C1
:101BAC000833C4F84833284B00254FF0FF304FF072
:101BBC00FF314FF48036C4F80855C3E90201C4F86C
:101BCC000463C3E906014FF400330121C4F8043364
:101BDC001120C2F880312A46FFF7BEF81120FFF71A
:101BEC009FF81A4B01200322A06020601A60184B4A
:101BFC00009343F6FF720023CDE90155FFF734FF44
:101C0C000220FFF78BFC134A13491368134823F087
:101C1C000103136047F6FF73C4F844630DF1170218
:101C2C00C4F8403502F0D4F8002804DB9DF8170006
:101C3C0000F00EFA284606B070BD00BF001001403F
:101C4C0001000F0000E100E0A000002048A40020EB
:101C5C006119000044A4002008100140401101400B
:101C6C002DE9F743354CD4F80433D90318D5402368
:101C7C000022990810290BD1D4F8403133B100233C
:101C8C00C4F84031D4F840314FF480324423F0E7AB
:101C9C000433502BEDD11AB1294A13680133136068
:101CAC00D4F804339A0343D5BFF35B8F254B53E829
:101CBC00002F22F0020143E800100028F7D1BFF3F7
:101CCC005B8F930702D4D4F844318BB30025C4F84E
:101CDC004451D4F84431FFF797FEEFF311822023DF
:101CEC0083F31288BFF36F8F174BD3E90667B042AB
:101CFC00B94120D34FF0FF304FF0FF31C3E906015B
:101D0C00D3E904981D614FF40033C4F84833C4F888
:101D1C004451D4F8443182F31188BFF36F8FB9F179
:101D2C00000F05D0CDF8008032463B460120C84755
:101D3C0003B0BDE8F083A946EDE700BF00100140F9
:101D4C004CA4002040A40020A000002030B5431C6F
:101D5C0085B043F6FF7223D09042A8BF10460128ED
:101D6C000446B8BF0124FFF74FFE0F4BD3E9001315
:101D7C00401AB0F5804F43F6FF7513D22218AA42D1
:101D8C0028BF2A4652184FF0000008490091CDE9AF
:101D9C00010043F100030120FFF766FE05B030BDE2
:101DAC001446E0E72A46EDE7C00000206119000068
:101DBC0008B5FFF729FE024B1B68C01A08BD00BF0F
:101DCC00C0000020024AD2F80034002BFBD0704730
:101DDC0000E0014010B501F09CFF40B14FF0805382
:101DEC00884AD3F82433C3F30423C2F8403501F0F6
:101DFC009EFF10B1844B854A5A6701F08AFF48B1A7
:101E0C004FF080534FF08042D3F84432C3F3423347
:101E1C00C2F83C3501F08BFF30B17D4AD2F8FC3072
:101E2C0023F08073C2F8FC3001F073FF40B14FF027
:101E3C0080430022C3F80C21C3F81021C3F83825C5
:101E4C0001F075FF20B14FF080430322C3F8A025A9
:101E5C0001F06DFF60B16F4B0522C3F81026012213
:101E6C00C3F888260022C3F818263F22C3F814268C
:101E7C004FF08053D3F83021511C09BF4FF0704301
:101E8C00D3F8343193F8E02FD3F8E83F08BFC3F30D
:101E9C000313062A49D1033B012B46D94FF080523C
:101EAC005D4BD2F80414C3F82015D2F80814C3F80B
:101EBC002415D2F80C14C3F82815D2F81014C3F852
:101ECC002C15D2F81414C3F83015D2F81814C3F822
:101EDC003415D2F81C14C3F84015D2F82014C3F8EA
:101EEC004415D2F82414C3F84815D2F82814C3F8B2
:101EFC004C15D2F82C14C3F85015D2F83014C3F882
:101F0C005415D2F83414C3F86015D2F83814C3F849
:101F1C006415D2F83C14C3F86815D2F84014C3F811
:101F2C006C15D2F84424C3F8702501F0F2FE48B1C8
:101F3C004FF080534FF08042D3F8583203F04F03E8
:101F4C00C2F8E43E01F0E5FE48B14FF08043D3F80F
:101F5C000024D20744BF6FF00102C3F800244FF0F5
:101F6C008053D3F83021062A0BD1D3F83431033BFC
:101F7C00022B81BF294AD2F83C3743F48063C2F864
:101F8C003C374FF08053D3F83021062A0CD1D3F8CC
:101F9C003431033B032B81BF4FF01023D3F80822BD
:101FAC004FF08043C3F858254FF01023D3F800228C
:101FBC00002A03DBD3F80432002B22DA1849012360
:101FCC004FF01020C1F804351524FFF7FBFEC0F8C4
:101FDC000042FFF7F7FEC0F80442FFF7F3FE0023C0
:101FEC00C1F80435FFF7EEFEBFF34F8F08490D4BD8
:101FFC00CA6802F4E0621343CB60BFF34F8F00BF9B
:10200C00FDE710BD0030014000C007400DF0ADBA37
:10201C0000ED00E00050004000C000400010004007
:10202C0000E001400400FA05014B1860704700BF46
:10203C0050A4002010B5054B1868144601F08DFE15
:10204C000028A4BF2070002010BD00BF50A40020A9
:10205C00024A01238340C2F80435704700F0014066
:10206C00014B00201B68184754A40020014B1B682F
:10207C00184700BF54A4002010B50C4C237993B919
:10208C00012323710A4B2060002818BF184600F06A
:10209C0049F850B923680748002BBDE8104008BF29
:1020AC00184600F08FB86FF0770010BD54A40020D4
:1020BC006D2000007920000008B5064B1B683BB171
:1020CC000020FEF73BFE18B9BDE80840FEF728BE1D
:1020DC0008BD00BF54A4002038B54FF08044012344
:1020EC00C4F8083363600023C4F80031D4F800311D
:1020FC0042F21075D4F80C24D4F80C34D20307D562
:10210C00DB0705D5012001F026FE013DF2D138BDDB
:10211C0001F089FE0028FAD0014B00225A71F6E733
:10212C005CA4002038B5084C25794DB901232060FA
:10213C00237101F078FE08B9002038BD6571FBE70A
:10214C006FF07700F9E700BF5CA400204FF08043EC
:10215C000022C3F80021D3F80021094901221A609A
:10216C00096811B1C3F804237047D3F80021002A81
:10217C00FBD00022C3F80021D3F80031704700BF18
:10218C005CA4002010B54FF08043D3F80423D20791
:10219C0015D5D3F8002192B10022C3F800210124F7
:1021AC00D3F80021C3F8084301F03DFE044B10B1F5
:1021BC005A7922B95C71BDE810401B68184710BDF4
:1021CC005CA40020074A137943B9012110601171F6
:1021DC004FF080421846C2F8183570476FF0770000
:1021EC00704700BF64A4002010B54FF080432B4C07
:1021FC00D3F81814D3F8182411F4803F35D002F01A
:10220C000303012B01D06BBB00234FF08042C2F8BB
:10221C0018350023C2F80431D2F804314FF0805342
:10222C00D3F83021511C09BF4FF07043D3F834312F
:10223C0093F8E02FD3F8E83F08BFC3F30313062A43
:10224C0005D1033B012B02D98A2001F084FD4FF00C
:10225C00804301229A6022688AB9D3F80421002AAB
:10226C00FBD014E001F0FCFDCEE7D3F81424D20728
:10227C00CAD5D3F81C249007F4D422681AB10222D0
:10228C00C3F8042310BDD3F80421002AFBD000228C
:10229C00C3F80421D3F80431F4E700BF64A4002090
:1022AC00F8B54FF08043194FD3F80443012504F0DF
:1022BC001A04002604B9F8BDB4FA84F0C0F11F006A
:1022CC00830003F580739BB203F1804305FA00F29F
:1022DC001968D2B224EA02040029EBD01E601B68F4
:1022EC004FF08043022AC3F808230BD1D3F81814FB
:1022FC00D3F81814890705D1C3F81855C3F804236B
:10230C009D60D7E73B68C0B29847D3E764A4002030
:10231C0073B5CEB200EB46060446B38ADB070D4616
:10232C0027D501F0B8FEB38A9A0608D55A0B236854
:10233C0003EB82030022C3F81025C3F810252046B6
:10234C002946002401F045FEB48201A8019501F054
:10235C00BDFD019A084B02F5E07250F822100B40BB
:10236C004FF0A04143F0020341F82230204602B066
:10237C0070BD6FF01500FAE7F0F8FCFF014801F0B2
:10238C000ABD00BF8800002010B504480C4601F0BF
:10239C00E4FC0028A4BF2070002010BD88000020A1
:1023AC0038B5EFF31185202383F31288BFF36F8FB9
:1023BC00064B9C6802F0F0F885F31188BFF36F8F21
:1023CC002046BDE83840FEF76FBD00BF6CA400206E
:1023DC0038B50A4B53F82040013053F82050A54231
:1023EC0000D838BD606830B1037EDB0701D402F041
:1023FC00A8F80834F3E723689847FAE7784B00000D
:10240C0070B52A4B2A4C2B4D86B0012203201A7032
:10241C00FFF7DEFF00F0BAFD0420FFF7D9FF2646D8
:10242C00AE4204F130040FD300F096FA204CAC42CB
:10243C0026D300F0A5FAFDF715FF1F4A938923F068
:10244C000103938106B070BD54F80C3C059354F80D
:10245C00103C049354F8143C039354F8183C029326
:10246C0054F81C3C019354F8203C009354E90A2383
:10247C0054E90C0100F01CF954F8303C5E65CEE7D1
:10248C00D4E90A23B3F1FF3F08BFB2F1FF3F05D0F7
:10249C0052EA0301206803D102F019F93034C6E77F
:1024AC000649183000F06EFCF8E700BFA0A400202D
:1024BC00784A0000784A0000500100208346000052
:1024CC0070B5002386B00122CDE90423134E144DC0
:1024DC0001930F22CDE902321249142303FB00555C
:1024EC0006EBC01604464FF4C07000FB04110E4BF3
:1024FC0000954FF4A072304600F0DAF8337C0B4AAA
:10250C00EE6023F0040333744FF4046304FB0333D1
:10251C0013442C746B6006B070BD00BFD00000205B
:10252C006CA4002000AD0020AB450000C0A400202E
:10253C007FB50020FFF74CFF284B83F30888284C0D
:10254C00636943F4007363610025E02384F822304F
:10255C00E57725766576A57684F82050636A43F492
:10256C00E023636284F82350FEF796FBFEF786FCAB
:10257C004FF0FF33A362E362FEF7A2FDFEF7FEFC11
:10258C001848194C00F0E0F80120FFF721FF022059
:10259C00FFF71EFF00F01EFA144B15495C61154B3A
:1025AC00059301234FF48052CDE90353CDE9015536
:1025BC00114B0095204600F07BF8237C064623F057
:1025CC0004032046237402F033F82846FFF778FF03
:1025DC00094A31462046FEF733FC00BF00AD00200F
:1025EC0000ED00E0D0010020500100206CA4002080
:1025FC0080AE0020075200000D24000070B5EFF3F0
:10260C001186202383F31288BFF36F8F0468A042D6
:10261C001AD0CCB1D4E9003213605A60237C002567
:10262C0023F002032374C4E90055A56004F11800DB
:10263C0002F084F82046A56701F0FAFF31460848FD
:10264C00BDE8704002F027B8D0E902329A4218BFB8
:10265C000133836086F31188BFF36F8F70BD00BFA9
:10266C00A1A4002013B5EFF31181202484F3128868
:10267C00BFF36F8F846844B1013C846081F311888F
:10268C00BFF36F8F002002B010BD52EA030406D1D5
:10269C0081F31188BFF36F8F6FF00F00F3E7CDE973
:1026AC0000230246014800F035F9ECE7A1A4002014
:1026BC002DE9F043073285B022F007020E461F4683
:1026CC001099818100F158037F32C0E9163304461A
:1026DC00002322F03F020421836001743F2A0F98EB
:1026EC00A073C4E90633E37306F14009A2F1400874
:1026FC0005D883F31188BFF36F8F084602DFB51836
:10270C0029462046FEF7B4F807300E9B20F0070050
:10271C00A066C4E9189802930D9B01932D1A0C9B8B
:10272C0000932A463B4631462046FEF757FB0023D2
:10273C006365044B9B6803B1DB6EE366284605B00A
:10274C00BDE8F0836CA40020012303748381002373
:10275C00C0E91833C366014B986070476CA4002025
:10276C00094A93686FF00A019967084958674B68E2
:10277C0043F080534B60002383F31188BFF36F8FBA
:10278C009368986F704700BF6CA4002000ED00E0C8
:10279C0070B590F91020037C002A2FDBD9062DD1BF
:1027AC001A4C63F07F032246037452F8183FE16918
:1027BC00934207D1C0E900210860E0610FE0994223
:1027CC00F8D01B68002BF5D093F90E6090F90E50E1
:1027DC00AE42F4DD5968C0E9003108605860A56963
:1027EC00954200D005B9E568A3681A7CD20606D1DB
:1027FC00DA897F2A03D9AA690AB9636170BDAB4231
:10280C0002D0284600F040FA6561F7E76CA400207E
:10281C0038B590F91020037C002A014604DA03F045
:10282C007F03037401F0CCFE0D4D2A46AB6852F8C1
:10283C00184F944200D004B9EC688B4207D01A7C34
:10284C00D20604D1DA897F2A01D9A2692AB1A3421E
:10285C0002D0204600F018FA23466B6138BD00BF49
:10286C006CA40020B3F1FF3F08BFB2F1FF3F03D0CF
:10287C000249183000F086BA704700BF834600004A
:10288C00034648B9EFF3058232B9064A516992689A
:10289C00914201D0FFF764BF83F31188BFF36F8FB0
:1028AC00704700BF6CA4002038B5184CA168E069D3
:1028BC000B68814214BF1A46002249680B605960AC
:1028CC00A368E1692AB9124AC3E900210B60E361EC
:1028DC000AE092F90E5093F90E00854212DD516810
:1028EC00C3E900210B605360A569094B9D4200D0E0
:1028FC0005B9E568A3689D4202D0284600F0C4F9EA
:10290C00656138BD8A42DED01268DBE76CA400201A
:10291C0084A40020F8B50E4B0C4611460D4A98685D
:10292C001060DDE90667EFF31182202282F3128832
:10293C00BFF36F8F9D68284601F054FE284632463F
:10294C003B46FFF78FFF2046BDE8F840FFF708BF76
:10295C006CA400208CA40020EFF31181202383F3BE
:10296C001288BFF36F8F054B9A68D37B013BD373EF
:10297C0081F31188BFF36F8F704700BF6CA40020E8
:10298C0070B5EFF31186202383F31288BFF36F8F9A
:10299C000F4DAB68DA7B0132DA732A4652F8184FC6
:1029AC00944200D004B9EC681A7CD20604D1DA89BE
:1029BC007F2A01D9A2692AB19C4202D0204600F09C
:1029CC0063F923466B613046BDE87040FFF758BF92
:1029DC006CA40020024B03F11802C3E906227047D5
:1029EC006CA4002070B5EFF31186202383F31288BA
:1029FC00BFF36F8F1A4CA168E0690B68814214BF5A
:102A0C001A46002249680B605960A368E1692AB92B
:102A1C00144AC3E900210B60E3610AE092F90E50FD
:102A2C0093F90E00854216DD5168C3E900210B6055
:102A3C005360A5690B4B9D4200D005B9E568A368AE
:102A4C009D4202D0284600F01FF965613046BDE872
:102A5C007040FFF785BE8A42DAD01268D7E700BF14
:102A6C006CA4002084A40020F8B550EA01030646AB
:102A7C000C4603D1FFF7B6FF0020F8BDEFF311872A
:102A8C00202383F31288BFF36F8F124D124BA8686B
:102A9C001860FFF7BDFEA86810492346324618306F
:102AAC0000F070F9AA68137C43F004031374044615
:102ABC003846FFF755FEAB68D3E90A23B3F1004F54
:102ACC0008BF002AD8D101F06EFE201A20EAE0706F
:102ADC00D3E700BF6CA400208CA400208346000028
:102AEC00014B9868704700BF6CA400202DE9F84397
:102AFC0004468789EFF31186202383F31288BFF3F2
:102B0C006F8F037C190705D586F31188BFF36F8F80
:102B1C00BDE8F883D90943F008026FD10274A368A9
:102B2C0013B1204601F054FD04F1180001F006FE2B
:102B3C00A56D04F15808A84511D04FF0000975B1E6
:102B4C00284601F045FD05F1180001F0F7FDC5F828
:102B5C0078902846FFF71CFEA56DA845EFD1DFF84D
:102B6C00BC80D8F808309C4250D1EFF30589B9F1FC
:102B7C00000918BF4FF00109D8F81850284A95429F
:102B8C0000D00DB9D8F80C50AB4202D0284600F05A
:102B9C007BF82046C8F8145000F09EFDB9F1000FE8
:102BAC0002D02048FFF7D0FDD8F808309C4230D135
:102BBC00EFF305836BBBA289D20711D586F311887D
:102BCC00BFF36F8F83F31188BFF36F8F0423184605
:102BDC0002DFEFF31186202383F31288BFF36F8F8C
:102BEC003046FFF7BDFDFB0792D5002383F3118818
:102BFC00BFF36F8F0423184602DF89E703F07F03CE
:102C0C0043F00803037401F0DBFC88E74FF0000984
:102C1C00B2E786F31188BFF36F8FE4E76CA4002052
:102C2C0084A40020D0010020027C12F01F02034675
:102C3C0010D10A4988420DD00949086868B1D98970
:102C4C007F2909D893F90E20064B1B689A42B8BF0E
:102C5C00002070470020704710467047D0000020BD
:102C6C008C00002090A40020044BC01A044BC01010
:102C7C005843044B01221A54704700BF50020020E5
:102C8C00ABAAAAAAA1A4002070B50C4B0C4D1E7CBB
:102C9C00FFF7CAFF182303FB06550446284601F02C
:102CAC004DFD084B00229A553CB1621E2846064940
:102CBC00BDE87040D31700F065B870BD6CA400205F
:102CCC0050020020A1A40020752C000038B5EFF3B1
:102CDC001185202383F31288BFF36F8F0F4B104A9B
:102CEC009C681068A04206D1FFF7CEFF85F31188CF
:102CFC00BFF36F8F38BD00211B7C1160094AD35C78
:102D0C00002BF3D02046FFF78FFF0028EED0237C5A
:102D1C00DB0601D1FFF7C8FD2046E5E76CA40020D7
:102D2C008CA40020A1A40020024B1868984208BF74
:102D3C000020704790000020034B1B680BB9FFF775
:102D4C0037B80020704700BF94A4002030B570B194
:102D5C000B4B5B6898420AD0036843B1D3E904215A
:102D6C00D0E90445121941EB0501C3E90421D0E96E
:102D7C00003213605A600023C0E9003330BD00BF3D
:102D8C0090000020B3F1FF3F08BFB2F1FF3F2DE9E7
:102D9C00F84F0446994615461F467AD08160EFF3EA
:102DAC001188202383F31288BFF36F8FB9F1000FC2
:102DBC00DFF8E4A020DBFFF7BFFFDAE900270135DD
:102DCC0049F100092D1849EBE073C4E90453AD181F
:102DDC00064643EB07074FF00109FFF7A5FFDFF8A5
:102DEC00BCE0DEF804A00346EBB9C4E900EACAF87B
:102DFC000040CEF8044028E0DAE900126FF001033D
:102E0C005B1A4FF0FF3161EB02025B1B62EB0902B4
:102E1C00012B72F10001BCBF01230022C0E9043276
:102E2C004FF00009D9E7D3E9041CD4E904208A4205
:102E3C0070EB0C0B24DA891A5A686CEB0000C3E9AE
:102E4C000410C4E9003214605C60FFF76DFF84422B
:102E5C000ED1134B1B685BB9B9F1000F02D1FFF710
:102E6C006BFF0646304601F052FC0021FEF76EFF68
:102E7C0088F31188BFF36F8F28463946BDE8F88F69
:102E8C00521A60EB0C005345C4E90420ADD01B680A
:102E9C00AAE700252F46EFE76802002090000020EB
:102EAC0094A400202DE9F047DFF8A890DFF8A88063
:102EBC00C9F800000246FFF737FF0D460026002731
:102ECC00D8E900134FEAE27E50B1D0E9044CA2429B
:102EDC007EEB0C0A1BDAA41A6CEB0E06C0E9044656
:102EEC0052184FF0000443EB0E032046C8E90023B0
:102EFC00C9F8004001F00BFC2146FEF727FF85F3D3
:102F0C001188BFF36F8FBDE8F047FFF7DFBE611884
:102F1C0043EBE473C0E90467C8E90013FFF716FF3D
:102F2C0001224FF00043C0E9042385F31188BFF35D
:102F3C006F8F83689847EFF31185202383F31288F2
:102F4C00BFF36F8FD9F80020121BC9F80020FFF7D0
:102F5C00EBFEB5E794A400206802002010B5EFF357
:102F6C001184202383F31288BFF36F8FFFF7E4FEE5
:102F7C00054A0346D2E90001181841EBE37184F3CA
:102F8C001188BFF36F8F10BD68020020014800F05C
:102F9C00B7BA00BF0C5200002DE9F04F8BB043685C
:102FAC00009383789C078046924640F1F980002577
:102FBC000878002800F0F68025280AD04B1C0193D5
:102FCC0001354146009B98470028C0F2E3800199E7
:102FDC00EEE74E788B1C252E0193F1D00027B946D5
:102FEC003C460A221F2C22D8A6F12003102B20D8F5
:102FFC00DFE803F0141F1F1A1F1F1F0B1F1F1F12C8
:10300C001F171F1F090044F00104019B13F8016BEB
:10301C000193002EE6D13AE044F0020444F004049B
:10302C00F3E744F00804F0E744F01004EDE77F2CDC
:10303C0024D8A6F13003092B08D860064EBF02FB3A
:10304C00073702FB093944F02004DEE72A2E0DD1A4
:10305C0061065AF8043B53D4002BA7BF44F020045C
:10306C009946C3F1000944F02804CEE72E2E05D171
:10307C00630600F1978044F04004C6E76C2E2ED016
:10308C0028D8682E32D06A2E37D04C2E35D0002F4F
:10309C0046F02003B8BF24F04004A3F16502BCBF86
:1030AC00A4B20027022A01D9612B2BD10AF1070AFD
:1030BC002AF0070A9C4E0AF1080A0727210760D557
:1030CC0006EB070B34465C455DD1AE1BA219A9EB90
:1030DC00070959E1742E98D07A2E96D0D7E7260698
:1030EC0048BF44F4007444F080048EE7E00548BF08
:1030FC0044F4007444F4807487E744F4207484E747
:10310C001F4682E7A6F16302122A00F2D880DFE89C
:10311C0012F013004D00D600D600D600D6004D009C
:10312C00D600D600D600D600D600E800D100D600D6
:10313C00D6001A00D600A0005AF8043B8DF81030C7
:10314C00012704AEBAE75AF8046B784B002E08BF7F
:10315C001E4614F0400F14BF39464FF0FF31304675
:10316C0001F03BFB0746A9E7009B4146202098470E
:10317C0000280FDB013CA742F6D34D442D1BA14682
:10318C009EE74C46F7E714F8010B009B4146984725
:10319C00002898DA98F8023043F0040388F80230DB
:1031AC004FF0FF3528460BB0BDE8F08F220630D526
:1031BC00A3052AD50AF1070A2AF007039A4659688B
:1031CC005AF8080B24F0100B00291FFA8BFB2FDA8E
:1031DC00404261EB41014BF4806B04AC0A23224664
:1031EC0001F007FB1BF0400FA0EB040200F08E80F7
:1031FC002BF001049742A4B240F38F80002E40F0D4
:10320C008E802BF01104A4B21DE05AF8040BC117E8
:10321C00D8E7E0055AF8041B01D40846F7E7A205E5
:10322C004BBF48B208B241F3C01141F3C031C9E7FA
:10323C0050EA0103D1D16306CFD5002FCDD124F0B4
:10324C001104A4B23A463B4640F206410C4262D10C
:10325C0024E024F01004A4B20A2314F0800243D01A
:10326C0014F400711FBF0AF1070A2AF007029246F4
:10327C00516814BF5AF8080B5AF8040B50EA0102B3
:10328C003ED124F0160B62061FFA8BFB3CD5002FA7
:10329C003AD124F01704A4B23A463B4621075AD43B
:1032AC00E10705D5994572DDA9EB03039F184B4641
:1032BC009B464AE044F0100410237826CDE7782B87
:1032CC0004D1C6F1780343F01003C6E7009B4146D6
:1032DC00252098470028FFF65DAF02354146304661
:1032EC0070E608230026B8E714F480715AF8040B32
:1032FC00C4D014F400711ABFC0B2114680B2BDE73D
:10330C0024F006041FFA84FB04AC68E713465C4601
:10331C00E10699D52EB90133C0E71346F8E73B46D1
:10332C00F6E70233BAE700BF4B52000044520000EC
:10333C00CDE902324146009B202098470028FFF639
:10334C0029AFDDE902320BF1010BD945F0DCEB1AA8
:10335C0003EB0B055B46E10627D5CDE9023241466E
:10336C00009B302098470028FFF614AFDDE90232AD
:10337C007EB901352F44791B8A4229DB144604AEF1
:10338C009CBB2A44A9EB03091546914442E017461D
:10339C008EE7CDE90232023541463046009B984714
:1033AC000028DDE90232E5DAF4E640F206410C428F
:1033BC00E0D014F0020F14BF2B20202014F4806FE7
:1033CC00CDE9023205F10105414618BF2D20E5E794
:1033DC00CDE902324146009B302098470028DDE9B8
:1033EC00023205F10105C6DAD4E6013CCDE9023220
:1033FC00305D009B414698470028DDE90232BFDA78
:10340C00C8E6009B414620209847002805F101059D
:10341C00FFF6C0AEA9EB0503002BF2DCD7E500BF2D
:10342C00704700EBC100408840087047F8B5034670
:10343C00FFF7F7FFB0FA80F0C0F11F0003EB800C30
:10344C00CA00DCF81060171D0C4606328DB256B956
:10345C00012101FA00F0D9680143D960CCF8104081
:10346C00DD539D52F8BDF1000431585AD85303EB8B
:10347C00C0009E52C5805D52F4E7043A2DE9F84332
:10348C00CC1D114424F0070421F00706A6EB040818
:10349C004FEAD807B7FA87F2C2F12405AD004FF016
:1034AC0000090735C2F12002ED0804604946A76007
:1034BC00C4F80C90920004F1100001F086F9AAB245
:1034CC00530043F0010363807B1B9BB204EBC501EB
:1034DC005800A4F80090488024F83520A6F80290F3
:1034EC0024F8083004EBC70329465A8842F001023D
:1034FC005A802046BDE8F843FFF798BF002070477C
:10350C000FB407B504A951F8040B0191FDF728F885
:10351C0003B05DF804EB04B07047038B13F00703A2
:10352C0006D10368002B18BF032008BF002070478A
:10353C00022B05D1408BB0FA80F040098000704717
:10354C00012B04D10368002B18BF0520EDE70020E8
:10355C00704710B50C4600B111B96FF0150010BDD5
:10356C00081D00F087F80028F9D1A368032BF6D9C1
:10357C00F3E72DE9F0410D4607461946281D904604
:10358C001E4600F088F8044638B1334642462946B8
:10359C003846A446BDE8F0416047BDE8F08110B460
:1035AC00EFF31182202484F31288BFF36F8F4161F3
:1035BC0010BC0121FDF706B838B50C46054658B1CC
:1035CC0051B10B6843B14B6833B11C22002101F09F
:1035DC00FCF82C61002038BD6FF01500FBE7F8B546
:1035EC0004460E46FFF7B5FF051E3BDBEFF31182D9
:1035FC00202383F31288BFF36F8F638B278B4FF6D7
:10360C00FF718B4207F007072ED0062F2FD8DFE86B
:10361C0007F0182E082E180418006FF085050023EB
:10362C0003E0013363830225012382F31188BFF386
:10363C006F8FBBB100233A4631462046FFF799FF06
:10364C0010E000233360636823B9C4E9006627B136
:10365C003D46E4E71E606660F9E702212046FCF770
:10366C00B1FF3D462846F8BD6FF00A05D7E76FF06D
:10367C000405D4E7034658B1426802F00302012A5C
:10368C0003D0032A04D1026812B10020986070475D
:10369C006FF0150070474268816002F00302032A44
:1036AC004FF0000203460CBF006810465A6070478A
:1036BC00704701F08AB801F07AB801460068FDF74E
:1036CC00A3B808B5FDF7D0F8BDE80840FDF7DCBBA2
:1036DC0000210120FDF798B86FF08500704761B6A6
:1036EC0062B680F31188BFF36F8F704772B60023F8
:1036FC0083F31188BFF36F8FBFF34F8F30BF62B668
:10370C00BFF36F8F704772B6002383F31188BFF33A
:10371C006F8FBFF34F8F20BF80F31188BFF36F8F74
:10372C0062B67047202809D9B0F1004F08D801388B
:10373C00B0FA80F0C0F11F004000704708207047BD
:10374C003E20704708B5FDF77DFD002008BD0369DC
:10375C00C9B20C2202FB0133186C00F00700704751
:10376C0070B50346C9B20069EFF31186202484F3C7
:10377C001288BFF36F8F0C2505FB0104246C14F029
:10378C00C00401D0A24210D105FB01000122026449
:10379C00002086F31188BFF36F8F28B95B6803EBA9
:1037AC00C1035B689847002070BD4FF0FF30F0E715
:1037BC008022FFF7D5BFF8B5069F04690546C9B24C
:1037CC00EFF3118C202080F31288BFF36F8F0C263F
:1037DC0006FB0146306C00F0070EBEF1010F11D153
:1037EC00376400268CF31188BFF36F8F46B90C2019
:1037FC0000FB0144C4E90E236B6853F83130984741
:10380C003046F8BD00F0C00087420CBF6FF0770661
:10381C004FF0FF36E6E713B580240094FFF7CBFF9B
:10382C0002B010BD10B40069CBB21C2404FB030021
:10383C00002110BC10471046FEF7E0BE00F029BB7B
:10384C0043685B68D3F810350B6000207047436801
:10385C005B6802EA010021EA0201C3F80805C3F81B
:10386C000C150020704743685B680020C3F80815EE
:10387C00704743685B680020C3F80C1570474368B9
:10388C005B68D3F8042521EA02001140C3F808054F
:10389C00C3F80C150020704730B50369586800B3A5
:1038AC000024884219D108688CB99C685860A142E0
:1038BC0000D19860002008602AB15A680A609A68A2
:1038CC00596002B9996000200FE02846E9E72060B2
:1038DC009868814208BF9C60ECE705680446002D9F
:1038EC00F3D1002AE9D16FF0150030BD00F06EBDA8
:1038FC002DE9F043476840F20636D0063B7C87B092
:10390C0002EA060654BFC2F3401C4FF0030C01F050
:10391C001F05B6F5837F144645EA43158DF803C0A1
:10392C0042D00DD8062E16D005D8A6B1022E3DD009
:10393C006FF0150035E0B6F5807FF9D101260AE06D
:10394C0040F20222964233D0B6F5407F32D0B6F523
:10395C00007FEDD1022622032ED57A6801238B40FD
:10396C00C2F80835B86878BB05F01F026D0974D130
:10397C00920002F1A042C4F30041D2F8003781F06A
:10398C000101C4F3404423F4E16344EA410423F00D
:10399C0007031C4344EA8C0444EA0624C2F800479B
:1039AC00002007B0BDE8F0830726D4E70426D2E751
:1039BC000526D0E70326CEE7630341BF01237A68CF
:1039CC008B40C2F80C35CDE70DF10202294600F010
:1039DC0084FC14F4403F80460CD1B868294600F0B2
:1039EC00AAFCB8F1000FDBD19DF80210B868FEF705
:1039FC00C5FCD5E74FF0000901ABCDE90199CDE944
:103A0C000439CDF80C90B86803AA294600F060FB85
:103A1C004845C5DB14F4003314D0C4F300449DF8BE
:103A2C0003308DF80E3084F001048DF80C608DF8A5
:103A3C000D40B8684B4603AA294600F0E4FB002869
:103A4C00CFDAADE7CDE904330DF103030393B86886
:103A5C0003AA294600F03CFBF1E702F5E07250F8AE
:103A6C002230FFDEF0B544681646A068227C01F0D7
:103A7C001F0587B045EA4215002865D0B6F5001F32
:103A8C0004D1294600F0A0FC00204EE001AA002041
:103A9C00B6F5800F0190506036D1B3F1007F14BFA2
:103AAC00052304238DF804300023CDE9042303936C
:103ABC00E36823FA01F111F001010DF1030736D18E
:103ACC00B6F1A07F33D105F01F036A0903F5E0734B
:103ADC003DD14FF0A04252F82330DB0727D4A06829
:103AEC003A46294600F0F9FB163018D00297A06828
:103AFC0003AA294600F0ECFA002816DBA068012284
:103B0C00294600F01AFCBFE7B3F1C06F05D0B3F142
:103B1C00007F14BF01230223C4E70323C2E7A0687C
:103B2C003946FEF731FC0028E0DA07B0F0BDA0689A
:103B3C003A46294600F0D1FB0028D8D19DF8031055
:103B4C00A068FEF71BFCD2E76FF08500EDE751F89B
:103B5C002330FFDE30B543681360057A446804EB0C
:103B6C00C504A34202D36FF0010030BD5C798C42D6
:103B7C0003F10803F0D10020F7E743681B68D3F882
:103B8C008004C3F88004704742681368D3F81001AE
:103B9C0050B1D269002012780A70C3F81001D3F822
:103BAC00102101221A6070474FF0FF3070470268F5
:103BBC000346D2F8580140B95B68DB0706D4D2F84B
:103BCC002001003818BF012070470120704743685E
:103BDC001B68D3F80423D20517D5D3F82021A2B142
:103BEC00EFF31182202181F31288BFF36F8FD3F88A
:103BFC00201131B10021C3F82011D3F8201101217B
:103C0C00D96082F31188BFF36F8FD3F858317047A6
:103C1C0013B501AA0446FFF79DFF002805DB019BA5
:103C2C00226819791868FDF759FD02B010BDF8B576
:103C3C000022054601210220FDF78EF80220FDF737
:103C4C006FF86C680121E068FFF7E2FF6B681A6897
:103C5C002369C2F82435637D217D0B43C2F86C3592
:103C6C006E68D6E9004313F001030ED02F6904F1FE
:103C7C000C0107F1080204F5907000F0A9F8002877
:103C8C003ADB387AFEF7E4F901230822C4F8002560
:103C9C00B269C4F8442501210022C4F84825A1606A
:103CAC006BB9D4F82031002BFBD0C4F82021D4F808
:103CBC0020310123E3604FF48073C4F80433D4F84B
:103CCC005831002BFBD00021C4F800156D682C680E
:103CDC00E868FFF79DFF0823C4F800352A7A52B92B
:103CEC00EB69C4F834350123C4F83835C4F8102115
:103CFC00D4F8102123600020F8BD00F150039B0084
:103D0C009BB203F1804303F5883300221A601B68D1
:103D1C0070474FF08053D3F83001421C04BF4FF072
:103D2C00704393F8E00F831F5842584170474FF08F
:103D3C00704393F8E02F062A08D1D3F8E80F00F06F
:103D4C00F000A0F1300358425841704700207047F2
:103D5C0003460020184700F0F0BB10B5024611686E
:103D6C00B1B1BFF35B8FB1FA81F3C3F11F00012333
:103D7C00834021EA030352E8004F8C4204D142E80D
:103D8C00003CBCF1000FF6D1BFF35B8FE7D110BD47
:103D9C006FF00B00FBE710B50368CB40DB0714D4C6
:103DAC0001238B400268BFF35B8F43EA020150E8AA
:103DBC00004F944204D140E8001CBCF1000FF6D136
:103DCC00BFF35B8FEED1002010BD6FF01500FBE749
:103DDC0070B50C460021054608461646FEF72AF932
:103DEC0048B93378DB0003F1804303F5F833C3F8AB
:103DFC001055C3F8144570BD10B1012802D070479E
:103E0C00FEF7F2B9FEF7A2B918B1012803D100F000
:103E1C0025B800F03EB8704708B5FEF7B3F9BDE819
:103E2C000840FEF73DBA4FF08052D2F83031591CA1
:103E3C0009BF4FF07042D2F83401D2F8E80F92F873
:103E4C00E03F08BFC0F30310062B05D1033801284F
:103E5C0094BF00200120704700207047FEF73CB94A
:103E6C0038B54FF080440223C4F808330123E360D3
:103E7C000023C4F80431D4F8043142F21075D4F89C
:103E8C001834DB0304D50120FFF765FF013DF6D1A3
:103E9C0038BDFFF7E5BF4FF08052D2F83031591CD6
:103EAC0009BF4FF07042D2F83401D2F8E80F92F803
:103EBC00E03F08BFC0F30310062B05D103380128DF
:103ECC0094BF00200120704700207047036803F066
:103EDC001F025B0902600CBF4FF0A040002070472E
:103EEC00F7B51646019001A8DDE908471D46FFF716
:103EFC00EDFFB6F1000C18BF4FF0010C019B0A1E30
:103F0C0018BF0122002D42EA4C0203F5E0730CBFEE
:103F1C004FF0000C4FF00C0C002C42EA0C020CBFC2
:103F2C004FF0000C4FF4E06C002F42EA0C0250F8FA
:103F3C0023000CBF4FF0000C4FF4403C42EA0C0243
:103F4C0020EA020201B109780EB1367876001143ED
:103F5C000DB12D78AD0031436CB1207800022943AE
:103F6C000FB13F783F0408434FF0A042384342F86A
:103F7C00230003B0F0BD2046F1E71FB50DF10F0390
:103F8C00019300238DF80F1000931A461946FFF782
:103F9C00A7FF05B05DF804FB70B5CBB2083316462D
:103FAC0030F81330DA0504460D4609D5C3F3432324
:103FBC0000EBC302314650F833305268284698471C
:103FCC00A3682BB1E26831462846BDE8704018471B
:103FDC0070BD10B4CBB200EB43039A8AD1051BD54C
:103FEC00C2F3432122F4F8529A8200F1520400F1F8
:103FFC00120232F8023F13F4807F03D0C3F3432341
:10400C00994209D0A242F4D100EBC10300225A60BC
:10401C0010BC5830FFF7BFBE10BC704738B5034614
:10402C0011F001000ED04FF0A045D5F820451C60D2
:10403C00C5F82045FFF72FFF08B1D5F82035201E15
:10404C0018BF012038BDF0B5034600F58074002080
:10405C0005460127844695420AD1D3F87C2132B11A
:10406C000022C3F87C21D3F87C3140F00040F0BD35
:10407C0025F0404607FA06F6314209D0D4F800E0A4
:10408C00BEF1000F04D0C4F800C0D4F800E03043F7
:10409C0001350434DFE70246CBB202EB430308469A
:1040AC009B8A990611D599070FD410685B0B0121D7
:1040BC009940C0F80813126802EB8303D3F810255B
:1040CC0022F00302C3F8102570470021FFF755BFFB
:1040DC00F0B5136885B005460C461646DBB1CFB279
:1040EC0000EB4707BA8A02F02202222A1ED00022D5
:1040FC00CDE900228DF80E208DF80F200DF10E0168
:10410C000DF10F022046FFF7EBFEBB8A23F00203F2
:10411C0043F00103BB8273682BB31A785868E3B27F
:10412C0005EB4303998A8F0703D5B0B16FF01500E7
:10413C001CE021F4604121F02001998268B1032A2E
:10414C00F4D8716849680F7829684FEA870C614484
:10415C0072B9C1F81025C1F81025998A21F01C01FB
:10416C0041EA82029A82B36843BB002005B0F0BDDD
:10417C00D1F8100520F00300C1F810052868604440
:10418C00D0F8101521F4473121F44071C0F8101506
:10419C002102D0F810C501F4F85141EA024141EA7C
:1041AC000C01C0F8101505EB4701A1F85C40998A89
:1041BC0041EA473141F020019982CEE7D3E900670B
:1041CC0021462846FFF705FF002ECED06B689E4295
:1041DC0006D005F15800FFF7C0FD002804DAC5E74A
:1041EC00AB689F42F5D1002005EBC003C3E9016722
:1041FC00E4B205EB4404C0B2A38A43EA402343F47F
:10420C008073A382B1E7F0B5064685B00C461F4615
:10421C00F2B1CDB200EB4505AB8A980701D49906F3
:10422C001ED413F01C0F02D05378012B18D001238D
:10423C008DF80F300023CDE900230DF10F01931CF5
:10424C0020460132FFF74CFEAB8A43F00303AB82EE
:10425C00002F3DD0E2B206EB4202938A9B0703D4B7
:10426C006FF0150005B0F0BD3878336803EB8003B0
:10427C000021C3F81015C3F81015938A23F460437A
:10428C0023F0200393827D784FEA800C05B33168CC
:10429C00BF7861442D04D1F8103523F4981323F41E
:1042AC00F853C1F81035230203F4F85305F44035E4
:1042BC003F05D1F810652B4307F480173B4333437C
:1042CC00C1F81035938A43EA403343F020039382BC
:1042DC000020C7E7C0E903127047C9B200EB4100E8
:1042EC00838A990643BF5B0B002013706FF0150097
:1042FC00704738B590F86C4005469CB94022214671
:10430C00143000F062FA2868C0F87C41D0F87C3197
:10431C0040F30730FCF704FD012385F86C30AB65E6
:10432C00204638BD6FF07700FBE790F86C00003842
:10433C0018BF01207047FDF7EBBF73B50C46C9B22F
:10434C0000EB410105688B8A9E0619D513F0020615
:10435C0016D15B0B9C0004F580716E506958016896
:10436C002144D1F8104544F00104C1F810452AB19C
:10437C000168012202FA03F3C1F8043302B070BDE4
:10438C00D5F80433002BA4BF4FF00043C5F8043319
:10439C008B8AC3F38203042B12D0052B12D001A8F5
:1043AC000194FFF793FD019AD0F81035D34003F038
:1043BC000103991C204602B0BDE87040FFF7DDBD3B
:1043CC000321F7E70221F5E7FFF765BE2DE9F04F72
:1043DC00074685B057F8049BD9F80413C9B2804638
:1043EC00082241F000414846FFF72DFE051E16DA63
:1043FC000DF1080A0023012150460293FFF70EFE2F
:10440C00029A92B94FF000414846FFF71CFE012179
:10441C005046FFF703FE0028F2D125F00045012499
:10442C00002D74D105B0BDE8F08F92FAA2F4B4FA65
:10443C0084F4E60808EB44031AF80620998A0394DE
:10444C00012304F0070003FA00F022EA00020AF844
:10445C000620C1F3820B03A8CDF804B0FFF736FD9C
:10446C00039A02F5E072CB0650F82260C6F30146BF
:10447C0033D5019A38462146FFF78EFD03A80394E5
:10448C00FFF724FD039B03F5E073F6B250F82330DD
:10449C00C3F301439E4207D100212046FFF76DFD77
:1044AC0031462046FFF769FD03A80394FFF70EFD84
:1044BC00039B012202FA03F3C0F82035FFF7EBFC53
:1044CC0000289DD04FF0A043D3F82025D3F8202509
:1044DC00D3F82025D3F8203592E7022E14BF022101
:1044EC0003212046FFF749FDBBF1030F04D0022E38
:1044FC0008D1BBF1010FD7D1019A21463846FFF7FD
:10450C004BFDD1E7032ECFD1BBF1020FF3E795FAA8
:10451C00A5F3B3FA83F304FA03F225EA020503F5D3
:10452C00A27208EB430359F82220B3F85C10C2F3D3
:10453C0001423846FFF730FD72E708B1FCF7B4BE14
:10454C00704710B5436904463BB90020E2685378C4
:10455C0043F001035370404210BD98470028F4D03B
:10456C000028B8BF4042E368FF28A8BFFF2018709E
:10457C00ECE740B1C368587810F001001EBF187802
:10458C00B0FA80F040097047EFF31183202383F3D6
:10459C001288BFF36F8FFEE708B5FFF7F5FF08B57C
:1045AC002024EFF3118384F31288BFF36F8FFFF78E
:1045BC009DF8F6E7EFF30580003818BF012070472F
:1045CC00D0E9003213605A600023C0E90033704711
:1045DC0008B5FFF7F5FF037C23F0020303740023F7
:1045EC00836008BD38B504460D46FEF711F9237CEF
:1045FC0043F002032374D5B1A5602B689D4209D109
:10460C006B68C4E900531C606C6010E06A689A42E5
:10461C00F6D01B68002BF3D093F90E1094F90E20F2
:10462C009142F3DD5A68C4E9003214605C6038BD15
:10463C0010B5EFF31184202383F31288BFF36F8F2F
:10464C00FEF7A6F884F31188BFF36F8F10BD08B581
:10465C00037C13F0280F01460CD183680BB1FFF7D4
:10466C00B7FF0B7C23F004030B740846BDE808402D
:10467C00FEF78EB808BD10B5EFF31184202383F339
:10468C001288BFF36F8F1838FFF7E1FF84F311889E
:10469C00BFF36F8F10BD0846FEF7F2B838B50C4665
:1046AC000546FEF7E1F9B4F1FF3F08BFB5F1FF3F56
:1046BC001FBF47F6FF7300224FF47A71E0FB013203
:1046CC001ABFD80B40EA42404FF0FF3038BD38B526
:1046DC000446EFF31185202383F31288BFF36F8F09
:1046EC00037C5B070ED5183000F028F8237C23F0F0
:1046FC00040320462374FEF74BF82846BDE83840E7
:10470C00FEF7BEB885F31188BFF36F8F38BD08B5BF
:10471C000246FEF709FB70B1D0E904319B1A61EB3C
:10472C00E272B3F1004F72F1000104DA002AACBF5F
:10473C001846002008BD6FF00040FBE738B5024674
:10474C00EFF31185202383F31288BFF36F8F036877
:10475C00D3B1FEF7E9FA04461046FEF7F7FA002249
:10476C004FF000438442C0E9042305D0002085F3B8
:10477C001188BFF36F8F38BDFEF7DEFAFFF7C7FF66
:10478C000021FDF7E3FAF1E7D0E90413B3F1004F90
:10479C0008BF012904D100204FF00041C2E90401F7
:1047AC006FF01500E3E708B5FEF7D8FB08BD0A4427
:1047BC00914200F1FF3300D1704710B511F8014B55
:1047CC0003F8014F9142F9D110BD024403469342C4
:1047DC0000D1704703F8011BF9E710B502460144FC
:1047EC008A42134603D01C780132002CF8D1181AD7
:1047FC0010BDF0B5C3F137070446FFB203F01F0339
:10480C001046082BE6B233D0102B3ED06508A40816
:10481C0044EA817445EAC1752D194FEA910242EBC5
:10482C005102290941EA02716D1842EB1212290A50
:10483C0041EA02616D1842EB1222290C41EA024155
:10484C006D1842EB1242AD1842F10002EC0844EA3A
:10485C004274D10804EB8402A6EB4205EDB2092D9B
:10486C000CD90134A5F10A0541F10001EDB212E0B9
:10487C00E40844EA417406F00705C908303554EAE7
:10488C00010200F8015BBCD1F0BD240944EA0174BB
:10489C0006F00F050909092D84BFED19EDB2EDE7FE
:1048AC00D9120000000000009D1200000000000062
:1048BC0000000000EC480000000000000849000067
:1048CC000000000024490000251600000000000034
:1048DC00A11B000000000000791200000000000085
:1048EC00DC510000104B00009C4A00009800002096
:1048FC00D4A300206D13000000000000EB51000059
:10490C00204B0000784A00009A00002028A40020C8
:10491C00AD16000000000000F9510000344B0000FF
:10492C00B84A00009C00002034A400203B3C00004E
:04493C000000000077
:10494000253E00005D3D000000000000DD36000057
:1049500024490000DB3B000000000000DD360000C1
:1049600000000000DD36000000000000DD36000021
:1049700014000020F938000000000000DD360000BF
:1049800000000000DD36000000000000DD36000001
:1049900000000000DD36000000000000DD360000F1
:1049A00000000000DD36000000000000DD360000E1
:1049B00000000000DD36000000000000DD360000D1
:1049C00000000000DD360000000000006D1C00004B
:1049D00000000000DD36000000000000DD360000B1
:1049E00000000000DD36000000000000DD360000A1
:1049F00000000000DD36000000000000DD36000091
:104A000000000000DD36000000000000DD36000080
:104A100000000000DD36000000000000DD36000070
:104A200000000000DD36000000000000DD36000060
:104A300000000000DD36000000000000DD36000050
:104A400000000000DD36000000000000DD36000040
:104A500000000000DD36000000000000DD36000030
:104A600000000000DD36000000000000DD36000020
:084A700000000000DD3600002B
:104A7800FD3800004D3800005B3800007338000036
:104A88007F3800008B380000713A0000A53800001C
:044A9800000000001A
:104A9C00C5130000BD3700002338000000000000E3
:0C4AAC005B37000000000000000000006C
:0C4AB800953B00005D180000873B0000EB
:104AD0000338FDD8704700000000002000000000EF
:104AE00000000B0602000000EC4A0000000000007D
:104AF000CD5100002400020600000020D551000026
:104B00001E000B1129130000F91200000000000024
:104B10009514000015140000F5130000493800003A
:104B2000FFFFFFFF00000050140000200000000005
:104B30000000000000200040010000000000000014
:104B4000544B00000000D601000000009FA400208C
:104B50009EA4002000200040604B000001000000E7
:104B6000684B00000400000006000000080000017F
:104B70000500000207000003AC480000B448000034
:104B8000DC480000E4480000EC480000EC4800006D
:104B90000A3D3D205043413130303430207261773E
:104BA0002D524144494F206F6273657276657220C1
:104BB00028513029203D3D0A0046494352205041AA
:104BC00052543D3078253038782056415249414E74
:104BD000543D3078253038780A0074696D65723D2F
:104BE00031364D487A2836322E356E732920726957
:104BF0006E673D25750A004846584F2073746172F0
:104C00007465640A0032005131006D6F64653D25A2
:104C100073207068793D25734D2041413D307825E2
:104C2000303878206361703D25756D730A006361CB
:104C300070747572696E672025756D73206F6E20B4
:104C4000636833372E2E2E0A0046524F5A454E3A8D
:104C5000207265636F7264733D25752072696E679B
:104C60005F66756C6C5F64726F70733D2575206D47
:104C700061785F6973725F7469636B733D2575203A
:104C8000282575206E73290A004C4F53533A206132
:104C90006464725F6972713D257520656E645F6939
:104CA00072713D2575207265636F7264733D257561
:104CB0002072696E675F66756C6C5F64726F70738B
:104CC0003D257520616464725F6D696E75735F6503
:104CD0006E643D256420656E645F6D696E75735FFB
:104CE0007265636F726465643D25642072657665E4
:104CF0007273616C3D2575207374616C655F6164CE
:104D000064723D25750A006372635F6F6B3D2575A4
:104D10002F257520287175616C69746174697665D9
:104D20003A20616D6269656E7420747261666669AD
:104D3000632C204E4F54206120636F686572656E4E
:104D400063652067617465290A00524543206F73CB
:104D500065713D25752073303D30782530327820DF
:104D60006C656E3D2575206372633D2575207273F9
:104D700073693D2564207061697269643D25752001
:104D800074787461673D25752073743D30782530E3
:104D9000327820616464723D257520656E643D251E
:104DA00075206169725F75733D2564206761705F6E
:104DB00075733D25640A0051302D444F4E450A005D
:104DC00072302F61313A2020307825303878202019
:104DD00072312F61323A2020307825303878202007
:104DE00072322F61333A20203078253038780A002B
:104DF00072332F61343A2020307825303878207291
:104E000031322F69703A202030782530387820727E
:104E100031342F6C723A20203078253038780A00EF
:104E200020787073723A20203078253038780A0064
:104E30004661756C74696E6720696E737472756310
:104E400074696F6E206164647265737320287231B7
:104E5000352F7063293A203078253038780A00558C
:104E60006E68616E646C6564204952516E3A20250B
:104E7000640A002A2A2A2A2A204D505520464155E4
:104E80004C54202A2A2A2A2A0A00202053746163BB
:104E90006B696E67206572726F722028636F6E7423
:104EA0006578742061726561206D6967687420623D
:104EB00065206E6F742076616C6964290A00202079
:104EC000556E737461636B696E67206572726F7281
:104ED0000A0020204461746120416363657373207C
:104EE00056696F6C6174696F6E0A0020204D4D46E3
:104EF000415220416464726573733A20307825789A
:104F00000A002020496E737472756374696F6E2095
:104F10004163636573732056696F6C6174696F6E6A
:104F20000A002020466C6F6174696E672D706F698E
:104F30006E74206C617A792073746174652070726C
:104F400065736572766174696F6E206572726F72D7
:104F50000A002A2A2A2A2A20555341474520464139
:104F6000554C54202A2A2A2A2A0A002020446976ED
:104F70006973696F6E206279207A65726F0A00200A
:104F800020556E616C69676E6564206D656D6F722A
:104F900079206163636573730A0020204E6F20637C
:104FA0006F70726F636573736F7220696E73747262
:104FB000756374696F6E730A002020496C6C6567B5
:104FC000616C206C6F6164206F66204558435F52AE
:104FD000455455524E20696E746F2050430A00208C
:104FE00020496C6C6567616C20757365206F662065
:104FF00074686520455053520A002020417474653E
:105000006D707420746F20657865637574652075A4
:105010006E646566696E656420696E73747275632B
:1050200074696F6E0A002A2A2A2A2A2042555320C0
:105030004641554C54202A2A2A2A2A0A0020205365
:105040007461636B696E67206572726F720A00200B
:1050500020507265636973652064617461206275B4
:1050600073206572726F720A0020204246415220FE
:10507000416464726573733A20307825780A0020A1
:1050800020496D7072656369736520646174612085
:10509000627573206572726F720A002020496E7308
:1050A0007472756374696F6E2062757320657272B5
:1050B0006F720A0052657365727665642045786385
:1050C000657074696F6E20280053707572696F7512
:1050D0007320696E7465727275707420284952511C
:1050E0002000535053454C20696E207468726561EE
:1050F00064206D6F646520646F6573206E6F74202B
:10510000696E646963617465205053500A002A2AED
:105110002A2A2A2048415244204641554C54202AEC
:105120002A2A2A2A0A002020427573206661756C9B
:1051300074206F6E20766563746F72207461626C88
:105140006520726561640A002020446562756720ED
:105150006576656E740A0020204661756C74206562
:105160007363616C6174696F6E202873656520627A
:10517000656C6F77290A00415243485F45584345A3
:105180005054207769746820726561736F6E2025B2
:10519000780A0A002A2A2A2A2A204465627567208A
:1051A0006D6F6E69746F7220657863657074696F76
:1051B0006E202A2A2A2A2A0A002A2A2A2A2A20256E
:1051C0007320256429202A2A2A2A2A0A00464C41CB
:1051D00053485F30005352414D5F3000636C6F6342
:1051E0006B403430303030303030006770696F40A1
:1051F00035303030303030300075617274403430CA
:10520000303032303030006D61696E002A2A2A2039
:10521000426F6F74696E67205A6570687972204FAB
:1052200053206275696C642076342E342E312D380B
:105230002D67646333393563373839333633202A81
:105240002A2A0A00286E756C6C29002A666C6F6128
:0C525000742A0000010203040506070098
:10525C00093500000000000051370000000000007C
:10526C000000000000600040000000000000000092
:10527C000000000000000000000000000000000022
:10528C000000000000000000000000000000000012
:10529C000000000000000000000000000000000002
:1052AC0000000000000000000000000000000000F2
:1052BC0000000000000000000000000000000000E2
:1052CC0000000000000000000000000000000000D2
:1052DC00000000000090D003FF00000090020000CE
:0852EC0090000020900000205A
:0852F4000000000000000000B2
:0452FC0015E015E0C4
:0400000300000CD11C
:00000001FF
