:1000000038D70020CD3400002D260200B93400007E
:10001000B9340000B9340000B9340000B93400002C
:100020000000000000000000000000000535000096
:10003000B934000000000000D9360000B9340000D7
:100040005937000059370000593700005937000070
:100050005937000059370000593700005937000060
:100060005937000059370000593700005937000050
:100070005937000059370000593700005937000040
:100260005937000059370000199301005937000031
:10027000593700005937000059370000593700003E
:10028000593700005937000059370000593700002E
:10029000593700005937000059370000593700001E
:1002A000593700005937000059370000593700000E
:1004800053B94AB9002908BF00281CBF4FF0FF31FB
:100490004FF0FF3000F00CB8ADF1080C6DE904CE60
:1004A00000F018F8DDF804E0DDE9022304B070473D
:1004B000704700BF034611F8012B03F8012B002AF7
:1004C000F9D17047034613F8012B002AFBD1181A03
:1004D000013870472DE9F0478C468E46089E154638
:1004E00004461946002B40F0D080724547D9B2FA35
:1004F00082F74FB1C7F120030EFA07FCBD40BC40A4
:1005000020FA03F343EA0C0C4FEA154EA8B2230C71
:10051000BCFBFEF80EFB18CC08FB00F943EA0C43C9
:10052000994528D9EB1808F1FF3204D2994502D930
:10053000A8F102022B44A3EB0903A4B2B3FBFEFC17
:100540000EFB1C330CFB00F044EA0344A04214D918
:100550002C190CF1FF3304D2A04202D9ACF10203F2
:100560002C44241A43EA02401EB1FC4000233460AC
:100570007360BDE8F0874246DDE76346F1E7002A95
:1005800079D0B2FA82F3002B3FD01946C1F1200393
:1005900002FA01F500FA01F42EFA03F20EFA01FE56
:1005A00020FA03F3AFB243EA0E034FEA154EB2FB53
:1005B000FEFC0EFB1C201A0C0CFB07F842EA004262
:1005C00090455AD9AA180CF1FF3004D2904502D9AF
:1005D000ACF102002A44A2EB08029BB2B2FBFEFC83
:1005E0000EFB1C220CFB07F743EA02439F4246D94D
:1005F000EB180CF1FF3204D29F4202D9ACF1020297
:100600002B44DB1B42EA004202E0AEEB0203012274
:100610004FEA154EAFB2200CB3FBFEFC0EFB1C33B1
:100620000CFB07F840EA034398452AD9EB180CF174
:10063000FF3004D2984502D9ACF102002B44A3EB61
:100640000803A4B2B3FBFEFC0EFB1C330CFB07F744
:1006500044EA0344A74216D92C190CF1FF3304D203
:10066000A74202D9ACF102032C44E41B43EA004048
:100670000F46114678E71F2188E76046ABE76246E0
:10068000BFE76046DBE76346EFE7734506D916B977
:10069000002108466DE7C6E9000EF9E7B3FA83F7D3
:1006A00087B9734501D3824207D8841A6EEB0303DE
:1006B00001209C461EB900215BE73846FAE7C6E9EF
:1006C000004CF8E7C7F1200CBB4000FA07F422FA0F
:1006D0000CF520FA0CF1BA401D432EFA0CF30EFA79
:1006E00007FE4FEA154941EA0E011FFA85FEB3FBEA
:1006F000F9F809FB18300B0C08FB0EFA43EA00432B
:100700009A4540D9EB1808F1FF3004D29A4502D936
:10071000A8F102002B44A3EB0A0389B2B3FBF9F85A
:1007200009FB183308FB0EFE41EA03418E452CD924
:10073000691808F1FF3304D28E4502D9A8F10203EB
:10074000294443EA0040A1EB0E01A0FB0298414579
:10075000CE46434602D306D14C4504D20138B9EB0C
:10076000020E68EB0503002EA5D0B4EB0E0261EB80
:10077000030101FA0CFC22FA07F3F9404CEA0303E7
:10078000C6E9003197E74046C5E74346D9E7000090
:100790000022F0B585B0114640F6034002AF04F0E8
:1007A0007FFC044600285BD104F024FA214641F284
:1007B00003003A1D04F074FC0446002850D17A6806
:1007C000294DD16805F17803D1F80100D1F8051061
:1007D00003C3104603F05EFB214641F201003A1DBF
:1007E00004F05EFC044600283AD17868C3685A7861
:1007F00085F870205A88A5F872201A7985F871203A
:10080000B3F80720A5F87420B3F80530A5F87630C2
:1008100003F040FB214641F202003A1D04F040FC87
:100820000446E8B9D7F804C005F18006DCF80C20CE
:10083000531C4132344618685968083303C4934244
:100840002646F7D1604603F025FB95F87C305A0622
:1008500010D40121054A064822F05CF96FF0120419
:1008600020460C37BD46F0BD0000002087AE0200D8
:10087000C0840200002142F203003A1D04F010FC83
:1008800004460028ECD17A68A74BD168D1F8010062
:10089000D1F8051003C3104603F0FCFA214642F2DA
:1008A00002003A1D04F0FCFB04460028D8D17E6803
:1008B000F468B4F801309AB292B1E27882B1A5F846
:1008C000FC30E378402B06D040220221009297486A
:1008D000974A21F0B4FDE2789648114625F0B3FA24
:1008E000304603F0D7FA95F87C6016F0200619D14F
:1008F0004FF0FF304FF0FF3104F0A0F9044600281C
:1009000000F0BD8102210C3021F06EFF0123214651
:1009100003704670324640F66D4004F0C1FB044659
:1009200000289DD195F89C301B0712D5002142F27A
:100930001C003A1D04F0B4FB0446002890D17868EE
:10094000C368D3F80120D3F80530C5E9382303F094
:10095000A1FA95F8D8309E0623D53846B91C04F084
:1009600047FC044600287FF47BAF4FF0FF304FF088
:10097000FF3104F063F90646002800F0808104216D
:100980000C3021F031FF3B88224603807B883146C2
:10099000438042F2240004F083FB044600287FF4E5
:1009A0005FAF95F8D8305C0610D5002142F22A00DE
:1009B0003A1D04F075FB044600287FF451AF7868B7
:1009C000C3685B7885F8103103F064FA4FF0FF30AC
:1009D0004FF0FF3104F032F90646002800F04F8155
:1009E00008210C3021F000FF95F8D84040F2022396
:1009F00014F0400F08BF03230246A0074CBF43F08A
:100A00002C0343F00C03A10695F8D91048BF43F01E
:100A1000400311F0090F18BF43F4006304F0010410
:100A200043EA0410002122F097F80022314642F2F6
:100A3000010004F035FB044600287FF411AF95F85F
:100A40007C30B5F8FC1098065CD4C9B941F20500B9
:100A50003A1D04F025FB044600287FF401AFB5F8E9
:100A6000FC307C684BB9E368B3F80120A5F8FC20A2
:100A70009A883048114625F0E6F9204603F00AFA34
:100A80004FF0FF304FF0FF3104F0D8F80446002853
:100A900000F0F58008210C3021F0A6FE95F8D83042
:100AA0000246D90738D44FF00051234822F054F8B9
:100AB0002146002240F6014004F0F2FA04460028E4
:100AC0007FF4CEAE01463A1D4FF6014004F0E8FA3D
:100AD000002837D0194A0221144822F01BF8EB797C
:100AE000002B40F0BC8005F039FB044600287FF461
:100AF000B7AE07F021F9044600287FF4B1AE04F048
:100B0000BBF9ADE60029BBD101210D4A074822F00F
:100B100001F86FF00404A3E601A1D1E90001C5E7E3
:100B20009088000200800020D8000020C0840200CD
:100B3000ABAE0200000100201088000214AF0200DA
:100B4000F1AE02007B686E46DC688AB0B4F8013012
:100B5000042B96BF574A584952F8231002AAD36172
:100B60004FF4007355481384554BC2E9050142F810
:100B7000103F4FF41351534821F0E2FFB4F8012025
:100B8000B546022AB4F8033049D1052B47D84E4A5E
:100B900052F823106E468AB002AAD3614FF4007354
:100BA0004A481384464BC2E9050142F8103F4FF40E
:100BB0001351444821F0C4FFB546637994F806C048
:100BC000032B98BF424AB4F80760D4F809006C467A
:100BD0008CB094BF52F82310374902AAC2E9073CEF
:100BE0004FF40073DFF8ECE093853B4BC2E905E17D
:100BF000C2E909604FF4735142F8103F314821F0C7
:100C00009FFFA546786803F045F900214FF60240A2
:100C10003A1D04F045FA044618B1304A5BE726490C
:100C2000B8E77868C368B3F80130A5F8C13003F0BD
:100C300031F995F8C1305A077FF551AF21464FF68B
:100C400003403A1D04F02CFA08B1254A43E77868BE
:100C5000C3685B7885F8C03003F01CF93FE72E7855
:100C6000002E7FF440AF95F8C1309B061FD54FF0A2
:100C7000FF304FF0FF3103F0E1FF044610B96FF091
:100C80006804EDE506210C3021F0AEFDD5F8013009
:100C900021460360134B32469B8883804FF6064003
:100CA00004F0FEF9044600283FF41DAFD8E56FF0CC
:100CB0008504D5E5E087020082AC020038AF02006F
:100CC00004000001C0840200C887020051AF020086
:100CD000B887020069AF02000700000196AF02006A
:100CE000BFAF0200010000202DE9F0470E46044688
:100CF00000283AD0002938D007F054F80A1D5200D5
:100D00000146074692B2172007F05EF9054678B310
:100D100000F10C090821484621F066FD4FF000085B
:100D20004FF0170A2368B3F86A200280DA8A4280FB
:100D30001A8B8280DB69C380B04509DB0EA3D3E93F
:100D400000232068294622F008FC0020BDE8F08737
:100D500054F828304846998A83F86C7083F86DA05F
:100D600021F059FD08F10108E6E76FF01500EDE705
:100D70006FF00B00EAE700BFD01213000000000084
:100D800070B5044607F00EF80A2201460646142004
:100D900007F01AF90546E0B114230A2184F86D30F2
:100DA00084F86C600C3021F01FFDB4F86A302946DD
:100DB0000380A38A4380E38A8380238BC380E36913
:100DC0000381204604A3D3E9002322F0C6FB0020C0
:100DD00070BD6FF00B00FBE7D012130000000000A5
:100DE0002DE9F047044640F2712690F84C0094F843
:100DF0003830C0F3400060F386138CB004F13B013F
:100E000084F838300EF072FC0021B4F84230404DC6
:100E1000404AA3FB0663651B94F83830A2FB052506
:100E2000A26C03F0790384F8383002F21313B34252
:100E300032BF184630460A46C4E9021121702461C7
:100E4000626460600EF006FC6369C5F3871500F20A
:100E50001317002B48D00DF12C0991214FF0000AF7
:100E60004FF00208CDF820900694B4F842302A4A98
:100E70002A480792A3FB000201FB0321284BCDF86F
:100E80000CA005936368CDF82C8004931EA3D3E9CE
:100E90000023FFF7F5FA104619464FF47A72002343
:100EA000FFF7EEFA0235EDB22A463B460321CDE9C3
:100EB0000160CDF800A050460EF0A2FA49460FF0AE
:100EC000E7F8054660B994F84C30404643F001031A
:100ED00084F84C3017F0F6FE28460CB0BDE8F087D9
:100EE0000C200CB0BDE8F0870DF12C09CDE90A33D8
:100EF00003204B4661680AAA17F086F80028ACD197
:100F0000DDE90A371F44A8E700CA9A3B0000000049
:100F1000D0150020CDCCCCCC55F70000002AE784BA
:100F2000351F010070B50C46154622F0F3FF2A4626
:100F300003462146BDE87040014820F021BE00BFB5
:100F4000889C0200032910B50C4607D80122074BE4
:100F50001A7020F0FEFB064BC3E900012146BDE8F4
:100F600010404FF4FA72034820F00ABE2794002084
:100F700088090020B39C02001FB53023074A0849A6
:100F8000CDE90123002301A8039305F0ADFB014641
:100F9000044820F0F5FD05B05DF804FB0100600099
:100FA0002D110000E99C02002DE9F34107460C4693
:100FB00031B92D4820F0E4FD002002B0BDE8F081F9
:100FC0002A4DAA420AD1084623F05BFC284B188020
:100FD0001988284889B220F0D3FDEDE7137C264E0E
:100FE000032B19D1084623F04CFC244B24491880CC
:100FF0001B88338100238DF8043042F60213ADF8CC
:10100000063001AB0B60238A02330B8104230B747F
:1010100038460AF00DFDCFE74FF00108194BA6F84E
:101020000C8033600B8A314673810BF0C3F90146A3
:1010300010B110F1780F15D1134B144883F80080CC
:101040000E4B198889B220F09BFD114B07492B608C
:10105000104BA5F808806B604FF6FF73EB810323FC
:101060002B74D5E70C48B6E7F59C0200981C0020CD
:10107000069300200E9D0200641C002004930020B3
:10108000801C002031120000289400202D9D0200B9
:10109000B8050020A90F0000409D0200084B1B78F6
:1010A0006BB1084B1B7853B1074B1A783AB9012240
:1010B00006481A7043F6095200231DF009BE704716
:1010C000249400202694002023940020A0090020CE
:1010D00010B50C4623F027FC21460246044820F0B8
:1010E0004FFD0122034B1A70BDE81040FFF7D6BF39
:1010F000519D02002494002010B50C464A780948FE
:10110000097820F03DFD2378022B09D16378022B6A
:1011100006D10122044B1A70BDE81040FFF7BEBF94
:1011200010BD00BF649D02002694002070B5134ED0
:1011300005461846336888B0F3B911490DF1070226
:101140008DF8073003F080F89DF80730A3B105F063
:101150001BFB0C4B02AA18685968083303C21446DB
:101160000FCB84E80F0033462146284602AA06F03A
:10117000ABFC08B1FFF700FF08B070BD941C002065
:10118000251300008085020010B504468CB069B1BB
:101190001B4C1C4820F0F4FC206805F0E3FE002303
:1011A00023600CB0BDE81040FFF7E6BE022121F03D
:1011B000CAFF0146144820F0E3FC204601A906F0CE
:1011C00017FC58B90699114820F0DAFC0122104B9F
:1011D0001A7020F0BEFA0F4BC3E9000100230E4A3B
:1011E000204613700D4A13700D4A13700D4A137088
:1011F0000D4A0E4B114613600AF0ECFB0CB010BD0B
:10120000941C0020759D02008C9D0200A39D02008D
:10121000279400208809002025940020269400208F
:101220002494002023940020601C0020D110000092
:1012300070B5104ED6E90045181945F10001C6E910
:1012400000011AB910460C4B1A7070BD082B05D05E
:101250000A4A1368013313600120F6E7084B196846
:101260001368994201D0074AF3E707481DF0BEFA18
:10127000F2E700BF9809002028940020141C0020E9
:101280001C1C0020181C0020C406002038B50C4689
:10129000174820F075FC174A17481368013313608C
:1012A000164B1C700024164B1C70164B1C70164BF2
:1012B0001C80164B1C70164B1C70164B1C7024F0B7
:1012C000B4FE15481DF0ECFA144D4FF0FF324FF00C
:1012D000FF3313481DF096F9286810B105F042FE5F
:1012E0002C600F481DF000FABDE83840FFF744BEFF
:1012F000BE9D0200101C0020A009002022940020A6
:101300002894002027940020049300202494002097
:101310002394002026940020C4060020941C002062
:101320009006002010B503780C46083B012B0CD822
:101330004278072A09D10649406826F075FA034623
:1013400001200BB92070184610BD0120FCE700BF3A
:10135000D79D02002DE9F04F00242546A0462746E0
:10136000DFF898B1B7B04FF47A7020F001FA644B0F
:10137000DFF890911A78644BDFF890A11B6808F1B0
:1013800001082AB1624A127812B1002B40F0B180F4
:10139000D9F8002001340132C9F80020DAF8002021
:1013A000A24201D2CAF800405A4A002116681EA87B
:1013B0006022189326F030FA102200211AA826F095
:1013C0002BFA189B43B1184622F0A4FD10210346C6
:1013D000514A1AA81FF050FFDBF80020002A00F045
:1013E0008A804E490023D1E900011892FFF748F89E
:1013F0004B4B189A1B684B49DFF82CC109680DF15B
:10140000680E18914949751B09681991484909687E
:101410009CF800C0CDF858E00DF1780ECDF854E0FE
:10142000DAF800E0CDF850E0D9F800E0DFF80491F8
:10143000CDF84CE0DFF800E1DEF800E0CDF848E060
:10144000DFF8F8E0DEF800E0CDF844E0DFF8F0E0A7
:10145000DEF800E0CDF840E0DFF8E8E0DEF800E09C
:10146000CDF83CE0DFF8E0E0DEF800E0CDF838E071
:10147000DFF8D8E0DEF800E0CDF834E0DFF8D0E0C7
:10148000DEF800E0CDF830E0DFF8C8E0DEF800E09C
:10149000CDF82CE0DFF8C0E0DEF800E0CDF828E081
:1014A000DFF8B8E0DEF800E0CDE908CE0791199941
:1014B000CDE9036506911899294D05912968CDE973
:1014C0000121D9F80020414600920246254820F02B
:1014D00057FB002000214FF0FF32104B2F60C3E973
:1014E00000010F4B3546CBF800701A60C9F8007048
:1014F00039E7002458E7104613467CE75C1C0020BF
:1015000028940020241C0020941C0020201C002073
:10151000279400202C850020DF9D020090090020E8
:10152000F0010020181C002022940020141C002030
:10153000101C0020581C0020281C00202C1C0020FF
:10154000341C0020381C00203C1C0020401C0020C3
:10155000441C0020481C00204C1C0020501C002073
:10156000541C0020E89D020010B54FF0FF334FF0EF
:10157000FF3207481DF046F8064B1C681CB1204698
:1015800021F037FD044602481DF0AEF8204610BD9C
:1015900090060020941C00202DE9F04F8FB07C4B6A
:1015A0001B781BB17B4B1B889BB21BB9642020F0BE
:1015B000DFF8F4E7784B0A93002309930A9B7748F6
:1015C00033F802BB59460A9320F0DAFA4FF400725E
:1015D0000021734826F020F90022724B1A6020F097
:1015E000B8F84EF66023C51841F100030B93BBF128
:1015F000000F1DD0F0234FEA8B26B6FBF3F620F048
:10160000A8F80B9BA842994114DB0025DFF89081D4
:101610002F4640462E462C462B4630F8022B591CAE
:10162000002A18BF1D461D2B144447DC0B46F4E767
:101630005E46E4E7564B1B78002BE6D0554B1B88E3
:101640009BB2002BE1D01EB9C82020F091F8D6E75C
:101650004FF0000820F07DF8C24610F57A7441F191
:10166000000720F076F8A042B94103DAFFF77CFFCB
:10167000814648B920F06DF8201A67EB0101012876
:1016800071F10001BBDBE0E7424B474A1988F023C8
:1016900089B2CDE901AACDF800A023F067FA0C9039
:1016A000484605F05FFC0C9B23B908F10108B045E2
:1016B000D7D3DFE7022020F05BF8F8E7632B16446E
:1016C000B4DDB1F5807F0B461744A6D1002C5AD06B
:1016D0005A20630864220B93A4FB00010023FEF749
:1016E000CFFE0C90632064220023A4FB0001FEF7D0
:1016F000C7FE0D9040F2E7304FF47A720023A4FB4E
:101700000001FEF7BDFE002381469E469C4618461A
:1017100019461A4638F802AB514420B9DDF82CA01E
:101720008A4598BF1046BCF1000F04D1DDF830A007
:101730008A4598BF9446BEF1000F04D1DDF834A06D
:101740008A4598BF964613B9894598BF134601321A
:10175000B2F5807FDED1CDE90335CDE90567CDE96E
:1017600001CE104B00901B68224659460F4820F0CE
:1017700007FA099B0133072B09937FF41FAF0C482D
:1017800020F0FEF90BE72346A646A4462046E2E7F2
:101790002894002006930020149C0200C69E02009C
:1017A00004910020301C002032930020E89E0200AB
:1017B000459F02002DE9F04F00252C462F46DFF80B
:1017C000A481DFF8A49187B0684B1B782BB1D8F8BF
:1017D000003013B199F800302BB932201FF0C8FF48
:1017E0003E463746F0E71FF0B4FF614BD3E90023D4
:1017F000801A61EB0301B0F5FA7F71F1000101DAA3
:101800000A20EBE75B4B1F605B481DF049F85B4A21
:10181000049713687E1C01331360FFF7A5FE824610
:1018200018B902201FF0A4FFDBE723F0F1FE544BB0
:101830008346198800235046CDE90133009304AA5A
:10184000082389B223F092F90746504605F08AFB37
:10185000CFB14C4ABD42136804F1010A03F1010300
:10186000136005D1C822B4FBF2F302FB13432BB97A
:1018700052463946444820F083F93D4602201FF085
:1018800077FF5446ADE741F66A0200233A481CF060
:10189000E1FF002859D123F0BBFE3C4A3C491368C4
:1018A000A0EB0B0001331360D1E900321B1842F1A9
:1018B0000002C1E90032374B1A68824288BF1860C3
:1018C000354B1A688242354A38BF186013680133B5
:1018D0001360334B1A68824238BF18604FF47A7332
:1018E000B0F5FA6FB0FBF3F327D92E490A6801323D
:1018F0000A6041F2883290421FD92B490A680132AE
:101900000A6043F69822904217D928490A680132A2
:101910000A6044F6206290420FD925490A680132D4
:101920000A6047F23052904207D9B0F57A3F28BF9B
:10193000FF2320490A6801320A601F4931F8132049
:10194000013221F8132003206CE71C4A136801338D
:1019500013601B4A1368013313601A4A136801337A
:101960001360F0E7941C00202794002028940020A6
:10197000880900201C1C0020C40600202C1C00200C
:1019800004930020281C00205F9F02005C1C0020A4
:1019900090090020F0010020581C0020501C00205D
:1019A000481C0020441C0020401C00203C1C00203F
:1019B000381C0020341C002004910020541C0020FE
:1019C0004C1C0020301C002010B58CB0FFF7CCFD63
:1019D0000446F0B101A906F00BF8E0B9069A0F4BE6
:1019E0004FF4FA711B780E4820F0CAF80D4A0E4BDE
:1019F000114613600D4B20465360012313814FF6AF
:101A0000FF73D381032313740AF012F8204605F004
:101A1000A9FA0CB010BD4FF0FF32E0E72694002089
:101A20007C9F0200801C0020C9050020A90F000037
:101A3000002008B503F02CFE014620B1074820F035
:101A40009FF8002008BD0649064824F0E0FA064841
:101A500020F096F8FFF790FAF3E700BFB39F02007B
:101A6000C9190000A0090020C19F02002DE9F84F0C
:101A70008A4600AF002974D004680E1F361BF50893
:101A800026F0070604EB0608B8F802B01BF0010BBD
:101A900016D1E94688B06A46334BCDE905310323B8
:101AA00042F8103F4FF4C2515B46304800F0A4FFAB
:101AB000CD468BF31188BFF36F8F0423184602DFE6
:101AC000294620461FF067FE284434F83030C01AFB
:101AD000854217D0E94688B06A46254BCDE9053ADC
:101AE000032342F8103F00234FF4C2511F4800F077
:101AF00083FF0023CD4683F31188BFF36F8F042348
:101B0000184602DFB8F80230294623F00103A8F88E
:101B1000023020461FF03FFE05EB000804EBC8032F
:101B20005B88DA0708D4414620461FF07DFE424616
:101B3000294620461FF0BDFEA65BAE1B04EBC60384
:101B40005B88DB0709D4314620461FF06DFE2A462C
:101B5000314620461FF0ADFE3546294620461FF08F
:101B60001FFEBD46BDE8F88F59A00200488502005F
:101B700030A002002DE9F04F91B0009302F0040371
:101B80000293C2F3C2030133840705460E46DDF813
:101B900068A00392059340F09C81041D002849D160
:101BA00001F00706341DC6F10806009B00274FF020
:101BB00004085A1E4FF0FF33B9460193BB46434613
:101BC00004970DB1009921600598002800F3D68094
:101BD0008F480099814203D38E488142C0F0CE8065
:101BE0000399601B11F0020C40F0D680B9F10F0F81
:101BF00000F2CF80002D00F0D68009F140010DEBFE
:101C0000010E0199C0F387000EF8200C0EF8101C8D
:101C1000BCF1000F00F0C38060F07F000EF8200CD4
:101C2000013709F10109C5F108014FF6DA7E0434E4
:101C300006918CE00729B8D86FF01B0011B0BDE801
:101C4000F08F7A285BD84B280FD8472857D82928F7
:101C50002ED8252850D052D8202818BF23280CBFB2
:101C60004FF0010B4FF0000B71E04C382E2846D896
:101C7000DFE800F06D454545454545454545454549
:101C800048454545454545454556454848565656B7
:101C90006D486A456D4518481845457F7C4845455F
:101CA00048457C0000204FF0000B4FF0040835E061
:101CB00001212A38C0B201FA00F010EA0E0F46D115
:101CC00010F0625C2CD110EA010B40D06046013C60
:101CD0004444B4FBF8F408FB04F425B1A3EB050C71
:101CE000A444B445A8D8002870D0059901390591BD
:101CF0005AF8041B009164E70199013901914FF0F2
:101D0000000B24E012F8010C6C2834D1002012F8EA
:101D1000023C83466C2BC8D14FF008084346D6E7F7
:101D20000AF1070A2AF0070A073424F00704FAE840
:101D300002BC35B106982044B0423FF67DAFC4E9FD
:101D400000BC4FF0000B08344FF00808434612F86F
:101D5000010F002853D0BBF1000F7FF472AF25288C
:101D6000F5D14FF0010B019B013301934FF00408B3
:101D7000ECE7584697E700208346A8E703998807D1
:101D80007FF551AF4FF0010C601BB0F5007FFFF401
:101D90002DAF6FF0150051E74FF0000CF5E70498F8
:101DA000013004903DE7BCF1000F01D0013638E767
:101DB0000298023600287FF434AF0098CDE906324D
:101DC000FEF780FBDDE9063206442AE7042B08D142
:101DD0000AF1040015B1DAF80010216082460434DB
:101DE000B5E70AF1070323F0070303F1080A1DB161
:101DF000D3E90001C4E9000108230834A7E7631B05
:101E0000B3F5806FC5D23DB9A6F10804E01815E717
:101E100024790200A0D00200029A9B0828602B704F
:101E20009DF81030AAB1EB70AF702FB1002208A856
:101E3000C5F1010C91450ED14FF0000AC5F1010327
:101E40000DF1200801930DF1300BD14512D1601B2B
:101E5000F4E66B70E8E710F8013B190608D50CEBC7
:101E6000040EB64503F07F033FF6E6AE04F8013BEF
:101E70000132DFE71FB198F90020002A17DB029B2F
:101E8000D3B11AF80B2004F8012B0022019B18197A
:101E90001044B0423FF6D0AE98F80000009904F824
:101EA000010B2046039225F091FC039A14440AF199
:101EB000010A08F10108C8E798F8002055F8223017
:101EC0000093029B009845F82230FEF7FBFA421C73
:101ED000DCE76FF00D00B1E62DE9F04F97B000AFF1
:101EE00005468A46C7E90A3249B9037846788078B8
:101EF00000EB83002844564524D8A0EB050AD7F808
:101F0000803095F8028003F00103D7F88040FB6130
:101F1000EB78B8F1000F0CBF002404F001047B62E1
:101F20001BB1D7F880309A0715D4A4B9FB6A1BB14E
:101F300051462846BA6A9847564630465C37BD46F1
:101F4000BDE8F08F441C2046FEF7BCFA0130204467
:101F50000AF1010ACFE7D7F88030C3F3C0033B6230
:101F60002B78BB619B003B616B687B61BB6905EBB8
:101F7000830BFB6A002B77D15646D844BCB11C4674
:101F80001BF8013B55F82300FEF79CFAD7F8843084
:101F9000013043B1D7F88830A34282BFD7F88430EC
:101FA00023F814000134C3450644E9D1D846D7F8D4
:101FB00080304FF0000913F0050F0CBF4FF0020BFB
:101FC0004FF0010B7B6A9945B7D298F8013008F1C0
:101FD000020855F823A0AE4B9A45C0F04C81AD4B9A
:101FE0003A6A9A452CBF002301230AB318F8021C51
:101FF0007869FB621FF0A3FDFB6AC8B1EA468AB0AC
:102000006A46A54B05937B69CDE906314FF4007311
:10201000ADF82030A14B42F8103F00234FF412518D
:102020009F4800F0E9FCD546023E09F10109C9E7E5
:1020300023B1FB6933B9A6EB0B06F6E7D7F880307E
:102040009B07F2D55046FEF73DFAD7F884304BB1E6
:10205000D7F888309C423FBFD7F88420431C22F831
:10206000143001340644E0E7002C6AD1B8F1000FC7
:102070006DD0D7F8803058076CD5C14607F14800BD
:102080004246594625F0A2FB00220BEB0803FB60F9
:102090000233796A8A425FD3D7F8802095F801B07D
:1020A000F969920704EB0B0348BF0022DBB258BF6B
:1020B0004FEA5902002940F0A680D7F8801011F0AD
:1020C000040F14BF494600216B70A970EA702846BE
:1020D000BA6A3969FB6A9847061EFFF62EAFBB69DC
:1020E00049462B707B6ABA6AEB7085F801B0FB6ACF
:1020F00085F8028007F148009847B0F10009C0F266
:10210000B6803B697A6A786A03EB4201FB68414416
:1021100003EB4000BA6AFB6AAAEB0101984700286A
:10212000C0F2A7804FF0000BB14409EB000607F1A5
:10213000380AA34569D30021BA6A0846FB6A984762
:10214000FBE644464FF0000907F1380098E74446A3
:10215000C14699E7A14697E713F8016CDFF830C153
:1021600055F8260013F8021C6045C0F08A80DFF89D
:1021700024C16045386A2CBF4FF0000B4FF0010BB3
:1021800038B17869C7E901321FF0D9FCD7E90132CB
:10219000F0B9BBF1000F1ED0F96949B1611C04F11F
:1021A000280007F13004041904F8206CCCB20FE0C9
:1021B000D7F8801049070BD509F1280007F1300C3A
:1021C00009F1010100EB0C0909F8106C5FFA81F9C3
:1021D000013202335DE7D7F880008007DED409F1D1
:1021E000280C07F1300EF44409F101000CF8101C22
:1021F00007F1580109F1020951FA80F05FFA89F9F3
:1022000000F8106CE4E700215EE71BF80A3055F88F
:10221000239087F83730D7F884302BB3D7F888303D
:102220009B4521D2D7F8843033F81B800121BA6A4C
:10223000FB6A07F13700984700281ADB0644B8F11B
:10224000000F06D14846FEF73DF900F101081FFADC
:1022500088F841464846BA6AFB6A9847002808DB76
:1022600006440BF1010B64E74FF00008DEE74E4631
:1022700063E6064661E63B6A002B3FF4DFAE0023CF
:10228000B4E6386A0028A6D04FF0000B79E700BF0B
:1022900024790200A0D0020086A002000400000100
:1022A00000850200014B1860704700BFF401002058
:1022B00080B505460E46174698461DF035F803468C
:1022C00001F05CFA0446DFF81890424649F8003005
:1022D00039463046A84754F8090001F0E7F900BF35
:1022E000080000002DE9F047058B04462807174633
:1022F0000CD501290CBF45F0100545F020052583BC
:1023000087F31188BFF36F8FBDE8F087022905F0CE
:10231000070540F0948020461FF0D3FE052864D8BE
:1023200001A353F820F000BF012300003F24000068
:10233000EB230000AD230000C7230000D9230000D9
:1023400001F007035A1F012A1FD8002221F00701BC
:10235000062BD4F8008089B2C4E9002209D1434693
:1023600003E0628B013262831B68002BF9D141F0DC
:102370000201204621831FF0A4FE4FF0000900282F
:102380006DD041F02001218369E0042B0AD121F0B6
:10239000070189B2204621831FF093FE10B141F05E
:1023A000200121834FF00008C14658E02369D3F88B
:1023B0000090238B23F0070343F006034FF000083F
:1023C000238346464BE02369D3F80490238B23F004
:1023D000070343F00403F1E72369D3F80890238B44
:1023E00023F0070343F00503E8E74FF00008C14678
:1023F000E7E7012243F00803238387F31188BFF343
:102400006F8F002A3BD1B8F1000F4AD1B9F1000F0C
:1024100002D020462C49C847EFF31187202383F3CD
:102420001288BFF36F8F238B23F008039BB22383A3
:10243000D9063FD523F01002228303F00705666911
:10244000218B002EBFF67CAF00239946D4F8008084
:1024500021F00701C4E9003341F001012183238BFE
:1024600003F0070AAA4502D0A268002AC1D1B8F138
:10247000000F02D1B9F1000FDAD00022BAE7A1684B
:102480000029C0D00D680029BDD0334652462046F1
:102490004F68B8471DB12B6829461D46F3E72B4608
:1024A000FAE74146334652462046D8F800801FF0EE
:1024B00034FEA8E79A067FF523AF23F0200222839B
:1024C00003F0070527E700BF472102002DE9F04789
:1024D000044607464FF00109DFF84C8094FAA4F552
:1024E000B5FA85F509FA05F32E0108EB05156FEA33
:1024F000030A24EA03042B7B63B158F806301B69F6
:102500006BB94644736804222846196807EA0A072B
:102510001FF012FF002CE1D13846BDE8F0872846B5
:1025200098470028F6D1ECE76885020010B5002234
:1025300088B00E490E4823F07FFF002200230024BC
:10254000CDE906230E234FF44072CDE90334CDE9E3
:102550000144084B0849009408481CF069FC0849EC
:10256000064823F0B3FD204608B010BD85250000C5
:10257000580E0020A128000090A90020D0090020BA
:1025800045A1020001481CF031B900BFA40600209B
:102590002DE9F047804621480F461FF0B1FE064660
:1025A000002833D000252846BDE8F087237B83B17F
:1025B0002368DB680BB120469847636883F8069070
:1025C00023681B69D3B963680422204619681FF089
:1025D000B3FE013610345445E8D3B8F1000FE2D011
:1025E000002DDFD02846FFF771FF0546002FF7D0FA
:1025F000002140F2391023F029FEF1E720469847E8
:102600000028E0D009FA06F31D43E2E705464FF043
:102610000109034CDFF80CA0DDE700BFBC1C002063
:102620006885020078850200014B53F8200070474E
:102630006C86020008B5034608462BB1044A1360B5
:1026400000F03AFC002008BD6FF01500FBE700BF6A
:10265000F801002010B5044C237813B903481CF08E
:10266000C5F80123237010BD29940020A406002082
:1026700010B5044609481FF043FE3CB1084BD3E8AF
:10268000EF1F0139C3E8E21F002AF8D105481DF009
:102690006FF9BDE8104004481CF0A8B8B41C002035
:1026A000B81C0020580E0020A40600200022044B75
:1026B000D3E8EF0FC3E8E12F0029F9D1704700BF3D
:1026C000B41C002070B5FFF7F1FF0546074C084E1B
:1026D000B44200D370BD63685B792BB123685B683B
:1026E00013B12946204698471034F1E76885020067
:1026F0007885020010B5044C044920461FF05BFBAE
:10270000034B1C6010BD00BFEC0500205886020082
:10271000AC1C002000230D4A10B513700C4A0D4963
:1027200013600D4A0D481360FFF784FFFFF7E2FFC7
:102730000B4B0C4918468B4200D310BD1A1A5C682B
:102740001211013222711033F5E700BF2A940020E4
:10275000B41C002040420F00B81C0020FD220200E3
:1027600068850200788502000146002200230148A6
:102770001FF042BBEC05002001481FF0D9BB00BF91
:10278000EC050020024B014618681FF02CBC00BF6E
:10279000AC1C002001481FF061BC00BFEC0500200C
:1027A000F8B5284B1B78002B4AD0FFF7E5FF04460D
:1027B000002842D1244B254D1B68002B19DD23F046
:1027C000F3FD4FF47A76A0FB060747F612220023AA
:1027D00006FB0171FDF754FED5E90032C01A40F244
:1027E000E93361EB0201984271F1000101D3FFF777
:1027F00069FFD5E9003213F57A7342F10002C5E9A9
:102800000032ECB1BDE8F840FFF7C4BF6B685B79FC
:1028100023B12B68214628461B6898471035B542DE
:10282000F4D32046FFF7AEFF094BD3E8EF1F013981
:10283000C3E8E21F002ABDD0F7E7064D064EEEE7DB
:102840000020F8BD29940020B41C0020500E002068
:10285000B81C0020688502007885020070B50D4D17
:10286000297861B90120FFF793FE0B4C0B4EB4425F
:1028700006D3FFF795FF0028FBD101232B7070BD15
:1028800063685B791BB1236820469B6898471034C6
:10289000EDE700BF2A9400206885020078850200D9
:1028A00000212DE9F8430846FFF772FE044648B3BD
:1028B00040F21B684FF0000900F060FF1A4B1B4A02
:1028C0001B58136033B11A4B1B68092B02DD1948E2
:1028D0001BF08CFF0025184F44B12046FFF7F6FD92
:1028E000044618B94FF0FF384FF0FF39FFF758FF93
:1028F000064628B9B5B90F4842464B461BF0AAFF19
:102900003546E9E74FF0FF384FF0FF39D4E72B6841
:102910009B691BB100222846114698471035BD42DD
:10292000F5D3E8E7054DFAE708000000B01C0020E9
:10293000B81C0020A40600207885020068850200EB
:1029400013B518481FF0DCFC174B1B7873B1EFF37D
:102950001184202383F31288BFF36F8FFFF720FFCA
:1029600084F31188BFF36F8F02B010BD0F4B1B684B
:10297000002BF9D050B9002200230D48CDE90023E7
:1029800047F6122200231CF0BBFFEDE70928EBD12C
:1029900007481CF0EDFF074802B0BDE810401BF0EF
:1029A00025BF00BFB81C00202A940020B01C0020C6
:1029B000580E0020A406002010B5064B04461B68E4
:1029C00098472146A06004481FF093FABDE81040E4
:1029D000FFF7B6BFF8010020EC050020044A054BC4
:1029E0009B1AB1EBD30F34BF52F83100002070476F
:1029F00060840200688502002DE9F04F8FB0C1F3BA
:102A00004A2604AF0D469046B8607B600C0D002E40
:102A100061D04FF000090A234FF0040B07F1140AAC
:102A2000FE60C7E90799C7F824900093CDF808B075
:102A3000CDF804A007F11C034A464046F968FFF7A9
:102A40004BFAB0F5006F03461CD36C468AB0D8F839
:102A5000041004AB24481A46C3E9050140F2FF7193
:102A6000D9614FF400711984204B42F8103F4FF4A4
:102A700012514B461E48FFF7BFFFA5462C37BD46F7
:102A8000BDE8F08FC0F30A0604F11700184420F0E7
:102A9000070080083B60FFF767FE66F35325044696
:102AA00080B13B6800F11001C7E908390A23F961D8
:102AB000CDE901AB009340460E4AF96807F11C03CB
:102AC000FFF70AFA66F353252A4620467B68B96861
:102AD0001FF052FCD2E704F1170020F00700800835
:102AE000FFF742FE0446EDE75AA102000400000190
:102AF000108502004B2302002DE9F04F87B00546F8
:102B0000DDE9106BDDE9127A884614469946BFB1BB
:102B100010213B465A460020CDF800A0CDF814A065
:102B2000FFF728F8B0F5006F01460BD340F2FF73B2
:102B30000221184A184807B0BDE8F04F1FF075BCD5
:102B40003946384604F0070305F00704E40044EA78
:102B5000831444EA402444EA065406F1170008446A
:102B600020F0070080080391FFF7FEFD054640B105
:102B70003FB13B465A460399CDF800A01030FEF70E
:102B8000F9FF4B4622464146284607B0BDE8F04FC4
:102B90001FF0F2BB99A1020010850200406820B12D
:102BA000034BC01A40F3CF0070474FF0FF3070471F
:102BB000608402000EB403B503AB53F8042B014646
:102BC0000448019301F00EF802B05DF804EB03B085
:102BD000704700BF8D240200CA0605D48B064CBF87
:102BE00002490349FFF7E6BF704700BFD2A10200C8
:102BF000D1A102002DE9F04F89B098469DF8509080
:102C0000159B044606930D46DDE916A3189F059211
:102C10000493B9F1000F00F0B08007F480730793BC
:102C20001FF088FB07F0020B0246002874D02046F4
:102C30007749FFF7BFFF0646BBF1000F08D017F03A
:102C4000440F6BD12A4620467249FFF7B3FF064472
:102C500007F0010353B1704B204653F829206F4B06
:102C60006F49002A08BF1A46FFF7A4FF07F48073D4
:102C7000002B07F0080318BF4FF00008002B79D095
:102C8000684B204653F829206749FFF793FF054614
:102C9000059B2BB11A4620466449FFF78BFF05447C
:102CA000B8F1000F05D0424620466149FFF782FF88
:102CB000054460483544069B1BB122465E491EF020
:102CC0000DFF049B002B00F08E80DDF8108039464C
:102CD000B8F1100F204628BF4FF010080026FFF76C
:102CE0007BFFB54250DC0026334620461AF803200D
:102CF0005249FFF75FFF0136102E4BD0710703D109
:102D000020464F49FFF756FF46453346EDD3204650
:102D10004C49FFF74FFFEEE706468DE74A4B186830
:102D2000002894D0494B4FF47A7B1B684FF03C0C41
:102D3000B5FBF3F5B5FBF0F14FF4616300FB115502
:102D40000BFB05F5B1FBF3F2B5FBF0FE03FB121133
:102D500000FB1E55B1FBFCF30BFB05F5B5FBF0F5D5
:102D60000CFB131120460091CDE901E53849FFF72E
:102D700021FF6CE707F008058AE7B8F1010F4D461F
:102D80000CBF2C48334896E720462D49FFF712FF29
:102D90000136A6E7002620462F49FFF70BFF3346F2
:102DA0001AF803202046A2F120035F2B28BF2E2211
:102DB0002A49FFF7FFFE0136102E0DD0720703D10E
:102DC00020461F49FFF7F6FEB0453346E8D82046B7
:102DD0001B49FFF7EFFEEEE7049BC244B3EB080389
:102DE00004937FF472AFB9F1000F0AD0FB0704D54A
:102DF00020460A4A0A49FFF7DDFE39462046FFF71A
:102E0000EBFE204609B0BDE8F04F1FF032BB00BF1B
:102E1000D9A10200DDA102007C860200D4A102003B
:102E2000C8AC02009086020002A2020008A20200C2
:102E30000CA202008D240200E53B000011A202005A
:102E400019A2020017A20200C41C0020C01C00200E
:102E5000E6A10200BB2402001BA202001DA2020088
:102E600042F20F7373B58B4228BF0B4605680446C8
:102E7000052168460D4A1EF0FFF90646636828469C
:102E80000B225B680A491FF0E6FA6368324669461E
:102E900028465B681FF0DFFA63681B2228465B68E0
:102EA00004491FF0D8FA02B070BD00BF23A8020089
:102EB0002CCD020010CD020000210123064A9042D1
:102EC00006D8064A01B901231360054B1860704704
:102ED000012140085B00F2E740420F00C01C0020C7
:102EE000C41C0020F8B50D460446064F4618B442EF
:102EF00001D12846F8BD14F8011BBB6801485B6886
:102F00009847F4E7487A0200014B036000207047BD
:102F1000D886020008B50348034A0021121A1FF0A0
:102F20007DFB08BD080800208C950020074808B5E7
:102F3000074A0849121A1FF073FBBDE8084006480B
:102F4000064A0749121A1FF06BBB00BF00000020A1
:102F500004080020A0D00200000000200000002093
:102F6000A0D002002DE9F04706460C4600AF00292C
:102F700036D0D1E90012E9468AB06D46A3684FF019
:102F8000050AE8461F48CDE90723CDE9050148F8C1
:102F900010AF002342464FF421511B48FFF72CFD90
:102FA000D4E90312CD466369AD461848C5E9072345
:102FB000C5E90501C5F810A0002342464FF4215190
:102FC0001148FFF719FDCD46E3690121104A0E486B
:102FD0001FF02BFAA36901210E4A0B481FF025FAB6
:102FE000012E07D1EFF305830B4A31460648103B0B
:102FF0001FF01BFA214630461BF026F9BD46BDE8FE
:10300000F08700BF56A202004085020085A20200A0
:10301000B4A20200C3A20200F1A2020030BFFFF777
:10302000FDBF00BF2DE9F04105460B4EDFF82C80B7
:10303000324606EB0807CC1B2046094924F0C6FBA4
:10304000A01942460021083C24F0E6FB2C6707F15A
:103050000800BDE8F08100BF00000000080000008B
:103060007885020010B5244C244925481FF0E5FA64
:10307000A36A99013ED5224822491FF0DEFA1E209C
:10308000A36ADA0104D51E481F491FF0D6FA1F2093
:10309000194CA36ADB0204D519481C491FF0CDFA6C
:1030A0000220A36A1C0304D5154819491FF0C5FA6C
:1030B0002120114CA36A590304D5114815491FF06A
:1030C000BCFA2220A36A9A0304D50D4812491FF0C6
:1030D000B4FA2320084CA36ADB0304D508480F493F
:1030E0001FF0ABFA2420A36A6FEA03436FEA13438D
:1030F000A36210BD1D20C3E700ED00E004A30200A1
:10310000408502001CA302002FA3020049A3020075
:1031100073A3020091A30200B6A30200D0A3020091
:1031200070B506460D46294C29492A481FF085FAF4
:10313000A36ADB0647D5274827491FF07EFA1120EE
:10314000A36A1C0704D5234824491FF076FA1220ED
:103150001E4CA36A990712D521491E481FF06DFA2B
:10316000636BA26A120609D501211E4A19481FF095
:103170005CF91EB1A36A23F08003A3621320134CF1
:10318000A36ADE0704D5134817491FF056FA142026
:10319000A36A9C0604D50F4814491FF04EFA152067
:1031A0000A4B9A6AD10658BF9A6A9A6A920642BF37
:1031B0005A6A22F400525A629A6A42F0FF029A62F4
:1031C00000232B7070BD1020BAE700BF00ED00E0B7
:1031D000FBA302004085020011A4020044A40200E7
:1031E00057A402006FA4020085A40200A4A4020058
:1031F00070B506460D46284C284929481FF01DFA8F
:10320000A36AD9043CD5264826491FF016FA172090
:10321000A36A1A0504D5224823491FF00EFA182084
:103220001D4CA36A9B0512D51D4820491FF005FAC5
:10323000A36BA26A100409D501211D4A18481FF08A
:10324000F4F81EB1A36A23F40043A3621920124CC0
:10325000A36A590504D5124816491FF0EEF91A2041
:10326000A36ADA050ED50E4813491FF0E6F91B20B4
:10327000094A936A43F47F43936200232B7070BD25
:103280001620C5E7A36A9B04F2D505480B491FF039
:10329000D4F91C20ECE700BF00ED00E0D3A402004D
:1032A00040850200E9A4020044A40200FAA402003E
:1032B00013A5020028A5020043A50200A4A4020051
:1032C0002DE9F0418AB0674B0446D3F8048000250D
:1032D00000AFC8F3080685F31188BFF36F8F02F0C3
:1032E0007F43B3F17F4F07D102F00C03082B12D1BB
:1032F0005D495E481FF0A1F900252C460023FB71B3
:10330000F31E092B00F28E80DFE803F00A84878029
:103310008C8C8C8C8C8A10074CBF0C460125EDE7F9
:10332000534952481FF089F900234E4EFB71F36A4E
:103330009A0705D54F494D481FF07FF900232DE02E
:10334000F36A002B01DA4C49F5E7F36A5B00F5D527
:103350004A4946481FF071F97369A26943F48073C2
:103360007361BFF34F8FBFF36F8F32F8023C726906
:1033700022F480727261BFF34F8FBFF36F8F03F43B
:103380007F42B2F55F4F2BD1DBB2022B28D12368ED
:1033900001213B4A35481FF048F82368FA79DAB929
:1033A00007F1080604F1200C3246206861680834F1
:1033B00003C264451646F7D17A6A002D4FD0C2F396
:1033C000080121B96FEA52226FEA42227A62184656
:1033D00007F10801FFF7C6FD2837BD46BDE8F081BB
:1033E000204B9A6AD2B222B10120F91DFFF798FE54
:1033F0000EE09A6A12F47F4F04D00120F91DFFF706
:10340000F7FE05E09B6AB3F5803F97D3FFF72AFEEE
:103410000346C3E70020F91DE8E70020F91DEEE7A9
:10342000184988E7184A18F4F87FE8468AB0174B1D
:1034300008BF13466A461649103ECDE905134FF4FE
:103440000073ADF82030134B079642F8103F00236D
:103450004FF411510548FFF7CFFAC5466EE76FF3F9
:103460000802B3E700ED00E089A5020040850200F4
:10347000B4A50200CBA50200ECA50200FAA502004B
:1034800019A6020035A602005BA5020070A5020085
:1034900059A6020004000001064B5A6942F01002CE
:1034A0005A615A6942F480625A615A6922F00802EC
:1034B0005A61704700ED00E0EFF30880EFF30981F7
:1034C00001B57246FFF7FCFE01BD00BF0B4880F35B
:1034D000088819F0EDFE202080F3118808484FF489
:1034E0000061401880F30988EFF31480022108433B
:1034F00080F31488BFF36F8F00F06AF838D700208C
:10350000F8C500201EF0040F0CBFEFF30880EFF3A6
:103510000980816911F8021C0229FFD001B57246A9
:103520001FF080F801BD00BF00B2002807DB0123B7
:103530004109034A00F01F00834042F821307047E0
:1035400000E100E000B200280CDB0122064943093B
:1035500000F01F008240203341F82320BFF34F8F3B
:10356000BFF36F8F704700BF00E100E0054B4209D9
:1035700053F82220012300F01F0003FA00F010404E
:10358000704700BF00E100E000B2002801F1010136
:10359000ACBF00F16040064B4FEA4111C9B2ABBF6E
:1035A00000F5614000F00F0080F8001319547047D7
:1035B00014ED00E0044B054A23F07F039360BFF352
:1035C0004F8FBFF36F8F70470000000000ED00E0E9
:1035D00008B5FFF7EFFF0B4AD2F8883023F47003E9
:1035E000C2F88830EFF3148323F0040383F31488C4
:1035F000BFF36F8FFFF78EFCFFF798FC00F09CF88D
:103600001AF044FF00ED00E042F8203C009B0B491B
:1036100042F81C3C019B21F0010142F8183C029B3E
:1036200042F8081C42F8143C4FF0807342F8043C06
:103630000023203A02654367704700BFB1220000B3
:1036400000B50D4B15469860026F0C4B0E461A6084
:10365000036E83F30B882C4686F309880020044B05
:1036600098472046002100220023024C20470000FA
:1036700059260200B12200003C8A0020EC1C0020E8
:103680001022014B1A61704700ED00E0054B5A69AA
:103690009B689A421FBF044A536843F080535360AB
:1036A000704700BF3C8A002000ED00E0084B9B689B
:1036B00083420BD1EFF3058343B1064B5A6842F0C6
:1036C00080525A605A6A22F400425A621BF032BE9B
:1036D0003C8A002000ED00E014498A684FF0300079
:1036E0001044EFF3098C80E8F01F202080F312884B
:1036F000BFF36F8F0E4F4FF000664A698A603E60DD
:10370000106F0C4C2060506F0023536780F31188BA
:1037100002F1300090E8F01F8CF3098802F10000FC
:1037200004B51EF092FFBDE8044070473C8A0020BB
:1037300004ED00E0EC1C00200023202040F20F12DA
:1037400010B5044CE1180133934281F80003F9D11C
:1037500010BD00BF00E100E008B5EFF30583064AA5
:10376000103B02EBC30152F8330049688847BDE8BB
:103770000840FFF78BBF00BF807A02000148006855
:1037800070470000EC1C00201FB50121094B0A4ABC
:103790000A4800F00FF90023064A0393084B012161
:1037A000019301A8D31A029300F00EF905B05DF859
:1037B00004FB00BF00000420000000203C87020042
:1037C000080800200A7A0B6810B562F304031C464F
:1037D000CB68520923F01F0343EA4203044A43F033
:1037E0000103C2F89800C2F89C40C2F8A03010BD96
:1037F00000ED00E010B50A4BD3F89030C3F3072377
:10380000013B984208D901210346064A06481EF0AA
:103810000CFE6FF0150010BDFFF7D4FFFBE700BFF3
:1038200000ED00E070A60200288502002DE9F04FAF
:103830008946144606464FF000084F4D85B0C845EE
:1038400027DAD6F804A0BAF1000F44D0BAF11F0F5E
:1038500017D91AF01F0F14D1D6F800B01BF01F0FA4
:103860000FD158461EF01BFF07460AEB0B0001382C
:103870001EF015FF874210D06FF015073F4A3B46F8
:1038800001E043463E4A01213E481EF0CEFD6FF066
:103890001504204605B0BDE8F08F17F1160FEDD0E6
:1038A000BC42EBDDC5F89870D5F89C10C5F898704F
:1038B000D5F8A03021F01F0143F01F0BD6E90032EC
:1038C0001A44994202F1FF3A1AD1D34507D1314641
:1038D000F8B21EF0EDFE08F101080C36AFE73146F4
:1038E000C5F89870D5F89C30E0B263F30402C5F8CF
:1038F0009C201EF0DDFE10F1160FC8D0441CEAE734
:10390000C5F89870D5F8A020013B23F01F0302F002
:103910001F021343D3453146E0B2C5F8A030E8D0CA
:103920001EF0C6FE10F1160FB1D0C5F89870D5F88C
:103930009C209DF808300BF1FF3B62F304038DF8E7
:103940000830D5F8A0309DF808205B0863F34712D3
:103950008DF80820D6E900321344009323F01F03AA
:103960005B44A3EB0A03013023F01F036946C0B296
:103970000393FFF73FFFBEE700ED00E0BCA60200A7
:1039800096A60200288502000522044BC3F8942065
:10399000BFF34F8FBFF36F8F704700BF00ED00E0A4
:1039A000BFF35F8F0022024BC3F89420704700BF23
:1039B00000ED00E010B5034C2278FFF737FF2070D0
:1039C00010BD00BF2C9400202DE9F74F294D8A46E9
:1039D00006464FF00008AB46274FD0451BDAD6F815
:1039E0000490B9F1000F3FD03168084601911EF0F4
:1039F00056FE0199044609EB010001381EF04FFE06
:103A000084424FF014021D4B08D002FB08F36FF004
:103A100015024BF8032003B0BDE8F08F14F1160F28
:103A20002C60F8D01978A142F5DD02FB08B0C7F888
:103A30009840C7F89840D7F89C4000F10801007BF7
:103A400064F304000871D7F8A0000C79400860F313
:103A500047140C71D7F89C1021F01F016960D7F84A
:103A6000A01021F01F01296108F1010814350C365E
:103A7000B3E700BFF01C002000ED00E02C94002014
:103A8000F0B55349534DD1F890302C68C3F3072358
:103A90009C4287B000F299800020FFF781FF4E4BD7
:103AA000C1F8C030844216D14C4D01A82C70FFF7EC
:103AB0002BFA002607464A4CB74213D100202B7838
:103AC0004349D1F89020C2F30722934277DBFFF7F6
:103AD0005BFF002046E0696801EB0011FFF772FE12
:103AE0000130DFE70199300101EB0613DA6822406B
:103AF000B2F1807F52D00AD8B2F5001F34D0B2F5AF
:103B0000800F3ED0B2F5801F12D00136D4E7B2F15B
:103B1000006F43D0B2F1805FF7D15A689B680958B3
:103B2000013B22F01F00034423F01F03012032E079
:103B30005A689B680958013B22F01F00034401208A
:103B4000844623F01F0340EA4C10CDE902218DF892
:103B5000100002A928780593FFF74CFE00282ADA06
:103B60006FF0150007B0F0BD5A689B680958013B1B
:103B700022F01F0003444FF0020C012023F01F032A
:103B8000E1E75A689B680958013B22F01F00034493
:103B9000062023F01F034FF0000CD4E75A689B68FF
:103BA0000958013B22F01F0003444FF0030C012091
:103BB00023F01F03C7E72B7801332B70A5E7C1F86B
:103BC0009830C1F8A00001337BE74FF0FF30C9E720
:103BD00000ED00E048870200AAFF44002C9400207A
:103BE0000000F0FFF0B587B007460E4614460021EE
:103BF000102268461D4623F00FFE02238DF8023086
:103C0000054B2A4621466846CDE9047601931DF00E
:103C10005DFB07B0F0BD00BFE326020008B5024B14
:103C20001B689847002008BD041D0020034B044A70
:103C30001860937843F0020393707047041D0020CE
:103C40001402002008B50649064821F00701C1F119
:103C5000005202F580221DF000FF002008BD00BFC9
:103C60001FD80120081D00204FF0FF324FF0FF3316
:103C700001481AF0C7BC00BF2402002001481AF016
:103C800033BD00BF2402002038B50546FFF7ECFF26
:103C90002A46082107481DF06FFE044628B925B1C1
:103CA000FFF76CFD0C22044B1A50FFF7E7FF20468C
:103CB00038BD00BF081D00200C00000010B50446F0
:103CC000FFF7D2FF21460348FDF7D0FEBDE81040C4
:103CD000FFF7D4BF081D002070B5A0FB015434B914
:103CE0002846FFF7D1FF064640B9304670BDFFF7C2
:103CF00045FD0C22044B00261A50F6E72A462146C1
:103D000023F08AFDF1E700BF0C00000070B54169A7
:103D10000446867A0A4D59B1437ADB0706D4242338
:103D200003FB0653DB691B689B68984700236361AC
:103D30002420214600FB0650BDE8704022F075B8F3
:103D4000E40600202422024B02FB0030704700BF33
:103D5000E40600202421827A054B01FB02331A6A13
:103D60001B7D801A1B3323F00303B0FBF3F0704775
:103D7000E406002038B52424827A064B04FB023383
:103D8000DB69D3E901240C601568FFF7E3FF04FB4E
:103D9000005038BDE40600202DE9F04385B005460B
:103DA000684690461C46039122F000FBDDE900675F
:103DB000EFF31189202383F31288BFF36F8F6B8A8F
:103DC000002B41D02A8A9A4225D900220023284676
:103DD0001AF0DAFC0446F0B189F31188BFF36F8F53
:103DE000039B002B41D032463B46684622F003FB42
:103DF0002421A27A254B204601FB0233DB6903A96B
:103E00001B681D68DDE90023A847606170BB204680
:103E1000FFF77CFF24E0698A4B1E6B8289F31188CF
:103E2000BFF36F8F2B7D2A8A2C6A1B3323F0030389
:103E3000521A02FB0344154B154AEB1A9B105343CD
:103E4000A3722B7DE372CBE789F31188BFF36F8FE9
:103E50002346424628461AF097FC04460028BFD164
:103E60000024204605B0BDE8F083636101230025EE
:103E70002381039B29466382E27A656004F118007E
:103E800023F0CAFC63692582E360EAE7E4060020C8
:103E9000398EE33870B524250C4C00B970BD037A17
:103EA0004668002BFAD0013BDBB20372002BF5D140
:103EB000C3604360837A05FB03439B6913B1984752
:103EC0003046EAE7FFF722FFFAE700BFE4060020EA
:103ED0002DE9F84F06460D4617460446A34664688A
:103EE000002CFBD14FF02409DFF878A0BBF810308C
:103EF000BBF81220DBF81410D21ADBF80C300BF1EF
:103F00000C005B1AD21AAA4228BF2A461FFA82F86E
:103F1000394642461EF06EFCB5EB08054444474462
:103F20001DD00C9B53B1DDE90A010D9A98478346D9
:103F3000A8B1014630461EF029FCD7E7B07A09FB4C
:103F400000A0C3699B6843B1AB4228BF2B4619460A
:103F5000DDE90A23FFF720FFE9E72946F8E72046D5
:103F6000BDE8F88FE406002008B5244A244B1A6007
:103F700018F008FC4FF47A612248D0F82436C3F3D5
:103F80000802C3F309434B4382F480721E4988320E
:103F900001FB02334FF4FA215B00B3FBF1F201FBAA
:103FA00012331A49B3F57A3F28BF0132C1F8042908
:103FB000D0F820364FF47A60C3F30802C3F3094304
:103FC000434342F21C5082F4807202F2172200FB3B
:103FD00002334FF47A701B0AB3FBF0F200FB12338A
:103FE0000020B3F5FA7F4FF0010328BF0132C1F87A
:103FF0001C27C1F80009C1F8003608BD0020A10740
:104000009805002000C0FF00F82A00800000125030
:1040100048B1054B054A1B68B3FBF2F35843044B08
:1040200043F00103184770479805002040420F00F5
:10403000408602000E4B402928BF402170B51D4626
:104040000C4C4618B04203F1020304D1002305F8DA
:104050001130074870BD02781209A25C03F8022CE7
:1040600010F8012B02F00F02A25C03F8012CE9E723
:104070004B9400204BCD020030B503788BB0044642
:1040800007AD032B21D8DFE803F0021A1C1E1249EA
:104090002846FCF70FFA059563781E210493A37850
:1040A0000E4A0393E3780E480293237901936379D0
:1040B0000093A3791DF0E0F809480BB030BD094921
:1040C000E6E70949E4E70949E2E70A212846084A00
:1040D0001DF0D2F8DFE700BF09A702002BA70200FE
:1040E0002D94002010A7020017A7020021A70200AC
:1040F00048CA020010B50024094B86B00948039352
:10410000CDE9044421F07DFF03AB00934FF4AF628F
:104110000A23054903481AF071FD204606B010BD78
:1041200055A70200900E002090AC002001460148E7
:104130001AF0A4BD900E00200146014821F036BFC0
:10414000900E002030B50378012B11D0022B21D026
:104150006BB90A46144B03F1100453F8045BA342F5
:1041600042F8045BF9D143881A0A8A70CB7030BDDB
:104170000A460D4B03F1100453F8045BA34242F8C6
:10418000045BF9D143681A0C180E4A700870C3F327
:104190000722EAE700F11003013913F801299842D8
:1041A00001F8012FF9D1E2E75CCD020010B51EF055
:1041B0002AFC21F085FF044608B91AF0F1FF064BEE
:1041C000D3E8AF3F0BB10A2098471CB9BDE81040B7
:1041D0001AF0FABF10BD00BF141D002038B5044608
:1041E00008481EF08FFA054648B1631EDBB21F2B4C
:1041F00096BF054A0021D15C0C301EF004FB284616
:1042000038BD00BFBC0700206CCD02000F2810B5E0
:104210000CD80D280CD90A481EF074FA044618B1BF
:1042200004210C301EF0EFFA204610BD1328F2D006
:1042300009B10448F0E70220BDE81040FFF7CEBF07
:10424000E007002050070020F0B505460E4617464F
:1042500085B0AB88012B0ED928461EF013FB04460F
:1042600048B1AB88984208D9022100930D4A034611
:104270000D481EF0E4F805B0F0BD28461EF002FB24
:104280002B688DF80800013C394602A88DF80940DA
:104290000393B0470028EED0214628461EF0E2FAEC
:1042A000D7E700BF65A70200A8840200C3681B7897
:1042B0000221024A02481EF036BC00BF90A702004D
:1042C000C084020038B5C5682B7893B9B5F80140B1
:1042D0000F21204602F098FFEB78054650B90A4AB4
:1042E000118831B96FEA04506FEA10501080074A04
:1042F000137038BD0373012102F080FE2846BDE82B
:10430000384002F02FBE00BF08930020CC9400205C
:1043100070B5C3681D787DBBB3F801600F213046CE
:1043200002F072FF044638B901213346BDE87040FF
:10433000124A13481EF0F7BB294602F05FFEA3782D
:10434000012B04D02046BDE8704002F00BBE231DB7
:10435000D3E8AF3FDB07F5D50321204602F04EFE40
:1043600003201EF0E6FD03460028EBD00221054A9B
:1043700003481EF0D8FBE5E770BD00BFB8A70200F8
:10438000C0840200DEA7020010B501210C301EF02F
:1043900071FA03780121BDE81040024A02481EF07C
:1043A000C2BB00BF04A80200C0840200014610B5D1
:1043B00008481EF0ABF90849084821F0F7FD031E34
:1043C00006DABDE810400121054A06481EF0ABBBE5
:1043D00010BD00BF3401002038030020D00F0020A2
:1043E00026A80200C08402002DE9F14FC568012112
:1043F0002E88304602F008FF044640B901213346BA
:10440000284A294801B0BDE8F04F1EF08CBBB5F832
:104410000280EE881FFA88F3AF88A3F11B022D8972
:10442000E02A1FFA86FA1FFA87F91FFA85FB04D9DA
:1044300002211E4A1C481EF076FBAAF11B03E02B4A
:1044400005D9022153461A4A17481EF06CFB44F264
:104450004812A9F5A4739BB2934205D902214B4699
:10446000144A11481EF05FFB44F24812ABF5A473E6
:104470009BB2934205D902215B460F4A0A481EF0BF
:1044800052FB2046A4F8A680A4F8A870A4F8AA605D
:10449000A4F8AC5003F000F9204601B0BDE8F04F9D
:1044A00002F060BD43A80200C084020067A80200B9
:1044B00090A80200B9A80200E0A8020073B5C56880
:1044C0000121B5F80160304602F09EFE044640B975
:1044D000012133462D4A2E4802B0BDE870401EF03F
:1044E00022BB2B781A2B19D1C378012B4AD14FF458
:1044F000804104301EF019FB43040FD4D4F88C30F3
:1045000069460093D4F89430204601931FF0CCF80C
:10451000204602B0BDE8704002F024BD2B788BBB72
:1045200040F2E242B5F803301A495343C4F88830E8
:10453000B5F80520A4F89020B5F80720A4F892203B
:10454000A3F5EA520C3A8A4204D90221124A1048D1
:104550001EF0E9FAB4F89030B3F5FA7F04D30221E3
:104560000E4A0B481EF0DFFA40F67641B4F892305E
:10457000A3F10A0292B28A4204D90221084A0448ED
:104580001EF0D1FA204603F03BF8C1E743A8020031
:10459000C084020095F03C0007A902002EA9020089
:1045A00055A9020010B5002486B003AB00934FF468
:1045B00080624FF0FF3305490548CDE90344059477
:1045C0001AF01CFB204606B010BD00BF08B2002048
:1045D000300F00200121024A02481EF09BBA00BFA2
:1045E00081A90200C08402000B46B0B50D8A00AF5D
:1045F00004462946D868FFF71DFD8AB06A46094B74
:10460000CDE90750CDE9053440F20243ADF824303E
:10461000054B4FF43251054842F8103F1EF090FA16
:10462000BD46B0BD9BA9020005000001C084020088
:1046300070B5C5680121B5F80160304602F0E4FDAF
:10464000044638B901213346BDE870400B4A0C4896
:104650001EF069BA2B783BB9D5F80330C0F8983012
:10466000D5F80730C0F89C30201D4FF400311EF003
:104670005CFA2046BDE8704002F074BC43A802001A
:10468000C08402002DE9F84FD0F80C90018A99F807
:10469000004000AFA30001338B425FD96D468AB062
:1046A0006A46CDE9073105232E484FF42151CDE963
:1046B00005042D4842F8103F1EF042FAAD46BD46B3
:1046C000BDE8F88F01212B46284A27481EF02BFA17
:1046D000013699F800309E42F1DA09EB8603B3F80F
:1046E00001500F212846B3F8038002F08DFD0446E7
:1046F0000028E7D000F1C80AB8F1000F06D06569BC
:1047000045B901211A4A18481EF004FA204602F061
:1047100029FCDDE7A2692B6895422046636108BF4A
:10472000A36102F045FB1AF061F8C5F800B0236AF6
:104730008BB9C4E90755DAE8EF3F013BCAE8E23F2D
:10474000002AF8D10021204608F1FF3802F03CFB96
:104750001FFA88F8D0E71D602562ECE70026B34613
:10476000B7E700BFBDA90200C0840200E8A90200AB
:1047700004AA020037B50446084602EBC3039A4276
:1047800002D16FF05E0010E0114611F8085BA542FF
:1047900011D1038A5178994209D908480121084A60
:1047A00000941DF04CFE6FF0150003B030BD53684F
:1047B00098470020F9E70A46E1E700BFC0840200FD
:1047C0001BAA02002DE9F0470C461AF0E9FCE56847
:1047D0002B78022B75D0042B0AD001213D4A3E488C
:1047E0001EF0A1F92046FFF755FB6FF015040EE00F
:1047F000B4F81080B8F1020F0ED84346374A364855
:1048000001211EF090F92046FFF744FB00241AF026
:10481000DBFC2046BDE8F08768783E280CD1B8F173
:10482000030F02D12E4A4346E9E7EB78012B01D072
:104830000A2B46D1032704E01EF059F90746F80772
:104840003FD504F10C0601213046D4F814A01EF027
:1048500009F8022130461EF00DF8814600783E2806
:1048600007D1E3681B78012B01D00A2B06D1032660
:1048700014E01EF03CF9C10706460FD441F268135C
:10488000184A194919481DF088F9002383F3118843
:10489000BFF36F8F0323184602DF0226144A062354
:1048A000214699F800001EF067F9B2070DD563693B
:1048B000A5EB0A0513FA85F5E560A4F81080BB079F
:1048C000A4D52046FFF772FDA0E72046FFF7E2FAE5
:1048D000F5E700BFE3AA0200C08402003DAA02007F
:1048E00059AA020079AA0200ADAA0200C6AA0200D3
:1048F000F487020010B5012104460C301DF0BAFF08
:104900002146BDE810400223014A00781EF034B968
:104910002488020073B53E481DF00DFF04460028B0
:1049200073D000F10C0528461DF0ACFF02280346A9
:1049300003D0042847D0374A03E0238A032B05D845
:10494000354A012135481EF0EEF813E004212846CF
:104950001DF090FFFF23428806882376238AC6F342
:104960000B009A42608309D0012100922B482C4A07
:104970001DF065FD2046FFF78DFA12E00F2102F0D1
:1049800043FC054610B9638B264ADAE702F062FC65
:1049900021462076320B284602F068FA284602F0BB
:1049A000E1FA214BD3F834317BB32049204821F080
:1049B000FDFA031E29DA01211E4A184802B0BDE89B
:1049C00070401EF0B0B8284602211DF053FF054686
:1049D00000783E2812D01EF08AF810F002060DD1A1
:1049E00040F69A43144A154915481DF0D6F886F347
:1049F0001188BFF36F8F0323184602DF0623214679
:104A0000104A28781EF0B8F8B4E702B070BD00BFB5
:104A1000340100208CAB0200F7AA0200C08402001F
:104A200018AB02003CAB020000000020380300205D
:104A3000D00F002026A8020079AA02005EAB020077
:104A4000C6AA02003488020010B5012104460C30C9
:104A50001DF010FF2146BDE810400923014A0078EF
:104A60001EF08AB864880200F8B50121044600AF40
:104A70000C301DF0FFFE0678002321463046104A18
:104A8000FFF778FE5F3019D1258AE0682946FFF7E5
:104A9000D1FA6C468AB06A460A4BCDE90750CDE997
:104AA000053640F20243ADF82430074B4FF4325143
:104AB000064842F8103F1EF043F8A546BD46F8BD33
:104AC000AC880200A0AB020005000001C084020017
:104AD0002DE9F74F0023804689461746DFF800A1ED
:104AE000DAE8EF4FCAE8E23F002AF9D1264644B996
:104AF000012143463B4A3C4803B0BDE8F04F1EF05D
:104B000012B82046FFF726F94FF00C0B374D0BFB80
:104B10000050438843451BD02046FFF71BF90BFB91
:104B20000050438801210093314A43462E481DF02E
:104B300086FCDAE8EF3FCAE8E26F002AF9D1002BE1
:104B40004BD01E46304603B0BDE8F04FFFF7A2B988
:104B5000A74208D020461DF0D0FD3A8AF96804F13A
:104B60000C001DF047FE2046FFF7F4F80C2707FB6A
:104B700000504368ABB1B9F1000F12D12046FFF7E6
:104B8000E9F8012107FB00504268536803F01F0059
:104B9000814010685B0900EB8300137ACBB11DF0F4
:104BA000C4FF2046FFF7D6F80C2707FB00508368A8
:104BB000002BC7D02046FFF7CDF8784305F80090CA
:104BC0002046FFF7C7F807FB0055A86819F00EFE4E
:104BD000B8E7C9431DF0B7FFE3E703B0BDE8F08FC6
:104BE00030010020D2AB0200C0840200181D00205A
:104BF000FAAB020008B501F005FC064BD3E8AF2F75
:104C000002F00B02D3E8EF1FC3E8E02F0028F9D130
:104C100008BD00BFD400002010B5C1E900239DF8F5
:104C200008300C460B72FFF795F80C22024B02FB82
:104C300000335C6010BD00BF181D0020F8B50246AF
:104C40000B4610481DF05EFD0446C0B104210C3037
:104C50001DF0BFFD2046FFF77DF80C2700260A4D0A
:104C600007FB005046802046FFF774F807FB005012
:104C700086602046FFF76EF807FB00556E60204601
:104C8000F8BD00BF98070020181D00200138C0B2F1
:104C900002289ABF014B185C00207047B6CD020075
:104CA00070B5C5680121B5F80160304602F0ACFA74
:104CB000044638B901213346BDE870400A4A0B4822
:104CC0001DF031BFE878FFF7E1FF84F8A4002879F0
:104CD000FFF7DCFF84F8A500204602F003FD204624
:104CE000BDE8704002F03EB943A80200C084020053
:104CF00029289ABF014B185C092070478CCD02000F
:104D000070B5C3680F21B3F801601D78304602F01A
:104D10007BFA044638B901213346BDE87040184A91
:104D200018481DF000BF65B12846FFF7E1FF29468E
:104D30000246204602F068FD2046BDE8704002F0C1
:104D400011B98378012B07D108F086FF20461DF0AA
:104D5000B6FE002808BF05252846FFF7C9FF2946EB
:104D60000246204602F050FD002DE5D00121064A02
:104D700004481DF0CFFE052120461EF051F9DBE767
:104D8000B8A70200C08402002DAC02002DE9F0415A
:104D9000C6680F21B6F801703578384602F034FA4B
:104DA000044638B901213B46BDE8F0411E4A1F4880
:104DB0001DF0B9BE65B12846FFF79AFF29460246A5
:104DC000204602F021FD2046BDE8F04102F0CAB8BD
:104DD000F278C37A934205D10221154A13481DF097
:104DE000A2FEF0E78378C272012B08D10AB108F065
:104DF00033FF20461DF063FE002808BF0525284626
:104E0000FFF776FF29460246204602F0FDFC002D02
:104E1000D9D00121074A05481DF07CFE0521204616
:104E20001EF0FEF8CFE700BFB8A70200C084020062
:104E300053AC02002DAC020010B5044692B04422DF
:104E4000064901A822F0C2FC102C9DBF12AB03EB57
:104E5000840454F8440C024812B010BD9885020036
:104E600082AC0200034B0146D3F84C018268926881
:104E7000104700BF000000202DE9F047042100AFDB
:104E800047481DF052FE6D4601F0BCFA88B06A46F4
:104E9000444B4FF4E6510593434B444806934FF47B
:104EA0000073ADF81C30424B424C42F8103F1DF0ED
:104EB00047FEAD46E179404B404E2046012998BF60
:104EC0001E46FFF7D9F88AB06A463D4B0790CDE9F8
:104ED00005363C4B4FF4235108933B4B334842F883
:104EE000103F1DF02DFEA246AD460125374EDFF8DE
:104EF000E080E3790AF1070A9D423ADB94F87050AA
:104F00006E462846FFF798FF8CB06A46B4F87210D8
:104F1000B4F87630CDE907514FF40075DFF8B4C02E
:104F200009932D4BCDE905C0ADF828504FF45351EE
:104F300042F8103F1D481DF003FEB54694F871601D
:104F40003046FFF779FF8AB06A46B4F874302349D7
:104F5000CDE90763224BCDE90510ADF824504FF49D
:104F60003351124842F8103F1DF0EAFDBD46BDE83E
:104F7000F0875046FFF780F8E9468AB06A4640F26B
:104F80000133CDE905650790ADF820304FF413519A
:104F9000064842F8108F1DF0D3FD0135CD46A8E735
:104FA000D40000208EAC0200A0AC0200C08402003D
:104FB0000300000100000020D3A102008AAC02001F
:104FC000ABAC02000002010304000002BAAC020014
:104FD00004000001CBAC02000600000109AD020094
:104FE000050000010048704730AD02000149024849
:104FF00020F0DCBF28030020300F002070B50546EC
:105000000C4639B1CB684A699B1A032B0ED86FF056
:10501000150509E04FF0FF304FF0FF31FFF70EFEAE
:10502000044618B96FF06805284670BD2046FEF7A3
:1050300091FE0C22164BA61802FB003303213046CA
:105040005D801DF0F2FB0580238A0121033B837004
:1050500030461DF0FEFB40F635439D420FD1204601
:10506000FFF700FF05460028DED001210346094A6C
:1050700009481DF058FD2046FEF70CFFD4E72146F5
:10508000064820F0C7FE0025FFF7B0FFCCE700BFC1
:10509000181D002040AD0200C08402003C01002029
:1050A0002DE9F04784B0804691460C4600AF71B9B7
:1050B0004FF0FF304FF0FF31FFF7C0FD044660B9FD
:1050C0006FF0680528461037BD46BDE8F087887A3E
:1050D000FEF738FE3B4B83426ED101220021384659
:1050E00020F0B1FE2046FEF735FE0C23DFF8D8A0F5
:1050F00003FB00A0876020461DF033FB01464046BD
:10510000FFF77CFF054618B12046FEF7C3FED9E73E
:10511000002338462D4A19F09DFB064690B14FF406
:10512000F1732B4A2B492C481CF037FD324641467F
:105130002A481CF032FD85F31188BFF36F8F0323DB
:10514000184602DF2046FEF705FE0C2358431AF8E6
:1051500000605EB36D468AB06A46214B0796CDE982
:105160000538204B4FF43251089340F20243ADF81A
:1051700024301D4B1D4842F8103F1DF0E1FC204635
:10518000AD46093EFEF786FE092E0CD8DFE806F094
:10519000050B0B08170B0B0B0B146FF06E0591E74B
:1051A0006FF00C058EE76FF004058BE7B9F1000F87
:1051B000AAD0C9F8004085E76FF0150582E76FF0C7
:1051C0000B057FE798070020181D0020B4C40400D9
:1051D00079AA020062AD0200C6AA02006BAD02000D
:1051E000B0AD0200D3A1020005000001C08402009E
:1051F00073B506460D4642F22F00002101AAFFF7C3
:105200004FFF044638B10121144A15481DF082FCB5
:10521000204602B070BD0198C368B3F80120328007
:10522000B3F803302B80FEF735FE3388A3F11B0261
:10523000E02A04D902210B4A09481DF074FC44F20B
:1052400048112B88A3F5A47292B28A42E0D90221B8
:10525000054A03481DF067FCDAE700BFCFAD020046
:10526000C08402006BA80200BDA80200F0B585B0A2
:1052700006460DF10301002000F05AFF0546002804
:105280004DD14FF0FF304FF0FF31FFF7D7FC07460D
:10529000002847D019210C301DF0A6FA04462946F3
:1052A000192222F0B9FA9DF80330204A237392F8AC
:1052B000111192F81031601D994294BF06F17001EE
:1052C00006F17E011DF028FC938938462380D3899E
:1052D0006380B6F88C30A4F80D30B6F88E30A4F8A0
:1052E0000F30B6F89030A4F81130B6F89230A4F828
:1052F00013300F4B01930723029301238DF80C30D9
:10530000FEF728FD0C220B4B394602FB003301AAA5
:105310005A6042F20D000022FFF7C2FE0546284601
:1053200005B0F0BD6FF06805F9E700BF0000002090
:10533000D4000020181D0020F8B50228054600AF53
:105340003DD100210246084602F030FB044680B9F8
:105350000121264A26481DF0DDFB03201DF0E9FD52
:10536000034620B10221234A21481DF0DCFBBD4643
:10537000F8BD031DD3E8AF3FDB0706D5032101F0DD
:105380003DFE204601F0EEFDE7E7403020F04BFE09
:1053900010F00C0608D116482946174A1DF0BAFB32
:1053A000314620462573EAE72046FFF75FFF0028D5
:1053B000E7D00121114A0E481DF0ACFBE1E76C4635
:1053C0008AB06A460E4B4FF41251CDE905300D4BB1
:1053D0000748079340F20133ADF820300A4B42F8FA
:1053E000103F1DF0ADFBA546C1E700BFEFAD0200C9
:1053F000C0840200DEA702000DAE020033AE020040
:105400004FAE0200D3A102000400000130B54FF0FE
:10541000FF304FF0FF3185B0FFF710FC0446B0B10C
:105420000C4B0025019307238DF80C500293FEF7D7
:1054300091FC0C22084B214602FB003301AA5A6062
:1054400042F20E002A46FFF72BFE05B030BD6FF08A
:105450006800FAE7D4000020181D00202DE9F04371
:1054600085B0002605465E4BB0F80190198849F4D6
:105470007042914204BF1E805A4B00AF08BF1E7895
:1054800000F0E2FCEB7805F10408012B08BF564B55
:10549000404614BF002493F86F401DF0B0FA414617
:1054A000B0B307F108001DF09FFAD5F81130C7F826
:1054B0000130B5F81530A7F8053001233B70E878C6
:1054C00040B9022207F1080102F070FAEB780446B5
:1054D0005BB384BB4046FEF7CFFD6C4688B06A469E
:1054E000424B4FF4E251CDE905304FF40073ADF873
:1054F0001C303F4B3F4842F8103F1DF021FB132169
:10550000A54648461DF075FB1437BD46BDE8F0833F
:1055100020461DF0CAFC014607F108001DF0FCFA08
:10552000414638461DF0F8FAC9E76FF0800132486D
:105530001DF009FBCDE7204640F2E242B5F801300C
:1055400007F1080120F8703B1DF0E6FAB5F81730B6
:1055500053430022C4F88830B5F81930A4F89030CD
:10556000B5F81B30A4F89230EB782273234AE3702D
:10557000C4F8A4204732C4F8A8204FF4A472A4F8B9
:10558000AC206BB9394604F17E001DF0C5FA217AD2
:10559000154BC1EBC101194404F177001DF0BCFAB1
:1055A0000721204601F02AFD26B10121204626735D
:1055B00001F024FD204601F089FE204601F0D2FCD6
:1055C000E378002BA0D103201DF0B3FC0346002894
:1055D0009AD002210A4A07481DF0A5FA94E700BFB5
:1055E00008930020CC940020000000206BAE020045
:1055F00003000001C0840200D400002001011B0050
:10560000DEA7020000B5C16889B0087820B109B0F2
:105610005DF804EBFFF790BEB1F801308DF80000A3
:10562000ADF80130CB7801A88DF80330B1F80B301C
:105630000431ADF81730B1F80930ADF81930B1F8D0
:105640000B30ADF81B304B7B8DF81D301DF064FA2C
:10565000084B68461A689B88CDF80B20ADF80F30D0
:10566000CDF81120ADF81530FFF7F8FE09B05DF860
:1056700004FB00BF45CD020010B5FBF789F8034BD2
:105680001B6813B1BDE81040184710BD3C1D002039
:1056900073B52A4D0646D5F84C0120F063FA48B997
:1056A0000121274A27481DF035FA6FF012042046E1
:1056B00002B070BD6FF0020105F1D4001DF043FA95
:1056C00001211DF032FA10EA010434D11E4B1E6094
:1056D0000A4605F5907020F0B6FB05F59E7020F0A7
:1056E0006BFB1A4820F08DFC6FF007034FF49662B5
:1056F00017491648009419F081FA1649134820F00A
:10570000E5FCD5F84C01144983681B6898470446AA
:1057100030B101210346114A0A481DF004FAC6E7D8
:1057200026B902B0BDE87040FBF732B805F1C400FD
:1057300019F05EFABBE76FF07704B8E700000020CD
:10574000E8AF0200C08402003C1D0020D00F002002
:1057500008B6002000B00200C547000009B00200F2
:10576000F0B5C56801212F8887B0BCB2204601F092
:105770004BFD064640B901212346274A274807B07A
:10578000BDE8F0401DF0CFB902ACD5F80220D5F845
:1057900006300194698900911FF0ADFB48B34FF0CA
:1057A000FF304FF0FF31FFF749FA054648B90121B4
:1057B0001B4A1A481DF0AEF9304601F0D3FB07B082
:1057C000F0BD12210C301DF00FF80346224623F8DD
:1057D000027B144603CC596006A98C42186022460D
:1057E00003F10803F5D1294642F21A00FFF706FC3F
:1057F000E2E74FF0FF304FF0FF31FFF71FFA0446AA
:105800000028D4D002210C301CF0EEFF2146078086
:1058100042F21B00EAE700BF43A80200C084020076
:1058200025B0020073B5C368D9789A781E8842EA19
:105830000122ADF8002059791A79B4B242EA012266
:10584000ADF80220D9799A79204642EA0122ADF8D2
:1058500004201A7A5B7A012142EA0323ADF806306C
:1058600001F0D2FC054658B901211D4823461D4AC6
:105870001DF059F9022120461DF042FA02B070BD18
:10588000694601F055FF38B91E2120461DF038FA4F
:10589000284601F067FBF1E74FF0FF304FF0FF3192
:1058A000FFF7CCF904460028F2D00E210C301CF092
:1058B0009BFF00230680C0F80A30BDF80030214667
:1058C0004380BDF802308380BDF80430C380BDF84A
:1058D0000630038142F22000FFF790FBD8E700BFBB
:1058E000C084020043A8020038B5042104460C30ED
:1058F0001CF0C0FF034640885D7818B12246197835
:10590000FFF7E6F835B1044818F070FFBDE83840FD
:10591000FFF76CBB38BD00BF20010020B0B50446C6
:10592000032100AF0C301CF0A5FFE268034611789C
:1059300040F63542B0F80100904216D16C468AB06C
:105940006A46104B1048CDE90531104B4FF4125107
:10595000079340F20133ADF820300D4B42F8103F71
:105960001DF0EEF8A546BD46B0BD1D7810B122462B
:10597000FFF7AEF8002DF6D0064818F037FFFFF716
:1059800035FBF0E73CB00200C0840200D3A1020066
:10599000040000012001002038B519F001FC2F4D52
:1059A000D5F83C31002B56D00022002305F590702D
:1059B00018F050FF00284ED10022002305F59E70FC
:1059C00018F0E2FE044668B940F6AA43244A254985
:1059D00025481CF0E2F884F31188BFF36F8F03238E
:1059E000184602DFD5F830315BB101211F4A20484B
:1059F0001DF090F8D5F83001FEF74CFA0023C5F8F9
:105A0000303120461CF0ADFEC5F830012046FFF7CE
:105A100029FA0346C8B10121164A15481DF083F83A
:105A2000154818F0E3FE2046FEF794F90C22134BBC
:105A300002FB0033588818B122461F21FFF748F8AF
:105A40002046FEF727FAFFF7D1FAFFF7CFFABDE8B5
:105A5000384019F0B9BB01F049FCF8E7000000201C
:105A600079AA020061A70200C6AA020074B002006F
:105A7000C084020040AD020020010020181D00205B
:105A800070B54FF0FF320D464FF0FF330021064650
:105A9000FEF7BCFB044660B91A230A4A0A490B48C0
:105AA0001CF07BF884F31188BFF36F8F0323184633
:105AB00002DF022104F10C001CF096FE0670457016
:105AC000204670BDB0B1020061A70200C6AA020064
:105AD000F8B506460024094DEF79E3B29F4202D89B
:105AE0006FF0010007E0294630461DF049F90735FF
:105AF000631C08B12046F8BD1C46EEE700000020FC
:105B000037B504460D4671B1284612491DF038F9E3
:105B100048B929461048C4EBC40420441DF03AF9A2
:105B2000002003B030BD68461CF050FF0028F8D1BB
:105B30006846FFF7CDFF0028F5DA074BC4EBC40039
:105B4000694618441DF026F9002DE9D00146284683
:105B5000E4E700BF38CD020000000020014BD3E88D
:105B6000AF0F7047D400002070B51A4E06223146A0
:105B7000054621F059FE38B34FF0FF304FF0FF31AA
:105B8000FFF75CF8044608B3062229460C301CF0E7
:105B900031FE2146002242F20500FFF781FA044659
:105BA00048B110F10D0F04D102210B4A0B481DF032
:105BB000EFF8204670BD33462A6843F86929AA8861
:105BC000B280012283F868200024F2E76FF06804B5
:105BD000EFE700BF69000020E6B10200C8840200C0
:105BE000064BD3E8EFCF4CF4806CC3E8E2CF002A39
:105BF000F7D1037A19430172704700BFD400002027
:105C00002DE9F341002104460222084601F0CEFEB0
:105C1000054648B120460121FFF7E2FF284602B0C1
:105C2000BDE8F04101F09EB9FFF798FF8206C0F38E
:105C3000401702D5284600F0FDFB3C4D95F8113188
:105C400083B100201DF0EAF860B10221384A3948DA
:105C50001DF09EF8002F65D0012002B0BDE8F04194
:105C600000F0E8BB95F8112195F810319A4218D14F
:105C70000221314A2F481DF08BF8002242F2290000
:105C80001146FFF70DFA10B101212C4ADFE795F814
:105C90001131013385F81131237A43F00403237263
:105CA000D8E7224604F10108414612F82E0B1DF0F8
:105CB00078F8064610B1224A01210EE095F811311C
:105CC000013385F81131237A43F00403237295F8E8
:105CD000A7305B0708D402211A4A16481DF058F86D
:105CE00001201DF09BF8B5E7414668461DF052F8CB
:105CF00001234FF0FF304FF0FF318DF80730FEF7F2
:105D00009DFF044660B1082269460C301CF072FD0C
:105D10003246214642F24E00FFF7C2F90028DFD09A
:105D2000094AC9E702B0BDE8F08100BF00000020C9
:105D3000F5B10200C88402001AB202004BB20200A0
:105D40006BB202008BB20200B5B2020000212DE955
:105D5000F84302220446084601F028FE054640B1F9
:105D600020460221FFF73CFF2846BDE8F84301F03A
:105D7000F9B8FFF7F3FE8306C0F3401802D52846B2
:105D800000F058FB00201DF049F82A4D064698B156
:105D900001210346284A29481CF047FB95F8113198
:105DA00013B101201DF03AF8B8F1000F3FD0BDE863
:105DB000F843012000F03EBB95F8113195F8102111
:105DC0009A420CD2013B85F81131237A024623F026
:105DD000040302201A49237208F022F8DEE74FF08C
:105DE000FF304FF0FF31FEF729FF04F101090746AC
:105DF00068B107210C301CF0F7FC49461CF0CAFFC3
:105E00003246394642F22800FFF74AF928B101210B
:105E10000C4A0A481CF0BCFFC0E795F81131013B61
:105E200085F81131237A23F004032372B6E7BDE825
:105E3000F88300BF00000020D0B20200C884020036
:105E4000072E0200FDB20200084BD3E8EF2F22F428
:105E50008061C3E8E01F0028F7D1530504D5002274
:105E60000220034907F0DCBF704700BFD4000020C8
:105E7000F32E0200002307B50549CDE900036A4669
:105E8000022007F0CDFF019803B05DF804FB00BFCE
