:1000000080C000206D1A00004DC10100591A000087
:10001000591A0000591A0000591A0000591A000014
:10002000000000000000000000000000A51A000011
:10003000591A000000000000791C0000591A000045
:10004000F91C0000F91C0000F91C0000F91C00005C
:10005000F91C0000F91C0000F91C0000F91C00004C
:10006000F91C0000F91C0000F91C0000F91C00003C
:10007000F91C0000F91C0000F91C0000F91C00002C
:10026000F91C0000F91C0000ED380100F91C000029
:10027000F91C0000F91C0000F91C0000F91C00002A
:10028000F91C0000F91C0000F91C0000F91C00001A
:10029000F91C0000F91C0000F91C0000F91C00000A
:1002A000F91C0000F91C0000F91C0000F91C0000FA
:1004800053B94AB9002908BF00281CBF4FF0FF31FB
:100490004FF0FF3000F00CB8ADF1080C6DE904CE60
:1004A00000F018F8DDF804E0DDE9022304B070473D
:1004B000704700BF034611F8012B03F8012B002AF7
:1004C000F9D17047034613F8012B002AFBD1181A03
:1004D000013870472DE9F0478C468E46089E154638
:1004E00004461946002B40F0D080724547D9B2FA35
:1004F00082F74FB1C7F120030EFA07FCBD40BC40A4
:1005000020FA03F343EA0C0C4FEA154EA8B2230C71
:10051000BCFBFEF80EFB18CC08FB00F943EA0C43C9
:10052000994528D9EB1808F1FF3204D2994502D930
:10053000A8F102022B44A3EB0903A4B2B3FBFEFC17
:100540000EFB1C330CFB00F044EA0344A04214D918
:100550002C190CF1FF3304D2A04202D9ACF10203F2
:100560002C44241A43EA02401EB1FC4000233460AC
:100570007360BDE8F0874246DDE76346F1E7002A95
:1005800079D0B2FA82F3002B3FD01946C1F1200393
:1005900002FA01F500FA01F42EFA03F20EFA01FE56
:1005A00020FA03F3AFB243EA0E034FEA154EB2FB53
:1005B000FEFC0EFB1C201A0C0CFB07F842EA004262
:1005C00090455AD9AA180CF1FF3004D2904502D9AF
:1005D000ACF102002A44A2EB08029BB2B2FBFEFC83
:1005E0000EFB1C220CFB07F743EA02439F4246D94D
:1005F000EB180CF1FF3204D29F4202D9ACF1020297
:100600002B44DB1B42EA004202E0AEEB0203012274
:100610004FEA154EAFB2200CB3FBFEFC0EFB1C33B1
:100620000CFB07F840EA034398452AD9EB180CF174
:10063000FF3004D2984502D9ACF102002B44A3EB61
:100640000803A4B2B3FBFEFC0EFB1C330CFB07F744
:1006500044EA0344A74216D92C190CF1FF3304D203
:10066000A74202D9ACF102032C44E41B43EA004048
:100670000F46114678E71F2188E76046ABE76246E0
:10068000BFE76046DBE76346EFE7734506D916B977
:10069000002108466DE7C6E9000EF9E7B3FA83F7D3
:1006A00087B9734501D3824207D8841A6EEB0303DE
:1006B00001209C461EB900215BE73846FAE7C6E9EF
:1006C000004CF8E7C7F1200CBB4000FA07F422FA0F
:1006D0000CF520FA0CF1BA401D432EFA0CF30EFA79
:1006E00007FE4FEA154941EA0E011FFA85FEB3FBEA
:1006F000F9F809FB18300B0C08FB0EFA43EA00432B
:100700009A4540D9EB1808F1FF3004D29A4502D936
:10071000A8F102002B44A3EB0A0389B2B3FBF9F85A
:1007200009FB183308FB0EFE41EA03418E452CD924
:10073000691808F1FF3304D28E4502D9A8F10203EB
:10074000294443EA0040A1EB0E01A0FB0298414579
:10075000CE46434602D306D14C4504D20138B9EB0C
:10076000020E68EB0503002EA5D0B4EB0E0261EB80
:10077000030101FA0CFC22FA07F3F9404CEA0303E7
:10078000C6E9003197E74046C5E74346D9E7000090
:10079000F7B5002240F60340114602F03DFA044648
:1007A000002853D102F070F9214641F2030001AA5A
:1007B00002F032FA0446002848D1019A254DD1684A
:1007C00005F17803D1F80100D1F8051003C31046F4
:1007D00001F0FCFD214641F2010001AA02F01CFAE1
:1007E000044698BB0198C3685A7885F870205A88E7
:1007F000A5F872201A7985F87120B3F80720A5F8BA
:100800007420B3F80530A5F8763001F0DFFD2146FD
:1008100041F2020001AA02F0FFF90446B0B9019FBB
:1008200005F18006FA68531C41323446186859684D
:10083000083303C493422646F7D1384601F0C6FD7B
:1008400095F87C305F0607D46FF01204204603B0A1
:10085000F0BD00BF0000002095F8AF1001AA11F014
:10086000040100F04581002142F2870002F0D4F932
:1008700004460028EAD1019ABF4FD468A31C223451
:100880003E4618685968083303C6A3423746F7D175
:10089000104601F09BFD002142F2020001AA02F085
:1008A000BBF904460028D1D1019CE368B3F80120CC
:1008B00091B241B1D97831B1A5F81421DA78AF48B5
:1008C00011461FF07AFC204601F080FD95F87C600F
:1008D00016F0200619D14FF0FF304FF0FF3102F033
:1008E000F7F80446002800F02C8102210C301BF0A0
:1008F000FBFC0123214603704670324640F66D40F2
:1009000002F08AF904460028A0D195F89C301E0711
:1009100012D5002142F21C0001AA02F07DF9044622
:10092000002893D10198C368D3F80120D3F805308B
:10093000C5E93E2301F04AFD95F8D8305C0610D594
:10094000002142F22A0001AA02F066F904460028BA
:100950007FF47CAF0198C3685B7885F8283101F09B
:1009600035FD4FF0FF304FF0FF3102F0B1F8064691
:10097000002800F0E68008210C301BF0B5FC95F84B
:10098000D84040F2022314F0400F08BF032314F0B4
:1009900002011ABF43F02C03002143F00C0302466E
:1009A000A00695F8D90048BF43F0400310F0090FA6
:1009B00095F9DF0018BF43F400630028B8BF4FF477
:1009C000806195F8E00004F00104870748BF41F416
:1009D000801143EA04101BF09CFF0022314642F2D2
:1009E000010002F019F9044600287FF42FAF95F8B2
:1009F0007C30B5F81411980600F18B80C9B941F22A
:100A0000050001AA02F008F9044600287FF41EAF91
:100A1000B5F81431019C4BB9E368B3F80120A5F88F
:100A200014219A88554811461FF0C7FB204601F053
:100A3000CDFC4FF0FF304FF0FF3102F049F8044693
:100A400000287ED008210C301BF04EFC95F8D830E1
:100A50000246D90762D44FF0005149481BF059FFB4
:100A60002146002240F6014002F0D6F80446002854
:100A70007FF4ECAE014601AA4FF6014002F0CCF83B
:100A8000044620BB019801F0A1FC21464FF602402C
:100A900001AA02F0C1F80446C8B90198C368B3F8C6
:100AA0000130A5F8C13001F091FC95F8C1305A072A
:100AB0000DD521464FF6034001AA02F0ADF830B93A
:100AC0000198C3685B7885F8C03001F07FFCEB7952
:100AD00043BB02F075FE044600287FF4B7AE04F075
:100AE0008BFA044600287FF4B1AE02F035F8ADE68B
:100AF00042F2030002F090F8044600287FF4A6AE0C
:100B0000019A1D4BD168D1F80100D1F8051003C33B
:100B1000BEE600298DD16FF0040497E614A1D1E957
:100B200000019BE72E78002ED3D195F8C1309B06AB
:100B30002AD54FF0FF304FF0FF3101F0C9FF0446D6
:100B400010B96FF0680481E606210C301BF0CCFB75
:100B5000D5F80130214603600A4B32469B888380DA
:100B60004FF6064002F058F804460028B1D06DE672
:100B70009088000200800020D8000020180100208A
:100B800010880002010000206FF085045EE600BFBF
:100B900070B5044604F066FA0A220146064614209F
:100BA00004F0C2FA054608B314230A2184F86D3014
:100BB00084F86C600C301BF097FBB4F86A3029465F
:100BC0000380A38A4380E38A8380238BC380E36905
:100BD000038120681CF0CDFD30B907A3D3E90023C1
:100BE00004F1700018F004FB002070BD6FF00B00E2
:100BF000FBE700BFAFF30080D0121300000000003D
:100C00002DE9F047044640F2712690F84C0094F824
:100C10003830C0F3400060F386138CB004F13B0120
:100C200084F8383008F002FF0021B4F84230404D1B
:100C3000404AA3FB0663651B94F83830A2FB0525E8
:100C4000A26C03F0790384F8383002F21313B34234
:100C500032BF184630460A46C4E9021121702461A9
:100C60006264606008F096FE6369C5F3871500F260
:100C70001317002B48D00DF12C0991214FF0000AD9
:100C80004FF00208CDF820900694B4F842302A4A7A
:100C90002A480792A3FB000201FB0321284BCDF851
:100CA0000CA005936368CDF82C8004931EA3D3E9B0
:100CB0000023FFF7E5FB104619464FF47A72002334
:100CC000FFF7DEFB0235EDB22A463B460321CDE9B4
:100CD0000160CDF800A0504608F032FD494609F009
:100CE00077FB054660B994F84C30404643F0010369
:100CF00084F84C3012F0D0FA28460CB0BDE8F087EA
:100D00000C200CB0BDE8F0870DF12C09CDE90A33B9
:100D100003204B4661680AAA11F060FC0028ACD1A0
:100D2000DDE90A371F44A8E700CA9A3B000000002B
:100D3000D8100020CDCCCCCC959A0000002AE784B6
:100D4000A1C300000B4607B509785A8809B90648BF
:100D500002805878019018790090DB8803481BF0D6
:100D600079F803B05DF804FBD48A0020DA3A020077
:100D700008B503481BF06EF80022024B1A7008BD3C
:100D8000283B0200F78B002008B50C4B1A78A2B95B
:100D90000B4A106888B101221A700A4A0A4B0949A5
:100DA00053604FF40073D382802204F015FBBDE83A
:100DB0000840014605481BF04DB808BDF68B0020E1
:100DC00018170020D0080020C82702003C3B020072
:100DD00008B506488A8809881BF03CF804481FF0CB
:100DE000DEFABDE80840FFF7CFBF00BF563B020068
:100DF000A00800201FB53023074A0849CDE9012388
:100E0000002301A8039302F077FF014604481BF07A
:100E100021F805B05DF804FB01006000B50F00008B
:100E2000703B020038B5002409481BF013F809484C
:100E30001FF0B5FA084D094B28681C70084B1C7050
:100E400010B103F0A1FA2C60BDE83840FFF7D2BF23
:100E5000823B0200A008002018170020F78B00201A
:100E6000F68B002037B50C464A78054609780B48C2
:100E70001AF0F0FF2378022B0DD16378022B0AD1F0
:100E8000074B01A91868019028461CF086FA014614
:100E900004481AF0DFFF03B030BD00BF9B3B0200E7
:100EA00020270200B43B020037B505460C4669B165
:100EB000124C13481AF0CEFF206803F065FA0023A5
:100EC000236003B0BDE83040FFF794BF0D481AF02F
:100ED000C1FF0D4B01A91C700C4B284601931CF05F
:100EE00072FA01460A481AF0B5FF43F60952002388
:100EF000084818F07DF903B030BD00BF1817002076
:100F0000C33B0200DA3B0200F68B00200000020225
:100F1000E93B0200A008002010B5C18C028D90B002
:100F200000F12C03D3E8AF3F048B0194C08A1A4C24
:100F300000901A481AF08EFF206888B105A903F0C6
:100F40009DFE68B9BDF82C10154801F0030301EBB4
:100F5000810203EB830303EB830392081AF07AFF09
:100F60000122104B1A70226882B10F4903AB486806
:100F7000896803C3104603A91CF0D6F99622009095
:100F800034219DF80C3009481AF064FF084817F026
:100F9000BFFE10B010BD00BF18170020F83B0200C4
:100FA000403C0200F78B002020270200753C020025
:100FB0002806002070B5054618462D4B0E461B68C6
:100FC00096B0002B46D1012A44D82A490DF11F02C0
:100FD0008DF81F301BF0E9FA9DF81F30002B39D037
:100FE0002B780AAC032B3DD8DFE803F00236383A01
:100FF00021492046FFF75EFA05946B781E21049381
:10100000AB781E4A0393EB780EA802932B790193D9
:101010006B790093AB791AF09FFA32460EA9184803
:101020001AF018FF02F0B8FE164B08AAD868196922
:10103000143303C20FCB84E80F00214628460C4B23
:1010400008AA03F0CBFE014620B10F481AF002FFB8
:10105000FFF7D0FE16B070BD0C49CAE70C49C8E7CF
:101060000C49C6E70A2120460B4A1AF075FAC3E775
:10107000181700209D100000AA3C0200D33C02007B
:10108000F63C020020270200163D0200B13C02009F
:10109000B83C0200C23C0200CC3C020010B5037810
:1010A0000C46083B012B0CD842780F2A09D106497F
:1010B000406820F03EFD034601200BB92070184621
:1010C00010BD0120FCE700BF293D02002DE9F04FD3
:1010D00000252F462E462C46ADB042F210701AF075
:1010E000ACFC384B1B78002BF7D00DF1300E72465C
:1010F0000023354931F813100133402B22F8021B2D
:10110000F7D1324BDFF8C8801B680B931C1B002300
:1011100019469B4618469C4638F8029B3EF8022B1F
:10112000A2EB090292B29946E2FB030C002B44D0D9
:101130000133934441F10001A3F140020A43EBD192
:10114000002C3DD06421A0FB010E2246002301FBB0
:101150000CE1FFF795F94FF0640CB0FBFCF21D4B6E
:10116000D3F800801C4BA8EB0606D3F800901B4B6D
:10117000A9EB0707D3F800A0194BAAEB05051988BE
:10118000184B89B21B88CDE907A59BB2CDE905971D
:10119000CDE90386CDE901B300910CFB1203214692
:1011A00011481AF057FE802209480CA920F093FC40
:1011B00055464F4646460B9C8FE701234946ABE711
:1011C0002046C8E7F78B0020007E0020FC7D002031
:1011D000548A002024170020201700201C1700200C
:1011E000008B0020D48A0020393D0200F4225821CF
:1011F00070B52E4820F095FC4FF0FF324FF0FF33D2
:101200002B4817F0B9FD4FF0FF334FF0FF3229485C
:101210001AF0FEFF044600F10C0528460B211BF0D6
:1012200058F80622284624491BF064F82146234832
:1012300004F0C8FB4FF496701AF0FFFBF42120482D
:101240001AF008FE1F4D2B78002BD5D04FF0FF333E
:101250004FF0FF3217481AF0DBFF044600F10C068E
:101260000B2130461BF035F8F422104930461BF0B4
:1012700041F82146114804F0A5FB10F10B0F0AD1EB
:10128000204601F0A3F8104A0120136801331360CF
:101290001AF0D3FBD7E7002803DA204601F096F8CE
:1012A000AAE70A4A136801331360CCE7028B0020D7
:1012B000280600207807002044270200D0080020DC
:1012C000BA3D0200F78B00202017002024170020D1
:1012D000002008B501F0A6FE014620B107481AF02B
:1012E000B9FD002008BD06481AF0B4FD05490648BE
:1012F0001FF047F8FFF77EFDF3E700BFD43D020083
:10130000E93D020037BA0100A0080020014B1B682C
:10131000184700BF08020020014B1860704700BF4B
:101320000802002030B5044685B00D461022002189
:10133000684620F0F6FB02238DF80230044B2A4663
:101340002146684601931AF031F905B030BD00BF5F
:101350000D13000080B505460E461746984618F056
:101360003FFA034600F0DAFC0446DFF818904246E4
:1013700049F8003039463046A84754F8090000F0D3
:1013800065FC00BF080000002DE9F047058B04460E
:10139000280717460CD501290CBF45F0100545F06C
:1013A0002005258387F31188BFF36F8FBDE8F08791
:1013B000022905F0070540F0948020461AF07FFDD1
:1013C000052864D801A353F820F000BFA51300003E
:1013D000E31400008F140000511400006B1400008F
:1013E0007D14000001F007035A1F012A1FD80022B4
:1013F00021F00701062BD4F8008089B2C4E900224D
:1014000009D1434603E0628B013262831B68002BE3
:10141000F9D141F00201204621831AF050FD4FF02E
:10142000000900286DD041F02001218369E0042BE0
:101430000AD121F0070189B2204621831AF03FFD2D
:1014400010B141F0200121834FF00008C14658E05F
:101450002369D3F80090238B23F0070343F006039E
:101460004FF00008238346464BE02369D3F80490ED
:10147000238B23F0070343F00403F1E72369D3F838
:101480000890238B23F0070343F00503E8E74FF0B0
:101490000008C146E7E7012243F00803238387F3EE
:1014A0001188BFF36F8F002A3BD1B8F1000F4AD1EA
:1014B000B9F1000F02D020462C49C847EFF311873D
:1014C000202383F31288BFF36F8F238B23F008034D
:1014D0009BB22383D9063FD523F01002228303F069
:1014E00007056669218B002EBFF67CAF0023994665
:1014F000D4F8008021F00701C4E9003341F0010174
:101500002183238B03F0070AAA4502D0A268002A90
:10151000C1D1B8F1000F02D1B9F1000FDAD0002229
:10152000BAE7A1680029C0D00D680029BDD03346B4
:10153000524620464F68B8471DB12B6829461D46C4
:10154000F3E72B46FAE74146334652462046D8F8A1
:1015500000801AF0E0FCA8E79A067FF523AF23F09D
:101560002002228303F0070527E700BF43BF0100E5
:10157000014B0360002070470428020008B50348AF
:10158000034A0021121A1AF0D9FD08BDA007002055
:10159000B88C0020074808B5074A0849121A1AF003
:1015A000CFFDBDE808400648064A0749121A1AF05E
:1015B000C7BD00BF000000209C070020AC47020010
:1015C0000000002000000020AC47020038B50546AE
:1015D0000C4699B1D1E901230F4809681AF03AFC89
:1015E000D4E90423E1680D481AF034FCE1690C48A1
:1015F0001AF030FCA1690B481AF02CFC012D05D122
:10160000EFF30581084810391AF024FC21462846DA
:10161000BDE8384017F00AB9323E0200623E0200CF
:10162000923E0200A23E0200D13E020030BFFFF710
:10163000FDBF00BF2DE9F04105460B4EDFF82C80C1
:10164000324606EB0807CC1B2046094920F043FA36
:10165000A01942460021083C20F063FA2C6707F1EC
:101660000800BDE8F08100BF000000000800000095
:101670001827020010B5204C20481AF0EBFBA36A93
:10168000990137D51E481AF0E5FB1E20A36ADA013E
:1016900003D51C481AF0DEFB1F20174CA36ADB029F
:1016A00003D519481AF0D6FB0220A36A1C0303D500
:1016B00016481AF0CFFB21200F4CA36A590303D51B
:1016C00013481AF0C7FB2220A36A9A0303D51148D6
:1016D0001AF0C0FB2320084CA36ADB0303D50E4895
:1016E0001AF0B8FB2420A36A6FEA03436FEA13439E
:1016F000A36210BD1D20C9E700ED00E0E53E020039
:10170000FE3E0200123F02002D3F0200583F020041
:10171000773F02009D3F0200B83F020070B5244CA5
:10172000064624480D461AF095FBA36AD90435D520
:1017300021481AF08FFB1720A36A1A0503D51F480A
:101740001AF088FB18201A4CA36A9B050FD51C4879
:101750001AF080FBA16BA36A180407D519481AF088
:1017600079FB1EB1A36A23F40043A3621920104C35
:10177000A36A590503D514481AF06CFB1A20A36A12
:10178000DA050DD511481AF065FB1B20084A936A4B
:1017900043F47F43936200232B7070BD1620CBE788
:1017A000A36A9B04F2D50A481AF054FB1C20EDE70B
:1017B00000ED00E0E43F0200FB3F02000D400200AC
:1017C000214002003B400200514002006D400200F7
:1017D0008640020070B5264C064626480D461AF093
:1017E00039FBA36AD80640D523481AF033FB1120F1
:1017F000A36A190703D521481AF02CFB12201C4CB0
:10180000A36A9A070FD51E481AF024FB616BA36ADE
:101810001B0607D51B481AF01DFB1EB1A36A23F057
:101820008003A3621320124CA36ADE0703D5164877
:101830001AF010FB1420A36A9C0603D513481AF073
:1018400009FB15200A4B9A6AD10658BF9A6A9A6A10
:10185000920642BF5A6A22F400525A629A6A42F0D1
:10186000FF029A6200232B7070BD1020C0E700BFFA
:1018700000ED00E0B6400200CD4002000D40020045
:10188000014102001A41020031410200864002007B
:101890002DE9F0415D4B04465F6800258AB0C7F32F
:1018A000080685F31188BFF36F8F02F07F43B3F111
:1018B0007F4F06D102F00C03082B13D154481AF0C5
:1018C000C9FA00252C464FF00008F31E8DF807805A
:1018D000092B00F28B80DFE803F00A7F837B898984
:1018E0008989898710074CBF0C460125EBE74948D9
:1018F000464E1AF0AFFA8DF80780F36A9A0704D5BE
:1019000045481AF0A7FA00232AE0F36A002B01DA0F
:101910004248F6E7F36A5B00F5D541481AF09AFAB7
:101920007369A26943F480737361BFF34F8FBFF390
:101930006F8F32F8023C726922F480727261BFF3D9
:101940004F8FBFF36F8F03F47F42B2F55F4F27D104
:10195000DBB2022B24D1216832481AF07BFA2368CB
:101960009DF80720CAB902AE04F12007324620686C
:101970006168083403C2BC421646F7D1099A002DAB
:1019800040D0C2F3080121B96FEA52226FEA422225
:101990000992184602A9FFF719FE0AB0BDE8F081C6
:1019A0001A4B9A6AD2B22AB101200DF10701FFF752
:1019B00011FF0FE09A6A12F47F4F05D001200DF15C
:1019C0000701FFF7ABFE05E09B6AB3F5803F9AD3B2
:1019D000FFF750FE0346C3E700200DF10701E6E7DD
:1019E00000200DF10701ECE70F488AE70F4B17F4D1
:1019F000F87F0F490F4808BF1946A6F110021AF0E8
:101A000029FA80E76FF30802C2E700BF00ED00E0AB
:101A10007F410200AB410200C3410200E5410200E8
:101A2000F44102001442020031420200514102001E
:101A30006641020056420200064B5A6942F010020B
:101A40005A615A6942F480625A615A6922F0080266
:101A50005A61704700ED00E0EFF30880EFF3098171
:101A600001B57246FFF714FF01BD00BF0B4880F3BC
:101A7000088815F01FFF202080F3118808484FF4D4
:101A80000061401880F30988EFF3148002210843B5
:101A900080F31488BFF36F8F00F06AF880C00020D5
:101AA00040AF00201EF0040F0CBFEFF30880EFF3EF
:101AB0000980816911F8021C0229FFD001B5724624
:101AC0001AF040FB01BD00BF00B2002807DB012374
:101AD0004109034A00F01F00834042F8213070475B
:101AE00000E100E000B200280CDB012206494309B6
:101AF00000F01F008240203341F82320BFF34F8FB6
:101B0000BFF36F8F704700BF00E100E0054B420953
:101B100053F82220012300F01F0003FA00F01040C8
:101B2000704700BF00E100E000B2002801F10101B0
:101B3000ACBF00F16040064B4FEA4111C9B2ABBFE8
:101B400000F5614000F00F0080F800131954704751
:101B500014ED00E0044B054A23F07F039360BFF3CC
:101B60004F8FBFF36F8F70470000000000ED00E063
:101B700008B5FFF7EFFF0B4AD2F8883023F4700363
:101B8000C2F88830EFF3148323F0040383F314883E
:101B9000BFF36F8FFFF7F2FCFFF7FCFC00F09CF83F
:101BA00016F008FF00ED00E042F8203C009B0B49D6
:101BB00042F81C3C019B21F0010142F8183C029BB9
:101BC00042F8081C42F8143C4FF0807342F8043C81
:101BD0000023203A02654367704700BF5513000099
:101BE00000B50D4B15469860026F0C4B0E461A60FF
:101BF000036E83F30B882C4686F309880020044B80
:101C000098472046002100220023024C2047000074
:101C100071C10100551300008C830020281700209B
:101C20001022014B1A61704700ED00E0054B5A6924
:101C30009B689A421FBF044A536843F08053536025
:101C4000704700BF8C83002000ED00E0084B9B68CC
:101C500083420BD1EFF3058343B1064B5A6842F040
:101C600080525A605A6A22F400425A6217F0BEBD8E
:101C70008C83002000ED00E014498A684FF03000AA
:101C80001044EFF3098C80E8F01F202080F31288C5
:101C9000BFF36F8F0E4F4FF000664A698A603E6057
:101CA000106F0C4C2060506F0023536780F3118835
:101CB00002F1300090E8F01F8CF3098802F1000077
:101CC00004B51AF04EFABDE8044070478C8300203A
:101CD00004ED00E0281700200023202040F20F121E
:101CE00010B5044CE1180133934281F80003F9D197
:101CF00010BD00BF00E100E008B5EFF30583064A20
:101D0000103B02EBC30152F8330049688847BDE835
:101D10000840FFF78BBF00BF841D02000148006828
:101D200070470000281700201FB50121094B0A4AFF
:101D30000A4800F0F7F80023064A0393084B0121F4
:101D4000019301A8D31A029300F0F6F805B05DF8EC
:101D500004FB00BF000004200000002068280200EF
:101D6000A00700200A7A0B6810B562F304031C4632
:101D7000CB68520923F01F0343EA4203044A43F0AD
:101D80000103C2F89800C2F89C40C2F8A03010BD10
:101D900000ED00E010B5074BD3F89030C3F30723F4
:101DA000013B984202D8FFF7DDFF10BD6FF0150030
:101DB000FBE700BF00ED00E02DE9F04F0F461446B1
:101DC00006464FF000084B4D85B0B84580F28E8036
:101DD000D6F80490B9F1000F35D0B9F11F0F40F2D9
:101DE000838019F01F0F7FD1D6F800A01AF01F0FC3
:101DF0007AD150461AF0DFF9834609EB0A00013820
:101E00001AF0D9F983456FD11BF1160F6CD05C45E0
:101E10006ADDC5F898B0D5F89C10C5F898B0D5F82B
:101E2000A03021F01F0143F01F0AD6E900321A4406
:101E3000994202F1FF391BD1CA4508D131465FFAF8
:101E40008BF01AF0C1F908F101080C36BDE73146F4
:101E5000C5F898B0D5F89C30E0B263F30402C5F839
:101E60009C201AF0B1F910F1160F3DD0441CEAE79E
:101E7000C5F898B0D5F8A020013B23F01F0302F06D
:101E80001F021343CA453146E0B2C5F8A030E8D07E
:101E90001AF09AF910F1160F26D0C5F898B0D5F8B7
:101EA0009C209DF808300AF1FF3A62F304038DF894
:101EB0000830D5F8A0309DF808205B0863F347127E
:101EC0008DF80820D6E900321344009323F01F0355
:101ED0005344A3EB0903013023F01F036946C0B24A
:101EE0000393FFF757FFBEE76FF01504204605B0D8
:101EF000BDE8F08F00ED00E00522044BC3F894200C
:101F0000BFF34F8FBFF36F8F704700BF00ED00E04E
:101F1000BFF35F8F0022024BC3F89420704700BFCD
:101F200000ED00E010B5034C2278FFF745FF20706C
:101F300010BD00BFF88B00202DE9F74F294D8A46D0
:101F400006464FF00008AB46274FD0451BDAD6F8BF
:101F50000490B9F1000F3FD03168084601911AF0A2
:101F60002AF90199044609EB010001381AF023F916
:101F700084424FF014021D4B08D002FB08F36FF0AF
:101F800015024BF8032003B0BDE8F08F14F1160FD3
:101F90002C60F8D01978A142F5DD02FB08B0C7F833
:101FA0009840C7F89840D7F89C4000F10801007BA2
:101FB00064F304000871D7F8A0000C79400860F3BE
:101FC00047140C71D7F89C1021F01F016960D7F8F5
:101FD000A01021F01F01296108F1010814350C3609
:101FE000B3E700BF2C17002000ED00E0F88B0020C5
:101FF000F0B55349534DD1F890302C68C3F3072303
:102000009C4287B000F299800020FFF781FF4E4B81
:10201000C1F8C030844216D14C4D01A82C70FFF796
:10202000A7FA002607464A4CB74213D100202B7866
:102030004349D1F89020C2F30722934277DBFFF7A0
:102040005BFF002046E0696801EB0011FFF78AFEA4
:102050000130DFE70199300101EB0613DA68224015
:10206000B2F1807F52D00AD8B2F5001F34D0B2F559
:10207000800F3ED0B2F5801F12D00136D4E7B2F106
:10208000006F43D0B2F1805FF7D15A689B6809585E
:10209000013B22F01F00034423F01F03012032E024
:1020A0005A689B680958013B22F01F000344012035
:1020B000844623F01F0340EA4C10CDE902218DF83D
:1020C000100002A928780593FFF764FE00282ADA99
:1020D0006FF0150007B0F0BD5A689B680958013BC6
:1020E00022F01F0003444FF0020C012023F01F03D5
:1020F000E1E75A689B680958013B22F01F0003443E
:10210000062023F01F034FF0000CD4E75A689B68A9
:102110000958013B22F01F0003444FF0030C01203B
:1021200023F01F03C7E72B7801332B70A5E7C1F815
:102130009830C1F8A00001337BE74FF0FF30C9E7CA
:1021400000ED00E074280200AAFF4400F88B002094
:102150000000F0FF08B5024B1B689847002008BD3F
:1021600040170020034B044A1860937843F00203A1
:1021700093707047401700201C02002008B50649E4
:10218000064821F00701C1F1005202F5802219F042
:102190001EFE002008BD00BF33A00220441700200F
:1021A0004FF0FF324FF0FF33014816F0BDBC00BFC7
:1021B0002C020020014816F029BD00BF2C0200208F
:1021C00038B50546FFF7ECFF2A460821074819F005
:1021D0008DFD044628B925B1FFF7A0FD0C22044B64
:1021E0001A50FFF7E7FF204638BD00BF4417002014
:1021F0000C00000010B50446FFF7D2FF214603484B
:1022000019F0EEFCBDE81040FFF7D4BF44170020E2
:1022100070B5A0FB015434B92846FFF7D1FF06463C
:1022200040B9304670BDFFF779FD0C22044B002603
:102230001A50F6E72A4621461FF073FCF1E700BF6B
:102240000C00000070B541690446867A0A4D59B108
:10225000437ADB0706D4242303FB0653DB691B68A0
:102260009B689847002363612420214600FB0650A9
:10227000BDE870401DF093BF580600202422024B99
:1022800002FB0030704700BF580600202421827AEC
:10229000054B01FB02331A6A1B7D801A1B3323F0A6
:1022A0000303B0FBF3F070475806002038B5242430
:1022B000827A064B04FB0233DB69D3E901240C600C
:1022C0001568FFF7E3FF04FB005038BD58060020F7
:1022D0002DE9F04385B00546684690461C460391BB
:1022E0001EF0F5F9DDE90067EFF31189202383F390
:1022F0001288BFF36F8F6B8A002B41D02A8A9A42D3
:1023000025D900220023284616F0D0FC0446F0B15F
:1023100089F31188BFF36F8F039B002B41D03246A6
:102320003B4668461EF0F8F92421A27A254B204648
:1023300001FB0233DB6903A91B681D68DDE900238B
:10234000A847606170BB2046FFF77CFF24E0698AE4
:102350004B1E6B8289F31188BFF36F8F2B7D2A8A06
:102360002C6A1B3323F00303521A02FB0344154B60
:10237000154AEB1A9B105343A3722B7DE372CBE7F4
:1023800089F31188BFF36F8F23464246284616F023
:102390008DFC04460028BFD10024204605B0BDE8CE
:1023A000F0836361012300252381039B2946638217
:1023B000E27A656004F118001FF0B3FB63692582BF
:1023C000E360EAE758060020398EE33870B524252B
:1023D0000C4C00B970BD037A4668002BFAD0013B63
:1023E000DBB20372002BF5D1C3604360837A05FB37
:1023F00003439B6913B198473046EAE7FFF722FF92
:10240000FAE700BF580600202DE9F84F06460D46B2
:1024100017460446A3466468002CFBD14FF02409FC
:10242000DFF878A0BBF81030BBF81220DBF81410EE
:10243000D21ADBF80C300BF10C005B1AD21AAA424C
:1024400028BF2A461FFA82F83946424619F052FF41
:10245000B5EB0805444447441DD00C9B53B1DDE95E
:102460000A010D9A98478346A8B10146304619F0F3
:1024700013FFD7E7B07A09FB00A0C3699B6843B19B
:10248000AB4228BF2B461946DDE90A23FFF720FFA0
:10249000E9E72946F8E72046BDE8F88F580600200E
:1024A00008B5244A244B1A6014F06EFC4FF47A618C
:1024B0002248D0F82436C3F30802C3F309434B4340
:1024C00082F480721E49883201FB02334FF4FA21F4
:1024D0005B00B3FBF1F201FB12331A49B3F57A3F0B
:1024E00028BF0132C1F80429D0F820364FF47A60B1
:1024F000C3F30802C3F30943434342F21C5082F47E
:10250000807202F2172200FB02334FF47A701B0A2A
:10251000B3FBF0F200FB12330020B3F5FA7F4FF06B
:10252000010328BF0132C1F81C27C1F80009C1F816
:10253000003608BD0020A1078C05002000C0FF0068
:10254000F82A00800000125048B1054B054A1B686C
:10255000B3FBF2F35843044B43F0010318477047B1
:102560008C05002040420F00B027020010B5002467
:10257000094B86B009480393CDE904441DF0FBFEE6
:1025800003AB00934FF4AF620A230549034816F0EA
:1025900091FD204606B010BD794202009809002046
:1025A000B89A00200146014816F0C4BD98090020E1
:1025B000014601481DF0B4BE9809002030B50378EB
:1025C000012B11D0022B21D06BB90A46144B03F119
:1025D000100453F8045BA34242F8045BF9D143882A
:1025E0001A0A8A70CB7030BD0A460D4B03F11004F5
:1025F00053F8045BA34242F8045BF9D143681A0C18
:10260000180E4A700870C3F30722EAE700F11003BE
:10261000013913F80129984201F8012FF9D1E2E7B5
:102620008844020010B519F064FF1DF003FF044652
:1026300008B917F011F8064BD3E8AF3F0BB10A20E9
:1026400098471CB9BDE8104017F01AB810BD00BF7C
:102650005017002038B50446084819F0D9FD054642
:1026600048B1631EDBB21F2B96BF054A0021D15C27
:102670000C3019F048FE284638BD00BF3007002056
:10268000984402000F2810B50CD80D280CD90A4820
:1026900019F0BEFD044618B104210C3019F033FEC8
:1026A000204610BD1328F2D009B10448F0E70220FB
:1026B000BDE81040FFF7CEBF54070020C40600203D
:1026C00038B5C5682B7893B9B5F801400F2120467D
:1026D00001F05AFFEB78054650B90A4A118831B922
:1026E0006FEA04506FEA10501080074A137038BD2B
:1026F0000373012101F094FE2846BDE8384001F043
:1027000043BE00BFD68A0020F98B002010B50024FC
:1027100086B003AB00934FF480624FF0FF3305495E
:102720000548CDE90344059416F0C4FC204606B0E4
:1027300010BD00BF30A00020380A002010B50121D4
:1027400004460C3019F00CFE2146BDE81040002371
:10275000014A00781AF070B8AC29020010B50121C6
:1027600004460C3019F0FCFD2146BDE810400B2357
:10277000014A00781AF060B85429020070B5314857
:1027800019F05FFD044600285AD000F10C052846D8
:1027900019F0EEFD022805D004282FD02046FFF7BF
:1027A00015FE21E0238A032BF8D90421284619F0CD
:1027B000D7FDFF22438806882276228AC6F30B00C3
:1027C0009A426083EAD10F2101F0DEFE054600281F
:1027D000E4D001F0F5FE21462076320B28461AF0AF
:1027E0001CFC284601F0D0FD174BD3F84C313BB30D
:1027F000BDE87040154916481DF092BD28460221DB
:1028000019F0AEFD054600783E2812D019F00CFFF5
:1028100010F002060DD140F69A430E4A0E490F48B9
:1028200019F025FB86F31188BFF36F8F0323184639
:1028300002DF062321460A4A287819F0FDFFADE79A
:1028400070BD00BF4C0100200000002040030020AC
:10285000D80A002082420200B6420200E44202008E
:102860002429020010B5012104460C3019F078FD2E
:102870002146BDE810400223014A007819F0DCBF70
:10288000142902002DE9F0470C4616F0E5FEE56834
:102890002B78022B67D0042B05D02046FFF796FD3E
:1028A0006FF0150408E0B4F81080B8F1020F08D8F2
:1028B0002046FFF78BFD002416F0E2FE2046BDE81F
:1028C000F08768783E2809D1B8F1030FF0D0EB7893
:1028D000012B01D00A2B46D1032704E019F0A4FEF6
:1028E0000746F8073FD504F10C0601213046D4F81D
:1028F00014A019F02DFD0221304619F031FD81465A
:1029000000783E2807D1E3681B78012B01D00A2B01
:1029100006D1032614E019F087FEC10706460FD43E
:1029200041F26813164A1749174819F0A0FA002314
:1029300083F31188BFF36F8F0323184602DF02264B
:10294000124A0623214699F8000019F075FFB207D4
:1029500012D56369A5EB0A0513FA85F5E560A4F8BD
:102960001080BB07A7D52146094819F055FC094935
:1029700009481DF0D5FC9EE72046FFF727FDF0E74C
:102980008242020001430200E4420200E428020005
:102990004C01002040030020D80A00202DE9F04718
:1029A000884616468246002868D00023DFF8D0907B
:1029B000D9E8EF4FC9E8E23F002AF9D1002C5DD0F9
:1029C0002046FFF763FC0C232E4D274603FB0050E7
:1029D000438853450DD0D9E8EF3FC9E8E27F002A8C
:1029E000F9D1002B4AD01F463846BDE8F047FFF723
:1029F000EDBCA64208D0204619F005FC328AF168E9
:102A000004F10C0019F076FC2046FFF73FFC0C2681
:102A100006FB00504368ABB1B8F1000F12D120465D
:102A2000FFF734FC012106FB00504268536803F0B5
:102A30001F00814010685B0900EB8300137ACBB163
:102A400019F02FFE2046FFF721FC0C2606FB005054
:102A50008368002BC8D02046FFF718FC704305F8A8
:102A600000802046FFF712FC06FB0055A86816F010
:102A70004FF9B9E7C94319F0F6FEE3E7BDE8F0877F
:102A8000480100205417002008B500F0DBFF064B7A
:102A9000D3E8AF2F02F00B02D3E8EF1FC3E8E02F1B
:102AA0000028F9D108BD00BFD400002010B5C1E94D
:102AB00000239DF808300C460B72FFF7E7FB0C2251
:102AC000024B02FB00335C6010BD00BF54170020B6
:102AD000F8B502460B46104819F09AFB0446C0B1FF
:102AE00004210C3019F0F5FB2046FFF7CFFB0C2733
:102AF00000260A4D07FB005046802046FFF7C6FB24
:102B000007FB005086602046FFF7C0FB07FB00551F
:102B10006E602046F8BD00BF0C070020541700204F
:102B20000138C0B202289ABF014B185C00207047E0
:102B3000E244020029289ABF014B185C0920704723
:102B4000B8440200034B0146D3F8640182689268DE
:102B5000104700BF0000002008B50421034819F009
:102B6000A0FDBDE8084000F06DBF00BFD40000200C
:102B7000004870471A430200014902481DF0D0BBCB
:102B800030030020380A002070B505460C4639B1E4
:102B9000CB684A699B1A032B0ED86FF0150509E024
:102BA0004FF0FF304FF0FF31FFF792FF044618B9A6
:102BB0006FF06805284670BD2046FFF767FB0C22C2
:102BC000134BA61802FB0033032130465D8019F039
:102BD000A2FB0580238A0121033B8370304619F054
:102BE000AEFB40F635439D4209D12046FFF7AAFFD0
:102BF00005460028DED02046FFF7E8FBDAE721464D
:102C000004481DF0C1FA0025FFF7B6FFD2E700BF68
:102C100054170020540100202DE9F04306461746C2
:102C20000C4685B069B94FF0FF304FF0FF31FFF728
:102C30004FFF044658B96FF06805284605B0BDE857
:102C4000F083887AFFF71AFB304B834257D1012279
:102C5000002168461DF0B1FA2046FFF717FB0C2350
:102C6000DFF8AC9003FB0090C0F808D0204619F0C4
:102C7000FEFA01463046FFF787FF054618B12046A9
:102C8000FFF7A4FBD9E700236846224A16F074F840
:102C9000804690B14FF4F1731F4A2049204819F043
:102CA000E6F8424631461F4819F0E1F885F31188ED
:102CB000BFF36F8F0323184602DF2046FFF7E6FAC3
:102CC0000C23584319F80060AEB12046093EFFF7C7
:102CD0007DFB092E0CD8DFE806F0050B0B08150B61
:102CE0000B0B0B126FF06E05A7E76FF00C05A4E756
:102CF0006FF00405A1E7002FC1D03C609DE76FF0A5
:102D000015059AE76FF00B0597E700BF0C07002049
:102D100054170020B4C40400824202002C43020075
:102D2000E442020035430200F0B585B006460DF1DD
:102D30000301002000F02EFD054600284DD14FF084
:102D4000FF304FF0FF31FFF7C3FE0746002847D0A2
:102D500019210C3019F0C8FA0446294619221EF030
:102D6000E0FE9DF80330204A237392F8291192F86F
:102D70002831601D994294BF06F1700106F17E0171
:102D800019F064FC938938462380D3896380B6F8B0
:102D90008C30A4F80D30B6F88E30A4F80F30B6F8A9
:102DA0009030A4F81130B6F89230A4F813300F4BDD
:102DB00001930723029301238DF80C30FFF766FA85
:102DC0000C220B4B394602FB003301AA5A6042F237
:102DD0000D000022FFF720FF0546284605B0F0BD94
:102DE0006FF06805F9E700BF00000020D400002064
:102DF0005417002030B54FF0FF304FF0FF3185B051
:102E0000FFF766FE0446B0B10C4B00250193072383
:102E10008DF80C500293FFF739FA0C22084B21462B
:102E200002FB003301AA5A6042F20E002A46FFF765
:102E3000F3FE05B030BD6FF06800FAE7D400002063
:102E4000541700202DE9FF41002605464C4BB0F8F1
:102E50000170198847F47042914204BF1E80494BAB
:102E600005F1040408BF1E7800F07AFAEB782046DA
:102E7000012B0ABF444B4FF0000893F86F8019F004
:102E800034FB2146F0B102A819F024FBD5F811302B
:102E9000CDF80130B5F81530ADF8053001238DF8C7
:102EA0000030E87838B9022202A901F0C5FEEB78BB
:102EB00004469BB1C4B91321384619F017FE04B07B
:102EC000BDE8F08140461AF00CF8014602A819F05E
:102ED000BDFB2146684619F0B9FBE2E76FF08001BF
:102EE0002A4819F0C0FCE5E7204640F2E242B5F876
:102EF000013002A920F8703B19F0A8FBB5F8173093
:102F000053430022C4F88830B5F81930A4F8903043
:102F1000B5F81B30A4F89230EB7822731C4AE370AA
:102F2000C4F8A4204732C4F8A8204FF4A472A4F82F
:102F3000AC206BB9694604F17E0019F087FB217A59
:102F4000114BC1EBC101194404F1770019F07EFB6C
:102F50000721204601F064FA26B10121204626739C
:102F600001F05EFA204601F05DFB204601F00CFA0C
:102F7000E378002BA3D1032019F0F7FF9FE700BFF0
:102F8000D68A0020F98B002000000020D400002009
:102F900001011B0000B5C16889B00B7833B1022B69
:102FA0002ED109B05DF804EB19F07ABD8DF8003030
:102FB000B1F8013001A8ADF80130CB7804318DF8BB
:102FC0000330B1F80730ADF81730B1F80930ADF87B
:102FD0001930B1F80B30ADF81B304B7B8DF81D303C
:102FE00019F034FB084B68461A689B88CDF80B2013
:102FF000ADF80F30CDF81120ADF81530FFF722FFF6
:1030000009B05DF804FB00BF8244020010B5FDF773
:10301000BFFB034B1B6813B1BDE81040184710BD40
:103020006C17002073B5254D0646D5F864011CF0D9
:1030300050FF00283BD06FF0020105F1D40019F0D9
:1030400012FC012119F02DFB10EA010432D11C4BB6
:103050001E600A4605F59C701DF0AFF805F5AA70D4
:103060001DF064F817481DF086F96FF007034FF460
:10307000966215491348009416F01CF8134911483C
:103080001DF0DEF9D5F86401114983681B68984783
:10309000044648B926B902B0BDE87040FDF778BBD8
:1030A00005F1C40016F000F8204602B070BD6FF0C4
:1030B0001204F9E76FF07704F6E700BF0000002084
:1030C0006C170020D80A002030A400207A430200A8
:1030D0008528000038B5032104460C3019F040F96A
:1030E00040F635420346B0F8010090420DD01D78FD
:1030F000E36822461978FFF751FC35B1034815F013
:1031000007FEBDE83840FFF737BD38BD3801002065
:1031100038B516F0A1FA284DD5F85431002B48D017
:103120000022002305F59C7015F026FE002840D1F2
:103130000022002305F5AA7015F0B8FD044668B911
:1031400040F6AA431D4A1E491E4818F090FE84F31B
:103150001188BFF36F8F0323184602DFD5F84801AB
:1031600020B1FFF733F90023C5F84831204619F0A4
:103170007EF8C5F848012046FFF7E4FC98B11248F4
:1031800015F0C6FD2046FFF781F80C220F4B1F21DA
:1031900002FB003022464088FFF700FC2046FFF784
:1031A00015F9FFF7E9FCFFF7E7FCBDE8384016F03A
:1031B00067BA01F047FAF8E70000002082420200F7
:1031C00083430200E442020038010020541700202B
:1031D00038B5042104460C3019F0C2F8457801785E
:1031E00022464088FFF7DAFB35B1044815F090FD20
:1031F000BDE83840FFF7C0BC38BD00BF3801002033
:1032000070B54FF0FF320D464FF0FF3300210646F8
:10321000FFF738FA044660B91A230A4A0A490B48EC
:1032200018F025FE84F31188BFF36F8F032318462F
:1032300002DF022104F10C0019F056F80670457007
:10324000204670BD8743020083430200E44202002F
:10325000F8B506460024094DEF79E3B29F4202D843
:103260006FF0010007E02946304619F0A7FD073549
:10327000631C08B12046F8BD1C46EEE700000020A4
:1032800037B504460D4671B12846124919F096FD2E
:1032900048B929461048C4EBC404204419F096FDEF
:1032A000002003B030BD684619F006F90028F8D1B7
:1032B0006846FFF7CDFF0028F5DA074BC4EBC400E2
:1032C0006946184419F082FD002DE9D001462846D0
:1032D000E4E700BF7544020000000020014BD3E882
:1032E000AF0F7047D400002070B5144E062231464F
:1032F00004461EF01EFCE0B14FF0FF304FF0FF31EE
:10330000FFF7E6FB0546A8B1062221460C3018F06F
:10331000F1FF0022294642F20500FFF77DFC40B98B
:103320003346226843F86929A288B280012283F8D3
:10333000682070BD6FF06800FBE700BF69000020E7
:10334000064BD3E8EFCF4CF4806CC3E8E2CF002A01
:10335000F7D1037A19430172704700BFD4000020EF
:10336000084BD3E8EF2F22F48061C3E8E01F002868
:10337000F7D1530504D500220220034904F0FEBE14
:10338000704700BFD40000202BCF0100002307B5F9
:103390000549CDE900036A46022004F0EFFE0198DA
:1033A00003B05DF804FB00BF87CE01002DE9F341B7
:1033B000044670B1434D95F8282195F829310AB19A
:1033C0009A4209D2013385F82931237A43F0040364
:1033D000237202B0BDE8F08100210222084601F00C
:1033E0002BFC064648B120460121FFF7A9FF3046D5
:1033F00002B0BDE8F04100F0C7BFFFF76FFF8206E3
:10340000C0F3401702D5304600F034FB95F829315F
:10341000B3B995F8292195F828319A421DD1002297
:1034200042F229001146FFF7F7FB70B995F82931F0
:10343000013385F82931237A43F00403237204E031
:10344000002019F007FD0028E3D0002FC1D0012093
:1034500002B0BDE8F04100F00DBB224604F10108C6
:10346000414612F82E0B19F0B8FC064630BB95F811
:103470002931013385F82931237A43F0040323727B
:1034800095F8A7305B0719D54146684619F09EFCB0
:1034900001234FF0FF304FF0FF318DF80730FFF779
:1034A00017FB044650B1082269460C3018F022FF81
:1034B0003246214642F24E00FFF7AEFB012019F0E2
:1034C000C9FCC2E7000000202DE9F843044600B320
:1034D0003A4D95F8282195F8293192B1013293425D
:1034E00010DC00210222084601F0A6FB064690B13E
:1034F00020460221FFF724FF3046BDE8F84300F0E4
:1035000043BF13B1013B85F82931237A23F004032B
:103510002372BDE8F883FFF7E1FE8306C0F340188D
:1035200002D5304600F0A6FA002019F093FC0746B9
:1035300088B995F8293195F828219A4219D2013B8A
:1035400085F82931237A024623F0040302201C491E
:10355000237204F013FE95F8293113B1012019F0FC
:1035600079FCB8F1000FD4D0BDE8F843012000F099
:1035700081BA4FF0FF304FF0FF31FFF7A9FA04F1A5
:10358000010906460028E6D007210C3018F0ACFEF1
:10359000494619F01BFC3A46314642F22800FFF733
:1035A0003BFB0028D7D195F82931013B85F829311B
:1035B000237A23F004032372CDE700BF000000202C
:1035C0003FCE010070B5044611B16FF0150070BD1B
:1035D000D8B1204919F0F2FBB8B92046FFF738FE00
:1035E000002830DA23784BB91B48C2795ABB2146F0
:1035F00019F0ECFB0123C3711046E8E7012BE4D17D
:10360000A37903F0C003C02BDFD1134DEB79012B5D
:103610001CD0FFF763FEC30707D4002CD5D020468B
:103620000C4919F0CBFB0028CFD1EE792146731C51
:103630003046EB71FFF724FE08B93046C7E7EB7957
:10364000013BEB71C3E76FF07700C0E76FF00B0051
:10365000BDE700BF75440200000000202DE9F341E2
:103660000446D8B1002141F2090001AAFFF7D4FABB
:10367000054698B9019E0622D6F80C80104908F13B
:10368000010738461EF055FA28B1062238460D4982
:103690001EF04FFA30B93046FEF798FE002002B017
:1036A000BDE8F081D8F801303046C4F80130BB885D
:1036B0002570A4F80530FEF789FE0120EFE700BF72
:1036C000824402007C44020007B56846FFF7C6FF4B
:1036D000044BD87118B169460020FFF7D1FD03B043
:1036E0005DF804FB00000020F0B5294D89B0EE79AB
:1036F000002E46D195F8C230DB0722D56A46314606
:103700004FF60940FFF788FAD8B9DDF800C0DCF8B9
:103710000C406378012B1E4628BF012673B1A31C01
:1037200002AA1234174618685968083303C7A3421F
:103730003A46F7D1186838609B88BB806046FEF730
:1037400045FEEE71002416260127EB79E0B298427F
:1037500002D3B3B1002012E008AB06FB003353F8EC
:10376000182C33F8143C6946CDF80120ADF805302B
:103770008DF80070FFF784FD01340028E5D009B012
:10378000F0BD0021084609B0BDE8F040FFF71ABFC0
:103790000000002038B50C4661B108480578012DBD
:1037A00005D10130FFF7A0FD00B9257038BD00201C
:1037B0000870FBE76FF01500F8E700BF000000207D
:1037C00010B50A4CE3790BB1002010BDFFF77CFF68
:1037D0000028FAD1E379002BF6D1FFF785FF002806
:1037E000F3D1601CBDE81040FFF77EBD0000002053
:1037F00070B505460E464FF0FF304FF0FF3186B0F2
:10380000FFF766F90446A0B102210C3018F06CFDF8
:10381000094A4670057003A9204605230095FFF765
:1038200045F90022214642F20C00FFF7F5F906B0F7
:1038300070BD6FF06800FAE7D400002008B50C4BAB
:103840000246400903EB800019F08CFB02F01F03D5
:1038500040FA03F313F0010006D122B9054819F02C
:1038600081FB40F3C01008BD6FF07700FBE700BF9D
:1038700070170020D4000020084A430902EB83029D
:10388000012300F01F008340DB43D2E8EF0F184014
:10389000C2E8E10F0029F8D1704700BF701700207F
:1038A00030B587B000220023604815F03DF904468A
:1038B000002840F098805E4819F054FB10F0010396
:1038C0005B4D4DD02B1D93E8070006AB03E90700C5
:1038D000584819F047FBC0F34013554819F042FB14
:1038E0000446002872D07BB10C2253490DEB020034
:1038F0001EF01FF90446002872D000210846FFF789
:1039000077FF044600286BD14A4819F02BFB42058B
:1039100001D5FFF725FD0023ADF80930BDF80E30C5
:103920009DF80C00ADF80530BDF810308DF804009E
:10393000ADF80730431E58420DF10901584119F006
:1039400004FB044600284BD14FF0FF304FF0FF310D
:10395000FFF7BEF80546002848D16FF068043FE045
:10396000344819F0FFFA10F0800F344A0ED04FF4AB
:1039700080749089D1891269ADF80C40ADF80E00C1
:10398000ADF81010ADF812300592A1E72C4C03AB46
:103990002068616803C3A068186092F8D930244891
:1039A0001C0744BF05238DF80D3019F0DBFA8007A2
:1039B00006D53023ADF810306023ADF80E3087E720
:1039C0001B4819F0CFFA4107F3D481E743B1014610
:1039D000FFF70EFF044618B9174B2861C3E9010031
:1039E000124815F013F9204607B030BD072201A98F
:1039F0000C3018F07FFC2246294642F20B00FFF7FC
:103A00000BF904460028EBD19DF80D10012001F0C0
:103A10000101FFF7EDFE04460028E1D1064B06AA9E
:103A200012E9070083E80700DAE700BF8C170020DF
:103A300070170020D4000020801700200000002014
:103A4000602702004422002110B508481EF069F8E2
:103A5000064B03F11C001C461CF0E1FA04F1300097
:103A60001CF0DDFA0022024B1A6010BD7017002016
:103A7000BC170020044B0038597C18BF012001F00E
:103A80000101FFF7B5BE00BF70170020032838B54D
:103A9000054603D1BDE83840FFF702BFFFF7CEFE71
:103AA0000446A8B90B4B6A0903EB8203012205F017
:103AB0001F018A40D3E8EF0F1043C3E8E10F00294C
:103AC000F8D1FFF7EDFE044610B12846FFF7D4FE0B
:103AD000204638BD701700202DE9F04F00F10C088A
:103AE0008BB00446404618F043FC06467D4819F06A
:103AF00039FA00F001037B48039319F033FAC0F35D
:103B00008003029316B90BB0BDE8F08F039B13B985
:103B1000029B002BF7D0238A082BF4D909214046B9
:103B200018F01EFC037A228A01339A420546EAD332
:103B30000123ADF824307F238DF81E30037A471C13
:103B400003445B7A8DF81D30FF238DF81C30002371
:103B5000ADF822300278042A98BF634B8DF81F20FD
:103B600098BF9B5CADF82030037A5E48019319F052
:103B7000F9F900F001095B4819F0F4F98246B9F14E
:103B8000000F0BD0BDF820305A0707D5297A4046E0
:103B90000131013E18F0DCFBF6B2B3E7384618F00D
:103BA000A4FC0DF1100B00284FD03946584618F0F0
:103BB00091FCB9F1000F02D11AF0040F59D14B4B0F
:103BC000D3F800A0BAF1000F14D0E2686369B4F82A
:103BD00010B0A2EB0309019B9DF81F2023829DF9E1
:103BE0001D10434604A8D0476369A4F810B013FA27
:103BF00089F3E36004AB06933D4B1B68002B36D082
:103C000053F80899B9F1000F01D0A9F108091A6811
:103C10008AB1E1686269B4F810B0A1EB020A019AB6
:103C2000414622821B6806A898476369A4F810B031
:103C300013FA8AF3E360B9F1000F18D0D9F808201D
:103C400002B1083A4B469146E1E76B78FF2B09D168
:103C5000284B186804909A889B79ABF804208BF85D
:103C60000630A6E7394619F03CF90346F1E7002390
:103C700006931C48BDF8203019F074F910F00109C2
:103C800084D1DB0782D50322484604A900F0D4FF83
:103C9000824600283FF47AAF022019F066F9D5F881
:103CA00001305046CAF87E30BB88AAF88230BB7912
:103CB0008AF8843018F0F2FE60B11F23494650465E
:103CC0008AF80C3000F0ACFB504600F05DFBFFF7CB
:103CD000E7FD5BE75046022100F0A2FB504600F0F2
:103CE00053FB53E770170020E5440200BC17002087
:103CF000B417002075440200F8B50546224819F0B3
:103D000031F943070F463CD52A78012A03D96FF0D1
:103D100015042046F8BD6B780F2BF8D843F6FC74D9
:103D20006888031F9BB2A342F1D8A9880B1F9BB2DE
:103D3000A342ECD88842EAD37AB900220023134880
:103D400014F0F2FE04460028E3D1FFF777FD0446A5
:103D500040B10E4814F05AFFDBE719F0E4F80028F0
:103D6000EBD1D4E728686968094E0A4B03C6A868F6
:103D70001F6030602046FFF789FE044606F12400EC
:103D8000E8E76FF00A04C4E7D4000020A017002081
:103D900074170020BC1700200020024B186019F097
:103DA000E4B800BFBC17002008B5034819F0DAF8E2
:103DB00000F0010008BD00BF7017002070B59AB078
:103DC0001422002104A81DF0ACFE47F21213ADF836
:103DD0000C304FF4807344F20102ADF80E30304BDA
:103DE00001A903A8CDE9052316F0D0F9F0B11F25EC
:103DF0002C4BD3E8EF1F21F00101C3E8E21F002A9A
:103E0000F7D1294E15F028FC346804B1043C002D8C
:103E1000264D18BF0025002C3BD023680BB1284647
:103E200098476468002C34D0043CF6E7412201989E
:103E300002AB09A91CF0CEFE0028D8D11C4A0DF116
:103E400025030DF1650153F8040B8B4242F8040B76
:103E5000F9D120221749019802AB1CF063FE00281B
:103E6000C5D101981CF016FE05460028BFD11049A7
:103E70000E4819F083F81048203119F07FF80F4BE5
:103E8000D3E8EF1F41F01001C3E8E21F002AAFD0D2
:103E9000F6E70023C6E9003315F0F2FB1AB070BD57
:103EA00000000209C0170020C81700205A8C00200B
:103EB0001A8C0020FA8B00207A8C0020D40000207D
:103EC00030B5A7B01422002108A81DF02AFE042353
:103ED0003D22002116A815931DF023FE47F2121370
:103EE000ADF81C304FF4807344F20102ADF81E307F
:103EF000234B2449CDE9092307A8202205AB1CF058
:103F000093FEB8B16FF0040415F0A6FB1E4B1D68BC
:103F100065B1002018601D4BD3E8EF1F21F00201AE
:103F2000C3E8E21F002AF7D124B3A84715F0A8FB85
:103F300027B030BD164B0DF15502194603F1400074
:103F400053F8044B834242F8044BF9D106AB029379
:103F500020230B48CDE9001315AA412305991CF035
:103F6000B7FF0028CED105981CF094FD0446002828
:103F7000CAD0C7E70DA8064919F000F80DA8D4E784
:103F800000000209FA8B0020C4170020C01700208F
:103F90001A8C0020402208B503491DF0CAFDB0FA72
:103FA00080F0400908BD00BFEA44020010B598B097
:103FB00004461422002102A81DF0B3FD44F212139E
:103FC000ADF804304FF480734FF48042ADF8063002
:103FD000114B2146CDE9032304230DF11D008DF87B
:103FE0001C3018F0CBFF04F120010DF13D0018F05A
:103FF000C5FF6B46412207A901A81CF015FE044627
:1040000001A81DF08BF82CB900981CF043FD01208D
:1040100018B010BD0020FBE70000020910B560B326
:104020001A4A136823B1043B834229D05B68F9E73D
:10403000174BD3E8AF1F890725D41468011D4460CE
:104040005068116000B95160D3E8EF2F42F00101D0
:10405000C3E8E01F0028F7D1D30701D5002010BD29
:104060000C4BD3E8EF1F21F01001C3E8E21F002A38
:10407000F7D10948FEF79CFAF0E76FF01500EEE77C
:104080006FF07700EBE76FF00F00E8E7C81700204C
:10409000C0170020D400002060030020044BD3E8A8
:1040A000AF3F13F0100F034808BF0020704700BF58
:1040B000D40000205A8C002070B5054619480368CA
:1040C0008B4228D0184BD3E8AF3FDA0626D50368D9
:1040D00013B16FF00F0070BD144AD2E8AF3FDB0799
:1040E000F7D4D2E8EF3F43F00204C2E8E64F002ED7
:1040F000F7D113F00204ECD1016029460C4818F006
:104100003DFF0C4805F1200118F038FF0A48FEF782
:104110004FFA2046DFE76FF07700DCE76FF07C00B6
:10412000D9E700BFC4170020D4000020C01700202A
:104130001A8C00203A8C00205003002070B50546F0
:104140000B4B1C6844B154F82C3C2C3C13B1284652
:10415000297B9847E46AF5E7064C074EB44200D342
:1041600070BD236813B12846297B98473034F5E7A2
:10417000E01A0020D82602000827020010B50446E5
:10418000FEF784F8044901EB0011204618F0EEF91F
:10419000BDE81040FEF7F0BCD0170020002270B53B
:1041A0000446D1E901560748C1E901221BF0ECFFA2
:1041B0003DB1314620462B46BDE870406FF06D02A0
:1041C000184770BD4806002070B505460022002340
:1041D0000E4814F0D1FDB8B90D4B1C6834B154F839
:1041E000243C2C3C03B19847E46AF7E7094C0A4E9B
:1041F000B44204D32846BDE8704014F055BFA3680C
:1042000003B198473034F3E770BD00BF3806002093
:10421000E01A0020D8260200082702002DE9F0410C
:10422000044620270025EFF3118287F31288BFF39D
:104230006F8FE16929B1206A0B688142E36108BF91
:10424000236282F31188BFF36F8F71B1D1E90168E6
:104250000748C1E901551BF097FF1EB100224146F6
:104260002046B047FEF788FCDDE7BDE8F08100BFDF
:104270004806002013B5437B0446072B22D10430A7
:10428000D0E8EF3F43F48062C0E8E12F0029F7D186
:10429000590517D418F097FEC2030DD5E17889B9F6
:1042A000094B93F8D930DB070CD5022320461A4678
:1042B000009118F07BFC05E0204618F03DFC637B84
:1042C000072BEBD002B010BD000000200448B0F86E
:1042D000143100F58C70002B08BF0020704700BF20
:1042E0000000002030B50446FDF718FD0D460D4ACC
:1042F0000D4989B00858D2F88010884205D120466F
:1043000009B0BDE83040FFF789BF2434214610468C
:104310001CF006F81DB1694620461CF011F809B0E2
:1043200030BD00BFD81500200800000038B50022BD
:1043300004468A4202D10024204638BD012004F1FF
:10434000D003D3E8EF5F002D04D1C3E8EC0FBCF13C
:10435000000FF6D102D0D8340244EAE7002CEAD0AC
:10436000D022002120461DF0DCFB04F1400004496E
:104370001CF007F8034904F124001BF0A6FFDBE75B
:10438000254F0000CDCF010008B500F1D003D3E8E0
:10439000EF2F013AC3E8E12F0029F8D1AAB90B4B5E
:1043A000984212D303F1D80290420ED2C01AD823F9
:1043B000B0FBF3F203FB120038B9054814F0A8FC77
:1043C000BDE80840034814F06FBE08BD780B00201C
:1043D000380600208003002010B5044618F06DFE5A
:1043E00015F03AF90C4B04F1C401D3F82C3143B960
:1043F0000A4818F0CDFD15F043F9BDE81040FEF76E
:10440000BBBB994201D01B68F1E715F039F9204692
:10441000FFF7BAFFF1E700BF000000202C010020E9
:1044200070B5457B04468D4223D0417355B1022DB2
:104430000BD0637B072B1CD8DFE803F01C0E541B4A
:104440001B1B1B1818F039FEF3E78378012BF0D102
:1044500040301BF0A4FFECE73A4D05F58C7661691E
:1044600000295CD1BDE87040FEF786BB0023C4E99B
:104470000D3370BD082DFCD801A353F825F000BF03
:1044800073440000A5440000D1440000CB44000068
:10449000DB440000DB440000D14400007344000012
:1044A0007344000004F1400528461BF078FF2046C5
:1044B0000121FFF717FF204618F0A6FD2846BDE8AA
:1044C00070400022002314F093BE022018F04DFD2E
:1044D000237B13B12046FFF731FE2046BDE8704034
:1044E000FFF752BFA378012BC3D1164B9D8A002D35
:1044F000BFD00A2347F6122640F2E73000215D4381
:104500004FF47A720023E5FB0601FBF7B9FF024680
:104510000B4604F14000BDE8704014F035BEA269BE
:104520000B68914208BFA36120466361FFF736FE26
:10453000B5F81431002B14BF3046002014F0E8FB0E
:104540008DE700BF00000020F8B5074609480D467A
:10455000164618F0B2FD044650B183781F4203D1CD
:10456000BDE8F840FFF710BF3146A8472046F7E7FF
:10457000F8BD00BF780B0020002201200149FFF7A1
:10458000E3BF00BF7542000038B505460B480C4636
:1045900018F093FD034670B1427B012A02D0073A1E
:1045A000012A06D81A88AA4202D19A78144203D165
:1045B0001846FFF7E9FE0023184638BD780B0020A7
:1045C000034BC01A034BC0105843C0B2704700BF22
:1045D000780B002013DA4B6870B51C46144305466F
:1045E0000E4608D0FDF79AFB0B4908580B49D1F845
:1045F0008010884201D1002213460949002D14BFC2
:104600002846084617F004FE044618B1711D0C3008
:1046100017F05FFE204670BD08000000D81500208E
:104620005806002010B50446054814F03DFD20460C
:1046300000F086FE2046BDE81040FFF77FBD00BFBA
:104640007003002000232DE9F04F87B003930593FA
:10465000A54B5A8A32B1A54DD5F82C4134B907B0D3
:10466000BDE8F08F1B68002BF5D1F8E754F8C4398A
:1046700003B1C43B00269E4901E01C461346B5F831
:104680001421002A00F02E81D5F820214AB904F126
:10469000C406002BE3D0D3F8C420002AEDD0C43ADE
:1046A000EBE70A68002AF2D0D4F8B020002AEED056
:1046B000D4F8B420002AEAD0D4F8B820002AE6D0F2
:1046C000637B072B66D120469047002862D004F117
:1046D000C80018F078FC02285CDC204618F0EDFCDD
:1046E00004460028BBD0637B072B40F0F2802046B5
:1046F000D4F8B030B5F8141104AA9847074600283A
:1047000000F0CA80B5F81421049B9A4206D30146F2
:10471000D4F8B460204605AB03AAB047059BDDF88A
:104720000C9001933B8A002B00F0D6803846DDF8D0
:1047300010A017F031FF8046002840F0D080B5F877
:104740001431DFF8B0B1002B14BF5846002000220E
:10475000002314F011FB78B900220023644814F000
:10476000A5FA064600283BD1B5F81431002B18BF36
:104770005E46304614F0CCFA6FF00B053846FDF774
:1047800025FEB9F1000F00F083802A4620460199EA
:10479000C8477DE0D4F8C43004F1C402C6B9D5F8E6
:1047A0003011C5F82C318A4201D1C5F830310023CF
:1047B0002046C4F8C430D4F8B8309847002892D0C6
:1047C000637B072B40F085802046FFF705FE8AE7D4
:1047D0003360D5F830319A4208BFC5F83061E6E75A
:1047E000019BC0F804908360B5F814B10022DA454B
:1047F0004FF000034FF000013B4898BF1FFA8AFBBF
:10480000FDF766FD814650B1FDF740FD3A4B5A4633
:1048100003EB00133946484617F083FE8146B5F88E
:10482000143194F8CC709A458CBF4FF001080237D0
:1048300084F8CC8098BFFFB204F1C808D8E8EF3FF5
:104840000133C8E8E23F002AF8D104F1140A3146E6
:10485000504618F09DFBA378012B21D0D8E8EF3FFC
:10486000013BC8E8E23F002AF8D13146504618F033
:10487000B0FB4846FDF7AAFD20463146FFF78EFC07
:10488000B5F814311B48002B08BF002014F040FA83
:104890001321204618F028FC2046FFF775FDDEE6C0
:1048A00009F10C0B0421584617F035FD238807F059
:1048B000FD0743EA07330380B9F810300221043BB7
:1048C0004380584617F03BFD4846FEF73BF9002869
:1048D000C4D1FEF751F9DFE76FF079054EE76FF0CD
:1048E00004054BE79368FFDEE80600200000002087
:1048F0004806002018010020D017002040F2E243B3
:104900002DE9F041D0F888600446B6FBF3F6031DAC
:10491000184618F058FB8204B6B213D5B4F88C20B0
:10492000B2420FD8B4F88E20B2420BD3D4E924128D
:10493000914207D1D3E8EF1F21F40051C3E8E21FF1
:10494000002AF7D1104B1D6865B155F81C7C2C3D31
:1049500037B131462046B4F89230B4F89020B847C9
:10496000ED6AF1E7094DDFF82880454501D3BDE840
:10497000F0812F6937B131462046B4F89230B4F84F
:104980009020B8473035F0E7E01A0020D826020022
:1049900008270200F8B50F4B05461C685CB12C3C9B
:1049A00000F1A606236A13B1314628469847E46A07
:1049B0000CB12C3CF6E7084C084E05F1A607B442B2
:1049C00000D3F8BD236A13B13946284698473034DE
:1049D000F5E700BFE01A0020D826020008270200F1
:1049E000F8B50F4B05461C685CB12C3C00F1A406E1
:1049F000E36913B1314628469847E46A0CB12C3C70
:104A0000F6E7084C084E05F1A407B44200D3F8BD00
:104A1000E36913B13946284698473034F5E700BFBB
:104A2000E01A0020D8260200082702002DE9F041F4
:104A3000074608460D4617F099FF064618B90026A6
:104A40003046BDE8F081144B1C6884B154F8203C1A
:104A50002C3C0BB9E46AF8E7294638469847002809
:104A6000EDD0284617F082FF0028F3D1E7E70B4C82
:104A7000DFF82C804445E3D2E3680BB93034F9E722
:104A80002946384698470028D9D0284617F06EFFA7
:104A90000028F3D1D3E700BFE01A0020D826020097
:104AA000082702002DE9F041C37804468BB900F1D4
:104AB0007E06114B1D687DB12C3D04F170076B69BA
:104AC0001BB13A46314620469847ED6A25B12C3D48
:104AD000F5E700F17706ECE7084D094F04F170089F
:104AE000BD4201D3BDE8F0816B691BB1424631463E
:104AF000204698473035F3E7E01A0020D826020018
:104B000008270200F8B5437A05468372164618F066
:104B100093FE0D4B1C684CB154F8143C2C3C1BB15B
:104B200032462846697A9847E46AF4E7074C084F0A
:104B3000BC4200D3F8BDA3691BB132462846697A4E
:104B400098473034F4E700BFE01A0020D82602006E
:104B50000827020038B505460C460F480121FFF72B
:104B6000E5FBC0B1057223680367A388A0F8743021
:104B7000A37980F876300123437283728370074BE8
:104B8000C0F8B030064BC0F8B430064BC0F8B830AF
:104B9000054BC0F88C3038BD780B00206151000007
:104BA000B1CF0100A5CF01001800280070B505465F
:104BB0000A480E4618F081FA044620B18378012B8A
:104BC00004D0FFF7E1FB0024204670BD32462946A1
:104BD00018F082FB0028F7D12046F2E7780B00207E
:104BE00038B50446134818F0EEF9420702D46FF0C6
:104BF0000A0038BD084617F0B9FE10B96FF015006D
:104C0000F7E7FFF7D1F80028F1D10A4818F0DBF9EF
:104C10000306C0F3C0150AD418F085F90028EDD0BA
:104C20002146284618F078FB0028E2D0E6E76FF02E
:104C30007700DEE7D4000020F8B505460E480E46A2
:104C4000174618F03AFA044620B18378012B03D0B6
:104C5000FFF79AFB00240DE036B13246294618F0E2
:104C60003BFB08B92046F3E7637BBB42FAD1237ACA
:104C7000AB42F7D12046F8BD780B0020002210B5DA
:104C8000837804460B70C3784B70037A8B70437B38
:104C900081F82B20023BDBB2062B8EBF13462B483C
:104CA000C35C204681F82830A378012B14BF002371
:104CB000637A81F8293018F09DFA81F82A00A378E8
:104CC000012B40D104F170038B60237A204AC3EB9F
:104CD000C30313444B60E27804F1770304F17E00D0
:104CE00042BB1A460346C1E9032340F2E242D4F82C
:104CF00088304B61B3FBF2F30B83B4F890304B83F5
:104D0000B4F892308B8304F1A4030B6204F1A60380
:104D10004B62D4F8A0302BB15B7CDA0644BF012390
:104D200081F82B30D4F8A03013B15B7C9B0603D400
:104D3000002010BD0246D6E791F82B3043F0020365
:104D400081F82B30F4E76FF01500F2E72A450200F6
:104D500000000020F8B505460E460C4B1C6844B117
:104D600054F8083C2C3C13B1314628469847E46A75
:104D7000F5E7074C074FBC4200D3F8BD636A13B197
:104D80003146284698473034F5E700BFE01A002046
:104D9000D826020008270200F8B505460E460C4B3F
:104DA0001C6844B154F8043C2C3C13B131462846ED
:104DB0009847E46AF5E7074C074FBC4200D3F8BDBB
:104DC000A36A13B13146284698473034F5E700BF4F
:104DD000E01A0020D8260200082702002DE9F04141
:104DE00005460F4614469846002B5DD01146FFF746
:104DF000F7FE064600283CD12146284618F042FA24
:104E00000446002853D097E80F002A4D05F1080CFE
:104E10008CE80F00AB8A002B08BF4FF49673AB826F
:104E20002B8A03B9AB892B826B8A03B9EB892248A1
:104E30006B8218F0C8F8430501D5FEF791FA95F892
:104E4000292195F828319A4216D903212046FFF7E7
:104E5000E7FA0220FEF71AFE054610B3022018F00A
:104E600084F820460021FFF7DBFA2046FFF78CFA92
:104E70002E463046BDE8F08102212046FFF7D0FAE9
:104E8000204617F00BFE054658B10021204621733D
:104E9000FFF7C6FA2046FFF777FA0320FEF7F6FD84
:104EA000E6E7C8F80040E4E76FF01506E1E76FF0C9
:104EB0000B06DEE700000020D400002038B50446D1
:104EC00008460D4617F052FD38B3154B93F8D8300D
:104ED000990707D4E37873B129462046BDE83840E6
:104EE00018F017BD94F898309A07F3D5201D18F0E4
:104EF0006AF84304EED42946204618F082FA58B9DD
:104F00002B88A4F88C306B88A4F88E30AB88A4F87A
:104F10009430EB88A4F8963038BD6FF01500FBE7AD
:104F200000000020F7B510F8333C0446A0F140061D
:104F30000BBB304618F0E2FB2C4B1D684DB155F809
:104F4000283C2C3D1BB1304614F8341C9847ED6AC0
:104F5000F4E7274D274FBD4205D3304603B0BDE8E7
:104F6000F040FFF711BA6B681BB1304614F8341CDF
:104F700098473035EFE710F83E3C012B34D110F85C
:104F80003D3C63B9FDF736FF69302DD140F239124F
:104F90000023204603B0BDE8F04014F029B9A0F189
:104FA0003C05D5E8EF3F23F40052C5E8E12F002986
:104FB000F7D19B0410D5E36C69460093636D3046CE
:104FC0000193FFF77BFF38B9D5E8EF3F23F4805317
:104FD000C5E8E23F002AF7D1D5E8EF3F43F400638C
:104FE000C5E8E23F002AF7D103B0F0BDE01A002087
:104FF000D82602000827020038B517481BF096F89B
:105000000024164D2946144801341BF0BDF8402CED
:1050100005F10C05F6D119F0FAF902F08BF9044606
:10502000B8B903F071F8044698B918F093FC0C482D
:1050300018F043F8054660B1043017F0C4FFC30709
:1050400004D5032128462C72FFF7EAF92846FFF71A
:105050009BF9204638BD00BF48060020E01700201D
:10506000780B0020054A1078013010F0FF000ABFCD
:105070000123034618461370704700BF9A8C002026
:10508000044B186818B9044A5A600B6070476FF0F7
:105090000B007047500C0020E829020070B5D0F8D2
:1050A0009820044600F170032AB1FCF737FE10493E
:1050B00009588A4215D0184604F1A0011BF082F964
:1050C00004F1580600220023304613F0EFFD054698
:1050D00058B9206C20B1FDF779F92564A4F8445043
:1050E00070BD18461BF05BF9EAE7FDF76FF9E9E7D9
:1050F0000800000070B5044652EA030008D0FCF72F
:105100000DFE074D074ED5F880503058854201D12D
:10511000002213462046BDE870400431FFF75CBA18
:10512000D815002008000000F8B50F460021062819
:105130000546164609484FF224424FF0000318BFB7
:105140000846FFF7D7FF044630B104210C3017F0B2
:10515000CBF80570477046802046F8BDA0060020B9
:105160002DE9F0470E469046D0F8BC4044B1C03C13
:10517000236B5BB9206818F0F0F9D4F8C040F5E76C
:10518000FDF7FAFC00252846BDE8F08704F1300958
:1051900048461BF00EF805460028F1D017F0FCF940
:1051A0000028EFD1D4F8C43073B9A38C403B9BB234
:1051B0003F2B09D804F12C0018F0B1F9002803DCCA
:1051C000206818F0CAF9DDE7284617F050F8D4F83F
:1051D000C43005469BBBA38C078A403B9BB23F2B48
:1051E00003D8238D9F4228BF1F46042105F10C00E0
:1051F00017F091F80780A38C04374380A38CC4F880
:10520000C470403B9BB23F2B19D804F12C031846C5
:1052100018F085F9002840D1184618F080F970B9C7
:1052200004F11001D1E8EF3F23F00103C1E8E23FB0
:10523000002AF7D16368DB690BB120469847D4F8A0
:10524000C470BE421ED3B5F810A0574506D1002247
:105250000023484613F02AFDFDF7B8F8A38CA3F10C
:1052600040023F2A06D857451ABF00221346104A6B
:10527000EB61AA61206818F070F9236B13B1204626
:1052800018F053F9D4F8C4309E422CBF00269E1B60
:10529000C8F80030C4F8C46075E7421ED3E8EF1FB9
:1052A000814203D1C3E8E72F002FF7D1B4D0AEE796
:1052B000E7D8010070B58B8A05460C462BB9402112
:1052C000284618F01DFB20BBA182002304F1100129
:1052D000D1E8EF0FC1E8E63F002EF9D12364A4F82E
:1052E0004430C4F8C030C4F8C43004F1080105F1FA
:1052F000340018F0AFF810492560E26004F1700046
:105300001BF03FF8A38A403B9BB23F2B07D90120FB
:1053100004E0013189B28029D2D1002070BD074953
:1053200004F148001AF0D1FF04F158001AF0FEFE13
:10533000012384F86830EAE7CDD60100A1DA010044
:10534000F7B505461B4C1C4FBC4201D303B0F0BD62
:105350002188284618F004FA6368019001A92846BC
:105360009847002824DB019E2388002231462846E6
:10537000B382B384FFF79EFF0028E7D006F1300028
:105380001AF0D4FE019843681B6803B19847019B4B
:105390001033D3E8EF1F41F00101C3E8E21F002AF8
:1053A000F7D101984368DB6913B100F11001984708
:1053B0000834C9E7C0260200D8260200054A034681
:1053C000106830B130F8082C08389A4201D0806853
:1053D000F7E77047F41A002070B50C4615460646EC
:1053E000002844D0437B072B41D119B96FF0150534
:1053F000284670BD91F86E30042BF7D813B90123FD
:1054000081F86E306B1EFE2BF0D8204618F0F3F8B2
:10541000204618F0D2F821463046184AFFF74AFFD6
:1054200040B3A4F86A5094F86E10737A8B420FD28E
:10543000304617F0ECFE054688B91034D4E8EF3F4B
:1054400043F00403C4E8E23F002AF7D10025CFE788
:105450002046FBF79DFB0028F8D06FF00B05304687
:10546000214618F01DF9204618F0D6F8C0E76FF075
:105470007F05BDE76FF00B05BAE700BF9D50000048
:1054800030B5026C0446108A0D4685B060B1138BAE
:10549000298A0144B4F84400814207DD204605B062
:1054A000BDE8304018F057BA0346F1E701331383E3
:1054B000214B002202930023CDE900230394EA68E4
:1054C000298A206CFCF7A0FF2B8A80B28342E5D1A9
:1054D000256CB4F844302A8A9A420BD204F11C009D
:1054E00018F01DF828BB0121204605B0BDE830406A
:1054F00018F050B900232364A4F8443063682946A7
:1055000020465B69984700280ADA773011D0204698
:1055100018F021FA284605B0BDE83040FCF756BF28
:1055200094F86830032BF5D10121204618F032F9A8
:10553000F0E705B030BD00BF09D501002DE9F04FFF
:105540000B8A0646032B0D4687B065D9042105F169
:105550000C0016F005FFB5F810B043885B455BD131
:105560004478002C58D00378013B152B00F21F82A1
:10557000DFE813F0D0011D021D021D021D025B01B8
:1055800092011D021D021D021D021D021D021D02AF
:105590001D021D021D02DE0152001600D600AC01E4
:1055A000BBF10A0F38D1EB6821461A881520029208
:1055B000B3F802A036681FFA8AF20392B3F80480A7
:1055C0001FFA88F20392B3F806901B895A46039398
:1055D000FFF7AAFD1FFA89F50746E8B159460C30D6
:1055E00016F082FE00230360436003811FFA88F3F4
:1055F000162B044614D84FF00B0B39463046A4F84E
:1056000008B018F0B6F838B9BBF1000F04D104980F
:1056100043681B6803B19847002007B0BDE8F08FCE
:105620004FF6E671A5F117039BB28B42E3D80298BF
:10563000FFF7C4FE054610B94FF0020BDDE7737AA1
:105640008178994207D81FFA8AF3403B3F2B0CD947
:105650004FF0090BD1E7012B04D8304617F073FD4A
:1056600000285AD14FF0050BC7E730461FFA8AF1E0
:1056700018F076F804900028BFD1294630466B68B0
:1056800004AA9847002815DA10F10C0F0FD010F17A
:105690000B0F07DA10F1860FCED00D30ABD14FF0E3
:1056A000060BAAE70130A6D14FF0070BA5E74FF094
:1056B000040BA2E7DDF810B0DBF804305B69002BC7
:1056C00099D0AB7858468BF86E3017F094FF584657
:1056D000ABF824A0ABF82890ABF8268017F06DFF4C
:1056E0003046B64A0499FFF7E5FD0028DFD058465A
:1056F000039917F03FFF03222B88ABF86A30049B15
:105700004FF0000B83F868209A8A22801A8BA280BF
:10571000DA8A6280DB69E3806FE74FF0080B6CE7A1
:10572000BBF10A0F7FF478AFEB683668B3F80290EC
:10573000B3F800A01FFA89F20292DA88B3F8048065
:1057400002921D891FFA8AF7082D1FFA88FB2DD8AF
:1057500040F22113EB40D90728D50023214614221B
:10576000304617F091FE044600283FF455AF7030E4
:105770001AF015FE0023052DA4F86C302BD0082D4F
:1057800029D0002D4DD1403F3F2F0AD81FFA89F371
:10579000162B06D94FF6E672ABF117039BB2934274
:1057A00006D93B21304617F09FFC35E70123D5E7AA
:1057B000032384F868306368A4F824A0A4F8269032
:1057C000A4F828801B680BB1204698472046029910
:1057D00017F0D0FE20E7274657F8103B384617F061
:1057E0009EFE420719D4052D5B7A11D0012B14D8E7
:1057F0000221206817F00BFD00280EDBD7E8EF3FF1
:1058000043F00403C7E8E23F002A3FF405AFF5E7A1
:10581000032B02D86A4AD15CEBE72146304617F0E9
:105820003FFF204617F0F8FEF6E6BBF1040F7FF4C9
:10583000F3AEEF6836683988304617F045FE054606
:1058400088B90222BB78F97843EA0123ADF8103019
:105850003B88CDF800B0ADF8123004AB214630469D
:1058600018F01DF8D8E621465A460720FFF75CFCE1
:10587000044600283FF4D0AE59460C3016F034FDF3
:10588000AB8A0380AB8C4380284617F0C5FE2146C7
:10589000304617F06EFFBFE6BBF1040F7FF4BCAEDD
:1058A00036680023062221463046ED6817F0ECFDED
:1058B00000283FF4B1AE6B88818A99427FF4ACAE88
:1058C000304617F001FE0028ACD1A5E6BBF1040F6D
:1058D0007FF4A2AEEB681988A1F140023F2A3FF69F
:1058E0009BAE5A88002A3FF497AE306817F038FF15
:1058F000034600283FF490AE2C3017F010FE104401
:10590000B0F5803F03DB184618F025F884E6114611
:1059100018465DE7356801234FF48072214628461A
:1059200017F0B2FD00283FF477AE17F075FEF2E7EE
:10593000BBF1080F7FF470AE3668737B072B7FF4E2
:105940006BAEF3781BB100231A46009386E7EB6831
:1059500021461A881320ADF810205A88ADF812207D
:105960009A88ADF81420DB880222ADF81630FFF7D4
:10597000DBFB044600283FF44FAE04A93046FFF796
:1059800055F80546022104F10C0016F0ADFC85F037
:105990000103DBB203802146304617F0EAFE002DFA
:1059A0003FF43AAE304604A917F02BFD34E600234D
:1059B00000931A462146306852E700BF9D50000010
:1059C0003145020070B504460D4611B96FF015005F
:1059D00070BD0028FAD00B7A012BF7D1036883B38E
:1059E0005B7B072B2DD1103017F099FD83072BD44B
:1059F000A38CA3F140023F2A19D8098AE38C8B4279
:105A000025D32B7A012BE1D1EB686A699B1A0A2B0B
:105A1000DCD905F10C0016F086FC294604F13000B3
:105A20001AF0B2FB204617F080FD0020D0E7013BC2
:105A30003E2BCBD823462046BDE87040054A17F0E0
:105A400071BE6FF07F00C3E76FF06D00C0E76FF0CD
:105A50007900BDE713D5010023281FD81A2804D8E0
:105A6000431E182B0ED906207047A0F11B03082BEC
:105A70001ED8DFE803F0051D1B231D19251D050099
:105A80000320704701230F4A83401A40C2B90E4ACF
:105A90001A40002A0CBF06200120704700F07F0347
:105AA000522B05D100207047012070470520704718
:105AB00010F0400F14BF00200620704704207047EC
:105AC00002207047AAAA8A02545545012DE9F74FD2
:105AD000054608468946FCF7D9FB18234343264F61
:105AE0000446FA189168D9F80C60019105F1D000CC
:105AF000D0E8AF0FC1073CD5D9F80C000078107181
:105B00000022FA503378D22B0ED12B684946186800
:105B100019F016FB40B101904846FCF757FC019B79
:105B2000184603B0BDE8F08F18235C4300234946B4
:105B30001A4607EB040805F10800D9F80C60D9F8FB
:105B400014B0B9F810A0C8F8085017F0EBFD0346E0
:105B50000028E5D0D9F81420A6EB0B0612FA86F639
:105B6000019AC9F80C60A9F810A0C8F808203851AB
:105B7000D6E76FF01503D3E7041B002070B50E467F
:105B8000C38DC18B01328B4228BF0B469A4205461A
:105B900031D83046FFF760FF6FF01403034113F074
:105BA000010310D0FCF7BAF8144B1958144BD3F872
:105BB000803099421DD0134B1B685A1A18BF4FF002
:105BC000FF32134600E0104A00211048FFF792FA16
:105BD000044660B1FCF75AFB18220D4B012102FB71
:105BE000003304F10C009D6016F07EFB0670204629
:105BF00070BD0022E5E70024F9E700BF08000000BF
:105C0000D8150020042100201C4E0E007C06002028
:105C1000041B0020A0F1080101481AF0B6B900BF2A
:105C2000DC050020F8B50F4A074600230E480E4653
:105C300016F0EEFA044690B100F10C050921284651
:105C400016F047FB2046FCF721FB1822074B0121E9
:105C500002FB003328469F6016F046FB0670204684
:105C6000F8BD00BF1C4E0E007C060020041B002067
:105C700008B5EFF31181202383F31288BFF36F8FF0
:105C8000002303600C4B5A689AB9C3E9000081F302
:105C90001188BFF36F8F094813F006FA002807DA5E
:105CA000002383F31188BFF36F8F0323184602DFAD
:105CB00008BD10605860EAE7FC1A0020B803002015
:105CC0007FB5CB6804461D888DB15E8876B1AE4243
:105CD0000DD31022002168461BF023FF052120462A
:105CE000FFF7A0FF019058B9112007E035460123C6
:105CF0002A460421204618F0C1F8002004B070BDE7
:105D00006B4631462846084A009418F0D4F8DDE97D
:105D1000011323B90846FCF759FB0A23E8E720469C
:105D200017F0D7FFE9E700BFEFDC010010B504462C
:105D300000F1C803D3E8EF1F41F00101C3E8E21FFF
:105D4000002AF7D1A4F1080018F02DF804F1E000C2
:105D500003491AF016FB2068BDE8104001F078BA3C
:105D600013E40100F0B51D46036804460E4685B0F5
:105D700001211868174618F026FF38B904F1D00041
:105D800018F0BDF850BB122005B0F0BD65B310226D
:105D9000002168461BF0C5FE39462046FFF742FF4A
:105DA000029018B3BDF828302946ADF8043001231D
:105DB00028468DF80C300E4A6B46009418F07BF89C
:105DC0009DF80C3002995BB10846FCF7FFFA2A46B1
:105DD000314620469DF80C3018F050F80020D3E7EB
:105DE000204617F076FFF9E70120CDE71120CBE739
:105DF00093E201002DE9FF41036804460D4618684F
:105E0000012118F0E0FE40B904F1D00018F077F855
:105E1000A0BB122004B0BDE8F0811022002168462A
:105E20001BF07FFE0F212046FFF7FCFE029038B3E7
:105E30004FF00108009405F10C072B8A012B04D8C0
:105E40002046029917F045FF18E0384616F098FAF8
:105E50006B4601460B4A06468DF80C8018F02BF86D
:105E60009DF80C30002BE8D00298FCF7AFFA3246D0
:105E70000E2120469DF80C3018F000F80020C9E7EC
:105E80001120C7E793E201002DE9FF4103680446B2
