:10000000087E0020053801009D0E0200F137010036
:10001000F1370100F1370100F1370100F13701003C
:10002000000000000000000000000000D5380100C2
:10003000F137010000000000853A0100F1370100AE
:10004000053B0100053B0100053B0100053B0100AC
:10005000053B0100053B0100053B0100053B01009C
:10006000053B0100053B0100053B0100053B01008C
:10007000053B0100053B0100053B0100053B01007C
:10025000053B0100D3290200053B0100053B0100DD
:10026000053B0100053B0100BD290200053B0100E3
:10027000053B0100053B0100053B0100053B01007A
:10028000053B0100053B0100053B0100053B01006A
:10029000053B0100053B0100053B0100053B01005A
:1002A000053B0100053B0100053B0100053B01004A
:1002B000053B0100053B0100053B0100053B01003A
:1002C000053B0100053B0100053B0100053B01002A
:1002D000053B0100053B0100053B0100053B01001A
:1002E000053B0100053B0100053B0100053B01000A
:1002F000053B0100053B0100053B0100053B0100FA
:10030000053B0100053B0100053B0100053B0100E9
:10031000053B0100053B0100053B0100053B0100D9
:10032000053B0100053B0100053B0100053B0100C9
:10033000053B0100053B0100053B0100053B0100B9
:10034000053B0100053B0100053B0100053B0100A9
:10035000053B0100053B0100053B0100053B010099
:10036000053B0100053B0100053B0100053B010089
:10037000053B0100053B0100053B0100053B010079
:10038000053B0100053B0100053B0100053B010069
:10039000053B0100053B0100053B0100053B010059
:1003A000053B0100053B0100053B0100053B010049
:1003B000053B0100053B0100053B0100053B010039
:1003C000053B0100053B0100053B0100053B010029
:1003D000053B0100E9290200053B0100053B010046
:1003E000053B0100053B0100053B0100053B010009
:1003F000053B0100053B0100053B0100053B0100F9
:10040000053B0100053B0100053B0100053B0100E8
:10041000053B0100053B0100053B0100053B0100D8
:10042000053B0100053B0100053B0100053B0100C8
:10043000053B0100053B0100053B0100053B0100B8
:10044000053B0100053B0100053B0100053B0100A8
:10045000053B0100053B0100053B0100053B010098
:10046000053B0100053B0100053B0100053B010088
:0C047000053B0100053B0100053B0100BD
:10048000064A074B02604FF44472DB7882800822F0
:10049000C371002382710372704700BF5F000100C7
:1004A000B0080020064A074B02604FF4B072DB7AB6
:1004B00082800822C371FF2382710372704700BFDC
:1004C0006FFA0000B0080020064A9378D2781344EF
:1004D000002282600260044A4260C371FF230372FB
:1004E000704700BFB00800203A000200094991F8A7
:1004F00029308A7803EB4303C978DB000A440021E2
:100500001033C27181608380042301608371FF23F3
:1005100003727047B0080020064A9378D2781344DB
:10052000002282600260044A4260C371FF230372AA
:10053000704700BFB00800203A000200064A9378D6
:10054000D2781344002282600260044A4260C37180
:10055000FF230372704700BFB00800203200020082
:100560002DE9F341C41D0028064624F007040CBF02
:100570000020204600F09AFC071E04DA6FF00B0002
:1005800002B0BDE8F081374DE988A88803316B7A65
:1005900003302A7A89B280B20CF068FA0028EDDBC9
:1005A0003C44A978EB78002E04F10304194424F0AC
:1005B000030400FB01F10CBF0020204600F024FEE4
:1005C00020440EB90028D9DBEA7A0446B2B1EB7BAD
:1005D000697C13441944FF29D0D80330002EAA891E
:1005E000C9B220F003040CBF0020204600F07EFEBC
:1005F0000028C3DB04440EB9002CBFDB012000F04F
:100600004BFCB0B1A97BA1B195F82A3033B340239C
:100610004FF481720734002E24F007040CBF002031
:10062000204601F0BFFE0028A8DB04440EB9002CD0
:10063000A4DBAB7AFBB1EB7AB3B10734002EA97A15
:1006400024F007040CBF0020204604F005FB00281E
:1006500094DB04447EB9002C0DDA8FE72523282291
:10066000D8E700BFB0080020012000F015FC10B151
:10067000AB7B002BE1D1734B1B6893B1A97D81B19A
:100680000334002EEA7D24F003040CBF0020204632
:1006900098470028FFF672AF044416B9002CFFF605
:1006A0006DAF694B1B688BB1297C79B10334002E87
:1006B00024F003040CBF0020204698470028FFF6D2
:1006C0005DAF044416B9002CFFF658AF5F4B1F68AE
:1006D000B7B1697CA1B10334002E2B7D24F0030453
:1006E00008BF0020009318BF2046EB7CAA7CB847C7
:1006F0000028FFF643AF044416B9002CFFF63EAFC6
:10070000072000F0C9FB98B1A97D89B10334002E00
:100710002A7E24F003040CBF0020204600F0D4FE03
:100720000028FFF62BAF044416B9002CFFF626AFC5
:10073000B6FA86F795F823007F09A0B103346B7FE2
:10074000A97E24F0070419443B4644F00404C9B2CE
:10075000224600F0F9FE0028FFF610AF044416B957
:10076000002CFFF60BAF95F8241000294CD004F1B3
:100770000708002EEA8C28F007080CBF002040462E
:100780000CF088F9041EFFF6F9AE4444002E3ED169
:10079000002CFFF6F3AEA97F002945D095F8223052
:1007A000002B41D02A8C0734002E02F1240224F0C1
:1007B00007080CBF0020404692B20CF06BF90028ED
:1007C000FFF6DCAE404416B90028FFF6D7AE033082
:1007D0002B7FA97E20F0070019443B4640F004041B
:1007E00095F82200C9B2224600F0A0FE0028FFF6CC
:1007F000C5AE044486B9002CFFF6C0AEEB6AF3B177
:10080000C6B1EC620020BBE6002EC4D08846E98C5D
:10081000404609F0F3FABEE72A8C4046A97F083229
:1008200092B209F0F1FAE9E7002EE7D00022114672
:100830001046F6E728343FF5A1AE2046A0E6002E8C
:10084000E0D1FAE70C160020101600201416002044
:100850001FB572B6194B1C6BECB9BFF34F8F18491B
:10086000184BCA6802F4E0621343CB60BFF34F8FAA
:1008700000BFFDE7B2FBF6F22B465D1C002AF9D162
:10088000DBB203F110056D4405F80C2C0A2233B9D4
:1008900001A8A047E1E7024600230A26EDE7013B55
:1008A000DBB203F110050DEB0506B0FBF2F502FB20
:1008B0001500303006F80C0C2846E8E7B008002098
:1008C00000ED00E00400FA0513B5124C68462389D8
:1008D000ADF80030E388ADF80430A388ADF80230FD
:1008E00002F0DEFA18B1FA219C20FFF7B1FF207D5B
:1008F00002F006FB08B1FD21F6E7E07C02F0FAFA0F
:1009000008B1FE21F0E794F8290007F0EBFD02B0F2
:1009100010BD00BFB008002070B50546002855D0B6
:100920000BF036FA18B94FF0FF34204670BD09F0CD
:1009300069FFB0F5FA7FF6D8264C0126256300251D
:10094000284684F83450257084F82A50E56209F06E
:10095000F7F91A22294604F10F0010F06FFE1B234D
:1009600008210322A3802846E3800223A1721F21CD
:100970006372E375F72322722384FB23A273492257
:10098000E3840A23A1812946E27484F82930A67001
:10099000E670E672A674267601F08AFD2A46314694
:1009A000304601F057FD044620B140F2B5319C209D
:1009B000FFF74EFF014601F069FDEFF3108572B6B7
:1009C00000F0E8FD002DB0D162B6AEE76FF015047F
:1009D000ABE700BFB008002038B51446002840F04F
:1009E000EE80784D95F83430032B00F0E58019B394
:1009F00012B96FF0150038BD0139172900F2DF80F8
:100A0000DFE811F0180029002C0042006C0075008E
:100A10009400480078007B008E004E005400620075
:100A200067009A009D00AC00AF00B200A300B500C3
:100A3000B900D2001378AB700020FFF791FD0028B9
:100A4000B7BF012302236FF00B0085F83430A8BF35
:100A500085F83430CFE71378EB70EDE71379002B8E
:100A6000C7D05379002BC4D01288FB2AC1D8638821
:100A70001B3B9BB2E02BBCD81A2ABAD92368A288A8
:100A80006B60514B9A80D7E71378EA7B9342B0D3DF
:100A9000EB72D1E71378EA7A9342AAD8EB73CBE7EB
:100AA0001378EA7A9342A4D86B74C5E71378002BC5
:100AB0009FD05378013BDBB2F82B9AD813889278F9
:100AC0006B82424B9A70B7E71078687507F0ACFA02
:100AD000B2E71378002B8CD02B76ADE7012000F025
:100AE000DBF9237808B1012B83D9AB73A4E7138812
:100AF000AB81A1E71378AB759EE7072000F0CCF936
:100B000018B92378012B7FF674AF072000F0C4F9E1
:100B100018B12378002B3FF46CAF2378EB758BE78B
:100B20001378082B3FF665AF2B7485E71388FF2BEE
:100B30003FF65FAFAB727FE713786B767CE7137895
:100B40000E2B3FF656AFAB7676E72368204AC5F802
:100B50001E3063685360238913816DE71378EB7649
:100B60006AE713786B7767E713782B7764E7137876
:100B700085F8283060E701F067FC98B1007900F053
:100B800001026178207801F065FC00287FF433AF22
:100B90006378012B7FF650AF09F0D8F800287FF476
:100BA0004BAF26E70246ECE713785A1E092A3FF6B8
:100BB00020AF85F829303FE74FF0FF301BE76FF09B
:100BC0002C0018E7B0080020B4080020C20800205C
:100BD000CE080020F8B50D46064630B329B311F013
:100BE000070422D1124F97F83430012B02D16FF055
:100BF0000B00F8BD032B02D14FF0FF30F9E700F0F6
:100C0000FFFC0028F8D02846FFF7AAFC0028EEDBFE
:100C100010F0ABF93046F96A02F01EFAFFF754FE05
:100C20000323204687F83430E3E76FF01500E0E750
:100C3000B008002010B5074C94F83430032B03D1D2
:100C400002F022FA03F048F80CF048F8002084F88B
:100C5000340010BDB008002008B502F0C7F9034900
:100C60000320BDE8084000F00FB900BFA504000054
:100C700008B502F0CFF903490220BDE8084000F0B2
:100C800003B900BF8104000008B50449122000F038
:100C9000FBF8BDE8084002F071B900BFED040000A8
:100CA00008B502F049F903491020BDE8084000F0FA
:100CB000EBB800BFC904000008B502F04DF90349C4
:100CC0001420BDE8084000F0DFB800BF3D0500007B
:100CD00008B502F065F903491320BDE8084000F0AB
:100CE000D3B800BF19050000074B4FF0FF3141F6A4
:100CF000FF72C3E9001205490022C1E900221F2149
:100D0000C3E90212704700BF60000020E80800201D
:100D10003F280CD801380B4BC0F3421200F01F00E3
:100D200053F8223023FA00F000F001007047FF284A
:100D300006D04038044BC0F3421200F01F00EFE72A
:100D40000120704760000020E8080020074B0146A2
:100D5000006849681A4603C240F48C2200201A60D9
:100D600041F0107242F4FF625A6070476000002048
:100D70000246034B0068516803C30020704700BF60
:100D8000E80800200246034B0068516803C30020B6
:100D9000704700BF680000200138064BC0F34212C4
:100DA00000F01F0003EB82039B6823FA00F000F0C1
:100DB00001007047600000200A8870B595B2C67CBB
:100DC000C2F30E020488023602F118033444C35AF7
:100DD000A4B233442344013BB3FBF4F303FB0422EA
:100DE000438892B29342044B8BBF2B40AB431343D7
:100DF0009BB20B8070BD00BF0080FFFF4A1E062A19
:100E000008B50346084604D84FF4D1711520FFF702
:100E10001FFD094A914202D940F2A311F6E711B928
:100E200003B1196008BD2BB11B680022C3E9012181
:100E30001A1D1A600430F5E7FAFFFF7F10B5114B59
:100E400000EB41041A786389B3FBF2F303FB02233E
:100E5000013A1A44B2F5706F0279807828BF0023F6
:100E60001A440B18B2FBF0F100FB11215B1AB3FB23
:100E7000F0F100FB113313446FEA43436FEA53432D
:100E8000638110BDF0080020024B03EB8003596022
:100E9000704700BFF0080020034B03EB8003586845
:100EA000003818BF01207047F00800202DE9F04FEE
:100EB00010F0070A85B0054604D040F26F111720E4
:100EC000FFF7C6FC534F04464FF0010B07F15406E1
:100ED000B146B04657F8043B8DF80BA03BB101A8D2
:100EE00098479DF80A30082B01D9F521E7E79DF8CE
:100EF0000B1041BB05B131604F4506F10406E9D145
:100F0000002D6FD00022DFF810911427964689F843
:100F1000002058F827A0013FBAF1000F55D09AF8E9
:100F200004609AF802C0FF2E60D039460023481CA6
:100F300038D19C44BCF1FF0F3FD90AB189F800E0D9
:100F40004FF49A71BBE79DF80AC04B1D60465A00EA
:100F500004EB4303022838BF0220441E40422344CE
:100F6000BDF808406444CCF1000C0340013C04EAA5
:100F70000C04B4F5803F02D340F205119FE775B130
:100F80009A1A32609170148082F803B09DF80C00B8
:100F9000107101984FEA104C1081A2F806C004FBB2
:100FA0000134A9E758F8210028B190F804B0B345FE
:100FB00004BF80781B180139B9E7DBB2E6458AF82F
:100FC00004303CBF5FFA8CFE01227B1CA1D10AB128
:100FD00089F800E0142640F6FF6A58F82670B7B981
:100FE000013EFAD2601B05B0BDE8F08F0023E5E7B3
:100FF00007EB410309F101093846A3F80AA0FFF7FE
:101000001DFF5FFA89F1BB788B42F1D8E8E74FF01A
:101010000009F6E7F4080020F008002038B54FF684
:10102000FF7302460380184B03EB8103986DA8B150
:1010300084780379B3FBF4F104FB1133DBB2194676
:1010400000EB4105B5F90A50002D0EDB0131B1FB73
:10105000F4F504FB1511C9B28B42F1D1002038BD63
:101060006381BDE838400BF0CEBC00EB41046389DE
:10107000C3F30E031380C278002AF1D14FF4E57157
:101080001720FFF7E5FB00BFF00800201C4B03EB27
:10109000810370B59C6D054644B3030404D54FF439
:1010A000EC711720FFF7D4FB014620460BF08EFCB5
:1010B000FF28014604D02046BDE870400BF0A3BCD9
:1010C000A078B5FBF0F300FB1353DBB219460A1D01
:1010D00004EB4206B6F90260002E09DB0131B1FBD8
:1010E000F0F200FB1211C9B28B42F0D1002070BDAA
:1010F0008B4201D00023E37004EB42025580DAE713
:10110000F0080020094B03EB8103014610B59C6DEC
:1011100020460BF05BFCFF28014604D02046BDE8CA
:1011200010400BF070BC002010BD00BFF008002084
:10113000F8B5104B074603EB810301469C6D204632
:101140000BF044FCFF28054611D0E288238953EABE
:10115000024606D0014620460BF055FC01463846B3
:10116000B04720462946FFF769FE0020F8BD05205C
:10117000FCE700BFF008002038B50E4B044682792A
:1011800003EB8203986D08B9052038BD8278E179B8
:101190009142F9D24B1CE37100EB41035D89B3F935
:1011A0000A30002BF3DBA5800BF02DFC2060002023
:1011B000EBE700BFF008002008B5124B03EB8103FA
:1011C0009A6D22B940F246211720FFF741FB917832
:1011D000831A481DA3EB40031088B3FBF0F3002BE8
:1011E00001DB994202DC40F24921EDE702EB4302C8
:1011F000B2F90A305089002B02DA40F24B21E3E7C2
:1012000008BD00BFF008002070B5044610F00300D0
:101210000E4603D04E211820FFF71AFBFFF7EEFD14
:10122000054624B1034831460460FFF7E7FD284630
:1012300070BD00BF9C0900202DE9F14FDFF870B0B0
:101240001E4607460D46DBF8003090469DF828A064
:101250009DF82C901BB960211820FFF7F9FA52462F
:10126000092140460BF036FA4A4684B2092130463D
:101270000BF030FA81B2DBF8000021440BF07AFB6E
:10128000386018B9286001B0BDE8F08F04445346B7
:10129000414609222C6038680BF0DFF94B460922E1
:1012A0003146286801B0BDE8F04F0BF0D6B900BF59
:1012B0009C09002070B50E4604460BF01EFA054648
:1012C00030460BF01AFA044B2A1821461868BDE87C
:1012D00070400BF074BB00BF9C090020024B1868E3
:1012E00008B10BF03BBB70479C0900201F2AF8B5E2
:1012F000044613460ED89200033222F00303B3F5DE
:10130000803F2DD2184DACB1A00710D06821092024
:10131000FFF79EFAFF2B4FEA420204D9FF339A42AD
:10132000A8BF1A46E8E77C2AB8BF7C22E4E7297008
:101330006C602B8122F0030228230127120403FB97
:1013400001F06B680025120CEEB2B14200D8F8BD76
:1013500014B126181F705E60104401352833F3E77E
:101360004FF0FF30F3E700BFA0090020154A00212D
:1013700070B553681578C8B2854203D8BA210920E0
:10138000FFF766FA1C461846013114F8286B0EB9AF
:101390002346F0E70021997001241289996103F135
:1013A00026055C709208D96103F11E04596824F87F
:1013B000022FA54243F8041F1144F8D100234361D2
:1013C000037070BDA00900200A4B1B89B3F5FF7F95
:1013D0004FEA930006D25A089B1A9BB2984238BF34
:1013E00018467047B3F5EE6F01D8FF22F4E740F2DC
:1013F0007263F3E7A00900204B782DE9F04106461F
:101400000C4602F0040702F0FB05E3B1A5BBFF2385
:10141000A3707B0804EB57073A7D032A02D1022D03
:1014200018BF0133E2180121117503F10C010022EC
:1014300004EB830324F811205B68A270304633600C
:10144000B280BDE8F081002DE1D1012301F11E023F
:101450008D6120464B7004F1260C1A4BCD611B891F
:1014600049689B0822F8023F944540F8041F19443C
:10147000F8D100236361CAE7D1F804801422002167
:10148000A018617010F0DAF80E4B1B89B3F5FF7FDE
:101490000FD25A089B1A9BB208EB0301C4F80480D0
:1014A0002384A1606284C4F80C80A3842161E28457
:1014B000ADE7B3F5EE6F4FF0FF02EBD940F2726388
:1014C000EAE700BFA00900202DE9F84305460C46D5
:1014D000F720052191460BF0FDF8061E21DB1DB912
:1014E00006FB04F0BDE8F88315F0030703D098214C
:1014F0001920FFF7ADF9DFF83080C8F81050A8F8D0
:101500001460BBB29C42EBD9B8F814504B46D8F8E3
:1015100010000522F72107FB050001370BF09DF8AD
:10152000EFE74FF0FF30DDE7B409002007B5CDE964
:1015300000230B4603490246081D0BF0A9FB03B02C
:101540005DF804FBCC09002013B5064CCDE900235F
:101550000B46024604F1080104F10C000BF098FB65
:1015600002B010BDCC09002008B54B1E032B03D9D7
:1015700023219020FFF76CF90028054A0CBF0523B2
:101580000C2303EB8103053323F00103137008BD23
:10159000DC090020114B01224FF0FF3000215A607E
:1015A000C3F80803C3F80015C3F804255A6040F6D1
:1015B000FE72C3F808034020C3F8001503F570332A
:1015C0000749C3F80825C1F88800BFF34F8FBFF360
:1015D0006F8FC1F88801C3F8082570470060045078
:1015E00000E100E002680020014B1A60704700BF74
:1015F000E0090020014B1B68184700BFE0090020EC
:10160000024B1868003818BF01207047E00900201D
:101610000A4606489C2302F8033BC368C1F803301E
:101620000369536043699360704700BFE409002079
:10163000024B5A8C02435A845B6A1847E409002023
:10164000014B00215B6A1847E409002010B5154CD6
:1016500008F00CF808F036FB208DFFF7F1FF237E31
:1016600063B12246104904F1190052F80C3BE360C3
:1016700063685360A36893600DF0F1F8218DE06A10
:1016800003F026FBE36AB3F8AA0003F09BFA636B4E
:1016900094F8301094F831009847002384F83830DB
:1016A00010BD00BFE409002011160000034B93F8A1
:1016B00038300BB1FFF7CABF704700BFE409002004
:1016C0002DE9F041DFF8808005460E4608F12C0038
:1016D0000BF031FB044618B101242046BDE8F0812F
:1016E000D8F82C3093F8A8704FB1012D07D1B8F875
:1016F00022301A0703D598F83930002BECD1012E8F
:10170000EAD8D8F83C30284698470028E4D098F822
:101710003030002BE0D167B9012DDED1B8F822308E
:10172000002BD9D198F84030002BD6D198F8414001
:1017300007E0002DD1D1B8F822309B07EED598F8FC
:10174000394084F00104C8E7E409002070B5204C5A
:101750000646636DE56A63644FF4817394F858003C
:10176000A4F848302B7D95F8211100EB83002EB9A9
:10177000FF2803D195F820318B4201D007F020FCDF
:101780002B7DFBB1E06D07F0AFFEE16D606C08F002
:101790001FFA66B995F82131033B012BB5F8E43007
:1017A0008CBF00202820184480B207F0EBFEB5F86B
:1017B000E00007F0C5FB002007F022FF022384F8B9
:1017C000383070BD606C07F08FFE08F07BFAE0E700
:1017D000E409002008B5094B93F83820022A04D008
:1017E00040F257312720FFF733F8DA7A42F001024E
:1017F000DA72BDE80840FFF729BF00BFE409002006
:1018000010B590F86A1086B0D1B9C2880B46059120
:101810000021CDE903110C4991F85840029400F1E0
:1018200090040194C96A91F8A810003918BF0121E9
:10183000009100F18001022008F0DAF806B010BD36
:10184000D0E91E23E3E700BFE40900202DE9F041C1
:10185000274C06460F4694F83830012B5FFA83F880
:1018600004D040F60C112720FEF7F2FFE56A2B7931
:1018700053B1002104202971FFF7DAFEE36A93F8DF
:10188000A8300BB185F8058094F860308BB92B7ABD
:10189000052B0ED117490220FFF7CAFEE36A93F821
:1018A000A83033B1E36E1B789A1E5342534184F83B
:1018B00039301EB1BDE8F041FFF7C8BE002FF9D0A6
:1018C00031463046FFF7FCFE0028F3D12B7DE46A59
:1018D00013B12846FFF794FF94F821210120B4F8B2
:1018E000E2100FF06AFB0020BDE8F041FFF72EBFC9
:1018F000E4090020500A00207FB590F86A10D1B9A1
:10190000C2880B4605910021CDE90311FB2102910C
:1019100000F1900101910949C96A91F8A810B1FA42
:1019200081F14909009100F18001042008F060F87C
:1019300007B05DF804FBD0E91C23E3E7E4090020CD
:101940001E4A10B5546E41782378C90003F0F303A2
:1019500001F008010B438178890001F004010B4379
:10196000C178090103F0EC0301F010010B43017889
:1019700001F003010B432370B2F87030637002234F
:10198000516EA2F8683004790B786001012C23F0C5
:10199000200300F0200043EA00030B700CD1D36A4F
:1019A00093F8BA2093F8BB30032A03F01F0308BF53
:1019B000002243EA82138B7010BD00BFE4090020AF
:1019C000F7B5184C0646656F0DB1E36C23B940F6C8
:1019D000C4012720FEF73CFFB4F8503001F00301AA
:1019E0002F466B702B7823F003030B4307F8033B60
:1019F0003846B4F85020E16C0AF034FB0DF10202D5
:101A000001A9A06F6564E7640AF09EFF01980AF0DF
:101A100089FF0122B4F850103060A06F0AF02DFF4A
:101A200003B0F0BDE40900202DE9F04FAC4C87B0C5
:101A3000D4F82C8098F8201158B998F8142094F80C
:101A4000583003EB8203FF2B03D198F821318B42EE
:101A500002D0FF2007F0B4FA002304AA02A9A1488B
:101A600004938DF8143084F8603001AB0BF058F912
:101A70000746002845D0029ABDF8043022B940F24A
:101A800013412720FEF7E4FE6266A4F8703003B12C
:101A9000D31CE366012384F860309DF8133004A85A
:101AA000003B18BF012384F8403098F81330002B16
:101AB00000F01C81B4F87030002B00F01781FFF7A4
:101AC0003FFFE06D07F010FD9DF81420E16D003A36
:101AD000606E18BF012207F091FE18B9616EE06DCB
:101AE00008F000F8B8F8E20007F02AFA012007F041
:101AF00087FD012384F8883084F8383007B0BDE8CA
:101B0000F08FE66A8DF80300337AADF80600062BF5
:101B100000F2CA80DFE803F004CBA1A1C8B8B80086
:101B200094F87F300DF1060103A8A6F81031ADF846
:101B3000063001F071FD38B1039D2DB1012384F809
:101B40008030052333729CE0E36A93F85130002B18
:101B50006BD10DF103020DF10601D4F884000AF0F7
:101B6000F3FD0546002860D09DF80370FFB10146E3
:101B7000D4F884000AF0D2FE0AF0D4FED0F800B007
:101B8000D0F804A081465BEA0A0348D1002389F813
:101B9000003089F8013089F8023089F8033089F87B
:101BA000043089F8053089F8063089F80730BDF827
:101BB0000630002B40D1012333720123002784F823
:101BC0008030BDF806306566A4F8703003B1EB1CB8
:101BD000E366727A357A8DF81120022DB27A8DF88B
:101BE000122004D0053D012D8CBF012503258DF861
:101BF0001050002F5ED000209DF810308DF813009B
:101C0000032B6BD1E36E1B781B2B67D1012106F1EF
:101C1000BA0007F01DFA01238DF814303DE70FF0EC
:101C200010FB83457AEB0101B0D2002301222E4D37
:101C3000ADF806303272C6E79DF803301BB92B8031
:101C4000AB700323B8E72B7803F00303012BF8D024
:101C5000022333720023B375AFE7B6F810310DF1EC
:101C600003020DF10601D4F88400ADF806300AF045
:101C70006BFD054610B940F2C35102E7012384F819
:101C80008030BDF806309EE70DF1060103A801F093
:101C9000C3FC08B1039D15B940F2D251F1E601230E
:101CA00084F8803006234DE740F2DC51E9E60E4D22
:101CB000002388E7032D02D11B78022B9BD0D4F898
:101CC00084000AF099FD38B9032D94D001F0C0FCCE
:101CD00080F00100C0B28FE701208DE700239BE771
:101CE000E4090020100A0020600A0020FFF728FE07
:101CF000606E07F0F9FB07F0E5FF9DF81410606EC9
:101D0000003918BF01210FF065F9EBE62DE9F04F1E
:101D1000B04C87B00027804694F83830E56A022B33
:101D2000019105F1A80ACDE9027704D040F6AD1182
:101D30002720FEF78DFD616C03200B784A78014463
:101D4000A4F84800E16403EA0001A4F850208DF8EB
:101D50001010C3F3C0018DF81110C3F380018DF88A
:101D60001210C3F30011C3F340138DF813108DF854
:101D70001430B8F1000F00F00C8104A904F12C001C
:101D80000AF0D0FF064630B9B4F8501009B3A06F7E
:101D90000AF053FD0746238D9DF8121043F400739B
:101DA000676723856B7A0133DAB203F00103994246
:101DB0004AD12B7A33B3032B6A720CD8012B21D072
:101DC00002A9D4F884000AF0E1FCA0B940F2D47171
:101DD000AEE70746DFE7053B012B02D940F2B371BE
:101DE000A6E701F027FC10B940F2DE71A0E7002160
:101DF0000820FFF71DFCD5E91C32013342F1000237
:101E0000C5E91C320021E36A297293F8A8302BB18E
:101E10006B791BB110206971FFF70AFC238D4FF01D
:101E2000000B43F4006323852B7DDBB1B4F8503005
:101E3000C3B107F065FF0328FBD0022806D1FFF7E6
:101E400005FC07B0BDE8F08FC346EDE750B9AB7AAB
:101E50009DF8112003F001039A4203D1012384F875
:101E60003130ECE7B4F85070E6B19DF81330591EEC
:101E70004B424B4184F84130002F40F0B78000279F
:101E8000B946019B002B00F0B88007F0EFFBB9F1D9
:101E9000000F00F01E819DF8101003A8FFF790FDC1
:101EA0000127C9E0AB7A9DF8112003F001039A42A3
:101EB00023D19DF810307FB35A1E012A2CD8238DD0
:101EC00095F8149043F48053238507F04FF80328C6
:101ED00094F8893007D1B9F1000F0CBF1F221B22E3
:101EE000934228BF1346B4F850209A4208D994F878
:101EF000303043F0100384F830304FF000091EE01A
:101F0000636F002BF9D094F88A301BB12020FFF7C3
:101F100097FBF2E79DF81030AA7A032B02F1010239
:101F2000AA722CD05A1E012A1DD8002FE5D0C14616
:101F3000D5E91E32013342F10002C5E91E32626F5B
:101F40009DF81310002A56D1B4F85020B2FA82F24C
:101F50005209012914BF002202F00102374600266F
:101F600084F841208DE7002FC7D0002BC5D1D5E9DB
:101F70001E32013342F10002C5E91E32BDE7238D56
:101F80000120154943F4805328712385FFF750FB46
:101F9000EDE72B7D0BB107F0CDFE94F88B300133CC
:101FA00084F88B30238D43F48063238595F82131A9
:101FB000033B012B12D806F0D9FF032812D1B4F845
:101FC00050604FF000091B2ECB4694BF002601261F
:101FD000B5E700BFE4090020300A002001F0CEFF81
:101FE0000028E8D10026B146B346A8E7238D43F484
:101FF0008053238543E70122ABE794F88B1001203F
:10200000FFF75EFB00287FF440AFEA7C12B1284660
:10201000FFF772FC002095F82021B5F8E0100EF0D3
:10202000CCFF0020FFF700FDB9F1000F5AD09DF85A
:10203000101003A8FFF7C4FC238D5A0606D44020D5
:10204000FFF7FEFA238D43F040032385BBF1000F19
:1020500010D0EB884BB9E36A93F8A8302BB1B4F8F1
:102060000530B4F80720134304D0B4F80930013325
:10207000A4F80930B8F1000F3CD0B4F805300133B2
:10208000A4F80530002384F88B301D4802F088FD49
:10209000029830B10AF046FC00220272514601F06B
:1020A00035FF039B33B100221A720C22514603986C
:1020B00001F0FAFE002F7FF4C2AE238D1B063FF520
:1020C000C0AE8020FFF7BCFA238D43F08003238548
:1020D000B7E6002E3FF4E4AE0A49A1F120000AF071
:1020E00023FEDDE6002EA7D00649A1F120000AF06C
:1020F0001BFEA1E7B4F807300133A4F80730C4E7AA
:10210000100A0020300A0020064B10B593F8382042
:1021100002F0FF0422B91C7602F0D2FD204610BD69
:102120000C24FBE7E4090020094B0A4A10B51A60A9
:10213000FFF7EAFF20B14FF4B1712720FEF788FBCB
:10214000054C00F0BDFF606500F0BEFFE06510BD0E
:102150001816002094230000E4090020F8B5794CFB
:10216000054694F8386006F0FF0016B909B102B1CF
:1021700023B94FF420712720FEF76AFB63639DF8B3
:102180001830616284F88A30E26384F8300084F8A1
:102190008B0084F8310084F888006084208584F8FE
:1021A000400084F8410084F8800084F839006066BB
:1021B000E066A4F870006064E064A4F85000E56292
:1021C00006F068FF07F07EFD95F9280106F0C6FFCE
:1021D000D5F8D460D5F8CC0006F0C6FF304607F03D
:1021E00067F995F8250006F0C9FFB5F8E030622BD5
:1021F00003D9B5F8E230622B01D806F0A7FEE36AF6
:1022000093F8A860002E40F085800DF0F4F895F862
:1022100020214D4B4FF47A7153F8223003F5FA73B5
:10222000B3FBF1F352331918304606F0B5FF474BB4
:10223000186807F043F9D5F8C030C4F88430D5F8F1
:10224000C430A367AB7B243B072B6BD9EB7B243BD0
:10225000072B67D9B5F8F230B5F8F80095F82011DA
:10226000984228BF1846042908BF03210BF00BFF32
:10227000034695F8F400984228BF184695F8F030C8
:1022800080B2984200D3C3B295F8211105F1E8005D
:1022900084F87F300CF087FB95F821112F7D0329FE
:1022A000B5F8FC6008BF04210BF0EDFE0FB9043057
:1022B00080B2864228BF0646F6B284F8896001F0F3
:1022C0005DFE28B101F060FE864238BF0646F6B2D8
:1022D00084F858600AF02BFDE36A93F8A8301BBB22
:1022E000EB7C13B12846FFF707FB0120FFF79CFBAF
:1022F000002323606360A360EB886380B5F8AA3095
:10230000238095F825302371D5F824310BB10122B3
:102310001A60F8BD0DF06FF895F8212100F17101F8
:10232000012082E71B23AFE72B7D13B12846FFF77F
:1023300067FA0120FFF70AFAE36AD3F8F00107F021
:10234000EFF8D5E7E40900205457020018160020E2
:10235000014B93F888007047E4090020054A138D6B
:1023600092F8800003F4805110B113F4C06F00D1D3
:10237000080B7047E4090020024B93F82900C0F3D2
:10238000C0007047E4090020014B93F88B007047B0
:10239000E4090020D51700000D1D00004D180000B5
:1023A000AD160000343270B5054692B20C461E469A
:1023B0000AF070FB25B1034A55601474567414700A
:1023C00070BD00BF880A00200138C0B2032808B5DC
:1023D00004D94FF43F710620FEF73AFA014B185C1E
:1023E00008BD00BF885402000138C0B2032808B5F8
:1023F00004D94FF43F710620FEF72AFA014B185C0E
:1024000008BD00BFA55402000138C0B2032808B5BA
:1024100004D94FF43F710620FEF71AFA014B185CFD
:1024200008BD00BF085502000138C0B2032808B536
:1024300004D94FF43F710620FEF70AFA014B185CED
:1024400008BD00BF01560200014B1868704700BF6D
:10245000540B002008B5034610465A1E032A10D814
:102460004A1E032A0DD8084A012951700CBF0021C9
:102470000A211071937091721946FFF775F80020C8
:1024800008BD6FF01500FBE706010020074A537AEC
:1024900040B143F00403002953720CBF002307230B
:1024A0005371704703F0FB03F5E700BF06010020FE
:1024B00040EA4100014BD870704700BF0601002080
:1024C000304BF0B5B0F86C700C461146DA88B0F8B5
:1024D0006A6085B097421D8928BF1746964228BF7B
:1024E00016461B2E2ED0B5F5A47F2DD040F64803FE
:1024F00001AA9D4228BF1D460AF048FCBDF80A30DB
:10250000BB4228BF3B46E380BDF80C30AB4228BF3E
:102510002B462381BDF80630B34228BF3346638083
:10252000BDF80830AB4228BF2B46A380FF232370A1
:10253000E3881B3B9BB2E02B08D940F209513920BC
:10254000FEF786F91B2FCED105B0F0BD63881B3B8B
:102550009BB2E02B02D940F20B51F0E7238940F601
:102560004812A3F5A4739BB2934202D940F20D51D5
:10257000E5E7A388A3F5A4739BB29342E4D940F2A4
:102580000F51DCE7600B0020F7B5002304460E4630
:102590001746CDE900336846FEF7EEFD08B100208E
:1025A0001AE0009DA542F6D0304605F1AD030AF0D1
:1025B000C6FB394695F8AC200BF0F8FC0028EAD0B1
:1025C00005F1B40395F8B32004F1B40194F8B30015
:1025D0000BF0ECFC0028DED003B0F0BD054A516AD8
:1025E00002F11D03127F11F8030BC0F380100BF0F2
:1025F000DDBC00BFD010002010B503210020FEF785
:1026000081FD044670B90321FEF740FD044620B960
:1026100040F225313920FEF71BF9034B93F9701076
:102620000DF0E9F9204610BD600B0020014B5888E1
:10263000704700BF600B0020044BD87BC0F3400004
:1026400080F0010000F00100704700BF600B002027
:1026500038B50BF0AAFC002501F03CF9214C00F044
:10266000A7FD0CF0D4F802F009FB01F05DFA05F0CB
:1026700015FD012000F02CFD1B4B1C4A29461D6056
:102680004FF01B13A4F86850A58184F83650E57309
:10269000C4E900234FF4A4731022A3604FF47943DC
:1026A0002361134B58681B89A06304F14000A38782
:1026B0000EF0C4FF012342F2107204F15E0084F8B0
:1026C00040306375C4E911220DF083FD04F1500020
:1026D0000DF0E7FF0022002384F88050C4E91E2398
:1026E00038BD00BF600B00201C16002003021B0039
:1026F000A5540200064B41F64C521B211A629973F5
:10270000C3E9062241F288325A62FFF7A1BF00BF37
:10271000600B0020F0B53D4D85B000F1A8070446E0
:10272000AB69C0F8E8302B7C003B18BF012380F870
:102730002931374BC0F8C83038460CF068FF0646E0
:1027400000F00AFD8306A97B53BF1B236B88AA8870
:102750001A46A4F812312F4BA4F814211B6884F8F0
:10276000F010A4F8F26023B194F92811B4F8AA008B
:10277000984703A803940AF0E0FA274B1B681BB1A3
:102780002649B4F8AA009847254938460BF07DFA47
:102790000123A4F8DE30234B1B681BB10021B4F8E1
:1027A000AA009847204B1B681BB10021B4F8AA006F
:1027B00098471E4B1B6813B1B4F8AA0098471C4BEE
:1027C0001B6813B1B4F8AA009847AB8804F1C000A5
:1027D0006A8869780333033201919BB2297892B2F7
:1027E000009104F1C401FEF727FDD4F8C03023B9ED
:1027F00040F2E2413920FEF72BF8D4F8C43013B987
:1028000040F2E341F6E705B0F0BD00BF600B0020E9
:1028100000093D002C16002024160020880B002003
:102820006A0B00203C1600203016002034160020D1
:10283000381600202DE9F34104460E460DF01CF930
:10284000002800F0968020460DF04EFA40B1B6F810
:102850000130013B7F2B03D9122002B0BDE8F0818B
:1028600020460DF045FA08B90C20F6E720460CF09A
:1028700085FF0028F8D120460DF0A7F880460028F3
:10288000F2D1204603F0EAFE0028E5D042F21073B0
:10289000B6F80170F17820465F430DF010FA04217C
:1028A0003078FEF72FFC054606213078FEF72AFC2B
:1028B0002DB140B141F676213920FDF7C9FF18B39B
:1028C000054690F8E5802C4E3368EBB1403528463C
:1028D0000CF07AFDC0B128460CF067FDA0B9B8F144
:1028E000000F07D0254B28461B68984760B141F67A
:1028F0008A21E1E72249424633682846096A984717
:1029000010B141F68F21D7E720460DF0E5F90146D9
:1029100038B93A46204602F093FE40B341F698217A
:10292000CAE702210DF10600FEF778FB054608B95B
:102930000D2092E7BDF806100BF03CFC294620461E
:102940000DF006FA2846FFF7E5FE3A4629462046EE
:1029500002F076FE024610B141F6B421ACE7084B16
:10296000DB6E23B105F5977105F1A80098470020AB
:1029700073E7422071E700BF2016002028160020D0
:10298000600B0020024B1B6803B118470C207047F6
:102990001C160020034B5A8802801B78837000208D
:1029A000704700BF600B002073B5837806461A2B72
:1029B00008D8042B04D9334A22FA03F3DB0705D4E1
:1029C00012251AE0292B01D03B2BF9D13088B0F524
:1029D000706FF5D269460BF0BCFB88B9009B93F889
:1029E0002C2102F0FF05C2B9B27883F82D21FF2215
:1029F00083F82C2168460AF069FB284602B070BDB6
:102A000009213088FEF77EFB0446002837D001A953
:102A1000B0F8AC010BF09DFB08B10C25EDE70821E7
:102A2000B4F8AE01FEF76EFB20B94FF40461392013
:102A3000FDF70EFF03781BB994F8C831032BECD1D6
:102A4000019B93F84221002AE7D194F8F02102F08B
:102A5000FF05002AE1D1B4F8B021A3F8442194F88D
:102A6000B82183F84621027D83F84721B27883F8A4
:102A7000482184F8F021FF2283F84221BDE7022596
:102A8000BBE700BF200038040188A1F11B039BB203
:102A9000E02B0CD8428844F24810A2F5A4739BB2F4
:102AA000834204D8034B0020D9801A81704712203A
:102AB000704700BF600B002038B50278447802F000
:102AC000010302F0020254EA030101D1112038BDD2
:102AD000BAB98578002DF9D0002B18BF002400E08A
:102AE0001D4620460AF0ACF90028EFD028460AF02F
:102AF000A7F90028EAD0054B00209C72DD7298816E
:102B0000E5E7002BECD000242546EAE7600B002027
:102B100013B5008801A90BF03EFB044620B90198CB
:102B200090F83E311BB13A24204602B010BD90F817
:102B30005C3003F0FF04002BF5D190F853309B0775
:102B400006D1FF2380F83E3101A80AF0BFFAEBE777
:102B5000024954300BF083FEE6E700BF0DF300009E
:102B6000084B10B504469969987B05F0F3FA0123E8
:102B70007D22207060800020637020716271A371DB
:102B8000E07110BD600B002037B5837805460A2B35
:102B900039D801A900880BF0DCFA044670B912217B
:102BA0002888FEF7AFFA20B941F2D8513920FDF755
:102BB0004FFE019B93F840211AB10C24204603B02C
:102BC00030BD827A02F0FF04002AF6D1019A92F811
:102BD0006510090706D4FF2283F83F21FF2283F8FE
:102BE0004021EBE792F86920D20907D0027BAD784B
:102BF000417BAA4228BF2A469142EFD303490230C3
:102C00000BF024FEDAE71224D8E700BF650E0100BE
:102C1000F7B5067804460F46EF2E03D91226304644
:102C200003B0F0BD90F901204378002AF6DB8278EA
:102C30009207F3D113F010001DD19D0603F003029B
:102C400016D5002AEAD11907E8D42179E278E57986
:102C500042EA0122617942EA0142A17941EA052171
:102C6000257A41EA05418A42D8D81F2A12D8D5E7E9
:102C7000032AE8D1D2E713F0600FCFD103F00702A7
:102C8000052A05D003F00F010D22CA40D207C5D591
:102C90001D07DAD5627A013A062ABFD8A27A032A3A
:102CA000BCD813F0040302D1023A012A03D8E27A15
:102CB000012AB3D813B9A37C032BAFD8237DF8B175
:102CC000012BABD1237E012BA8D818B36378D90789
:102CD00002D500F0BBF920B36378227D03F018031E
:102CE000082B2ED1022A1CD103213046FEF70AFA06
:102CF000054660B30CF042FD002834D00C268EE768
:102D0000022B8BD0A37D013B022B87D8E37D0F2BB9
:102D1000D8D983E700F03EFA820707D4237D022B3F
:102D200001D111267BE7A37D022BFAD000F032FA05
:102D30004307CBD4237D032BF3D0A37D032BC5D135
:102D4000EFE7022AD0D0237F002BCDD0E9E7032183
:102D50003046FEF79BF90546002843D0224B93F9F5
:102D600070100CF048FE002130460DF0F5F928BB3C
:102D700028460CF0AEFF21463870E07428460CF06F
:102D8000A9FEE37E0646002B3FF449AF00287FF4FE
:102D900046AF0246E96C6846FEF72EFB3246E86C09
:102DA000012109F0CCFEE96C68460422FEF724FB01
:102DB00032463146E86C09F0C2FE30E740300CF094
:102DC00003FB0028D4D0637813F0330F7FF426AFD1
:102DD000A67D2846296A0CF09AFFFFF705FB86427C
:102DE000C6D08BE707261AE7600B002030B50279C2
:102DF0008BB00346042A4FD84088B0F5804F4BD89B
:102E0000264900241144ADF800408DF808408A7C22
:102E10004D7B42F010028DF8244042EA4502CD7D00
:102E2000097F42EA850242EAC102694602F01F02B6
:102E30008DF80020BDF80020ADF809201A888DF823
:102E40000E00000A8DF80B20120A8DF80D408DF847
:102E50000C208DF80F008DF810405A7BD3F8070036
:102E60008DF811205A79059002A88DF812209A79D0
:102E70008DF81320B3F80B209B7BADF818208DF84C
:102E80001A307F238DF81B304FF00113CDE9073442
:102E9000FFF7BEFE0BB030BD1220FBE7A5540200C9
:102EA0000278034672B1427862B142881A2A09D97F
:102EB00082881A2A06D90068034A106000209B887D
:102EC0009380704712207047600B0020026800203A
:102ED000014B9A61704700BF600B00200378A3F19B
:102EE0000A02112A9BBF024A0020122093737047E6
:102EF000600B0020014B587400207047600B0020CD
:102F0000014B987400207047600B0020024B1B6837
:102F100003B11847112070474016002008B505205E
:102F200000F0E2F805F00EF8014B024ADA6608BD3F
:102F3000600B0020C124000008B5252000F0D4F863
:102F400005F00CF802F0A8FD014B024A1A6008BD1A
:102F50003C1600209F02010008B5482000F0C4F88C
:102F600005F016F8034B044A1A60BDE8084000F06B
:102F7000C5B900BF301600208505010008B53F2007
:102F800000F0B2F801F048F901F094FD05F01AF8EC
:102F9000014B024A1A6008BD34160020A9840000C3
:102FA00008B5412000F0A0F801F06EF905F012F824
:102FB00005F072FA034B044A1A60BDE8084000F0BD
:102FC0009DB900BF38160020C308010008B50122D2
:102FD000054B1A7103F02CFB04F054F90AF03BFE88
:102FE000BDE8084000F088BEE40B002010B5064C98
:102FF000064904F108000AF0E5FD04F10C0004495B
:10300000BDE810400AF0DEBDE40B0020D000002037
:10301000D800002010B5094C094904F108000AF055
:10302000D1FD04F10C0007490AF0CCFD04F11000B9
:103030000549BDE810400AF0C5BD00BFE40B002003
:10304000E0000020E8000020F0000020014B18798B
:10305000704700BFE40B002038B5074C0D4600F068
:1030600027FEA06825600AF0A5FDFFF743FB00F0EE
:10307000C1FF0123237538BDE40B0020014B187DEF
:10308000704700BFE40B002010B50C4CE0680AF05C
:1030900091FD20690AF08EFDFFF7DAFA202000F09A
:1030A00037F82F2000F034F8262000F031F82920DE
:1030B00000F02EF80023237510BD00BFE40B0020A4
:1030C00000487047F90B002000487047FB0C0020B7
:1030D000014B83F819027047E40B0020014B93F871
:1030E00019027047E40B0020C208074900F00700EE
:1030F00001238340885C03438B5404490B7893423B
:1031000038BF13460B70704778000020FE0D00207A
:103110000F4B012110B503EBD002C40800F00700EB
:1031200001FA00F0195D21EA0001195509490B78EF
:10313000A34205D1002012F8014914B100B10B706F
:1031400010BD002BFAD0013B0120DBB2F3E700BF3A
:1031500078000020FE0D0020014BD3E900017047EC
:10316000780000200048704780000020064B187847
:10317000072881BF08381823B0FBF3F001308CBF5B
:10318000C0B20020704700BFFE0D0020004870470D
:10319000D4540200054B1868C0F3C022C0F30020CD
:1031A000400040EA820040F00100704778000020B3
:1031B00008B507F027FB0023074A32F823108142A5
:1031C00005D302EB83029378044A137008BD0133E0
:1031D0000C2BF2D10023F7E7D8540200FF0D00209A
:1031E000024B1878072828BF07207047FF0D0020E2
:1031F0002DE9F04F9A4685B0814688469DF83830D3
:10320000012514789AF8007001920293AC420DD215
:10321000334B1B78002B56D004EA0700029BC0B248
:10322000002B3DD1002856D1092051E02C4213D06B
:103230006A0714D415F0010203D1C5F3400252000D
:10324000D2B201264FF0000BB7420AD2BBF1000FF9
:1032500023D124EA0504E4B26D00EDB2D6E70322DF
:10326000EFE7374214D0730715D416F0010303D1EA
:10327000C6F340035B00DBB24946404603920BF0C5
:10328000B6FCD8F82030039A984298BF46EA0B0B58
:103290007600F6B2D8E70323EEE707EA0B07DBE791
:1032A000B9F1000F0FD098F8713098F870201340E2
:1032B000184009F057FDC31E0446DBB2012B96BF30
:1032C000042727463C46019B00201C708AF80070AA
:1032D00005B0BDE8F08FB9F1000FEAD1F3E700BF08
:1032E000000E0020014B1870704700BF000E002038
:1032F000014B1878704700BF000E0020014B024AB6
:103300001A60704744160020F13100002DE9F04F9B
:10331000046898460F4685B094F86330164604F169
:10332000A80994F80FA043EAD303D90702D4BAF14D
:10333000260F5FD194F8A850002F55D1FFF72AFF30
:103340008DF80B00002E51D1FFF724FF2B4B8DF889
:103350000C00D3F800B0BBF1000F0CD0AAF126028C
:1033600028464946534253410DF10B02009303ABEB
:10337000D847054630B99DF80B3013B19DF80C00C5
:1033800028B90925BAF1260F2AD10020034694F85E
:10339000292132B19B0700F002002DD560B3022035
:1033A0000346FF2284F8392194F8382102F0FF0502
:1033B000F2B99DF8382003A984F83B01484684F807
:1033C000382184F83A31A4F83C818DF80C708DF8DE
:1033D0000D60ADF80E800AF058FC002384F83931F6
:1033E000284605B0BDE8F08F3846A9E73046ADE77E
:1033F0003A25F2E71A25F3E70925F1E744160020FC
:1034000010B50468B4F8AA3084F88411A4F88531A2
:1034100094F82001FEF7F8FF84F8870194F8210161
:10342000FEF7F2FF044984F8880104F27B10BDE83E
:1034300010400BF014BA00BF75DC00002DE9FF4707
:1034400004688946054694F80EA0AAF1250359425E
:103450005941052A35D1E37B272B37D104F10F07DA
:1034600099F8018099F8026008F0070806F007064D
:1034700008F1FF33721E03EA0803324013431FD1E1
:1034800030460AF09AFC60B394F82031984228D074
:1034900094F83A21164213D0BAF1250F21D094F8AE
:1034A000192116421DD10138013B474AC0B2DBB297
:1034B0001044032B00790FD81A441379834210D992
:1034C000284604B0BDE8F0470AF03FBCBAF1250F2A
:1034D00077D104F10E07C3E74FF4DD710620FDF745
:1034E000B7F940460AF069FC40B194F821318342B3
:1034F00004D094F83B3118EA030FE1D0B9F80390F7
:1035000003AB20463246009341464B460AF062FC2C
:103510002C6878BB94F83831012B28D1E38804F566
:10352000367294F82011B4F83C010AF0B4FC064657
:10353000D0B901462846FFF763FF2B6883F838614E
:103540003E702B6803F10F02974201D10022DA731B
:103550002B6803F10F0297422FD128460BF006FC8F
:10356000002004B0BDE8F0872C23A373E9E784F8BA
:103570003801E6E7E388A4F8D89209F1FF39A9EB0E
:10358000030947F6FD731FFA89F9994506D92823DF
:10359000284684F8313001F0B1F8D9E7E37B0D2BF0
:1035A00002D00A3B012B01D82A23F1E7BDF80C30E9
:1035B000A4F8DA3229233B70CAE7002283F84A20B4
:1035C000CEE70220CDE700BF08550200034B0022E2
:1035D00083F85020A3F85220704700BF020E00204D
:1035E000044B93F85020012A1ABF036001200020E9
:1035F000704700BF020E0020064B024693F85010A1
:1036000001291BBF0120A3F85220002083F850009D
:10361000704700BF020E0020054B024693F8500091
:1036200028B1136011B1B3F852300B8001207047FC
:10363000020E0020054B002293F85000A3F8522000
:1036400010B1012083F85020704700BF020E002007
:10365000034B93F85000B0FA80F04009704700BF68
:10366000020E002050B90A4A0120134603F8010B4C
:103670000868C2F801008A889A807047012805D13D
:10368000034B0A68D8719A608A889A81704700BF94
:10369000560E002050B90B4B187888B1D3F8012092
:1036A000B3F805300A6001208B807047012806D1ED
:1036B000044BD87920B19A689B890A60F3E700200F
:1036C000704700BF560E002010B9044B18787047A1
:1036D000012806BF014BD87900207047560E002004
:1036E000F7B58A8800238DF80600ADF80420086835
:1036F0000B4A8DF807300146147802F5A872019D37
:10370000D8B2844201D8082007E052F8087F01337C
:103710005668AE4208BF8F42F2D103B0F0BD00BF81
:10372000680E0020084B0146002230B55C7803F299
:103730000113D0B2844201D8082004E013F8015FDD
:1037400001328D42F5D130BD680E0020F0B5254D17
:1037500089B095F8984105F299116846224608F01B
:1037600081FC214668460AF03FFC0446B8B300EBF2
:10377000400102A8C9B2FDF73DFF631E95F8A161A3
:103780000124DBB295F8981105E0721CB2FBF1F050
:1037900001FB1022D6B206F120020DEB020010F858
:1037A000202C002AF1D103EB430100F8204C06EB5A
:1037B000460220312A44694411F8187C82F8A2712B
:1037C00011F8177C11F8161C82F8A37182F8A41165
:1037D000013BAA19DBB282F89941FF2BD2D109B083
:1037E000F0BD00BF680E002070B5064688B00C46DC
:1037F000002A4ED0294A92F8A131D01890F8991198
:1038000019B9FF212820FDF723F803EB4301013309
:10381000114491F8A251E57091F8A35191F8A411C7
:1038200025716171002180F8991192F89811B3FB0C
:10383000F1F001FB103382F8A13192F8C23123B9C3
:10384000174902F5DD700BF007F865790D220021AC
:10385000684605F03F0545F0400565710DF0EEFE48
:10386000E37804AA69468DF80F30304623798DF845
:103870000D508DF80E3004230DF033FE9DF81F30EF
:1038800023709DF81E3063709DF81D30A37008B042
:1038900070BD03216018FDF7ADFED6E7680E00206D
:1038A0004D370000044B5A78824286BF1B1893F8AC
:1038B0004A010020704700BF680E0020044B5A7870
:1038C000824286BF1B1893F842010020704700BF58
:1038D000680E0020064B00224FF461711A8083F8B5
:1038E000C32183F8C421A3F8C61183F8C22170470D
:1038F000680E0020014BB3F8C6017047680E002027
:103900000A4B30B55C7884420ED9184490F8020115
:103910002B3003EBC004A5790D7053F83000106014
:103920000120A388938030BD0020FCE7680E0020B2
:103930000246074810B590F8C34124B1417821B13F
:10394000023004F0BDFE204610BD0C46FBE700BF70
:10395000680E00202DE9F74F2F4C9A468046894685
:103960006378834256D9231893F8425185F00105B4
:10397000F9B193F84A31E3B945F002070135BAF1DC
:10398000000F18D1FA070AD5062104EB0810524699
:1039900001FB0841823001F58571FFF725FFBB0768
:1039A00034D504EB0810524649460230FFF71CFF9D
:1039B0002CE02F46E3E794F8A1614FF0010B002DB6
:1039C000E0D0A31993F89911019399B90092DAB153
:1039D00000F0E0FA019B06EB4601009A4FEA102C3A
:1039E00083F899B1214481F8A201000C81F8A3C1A8
:1039F00081F8A401013694F89831013DB6FBF3F14A
:103A000003FB1166F6B2DAE747F00407384603B065
:103A1000BDE8F08F0027F9E7680E0020074B5A78C1
:103A2000824209D91A1892F842212AB9062202FBC9
:103A3000003000F58570704700207047680E002048
:103A4000064B5A78824281BF1B1893F83A01B0FAAC
:103A500080F0400998BF0020704700BF680E00202A
:103A6000034B80F880101B680BB1408818477047E3
:103A7000481600200B2808B504D940F22911292046
:103A8000FCF7E6FE014B33F8100008BD10550200AC
:103A9000036830B50024D3F8C80042F21075A3F8CB
:103AA0004040B3F844404443B4FBF1F4A3F844402D
:103AB0004C1E05FB0242B2FBF1F2A3F84220094A78
:103AC000B2FBF1F20132A3F848209A8F05FB0244C1
:103AD0005A6B5043B4FBF1F4B0FBF1F09C635863B4
:103AE00030BD00BF005A6202054B1B7833B9054B4D
:103AF0001A681B790260037101207047002070472B
:103B00003010002088000020054BFF221A70054A63
:103B1000016811600179117100221A70704700BFAD
:103B2000301000208800002007B5064A106812797E
:103B3000009068468DF80420FFF7E6FF03B05DF8BB
:103B400004FB00BFFF8002000346084671B13F2B13
:103B50000BD8074AD35C03F07F02914205D08CBF9B
:103B60000120002000EAD31070470120704700BFF9
:103B700028550200FF230B7002234B7083238B70A8
:103B8000014B1B78CB707047341000202DE9F84FA3
:103B9000D0F804800C46D8F81C60304608F0ACFE23
:103BA000054620B94FF4AA711020FCF751FE0146DA
:103BB000304608F0AFFEB5F800B082461FFA8BF72A
:103BC00017B94FF4AC71EFE7224B00F103091B6802
:103BD000D3B998F8023098F803202370637802F084
:103BE0000F02A4F802B023F00F03134323F0C00325
:103BF00063709AF8003003F00303012B0FD0022BFF
:103C00000DD04FF4BB71CFE73A464946B8F80200F1
:103C1000984705460028DCD12846BDE8F88F627831
:103C2000304663F30512627008F07EFE054610B957
:103C30004FF4C071B8E7FB2F02D940F28F11B3E700
:103C40003A464946201D08F00DFA304608F0C3FDFB
:103C5000E2E700BF4C16002038B5134C10220021BB
:103C6000201D0DF0EBFC0125257404F10803102242
:103C7000002104F11400C4E901330DF0DFFC84F8E5
:103C8000205004F11803094AC4E905330023636294
:103C9000A36284F82C30C4F82D30C4F8313084F895
:103CA00035301360A36338BD341000204C1600205B
:103CB00010B5084C2378FF2B04D040F29911102046
:103CC000FCF7C6FD08F03AF92070BDE81040FFF798
:103CD000C3BF00BF8D00002010B5034C207808F052
:103CE00047F9FF23237010BD8D000020014B187889
:103CF00008F04EB98D000020014B024A1A6070474F
:103D0000541600208D3B00002DE9F341DFF8888137
:103D1000054608F11407D8F80830D8F81840227A78
:103D2000012A22D1D8F8382052B1137A1BB9BF2109
:103D30001020FCF78DFDD8F83840C4B9002093E07E
:103D40001A7A012AFAD01C46544AEFF3108172B64F
:103D500050680068506001B962B6A34208BFC8F855
:103D60003840237A1BB9EE21E2E73A46EDE7267A9E
:103D7000F6B205232372731E0B2B7ED8DFE803F007
:103D80007A062336773F4E3F3F3F3F6B636813B958
:103D90004FF40371CCE72046294698470420EFF3FF
:103DA000108272B6237A052BD9B24FF0000369D185
:103DB0002372D8F83810A14201D1C8F83830002A4F
:103DC00045D162B643E0636813B940F21521AFE70D
:103DD0002946204698470346ADF80400C0B2C3F315
:103DE0000723012B3ED0022BD9D129E0636813B9F8
:103DF00040F21D219CE7204698470020CFE7284B42
:103E00001B68002BF9D03246606829469847A6F116
:103E10000A020420534253415B00E4E763680BB994
:103E2000FE2185E786222A7001225988AA706A71CC
:103E300000229869A5F80310AA7108F0CCFC0420B0
:103E4000D8F83830A34202D10023C8F8383000280F
:103E50003FF461AF08E0134B294620461B689847A2
:103E6000034668B9267298B102B0BDE8F0814FF4FC
:103E700015715DE740F257215AE740F25A2157E7A2
:103E80000220DDE711B940F27B2151E7184696E7A1
:103E9000002B7FF440AF51E7341000203810002091
:103EA0005016002054160020134610B5027A22B195
:103EB00040F202311020FCF7CBFC0A4601460248D2
:103EC000BDE810400AF0A5BC38100020044890F866
:103ED0002C301BB9034924300AF0B8BC704700BF2E
:103EE0003410002003E800000346064890F83C2008
:103EF0003AB190F8352022B9034900F82D3B0AF079
:103F0000A5BC704734100020753B00000A4610B570
:103F1000037A23B140F20A311020FCF799FC0146E4
:103F200007230248BDE810400AF073BC4810002087
:103F30001346027A0AB1037270470A4601460148E5
:103F40000AF067BC3810002001490AF088BC00BFA5
:103F500065E800000B8BA2F809001046A2F80B30B0
:103F60004B8BA2F80D308B8BA2F80F30CB8B024914
:103F7000A2F811300AF06DBC0FE90000014B18786F
:103F8000704700BF71100020014B1878704700BFC8
:103F90008E000020094AD2E90003434083EAB011B1
:103FA00081EA43214FEAF34311605360044B5843C5
:103FB0004FEAF06000EB8000704700BF74100020F3
:103FC000BB79379E094AD2E90003434083EAB01126
:103FD00081EA43214FEAF34311605360044B584395
:103FE0004FEAF06000EB8000704700BF90000020B7
:103FF000BB79379E10B50A4C08210948FDF7FAFA3B
:10400000D4E900321343F7D0064CFFF7DBFF206002
:10401000FFF7D8FF236860601843F6D010BD00BFDB
:10402000900000207410002038B5A0F10B03144656
:104030000D46DBB22046432B96BF0C4AFE21D15CD5
:104040000AF03AFE88B985B12978342909D03F2988
:1040500009D0272908BF26212046BDE838400AF0AC
:104060002BBE3221F8E73E21F6E738BD6855020045
:10407000094B0A4A1A600A4B0A4A1A600A4BC0F8EE
:10408000B0300A4BC0F8AC30094BC1F8B030094B26
:10409000C1F8AC30704700BF9C180020370F0100FA
:1040A000A018002095850000C9850000F18400005B
:1040B000030F0100550F0100094B0A4A1A600A4B11
:1040C0000A4A1A600A4BC0F8EC300A4BC0F8F030CC
:1040D000094BC1F8EC30094BC1F8F030704700BF14
:1040E000B4180020F7080100B8180020350A0100B4
:1040F0006F0A0100BD0C010081090100D50D01000E
:10410000174B184A9A60184A5A60184A1A60184A97
:104110009A62184ADA62184ADA60184A9A61184AAA
:104120001A63184A1A62184ADA64184A9A64184AD2
:104130005A62184B184A9A60184A5A62184ADA6248
:10414000184A1A61184A5A61184A9A61184A1A6339
:10415000184A9A64184ADA64184A9A63704700BF8A
:104160005816002033EE000059EE000085EF0000E5
:1041700023F100007FF100002548000091F10000CC
:10418000FD4A00004549000063F2000089F200008A
:10419000A14900005817002049EE000029F2000054
:1041A000AFF100005FF10000CFF10000D548000042
:1041B0002FF30000CDF20000B9F2000013F200006E
:1041C000044B054A5A65054B054A1A65054A5A6566
:1041D000704700BF581600207FF4000058170020D9
:1041E00069F40000A9F40000054B064A9A65064AE6
:1041F0001A66064B064A9A65064ADA65704700BF9A
:104200005816002049DF00003D34000058170020F8
:10421000A3DD00008BDF000001490248FFF728BF43
:104220005817002058160020054B064A1A60064B06
:10423000064AC3F89820064B064AC3F89C207047EC
:10424000A41800203B040100581700202504010099
:104250005816002075040100054B064A1A60064BEB
:10426000064AC3F8F820064B064AC3F8FC207047FC
:10427000AC180020BD0501005817002035060100CC
:1042800058160020E182000001490248FFF714BFE0
:104290005817002058160020F7B5044601A80F460D
:1042A000FFF79EF920B94FF4AA615120FCF7D0FA2C
:1042B0005022002101980DF0C1F9019D3F2F2E469B
:1042C00006F8037F43D83F2F44D8DFE817F04600B5
:1042D0004C006C0075008D00740174019A00B300ED
:1042E0009E0074017401A300AF00B30043004300BB
:1042F000B70074017401CC00CC00E300E300EA00D5
:10430000430043007401EF00FC00000104010B01B5
:104310000D010F0111011B0125015401560143003C
:1043200043002D015E015C0146013C013E0140015C
:10433000420148014C014A015001740143004E0101
:104340004401520160016201430058015A01FF2FEC
:1043500000F0258140F24451A7E7214630460AF09B
:104360007EFEC0B9BBE02668D6F838326B6096F89E
:104370003C322B72206890F89F3033B90AF046FD2A
:104380002368DB881844A6F83E02B6F83E320820BF
:104390006B721B0AAB72FFF72FF9002840F00D81FA
:1043A00040F2575181E7236893F8A82052BB93F855
:1043B0002D3102202B71EEE723681720D3F88022DD
:1043C0006A60D3F88422AA60B3F88822AA81D3F85D
:1043D0006022C5F80E20D3F86422C5F81220D3F865
:1043E0009030C5F81630D6E722680D20D2F8FE319D
:1043F0006B60D2F80232AB602368D3F89430EB6084
:10440000C9E7236893F8A030D3E73146204600F08F
:1044100033FBA6E7112306202B7159236B71002370
:10442000AB713923EB7130232B72B4E7236893F817
:104430009A30BEE7304600F00DFB92E7236893F810
:10444000A82052B993F8A0203AB193F89D202A7180
:1044500093F89C3003206B719DE793F89B202A71A1
:1044600093F89A30F6E723680920B3F80C212A71F3
:10447000120A6A71B3F8A220AA71120AEA71B3F89B
:1044800008212A72120A6A72B3F8A030AB721B0AB2
:10449000EB7280E7236893F83A212A7193F83B3155
:1044A000D8E72146304609F012FD5AE7236811216A
:1044B000B3F8AA00FCF726FE00F15B0130460AF0D3
:1044C000F3F8232067E730460BF05AFE49E7304601
:1044D0000BF05FFE45E73A4B1B68002B5BD140F2C7
:1044E0004951E2E6374BF7E7374BF5E7374BF3E750
:1044F000374B1B68002BF2D02320224631469847C9
:10450000042048E7324B1B68002BE8D02246314696
:104510002420984705203EE72D4B1B68002BDED05A
:10452000224631462520F4E723681121B3F8AA007A
:10453000FCF7E8FD00F17D0200F15B0130460AF076
:10454000BFF82B2027E7234BC6E7234BC4E7234BB9
:10455000C2E7234BC0E7234BBEE7234BBCE7234B0B
:10456000BAE7234BB8E7234BB6E7234BB4E7234B1B
:10457000B2E7234BB0E7234BAEE7234BACE7234B2B
:10458000AAE7234BA8E7234BA6E7234BA4E7234B3B
:10459000A2E7234BA0E7214630469847E1E623688F
:1045A000304693F8CF22D3F8D0120AF04AF82368A5
:1045B00093F8CF02D5E60120EDE603B0F0BD00BFD1
:1045C00058180020601800205C1800206418002093
:1045D000681800206C180020701800207418002043
:1045E000781800208C180020941800207C180020D7
:1045F00090180020981800208018002084180020AF
:1046000088180020A4180020A8180020AC1800204A
:10461000B01800209C180020A0180020B41800201A
:10462000B81800203F289ABF024B53F82000002002
:10463000704700BF581600203F289ABF024B53F81E
:1046400020000020704700BF5817002030F8023CBF
:10465000F7B504460E46B0F8825073B101226846A1
:10466000ADF801508DF80020ADF80330FEF78AF95F
:1046700018B195216320FCF7EBF81C4B1B6813B1B4
:10468000A4F1280098471A4B1B680BB1284698479D
:10469000184B1B680BB12846984783230027A6F8C0
:1046A00003503370B770637AD4F89C00737108F0CC
:1046B0009CF808B9BA21DDE739462846FCF738FDF1
:1046C00002212846FCF734FD18B90B4B1B6803B1D7
:1046D00098474FF40173002003F004021B0A62F3B1
:1046E000070063F30F2003B0F0BD00BFBC1800202B
:1046F000C0180020C8180020C4180020F7B50568AD
:1047000004464FF6FF77D5F8C0600DF102010DF1B8
:1047100001023046ADF8027008F016F801A93046E3
:1047200008F034F848B1019808F0FCF82168A83185
:1047300000220272FFF7EAFBE7E7044905F12800CF
:1047400003B0BDE8F0400AF084B800BF4D46000059
:10475000F0B5044685B00D46FF2600F8E96C10F868
:10476000EA3CF3B1174F3B781BB162211F20FCF7E5
:104770006FF80C21381DFCF73DFF3E70002304F854
:10478000E93C8A232A4602F8033BD4F80930C5F8ED
:104790000330D4F80D305360D4F81130936005B075
:1047A000F0BD01A80C21FCF725FFA4F51773039AAF
:1047B0001A6001AB03CB44F8F20C44F8EE1C04F889
:1047C000EA6CDBE77C10002010B5054C23782BB990
:1047D0000C21201DFCF70EFFFF23237010BD00BF2E
:1047E0007C100020024690F80632BBB990F80732E0
:1047F00003F0FF010BB100207047094B1878002827
:10480000F9D01970D9680433C2F8941003CBC2F8F8
:10481000FE01C2F80212FF2382F80632012070471F
:104820007C100020026870B5D37B04460D463BB176
:10483000132B05D0113B0F2B8CBF0120082070BD1E
:10484000D2F8A430002B3BD192F8523013B9204655
:104850000AF07AFAD5F80B302268C2F8F631D5F8AA
:104860000F30C2F8FA312368D5F81320C3F890202E
:10487000B3F8AA20A3F8F922D5F80120C3F8FB2247
:10488000D5F80520C3F8FF222368B5F809200025D4
:10489000A3F80323236883F8BE5183F806522068E7
:1048A0000B4900F53C7009F0D1FF2668204608F05E
:1048B0003CFA162286F86A0028462368DA73BEE7B7
:1048C00020460C220321BDE870400AF063BA00BF05
:1048D00051470000036810B5DA7B0446202A04D053
:1048E00040F29D211F20FBF7B3FF002193F85220D7
:1048F000B3F8AA0083F8511082B1C3F8C91183F844
:104900005210A3F8CD11A3F8CA0103F5E0700B49CA
:1049100009F09CFF23680022DA7310BD0121A3F87F
:10492000B90183F8B82103F2AF1083F8BB1183F803
:10493000BF210349A3F8BC21EAE700BF0BF1000047
:10494000F3F0000038B5046894F8A8501DB9E37B73
:1049500023B101201AE02368DB07FAD4D1F8012043
:104960000D4BD1F8051013400C4AC4F86230C3F364
:1049700007630A4043F00803C4F8662084F86530F2
:104980000AF0E2F91DB90423E373002038BD23685F
:1049900043F001032360F8E72FC904F76FDB0080C1
:1049A00038B503689A7B042A34D1D1F801204C1C15
:1049B000D1F80550C3F86220C2F30762C3F866500D
:1049C00042F0080283F86520002283F84A209A7397
:1049D000026892F8A8200AB983F83F2193F8402191
:1049E000B2B993F8912102F0FF008AB9B3F8AA2076
:1049F00083F8920103F28910A3F89321D1F80120E2
:104A00000549C3F895216268C3F8992109F01EFF92
:104A1000002038BD0120FCE7E9F10000036893F8AD
:104A2000402112B1094B1B68184793F891215AB9DC
:104A3000B3F8AA2003F289100549A3F893211A229A
:104A400083F8922109F002BF704700BFCC18002004
:104A5000E9F1000010B50446FEF77EFB044A054B61
:104A6000024009200B40C4F80120C4F8053010BDF5
:104A70002FC904F76FDB008037B50C460568FEF7D9
:104A80006BFB0A4B0A4A03400A4095F862100093F8
:104A90000B4001928DF800306B4603CBC4F8010047
:104AA0000920C4F8051003B030BD00BF2FC904F7BA
:104AB0006FDB0080014B024A1A607047CC1800205F
:104AC0005986000038B5DB04154604D5037D13B1C3
:104AD0000023436338BD446B013444630AF006FC91
:104AE000836B9C42F6D30023034943632846BDE809
:104AF000384009F0B4BE00BF57F2000070B504683A
:104B00000546A37B94F8A860012B07D01EB9E37B70
:104B100023B1012038E023689807FAD494F8533081
:104B20009A0713D44A78D80784F85D204A88A4F8F5
:104B30005E208A88A4F8602043F0020284F85320A3
:104B40000FD5164904F1540009F089FE94F853304A
:104B5000D90710D4CEB9E37B43B153214020FBF7F2
:104B600077FE94F83E31002BEBD1EFE70123E3739E
:104B700028460AF0E9F8A37B0020012B4FF0000340
:104B800004BFA37384F84A3070BD23689A0701D527
:104B90005821E3E743F002032360E9E70DF3000047
:104BA00070B50568044603F057FA054B0146E872F4
:104BB0001B681BB12046BDE87040184770BD00BFA0
:104BC000D4180020024B1B6803B11847704700BF80
:104BD000D0180020F0B51F4D00242B7814709BB125
:104BE000013B6D68DBB21E1B012E0FDC05EBC4061A
:104BF00055F8347076688E4208BF874227D0B84295
:104C000071EB060612D214700020F0BD1E19771049
:104C1000C6F3470655F837C005EBC70E8445DEF8E6
:104C200004708F412CBF33463446DCE705EBC304E8
:104C300055F8335064688C4208BF854206D0A842BC
:104C400071EB040428BF01331370DDE71C4601201B
:104C50001470DAE79C10002010F0070208B503D0AA
:104C600063214820FBF7F4FD18B1034B197258601B
:104C70001A70C80008BD00BF9C100020014B002224
:104C80001A7070479C100020024B1879003818BF2A
:104C900001207047AC100020FF23084A0B700D2341
:104CA0004B7082238B701368C1F803305368C1F8CE
:104CB00007309368C1F80B30704700BFB210002076
:104CC0001622002101480CF0B9BC00BFB210002030
:104CD000F8B51C4D04466B7D9BB390F8A83023BB00
:104CE000D0E978760AF087FB94F82021164B5230F1
:104CF00053F822304FF47A7203F2E733B3FBF2F346
:104D0000DB19B4F8AA2046F100061B182A8046F1E8
:104D100000066B60AE60E38805F10C0002220B49CF
:104D20006B80BDE8F840FFF703B94B0609D5B0F832
:104D3000AA302B80D0F880326B60D0F88432AB6020
:104D4000E9E7F8BDB210002054570200994C00006A
:104D5000094B53F8203003F5224370B5B1331646A2
:104D60004FF47A720C46B3FBF2F5344404F036FD8E
:104D70002C44204470BD00BF405702002DE9F04F85
:104D800098468BB0002304460F460392069390F892
:104D900021B108F06DFF064694F82B01FEF76AFE7C
:104DA00006440AF028FBE37B00F14805B6B2472B26
:104DB00047D00D2B45D094F80E90A9F14701D1F1C1
:104DC000000949EB0109039B002B40F08580637BC0
:104DD000032B40F08180B9F1000F6AD0B4F8D832CB
:104DE000BB4266D1D4F820322046B4F8F421C4F88E
:104DF0001032D4F8C830C4F81432B4F892321344E4
:104E0000C4F8183203F02AF894F829A1BAF1000F77
:104E100009D0D4F8E02241F64B539A428CBF4FF0B0
:104E2000000A4FF0010A94F8EC326BB9D4F8C820AC
:104E3000D4F8E0329A4221D0B4F8AA000BF016FA66
:104E40001CE04FF00109BEE7B4F8AA000BF00BFA22
:104E500020B940F242713020FBF7FAFCB4F8E83296
:104E60004FF0000AA4F8DE30B4F8EA328381B4F8D7
:104E7000D832A0F80EA04381013B038294F82A3176
:104E8000002B4ED1BAF1000F4ED1D4F8DC3284F8A9
:104E90002AA1C4F8D830B4F8DA32A4F8DC30D4F857
:104EA000E032C4F8C830D4F8E432C4F8D030022379
:104EB0006373A17B292946D0A1F12C0251425141B3
:104EC000E27B292A00D039B1B4F8D832FB1A1B048E
:104ED00002D4204602F07CF9B4F890A204F51873CD
:104EE00094F82101A7EB0A0A0293E3880FFA8AFAE1
:104EF000FB1ABAF1000F0FFA83FC26DAE246D4E976
:104F00009E23C4E9A223002384F833320123627B69
:104F1000032A00F2B581DFE812F01A002A017000BE
:104F20004E01BAF1000F07D04FF04D13C4F8E03036
:104F30000023A4F8E430A8E74FF09613A4F8E4A007
:104F4000C4F8E030A1E70121BAE74346DFE70146B4
:104F500094F8ED0109F0B8F88246D4F8D80031464B
:104F6000504405F003FC3146C4F81C02D4F8C800D4
:104F700005F0FCFB07A9C4F8200208A804F086FB92
:104F8000079B0093DDE90823D4E9A2010CF0B7F8F0
:104F9000064604F1A8000AF0B7FAD4F8943294F85F
:104FA0002101D4F8D8B0069304F020FC069B00F54C
:104FB0002240D4F81C124FF47A72203BB1305B448B
:104FC0005B1A30315B1BB0FBF2F053442A469B1B4B
:104FD0001B1A94F821010693B4F8DC3003EB41016D
:104FE000FFF7B6FED4F89422069BC4F824029B1A5D
:104FF000B92B5CD840F2C7412DE7D4F8D830314600
:10500000D4F81402184405F0B1FB3146C4F81C0270
:10501000D4F8C80005F0AAFBC4F8200204F1A800E7
:105020000AF072FAD4F8D830D4F814621E44B4F8F6
:10503000F431002B40F09780B8F1000F00F093801E
:1050400094F8210104F0D2FBD4F81C12D4F8803279
:1050500000F52240761A94F82121B130203E1E44FA
:10506000A44B53F822204FF47A7302F2E732D4E9CA
:105070009EABB2FBF3F2A6EB0A06B0FBF3F01644CC
:10508000761B361AD4F81032D4F8182294F821017D
:1050900002FB0311B4F8DC302A460696303103EBEC
:1050A0004101FFF755FE0123C4F824026373D4F8CD
:1050B000C83004F1E800D4F82022723B06999B1A0C
:1050C0005D1BD4F824329D4228BF1D46002384F87E
:1050D0006032C4F8F051D4E9A2325B1842F1000208
:1050E000C4E99C3209F05DFC04232844A4F89072C2
:1050F00084F86932C4F86402D4E99C23C4E9A22389
:1051000002F07CF920B1D4F864321E33C4F8643262
:10511000B4F8E031DB1B18B20028D4BF0023012310
:105120005B0084F86832B9F1000F40F0AC80B8F150
:10513000000F40F0AB80637B002B00F0C380D4F8FD
:10514000C81004F51870D4F82032C91A08F06DFFA1
:1051500080B2002800F0B680149B03B118800120B3
:105160000BB0BDE8F08FD4F81C12761A8AE7D4F899
:105170002022D4F8C830D4F818129B1AD4F8106240
:105180000AFB03F30693B4F8F4319C44D4F81C32C0
:10519000ACEB010C30330CF1FF3C06FB0133B4F8EF
:1051A000DC1002FB0C332A4601EB4301FFF7D0FD74
:1051B000C4F824027BE7D4F8C82002FB0AF2069266
:1051C000B8F1000F1CD0B4F8F411C9B984F8331247
:1051D000D4F8201201FB1A2EB4F8F4A10291CDF8F4
:1051E00018E06BB3BAF1000F2AD1D4E9A061D4E979
:1051F0009E23B24273EB010108D340F20E512AE61E
:1052000094F8331200297FF452AFE1E7394B203E86
:1052100053F82B104FF47A7BD4E99E23CDE9042375
:1052200001F2E73301F52241049AB131B61AB3FB1A
:10523000FBF3B1FBFBF11E44761A761B764406960F
:10524000029BE2442A4603FB0AFA0AF1300A4FEABB
:105250004A0A5146FFF77CFD41F64B53C4F824023D
:10526000D4F8C80098423FF622AF06AB2A46514612
:10527000009304F5097308F043FF84F8330216E73E
:1052800040F22651E7E5B8F1000F1BD0B4F8081240
:1052900039B3B4F80A2294F80C32551CA4F80A2247
:1052A00002FB033399420DDD00280BDD0023A4F837
:1052B0000A5284F86832FEF76DFE00F007000130F4
:1052C00084F80C02394608A8089407F033FD04F569
:1052D000187104F50E7006F0F1F920B940F276511C
:1052E000B9E50A46D7E7039B83F0010384F830321F
:1052F000002035E740570200F0B5044685B018B9E4
:10530000A5213020FBF7A4FA052900F2DA80DFE8B6
:1053100011F00600D30038003300D800CE0090F81A
:105320003032C288FBB1B0F82E32934208BFB0F8D9
:10533000E4319A1AA0F8E621E3802046D4E99C23C0
:10534000C4E99E2301F0ACFF94F84C30002B00F030
:10535000AC805D4B1B68002B00F0A780204605B099
:10536000BDE8F0401847B0F82C329B1AA0F8E6319F
:10537000B0F82C329BB2DFE705B0BDE8F04004F096
:1053800091B90BF0B4FED4E99E23801A61EB0301BE
:10539000012871F1000302DA40F20161B1E76FF018
:1053A000010383424FF000038B4102DA40F20261B5
:1053B000A7E7D4F8C8300BB1B0FBF3F3E07BB4F847
:1053C0002E2247280ED0A17B463901290AD90D2863
:1053D00008D0E1880B449BB2D11A0D0443D50133A8
:1053E0009BB242E00132A4F82E22B4F8923203AE0E
:1053F000E5880133354FA4F89232B4F842301D44A9
:10540000B4F84030013DED1AADB23B685BB1B4F881
:105410002E1200222046013989B29847B4F82E3264
:105420001844A4F82E02B4F82E126B1A18042CD4C7
:105430000023204600961A46FFF7A0FC012834D12D
:10544000B4F82E22B4F8E011BDF80C301344521A0F
:1054500012049BB204D5EA1A12F4004F18BF0B468F
:10546000A4F82E32D1E7013293B2A4F82E3294F888
:105470003132002BB9D1B4F8E431B4F82E22934282
:1054800004BF0133A4F82E32AFE7A37C3046039467
:10549000002B14BF08233E2384F83130FFF72EF988
:1054A00020460AF007FE0023637305B0F0BD05B087
:1054B000BDE8F04007F014BC437B042BF3D0C621B9
:1054C0001FE7CB211DE700BFD8180020E0180020FF
:1054D0002DE9F8430E46044618B9D3213020FBF7D6
:1054E000B7F9052900F2A780DFE801F00376413D16
:1054F000A52E0BF0A6FEC4E95001204601F062FA89
:10550000D4F83401A4380BF0F4FD20460AF0ECFB8B
:10551000054600BB014620460AF0B3FA00F1AE068C
:10552000D4F83401B04209D2301A0321192838BF07
:1055300019200BF058FE60B10BF0DDFDC4F83461AA
:1055400020460AF013FC45B12046BDE8F8430AF0B6
:105550000EBC0125F2E70025F2E7D4E95023C4E9A7
:105560004A23BDE8F883BDE8F84304F09BB80AF08D
:10557000AEFA04238146884684F839310BF0B7FD32
:1055800007220F46A9FB023102FB0811D4E94A5257
:105590005B1941EB0205D4F810213AB159EA08022F
:1055A00004D0984277EB050228BF012684F83861C1
:1055B000D4E95226121A66EB070694F8581139B945
:1055C000012A76F100010BDA204601F003FA03E02C
:1055D000012A76F10006F7DB002384F85031C0E79A
:1055E000984277EB05010FD259EA08080CD01B1A34
:1055F00065EB07019A4276EB010005DB012B71F1A7
:105600000000A4BF1A460E460C49012304F1E8002D
:10561000914284F851314FF0000384F83031B341A6
:10562000B8BF0A4604F5987106F0A8F8002898D18A
:1056300040F2B26152E7EF2150E700BF0040420F55
:105640002DE9F84304460E46154690F8503103F014
:10565000FF07002B40F0948000F1E80839467822DB
:1056600040460BF0EBFF2246464940460BF066FEF3
:10567000C4F81061FF2384F8503166B1FEF7A2FC34
:1056800000F0070032464049013086F80C0206F56A
:105690000E700BF053FE40F202434FF00009A4F8E5
:1056A000383184F8309105F0B7F800F1490620460A
:1056B0000AF01AFB0146B6B2C0B308F0D9FA00F1FD
:1056C0002801284689B205F051F82844AE3DC4F8B7
:1056D00034010BF00CFD3018A4F8269041F10001C4
:1056E000C4E95001012084F814010AF0D7FB2D1AF7
:1056F000C4F818514FF0FF356FF000414046D4E92F
:105700005023C4E95251002504F59871C4E9482397
:10571000C4E94A2384F8515142F2107206F02EF87F
:1057200038BB40F2B9113020FBF792F82046DFF881
:105730005C900AF0A6F9AE30C4F83401B9F8000064
:1057400048B1E08C38B1FEF73DFCB9F80030B0FB51
:10575000F3F202FB130006440BF0C9FC361841F1CA
:105760000001C4E95061002DC4D0AD1941F1000120
:10577000C4E7294620460AF0FCFA3846BDE8F8831B
:105780000C27FAE7D1540000F9520000C81000209D
:10579000F0B5002385B0CDE9003303238DF8063042
:1057A0006846FBF7E9FC88B10123114EB370002372
:1057B000CDE9023302238DF80E3002A8FBF7DCFCA2
:1057C000044638B10023B37005B0F0BD009809F06D
:1057D000F1FEE5E7029D6B7B002BEED005F50E7721
:1057E00038460BF0A7FC38460BF0B0FC6C73E4E7CE
:1057F000C8100020044B0022DA709A7042F2107236
:105800001A80FFF7C5BF00BFC8100020014BD87039
:10581000704700BFC810002008B503F0ADFB044B73
:105820005A6882422ABF9878002080F0010008BDA3
:10583000C8100020F0B5044685B090F84C3003F055
:10584000FF05002B68D1437B032B65D10BF04FFC88
:10585000D4E99E23801A61EB0301012871F1000352
:105860005ADB6FF00103834275EB010104DA40F269
:10587000AA513020FAF7ECFFD4F8C820E3880AB127
:10588000B0FBF2F2013313449BB2A4F82C32B4F80B
:10589000E431B4F82C229B1A1BB2002B3CDD04F53A
:1058A0000E700BF047FC002836D0FF2384F831320D
:1058B000B4F842300DF10E07E588184E1D44B4F8D7
:1058C0004030013DED1AADB2336863B1B4F82C122B
:1058D00000222046013989B29847B4F82C32184486
:1058E00080B2A4F82C02B4F82C32EB1A1B0413D4A7
:1058F000B4F82C1200230122204689B20097FFF74A
:105900003DFA012808D1B4F82C32BDF80E2013441A
:105910009BB2A4F82C32D7E705B0F0BDE018002008
:105920002DE9F7430446062900F2A980DFE801F0DB
:1059300004251422282DA100524B9B7803F0FF026E
:1059400053B900920123B0F8E411FFF717FA28B118
:1059500040F2CE61302031E00423637303F014FD84
:1059600005F098FE0023E288A4F89232A4F82E22D3
:1059700084F8313203B0BDE8F08303234373F9E7C1
:105980000BF011FBC4E9A001F4E73F4B00F1A808BC
:105990001B681BB14246D0E9A00198471321B4F817
:1059A000AA00FBF7AFFB002861D094F82131022B4D
:1059B0005BD005D8012B08D0DC21B420FAF748FFD2
:1059C000033B012BF8D81E3000E00A30858894F89C
:1059D0002101DFF8B090C31E012B8CBF00272827C0
:1059E00009F07BFD6430D4F82022373FA842FFB293
:1059F00034BF2B1A0023D4F8C85099188D428ABF9F
:105A0000AD1A0025ED1A99F8033023B9D4F8E8301F
:105A10009D4228BF1D46D4F8F06104F1E80008F06B
:105A2000C0FF064402200BF0B4FB0221AD1B25EAA7
:105A3000E575854228BF054628460BF0D4FB10B11A
:105A40002E440BF058FB01233A463146404609F0FC
:105A5000B4F8D4F8F031C9F80400D4F8C8001844F8
:105A600003B0BDE8F0430BF044BB1430AEE796251D
:105A7000ADE7A83003B0BDE8F04309F045BD40F202
:105A80009C7167E7C8100020DC180020014B1880CB
:105A9000704700BFC8100020014B024A1A607047CF
:105AA000E0180020D7020100044B1A78012AD0B276
:105AB00003D01878831E584258417047D0100020F8
:105AC0000C4B4FF47A7253F82130023903F2E7336A
:105AD000C9B2B3FBF2F3022900F1FF3210B54FEA6D
:105AE000C21296BF044CF02134F81110134400FB8D
:105AF000013010BD54570200AC550200D928F0B552
:105B0000054628BFD925BDF814600446303501F597
:105B1000A57006F00207ADB2FF2D28BFFF2516F0D5
:105B2000010621D10FBB002B00F0C580911EC9B228
:105B3000022996BF7B4D40F6480135F81110084404
:105B4000D92C7FD9D93C951EF721A4B2EDB2002BF8
:105B500000F0CF80F634022DB4FBF1F400F2C680E1
:105B6000714B33F815306BE0EFB1911EC9B20229C9
:105B700097BF6E4D4FF4147105EB4101C988014484
:105B8000D01E012837D801F614409830002E3BD0A3
:105B9000023AD2B2022A97BF644BC02303EB4203FE
:105BA0005B8A18444EE053B1911EC9B2022997BFD7
:105BB0005E4D40F6480105EB41018989DFE7032A84
:105BC00005D1691D89B2890101F5C871D7E7042A99
:105BD00005D1691D89B2090101F5BF71CFE7022A1C
:105BE0000BBF05F10B0105F10A0189B289B20CBFA7
:105BF0008900C900C3E7022A01F19C0114BF4FF4D8
:105C0000B070B4200844C0E7EBB1911EC9B20229BC
:105C100096BF474D40F6480135F81110D92C08447D
:105C200010D9D93C951EF721A4B2EDB24BB3F6348E
:105C3000022DB4FBF1F459D83C4B03EB45031B8B0D
:105C400003FB0400F0BDF12C214628BFF121032AFB
:105C500005D1133189B2890101F5C871DEE7042A43
:105C600005D1133189B2090101F5BF71D6E7022AC6
:105C70000BBF1931183189B289B20CBF8900C90034
:105C8000CCE7B4FBF1F3022DDBB239D8294931F866
:105C9000151001FB0300C3EB4311C3EBC103E41A6E
:105CA000A3B2002BCED00833032A9BB22BD19B0189
