:10000000B85C0020D5240000659B0100C1240000DD
:10001000C1240000C1240000C1240000C12400004C
:100020000000000000000000000000000D2500009E
:10003000C124000000000000E1260000C1240000EF
:100040006127000061270000612700006127000090
:100050006127000061270000612700006127000080
:100060006127000061270000612700006127000070
:100070006127000061270000612700006127000060
:100260006127000061270000012C010061270000C8
:10027000612700006127000061270000612700005E
:10028000612700006127000061270000612700004E
:10029000612700006127000061270000612700003E
:1002A000612700006127000061270000612700002E
:10047C0053B94AB9002908BF00281CBF4FF0FF31FF
:10048C004FF0FF3000F00CB8ADF1080C6DE904CE64
:10049C0000F018F8DDF804E0DDE9022304B0704741
:1004AC00704700BF034611F8012B03F8012B002AFB
:1004BC00F9D17047034613F8012B002AFBD1181A07
:1004CC00013870472DE9F0478C468E46089E15463C
:1004DC0004461946002B40F0D080724547D9B2FA39
:1004EC0082F74FB1C7F120030EFA07FCBD40BC40A8
:1004FC0020FA03F343EA0C0C4FEA154EA8B2230C76
:10050C00BCFBFEF80EFB18CC08FB00F943EA0C43CD
:10051C00994528D9EB1808F1FF3204D2994502D934
:10052C00A8F102022B44A3EB0903A4B2B3FBFEFC1B
:10053C000EFB1C330CFB00F044EA0344A04214D91C
:10054C002C190CF1FF3304D2A04202D9ACF10203F6
:10055C002C44241A43EA02401EB1FC4000233460B0
:10056C007360BDE8F0874246DDE76346F1E7002A99
:10057C0079D0B2FA82F3002B3FD01946C1F1200397
:10058C0002FA01F500FA01F42EFA03F20EFA01FE5A
:10059C0020FA03F3AFB243EA0E034FEA154EB2FB57
:1005AC00FEFC0EFB1C201A0C0CFB07F842EA004266
:1005BC0090455AD9AA180CF1FF3004D2904502D9B3
:1005CC00ACF102002A44A2EB08029BB2B2FBFEFC87
:1005DC000EFB1C220CFB07F743EA02439F4246D951
:1005EC00EB180CF1FF3204D29F4202D9ACF102029B
:1005FC002B44DB1B42EA004202E0AEEB0203012279
:10060C004FEA154EAFB2200CB3FBFEFC0EFB1C33B5
:10061C000CFB07F840EA034398452AD9EB180CF178
:10062C00FF3004D2984502D9ACF102002B44A3EB65
:10063C000803A4B2B3FBFEFC0EFB1C330CFB07F748
:10064C0044EA0344A74216D92C190CF1FF3304D207
:10065C00A74202D9ACF102032C44E41B43EA00404C
:10066C000F46114678E71F2188E76046ABE76246E4
:10067C00BFE76046DBE76346EFE7734506D916B97B
:10068C00002108466DE7C6E9000EF9E7B3FA83F7D7
:10069C0087B9734501D3824207D8841A6EEB0303E2
:1006AC0001209C461EB900215BE73846FAE7C6E9F3
:1006BC00004CF8E7C7F1200CBB4000FA07F422FA13
:1006CC000CF520FA0CF1BA401D432EFA0CF30EFA7D
:1006DC0007FE4FEA154941EA0E011FFA85FEB3FBEE
:1006EC00F9F809FB18300B0C08FB0EFA43EA00432F
:1006FC009A4540D9EB1808F1FF3004D29A4502D93B
:10070C00A8F102002B44A3EB0A0389B2B3FBF9F85E
:10071C0009FB183308FB0EFE41EA03418E452CD928
:10072C00691808F1FF3304D28E4502D9A8F10203EF
:10073C00294443EA0040A1EB0E01A0FB029841457D
:10074C00CE46434602D306D14C4504D20138B9EB10
:10075C00020E68EB0503002EA5D0B4EB0E0261EB84
:10076C00030101FA0CFC22FA07F3F9404CEA0303EB
:10077C00C6E9003197E74046C5E74346D9E7000094
:10078C0030B505491846D1E900451A1945F1000361
:10079C00C1E9002330BD00BF50080020184630B519
:1007AC00064A0749136801331360D1E90045021961
:1007BC0045F10003C1E9002330BD00BF50150020F6
:1007CC00580800204A780248097818F05CBC00BF31
:1007DC009CD90100F7B5184C0E46D4E900231A43F6
:1007EC0026D01BF020FCD4E900454FF47A77A0FB0F
:1007FC00070C47F61222002307FB01C1FFF738FE56
:10080C00021B61EB05030D490D4809680068091AC4
:10081C0000910C48314618F036FC0B4A1368013332
:10082C0013600022094B1E70094B1A7003B0F0BD07
:10083C004FF0FF321346E6E7480800205015002021
:10084C0048150020ADD901004C150020263500209C
:10085C002735002000220023014817F015BA00BFED
:10086C000000002070B5114D88B003AC06460FCDCA
:10087C000FC42B680E49236000230222009303A8A7
:10088C0004F04CFC014610B110F1780F04D109486A
:10089C0018F0F9FB08B070BD074818F0F4FB40F6EF
:1008AC0035420023304617F0EFF9F3E710CE010084
:1008BC00A8CE0100E8D90100F5D9010000B58DB032
:1008CC0029B108480DB05DF804EB18F0DCBB01A9A8
:1008DC0005F08CFC18B90699034818F0D4FB0DB040
:1008EC005DF804FB20DA010037DA01002DE9F04F46
:1008FC0000263746B246A9B0002147F612201BF05D
:10090C00E4FA294B294AD3F80080294BA8EB0707B6
:10091C00D3F80090274BA9EB0606D3E90034CDE9B8
:10092C000C340C99244B0AF1010AD3E900BCD2E92E
:10093C0000430C1B0D9961EB0303A10A41EA83539D
:10094C001E490F93D1E90053BBEB05056CEB030378
:10095C00AD0A45EA8355DDE90C34C2E9003410AB2D
:10096C00C1E900BC6022002118461BF0F5FB0346D0
:10097C00134A144914481278096800780B93002321
:10098C00CDE90510CDE90933CDE90733CDE9029660
:10099C00CDE9008704922B4651460F9A0B4818F06C
:1009AC0072FB4E464746A7E750150020C0070020B3
:1009BC00283000205808002050080020B8070020DC
:1009CC00273500204C1500202635002052DA010076
:1009DC0070B54B1E124C59425941217023789BB172
:1009EC001BF021FB4FF47A75A0FB050647F612228B
:1009FC00002305FB0161FFF73BFD0A4BC3E9000136
:100A0C00094B1A68094B1A602178094B094A0A48A4
:100A1C00002918BF1A46BDE87040114618F033BBC8
:100A2C0027350020480800205015002048150020CC
:100A3C00D2DA0100DADA0100DEDA0100002008B5B2
:100A4C0003F0E8FE014620B1054818F01CFB00201D
:100A5C0008BD044818F017FBFFF7FCFEF7E700BFD2
:100A6C00EEDA0100FCDA01002DE9F84F8A4600AFFE
:100A7C00002974D004680E1F361BF50826F00706F3
:100A8C0004EB0608B8F802B01BF0010B16D1E946CE
:100A9C0088B06A46334BCDE90531032342F8103F49
:100AAC004FF4C2515B46304800F0A4FFCD468BF3A7
:100ABC001188BFF36F8F0423184602DF29462046A6
:100ACC0018F05DF9284434F83030C01A854217D03C
:100ADC00E94688B06A46254BCDE9053A032342F82E
:100AEC00103F00234FF4C2511F4800F083FF002336
:100AFC00CD4683F31188BFF36F8F0423184602DFB2
:100B0C00B8F80230294623F00103A8F80230204639
:100B1C0018F035F905EB000804EBC8035B88DA071D
:100B2C0008D44146204618F073F94246294620461F
:100B3C0018F0B3F9A65BAE1B04EBC6035B88DB07AE
:100B4C0009D43146204618F063F92A46314620462E
:100B5C0018F0A3F935462946204618F015F9BD467C
:100B6C00BDE8F88F96DB0100E0CD01006DDB0100E4
:100B7C002DE9F04F91B0009302F004030293C2F3FD
:100B8C00C2030133840705460E46DDF868A00392C4
:100B9C00059340F09C81041D002849D101F0070603
:100BAC00341DC6F10806009B00274FF004085A1E9E
:100BBC004FF0FF33B9460193BB46434604970DB142
:100BCC00009921600598002800F3D6808F48009981
:100BDC00814203D38E488142C0F0CE800399601BC2
:100BEC0011F0020C40F0D680B9F10F0F00F2CF805B
:100BFC00002D00F0D68009F140010DEB010E01999A
:100C0C00C0F387000EF8200C0EF8101CBCF1000F7E
:100C1C0000F0C38060F07F000EF8200C013709F162
:100C2C000109C5F108014FF6DA7E043406918CE017
:100C3C000729B8D86FF01B0011B0BDE8F08F7A28E7
:100C4C005BD84B280FD8472857D829282ED82528C9
:100C5C0050D052D8202818BF23280CBF4FF0010BBE
:100C6C004FF0000B71E04C382E2846D8DFE800F02E
:100C7C006D454545454545454545454548454545ED
:100C8C004545454545564548485656566D486A456E
:100C9C006D4518481845457F7C48454548457C00BE
:100CAC0000204FF0000B4FF0040835E001212A38EA
:100CBC00C0B201FA00F010EA0E0F46D110F0625CDF
:100CCC002CD110EA010B40D06046013C4444B4FBEB
:100CDC00F8F408FB04F425B1A3EB050CA444B445CB
:100CEC00A8D8002870D00599013905915AF8041B31
:100CFC00009164E70199013901914FF0000B24E058
:100D0C0012F8010C6C2834D1002012F8023C8346F6
:100D1C006C2BC8D14FF008084346D6E70AF1070AF6
:100D2C002AF0070A073424F00704FAE802BC35B1AC
:100D3C0006982044B0423FF67DAFC4E900BC4FF0AA
:100D4C00000B08344FF00808434612F8010F002836
:100D5C0053D0BBF1000F7FF472AF2528F5D14FF0C3
:100D6C00010B019B013301934FF00408ECE758464B
:100D7C0097E700208346A8E7039988077FF551AFD2
:100D8C004FF0010C601BB0F5007FFFF42DAF6FF03E
:100D9C00150051E74FF0000CF5E704980130049072
:100DAC003DE7BCF1000F01D0013638E7029802365E
:100DBC0000287FF434AF0098CDE90632FFF77AFBB8
:100DCC00DDE9063206442AE7042B08D10AF10400B7
:100DDC0015B1DAF80010216082460434B5E70AF147
:100DEC00070323F0070303F1080A1DB1D3E900013F
:100DFC00C4E9000108230834A7E7631BB3F5806F2F
:100E0C00C5D23DB9A6F10804E01815E770C201007F
:100E1C00F0F70100029A9B0828602B709DF81030A7
:100E2C00AAB1EB70AF702FB1002208A8C5F1010C6C
:100E3C0091450ED14FF0000AC5F101030DF12008C8
:100E4C0001930DF1300BD14512D1601BF4E66B70A0
:100E5C00E8E710F8013B190608D50CEB040EB64573
:100E6C0003F07F033FF6E6AE04F8013B0132DFE707
:100E7C001FB198F90020002A17DB029BD3B11AF896
:100E8C000B2004F8012B0022019B18191044B042CE
:100E9C003FF6D0AE98F80000009904F8010B2046FC
:100EAC0003921BF033F9039A14440AF1010A08F176
:100EBC000108C8E798F8002055F822300093029BEF
:100ECC00009845F82230FFF7F5FA421CDCE76FF08A
:100EDC000D00B1E62DE9F04F97B000AF05468A46FC
:100EEC00C7E90A3249B903784678807800EB830069
:100EFC002844564524D8A0EB050AD7F8803095F83D
:100F0C00028003F00103D7F88040FB61EB78B8F165
:100F1C00000F0CBF002404F001047B621BB1D7F856
:100F2C0080309A0715D4A4B9FB6A1BB151462846E8
:100F3C00BA6A9847564630465C37BD46BDE8F08FD6
:100F4C00441C2046FFF7B6FA013020440AF1010A8E
:100F5C00CFE7D7F88030C3F3C0033B622B78BB617B
:100F6C009B003B616B687B61BB6905EB830BFB6A88
:100F7C00002B77D15646D844BCB11C461BF8013B1C
:100F8C0055F82300FFF796FAD7F88430013043B1B7
:100F9C00D7F88830A34282BFD7F8843023F81400E6
:100FAC000134C3450644E9D1D846D7F880304FF018
:100FBC00000913F0050F0CBF4FF0020B4FF0010BA3
:100FCC007B6A9945B7D298F8013008F1020855F8B8
:100FDC0023A0AE4B9A45C0F04C81AD4B3A6A9A4572
:100FEC002CBF002301230AB318F8021C7869FB629A
:100FFC0018F028F8FB6AC8B1EA468AB06A46A54BD5
:10100C0005937B69CDE906314FF40073ADF82030C0
:10101C00A14B42F8103F00234FF412519F4800F0AF
:10102C00E9FCD546023E09F10109C9E723B1FB6988
:10103C0033B9A6EB0B06F6E7D7F880309B07F2D551
:10104C005046FFF737FAD7F884304BB1D7F88830D1
:10105C009C423FBFD7F88420431C22F81430013443
:10106C000644E0E7002C6AD1B8F1000F6DD0D7F838
:10107C00803058076CD5C14607F1480042465946A6
:10108C001BF044F800220BEB0803FB600233796A77
:10109C008A425FD3D7F8802095F801B0F96992079E
:1010AC0004EB0B0348BF0022DBB258BF4FEA5902D6
:1010BC00002940F0A680D7F8801011F0040F14BF5F
:1010CC00494600216B70A970EA702846BA6A3969E2
:1010DC00FB6A9847061EFFF62EAFBB6949462B707C
:1010EC007B6ABA6AEB7085F801B0FB6A85F80280FE
:1010FC0007F148009847B0F10009C0F2B6803B698F
:10110C007A6A786A03EB4201FB68414403EB4000C6
:10111C00BA6AFB6AAAEB010198470028C0F2A780C3
:10112C004FF0000BB14409EB000607F1380AA34558
:10113C0069D30021BA6A0846FB6A9847FBE6444625
:10114C004FF0000907F1380098E74446C14699E78B
:10115C00A14697E713F8016CDFF830C155F826006B
:10116C0013F8021C6045C0F08A80DFF824C160458A
:10117C00386A2CBF4FF0000B4FF0010B38B1786977
:10118C00C7E9013217F05EFFD7E90132F0B9BBF1C4
:10119C00000F1ED0F96949B1611C04F1280007F158
:1011AC003004041904F8206CCCB20FE0D7F880108E
:1011BC0049070BD509F1280007F1300C09F10101A1
:1011CC0000EB0C0909F8106C5FFA81F9013202335B
:1011DC005DE7D7F880008007DED409F1280C07F111
:1011EC00300EF44409F101000CF8101C07F1580101
:1011FC0009F1020951FA80F05FFA89F900F8106CD4
:10120C00E4E700215EE71BF80A3055F8239087F8D5
:10121C003730D7F884302BB3D7F888309B4521D2A0
:10122C00D7F8843033F81B800121BA6AFB6A07F1C6
:10123C003700984700281ADB0644B8F1000F06D196
:10124C004846FFF737F900F101081FFA88F84146C4
:10125C004846BA6AFB6A9847002808DB06440BF13B
:10126C00010B64E74FF00008DEE74E4663E60646E6
:10127C0061E63B6A002B3FF4DFAE0023B4E6386A2C
:10128C000028A6D04FF0000B79E700BF70C2010018
:10129C00F0F70100C3DB01000400000198CD010050
:1012AC00014B1860704700BF6002002080B50546F6
:1012BC000E461746984616F06FFF034601F05CFA8F
:1012CC000446DFF81890424649F80030394630465B
:1012DC00A84754F8090001F0E7F900BF0800000026
:1012EC002DE9F047058B0446280717460CD5012934
:1012FC000CBF45F0100545F02005258387F31188B8
:10130C00BFF36F8FBDE8F087022905F0070540F0A9
:10131C009480204618F058F9052864D801A353F896
:10132C0020F000BF0913000047140000F313000065
:10133C00B5130000CF130000E113000001F0070308
:10134C005A1F012A1FD8002221F00701062BD4F8BE
:10135C00008089B2C4E9002209D1434603E0628BC4
:10136C00013262831B68002BF9D141F00201204647
:10137C00218318F029F94FF0000900286DD041F0B5
:10138C002001218369E0042B0AD121F0070189B2E5
:10139C002046218318F018F910B141F02001218367
:1013AC004FF00008C14658E02369D3F80090238B16
:1013BC0023F0070343F006034FF00008238346464F
:1013CC004BE02369D3F80490238B23F0070343F0FD
:1013DC000403F1E72369D3F80890238B23F0070368
:1013EC0043F00503E8E74FF00008C146E7E70122A8
:1013FC0043F00803238387F31188BFF36F8F002A10
:10140C003BD1B8F1000F4AD1B9F1000F02D0204600
:10141C002C49C847EFF31187202383F31288BFF3BD
:10142C006F8F238B23F008039BB22383D9063FD500
:10143C0023F01002228303F007056669218B002E2E
:10144C00BFF67CAF00239946D4F8008021F0070149
:10145C00C4E9003341F001012183238B03F0070A17
:10146C00AA4502D0A268002AC1D1B8F1000F02D15E
:10147C00B9F1000FDAD00022BAE7A1680029C0D078
:10148C000D680029BDD03346524620464F68B847F8
:10149C001DB12B6829461D46F3E72B46FAE741465A
:1014AC00334652462046D8F8008018F0B9F8A8E721
:1014BC009A067FF523AF23F02002228303F0070561
:1014CC0027E700BF599601002DE9F047044607466F
:1014DC004FF00109DFF84C8094FAA4F5B5FA85F5C4
:1014EC0009FA05F32E0108EB05156FEA030A24EA45
:1014FC0003042B7B63B158F806301B696BB9464467
:10150C00736804222846196807EA0A0718F097F945
:10151C00002CE1D13846BDE8F087284698470028D2
:10152C00F6D1ECE700CE010010B5002288B00E49D0
:10153C000E481AF0C0FD002200230024CDE906233A
:10154C000E234FF44072CDE90334CDE90144084B2E
:10155C0008490094084816F00FFC084906481AF090
:10156C00F4FB204608B010BD8D150000E80C0020DF
:10157C00A9180000E83900206008002082DC010076
:10158C00014816F02DB900BF880600202DE9F04760
:10159C00804621480F4618F036F90646002833D00D
:1015AC0000252846BDE8F087237B83B12368DB68E0
:1015BC000BB120469847636883F8069023681B6933
:1015CC00D3B9636804222046196818F038F901363B
:1015DC0010345445E8D3B8F1000FE2D0002DDFD021
:1015EC002846FFF771FF0546002FF7D0002140F287
:1015FC0039101AF06AFCF1E7204698470028E0D031
:10160C0009FA06F31D43E2E705464FF00109034CC6
:10161C00DFF80CA0DDE700BF6415002000CE010050
:10162C0010CE0100014B53F82000704744CF01004D
:10163C0008B5034608462BB1044A136000F03AFC87
:10164C00002008BD6FF01500FBE700BF640200200E
:10165C0010B5044C237813B9034816F0C1F80123D4
:10166C00237010BD283500208806002010B50446D4
:10167C00094818F0C8F83CB1084BD3E8EF1F013902
:10168C00C3E8E21F002AF8D1054817F0A9F8BDE815
:10169C001040044816F0A4B85C150020601500201A
:1016AC00E80C0020880600200022044BD3E8EF0F42
:1016BC00C3E8E12F0029F9D1704700BF5C15002069
:1016CC0070B5FFF7F1FF0546074C084EB44200D346
:1016DC0070BD63685B792BB123685B6813B12946D5
:1016EC00204698471034F1E700CE010010CE0100DF
:1016FC0010B5044C0449204617F0E0FD034B1C6068
:10170C0010BD00BFE405002030CF010054150020AF
:10171C0000230D4A10B513700C4A0D4913600D4A85
:10172C000D481360FFF784FFFFF7E2FF0B4B0C49EA
:10173C0018468B4200D310BD1A1A5C681211013284
:10174C0022711033F5E700BF293500205C1500200D
:10175C0040420F00601500200F98010000CE0100E0
:10176C0010CE0100014600220023014817F0C7BD2E
:10177C00E4050020014817F05EBE00BFE405002020
:10178C00024B0146186817F0B1BE00BF541500207B
:10179C00014817F0E6BE00BFE4050020F8B5284B61
:1017AC001B78002B4AD0FFF7E5FF0446002842D1F6
:1017BC00244B254D1B68002B19DD1AF034FC4FF41B
:1017CC007A76A0FB060747F61222002306FB01716E
:1017DC00FEF74EFED5E90032C01A40F2E93361EB58
:1017EC000201984271F1000101D3FFF769FFD5E9BD
:1017FC00003213F57A7342F10002C5E90032ECB104
:10180C00BDE8F840FFF7C4BF6B685B7923B12B6868
:10181C00214628461B6898471035B542F4D320461C
:10182C00FFF7AEFF094BD3E8EF1F0139C3E8E21F06
:10183C00002ABDD0F7E7064D064EEEE70020F8BDB6
:10184C00283500205C150020E00C002060150020DD
:10185C0000CE010010CE010070B50D4D297861B994
:10186C000120FFF793FE0B4C0B4EB44206D3FFF74F
:10187C0095FF0028FBD101232B7070BD63685B7949
:10188C001BB1236820469B6898471034EDE700BFD6
:10189C002935002000CE010010CE010000212DE9D9
:1018AC00F8430846FFF772FE044648B340F21B6843
:1018BC004FF0000900F060FF1A4B1B4A1B581360D5
:1018CC0033B11A4B1B68092B02DD194815F088FF40
:1018DC000025184F44B12046FFF7F6FD044618B911
:1018EC004FF0FF384FF0FF39FFF758FF064628B985
:1018FC00B5B90F4842464B4615F0A6FF3546E9E709
:10190C004FF0FF384FF0FF39D4E72B689B691BB1C0
:10191C0000222846114698471035BD42F5D3E8E71A
:10192C00054DFAE70800000058150020601500204E
:10193C008806002010CE010000CE010013B5184817
:10194C0017F061FF174B1B7873B1EFF31184202351
:10195C0083F31288BFF36F8FFFF720FF84F3118896
:10196C00BFF36F8F02B010BD0F4B1B68002BF9D06B
:10197C0050B9002200230D48CDE9002347F612226E
:10198C00002316F0F5FEEDE70928EBD1074816F019
:10199C0027FF074802B0BDE8104015F021BF00BF7B
:1019AC00601500202935002058150020E80C002077
:1019BC008806002010B5064B04461B689847214644
:1019CC00A060044817F018FDBDE81040FFF7B6BF43
:1019DC0064020020E4050020044A054B9B1AB1EB7D
:1019EC00D30F34BF52F831000020704720CD0100D6
:1019FC0000CE01002DE9F04F8FB0C1F34A2604AFA1
:101A0C000D469046B8607B600C0D002E61D04FF0F7
:101A1C0000090A234FF0040B07F1140AFE60C7E912
:101A2C000799C7F824900093CDF808B0CDF804A01E
:101A3C0007F11C034A464046F968FFF74BFAB0F52C
:101A4C00006F03461CD36C468AB0D8F8041004AB64
:101A5C0024481A46C3E9050140F2FF71D9614FF4DD
:101A6C0000711984204B42F8103F4FF412514B4631
:101A7C001E48FFF7BFFFA5462C37BD46BDE8F08FCB
:101A8C00C0F30A0604F11700184420F00700800880
:101A9C003B60FFF767FE66F35325044680B13B6855
:101AAC0000F11001C7E908390A23F961CDE901AB4E
:101ABC00009340460E4AF96807F11C03FFF70AFA37
:101ACC0066F353252A4620467B68B96817F0D7FE83
:101ADC00D2E704F1170020F007008008FFF742FE60
:101AEC000446EDE797DC010004000001A8CD0100DD
:101AFC005D9801002DE9F04F87B00546DDE9106BCC
:101B0C00DDE9127A884614469946BFB110213B464E
:101B1C005A460020CDF800A0CDF814A0FFF728F805
:101B2C00B0F5006F01460BD340F2FF730221184A47
:101B3C00184807B0BDE8F04F17F0FABE39463846E2
:101B4C0004F0070305F00704E40044EA831444EAB4
:101B5C00402444EA065406F11700084420F007001C
:101B6C0080080391FFF7FEFD054640B13FB13B46AF
:101B7C005A460399CDF800A01030FEF7F9FF4B46FA
:101B8C0022464146284607B0BDE8F04F17F077BE15
:101B9C00D6DC0100A8CD0100406820B1034BC01A6F
:101BAC0040F3CF0070474FF0FF30704720CD01005D
:101BBC000EB403B503AB53F8042B01460448019350
:101BCC0001F00EF802B05DF804EB03B0704700BFF3
:101BDC009F990100CA0605D48B064CBF02490349E4
:101BEC00FFF7E6BF704700BF0FDD01000EDD0100FF
:101BFC002DE9F04F89B098469DF85090159B0446FE
:101C0C0006930D46DDE916A3189F05920493B9F1CE
:101C1C00000F00F0B08007F48073079317F00DFEEF
:101C2C0007F0020B0246002874D020467749FFF7D4
:101C3C00BFFF0646BBF1000F08D017F0440F6BD165
:101C4C002A4620467249FFF7B3FF064407F001030A
:101C5C0053B1704B204653F829206F4B6F49002A23
:101C6C0008BF1A46FFF7A4FF07F48073002B07F098
:101C7C00080318BF4FF00008002B79D0684B2046A2
:101C8C0053F829206749FFF793FF0546059B2BB1B5
:101C9C001A4620466449FFF78BFF0544B8F1000F44
:101CAC0005D0424620466149FFF782FF0544604853
:101CBC003544069B1BB122465E4917F092F9049BF2
:101CCC00002B00F08E80DDF810803946B8F1100F33
:101CDC00204628BF4FF010080026FFF77BFFB542C7
:101CEC0050DC0026334620461AF803205249FFF7F1
:101CFC005FFF0136102E4BD0710703D120464F49A0
:101D0C00FFF756FF46453346EDD320464C49FFF7C7
:101D1C004FFFEEE706468DE74A4B1868002894D033
:101D2C00494B4FF47A7B1B684FF03C0CB5FBF3F539
:101D3C00B5FBF0F14FF4616300FB11550BFB05F59E
:101D4C00B1FBF3F2B5FBF0FE03FB121100FB1E55C9
:101D5C00B1FBFCF30BFB05F5B5FBF0F50CFB13111C
:101D6C0020460091CDE901E53849FFF721FF6CE7EA
:101D7C0007F008058AE7B8F1010F4D460CBF2C4857
:101D8C00334896E720462D49FFF712FF0136A6E7A8
:101D9C00002620462F49FFF70BFF33461AF8032085
:101DAC002046A2F120035F2B28BF2E222A49FFF7E1
:101DBC00FFFE0136102E0DD0720703D120461F49AD
:101DCC00FFF7F6FEB0453346E8D820461B49FFF72F
:101DDC00EFFEEEE7049BC244B3EB080304937FF4DD
:101DEC0072AFB9F1000F0AD0FB0704D520460A4A9E
:101DFC000A49FFF7DDFE39462046FFF7EBFE204689
:101E0C0009B0BDE8F04F17F0B7BD00BF16DD0100FB
:101E1C001ADD010054CF010011DD0100B3E7010010
:101E2C0068CF01003FDD010045DD010049DD010007
:101E3C009F990100ED2B00004EDD010056DD0100E5
:101E4C0054DD01006C1500206815002023DD010015
:101E5C00CD99010058DD01005ADD010042F20F73EB
:101E6C0073B58B4228BF0B460568044605216846AE
:101E7C000D4A16F015FD0646636828460B225B6872
:101E8C000A4917F06BFD63683246694628465B6861
:101E9C0017F064FD63681B2228465B68044917F041
:101EAC005DFD02B070BD00BF0BE3010044F7010003
:101EBC0028F7010000210123064A904206D8064A61
:101ECC0001B901231360054B1860704701214008CC
:101EDC005B00F2E740420F00681500206C150020F3
:101EEC00F8B50D460446064F4618B44201D12846B3
:101EFC00F8BD14F8011BBB6801485B689847F4E710
:101F0C0084C30100014B036000207047B0CF010077
:101F1C0008B50348034A0021121A17F015FE08BD34
:101F2C00B8070020E8350020074808B5074A0849DB
:101F3C00121A17F00BFEBDE808400648064A07497E
:101F4C00121A17F003BE00BF00000020B4070020D7
:101F5C00F0F701000000002000000020F0F7010065
:101F6C002DE9F04706460C4600AF002936D0D1E9E2
:101F7C000012E9468AB06D46A3684FF0050AE846A0
:101F8C001F48CDE90723CDE9050148F810AF002320
:101F9C0042464FF421511B48FFF72CFDD4E90312A4
:101FAC00CD466369AD461848C5E90723C5E9050167
:101FBC00C5F810A0002342464FF421511148FFF7F9
:101FCC0019FDCD46E3690121104A0E4817F0B0FC0B
:101FDC00A36901210E4A0B4817F0AAFC012E07D168
:101FEC00EFF305830B4A31460648103B17F0A0FC73
:101FFC002146304615F0E4F9BD46BDE8F08700BF38
:10200C0097DD0100D8CD0100C6DD0100F5DD010032
:10201C0004DE010032DE010030BFFFF7FDBF00BF60
:10202C002DE9F04105460B4EDFF82C80324606EBCD
:10203C000807CC1B204609491AF068F8A01942463B
:10204C000021083C1AF088F82C6707F10800BDE85D
:10205C00F08100BF000000000400000010CE010061
:10206C0010B5244C2449254817F07DFDA36A99012D
:10207C003ED52248224917F076FD1E20A36ADA01CC
:10208C0004D51E481F4917F06EFD1F20194CA36A7A
:10209C00DB0204D519481C4917F065FD0220A36A20
:1020AC001C0304D51548194917F05DFD2120114C6E
:1020BC00A36A590304D51148154917F054FD222081
:1020CC00A36A9A0304D50D48124917F04CFD23203E
:1020DC00084CA36ADB0304D508480F4917F043FDED
:1020EC002420A36A6FEA03436FEA1343A36210BD73
:1020FC001D20C3E700ED00E045DE0100D8CD010056
:10210C005DDE010070DE01008ADE0100B4DE01003C
:10211C00D2DE0100F7DE010011DF010070B50646CA
:10212C000D46294C29492A4817F01DFDA36ADB06E8
:10213C0047D52748274917F016FD1120A36A1C071D
:10214C0004D52348244917F00EFD12201E4CA36A17
:10215C00990712D521491E4817F005FD636BA26A39
:10216C00120609D501211E4A194817F0E1FB1EB1D0
:10217C00A36A23F08003A3621320134CA36ADE0727
:10218C0004D51348174917F0EEFC1420A36A9C06DB
:10219C0004D50F48144917F0E6FC15200A4B9A6A2F
:1021AC00D10658BF9A6A9A6A920642BF5A6A22F4BA
:1021BC0000525A629A6A42F0FF029A6200232B7014
:1021CC0070BD1020BAE700BF00ED00E03CDF01005D
:1021DC00D8CD010052DF010085DF010098DF01003E
:1021EC00B0DF0100C6DF0100E5DF010070B5064677
:1021FC000D46284C2849294817F0B5FCA36AD90488
:10220C003CD52648264917F0AEFC1720A36A1A05C0
:10221C0004D52248234917F0A6FC18201D4CA36AAC
:10222C009B0512D51D48204917F09DFCA36BA26A93
:10223C00100409D501211D4A184817F079FB1EB16D
:10224C00A36A23F40043A3621920124CA36A590514
:10225C0004D51248164917F086FC1A20A36ADA0531
:10226C000ED50E48134917F07EFC1B20094A936AC1
:10227C0043F47F43936200232B7070BD1620C5E797
:10228C00A36A9B04F2D505480B4917F06CFC1C2083
:10229C00ECE700BF00ED00E014E00100D8CD010038
:1022AC002AE0010085DF01003BE0010054E0010061
:1022BC0069E0010084E00100E5DF01002DE9F04157
:1022CC008AB0674B0446D3F80480002500AFC8F3EE
:1022DC00080685F31188BFF36F8F02F07F43B3F1CB
:1022EC007F4F07D102F00C03082B12D15D495E48D9
:1022FC0017F039FC00252C460023FB71F31E092B2B
:10230C0000F28E80DFE803F00A8487808C8C8C8C42
:10231C008C8A10074CBF0C460125EDE753495248F7
:10232C0017F021FC00234E4EFB71F36A9A0705D57A
:10233C004F494D4817F017FC00232DE0F36A002B92
:10234C0001DA4C49F5E7F36A5B00F5D54A49464892
:10235C0017F009FC7369A26943F480737361BFF3CE
:10236C004F8FBFF36F8F32F8023C726922F4807288
:10237C007261BFF34F8FBFF36F8F03F47F42B2F5DF
:10238C005F4F2BD1DBB2022B28D1236801213B4AB2
:10239C00354817F0CDFA2368FA79DAB907F108064F
:1023AC0004F1200C324620686168083403C264458D
:1023BC001646F7D17A6A002D4FD0C2F3080121B925
:1023CC006FEA52226FEA42227A62184607F108013C
:1023DC00FFF7C6FD2837BD46BDE8F081204B9A6A51
:1023EC00D2B222B10120F91DFFF798FE0EE09A6AD5
:1023FC0012F47F4F04D00120F91DFFF7F7FE05E022
:10240C009B6AB3F5803F97D3FFF72AFE0346C3E7D9
:10241C000020F91DE8E70020F91DEEE7184988E7D0
:10242C00184A18F4F87FE8468AB0174B08BF1346D1
:10243C006A461649103ECDE905134FF40073ADF80A
:10244C002030134B079642F8103F00234FF41151E4
:10245C000548FFF7CFFAC5466EE76FF30802B3E7FE
:10246C0000ED00E0CAE00100D8CD0100F5E001006C
:10247C000CE101002DE101003BE101005AE10100FA
:10248C0076E101009CE00100B1E001009AE101005D
:10249C0004000001064B5A6942F010025A615A6955
:1024AC0042F480625A615A6922F008025A617047FC
:1024BC0000ED00E0EFF30880EFF3098101B57246FF
:1024CC00FFF7FCFE01BD00BF0B4880F3088813F03A
:1024DC00C3FF202080F3118808484FF40061401896
:1024EC0080F30988EFF314800221084380F31488E9
:1024FC00BFF36F8F00F06AF8B85C0020784B0020B7
:10250C001EF0040F0CBFEFF30880EFF30980816914
:10251C0011F8021C0229FFD001B5724617F018FB06
:10252C0001BD00BF00B2002807DB01234109034AAB
:10253C0000F01F00834042F82130704700E100E0BA
:10254C0000B200280CDB01220649430900F01F00F1
:10255C008240203341F82320BFF34F8FBFF36F8F9E
:10256C00704700BF00E100E0054B420953F8222000
:10257C00012300F01F0003FA00F01040704700BF69
:10258C0000E100E000B2002801F10101ACBF00F154
:10259C006040064B4FEA4111C9B2ABBF00F5614038
:1025AC0000F00F0080F800131954704714ED00E090
:1025BC00044B054A23F07F039360BFF34F8FBFF3A7
:1025CC006F8F70470000000000ED00E008B5FFF7CA
:1025DC00EFFF0B4AD2F8883023F47003C2F888302E
:1025EC00EFF3148323F0040383F31488BFF36F8F8A
:1025FC00FFF78EFCFFF798FC00F09CF815F002F842
:10260C0000ED00E042F8203C009B0B4942F81C3CDA
:10261C00019B21F0010142F8183C029B42F8081C76
:10262C0042F8143C4FF0807342F8043C0023203AEB
:10263C0002654367704700BFB912000000B50D4B2F
:10264C0015469860026F0C4B0E461A60036E83F3AE
:10265C000B882C4686F309880020044B98472046AB
:10266C00002100220023024C20470000919B010016
:10267C00B9120000D4340020941500201022014B14
:10268C001A61704700ED00E0054B5A699B689A424D
:10269C001FBF044A536843F080535360704700BF18
:1026AC00D434002000ED00E0084B9B6883420BD132
:1026BC00EFF3058343B1064B5A6842F080525A60DF
:1026CC005A6A22F400425A6215F06CBDD4340020D0
:1026DC0000ED00E014498A684FF030001044EFF32D
:1026EC00098C80E8F01F202080F31288BFF36F8FD5
:1026FC000E4F4FF000664A698A603E60106F0C4CBA
:10270C002060506F0023536780F3118802F1300072
:10271C0090E8F01F8CF3098802F1000004B517F063
:10272C002AFABDE804407047D434002004ED00E0E0
:10273C00941500200023202040F20F1210B5044CF9
:10274C00E1180133934281F80003F9D110BD00BFA9
:10275C0000E100E008B5EFF30583064A103B02EBFD
:10276C00C30152F8330049688847BDE80840FFF7B9
:10277C008BBF00BFBCC3010001480068704700005C
:10278C00941500201FB50121094B0A4A0A4800F094
:10279C000FF90023064A0393084B0121019301A86A
:1027AC00D31A029300F00EF905B05DF804FB00BFDC
:1027BC0000000420000000203CD00100B8070020DD
:1027CC000A7A0B6810B562F304031C46CB685209F5
:1027DC0023F01F0343EA4203044A43F00103C2F807
:1027EC009800C2F89C40C2F8A03010BD00ED00E08B
:1027FC0010B50A4BD3F89030C3F30723013B984232
:10280C0008D901210346064A064817F091F86FF0E3
:10281C00150010BDFFF7D4FFFBE700BF00ED00E093
:10282C00B1E10100C0CD01002DE9F04F89461446FD
:10283C0006464FF000084F4D85B0C84527DAD6F84C
:10284C0004A0BAF1000F44D0BAF11F0F17D91AF037
:10285C001F0F14D1D6F800B01BF01F0F0FD1584624
:10286C0017F0B3F907460AEB0B00013817F0ADF976
:10287C00874210D06FF015073F4A3B4601E04346B4
:10288C003E4A01213E4817F053F86FF015042046DC
:10289C0005B0BDE8F08F17F1160FEDD0BC42EBDDA3
:1028AC00C5F89870D5F89C10C5F89870D5F8A0307C
:1028BC0021F01F0143F01F0BD6E900321A44994254
:1028CC0002F1FF3A1AD1D34507D13146F8B217F0CD
:1028DC0085F908F101080C36AFE73146C5F8987058
:1028EC00D5F89C30E0B263F30402C5F89C2017F0D5
:1028FC0075F910F1160FC8D0441CEAE7C5F89870AA
:10290C00D5F8A020013B23F01F0302F01F02134354
:10291C00D3453146E0B2C5F8A030E8D017F05EF9E7
:10292C0010F1160FB1D0C5F89870D5F89C209DF811
:10293C0008300BF1FF3B62F304038DF80830D5F837
:10294C00A0309DF808205B0863F347128DF808202F
:10295C00D6E900321344009323F01F035B44A3EB2E
:10296C000A03013023F01F036946C0B20393FFF73B
:10297C003FFFBEE700ED00E0FDE10100D7E1010003
:10298C00C0CD01000522044BC3F89420BFF34F8F38
:10299C00BFF36F8F704700BF00ED00E0BFF35F8F98
:1029AC000022024BC3F89420704700BF00ED00E0FA
:1029BC0010B5034C2278FFF737FF207010BD00BF15
:1029CC002B3500202DE9F74F294D8A4606464FF04E
:1029DC000008AB46274FD0451BDAD6F80490B9F166
:1029EC00000F3FD031680846019117F0EEF80199BD
:1029FC00044609EB0100013817F0E7F884424FF068
:102A0C0014021D4B08D002FB08F36FF015024BF8B3
:102A1C00032003B0BDE8F08F14F1160F2C60F8D032
:102A2C001978A142F5DD02FB08B0C7F89840C7F849
:102A3C009840D7F89C4000F10801007B64F3040037
:102A4C000871D7F8A0000C79400860F347140C719A
:102A5C00D7F89C1021F01F016960D7F8A01021F065
:102A6C001F01296108F1010814350C36B3E700BFCA
:102A7C009815002000ED00E02B350020F0B55349EF
:102A8C00534DD1F890302C68C3F307239C4287B088
:102A9C0000F299800020FFF781FF4E4BC1F8C03047
:102AAC00844216D14C4D01A82C70FFF72BFA00264E
:102ABC0007464A4CB74213D100202B784349D1F832
:102ACC009020C2F30722934277DBFFF75BFF0020D5
:102ADC0046E0696801EB0011FFF772FE0130DFE799
:102AEC000199300101EB0613DA682240B2F1807FC4
:102AFC0052D00AD8B2F5001F34D0B2F5800F3ED0B8
:102B0C00B2F5801F12D00136D4E7B2F1006F43D07A
:102B1C00B2F1805FF7D15A689B680958013B22F0EB
:102B2C001F00034423F01F03012032E05A689B6806
:102B3C000958013B22F01F0003440120844623F076
:102B4C001F0340EA4C10CDE902218DF8100002A9B8
:102B5C0028780593FFF74CFE00282ADA6FF0150051
:102B6C0007B0F0BD5A689B680958013B22F01F0062
:102B7C0003444FF0020C012023F01F03E1E75A68D5
:102B8C009B680958013B22F01F000344062023F0E8
:102B9C001F034FF0000CD4E75A689B680958013B9F
:102BAC0022F01F0003444FF0030C012023F01F03FD
:102BBC00C7E72B7801332B70A5E7C1F89830C1F823
:102BCC00A00001337BE74FF0FF30C9E700ED00E0D8
:102BDC0048D00100AAFF44002B3500200000F0FF74
:102BEC00F0B587B007460E46144600211022684601
:102BFC001D4619F0B1FA02238DF80230054B2A4616
:102C0C0021466846CDE90476019315F073FE07B0B2
:102C1C00F0BD00BF1B9C010008B5024B1B68984718
:102C2C00002008BDAC150020034B044A18609378B3
:102C3C0043F0020393707047AC150020880200200B
:102C4C0008B50649064821F00701C1F1005202F50A
:102C5C00802216F085F9002008BD00BF1F8B0020D4
:102C6C00B015002070B541690446867A0A4D59B1F9
:102C7C00437ADB0706D4242303FB0653DB691B686A
:102C8C009B689847002363612420214600FB065073
:102C9C00BDE8704018F051BFB80600202422024B4A
:102CAC0002FB0030704700BFB80600202421827A56
:102CBC00054B01FB02331A6A1B7D801A1B3323F070
:102CCC000303B0FBF3F07047B806002038B524249A
:102CDC00827A064B04FB0233DB69D3E901240C60D6
:102CEC001568FFF7E3FF04FB005038BDB806002061
:102CFC002DE9F04385B00546684690461C46039185
:102D0C0019F093F9DDE90067EFF31189202383F3C0
:102D1C001288BFF36F8F6B8A002B41D02A8A9A429C
:102D2C0025D900220023284614F028FD0446F0B1D2
:102D3C0089F31188BFF36F8F039B002B41D0324670
:102D4C003B46684619F096F92421A27A254B204679
:102D5C0001FB0233DB6903A91B681D68DDE9002355
:102D6C00A847606170BB2046FFF77CFF24E0698AAE
:102D7C004B1E6B8289F31188BFF36F8F2B7D2A8AD0
:102D8C002C6A1B3323F00303521A02FB0344154B2A
:102D9C00154AEB1A9B105343A3722B7DE372CBE7BE
:102DAC0089F31188BFF36F8F23464246284614F0EF
:102DBC00E5FC04460028BFD10024204605B0BDE840
:102DCC00F0836361012300252381039B29466382E1
:102DDC00E27A656004F1180019F0BEF96369258286
:102DEC00E360EAE7B8060020398EE33870B5242595
:102DFC000C4C00B970BD037A4668002BFAD0013B2D
:102E0C00DBB20372002BF5D1C3604360837A05FB00
:102E1C0003439B6913B198473046EAE7FFF722FF5B
:102E2C00FAE700BFB806002008B5244A244B1A6004
:102E3C0012F07CFD4FF47A612248D0F82436C3F3AB
:102E4C000802C3F309434B4382F480721E49883253
:102E5C0001FB02334FF4FA215B00B3FBF1F201FBEF
:102E6C0012331A49B3F57A3F28BF0132C1F804294D
:102E7C00D0F820364FF47A60C3F30802C3F3094349
:102E8C00434342F21C5082F4807202F2172200FB80
:102E9C0002334FF47A701B0AB3FBF0F200FB1233CF
:102EAC000020B3F5FA7F4FF0010328BF0132C1F8BF
:102EBC001C27C1F80009C1F8003608BD0020A10785
:102ECC008405002000C0FF00F82A0080000012508A
:102EDC0048B1054B054A1B68B3FBF2F35843044B4E
:102EEC0043F00103184770478405002040420F004F
:102EFC0090CE01000E4B402928BF402170B51D46D5
:102F0C000C4C4618B04203F1020304D1002305F81F
:102F1C001130074870BD02781209A25C03F8022C2C
:102F2C0010F8012B02F00F02A25C03F8012CE9E768
:102F3C004A3500206AF7010030B503788BB004469F
:102F4C0007AD032B21D8DFE803F0021A1C1E12492F
:102F5C002846FDF7A7FA059563781E210493A378FC
:102F6C000E4A0393E3780E48029323790193637915
:102F7C000093A37915F094FC09480BB030BD0949B6
:102F8C00E6E70949E4E70949E2E70A212846084A45
:102F9C0015F086FCDFE700BF4AE201006CE201009D
:102FAC002C35002051E2010058E2010062E20100E0
:102FBC000FF3010030B50378012B11D0022B21D077
:102FCC006BB90A46144B03F1100453F8045BA3428B
:102FDC0042F8045BF9D143881A0A8A70CB7030BD71
:102FEC000A460D4B03F1100453F8045BA34242F85C
:102FFC00045BF9D143681A0C180E4A700870C3F3BD
:10300C000722EAE700F11003013913F8012998426D
:10301C0001F8012FF9D1E2E77BF7010010B516F0AA
:10302C0025FF18F08CFE044608B914F0F1FF064B8E
:10303C00D3E8AF3F0BB10A2098471CB9BDE810404C
:10304C0014F0FABF10BD00BFBC15002038B5044603
:10305C00084816F0EDFD054648B1631EDBB21F2B88
:10306C0096BF054A0021D15C0C3016F05CFE284658
:10307C0038BD00BF6C0700208BF701000F2810B57E
:10308C000CD80D280CD90A4816F0D2FD044618B1FC
:10309C0004210C3016F047FE204610BD1328F2D048
:1030AC0009B10448F0E70220BDE81040FFF7CEBF9D
:1030BC009007002000070020C3681B780221024AF9
:1030CC00024816F043BF00BF9EE2010070CD010024
:1030DC0038B5C5682B7893B9B5F801400F21204657
:1030EC0002F012FDEB78054650B90A4A118831B945
:1030FC006FEA04506FEA10501080074A137038BD05
:10310C004372012102F024FC2846BDE8384002F04D
:10311C00CDBB00BF08350020CB35002070B5C3688F
:10312C001D78BDB9B3F801600F21304602F0ECFCFC
:10313C00044638B901213346BDE87040064A0748B9
:10314C0016F004BF294602F003FC2046BDE870408F
:10315C0002F0ACBB70BD00BFC6E2010070CD010037
:10316C0010B501210C3016F0FFFD03780121BDE8EC
:10317C001040024A024816F0E9BE00BFECE2010022
:10318C0070CD0100014610B5084816F055FD0849F0
:10319C00084818F084FD031E06DABDE81040012132
:1031AC00054A064816F0D2BE10BD00BF7C010020B7
:1031BC0098030020C00D00200EE3010070CD01002B
:1031CC0073B5C4680121B4F80160304602F09CFC70
:1031DC00054640B901213346114A124802B0BDE8F8
:1031EC00704016F0B3BE23788DF800307BB9A3790C
:1031FC008DF80430B4F80730ADF8063023796279D5
:10320C0043EA0223ADF80230E3788DF801306946C9
:10321C00284603F06FF8284602F048FB02B070BD58
:10322C002BE3010070CD010073B5C4680121B4F823
:10323C000160304602F068FC054640B90121334676
:10324C000E4A0F4802B0BDE8704016F07FBE2378DE
:10325C008DF8003043B9E37805348DF8013014F85B
:10326C00013C01948DF802306946284603F020F8A1
:10327C00284602F01BFB02B070BD00BF2BE301001F
:10328C0070CD01002DE9F14FC56801212E88304623
:10329C0002F03AFC044640B901213346284A294839
:1032AC0001B0BDE8F04F16F051BEB5F80280EE88C3
:1032BC001FFA88F3AF88A3F11B022D89E02A1FFAAD
:1032CC0086FA1FFA87F91FFA85FB04D902211E4AD8
:1032DC001C4816F03BFEAAF11B03E02B05D902217A
:1032EC0053461A4A174816F031FE44F24812A9F513
:1032FC00A4739BB2934205D902214B46144A114840
:10330C0016F024FE44F24812ABF5A4739BB2934220
:10331C0005D902215B460F4A0A4816F017FE2046D3
:10332C00A4F8A680A4F8A870A4F8AA60A4F8AC50DD
:10333C0002F036FE204601B0BDE8F04F02F0B6BAFE
:10334C0046E3010070CD01006AE3010093E3010044
:10335C00BCE30100E3E3010073B5C5680121B5F8D6
:10336C000160304602F0D0FB044640B901213346DF
:10337C002D4A2E4802B0BDE8704016F0E7BD2B7800
:10338C001A2B19D1C378012B4AD14FF48041043048
:10339C0016F0DEFD43040FD4D4F88C30694600934C
:1033AC00D4F894302046019303F05AFA204602B028
:1033BC00BDE8704002F07ABA2B788BBB40F2E24247
:1033CC00B5F803301A495343C4F88830B5F80520D2
:1033DC00A4F89020B5F80720A4F89220A3F5EA529F
:1033EC000C3A8A4204D90221124A104816F0AEFD5A
:1033FC00B4F89030B3F5FA7F04D302210E4A0B488F
:10340C0016F0A4FD40F67641B4F89230A3F10A020E
:10341C0092B28A4204D90221084A044816F096FD59
:10342C00204602F071FDC1E746E3010070CD0100BA
:10343C0095F03C000AE4010031E4010058E401007D
:10344C0010B5002486B003AB00934FF480624FF0AC
:10345C00FF3305490548CDE90344059414F0AAFB54
:10346C00204606B010BD00BFE83C0020200D002017
:10347C0010B5084C0146062294F86F0002F094FE39
:10348C0038B994F86F000522BDE81040024902F0EB
:10349C008BBE10BD3000002050F701000121024A04
:1034AC00024816F051BD00BF84E4010070CD01004C
:1034BC000B46B0B50D8A00AF04462946D868FFF715
:1034CC0019FD8AB06A46094BCDE90750CDE90534A0
:1034DC0040F20243ADF82430054B4FF4325105480D
:1034EC0042F8103F16F03FFDBD46B0BD9EE4010012
:1034FC000500000170CD010070B5C5680121B5F85B
:10350C000160304602F000FB044638B90121334615
:10351C00BDE870400B4A0C4816F018BD2B783BB92F
:10352C00D5F80330C0F89830D5F80730C0F89C3087
:10353C00201D4FF4803116F00BFD2046BDE8704085
:10354C0002F0B4B946E3010070CD0100054BD3E89D
:10355C00AF2F02F00B02D3E8EF1FC3E8E02F0028D7
:10356C00F9D1704704010020B0B53C28044600AFE7
:10357C001AD101F0CFFD6FF48071103016F0F6FC0B
:10358C000020FFF775FF054630B90121114A12489A
:10359C0016F0DAFCBD46B0BD4472002102F0D8F939
:1035AC00284602F083F9F5E76D468AB06A460B4B64
:1035BC004FF41251CDE90530094B0748079340F2FF
:1035CC000133ADF82030074B42F8103F16F0CBFC1E
:1035DC00AD46DFE7C0E4010070CD0100E1E401007D
:1035EC0010DD0100040000012DE9F84FD0F80C901B
:1035FC00018A99F8004000AFA30001338B425FD9D8
:10360C006D468AB06A46CDE9073105232E484FF442
:10361C002151CDE905042D4842F8103F16F0A3FCCA
:10362C00AD46BD46BDE8F88F01212B46284A2748F8
:10363C0016F08CFC013699F800309E42F1DA09EB59
:10364C008603B3F801500F212846B3F8038002F02B
:10365C005BFA04460028E7D000F1C80AB8F1000F65
:10366C0006D0656945B901211A4A184816F06CFC58
:10367C00204602F01BF9DDE7A2692B689542204633
:10368C00636108BFA36102F037F814F0A9F8C5F81C
:10369C0000B0236A8BB9C4E90755DAE8EF3F013B68
:1036AC00CAE8E23F002AF8D10021204608F1FF3891
:1036BC0002F02EF81FFA88F8D0E71D602562ECE7BF
:1036CC000026B346B7E700BFFDE4010070CD010052
:1036DC0028E5010044E5010037B50446084602EB35
:1036EC00C3039A4202D16FF05E0010E0114611F84C
:1036FC00085BA54211D1038A5178994209D908482F
:10370C000121084A009416F01DF96FF0150003B062
:10371C0030BD536898470020F9E70A46E1E700BF3F
:10372C0070CD01005BE501002DE9F0470C4614F06B
:10373C006FFCE5682B78022B75D0042B0AD0012185
:10374C003D4A3E4816F002FC2046FFF74FFB6FF057
:10375C0015040EE0B4F81080B8F1020F0ED84346F1
:10376C00374A3648012116F0F1FB2046FFF73EFBA5
:10377C00002414F061FC2046BDE8F08768783E28F0
:10378C000CD1B8F1030F02D12E4A4346E9E7EB788E
:10379C00012B01D00A2B46D1032704E016F0C2FB03
:1037AC000746F8073FD504F10C0601213046D4F842
:1037BC0014A016F0D1FA0221304616F0D5FA814643
:1037CC0000783E2807D1E3681B78012B01D00A2B27
:1037DC0006D1032614E016F0A5FBC10706460FD44C
:1037EC0041F26813184A1949194815F059FC00237D
:1037FC0083F31188BFF36F8F0323184602DF022671
:10380C00144A0623214699F8000016F0D3FBB207A0
:10381C000DD56369A5EB0A0513FA85F5E560A4F8E7
:10382C001080BB07A4D52046FFF7ACFCA0E72046D0
:10383C00FFF7DCFAF5E700BF23E6010070CD0100CD
:10384C007DE5010099E50100B9E50100EDE5010018
:10385C0006E60100F4D0010010B5012104460C303D
:10386C0016F082FA2146BDE810400223014A007886
:10387C0016F0A0BB24D1010073B53E4816F0F1F947
:10388C000446002873D000F10C05284616F074FA93
:10389C000228034603D0042847D0374A03E0238A82
:1038AC00032B05D8354A0121354816F04FFB13E0A0
:1038BC000421284616F058FAFF23428806882376FE
:1038CC00238AC6F30B009A42608309D0012100922F
:1038DC002B482C4A16F036F82046FFF787FA12E0F0
:1038EC000F2102F011F9054610B9638B264ADAE76D
:1038FC0002F030F921462076320B284601F05AFFAF
:10390C00284601F0D3FF214BD3F84C317BB320492F
:10391C00204818F0C4F9031E29DA01211E4A184860
:10392C0002B0BDE8704016F011BB2846022116F01B
:10393C001BFA054600783E2812D016F0F3FA10F068
:10394C0002060DD140F69A43144A1549154815F054
:10395C00A7FB86F31188BFF36F8F0323184602DF92
:10396C0004232146104A287816F024FBB4E702B051
:10397C0070BD00BF7C010020CCE6010037E60100E1
:10398C0070CD010058E601007CE6010030000020FB
:10399C0098030020C00D00200EE30100B9E50100E2
:1039AC009EE6010006E6010034D1010010B50121AC
:1039BC0004460C3016F0D8F92146BDE81040092316
:1039CC00014A007816F0F6BA54D10100F8B501217D
:1039DC00044600AF0C3016F0C7F9067800232146D8
:1039EC003046104AFFF778FE5F3019D1258AE0681F
:1039FC002946FFF77FFA6C468AB06A460A4BCDE936
:103A0C000750CDE9053640F20243ADF82430074BA0
:103A1C004FF43251064842F8103F16F0A4FAA5466E
:103A2C00BD46F8BD9CD10100E0E601000500000197
:103A3C0070CD01002DE9F74F0023804689461746CB
:103A4C00DFF800A1DAE8EF4FCAE8E23F002AF9D12B
:103A5C00264644B9012143463B4A3C4803B0BDE8E5
:103A6C00F04F16F073BA2046FFF720F94FF00C0B0D
:103A7C00374D0BFB0050438843451BD02046FFF7C6
:103A8C0015F90BFB0050438801210093314A434642
:103A9C002E4815F057FFDAE8EF3FCAE8E26F002A2C
:103AAC00F9D1002B4BD01E46304603B0BDE8F04F89
:103ABC00FFF79CB9A74208D0204616F0B4F83A8A12
:103ACC00F96804F10C0016F025F92046FFF7EEF822
:103ADC000C2707FB00504368ABB1B9F1000F12D1B2
:103AEC002046FFF7E3F8012107FB005042685368BA
:103AFC0003F01F00814010685B0900EB8300137A10
:103B0C00CBB116F025FA2046FFF7D0F80C2707FBAF
:103B1C0000508368002BC7D02046FFF7C7F87843C6
:103B2C0005F800902046FFF7C1F807FB0055A86880
:103B3C0013F056FEB8E7C94316F018FAE3E703B0E2
:103B4C00BDE8F08F7801002012E7010070CD010074
:103B5C00C01500203AE7010010B5C1E900239DF81B
:103B6C0008300C460B72FFF7A1F80C22024B02FB3B
:103B7C0000335C6010BD00BFC0150020F8B50246D4
:103B8C000B46104816F054F80446C0B104210C3012
:103B9C0016F0AFF82046FFF789F80C2700260A4DDF
:103BAC0007FB005046802046FFF780F807FB0050CB
:103BBC0086602046FFF77AF807FB00556E602046BA
:103BCC00F8BD00BF48070020C01500200138C0B266
:103BDC0002289ABF014B185C00207047ABF701001C
:103BEC0070B5C5680121B5F80160304601F08CFF55
:103BFC00044638B901213346BDE870400A4A0B48E7
:103C0C0016F0A4B9E878FFF7E1FF84F8A40028794E
:103C1C00FFF7DCFF84F8A500204602F0E7F9204608
:103C2C00BDE8704001F042BE46E3010070CD0100DA
:103C3C0010B5044692B04422064901A818F066FA61
:103C4C00102C9DBF12AB03EB840454F8440C0248B7
:103C5C0012B010BD24CE01006DE70100034B0146EC
:103C6C00D3F8640182689268104700BF30000020CE
:103C7C002DE9F047042100AF464816F069F96D466E
:103C8C0088B06A46444B4FF4E6510593434B444885
:103C9C0006934FF40073ADF81C30424B424C42F883
:103CAC00103F16F060F9AD46E179404B404E20468E
:103CBC00012998BF1E46FFF73FF98AB06A463D4B73
:103CCC000790CDE905363C4B4FF4235108933B4B01
:103CDC00334842F8103F16F046F9A246AD4601258E
:103CEC00374EDFF8E080E3790AF1070A9D423ADBB0
:103CFC0094F870506E462846FFF79AFF8CB06A46CF
:103D0C00B4F87210B4F87630CDE907514FF4007561
:103D1C00DFF8B4C009932D4BCDE905C0ADF82850A0
:103D2C004FF4535142F8103F1D4816F01CF9B5469C
:103D3C0094F871603046FFF77BFF8AB06A46B4F89E
:103D4C0074302349CDE90763224BCDE90510ADF85A
:103D5C0024504FF43351124842F8103F16F003F937
:103D6C00BD46BDE8F0875046FFF7E6F8E9468AB055
:103D7C006A4640F20133CDE905650790ADF8203075
:103D8C004FF41351064842F8108F16F0ECF8013539
:103D9C00CD46A8E70401002079E701008BE701007C
:103DAC0070CD0100030000013000002010DD010087
:103DBC0075E7010096E70100000201030400000210
:103DCC00A5E7010004000001B6E7010006000001B0
:103DDC00F4E70100050000010048704741DB0100D9
:103DEC000149024817F05BBF88030020200D00201A
:103DFC0070B505460C4639B1CB684A699B1A032B42
:103E0C000ED86FF0150509E04FF0FF304FF0FF3181
:103E1C00FFF7B4FE044618B96FF06805284670BD6C
:103E2C002046FEF743FF0C22164BA61802FB00336C
:103E3C00032130465D8015F07EFF0580238A012129
:103E4C00033B8370304615F07EFF40F635439D42B0
:103E5C000FD12046FFF702FF05460028DED00121D6
:103E6C000346094A094816F071F82046FEF7BEFFD2
:103E7C00D4E72146064817F055FE0025FFF7B0FFA2
:103E8C00CCE700BFC01500201BE8010070CD01007D
:103E9C00840100202DE9F04784B0804691460C4601
:103EAC0000AF71B94FF0FF304FF0FF31FFF766FEF6
:103EBC00044660B96FF0680528461037BD46BDE86A
:103ECC00F087887AFEF7EAFE3B4B83426ED10122E3
:103EDC000021384617F03FFE2046FEF7E7FE0C2384
:103EEC00DFF8D8A003FB00A08760204615F0CFFEBA
:103EFC0001464046FFF77CFF054618B12046FEF709
:103F0C0075FFD9E7002338462D4A13F09DFC064671
:103F1C0090B14FF4F1732B4A2B492C4815F0C0F893
:103F2C00324641462A4815F0BBF885F31188BFF399
:103F3C006F8F0323184602DF2046FEF7B7FE0C23D3
:103F4C0058431AF800605EB36D468AB06A46214B3E
:103F5C000796CDE90538204B4FF43251089340F2C7
:103F6C000243ADF824301D4B1D4842F8103F15F0AC
:103F7C00FAFF2046AD46093EFEF738FF092E0CD855
:103F8C00DFE806F0050B0B08170B0B0B0B146FF08F
:103F9C006E0591E76FF00C058EE76FF004058BE76B
:103FAC00B9F1000FAAD0C9F8004085E76FF01505EC
:103FBC0082E76FF00B057FE748070020C015002053
:103FCC00B4C40400B9E501003DE8010006E60100B7
:103FDC0046E801008BE8010010DD0100050000013E
:103FEC0070CD010073B506460D4642F22F0000213C
:103FFC0001AAFFF74FFF044638B10121144A1548B6
:10400C0015F0A2FF204602B070BD0198C368B3F84A
:10401C0001203280B3F803302B80FEF7E7FE3388A3
:10402C00A3F11B02E02A04D902210B4A094815F01E
:10403C008DFF44F248112B88A3F5A47292B28A42E8
:10404C00E0D90221054A034815F080FFDAE700BFEA
:10405C00AAE8010070CD01006EE30100C0E301008D
:10406C002DE9F04F85B00026614BB0F8019019880E
:10407C0049F47042914204BF1E805E4B00F1040A69
:10408C0008BF1E78C37800AF012B08BF5A4B0546FA
:10409C00504614BF002493F86F4015F0E3FE07F16F
:1040AC000808514668B34FF0010B404615F0CFFE9F
:1040BC00D5F81130C7F80130B5F81530A7F8053030
:1040CC00EB78012B34D05046FEF736FF6C4688B0A7
:1040DC006A464A4B4FF4E251CDE905304FF4007378
:1040EC00ADF81C30464B474842F8103F15F03BFFEB
:1040FC001321A546484615F091FF1437BD46BDE87F
:10410C00F08F204616F032F80346006895F804B09C
:10411C00B8609A889B796868A8F8042088F80630FB
:10412C00BAF804209AF806303860BA80BB71C7E739
:10413C004046FFF79DF904460028C4D00346B5F865
:10414C00012023F8702B98F80620B868B8F80410F2
:10415C0020679A7140F2E2429980B5F817305343C8
:10416C000022C4F88830B5F81930A4F89030B5F8AE
:10417C001B30A4F89230EB786272234A012BC4F8FE
:10418C00A42002F14702C4F8A8204FF4A472E370F3
:10419C00A4F8AC201AD187F800B0BA88BB7938687B
:1041AC00A4F87B2084F87D30C4F8770000F0B2FFCF
:1041BC00237A1149C3EBC3035A18CB58C4F87E3089
:1041CC009388A4F88230937984F8843007212046B0
:1041DC0001F0BEFB26B101212046667201F0B8FB4E
:1041EC00204601F0F3FC204601F060FB85E700BFA0
:1041FC0008350020CB35002030000020CAE8010033
:10420C000300000170CD010001011B0000B5C36863
:10421C0089B0187820B109B05DF804EBFFF7A4B9A8
:10422C00B3F801208DF80000ADF80120DA788DF894
:10423C000320B3F80B20ADF81720B3F80D20ADF820
:10424C001920B3F80F20ADF81B205A7C8DF81D20D7
:10425C00586801901A899B7AADF808208DF80A30BD
:10426C00084B68461A689B88CDF80B20ADF80F30C8
:10427C00CDF81120ADF81530FFF7F2FE09B05DF85E
:10428C0004FB00BF64F701000022F0B585B01146B5
:10429C0040F6034002AFFFF7FDFD044600285BD15A
:1042AC00FFF754F9214641F203003A1DFFF7F2FDE6
:1042BC000446002850D17A68294DD16805F178035D
:1042CC00D1F80100D1F8051003C31046FEF78EFD9E
:1042DC00214641F201003A1DFFF7DCFD044600289F
:1042EC003AD17868C3685A7885F870205A88A5F84E
:1042FC0072201A7985F87120B3F80720A5F874207C
:10430C00B3F80530A5F87630FEF770FD214641F282
:10431C0002003A1DFFF7BEFD0446E8B9D7F804C009
:10432C0005F18006DCF80C20531C41323446186829
:10433C005968083303C493422646F7D16046FEF70A
:10434C0055FD95F87C305E0610D40121054A0648CF
:10435C0015F0FAFD6FF0120420460C37BD46F0BD87
:10436C0030000020E6E8010070CD010095F8AF1098
:10437C003A1D11F0040100F04881002142F287003F
:10438C00FFF788FD04460028E6D17A68DFF8B0C252
:10439C00D468A31C2234664618685968083303C6CF
:1043AC00A342B446F7D11046FEF720FD002142F29D
:1043BC0002003A1DFFF76EFD04460028CCD17E6842
:1043CC00F468B4F801309AB292B1E27882B1A5F8EF
:1043DC001431E378032B06D0032202210092994872
:1043EC00994A15F0AFFAE2789848114617F0B3FBEA
:1043FC003046FEF7FBFC1F2395F87C60A5F82831AE
:10440C0016F0200619D14FF0FF304FF0FF31FFF7B7
:10441C00B5FB0446002800F0BC8102210C3015F0DD
:10442C0073FC0123214603704670324640F66D4002
:10443C00FFF730FD044600288ED195F89C301C0700
:10444C0012D5002142F21C003A1DFFF723FD044651
:10445C00002881D17868C368D3F80120D3F80530DF
:10446C00C5E93E23FEF7C2FC95F8D830980623D553
:10447C003846B91CFFF7B6FD044600287FF46CAF34
:10448C004FF0FF304FF0FF31FFF778FB0646002866
:10449C0000F07F8104210C3015F036FC3B8822465D
:1044AC0003807B883146438042F22400FFF7F2FC04
:1044BC00044600287FF450AF4FF0FF304FF0FF312F
:1044CC00FFF75CFB0446002800F0638108210C30E8
:1044DC0015F01AFC95F8D81011F0020316BF2F2214
:1044EC000F220023890695F8D91048BF42F04002EC
:1044FC0011F0090F95F9DF1018BF42F40062002982
:10450C00B8BF4FF4806395F8E0100270C2F3072235
:10451C00427000228E0748BF43F48013C3F3072177
:10452C001B0C417182702146C27002718371C27181
:10453C0042F20100FFF7AEFC044600287FF40CAFFA
:10454C0095F87C30B5F8141198066FD4C9B941F2BE
:10455C0005003A1DFFF79EFC044600287FF4FCAED4
:10456C00B5F814317C684BB9E368B3F80120A5F8B1
:10457C0014219A883548114617F0EDFA2046FEF7BB
:10458C0035FC4FF0FF304FF0FF31FFF7F7FA0446E0
:10459C00002800F0FE8008210C3015F0B5FB10232C
:1045AC000370882300224370022620232146827048
:1045BC00C670027142718271C37140F60140FFF7FF
:1045CC0069FC044600287FF4C7AE01463A1D4FF63D
:1045DC000140FFF75FFC00283ED01D4A022119481C
:1045EC0015F0B2FCEB79002B40F0C38000F0DCFC42
:1045FC00044600287FF4B0AE01F038FF04460028D2
:10460C007FF4AAAEFFF734FBA6E642F20300FFF7F5
:10461C0041FC044600287FF49FAE7A68084BD168B1
:10462C00D1F80100D1F8051003C3BCE60029A8D1CC
:10463C000121084A034815F087FC6FF004048BE64F
:10464C000801002070CD01000AE90100480100209A
:10465C0073E9010050E901007B686E46DC688AB0A2
:10466C00B4F80130042B96BF574A584952F823101E
:10467C0002AAD3614FF4007355481384554BC2E919
:10468C00050142F8103F4FF41351534815F06BFCE1
:10469C00B4F80120B546022AB4F8033049D1052BF1
:1046AC0047D84E4A52F823106E468AB002AAD361FC
:1046BC004FF400734A481384464BC2E9050142F893
:1046CC00103F4FF41351444815F04DFCB546637937
:1046DC0094F806C0032B98BF424AB4F80760D4F88C
:1046EC0009006C468CB094BF52F82310374902AACB
:1046FC00C2E9073C4FF40073DFF8ECE093853B4BC9
:10470C00C2E905E1C2E909604FF4735142F8103F68
:10471C00314815F028FCA5467868FEF767FB0021A8
:10472C004FF602403A1DFFF7B5FB044618B1304A6C
:10473C0054E72649B8E77868C368B3F80130A5F8A0
:10474C00C130FEF753FB95F8C1305A077FF54AAFDD
:10475C0021464FF603403A1DFFF79CFB08B1254A52
:10476C003CE77868C3685B7885F8C030FEF73EFBA1
:10477C0038E72E78002E7FF439AF95F8C1309B06C0
:10478C001FD54FF0FF304FF0FF31FFF7F7F904461C
:10479C0010B96FF06804DFE506210C3015F0B4FA9F
:1047AC00D5F8013021460360134B32469B88838039
:1047BC004FF60640FFF76EFB044600283FF416AF99
:1047CC00CAE56FF08504C7E5E0D001006DE7010094
:1047DC0097E901000400000170CD0100C8D0010070
:1047EC00B0E90100B8D00100C8E9010007000001E0
:1047FC00F5E901001EEA01003100002010B5FFF7B9
:10480C0043FD034B1B6813B1BDE81040184710BDA6
:10481C00E415002073B52A4D0646D5F8640117F04F
:10482C0038F848B90121274A274815F08DFB6FF05D
:10483C001204204602B070BD6FF0020105F1D400E5
:10484C0015F094FB012115F083FB10EA010434D11F
:10485C001E4B1E600A4605F59C7017F07CF905F599
:10486C00AA7017F031F91A4817F044FA6FF00703E1
:10487C004FF4966217491648009413F09BF91649A9
:10488C00134817F062FAD5F86401144983681B6861
:10489C009847044630B101210346114A0A4815F0E5
:1048AC0055FBC6E726B902B0BDE87040FFF7ECBC7B
:1048BC0005F1C40013F078F9BBE76FF07704B8E7A3
:1048CC003000002047EA010070CD0100E415002003
:1048DC00C00D0020E84000205FEA010035370000E1
:1048EC0068EA010073B5C368D9789A781E8842EAE1
:1048FC000122ADF8002059791A79B4B242EA0122AA
:10490C00ADF80220D9799A79204642EA0122ADF815
:10491C0004201A7A5B7A012142EA0323ADF80630AF
:10492C0001F0F2F8054658B901211D4823461D4AED
:10493C0015F00CFB0221204615F0CEFB02B070BD29
:10494C00694601F079FB38B91E21204615F0C4FBED
:10495C00284600F0ABFFF1E74FF0FF304FF0FF318E
:10496C00FFF70CF904460028F2D00E210C3015F09C
:10497C00CBF900230680C0F80A30BDF80030214680
:10498C004380BDF802308380BDF80430C380BDF88D
:10499C000630038142F22000FFF72AFAD8E700BF65
:1049AC0070CD010046E3010038B5042104460C30FB
:1049BC0015F0DAF9034640885D7818B1224619786B
:1049CC00FFF738F835B1044812F00AFFBDE838405B
:1049DC00FFF706BA38BD00BF68010020B0B5044629
:1049EC00032100AF0C3015F0BFF9E26803461178D3
:1049FC0040F63542B0F80100904216D16C468AB0B0
:104A0C006A46104B1048CDE90531104B4FF412514A
:104A1C00079340F20133ADF820300D4B42F8103FB4
:104A2C0015F0A1FAA546BD46B0BD1D7810B12246C1
:104A3C00FFF700F8002DF6D0064812F0D1FEFFF774
:104A4C00CFF9F0E784EA010070CD010010DD010020
:104A5C00040000016801002038B513F0D9FA2F4D7D
:104A6C00D5F85431002B56D00022002305F59C704C
:104A7C0012F0EAFE00284ED10022002305F5AA70A0
:104A8C0012F07CFE044668B940F6AA43244A254934
:104A9C00254814F005FB84F31188BFF36F8F0323B3
:104AAC00184602DFD5F848315BB101211F4A204876
:104ABC0015F04AFAD5F84801FEF798F90023C5F825
:104ACC004831204615F0E3F8C5F848012046FFF7B9
:104ADC00C5F80346C8B10121164A154815F036FA37
:104AEC00154812F07DFE2046FEF7E0F80C22134B21
:104AFC0002FB0033588818B122461F21FEF79AFF9B
:104B0C002046FEF773F9FFF76BF9FFF769F9BDE87B
:104B1C00384013F091BA01F069F8F8E73000002042
:104B2C00B9E5010092E2010006E60100BCEA0100D1
:104B3C0070CD01001BE8010068010020C0150020A9
:104B4C0070B54FF0FF320D464FF0FF330021064693
:104B5C00FEF794FA044660B91A230A4A0A490B482C
:104B6C0014F09EFA84F31188BFF36F8F0323184659
:104B7C0002DF022104F10C0015F0C6F80670457036
:104B8C00204670BDF8EB010092E2010006E6010040
:104B9C00F8B506460024094DEF79E3B29F4202D8DE
:104BAC006FF0010007E02946304615F0D5FA0735BD
:104BBC00631C08B12046F8BD1C46EEE7300000200F
:104BCC0070B51A4E06223146054617F0CDFA38B3A9
:104BDC004FF0FF304FF0FF31FEF7D0FF044608B323
:104BEC00062229460C3015F095F82146002242F297
:104BFC000500FFF74FF9044648B110F10D0F04D131
:104C0C0002210B4A0B4815F0AFFA204670BD334613
:104C1C002A6843F86929AA88B280012283F868209F
:104C2C000024F2E76FF06804EFE700BF9900002062
:104C3C002EEC010078CD010073B504460D4689B108
:104C4C002846174915F088FA60B9164A2968C4EB4A
:104C5C00C4041151A318AA889A80AA799A710020C9
:104C6C0002B070BD6E46304615F0E3F80028F7D15F
:104C7C003046FFF78DFF0028F5DA0A4A0098C4EB9E
:104C8C00C4041051B179B088A31898809971002D83
:104C9C00E5D012592A609A88AA809B79AB71DEE71D
:104CAC0057F701003000002070B5044629BB38B31B
:104CBC00264915F051FA18BB2046FFF769FF00286A
:104CCC003EDA23786BB9224AD379002B38D120688D
:104CDC001060A179A0889171012190801846D17142
:104CEC0070BD012B04D1A37903F0C003C02B07D0F6
:104CFC000121184A184815F037FA6FF01500EFE744
:104D0C00134DEB79012B1ED005F1D403D3E8AF3F43
:104D1C00DB0707D4002CF0D020460C4915F01CFA08
:104D2C000028EAD1EE792146731C3046EB71FFF76F
:104D3C0083FF08B93046D3E7EB79013BEB71CFE742
:104D4C006FF07700CCE76FF00B00C9E757F7010065
:104D5C00300000203DEC010078CD01002DE9F3413D
:104D6C00044640B91A4A02211A4815F0FDF90020F0
:104D7C0002B0BDE8F081002141F2090001AAFFF761
:104D8C0089F8054608B1144AEDE7019E0622D6F8CB
:104D9C000C80124908F10107384617F0E5F928B1E3
:104DAC00062238460E4917F0DFF918B93046FEF7DF
:104DBC001DF8DCE7D8F801303046C4F80130BB8868
:104DCC002570A4F80530FEF711F80120D0E700BFDC
:104DDC006BEC010078CD010084EC010064F701005C
:104DEC005EF7010007B56846FFF7B8FF044BD871B2
:104DFC0018B169460020FFF71FFF03B05DF804FBF4
:104E0C00300000202DE9F041304E88B0F1790029B6
:104E1C0054D196F8C24014F0010411D12C4A02214D
:104E2C002C4815F0A1F90024F47116250024012753
:104E3C00F379E0B283422BD8002B3FD000203AE02C
:104E4C006A464FF60940FFF725F808B1224AE6E713
:104E5C00DDF800C0DCF80C5095F80180B8F1000FBB
:104E6C000ED0AB1C02AA12351746186859680833C5
:104E7C0003C7AB423A46F7D1186838609B88BB80B1
:104E8C006046FDF7B3FFB8F1000FCDD1134AC6E76A
:104E9C0008AB05FB003353F8182C33F8143C694667
:104EAC00CDF80120ADF805308DF80070FFF7C4FE89
:104EBC0001340028BCD008B0BDE8F08100210846C0
:104ECC0008B0BDE8F041FFF7EFBE00BF3000002096
:104EDC00A2EC010078CD0100CEEC0100EEEC01005B
:104EEC002DE9F0411D460E461746034648B145B123
:104EFC000A0311D54C0708D50121284A284815F07A
:104F0C0033F96FF01500BDE8F08115F03CF900287D
:104F1C00F9D101232B70F6E7B107047824D021498D
:104F2C002FB1B20603D591F8D820500632D5C4EB78
:104F3C00C40411F80480B8F1010F09D101341846EA
:104F4C00214415F018F90028DDD185F8008002E025
:104F5C00B8F1000FF9D02FB1B30642BF2B7843F054
:104F6C0002032B700020CEE7720710D50D49C4EB5D
:104F7C00C4040F5D012F07D10134214415F0FBF857
:104F8C000028C0D12F70E7E7002FE5D1FAE715F024
:104F9C00FAF8BEE76FF08500B5E700BF17ED01002A
:104FAC0078CD01003000002038B5104DEB7913B1ED
:104FBC000024204638BDFFF715FF044628B10C4AE3
:104FCC0001210C4815F0D0F8F3E7EB79002BEFD169
:104FDC00FFF718FF04460028F1D1681CFFF7F0FD1D
:104FEC0004460028E5D0044AEAE700BF3000002060
:104FFC0036ED010078CD010055ED01002DE9F74F9C
:10500C00884601904FF0FF314FF0FF30FEF7B6FDB0
:10501C00044600284ED020210C3014F075FE0027D9
:10502C0006460021202217F097F83946D8F8005090
:10503C0006F1010BD8F804309F4208D331700022DE
:10504C002146019803B0BDE8F04FFEF723BF6A7804
:10505C00881C13181F2B95F800C05FFA80F915D91E
:10506C00BCF1090FC9F11F0201D1002A0CDC01218E
:10507C00124A134814F053FC2046FDF7B7FE6FF0AC
:10508C00150003B0BDE8F08F4FF0080C5FFA82FA00
:10509C000AF1010E0BF801E00131C9B20BF801C0A5
:1050AC0069685844D14417F031F801375FFA89F137
:1050BC000835BFE76FF06800E3E700BF78ED01004B
:1050CC0020CD0100F7B5CDE90001694642F2080098
:1050DC0016461D469DF82070FFF790FF044648B910
:1050EC005FB90B4BD3E8EF1F41F00401C3E8E21F9B
:1050FC00002AF7D1204603B0F0BD694642F2090000
:10510C00CDE90065FFF77AFF0028EAD00446F1E705
:10511C005800002000487047480000202DE9F04F4F
:10512C00D0F8109089B0B9F100040546934618BF29
:10513C000124DFF8C0A202910393DAE8AF3F5A07CB
:10514C0040F17D81466873050CD56FF01504002283
:10515C0040F20110029B934540F07A81204609B041
:10516C00BDE8F08FD0F81080B8F1000F01D0B70770
:10517C00EBD0A14F2878FB798342E6D9C0EBC00075
:10518C0007229E49384416F0EFFF0028DDD0B00707
:10519C0006D197F87030082B02D8AB689F2BD4D966
:1051AC0016F0300F6DD0B8F1000FCED0F1066BD4E5
:1051BC0006F46036B6F5603FC7D0284614F0FAFF07
:1051CC0080460028C1D08E4ED6E8AF2FC2F3002304
:1051DC00D20500F13781CDE90533CDF81B30AB6832
:1051EC006A68ADF81030EB6812F4004FADF812306D
:1051FC0014BF06230723D00348BF03F00503910314
:10520C0048BF03F0FB038DF81D30DAE8EF3F23F4C1
:10521C008073CAE8E23F002AF7D12B7822463B760E
:10522C0087F86F30696877480DF11503FFF758FE62
:10523C00044600288BD1744BB9F1000F30D02A6989
:10524C0011684AF8B31C9188998092799A716B68AD
:10525C009A0727D0B9F1000F2BD013F0100F0CBF09
:10526C00012304238DF814302B691A68CDF816200D
:10527C009A88ADF81A209B798DF81C304FF00008F5
:10528C001AE0B8F1000F93D1D5E902239A423FF608
:10529C005CAF1F2A7FF659AFB3F5804F88D954E71E
:1052AC00564ACDE79B0502D4039B002B3CD002232E
:1052BC0000E04B468DF814304FF0FF304FF0FF31CB
:1052CC00FEF75CFC0446002800F0BF800F2204A906
:1052DC000C3014F01FFD2146002242F20600FEF7AE
:1052EC00D9FD044600287FF432AFB9F1000F1FD06E
:1052FC00686810F0030027D107460121414814F0DB
:10530C005DFF0446002845D00121404A404814F076
:10531C0006FB002F3FF41BAF3846002100F018FBB2
:10532C00384600F0C3FA12E703238DF81430A5E7D2
:10533C005946129B039A0298CDF80080FFF7C2FEE3
:10534C0004460028D4D002E73C7E07222B492E4885
:10535C0087F86F4016F008FF60B920462D4900F021
:10536C00A7FE074610B96FF00B04F0E6052100F01C
:10537C00EFFAC2E72046244900F0DEFE00287FF455
:10538C00E4AE387E204900F093FE07460028EAD0B0
:10539C000621ECE717B1384600F088FA6B689F07D6
:1053AC001FD0D6E8EF3F43F40073C6E8E23F002A73
:1053BC00F7D1B8F1000F2FD0D6E8EF3F43F480635C
:1053CC00C6E8E23F002AF7D16B6858072DD5D6E81E
:1053DC00EF3F43F48053C6E8E23F002A3FF4B7AEF8
:1053EC00F5E7D6E8EF3F23F40073C6E8E23F002A66
:1053FC00DFD0F6E7040100203000002057F7010051
:10540C0058000020480000205100002091ED0100C0
:10541C0020CD010050F70100D6E8EF3F23F4806364
:10542C00C6E8E23F002ACFD0F6E7D6E8EF3F23F4F8
:10543C008053C6E8E23F002A3FF489AEF5E76FF0EF
:10544C000A0484E66FF0770481E66FF068047EE668
:10545C001988814204D1596811B10978C90702D45D
:10546C000132083377E60549054816F049FC00235C
:10547C00044A034812F03CFC70E600BF09550000DA
:10548C00600000201C4E0E0010B5184814F0BCFE35
:10549C00174CD4E8AF3FDA05C3F3002024D5D4E889
:1054AC00AF3F9B0517D513490722E01F16F05CFE92
:1054BC000346A4F1280114F8100C93B905220E49E7
:1054CC0000F072FE044630B10021417200F040FA47
:1054DC00204600F0EBF9BDE810400021034814F021
:1054EC006DBE06222131EBE710BD00BF4800002045
:1054FC005800002057F7010050F7010010B5FFF7D6
:10550C00C3FF034630B1BDE810400221024A0348F4
:10551C0014F00EBA10BD00BFACED010020CD01009F
:10552C0070B505460B4B1C6844B154F8243C243C24
:10553C0013B12846697A9847646AF5E7064C074E1A
:10554C00B44200D370BD236813B12846697A9847DA
:10555C002834F5E71C160020E0CC010008CD010032
:10556C0010B50446FDF7A2FB044901EB00112046DF
:10557C0014F0B9FCBDE81040FEF732BCE815002071
:10558C00002270B50446D1E901560748C1E9012251
:10559C0016F0C8FA3DB1314620462B46BDE87040A6
:1055AC006FF06D02184770BDA806002070B5054657
:1055BC00002200230E4812F047F9B8B90D4B1C68B5
:1055CC0034B154F81C3C243C03B19847646AF7E7A7
:1055DC00094C0A4EB44204D32846BDE8704012F080
:1055EC00E3BAA36803B198472834F3E770BD00BF52
:1055FC00980600201C160020E0CC010008CD01000C
:10560C002DE9F041044620270025EFF3118287F3A2
:10561C001288BFF36F8FE16929B1206A0B68814250
:10562C00E36108BF236282F31188BFF36F8F71B1FE
:10563C00D1E901680748C1E9015516F073FA1EB1AA
:10564C00002241462046B047FEF7CAFBDDE7BDE825
:10565C00F08100BFA806002037B50446031DD3E82F
:10566C00EF2F42F48061C3E8E51F002DF7D15105FF
:10567C0036D4D3E8AF3FDA0326D5E37823B9022139
:10568C00184A194814F054F9A37A072B28D1174B50
:10569C0093F8D8309B0623D514F09AFC00B30DF187
:1056AC00060101A8FEF79EFCD0B92046BDF80620E5
:1056BC00BDF8041014F0F1FC034688B101210C4A2A
:1056CC00094814F035F90BE014F0CCFC034620B17A
:1056DC000121084A044814F02BF9A37A072BCCD0EB
:1056EC0003B030BDF3ED010038CD010030000020D7
:1056FC000CEE0100D2ED01000448B0F8143100F5B5
:10570C008C70002B08BF0020704700BF30000020B9
:10571C0030B50446FDF730F80D460D4A0D4989B0F9
:10572C000858D2F88010884205D1204609B0BDE84F
:10573C003040FFF765BF24342146104616F0AFFA0F
:10574C001DB16946204616F0BAFA09B030BD00BF4B
:10575C00081400200800000038B5002204468A42D4
:10576C0002D10024204638BD012004F1D003D3E837
:10577C00EF5F002D04D1C3E8EC0FBCF1000FF6D1A4
:10578C0002D0D8340244EAE7002CEAD0D02200211F
:10579C00204616F0E1FC04F14000044916F0B0FA82
:1057AC00034904F1240016F05EFADBE7AD63000058
:1057BC003DA20100F7B516460D4601210446FFF740
:1057CC00A7FF012E23D0022E52D123693BB13148C1
:1057DC000121314A14F0A3F8204614F04DFD256147
:1057EC0021690B8A012B53D9CA681288043292B2F0
:1057FC0093424DD343D9012100922648274A14F0F5
:10580C00A1F8204603B0BDE8F04014F035BD206986
:10581C0040B9234A31461F4814F081F8204614F051
:10582C002BFD01E02A8A2AB9284603B0BDE8F040D6
:10583C00FDF7DCBA018A438A47695B1AC168C91B48
:10584C005B1A9A420CD9174A3146124814F067F881
:10585C0000222046216900F0D7FF00232361E3E7F3
:10586C00E9680C3014F056FA2846FDF7BFFAB7E792
:10587C00012133460C4A074814F05AF8CEE70023AE
:10588C0001222046236103B0BDE8F04000F0BCBF0C
:10589C0003B0F0BD38CD010028EE0100A8EE0100E8
:1058AC0045EE010063EE01008AEE010008B500F13F
:1058BC00D003D3E8EF2F013AC3E8E12F0029F8D148
:1058CC00AAB90B4B984212D303F1D80290420ED2D4
:1058DC00C01AD823B0FBF3F203FB120038B9054809
:1058EC0011F07EFFBDE80840034812F05DB908BD19
:1058FC00600E002098060020B803002010B5044666
:10590C0014F0C3FC12F084FB104A04F1C403D2F867
:10591C002C1161B9C4F8C410D2F8301159B9C2E9CC
:10592C004B3312F089FBBDE81040FEF759BA8B429D
:10593C0005D00968EDE70B60C2F83031F1E712F0E1
:10594C007BFB2046FFF7B2FFEDE700BF30000020E5
:10595C00F8B5867A04468E420D4600AF1CD1082E4F
:10596C0098BF4F4B6C4688B094BF53F826304D4BC4
:10597C006A464D49CDE905134FF40073ADF81C3060
:10598C004A4B42F8103F00234FF4E4514848FCF7CF
:10599C0031F8A546BD46F8BD81720EB914F075FC00
:1059AC00A37A082B79D801A252F823F0F7590000FA
:1059BC004D5A0000A1590000A1590000A159000046
:1059CC00A1590000A1590000DD590000A1590000A7
:1059DC000023C4E90D33E378012BDBD10023354AD6
:1059EC0004F1400012F050F9D4E7082ED2D8DFE8C9
:1059FC0006F02005171C1C1C1720200004F1400584
:105A0C00284616F089F901212046FFF781FE204631
:105A1C0014F032FC00220023284612F069F9B9E791
:105A2C00637A13B12046FFF77BFD2046FFF73EFF5C
:105A3C00B0E72B46204A02211D4813F079FFA9E755
:105A4C00637A3E2B0FD16D4688B06A461B4BCDE96D
:105A5C000534032342F8103F00234FF4C45114487B
:105A6C00FBF7C8FFAD46164D05F58C76616911B98B
:105A7C00FEF7B6F98EE7A2690B68914208BFA361E5
:105A8C0020466361FFF77CFDB5F81431002B14BF81
:105A9C003046002011F0A4FEE8E70A4A2B46CAE77C
:105AAC00B0D10100C3EE0100CDEE010003000001F6
:105ABC0038CD01005A620200DEEE0100F5EE010065
:105ACC00300000201CEF0100F8B5074609480D46D0
:105ADC00164614F0DAFB044650B183781F4203D10A
:105AEC00BDE8F840FFF7E2BE3146A8472046F7E78D
:105AFC00F8BD00BF600E0020002201200149FFF715
:105B0C00E3BF00BF79A2010070B505460E480E46F2
:105B1C0014F0BBFB0446A0B1837A012B02D0073BE7
:105B2C00012B0CD82388AB4208D1A3781E4209D193
:105B3C0002212B46054A064813F0FAFE2046FFF7D1
:105B4C00B5FE0024204670BD600E002038EF010029
:105B5C0038CD0100034BC01A034BC0105843C0B2E0
:105B6C00704700BF600E002013DA4B6870B51C46FE
:105B7C00144305460E460DD0FCF7FEFD0E49D1F838
:105B8C0080400E4909588C4206D102210C4A0D481E
:105B9C0013F0C5FE002213460B49002D14BF2846F6
:105BAC00084614F045F8044618B1711D0C3014F079
:105BBC00A0F8204670BD00BF0814002008000000AB
:105BCC004FEF010038CD0100B806002010B5044697
:105BDC00054811F0E9FF204600F064FD2046BDE8C1
:105BEC001040FFF79DBC00BFA80300202DE9F04F2B
:105BFC00002387B000AFFB607B61BB4B5A8A3AB184
:105C0C00BA4DD5F82C413CB91C37BD46BDE8F08FD8
:105C1C001B68002BF4D1F7E754F8C43903B1C43B2B
:105C2C000026B34901E01C461346B5F81421002A9E
:105C3C0000F05781D5F820214AB904F1C406002B95
:105C4C00E2D0D3F8C420002AEDD0C43AEBE70A68BE
:105C5C00002AF2D0D4F8B020002AEED0D4F8B42028
:105C6C00002AEAD0D4F8B820002AE6D0A37A072B71
:105C7C006AD120469047002866D004F1C803D3E8C7
:105C8C00AF3F022B60DC204614F0FFFA04460028DC
:105C9C00BAD0A37A072B40F021812046D4F8B0303B
:105CAC00B5F8141107F1100298478146002800F04E
:105CBC000581B5F814213B699A4208D30146D4F802
:105CCC00B460204607F1140307F10C02B0477B695E
:105CDC00D7F80C803B60B9F81030002B00F0F8803E
:105CEC004846D7F810A014F014F97860002840F05A
:105CFC00F280B5F81431DFF8FCB1002B14BF584614
:105D0C0000200022002311F09FFD78B9002200230F
:105D1C00774811F033FD064600283BD1B5F8143115
:105D2C00002B18BF5E46304611F05AFD6FF00B0584
:105D3C004846FDF75BF8B8F1000F00F0AA802A4640
:105D4C0020463968C047A4E0D4F8C43004F1C4023A
:105D5C00C6B9D5F83011C5F82C318A4201D1C5F835
:105D6C00303100232046C4F8C430D4F8B8309847FA
:105D7C0000288ED0A37A072B40F0B0802046FFF786
:105D8C00BDFD86E73360D5F830319A4208BFC5F8BF
:105D9C003061E6E73B68C0F804808360B5F814B165
:105DAC000022DA454FF000034FF000014E4898BF37
:105DBC001FFA8AFBFCF79CFF804650B1FCF776FF7C
:105DCC004D4B5A4603EB00134946404614F066F817
:105DDC008046B5F8143194F8CC909A4584BF0123D1
:105DEC007B607B689CBF09F102095FFA89F984F832
:105DFC00CC3004F1C80ADAE8EF3F0133CAE8E23FDD
:105E0C00002AF8D100233360A369002B5AD1C4E9CE
:105E1C000566A378012B58D108F10C0B04215846C8
:105E2C0013F089FF238809F0FD0943EA0933038045
:105E3C00B8F810300221043B4380584613F083FF1E
:105E4C004046FDF70BFF8146002847D0DAE8EF3FCC
:105E5C00013BCAE8E23F002AF8D1314604F11400B4
:105E6C0014F0E9F9254A4B460121254813F060FD51
:105E7C004046FCF7BBFF20463146FFF781FBB5F8E7
