:10000000808000202D4C010049330200194C010072
:10001000194C0100194C0100194C0100194C010048
:10002000000000000000000000000000FD4C010086
:10003000194C010000000000AD4E0100194C0100F8
:100040002D4F01002D4F01002D4F01002D4F0100BC
:100050002D4F01002D4F01002D4F01002D4F0100AC
:100060002D4F01002D4F01002D4F01002D4F01009C
:100070002D4F01002D4F01002D4F01002D4F01008C
:100250002D4F01001D5602002D4F01002D4F0100B2
:100260002D4F01002D4F0100075602002D4F0100B8
:100270002D4F01002D4F01002D4F01002D4F01008A
:100280002D4F01002D4F01002D4F01002D4F01007A
:100290002D4F01002D4F01002D4F01002D4F01006A
:1002A0002D4F01002D4F01002D4F01002D4F01005A
:1002B0002D4F01002D4F01002D4F01002D4F01004A
:1002C0002D4F01002D4F01002D4F01002D4F01003A
:1002D0002D4F01002D4F01002D4F01002D4F01002A
:1002E0002D4F01002D4F01002D4F01002D4F01001A
:1002F0002D4F01002D4F01002D4F01002D4F01000A
:100300002D4F01002D4F01002D4F01002D4F0100F9
:100310002D4F01002D4F01002D4F01002D4F0100E9
:100320002D4F01002D4F01002D4F01002D4F0100D9
:100330002D4F01002D4F01002D4F01002D4F0100C9
:100340002D4F01002D4F01002D4F01002D4F0100B9
:100350002D4F01002D4F01002D4F01002D4F0100A9
:100360002D4F01002D4F01002D4F01002D4F010099
:100370002D4F01002D4F01002D4F01002D4F010089
:100380002D4F01002D4F01002D4F01002D4F010079
:100390002D4F01002D4F01002D4F01002D4F010069
:1003A0002D4F01002D4F01002D4F01002D4F010059
:1003B0002D4F01002D4F01002D4F01002D4F010049
:1003C0002D4F01002D4F01002D4F01002D4F010039
:1003D0002D4F0100335602002D4F01002D4F01001B
:1003E0002D4F01002D4F01002D4F01002D4F010019
:1003F0002D4F01002D4F01002D4F01002D4F010009
:100400002D4F01002D4F01002D4F01002D4F0100F8
:100410002D4F01002D4F01002D4F01002D4F0100E8
:100420002D4F01002D4F01002D4F01002D4F0100D8
:100430002D4F01002D4F01002D4F01002D4F0100C8
:100440002D4F01002D4F01002D4F01002D4F0100B8
:100450002D4F01002D4F01002D4F01002D4F0100A8
:100460002D4F01002D4F01002D4F01002D4F010098
:0C0470002D4F01002D4F01002D4F010009
:10048000054B00221B78826001330260034A426000
:10049000C371FF23037270477808002080010800B1
:1004A000064A074B02604FF426729B78828008222E
:1004B000C371002382710372704700BF1B130100D8
:1004C00078080020094991F829308A7803EB430322
:1004D000C978DB000A4400211033C2718160838037
:1004E000042301608371FF230372704778080020A2
:1004F000064A9378D2781344002282600260044A4C
:100500004260C371FF230372704700BF7808002068
:100510003A0002002DE9F341C41D0028064624F0EC
:1005200007040CBF0020204600F07CFC071E04DA04
:100530006FF00B0002B0BDE8F081374DE988A88864
:1005400003316B7A03302A7A89B280B20DF097FAC0
:100550000028EDDB3C44A978EB78002E04F103047D
:10056000194424F0030400FB01F10CBF00202046D5
:1005700000F006FE20440EB90028D9DBEA7A0446D2
:10058000B2B1EB7B697C13441944FF29D0D8033006
:10059000002EAA89C9B220F003040CBF0020204617
:1005A00000F060FE0028C3DB04440EB9002CBFDB62
:1005B000012000F02DFCB0B1A97BA1B195F82A3043
:1005C00033B340234FF481720734002E24F0070424
:1005D0000CBF0020204603F01DF90028A8DB0444CE
:1005E0000EB9002CA4DBAB7AFBB1EB7AB3B10734C4
:1005F000002EA97A24F007040CBF0020204606F044
:10060000E5FB002894DB04447EB9002C0DDA8FE76B
:1006100025232822D8E700BF78080020012000F019
:10062000F7FB10B1AB7B002BE1D1734B1B6893B18F
:10063000A97D81B10334002EEA7D24F003040CBFB0
:100640000020204698470028FFF672AF044416B9F0
:10065000002CFFF66DAF694B1B688BB1297C79B11B
:100660000334002E24F003040CBF002020469847DA
:100670000028FFF65DAF044416B9002CFFF658AF12
:100680005F4B1F68B7B1697CA1B10334002E2B7D8D
:1006900024F0030408BF0020009318BF2046EB7C21
:1006A000AA7CB8470028FFF643AF044416B9002CD3
:1006B000FFF63EAF072000F0ABFB98B1A97D89B1F2
:1006C0000334002E2A7E24F003040CBF00202046B1
:1006D00000F09EFE0028FFF62BAF044416B9002C54
:1006E000FFF626AFB6FA86F795F823007F09A0B18A
:1006F00003346B7FA97E24F0070419443B4644F081
:100700000404C9B2224600F0C3FE0028FFF610AF71
:10071000044416B9002CFFF60BAF95F824100029FD
:100720004CD004F10708002EEA8C28F007080CBF13
:10073000002040460DF0B7F9041EFFF6F9AE444420
:10074000002E3ED1002CFFF6F3AEA97F002945D044
:1007500095F82230002B41D02A8C0734002E02F16C
:10076000240224F007080CBF0020404692B20DF08E
:100770009AF90028FFF6DCAE404416B90028FFF6CF
:10078000D7AE03302B7FA97E20F0070019443B46EB
:1007900040F0040495F82200C9B2224600F06AFE37
:1007A0000028FFF6C5AE044486B9002CFFF6C0AEA3
:1007B000EB6AF3B1C6B1EC620020BBE6002EC4D0F8
:1007C0008846E98C40460AF069FBBEE72A8C404621
:1007D000A97F083292B20AF067FBE9E7002EE7D062
:1007E000002211461046F6E728343FF5A1AE204618
:1007F000A0E6002EE0D1FAE7D4150020D81500209D
:10080000DC1500201FB572B6194B1C6BECB9BFF399
:100810004F8F1849184BCA6802F4E0621343CB604B
:10082000BFF34F8F00BFFDE7B2FBF6F22B465D1C16
:10083000002AF9D1DBB203F110056D4405F80C2C48
:100840000A2233B901A8A047E1E7024600230A269D
:10085000EDE7013BDBB203F110050DEB0506B0FB44
:10086000F2F502FB1500303006F80C0C2846E8E7DC
:100870007808002000ED00E00400FA0513B5124CE2
:1008800068462389ADF80030E388ADF80430A388CA
:10089000ADF8023004F03EFD18B1FA219C20FFF7BC
:1008A000B1FF207D04F08CFD08B1FD21F6E7E07C6E
:1008B00004F080FD08B1FE21F0E794F8290008F06B
:1008C00035FE02B010BD00BF7808002070B50546A7
:1008D000002855D00CF072FA18B94FF0FF342046BA
:1008E00070BD0AF0DFFFB0F5FA7FF6D8264C01267E
:1008F00025630025284684F83450257084F82A5052
:10090000E5620AF06DFA1A22294604F10F0011F08F
:100910004BFD1B2308210322A3802846E3800223EA
:10092000A1721F216372E375F72322722384FB23D4
:10093000A2734922E3840A23A1812946E27484F840
:100940002930A670E670E672A674267603F01EFCC7
:100950002A463146304603F0EBFB044620B140F214
:10096000B5319C20FFF74EFF014603F0FDFBEFF38E
:10097000108572B600F0B2FD002DB0D162B6AEE7C0
:100980006FF01504ABE700BF7808002038B51446B7
:10099000002840F0EE80784D95F83430032B00F0BD
:1009A000E58019B312B96FF0150038BD0139172968
:1009B00000F2DF80DFE811F0180029002C0042006F
:1009C0006C0075009400480078007B008E004E009B
:1009D0005400620067009A009D00AC00AF00B200B6
:1009E000A300B500B900D2001378AB700020FFF768
:1009F00091FD0028B7BF012302236FF00B0085F89B
:100A00003430A8BF85F83430CFE71378EB70EDE7CA
:100A10001379002BC7D05379002BC4D01288FB2A3E
:100A2000C1D863881B3B9BB2E02BBCD81A2ABAD929
:100A30002368A2886B60514B9A80D7E71378EA7BD2
:100A40009342B0D3EB72D1E71378EA7A9342AAD8F3
:100A5000EB73CBE71378EA7A9342A4D86B74C5E7BB
:100A60001378002B9FD05378013BDBB2F82B9AD838
:100A7000138892786B82424B9A70B7E7107868754A
:100A800008F0ACFCB2E71378002B8CD02B76ADE7E6
:100A9000012000F0BDF9237808B1012B83D9AB7395
:100AA000A4E71388AB81A1E71378AB759EE7072015
:100AB00000F0AEF918B92378012B7FF674AF072048
:100AC00000F0A6F918B12378002B3FF46CAF23781F
:100AD000EB758BE71378082B3FF665AF2B7485E732
:100AE0001388FF2B3FF65FAFAB727FE713786B760F
:100AF0007CE713780E2B3FF656AFAB7676E723688C
:100B0000204AC5F81E3063685360238913816DE75E
:100B10001378EB766AE713786B7767E713782B77B0
:100B200064E7137885F8283060E703F0FBFA98B1A2
:100B3000007900F001026178207803F0F9FA0028CA
:100B40007FF433AF6378012B7FF650AF0AF04EF994
:100B500000287FF44BAF26E70246ECE713785A1ED5
:100B6000092A3FF620AF85F829303FE74FF0FF30E4
:100B70001BE76FF02C0018E7780800207C080020A5
:100B80008A08002096080020F8B50D46064630B3C6
:100B900029B311F0070422D1124F97F83430012BFA
:100BA00002D16FF00B00F8BD032B02D14FF0FF30E4
:100BB000F9E700F0C9FC0028F8D02846FFF7AAFCA6
:100BC0000028EEDB11F0B5F83046F96A04F05AFC63
:100BD000FFF754FE0323204687F83430E3E76FF035
:100BE0001500E0E77808002010B5074C94F8343081
:100BF000032B03D104F05EFC05F030FA0CF0D8FFB3
:100C0000002084F8340010BD7808002008B504F0F6
:100C10001BFC0549012000F0F3F804490020BDE861
:100C2000084000F0EDB800BF81040000A1040000FE
:100C300008B50449122000F0E3F8BDE8084004F0CC
:100C4000DBBB00BFC504000008B504F0E7FB0349A7
:100C50001320BDE8084000F0D3B800BFF104000045
:100C6000074B4FF0FF3141F6FF72C3E9001205490F
:100C70000022C1E900221F21C3E90212704700BF10
:100C800060000020B00800203F280CD801380B4B32
:100C9000C0F3421200F01F0053F8223023FA00F094
:100CA00000F001007047FF2806D04038044BC0F325
:100CB000421200F01F00EFE70120704760000020A3
:100CC000B0080020074B0146006849681A4603C275
:100CD00040F48C2200201A6041F0107242F4FF624E
:100CE0005A607047600000200246034B006851685C
:100CF00003C30020704700BFB00800200246034B2A
:100D00000068516803C30020704700BF68000020DE
:100D10000138064BC0F3421200F01F0003EB8203C0
:100D20009B6823FA00F000F001007047600000208B
:100D30000A8870B595B2C67CC2F30E0204880236EA
:100D400002F118033444C35AA4B233442344013B90
:100D5000B3FBF4F303FB0422438892B29342044BA7
:100D60008BBF2B40AB4313439BB20B8070BD00BFC6
:100D70000080FFFF4A1E062A08B50346084604D82D
:100D80004FF4D1711520FFF73DFD094A914202D978
:100D900040F2A311F6E711B903B1196008BD2BB1F8
:100DA0001B680022C3E901211A1D1A600430F5E70F
:100DB000FAFFFF7F10B5114B00EB41041A786389ED
:100DC000B3FBF2F303FB0223013A1A44B2F5706F4E
:100DD0000279807828BF00231A440B18B2FBF0F187
:100DE00000FB11215B1AB3FBF0F100FB113313443C
:100DF0006FEA43436FEA5343638110BDB808002094
:100E0000024B03EB80035960704700BFB808002015
:100E1000034B03EB80035868003818BF012070476C
:100E2000B80800202DE9F04F10F0070A85B00546FC
:100E300004D040F26F111720FFF7E4FC534F044633
:100E40004FF0010B07F15406B146B04657F8043B8A
:100E50008DF80BA03BB101A898479DF80A30082BEC
:100E600001D9F521E7E79DF80B1041BB05B13160D1
:100E70004F4506F10406E9D1002D6FD00022DFF8BE
:100E800010911427964689F8002058F827A0013FB2
:100E9000BAF1000F55D09AF804609AF802C0FF2EFC
:100EA00060D039460023481C38D19C44BCF1FF0F68
:100EB0003FD90AB189F800E04FF49A71BBE79DF879
:100EC0000AC04B1D60465A0004EB4303022838BF9A
:100ED0000220441E40422344BDF808406444CCF143
:100EE000000C0340013C04EA0C04B4F5803F02D33B
:100EF00040F205119FE775B19A1A32609170148023
:100F000082F803B09DF80C00107101984FEA104C64
:100F10001081A2F806C004FB0134A9E758F82100AB
:100F200028B190F804B0B34504BF80781B1801398C
:100F3000B9E7DBB2E6458AF804303CBF5FFA8CFEC5
:100F400001227B1CA1D10AB189F800E0142640F6E9
:100F5000FF6A58F82670B7B9013EFAD2601B05B097
:100F6000BDE8F08F0023E5E707EB410309F1010934
:100F70003846A3F80AA0FFF71DFF5FFA89F1BB7896
:100F80008B42F1D8E8E74FF00009F6E7BC080020F3
:100F9000B808002038B54FF6FF7302460380184B9F
:100FA00003EB8103986DA8B184780379B3FBF4F166
:100FB00004FB1133DBB2194600EB4105B5F90A50C9
:100FC000002D0EDB0131B1FBF4F504FB1511C9B2A4
:100FD0008B42F1D1002038BD6381BDE838400CF070
:100FE0002ABD00EB41046389C3F30E031380C2786A
:100FF000002AF1D14FF4E5711720FFF703FC00BF81
:10100000B80800201C4B03EB810370B59C6D0546AE
:1010100044B3030404D54FF4EC711720FFF7F2FB3F
:10102000014620460CF0EAFCFF28014604D0204689
:10103000BDE870400CF0FFBCA078B5FBF0F300FBFE
:101040001353DBB219460A1D04EB4206B6F90260DF
:10105000002E09DB0131B1FBF0F200FB1211C9B225
:101060008B42F0D1002070BD8B4201D00023E37091
:1010700004EB42025580DAE7B8080020094B03EB85
:101080008103014610B59C6D20460CF0B7FCFF288B
:10109000014604D02046BDE810400CF0CCBC002036
:1010A00010BD00BFB8080020F8B5104B074603EB91
:1010B000810301469C6D20460CF0A0FCFF280546EC
:1010C00011D0E288238953EA024606D00146204621
:1010D0000CF0B1FC01463846B04720462946FFF7E0
:1010E00069FE0020F8BD0520FCE700BFB80800201D
:1010F00038B50E4B0446827903EB8203986D08B92C
:10110000052038BD8278E1799142F9D24B1CE37118
:1011100000EB41035D89B3F90A30002BF3DBA580B6
:101120000CF089FC20600020EBE700BFB80800202D
:1011300008B5124B03EB81039A6D22B940F24621A8
:101140001720FFF75FFB9178831A481DA3EB40033C
:101150001088B3FBF0F3002B01DB994202DC40F274
:101160004921EDE702EB4302B2F90A305089002B26
:1011700002DA40F24B21E3E708BD00BFB8080020C7
:1011800070B5044610F003000E4603D04E2118201F
:10119000FFF738FBFFF7EEFD054624B10348314663
:1011A0000460FFF7E7FD284670BD00BF640900201A
:1011B0002DE9F14FDFF870B01E4607460D46DBF80B
:1011C000003090469DF828A09DF82C901BB9602116
:1011D0001820FFF717FB5246092140460CF092FAFF
:1011E0004A4684B2092130460CF08CFA81B2DBF811
:1011F000000021440CF0D6FB386018B9286001B01B
:10120000BDE8F08F04445346414609222C603868FB
:101210000CF03BFA4B4609223146286801B0BDE884
:10122000F04F0CF032BA00BF6409002070B50E46D2
:1012300004460CF07AFA054630460CF076FA044B78
:101240002A1821461868BDE870400CF0D0BB00BFDA
:1012500064090020024B186808B10CF097BB704776
:10126000640900201F2AF8B5044613460ED89200E0
:10127000033222F00303B3F5803F2DD2184DACB1F9
:10128000A00710D068210920FFF7BCFAFF2B4FEA16
:10129000420204D9FF339A42A8BF1A46E8E77C2AE3
:1012A000B8BF7C22E4E729706C602B8122F0030236
:1012B00028230127120403FB01F06B680025120CA0
:1012C000EEB2B14200D8F8BD14B126181F705E60AE
:1012D000104401352833F3E74FF0FF30F3E700BF48
:1012E00068090020154A002170B553681578C8B206
:1012F000854203D8BA210920FFF784FA1C46184614
:10130000013114F8286B0EB92346F0E700219970DB
:1013100001241289996103F126055C709208D96154
:1013200003F11E04596824F8022FA54243F8041F54
:101330001144F8D100234361037070BD6809002097
:101340004B782DE9F04106460C4602F0040702F006
:10135000FB05E3B1A5BBFF23A3707B0804EB570794
:101360003A7D032A02D1022D18BF0133E218012170
:10137000117503F10C01002204EB830324F8112002
:101380005B68A27030463360B280BDE8F081002D0A
:10139000E1D1012301F11E028D6120464B7004F161
:1013A000260C1A4BCD611B8949689B0822F8023F25
:1013B000944540F8041F1944F8D100236361CAE73B
:1013C000D1F8048014220021A018617010F0ECFF05
:1013D0000E4B1B89B3F5FF7F0FD25A089B1A9BB2A5
:1013E00008EB0301C4F804802384A1606284C4F87C
:1013F0000C80A3842161E284ADE7B3F5EE6F4FF07A
:10140000FF02EBD940F27263EAE700BF68090020EF
:101410002DE9F84305460C46F720052191460CF0CE
:1014200071F9061E21DB1DB906FB04F0BDE8F88347
:1014300015F0030703D098211920FFF7E3F9DFF82F
:101440003080C8F81050A8F81460BBB29C42EBD9A9
:10145000B8F814504B46D8F810000522F72107FBC6
:10146000050001370CF011F9EFE74FF0FF30DDE731
:101470007C09002007B5CDE900230B46034902464D
:10148000081D0CF06FFB03B05DF804FB940900200D
:1014900013B5064CCDE900230B46024604F10801C2
:1014A00004F10C000CF05EFB02B010BD94090020AA
:1014B00008B54B1E032B03D923219020FFF7A2F977
:1014C0000028054A0CBF05230C2303EB81030533D9
:1014D00023F00103137008BDA4090020114B012261
:1014E0004FF0FF3000215A60C3F80803C3F800151D
:1014F000C3F804255A6040F6FE72C3F80803402082
:10150000C3F8001503F570330749C3F80825C1F87F
:101510008800BFF34F8FBFF36F8FC1F88801C3F806
:10152000082570470060045000E100E002680020D8
:10153000014B1A60704700BFA8090020014B1B68CF
:10154000184700BFA8090020024B1868003818BFD0
:1015500001207047A80900200A4606489C2302F88B
:10156000033BC368C1F80330036953604369936068
:10157000704700BFAC090020024B5A8C02435A84CA
:101580005B6A1847AC090020014B00215B6A1847D1
:10159000AC09002010B5154C09F0B8F809F0E2FBD1
:1015A000208DFFF7F1FF237E63B12246104904F13D
:1015B000190052F80C3BE36063685360A3689360C2
:1015C0000EF07EFE218DE06A05F056FDE36AB3F869
:1015D000AA0005F0B1FB636B94F8301094F8310069
:1015E0009847002384F8383010BD00BFAC090020B4
:1015F00059150000034B93F838300BB1FFF7CABF01
:10160000704700BFAC0900202DE9F041DFF8808071
:1016100005460E4608F12C000DF044F9044618B1B9
:1016200001242046BDE8F081D8F82C3093F8A8704A
:101630004FB1012D07D1B8F822301A0703D598F819
:101640003930002BECD1012EEAD8D8F83C302846AE
:1016500098470028E4D098F83030002BE0D167B9E3
:10166000012DDED1B8F82230002BD9D198F84030C6
:10167000002BD6D198F8414007E0002DD1D1B8F821
:1016800022309B07EED598F8394084F00104C8E772
:10169000AC09002070B5204C0646636DE56A6364B2
:1016A0004FF4817394F85800A4F848302B7D95F8D6
:1016B000211100EB83002EB9FF2803D195F82031CA
:1016C0008B4201D008F0B6FC2B7DFBB1E06D08F039
:1016D00045FFE16D606C09F0CBFA66B995F82131F0
:1016E000033B012BB5F8E4308CBF002028201844C0
:1016F00080B208F097FFB5F8E00008F05BFC00202E
:1017000008F0CEFF022384F8383070BD606C08F01A
:1017100025FF09F027FBE0E7AC09002008B5094BDD
:1017200093F83820022A04D040F257312720FFF7DF
:1017300069F8DA7A42F00102DA72BDE80840FFF790
:1017400029BF00BFAC09002010B590F86A1086B020
:10175000D1B9C2880B4605910021CDE903110C498E
:1017600091F85840029400F190040194C96A91F8EC
:10177000A810003918BF0121009100F1800102205A
:1017800009F086F906B010BDD0E91E23E3E700BFDB
:10179000AC0900202DE9F041274C06460F4694F88D
:1017A0003830012B5FFA83F804D040F60C11272063
:1017B000FFF728F8E56A2B7953B10021042029713D
:1017C000FFF7DAFEE36A93F8A8300BB185F80580DD
:1017D00094F860308BB92B7A052B0ED11749022073
:1017E000FFF7CAFEE36A93F8A83033B1E36E1B78C3
:1017F0009A1E5342534184F839301EB1BDE8F0417E
:10180000FFF7C8BE002FF9D031463046FFF7FCFE87
:101810000028F3D12B7DE46A13B12846FFF794FF2B
:1018200094F821210120B4F8E21010F0AAFA002067
:10183000BDE8F041FFF72EBFAC090020180A0020D8
:101840007FB590F86A10D1B9C2880B460591002186
:10185000CDE90311FB21029100F1900101910949A9
:10186000C96A91F8A810B1FA81F14909009100F113
:101870008001042009F00CF907B05DF804FBD0E901
:101880001C23E3E7AC0900201E4A10B5546E4178D2
:101890002378C90003F0F30301F008010B438178BA
:1018A000890001F004010B43C178090103F0EC0346
:1018B00001F010010B43017801F003010B43237089
:1018C000B2F8703063700223516EA2F86830047968
:1018D0000B786001012C23F0200300F0200043EA84
:1018E00000030B700CD1D36A93F8BA2093F8BB3085
:1018F000032A03F01F0308BF002243EA82138B7000
:1019000010BD00BFAC090020F7B5184C0646656F46
:101910000DB1E36C23B940F6C4012720FEF772FF36
:10192000B4F8503001F003012F466B702B7823F090
:1019300003030B4307F8033B3846B4F85020E16C2F
:101940000BF0A6FB0DF1020201A9A06F6564E7642C
:101950000CF012F801980BF0FDFF0122B4F85010C2
:101960003060A06F0BF0A1FF03B0F0BDAC09002008
:101970002DE9F04FAC4C87B0D4F82C8098F82011AA
:1019800058B998F8142094F8583003EB8203FF2BD1
:1019900003D198F821318B4202D0FF2008F04AFB96
:1019A000002304AA02A9A14804938DF8143084F8F6
:1019B000603001AB0CF06DFF0746002845D0029A5D
:1019C000BDF8043022B940F213412720FEF71AFF78
:1019D0006266A4F8703003B1D31CE366012384F877
:1019E00060309DF8133004A8003B18BF012384F831
:1019F000403098F81330002B00F01C81B4F87030A0
:101A0000002B00F01781FFF73FFFE06D08F0A6FD07
:101A10009DF81420E16D003A606E18BF012208F0B5
:101A20003DFF18B9616EE06D09F0ACF8B8F8E2005E
:101A300008F0C0FA012008F033FE012384F8883052
:101A400084F8383007B0BDE8F08FE66A8DF80300FF
:101A5000337AADF80600062B00F2CA80DFE803F007
:101A600004CBA1A1C8B8B80094F87F300DF10601ED
:101A700003A8A6F81031ADF8063003F04FFF38B1D7
:101A8000039D2DB1012384F88030052333729CE03F
:101A9000E36A93F85130002B6BD10DF103020DF185
:101AA0000601D4F884000BF067FE0546002860D0DC
:101AB0009DF80370FFB10146D4F884000BF046FF97
:101AC0000BF048FFD0F800B0D0F804A081465BEAE4
:101AD0000A0348D1002389F8003089F8013089F8D9
:101AE000023089F8033089F8043089F8053089F824
:101AF000063089F80730BDF80630002B40D10123AD
:101B000033720123002784F88030BDF80630656603
:101B1000A4F8703003B1EB1CE366727A357A8DF865
:101B20001120022DB27A8DF8122004D0053D012D2E
:101B30008CBF012503258DF81050002F5ED00020AA
:101B40009DF810308DF81300032B6BD1E36E1B78DA
:101B50001B2B67D1012106F1BA0008F0B3FA01236B
:101B60008DF814303DE710F04FFA83457AEB010110
:101B7000B0D2002301222E4DADF806303272C6E7F6
:101B80009DF803301BB92B80AB700323B8E72B788B
:101B900003F00303012BF8D0022333720023B37543
:101BA000AFE7B6F810310DF103020DF10601D4F8DC
:101BB0008400ADF806300BF0DFFD054610B940F2A9
:101BC000C35102E7012384F88030BDF806309EE758
:101BD0000DF1060103A803F0A1FE08B1039D15B99C
:101BE00040F2D251F1E6012384F8803006234DE71C
:101BF00040F2DC51E9E60E4D002388E7032D02D1C7
:101C00001B78022B9BD0D4F884000BF00DFE38B962
:101C1000032D94D003F09EFE80F00100C0B28FE748
:101C200001208DE700239BE7AC090020D8090020A4
:101C3000280A0020FFF728FE606E08F08FFC09F0EC
:101C400091F89DF81410606E003918BF012110F052
:101C5000A4F8EBE62DE9F04FB04C87B000278046A2
:101C600094F83830E56A022B019105F1A80ACDE914
:101C7000027704D040F6AD112720FEF7C3FD616C5A
:101C800003200B784A780144A4F84800E16403EA91
:101C90000001A4F850208DF81010C3F3C0018DF896
:101CA0001110C3F380018DF81210C3F30011C3F3B8
:101CB00040138DF813108DF81430B8F1000F00F0B8
:101CC0000C8104A904F12C000CF0E5FD064630B9A6
:101CD000B4F8501009B3A06F0BF0C7FD0746238D71
:101CE0009DF8121043F40073676723856B7A013304
:101CF000DAB203F0010399424AD12B7A33B3032BB2
:101D00006A720CD8012B21D002A9D4F884000BF000
:101D100055FDA0B940F2D471AEE70746DFE7053BB9
:101D2000012B02D940F2B371A6E703F005FE10B90A
:101D300040F2DE71A0E700210820FFF71DFCD5E985
:101D40001C32013342F10002C5E91C320021E36A72
:101D5000297293F8A8302BB16B791BB110206971EF
:101D6000FFF70AFC238D4FF0000B43F4006323853B
:101D70002B7DDBB1B4F85030C3B109F011F8032862
:101D8000FBD0022806D1FFF705FC07B0BDE8F08FB5
:101D9000C346EDE750B9AB7A9DF8112003F001037B
:101DA0009A4203D1012384F83130ECE7B4F8507043
:101DB000E6B19DF81330591E4B424B4184F8413037
:101DC000002F40F0B7800027B946019B002B00F0A0
:101DD000B88008F09BFCB9F1000F00F01E819DF85F
:101DE000101003A8FFF790FD0127C9E0AB7A9DF81A
:101DF000112003F001039A4223D19DF810307FB3E4
:101E00005A1E012A2CD8238D95F8149043F4805340
:101E1000238508F0E5F8032894F8893007D1B9F153
:101E2000000F0CBF1F221B22934228BF1346B4F899
:101E300050209A4208D994F8303043F0100384F8C7
:101E400030304FF000091EE0636F002BF9D094F89A
:101E50008A301BB12020FFF797FBF2E79DF8103086
:101E6000AA7A032B02F10102AA722CD05A1E012A6F
:101E70001DD8002FE5D0C146D5E91E32013342F10D
:101E80000002C5E91E32626F9DF81310002A56D178
:101E9000B4F85020B2FA82F25209012914BF00228C
:101EA00002F001023746002684F841208DE7002F1A
:101EB000C7D0002BC5D1D5E91E32013342F1000253
:101EC000C5E91E32BDE7238D0120154943F4805337
:101ED00028712385FFF750FBEDE72B7D0BB108F050
:101EE00079FF94F88B30013384F88B30238D43F4E1
:101EF0008063238595F82131033B012B12D808F02C
:101F00006FF8032812D1B4F850604FF000091B2E6F
:101F1000CB4694BF00260126B5E700BFAC090020E0
:101F2000F809002004F0ECF90028E8D10026B146B9
:101F3000B346A8E7238D43F48053238543E701226A
:101F4000ABE794F88B100120FFF75EFB00287FF4CD
:101F500040AFEA7C12B12846FFF772FC002095F8EA
:101F60002021B5F8E0100FF00CFF0020FFF700FD76
:101F7000B9F1000F5AD09DF8101003A8FFF7C4FC68
:101F8000238D5A0606D44020FFF7FEFA238D43F036
:101F900040032385BBF1000F10D0EB884BB9E36AF7
:101FA00093F8A8302BB1B4F80530B4F807201343E8
:101FB00004D0B4F809300133A4F80930B8F1000FA7
:101FC0003CD0B4F805300133A4F80530002384F880
:101FD0008B301D4804F09EFE029830B10BF0BAFC25
:101FE00000220272514604F053F9039B33B10022E0
:101FF0001A720C225146039804F018F9002F7FF44E
:10200000C2AE238D1B063FF5C0AE8020FFF7BCFAA1
:10201000238D43F080032385B7E6002E3FF4E4AE22
:102020000A49A1F120000CF038FCDDE6002EA7D013
:102030000649A1F120000CF030FCA1E7B4F807300C
:102040000133A4F80730C4E7D8090020F8090020BC
:10205000064B10B593F8382002F0FF0422B91C7625
:1020600005F002F8204610BD0C24FBE7AC09002067
:10207000094B0A4A10B51A60FFF7EAFF20B14FF486
:10208000B1712720FEF7BEFB054C03F02FFA606507
:1020900003F030FAE06510BDE01500209822000042
:1020A000AC090020F8B5794C054694F8386006F084
:1020B000FF0016B909B102B123B94FF420712720EE
:1020C000FEF7A0FB63639DF81830616284F88A30E4
:1020D000E26384F8300084F88B0084F8310084F8DF
:1020E00088006084208584F8400084F8410084F8EA
:1020F000800084F839006066E066A4F870006064CF
:10210000E064A4F85000E56207F0FEFF08F02AFE44
:1021100095F9280108F05CF8D5F8D460D5F8CC0022
:1021200008F05CF8304608F0FDF995F8250008F055
:102130005FF8B5F8E030622B03D9B5F8E230622BD6
:1021400001D807F03DFFE36A93F8A860002E40F045
:1021500085800EF07AFE95F820214D4B4FF47A7170
:1021600053F8223003F5FA73B3FBF1F35233191825
:10217000304608F04BF8474B186808F0D9F9D5F805
:10218000C030C4F88430D5F8C430A367AB7B243B9F
:10219000072B6BD9EB7B243B072B67D9B5F8F230C3
:1021A000B5F8F80095F82011984228BF1846042980
:1021B00008BF03210DF0C8FC034695F8F4009842CF
:1021C00028BF184695F8F03080B2984200D3C3B2C9
:1021D00095F8211105F1E80084F87F300EF017F929
:1021E00095F821112F7D0329B5F8FC6008BF042163
:1021F0000DF0AAFC0FB9043080B2864228BF064613
:10220000F6B284F8896004F07BF828B104F07EF817
:10221000864238BF0646F6B284F858600CF040FBA0
:10222000E36A93F8A8301BBBEB7C13B12846FFF799
:1022300007FB0120FFF79CFB002323606360A36082
:10224000EB886380B5F8AA30238095F82530237198
:10225000D5F824310BB101221A60F8BD0EF0F5FD5E
:1022600095F8212100F17101012082E71B23AFE7DE
:102270002B7D13B12846FFF767FA0120FFF70AFA12
:10228000E36AD3F8F00108F09BF9D5E7AC09002028
:1022900010840200E01500201D170000551C0000EE
:1022A00095170000F51500000D4B0321186830B597
:1022B0000D4690F8A52090F849400132B2FBF5F3A5
:1022C00003EB4303D31ADAB244FA03F3DB0703D474
:1022D000013911F0FF01F0D180F8A52030BD00BF19
:1022E000380A0020014B18680BF023BD380A002083
:1022F00008B507F08BF8014B187008BD700000207E
:10230000054B10B41C68827C836804F1420194F888
:10231000410010BC0DF06ABB380A0020024B18685F
:102320006C3001F0DFBA00BF380A002038B50F4C1E
:10233000FFF7F4FF656801F08FFA6368286018689A
:1023400020B940F2F5413220FEF75CFA0BF0ADFE09
:1023500010B940F2F741F6E708F000F9002008F064
:1023600061F9636804221A7138BD00BF380A002081
:1023700038B5194D04466B681B79022B04D940F619
:10238000FC013220FEF73EFA2B68027C83F8A42081
:102390001A44C168996692F87C2183F878214268D2
:1023A000C3F88820037A022B0ED007F0ADFE08F0A8
:1023B0005DF907F001FA094808F0BAF8084808F092
:1023C000B1F8084807F00AFF637C23B12B685B6E05
:1023D0000BB101221A6038BD380A00201833000002
:1023E00055555500D6BE898E2DE9F341494D002340
:1023F00007460E462C686372236DB3F8AA2093F843
:102400002911D3F8C80062810DF0F0FB2B682084FD
:102410001A6DB2F8D010B2F8D22059849A844FF4D1
:102420007F42DA844FF6FF721A8517B301213046D6
:102430000DF0B2FD33780146D8092C6894F8483085
:1024400004F11402FBB10BF0B7FBE0B10B68636160
:102450008B88287B938004F10E0208284BD004F16E
:102460000D0103F0E7FB88B941F213413220FEF77A
:10247000C9F96946A8680DF011FDAB68694618787E
:10248000C0F38010D9E700236361E2E72C68637B27
:1024900004F11A0843F0020363734FB3002130467E
:1024A0000DF07AFD0368C4F81A308388A8F8043068
:1024B0002B68186D93F95810A83003F093FC286826
:1024C00015490DF0F4FE28681449036D2A30B3F85D
:1024D000AA20A0F80920DB7DC3720DF0F1FE0221D5
:1024E000286801F0F3FCFFF719FF02B0BDE8F081A6
:1024F00004F17800D6E794F87E306373A36FC4F8D4
:102500000E30B4F87C3093800023C4F81A30E38393
:10251000CEE700BF380A002015DC0000D1DB000048
:1025200008B5074B93F900207F2A04D140F29B3174
:102530003220FEF767F902707F221A7008BD00BFD3
:102540007000002010B504788EB004F00F0404A9C8
:1025500022460BF0D1FDFFF7CBFE042C33D11B4CF0
:10256000059A2368107893F8781088422BD1507818
:1025700093F87910884226D1907893F87A1088429F
:1025800021D1D07893F87B1088421CD1107993F830
:102590007C10884217D1517993F87D20914212D155
:1025A0009DF8212093F87E309A420CD10DF10F0056
:1025B000FFF7B6FF9DF90F3004A90093237C227B1F
:1025C00060680BF084FD03200EB010BD380A0020B7
:1025D0000D4A536810B51979022904D841F2BC415B
:1025E0003220FEF70FF91979082902D941F2BD41CD
:1025F000F6E71B79526903F180439268033BBDE81B
:10260000104052F823301847380A002010B5054C06
:10261000637B2BB108F02AF807F0CEF80023637330
:1026200010BD00BF380A002010B5054C23792BB12E
:1026300008F01CF807F0C0F80023237110BD00BF9C
:102640007011002010B5094CFFF7E0FF012263680C
:102650001A7100232268A2F8793182F87B31FFF7E2
:102660005DFE2068BDE810400CF0D8B8380A0020A4
:1026700008B5FFF7CBFF044B00209968FFF7B4FEC5
:10268000BDE80840FFF72EBE380A0020062938B5FD
:102690001D469DF8104019D908291BD802B18CB1EC
:1026A00043689BB912B94378DB0615D40B4B5B68C2
:1026B00018680BF01BFD00B134B92DB903F090FA86
:1026C00000F00104204638BD0120F9E79DF81440D0
:1026D0002C43F7E70024F5E70124F3E7380A00204C
:1026E00038B50D1E04460CBF05200320104403F02E
:1026F000E7FA094B587370B15DB9033C012C8CBFEC
:102700005024552407F032F82046BDE8384007F041
:10271000A1BF4024F6E738BD380A0020F8B53D4C8B
:10272000FFF7FCFD656801F097F86368286018689A
:1027300020B940F252413220FEF764F80BF0B5FCAC
:10274000054610B940F25441F5E7236893F8A630E6
:102750006BB123681A6D93F8A710C3F8102193F892
:1027600054200A4383F85420002283F8A6202068CE
:1027700090F8A430034493F87C71636880F8787112
:102780001A7952B11B79012B07D000210BF08FFE73
:1027900018B9BDE8F840FFF755BF23681E4A93F803
:1027A000A530D05C07F024FD236893F8A4201344DF
:1027B00093F87C61022E2BD004D8012E05D040F274
:1027C000F771B8E7F31E012BF9D801F03FF8314655
:1027D00007F030FC284607F0C1FE3146012007F023
:1027E00029FD7B1E2A46384659425941FFF778FF9A
:1027F000626808210023517121732168D38013720C
:10280000E37381F89530A373237403231371F8BD28
:102810000D20DCE7380A002027810200124A10B59B
:10282000536800B931B9184601F0AEF8BDE8104060
:10283000FFF708BF1979082904D841F28C413220EA
:10284000FDF7E0FF19790C2902D941F28D41F6E735
:102850001B79526903F180435268093BBDE810407F
:1028600052F82330184700BF380A0020054B1A6879
:1028700092F85420920703D05B68186801F016B8EC
:1028800098687047380A002070B5304D06466B686E
:102890001A79032A0BD01A79042A08D0FFF7E6FF29
:1028A000044640B941F2C4313220FDF7ABFF18684D
:1028B0000BF0FBFBF4E72B6893F8543013B941F2AB
:1028C000CA31F1E776B10DF0DFFB30B16B681A79F0
:1028D000022A0ED841F24A31E6E720460DF0EFFB1E
:1028E0000028F3D16B681A79022A17D841F2AA316D
:1028F000DAE71A79082A02D941F24B31D4E71B7979
:1029000020466A6903F180431269033B52F8233081
:1029100098470C2812D941F2DD31C5E71A79082A07
:1029200002D941F2AB31BFE71B796A6903F18043F9
:102930005269033B52F823309847EAE76B69DB683A
:10294000BDE8704053F82030184700BF380A002017
:1029500007292DE9F043064687B00F4690464568A3
:10296000634C23D11DBB002A49D1D4E9001091F852
:10297000543013F0030218BF012213F004038271D4
:1029800003D033785A1E53425341C37191F89430A7
:102990004BB12368D3F8900050300EF01EFA10B9F6
:1029A000636801221A7207B0BDE8F0833DB329467F
:1029B000707C0BF001F9072F814661D1637B63B115
:1029C00058B1B8F1000F52D065680DF044F8636853
:1029D00068715B7923730123A373636858790828AE
:1029E00055D17168707C0EF0EEF962680546716829
:1029F0000532707C03F0FAF86368002859D0236828
:102A000093F8540010F003000AD093F84A30394686
:102A1000019530466268927900924246FFF736FE91
:102A200062682368907193F8540010F0040009D094
:102A300093F84B30394601953046D27900924246A0
:102A4000FFF724FE2B4B65681B68E8711BB14146FC
:102A500030469847287272686AB3717C236883F89D
:102A60007E10116899679288A3F87C2023E0236880
:102A700093F878110129A7D1284603F0F3F8607381
:102A8000637B002BA9D0B9F1000FA6D09CE704AA64
:102A90000DF10F0103F0CEF820B940F6A531322038
:102AA000FDF7B0FE04A99DF80F000EF08CF9054665
:102AB000A5E7D88018726268137AB3B9D388003B4F
:102AC00018BF0123B06800283FF46DAF072F7FF4D3
:102AD0006AAF517908293FF466AF002B3FF463AF2A
:102AE00003F0DEF80123E3735DE70123EAE700BFAB
:102AF000380A0020E41500202DE9F04F044689B083
:102B0000062900F2C580DFE811F06000E700070049
:102B1000C300C300C30026006E4D07F013FC2F68EE
:102B200097F85430980714D06E68B3798BB10DF1D3
:102B30001F00FFF7F5FC9DF91F300222214602938A
:102B400030462B7B0193FF23009307F142030BF0E8
:102B5000AEFA03201FE05F4D6E68B379002B00F0E2
:102B600097802F6897F85420910717D50DF11F0013
:102B7000FFF7D6FC9DF91F3030460622029321460E
:102B80002B7B0193FF23009307F142030BF08FFA95
:102B9000002309202B7409B0BDE8F08FD30777D547
:102BA000570701D507F0CEFB0DF11F00FFF7B8FC6A
:102BB0009DF91F202B6802922A7B42330192FF224B
:102BC0000092062221466868C1E7424D2B6893F8BF
:102BD0005420560737D56968CA79002A33D042682D
:102BE00093F85B001678864255D1567893F85C00CE
:102BF000864250D1967893F85D0086424BD1D678C4
:102C000093F85E00864246D1167993F85F008642BB
:102C100041D1507993F8602090423CD1627C93F886
:102C20005A00101A4242424193F8560001284ED0F1
:102C3000002A4CD193F84C30082B02D04A799A42A2
:102C400045D007F07FFB6E68B379002B3DD02F682D
:102C500097F85420930720D50DF11F00FFF760FC73
:102C60009DF91F3030460022029321462B7B0193B1
:102C7000FF23009307F142030BF019FA0123092007
:102C80002B746B68DA79002A85D19B79002B82D16D
:102C900007F058FB5DE70022C6E7D60715D55007B9
:102CA00001D507F04FFB0DF11F00FFF739FC9DF92F
:102CB0001F202B68214602922A7B42330192FF2279
:102CC0000092002268680BF0F2F90320D9E70A208D
:102CD000D7E700BF380A0020644D81682A68807CED
:102CE0000AF06AFF92F854306E68074692F84890EE
:102CF000590796F806A096F807B089F0010940F147
:102D00008E8092F84B30002B00F0898092F84C6056
:102D1000082E00F08680304602F046FF49EA0000A7
:102D20005FFA80F9002F7ED03046A16803F00EF8DC
:102D300006462B6893F8542093F84180520749D5F2
:102D4000626893F85B10107888426ED1507893F8DF
:102D50005C10884269D1907893F85D10884264D104
:102D6000D07893F85E1088425FD1107993F85F10A5
:102D700088425AD1517993F86020914255D1627CB2
:102D800093F85A10501A4242424169684979082919
:102D90004DD093F84C30591A4B424B41002E48D13C
:102DA000B9F1000F47D02046CDE90423FFF7A8FA78
:102DB000DDE90423BBF1000F0AD0296891F8561011
:102DC00001294ED021B9002A4BD108B1002B4AD19C
:102DD00007F0B8FA2B6893F854309B073FF4B9AE6C
:102DE00007F0B0FABAF1000F3FF4B3AE2046FFF798
:102DF00087FAD5F8009000B9FEB10DF11F0048EA3E
:102E00004608FFF78DFB9DF91F3002932B7B019342
:102E10005FFA88F30093012209F14203D2E6767942
:102E200076E7002685E73E4683E70022ADE70023EC
:102E3000B4E70120BEE73046BCE799F85530023BC5
:102E4000012B3FF686AE002F3FF483AE0DF11F003D
:102E5000FFF766FB9DF91F3002932B7B0193FE2346
:102E6000D8E70028B4D00A2095E600BF380A002031
:102E700030B58BB00546FFF73BFA114B1B6893F852
:102E8000543013F0060F04D00122962100200EF0DA
:102E900078FF2C786946284604F00F0422460BF090
:102EA0002BF9002221466846FFF752FD214668466D
:102EB000FFF722FE0446FFF7A9FB20460BB030BD0A
:102EC000380A002038B5154D2C6894F84830F3B115
:102ED0006FF00043D4E920129A4208BFB1F1FF3FDE
:102EE00015D00EF0E7FFD4E92023904299410ED38C
:102EF0002B6893F848305BB92D6802F095FE0446C4
:102F00000EF0D8FF064BE4FB0301C5E9200138BDF4
:102F1000012002F0E7FE0028F9D0EDE7380A002092
:102F200040420F0010B50446FFF722FA237A032B24
:102F300004D140F62E113220FDF764FC0BB9FFF7E7
:102F4000B3F9064B1B6893F9580007F041F9FFF7F6
:102F5000E5FBBDE81040FFF7B5BF00BF380A002011
:102F60002DE9F8436A4D002307468946A868D5F83D
:102F700000800370437007F00DFB064630B9002651
:102F8000032003F073F93046BDE8F883AC68032FE3
:102F9000237833D123F00F0343F0030323700C2372
:102FA0006370D8F87830A868C0F80930B8F87C3079
:102FB000A0F80D3098F87E100CF080FF0021A86872
:102FC0000EF0EBFE2B6893F8482003F1420993F8CA
:102FD0004180002A77D14C4623684146A868C0F852
:102FE0000330A388A0F807300CF05FFF494BD3F8FB
:102FF0000C32002B7CD007F0A5F9C0E723F02F039B
:10300000222243EA4913627043F0050323702B68C0
:103010001A6DD2F8CC20C4F80F201A6DD2F8D43033
:10302000190AE3741B0C2175637592F82A11B2F822
:10303000DC30002941D06420B3FBF0F3A375D2F853
:10304000D83000293CD06421B3FBF1F3E375C3F31E
:103050000723237692F82911D2F8C8000CF0C6FD98
:1030600029686076000AA0760B6DAC68B3F8D020B2
:10307000E276120A2277B3F8D2206277120AA27798
:103080009A69C4F81F201B7F94F8242084F8233009
:103090000B6D22F01F0293F8233003F01F0313433C
:1030A00084F8243002F0B2FA94F8243003F01F03BD
:1030B00043EA401384F8243073E740F2E240BBE770
:1030C00040F2E241C0E793F8542052070DD593F83F
:1030D0004B2052B193F84C0002F072FE04460028D7
:1030E0003FF479AF4FF0010876E76B685879F3E762
:1030F000052F7FF448AF2B6821681A6DC2F8B41011
:10310000A188A2F8B8101B6D83F8B3803BE700BF1D
:10311000380A002000A0085010B500210320FFF756
:103120001FFF18B9BDE81040FFF78CBA074C032108
:1031300020680BF0BCF90028F4D00121084607F004
:10314000C9FA636809221A7110BD00BF380A00204D
:1031500070B5164C636818680AF0A7FF064620B9D8
:1031600040F261513220FDF74DFB63680A220021D5
:1031700020681A7100F0AAFE236805201B6DDD7D12
:103180003378C3F340131D402946FFF7E9FE18B911
:10319000BDE87040FFF756BA042120680BF087F9AC
:1031A0000028F5D023681B6DDD7570BD380A00203E
:1031B000036D10B5044623B940F261313220FDF7AA
:1031C00021FB022207494272B3F8AA304381FF2350
:1031D00080F827304FF6FF7303850DF068F8002361
:1031E000236510BD15DC0000F8B5194F064602F046
:1031F0007DF90121B8600020FDF704FF054620B9E4
:1032000040F685013220FDF7FDFA4FF4C07200212F
:103210000FF0CAF801210846FDF7F4FE044620B17C
:103220004FF4C07200210FF0BFF87B6913B940F66C
:103230008F01E7E730460AF0B3FD28460BF028F986
:1032400024B12046BDE8F8400BF022B9F8BD00BF1C
:10325000380A0020014B024A5A617047380A0020A0
:103260007C330000036810B523B940F67711322093
:10327000FDF7C8FA044A13606C3353605369BDE824
:1032800010401B68184700BF380A002008B5044BDF
:10329000586800F079FBBDE80840FFF7D3B900BFDC
:1032A000380A002038B5044690F8400000F0FD00D0
:1032B00004F14201003818BF012084F8410002F0F7
:1032C0006BFB94F84030023BDBB2012B94BF01232F
:1032D000002384F8483015D802F0A6FC05460EF00D
:1032E000E9FD094BE5FB030194F84830C4E92001EE
:1032F00043B1002002F0F6FC20B940F62121322033
:10330000FDF780FA38BD00BF40420F00014936305A
:103310000CF0D0BFF3DB0000D125000089280000AD
:103320001D280000CDDD00002D23000071260000C7
:1033300055DD000043DD0000E522000045260000C9
:10334000E7DB00001D270000E7DB0000E7DB0000F3
:10335000E7DB0000E7DB0000E7DB000019310000DD
:1033600051310000E7DB0000E7DB0000712E0000B8
:103370004525000079DD00006BDD0000252F0000F1
:103380002833000030330000383300006C33000075
:103390007433000008B5431EDBB231B1032B08D9EA
:1033A0004FF4EA713320FDF72DFA032B02D8034ABC
:1033B000D05C08BD4FF43F710620F4E72A8102007B
:1033C00008B50AF0A8FB054AD2E84F3F0133DBB24B
:1033D000C2E8413F0029F7D108BD00BF500A0020D4
:1033E000024BA0F108015868FFF7EABF500A00201D
:1033F0002DE9F84F1E463C4B0D46934600211A78A6
:1034000004689DF828709DF82C809DF930909DF8F7
:1034100034A0016032B9A4F108015868BDE8F84F42
:10342000FFF7CEBF1A2204F109000EF0BDFF012301
:10343000A372BBF1060F4FD8DFE80BF00433394E0F
:10344000434E3D00E37A23F0130343F01303E3728A
:10345000012304F10E0241462846237547F6FF7307
:1034600084F81890E38204F10D030AF0F2FDE37A88
:103470005B0736D5BA1E04F11C03012A8BBFAA686C
:1034800032681168E2618ABFE161B28892889A80ED
:10349000E7760023237215492046BDE8F84F0CF06B
:1034A00009BFE37A23F0150343F01503CFE7E37A6E
:1034B00043F01003CBE7E37A23F0120343F0120347
:1034C000C5E7E27A4AF01A0A22F01B020AF01B0A48
:1034D00042EA0A02E272BBE740F246413320FDF7BE
:1034E00091F9FF23E376D4E7500A0020F13400007D
:1034F0002DE9F04F05468DB00C4600200121FDF767
:10350000BDFD064620B94FF4F1713320FDF77AF97D
:10351000A8300AF0BFFF18B196F85430042B2ED112
:1035200030460AF032FC50BBB84C04F1080604F1F6
:103530000C07AB6A93B92846FFF752FF4FF40073AC
:10354000ADF804309DF80430002063F307009DF8C7
:10355000053063F30F200DB0BDE8F08FA96A0B684A
:10356000B142AB624FF000030B704B708B70CB70AD
:10357000DFD0B942DDD06068FFF722FFD9E7AF6A3C
:1035800037B3A34B9F4226D0043B9F4223D007F181
:103590003B0A4FF0000801F0B7FF8146B8F1000F79
:1035A00040F0058102A950460AF039FEB9F1000F3A
:1035B00016D004F10D00EE7A16F0100613D09DF827
:1035C00018600599324609F063FD4FF0010828E0C4
:1035D00005F1330ADDE74FF001084FF0000ADAE7A2
:1035E00004F11C00E7E7002FEFD09DF80830022B14
:1035F000EBD0014695F83230E52250460CF0DBFC6A
:1036000095F8323006460344504685F832300CF0C7
:10361000CAFC95F83280A8EB0000D0F1000848EB16
:103620000008B9F1000F00F0C680EB7AD90604D487
:103630005B216AE7C8460026F7E713F0040FAA7A71
:1036400095F80DC04FF03E0304F1060105F10E00A0
:1036500033D095F81BE0BEF1FE0F2ED123700B2363
:10366000E270A370130184F805C002336370012374
:103670002371D5F80E30C4F8063083888B8084F827
:103680000CE0EB69C4F80D302B8CA4F811302B7EC4
:10369000E3745E4E06F1080A57453BD123790222B6
:1036A00005F1280062F3461323710AF0EEFC0227AD
:1036B0002846FFF795FE04263FE023700223E270C0
:1036C000A37006F10A0384F805C053430233637004
:1036D000D5F80E30C4F8063083888B8026732644D4
:1036E0002B7E7373EA7A12F0080102D0042323714F
:1036F000CFE702F00303032B01D12171C9E7520781
:1037000001D50123F3E7022BF1D00BB90323EEE738
:10371000A421FAE606F10C094F4515D105F1280060
:103720000AF0B3FC6A7D6AB92379042662F3461372
:10373000237102272846FFF753FE8DF804608DF8A9
:103740000570FFE60026F4E747B3B8F1000F20D07C
:1037500005F1280840460AF098FC39467068FFF7E2
:103760002FFEAB6A0022534585F8322096D04B4598
:1037700005D12379404662F34613237195E79DF8FE
:103780000830022B05D1237923F068030127237128
:1037900091E72379012262F34613F7E7EE7A16F0F8
:1037A0001006CAD0237967F3461323717FE70028F8
:1037B0007FF440AF06468E2305F12301237006F106
:1037C0001803AA7A5343E270221D0233637005F195
:1037D0000B0353F8040B8B4242F8040BF9D195F814
:1037E00014A095F815B001F0CDFEC1F34029504664
:1037F0004946FFF7CFFD6073BBF1000F04D0494687
:103800005846FFF7C7FDA073E67642E7500A00204E
:103810005C0A0020343270B5054692B20C461E4652
:103820000AF041F925B1034A5560147456741470B6
:1038300070BD00BF500A002010B5034C60680AF04C
:1038400054F9237C237010BD500A0020014B587C92
:10385000704700BF500A002038B5134D68680AF061
:103860004AF9044620B940F257113320FCF7CAFF49
:10387000D5E84F3F013BDBB2C5E8413F0029F7D116
:1038800004F10803342218460EF08EFD47F6FF724D
:103890000121E462E283FF22627584F82320E27C46
:1038A00061F34612E27438BD500A002038B5436A0D
:1038B000044693B90A4D68680AF01DF9606220B9A0
:1038C0004FF4B8713320FCF79DFFD5E84F3F013B23
:1038D000DBB2C5E8423F002AF7D1606A3B3038BD11
:1038E000500A0020036810B504468BB19A6A22B1D1
:1038F00040F28D113320FCF785FF596A41B101F187
:1039000008008342074B08BF22605868FFF758FD44
:10391000216831B1034B08395868FFF751FD002386
:10392000236010BD500A002038B5046805469CB1DC
:10393000134920460CF0C7FC124B00221A735A732D
:103940009A73DA73EFF3108272B6A16A0C3399B9E5
:10395000A362E36202B962B62C68616A49B101F1FF
:1039600008039C4203D0074B5868FFF729FD00234A
:10397000636200232B6038BDE16A0B60E9E700BF9A
:10398000F1340000500A002070B50668044656B3B2
:10399000716A154D41B101F108039E4202D0686879
:1039A000FFF70EFD0023736221684E7DB6B1002340
:1039B0002B726B72AB72EB72EFF3108272B6886A85
:1039C0000A4B40B98B62CB6202B962B62046BDE8B1
:1039D0007040FFF7A9BFC86A0360F4E70839686858
:1039E000FFF7EEFC266070BD500A0020580A002048
:1039F00010B504460246064900F58C700EF081FBB6
:103A0000224604F5A4700249BDE810400EF079BBCF
:103A10009DE500007FB590F8142102F0FF0322B16C
:103A200040F2A5212120FCF7EDFE0C78039314F061
:103A3000010218BF8D68CDE9013318BF019514F05C
:103A4000040529D004ADCE6805EB820545F80C6C61
:103A5000154680F845514A68124DC0F8C820C0F894
:103A6000F82040F27122A0F8FC20032215F8011B77
:103A70000C420BD004A900EB830601EB8301013358
:103A800051F80C1CDBB21639C6F8CC10013A12F012
:103A9000FF02EBD104B070BD002ADAD140F2BE21A2
:103AA000C0E700BF3A8102002DE9F04F04468FB015
:103AB0009B469246BDF8607003910EF0FBF980467C
:103AC000204604910AF0F8FBD4F8CC900546BBF1EF
:103AD000000F00F0D781BAF1000F00F0E4808346B8
:103AE00018F5FA630593049B43F10003069303F072
:103AF00009FA064604F1E8003146079003F0D4F9CC
:103B0000D4F8101111B107980AF018FDBDB1D4F81E
:103B1000F050BEB1B0682A46D6E90031C018059B06
:103B2000009341F10001069B01930DF065F9854278
:103B3000034608D240F24D312120FCF763FED4F851
:103B4000C850E6E73346059AD4F8C8009D18069A8F
:103B500042F10006002F00F0A180BFB242F2107CBB
:103B600029463246E7FB0C1200F2CF773B44B3FB09
:103B7000F0F34343EB1A66F10000C4E92A12C4E9EA
:103B80003A300027E319204693F87C110AF079FBBC
:103B9000D4F8A830D4F8AC105A1B0590069361EB0A
:103BA0000600012A70F100034FF00003C0F25981B2
:103BB0009145834100DB914604EB8707D7F8CC7031
:103BC0004F4528BF4F46C4F8DC70BAF1000F05D04E
:103BD000D4E93A23C4E92C56C4E93023059B204696
:103BE000039AC4F8D83004230791C4E92E565372BF
:103BF0002A4633460AF076FB039B059A18725A60F0
:103C0000BBF1000F00F038810123039A079913706C
:103C1000069B049AB3EB080361EB0202012B72F1DD
:103C200000004FF00000C0F21E81A74E9E4290415E
:103C300000DB1E46D4F81031D4F8C890002B40F0B9
:103C4000178107252046A9FB055A0AF035FB0028F5
:103C500000F00B81D4E92C32ED184AEB0203A845A1
:103C6000049A9A410FD2B5EB0805049A63EB02035C
:103C70006FF00102AA424FF000029A4102D3AE4215
:103C800028BF2E46B146039BC3F81090059B9F4268
:103C900034BF002001200FB0BDE8F08F4FF0FF319E
:103CA0006FF0004260E7002838D06FF00043D4E99D
:103CB0002A129A4208BFB1F1FF3F2AD094F844314A
:103CC0002046234493F87C110AF0DBFA18F198029D
:103CD000049B0546099008A843F100038DF820A035
:103CE000CDE90C2340F20243ADF828300EF00FFA74
:103CF00010B940F296411FE7D4E92A320C995B1AB9
:103D00000D9962EB01025B1B62F10002002AC0F216
:103D1000A2804546049E4FF0010B32E7D4E93A26D3
:103D2000D4F8C850A8EB0203AA18B3FBF5F305FBBF
:103D300003F346F100069B18A3EB080246F10006C8
:103D4000972A05D8ED1846F10006D346574619E7DD
:103D500094F87C1120460AF094FA0423D4F8B82091
:103D60008DF82930D4F8C850099020468DF820A04D
:103D7000D4E93A13521AB2FBF5F26A43521843F1EE
:103D80000003CDE90C230AF0ADFA29468DF828008E
:103D900008A80BF080FEDDE90C56D6E751F8042F99
:103DA000013302F1160CCC459FBF821A01379144B2
:103DB000FFB2DAB29645F1D8E319204693F87C11A8
:103DC0000AF05FFA484404EB8703D3F8CC3083420F
:103DD00009D3A3EB0909B9F1000F22DA40F24E41F1
:103DE000AAE6A94667E094F84511D4F8C820B9427C
:103DF0000FD901379542FFB208D204EB8703D3F8FD
:103E0000CC3003F1160299461546E4E74FF485617C
:103E100092E69542F7D352009542F4D340F24541E1
:103E20008AE6AD192046D4E92C234BF100060AF0AE
:103E3000FFF9D4F8C8304FF0000B5843D4E93A32B8
:103E40001B18204642F10002C4E93A322A463346A2
:103E50000AF0EEF996E64546049E4FF0010BD14676
:103E600074E79946A8E60646E4E6D4E93032F3E67C
:103E70004FF0FF352B46F2E6039B83F800B0C3E911
:103E8000045603E7BAF1000F7FF42AAED4F8C82035
:103E900008F19805D4E93A13A8EB0106B6FBF2F64F
:103EA00056437618A5EB060543F10003AA429B464C
:103EB00097D8A5EB0209002394F845E104F1C80165
:103EC0006FF015001F4674E70040420F01292DE9ED
:103ED000F347064605D9022900F099804FF40461A2
:103EE00050E001F00104D0E92CA706F07FF896F825
:103EF00078818146204641460BF047FE0546404604
:103F000006F0C4FC0246002C3FD0A8F10203DBB24D
:103F1000022B3AD8534901EB43031B8A15EB0905E1
:103F20002CBF0121002115EB0A0547EB01074E4983
:103F300051F8280000F2E73010444FF47A72B0FBD9
:103F4000F2F02D1A67F10007ED1847F100070CF0A9
:103F50007CFF5230D6F810812C1A67F10005D8F892
:103F6000C87002F0C9FF06F1E803834210D03A4658
:103F7000CDE90045D8E978010CF03EFF874211D227
:103F800040F261312120FCF73DFC4FF4FC73C5E7A2
:103F900098F8290130B13A46CDE90045D6E93A0111
:103FA0000CF02AFF314B1A68D6F81031824293F890
:103FB0002A110ED9D3F8C8603218C3F8D86089B96D
:103FC00041F66A018842A3F8DC1018D34FF4FA6175
:103FD000D8E751B16422B0FBF2F151430246401AD6
:103FE000C3F8D8104FF4FA71ECE740F2E242B0FBAC
:103FF000F2F151430246C3F8D810401AE0E7121913
:1040000045F10005C3E9782502B0BDE8F087D0F896
:10401000103113B940F2DB71B4E700255D7390F8FD
:10402000781183F8201183F82111FF2483F82241AD
:104030000339D0F81001012900F1E8008CBF0021FC
:1040400001210CF01EFAD6F810010DF0C9F8C6F8DF
:10405000105186F8164106F0D1F902B0BDE8F047DC
:1040600008F068BB2E81020010840200640A002060
:1040700008B50B4B30B101280DD040F6530121207B
:10408000FCF7C0FB18601A6841F669039A4206D92A
:1040900040F65C01F3E740F6C4121A60F3E708BD8E
:1040A000640A00200138C0B2032808B504D94FF4CF
:1040B0003F710620FCF7A6FB014B185C08BD00BF52
:1040C000448102000138C0B2032808B504D94FF476
:1040D0003F710620FCF796FB014B185C08BD00BF42
:1040E000618102000138C0B2032808B504D94FF439
:1040F0003F710620FCF786FB014B185C08BD00BF32
:10410000C48102000138C0B2032808B504D94FF4B5
:104110003F710620FCF776FB014B185C08BD00BF21
:10412000BD820200014B1868704700BF1C0B0020C5
:1041300008B5034610465A1E032A10D84A1E032A01
:104140000DD8084A012951700CBF00210A211071B5
:10415000937091721946FDF7ABF9002008BD6FF01E
:104160001500FBE7F6000020074A537A40B143F000
:104170000403002953720CBF0023072353717047B7
:1041800003F0FB03F5E700BFF600002040EA410022
:10419000014BD870704700BFF600002010B50446F0
:1041A0000AF084FB08B9002010BDE0430AF07EFB52
:1041B0000028F8D0E31683EAA4635A1E1A42F2D00C
:1041C000E3B25A1E13405A1E1342ECD0A0B20CF0B8
:1041D000CFFA0B28E7D820460CF0C6FA1828E2D808
:1041E000A3B2B3EB144F04D184EA142313F0FF1FDE
:1041F000D9D0044B6340581E1840003818BF012026
:10420000D2E700BFD6BE898EF0B5070C164BA7F5D6
:10421000AA4203EA9023543A012A20D927F4004005
:1042200042F6AA22801A18BF0120002216211F245C
:10423000164687EA060562EA0505013511D0DD0359
:1042400001394FEA5303ADB245EA56064FEAC43589
:104250004FEA5404ADB245EA5202EAD1F0BD002063
:10426000E3E70020FAE700BFE0FF3F0070B50D462E
:10427000BDF818400646BDF81410AC421046BDF813
:1042800010201BD8B5F5486F18D8844216D8B0F561
:10429000486F8CBF0024012496B91A4E367C96B123
:1042A0009CB96FF4506C05EB0C06062E04D86FF425
:1042B00050668619062E08D9204670BD0024EBE70B
:1042C00096F88160EBE7002CF6D0854217D803FB07
:1042D0000111B1F5FA7F12DCA2F10A0340F676442F
:1042E0009BB2A3420BD80AF0E8FB42F210734143A1
:1042F0005A43B2EB410F8CBF01240024DCE70024B9
:10430000DAE700BF280B0020304BF0B5B0F86C7036
:104310000C461146DA88B0F86A6085B097421D896C
:1043200028BF1746964228BF16461B2E2ED0B5F53D
:10433000A47F2DD040F6480301AA9D4228BF1D4608
:104340000AF0CFFBBDF80A30BB4228BF3B46E380F2
:10435000BDF80C30AB4228BF2B462381BDF8063098
:10436000B34228BF33466380BDF80830AB4228BF54
:104370002B46A380FF232370E3881B3B9BB2E02BDB
:1043800008D940F209513920FCF73CFA1B2FCED155
:1043900005B0F0BD63881B3B9BB2E02B02D940F215
:1043A0000B51F0E7238940F64812A3F5A4739BB2A2
:1043B000934202D940F20D51E5E7A388A3F5A47317
:1043C0009BB29342E4D940F20F51DCE7280B002066
:1043D000F7B5002304460E461746CDE9003368467C
:1043E000FCF786FE08B100201AE0009DA542F6D039
:1043F000304605F1AD030AF040FB394695F8AC2094
:104400000BF0F4FA0028EAD005F1B40395F8B320D4
:1044100004F1B40194F8B3000BF0E8FA0028DED000
:1044200003B0F0BD054A516A02F11D03127F11F875
:10443000030BC0F380100BF0D9BA00BF9810002016
:10444000012817D80D48824216D8012B0DD140F211
:1044500052739A4210D9A1F6C410094B98420BD856
:104460008A428CBF122000207047042BF3D140F603
:10447000C313EEE712207047302070478FFD7002A3
:10448000CBF3700210B504460A4809F0AFFD0A49A3
:104490002046FFF7BFFA204609F0D8FC38B1204685
:1044A000FEF700FF204609F09EFD002010BD1220FF
:1044B000FCE700BF600B0020680B00202DE9F04FE7
:1044C000994687B07F4B04460DF110087E4D186861
:1044D0000F461B791646049088F8043095F86A3028
:1044E00013B1404601F0C2FC394620460BF0C3FB35
:1044F000AB69C4F8E83096F84A2006EB4202B2F8FD
:104500002AA050460AF0D9FA01466FF45060002301
:104510008244BAF1060F7BD9908C4FF0961284F842
:104520002A31A4F8E430C4F8E02040F2E2420AF074
:10453000C4FA02F02DFD40F2E243014604F1A80A5C
:10454000A4F8F431C4F8C810C4F8F01150460CF0C7
:104550001DFE834601F016F88306A97B53BF1B237B
:104560006B88AA881A46A4F81231584BA4F8142173
:104570001B6884F8F010A4F8F2B01BB194F928116C
:10458000384698472B7C03A80394003B18BF0123AF
:1045900084F829310AF088F94D4B1B681BB14D494D
:1045A000B4F8AA0098470123A4F8DE304A4B1B68F0
:1045B0001BB14A49B4F8AA009847494B1B681BB184
:1045C0004849B4F8AA009847474B1B6813B1B4F8A0
:1045D000AA009847454B1B6813B1B4F8AA00984746
:1045E000AB8804F1C0006A88697803330332019113
:1045F0009BB2297892B2009104F1C401FCF7D8FD76
:10460000D4F8C03083B940F6F4713920FCF7FAF8D9
:104610004FF04D12A4F8E4300123C4F8E02084F8F0
:104620002A314FF47A7389E7D4F8C43013B940F6CD
:10463000F571EAE70AF001FAC4F8CC00B9F1000F0D
:1046400005D001F081FE20F07F40C4F8D40096F838
:104650004A302046E96906EB4306338EA4F8D03091
:10466000F38EA4F8D2300CF08EFD414604F1170011
:104670000BF071FB95F86A3013B9FF2384F83D32D3
:10468000EB6E23B1012204F5977150469847184903
:1046900050460BF030F801F057FE0C23B0FBF3F25C
:1046A00002FB1300C0B2431DDBB2082B9CBF0D30D0
:1046B000C3B2204684F823300BF00CFB07B0BDE8F2
:1046C000F08F00BFF5B00200280B0020F01500208D
:1046D000EC150020500B002000160020860B002057
:1046E000F4150020780B0020F8150020FC150020A0
:1046F000320B002010B503210020FCF7BFFC04465C
:1047000070B90321FCF77EFC044620B940F2253144
:104710003920FCF777F8034B93F970100CF085FC07
:10472000204610BD280B0020014B5888704700BF61
:10473000280B0020044BD87BC0F3400080F0010020
:1047400000F00100704700BF280B002038B50BF0C7
:104750004CF9002501F034FA214C00F03FFF0BF03A
:1047600087FD02F045FB01F0A1FB04F071FE012082
:1047700000F0C4FE1B4B1C4A29461D604FF01B1362
:10478000A4F86850A58184F83650E573C4E9002385
:104790004FF4A4731022A3604FF479432361134BA9
:1047A00058681B89A06304F14000A3870DF0FCFD4D
:1047B000012342F2107204F15E0084F84030637508
:1047C000C4E911220CF02BFE04F150000CF04DFE58
:1047D0000022002384F88050C4E91E2338BD00BFA6
:1047E000280B0020E815002003021B006181020055
:1047F000064B41F64C521B211A629973C3E90622FB
:1048000041F288325A62FFF7A1BF00BF280B002097
:10481000024B1B6803B118470C207047E8150020B5
:10482000014B93F970007047280B0020034B5A8806
:1048300002801B7883700020704700BF280B002087
:1048400073B5837806461A2B08D8042B04D9334A4B
:1048500022FA03F3DB0705D412251AE0292B01D035
:104860003B2BF9D13088B0F5706FF5D269460BF06B
:10487000D1F988B9009B93F82C2102F0FF05C2B949
:10488000B27883F82D21FF2283F82C2168460AF0A4
:1048900058FA284602B070BD09213088FCF7EEFBBB
:1048A0000446002837D001A9B0F8AC010BF0B2F9EA
:1048B00008B10C25EDE70821B4F8AE01FCF7DEFBEA
:1048C00020B94FF404613920FBF79CFF03781BB932
:1048D00094F8C831032BECD1019B93F84221002AB4
:1048E000E7D194F8F02102F0FF05002AE1D1B4F8F5
:1048F000B021A3F8442194F8B82183F84621027D21
:1049000083F84721B27883F8482184F8F021FF2208
:1049100083F84221BDE70225BBE700BF2000380431
:104920000188A1F11B039BB2E02B0CD8428844F212
:104930004810A2F5A4739BB2834204D8034B002015
:10494000D9801A8170471220704700BF280B0020C1
:1049500038B50278447802F0010302F0020254EA0A
:10496000030101D1112038BDBAB98578002DF9D0E5
:10497000002B18BF002400E01D4620460AF00BF96A
:104980000028EFD028460AF006F90028EAD0054BA7
:1049900000209C72DD729881E5E7002BECD00024AA
:1049A0002546EAE7280B002013B5008801A90BF083
:1049B00053F9044620B9019890F83E311BB13A24CE
:1049C000204602B010BD90F85C3003F0FF04002BCD
:1049D000F5D190F853309B0706D1FF2380F83E3184
:1049E00001A80AF0AEF9EBE7024954300BF068FC7D
:1049F000E6E700BF3D0D01002DE9F04703780446CE
:104A0000032B03D912252846BDE8F0874378032BF2
:104A1000F8D8437E8578002B4FD1012DF2D100F0DC
:104A2000CFFD854340F0928094F8028018F0010594
:104A300006D001232269A168E078FFF701FD054651
:104A400018F0020F07D002232269A168E078FFF76F
:104A5000F7FC2843C5B218F0040F7BD094F803A0EC
:104A60000423D4F80890226950464946FFF7E8FC31
:104A7000284310F0FF05C6D1B8F1050F0ED194F808
:104A800004800423E16862694046FFF7D9FC0546CB
:104A90000028B8D1C24559D1894557D1237E013B61
:104AA000062BAFD801210020FCF7E8FA054650B9E3
:104AB00040F642413920FBF7A5FE6B1E062BA1D81C
:104AC000AA079FD4ABE7A83009F0E4FC18B195F829
:104AD00054309B073CD1657EE278003DA078A16808
:104AE00018BF0125012AB4F800E000F0040314BF48
:104AF000B2FA82F2022294F818C018BF520910F0DC
:104B0000010F1FD026695BB16769F319994207D27B
:104B10004B089E4228BF1E468B1B9F4228BF1F4644
:104B20000E4B83F83D50002583F8380083F8392078
:104B3000A3F83AE083F83CC083F84000DF64C3E99F
:104B4000111660E7002BEBD02769E9E711255AE73A
:104B50000C2558E7002DA1D055E700BF280B0020F9
:104B600000B589B0437940F271218DF80430837922
:104B70008DF8053001238DF8063003788DF8073065
:104B8000B0F801304B430393B0F803204A430D497A
:104B900091F83C100592A2F6C4128DF81C10002169
:104BA0008DF81D1008498A4209D8A3F6C4138B4218
:104BB00005D801A8FFF720FF09B05DF804FB3020FD
:104BC000FAE700BF280B00203C369C002DE9FF418E
:104BD00006460078012813D17378012B03D9022BE4
:104BE0000CD1B38853B17288B2B1B388A3B10A2192
:104BF0004A434FF4A0614B439A420DDB12247AE002
:104C00000028FBD10121FCF739FA0546002840F0C5
:104C10008E8040F69A5107E001210020FCF72EFA21
:104C2000054620B940F63F513920FBF7EBFDB3882C
:104C3000002B76D109F0A9F8002874D195F8143129
:104C4000002B72D12846FFF71DFC04460028D5D161
:104C50000121DFF830810846FCF710FA98F81410AB
:104C6000074619B110B940F65B51DDE798F83820D6
:104C70000023CDE9023312F001031CBFD8F848002D
:104C80000290520741BF04AA02EB8303D8F84C20DC
:104C900043F8082C002941D097F81431002B3DD05F
:104CA0007388DBBB98F838303846009302ABD8F8ED
:104CB000442098F83A1009F040F978B3384609F0E2
:104CC000EFFB07F14003064605F14002683753F851
:104CD000041BBB4242F8041BF9D12846FFF7D2FB64
:104CE000024610B140F682519EE70C2E07D10146D4
:104CF000284609F088FD204604B0BDE8F08116B1D1
:104D000040F68B5190E798F839302846296D43F0EA
:104D1000040385F8543009F055FDECE7B28871883A
:104D2000E6E71124E7E73A24E5E70C24E3E709F096
:104D300062FB04460028DED195F8543095F8A62091
:104D400022B195F8A720134385F8A600053B012B57
:104D5000D1D82B6D13B940F6AA5165E70121084659
:104D6000FCF78CF94FF4C0722946064608F090F91A
:104D7000002386F894300423316D304686F8543091
:104D8000C9E700BF280B00202DE9F04F457A044603
:104D90008FB0A80718D545F001056572072D15D805
:104DA00000F00EFC35EA000040F0588194F84830DD
:104DB0008BB9012D0AD1A369A94AA3F25373934277
:104DC00000F24A81012609E06907E7D11224204652
:104DD0000FB0BDE8F08F15F00106ECD1AA0745BF72
:104DE000731CB1464FF0FF09DEB26B070AD5B31D45
:104DF0009C4A54F82330A3F6C413934200F22C814A
:104E00000136F6B204F1080704F122054FF000085C
:104E10005FFA88F39E422BD823789A1E022A40F22A
:104E20001D81012BD2D813B9A378012BCED863787A
:104E3000032BCBD894F84930013B062BC6D88A4FB8
:104E400001210020FCF71AF93B7D0546002B4CD1CF
:104E500001210846FCF712F9002818BF054605F1A4
:104E6000A80009F017FB0646002858D00C24AEE72E
:104E7000994535D0D7F804A03B695345A6D86A8B2D
:104E80002B8C9A42A2D8B5F814B001204FF0060C32
:104E900069882A89EB89CDF800B00591CDE9010C2C
:104EA0000020CDE90623FFF7E1F9002800F0D480C7
:104EB000B8F1000F14D028880599884286D1E98876
:104EC000069A914282D1AA89079B9A427FF47EAFCB
:104ED0006B8A5B457FF47AAF3B689A4540F0BE80B1
:104EE00008F101080437023592E7A83009F0D2FA38
:104EF0000028ADD06FF00043D5E92A129A4208BFCE
:104F0000B1F1FF3FA4D1637A2846009304F118035E
:104F1000E268617809F011F80646002898D0284622
:104F200008F039FF08B13A2451E7284608F02DFF70
:104F30000028F8D1FB7C4BB90AAF0A937B600623AB
:104F40008DF82E303846FCF7D3F868B300210DF108
:104F50002600FCF71FF8074600287BD001232246D5
:104F6000BDF82610FFF7AAFA38460CF024F91EB94E
:104F70006178284608F09CFF04F10308A2782178A4
:104F80002846434608F041FF00286FD11224002133
:104F9000B7F8AA00FCF788F800283FF418AF41F2F0
:104FA00088213920FBF72EFC0A9B93F8CD20802A1C
:104FB000C8D093F8E530002BC4D057E7637A8DF85A
:104FC000286013F00102E16818BFA0690B911EBFB1
:104FD0000C9001208DF828009E0744BF0132D2B208
:104FE00058071BD59DF82800063203F0050354F836
:104FF000222040F00400052B0D928DF828000DD1E1
:105000000C981318994209D24B08834228BF0346D3
:10501000C91A0C93914294BF0D910D920AA928468A
:10502000FEF7F8FC94F848102846003918BF012113
:1050300008F0E8FE94F84910284608F0C9FE284612
:1050400008F0D1FF3946284609F0BCFB0024BEE633
:105050000B249CE70D24BAE63024B8E61124B6E60A
:105060003CF67002CBF37002280B002016B92846DC
:10507000FEF718F921784346A278284608F025FF64
:1050800094F8099000F09CFA09EA0001284601F022
:10509000050108F0A0FE16B9042385F854302F65E9
:1050A0004246A07809F0E9FC0146284608F028FFAE
:1050B000237833B94246A1783846FFF789F90028AA
:1050C000C6D1002E3FF47AAF0421284608F0C7FE6F
:1050D0000028BBD10C245AE710B5437994B0032BB8
:1050E00057D823F00203027940F271218DF806307F
:1050F000D0F806308DF80420CDF807304389027BC4
:10510000ADF80B3001238DF805208DF80D300388A4
:105110004B43049342884A430792A2F6C412847B0D
:10512000417B41EA0421ADF82810047CC17B41EAAF
:105130000421ADF82E10847C417C41EA0421ADF8B5
:105140003410047DC17C41EA0421ADF83A10417D60
:10515000847D41EA0421ADF84010C17D007E41EA22
:1051600000210E48ADF8461000218DF84C108DF846
:105170004E100B4990F83C008A428DF84D000AD839
:10518000A3F6C4138B4206D801A8FFF7FDFD14B0A7
:1051900010BD1220FBE73020F9E700BF280B0020EC
:1051A0003C369C0073B506230025CDE900558DF8EB
:1051B00006306846FBF79CFF08B1002610E0009D12
:1051C00095F8CD30802BF4D095F8E560002EF0D026
:1051D00095F83131002BECD195F8CC30002BE8D18B
:1051E00001210020FBF74AFF044620B941F2BB2110
:1051F0003920FBF707FBA83009F04CF9224B1B7D47
:1052000073B3E0B194F85430053B012B17D8204616
:1052100009F046F9054610B141F2C621E8E72046FB
:10522000FDF7C6FF94F854302A46294623F00403BC
:10523000204684F8543009F0E6FA00250DE00121FB
:105240000846FBF71BFF044610B941F2D221CFE715
:10525000A83009F01FF960B90C25284602B070BDCE
:1052600028B9002EF8D0FF2385F8CC30E5E7002ED2
:10527000F9D1204609F014F905460028EDD1204661
:10528000FDF796FFE9E700BF280B002037B58378CC
:1052900005460A2B39D801A900880AF0BBFC044650
:1052A00070B912212888FBF7E9FE20B941F2D851E4
:1052B0003920FBF7A7FA019B93F840211AB10C247F
:1052C000204603B030BD827A02F0FF04002AF6D1F6
:1052D000019A92F86510090706D4FF2283F83F214E
:1052E000FF2283F84021EBE792F86920D20907D02A
:1052F000027BAD78417BAA4228BF2A469142EFD378
:10530000034902300AF0D3FFDAE71224D8E700BFDE
:105310002D1C01000278034672B1427862B14288C6
:105320001A2A09D982881A2A06D90068034A106005
:1053300000209B889380704712207047280B002024
:1053400002680020014B9A61704700BF280B0020C3
:1053500002680020014BDA61704700BF280B002073
:105360000378A3F10A02112A9BBF024A00201220EF
:1053700093737047280B00200378FF2B15D14378D7
:10538000FF2B12D18378FF2B0FD1C378FF2B0CD1C9
:10539000037923F0E0021F2A07D11F2B05D05B09F8
:1053A000034A002082F83C3070471220704700BF4B
:1053B000280B0020014B587400207047280B002058
:1053C000014B987400207047280B0020024B1B688B
:1053D00003B11847112070470416002008B50520B6
:1053E00000F098F80BF0D1FF014B024ADA6608BDD5
:1053F000280B00200943000008B53F2000F08AF880
:1054000001F0D0F801F010FC03F0BCFF014B024AA0
:105410001A6008BDF8150020F194000008B541207D
:1054200000F078F801F0C6F803F0B4FF04F058F883
:10543000034B044A1A60BDE8084000F075B900BF8C
:10544000FC1500208B16010010B50A4C072000F057
:1054500061F8094904F108000AF0C8F804F10C00E9
:1054600006490AF0C3F804F110000549BDE81040F0
:105470000AF0BCB8AC0B0020D0000020D8000020FF
:10548000E000002038B5074C0D4600F0D3FDA068C1
:1054900025600AF0A3F8FFF7ABF900F06DFF0123D8
:1054A000237538BDAC0B0020014B187D704700BF41
:1054B000AC0B002010B50C4CE0680AF08FF82069A6
:1054C0000AF08CF8FFF742F9202000F037F82F207F
:1054D00000F034F8262000F031F8292000F02EF8F2
:1054E0000023237510BD00BFAC0B0020004870479F
:1054F000C10B002000487047C30C0020014B83F80B
:1055000019027047AC0B0020014B93F81902704749
:10551000AC0B0020C208074900F0070001238340BC
:10552000885C03438B5404490B78934238BF13467D
:105530000B70704778000020C60D00200F4B012132
:1055400010B503EBD002C40800F0070001FA00F028
:10555000195D21EA0001195509490B78A34205D1CB
:10556000002012F8014914B100B10B7010BD002BDE
:10557000FAD0013B0120DBB2F3E700BF7800002046
:10558000C60D0020014BD3E90001704778000020D0
:105590000048704780000020064B1878072881BF1C
:1055A00008381823B0FBF3F001308CBFC0B20020E4
:1055B000704700BFC60D0020004870479081020070
:1055C000054B1868C0F3C022C0F30020400040EA39
:1055D000820040F0010070477800002008B506F016
:1055E00061F90023074A32F82310814205D302EB08
:1055F00083029378044A137008BD01330C2BF2D157
:105600000023F7E794810200C70D0020024B1878B1
:10561000072828BF07207047C70D00202DE9F04F4D
:105620009A4685B0814688469DF838300125147821
:105630009AF8007001920293AC420DD2334B1B7862
:10564000002B56D004EA0700029BC0B2002B3DD1CC
:10565000002856D1092051E02C4213D06A0714D4F7
:1056600015F0010203D1C5F340025200D2B2012667
:105670004FF0000BB7420AD2BBF1000F23D124EA4E
:105680000504E4B26D00EDB2D6E70322EFE737423E
:1056900014D0730715D416F0010303D1C6F34003E9
:1056A0005B00DBB24946404603920AF0D4FFD8F8CB
:1056B0002030039A984298BF46EA0B0B7600F6B268
:1056C000D8E70323EEE707EA0B07DBE7B9F1000FA2
:1056D0000FD098F8713098F870201340184009F0F6
:1056E000DFF9C31E0446DBB2012B96BF0427274611
:1056F0003C46019B00201C708AF8007005B0BDE894
:10570000F08FB9F1000FEAD1F3E700BFC80D002018
:10571000014B1870704700BFC80D0020014B18786E
:10572000704700BFC80D0020014B024A1A60704745
:10573000081600201D5600002DE9F04F0468984619
:105740000F4685B094F86330164604F1A80994F822
:105750000FA043EAD303D90702D4BAF1260F5FD1D1
:1057600094F8A850002F55D1FFF72AFF8DF80B00B1
:10577000002E51D1FFF724FF2B4B8DF80C00D3F8EE
:1057800000B0BBF1000F0CD0AAF126022846494612
:10579000534253410DF10B02009303ABD84705462A
:1057A00030B99DF80B3013B19DF80C0028B90925CC
:1057B000BAF1260F2AD10020034694F8292132B1EC
:1057C0009B0700F002002DD560B302200346FF22A4
:1057D00084F8392194F8382102F0FF05F2B99DF8D8
:1057E000382003A984F83B01484684F8382184F81E
:1057F0003A31A4F83C818DF80C708DF80D60ADF84D
:105800000E8009F078FF002384F83931284605B06E
:10581000BDE8F08F3846A9E73046ADE73A25F2E714
:105820001A25F3E70925F1E70816002010B50468EA
:10583000B4F8AA3084F88411A4F8853194F82001D2
:10584000FEF750FC84F8870194F82101FEF74AFC2A
:10585000044984F8880104F27B10BDE810400AF086
:105860002FBD00BFBDF6000030B5C1F30722CCB29A
:10587000164985B0C5B2C0F307230978019049B92C
:105880001146204609F025FF20B91946284609F09F
:1058900020FFB0B12B40234002EA0300014609F08B
:1058A000FFF80446084609F0FBF8032C04D1BDF8C4
:1058B0000630012B08BF0424E4B244EA002005B0FE
:1058C00030BD05EA020003EA0401E8E7C80D002044
:1058D000034B002283F85020A3F85220704700BFEA
:1058E000CA0D0020044B93F85020012A1ABF036010
:1058F00001200020704700BFCA0D0020064B024661
:1059000093F8501001291BBF0120A3F8522000205A
:1059100083F85000704700BFCA0D0020054B0246B7
:1059200093F8500028B1136011B1B3F852300B80D6
:1059300001207047CA0D0020054B002293F850004B
:10594000A3F8522010B1012083F85020704700BF07
:10595000CA0D0020034B93F85000B0FA80F04009C4
:10596000704700BFCA0D002050B90A4A01201346F3
:1059700003F8010B0868C2F801008A889A80704712
:10598000012805D1034B0A68D8719A608A889A81E8
:10599000704700BF1E0E002050B90B4B187888B11D
:1059A000D3F80120B3F805300A6001208B807047DE
:1059B000012806D1044BD87920B19A689B890A60E6
:1059C000F3E70020704700BF1E0E002010B9044B03
:1059D00018787047012806BF014BD879002070471E
:1059E0001E0E0020F7B58A8800238DF80600ADF85A
:1059F000042008680B4A8DF807300146147802F538
:105A0000A872019DD8B2844201D8082007E052F85C
:105A1000087F01335668AE4208BF8F42F2D103B00F
:105A2000F0BD00BF300E0020084B0146002230B50B
:105A30005C7803F20113D0B2844201D8082004E05C
:105A400013F8015F01328D42F5D130BD300E0020D8
:105A5000F0B5254D89B095F8984105F29911684641
:105A6000224607F015FB2146684609F0DDFF044693
:105A7000B8B300EB400102A8C9B2FBF75FFD631E9B
:105A800095F8A1610124DBB295F8981105E0721C2C
:105A9000B2FBF1F001FB1022D6B206F120020DEBB1
:105AA000020010F8202C002AF1D103EB430100F88A
:105AB000204C06EB460220312A44694411F8187C38
:105AC00082F8A27111F8177C11F8161C82F8A371E4
:105AD00082F8A411013BAA19DBB282F89941FF2B8D
:105AE000D2D109B0F0BD00BF300E002070B506461F
:105AF00088B00C46002A4ED0294A92F8A131D0181D
:105B000090F8991119B9FF212820FAF77BFE03EBD1
:105B100043010133114491F8A251E57091F8A3516A
:105B200091F8A41125716171002180F8991192F802
:105B30009811B3FBF1F001FB103382F8A13192F818
:105B4000C23123B9174902F5DD700AF0B6FB657959
:105B50000D220021684605F03F0545F040056571BE
:105B60000CF022FCE37804AA69468DF80F30304629
:105B700023798DF80D508DF80E3004230CF094FB32
:105B80009DF81F3023709DF81E3063709DF81D3006
:105B9000A37008B070BD03216018FBF7CFFCD6E7F7
:105BA000300E0020515A0000044B5A78824286BFC2
:105BB0001B1893F842010020704700BF300E0020F0
:105BC000064B00224FF461711A8083F8C32183F8D9
:105BD000C421A3F8C61183F8C2217047300E0020FB
:105BE000014B93F8C4017047300E002010B51446E5
:105BF000FFF7F8FE082813D0FFF716FF094B5A7875
:105C000082420DD904B12070184490F83A3190F8CE
:105C10004A01012B08BF40F0010000F0010010BD57
:105C20000120FAE7300E0020014BB3F8C60170479F
:105C3000300E00200A4B30B55C7884420ED91844EF
:105C400090F802012B3003EBC004A5790D7053F8D6
:105C5000300010600120A388938030BD0020FCE755
:105C6000300E002070B506460D4604F0FFFC03F030
:105C7000A3FD0A4890F8C34164B1417861B100F1D5
:105C8000820302303246002D08BF184603F03CFD67
:105C900003F0C4FD204670BD0C46FBE7300E00202B
:105CA00008B5064B024603EB0113012103F1820004
