:10000000F8A400204D2001000DF501003920010069
:100010003920010039200100392001003920010078
:100020000000000000000000000000001D21010091
:100030003920010000000000CD220100392001001C
:100040004D2301004D2301004D2301004D230100EC
:100050004D2301004D2301004D2301004D230100DC
:100060004D2301004D2301004D2301004D230100CC
:100070004D2301004D2301004D2301004D230100BC
:100250004D230100312D02004D2301004D230100EB
:100260004D2301004D2301001B2D02004D230100F1
:100270004D2301004D2301004D2301004D230100BA
:100280004D2301004D2301004D2301004D230100AA
:100290004D2301004D2301004D2301004D2301009A
:1002A0004D2301004D2301004D2301004D2301008A
:1002B0004D2301004D2301004D2301004D2301007A
:1002C0004D2301004D2301004D2301004D2301006A
:1002D0004D2301004D2301004D2301004D2301005A
:1002E0004D2301004D2301004D2301004D2301004A
:1002F0004D2301004D2301004D2301004D2301003A
:100300004D2301004D2301004D2301004D23010029
:100310004D2301004D2301004D2301004D23010019
:100320004D2301004D2301004D2301004D23010009
:100330004D2301004D2301004D2301004D230100F9
:100340004D2301004D2301004D2301004D230100E9
:100350004D2301004D2301004D2301004D230100D9
:100360004D2301004D2301004D2301004D230100C9
:100370004D2301004D2301004D2301004D230100B9
:100380004D2301004D2301004D2301004D230100A9
:100390004D2301004D2301004D2301004D23010099
:1003A0004D2301004D2301004D2301004D23010089
:1003B0004D2301004D2301004D2301004D23010079
:1003C0004D2301004D2301004D2301004D23010069
:1003D0004D230100472D02004D2301004D23010054
:1003E0004D2301004D2301004D2301004D23010049
:1003F0004D2301004D2301004D2301004D23010039
:100400004D2301004D2301004D2301004D23010028
:100410004D2301004D2301004D2301004D23010018
:100420004D2301004D2301004D2301004D23010008
:100430004D2301004D2301004D2301004D230100F8
:100440004D2301004D2301004D2301004D230100E8
:100450004D2301004D2301004D2301004D230100D8
:100460004D2301004D2301004D2301004D230100C8
:0C0470004D2301004D2301004D2301002D
:10048000064A074B02604FF44472DB7882800822F0
:10049000C371002382710372704700BFF9FA000034
:1004A00098080020064A074B02604FF4B072DB7ACE
:1004B00082800822C371FF2382710372704700BFDC
:1004C00009F5000098080020094991F829308A7838
:1004D00003EB4303C978DB000A4400211033C271E7
:1004E00081608380042301608371FF23037270475E
:1004F00098080020064A9378D2781344002282603C
:100500000260044A4260C371FF230372704700BF58
:10051000980800203A0002002DE9F341C41D00288C
:10052000064624F007040CBF0020204600F082FCA1
:10053000071E04DA6FF00B0002B0BDE8F081374D02
:10054000E988A88803316B7A03302A7A89B280B2AD
:100550000CF015F90028EDDB3C44A978EB78002E6F
:1005600004F10304194424F0030400FB01F10CBF5F
:100570000020204600F00CFE20440EB90028D9DBF4
:10058000EA7A0446B2B1EB7B697C13441944FF2933
:10059000D0D80330002EAA89C9B220F003040CBFC2
:1005A0000020204600F066FE0028C3DB04440EB99C
:1005B000002CBFDB012000F033FCB0B1A97BA1B15E
:1005C00095F82A3033B340234FF481720734002E5C
:1005D00024F007040CBF0020204601F0A7FE0028ED
:1005E000A8DB04440EB9002CA4DBAB7AFBB1EB7A98
:1005F000B3B10734002EA97A24F007040CBF002001
:10060000204604F0B1FB002894DB04447EB9002CA2
:100610000DDA8FE725232822D8E700BF98080020AD
:10062000012000F0FDFB10B1AB7B002BE1D1734B3F
:100630001B6893B1A97D81B10334002EEA7D24F0BB
:1006400003040CBF0020204698470028FFF672AF35
:10065000044416B9002CFFF66DAF694B1B688BB1D3
:10066000297C79B10334002E24F003040CBF002050
:10067000204698470028FFF65DAF044416B9002CC9
:10068000FFF658AF5F4B1F68B7B1697CA1B1033467
:10069000002E2B7D24F0030408BF0020009318BF18
:1006A0002046EB7CAA7CB8470028FFF643AF044401
:1006B00016B9002CFFF63EAF072000F0B1FB98B151
:1006C000A97D89B10334002E2A7E24F003040CBFD7
:1006D0000020204600F0BCFE0028FFF62BAF0444AB
:1006E00016B9002CFFF626AFB6FA86F795F8230068
:1006F0007F09A0B103346B7FA97E24F0070419445D
:100700003B4644F00404C9B2224600F0E1FE002852
:10071000FFF610AF044416B9002CFFF60BAF95F8A6
:10072000241000294CD004F10708002EEA8C28F090
:1007300007080CBF002040460CF035F8041EFFF6F9
:10074000F9AE4444002E3ED1002CFFF6F3AEA97F53
:10075000002945D095F82230002B41D02A8C07344F
:10076000002E02F1240224F007080CBF00204046AE
:1007700092B20CF018F80028FFF6DCAE404416B92F
:100780000028FFF6D7AE03302B7FA97E20F00700AC
:1007900019443B4640F0040495F82200C9B22246B1
:1007A00000F088FE0028FFF6C5AE044486B9002C90
:1007B000FFF6C0AEEB6AF3B1C6B1EC620020BBE657
:1007C000002EC4D08846E98C404609F0ADF9BEE75A
:1007D0002A8C4046A97F083292B209F0ABF9E9E7CA
:1007E000002EE7D0002211461046F6E728343FF5E8
:1007F000A1AE2046A0E6002EE0D1FAE7F4150020D5
:10080000F8150020FC1500201FB572B6194B1C6BA3
:10081000ECB9BFF34F8F1849184BCA6802F4E06275
:100820001343CB60BFF34F8F00BFFDE7B2FBF6F27F
:100830002B465D1C002AF9D1DBB203F110056D4493
:1008400005F80C2C0A2233B901A8A047E1E70246BB
:1008500000230A26EDE7013BDBB203F110050DEBA7
:100860000506B0FBF2F502FB1500303006F80C0C63
:100870002846E8E79808002000ED00E00400FA05AB
:1008800013B5124C68462389ADF80030E388ADF803
:100890000430A388ADF8023002F0B2FA18B1FA21A0
:1008A0009C20FFF7B1FF207D02F0DAFA08B1FD21AC
:1008B000F6E7E07C02F0CEFA08B1FE21F0E794F80A
:1008C000290007F0A5FC02B010BD00BF9808002069
:1008D00070B50546002855D00BF0F0F818B94FF068
:1008E000FF34204670BD09F023FEB0F5FA7FF6D83C
:1008F000264C012625630025284684F834502570AF
:1009000084F82A50E56209F0B1F81A22294604F168
:100910000F0010F087F91B2308210322A38028462B
:10092000E3800223A1721F216372E375F723227211
:100930002384FB23A2734922E3840A23A18129464D
:10094000E27484F82930A670E670E672A674267602
:1009500001F072FD2A463146304601F03FFD044663
:1009600020B140F2B5319C20FFF74EFF014601F067
:1009700051FDEFF3108572B600F0D0FD002DB0D11F
:1009800062B6AEE76FF01504ABE700BF9808002031
:1009900038B51446002840F0EE80784D95F8343094
:1009A000032B00F0E58019B312B96FF0150038BDC4
:1009B0000139172900F2DF80DFE811F01800290063
:1009C0002C0042006C0075009400480078007B0009
:1009D0008E004E005400620067009A009D00AC003B
:1009E000AF00B200A300B500B900D2001378AB701D
:1009F0000020FFF791FD0028B7BF012302236FF00D
:100A00000B0085F83430A8BF85F83430CFE7137871
:100A1000EB70EDE71379002BC7D05379002BC4D0CE
:100A20001288FB2AC1D863881B3B9BB2E02BBCD841
:100A30001A2ABAD92368A2886B60514B9A80D7E7EB
:100A40001378EA7B9342B0D3EB72D1E71378EA7A5A
:100A50009342AAD8EB73CBE71378EA7A9342A4D8EF
:100A60006B74C5E71378002B9FD05378013BDBB242
:100A7000F82B9AD8138892786B82424B9A70B7E71A
:100A80001078687507F01CFBB2E71378002B8CD048
:100A90002B76ADE7012000F0C3F9237808B1012BD4
:100AA00083D9AB73A4E71388AB81A1E71378AB7547
:100AB0009EE7072000F0B4F918B92378012B7FF6E0
:100AC00074AF072000F0ACF918B12378002B3FF485
:100AD0006CAF2378EB758BE71378082B3FF665AF87
:100AE0002B7485E71388FF2B3FF65FAFAB727FE770
:100AF00013786B767CE713780E2B3FF656AFAB7608
:100B000076E72368204AC5F81E306368536023895E
:100B100013816DE71378EB766AE713786B7767E7F5
:100B200013782B7764E7137885F8283060E701F0B5
:100B30004FFC98B1007900F001026178207801F053
:100B40004DFC00287FF433AF6378012B7FF650AF64
:100B500008F092FF00287FF44BAF26E70246ECE74F
:100B600013785A1E092A3FF620AF85F829303FE74F
:100B70004FF0FF301BE76FF02C0018E798080020BB
:100B80009C080020AA080020B6080020F8B50D46F1
:100B9000064630B329B311F0070422D1124F97F85B
:100BA0003430012B02D16FF00B00F8BD032B02D1C2
:100BB0004FF0FF30F9E700F0E7FC0028F8D02846B6
:100BC000FFF7AAFC0028EEDB0FF0C3FC3046F96A01
:100BD00002F0D0F9FFF754FE0323204687F83430A3
:100BE000E3E76FF01500E0E79808002010B5074C28
:100BF00094F83430032B03D102F0D4F903F024F934
:100C00000BF0F5FE002084F8340010BD9808002099
:100C100008B502F079F903490320BDE8084000F067
:100C2000F7B800BFA504000008B502F081F9034938
:100C30000220BDE8084000F0EBB800BF81040000CE
:100C400008B50449122000F0E3F8BDE8084002F0BE
:100C500023B900BFC904000008B502F02FF9034909
:100C60001320BDE8084000F0D3B800BFF504000031
:100C7000074B4FF0FF3141F6FF72C3E900120549FF
:100C80000022C1E900221F21C3E90212704700BF00
:100C900060000020D00800203F280CD801380B4B02
:100CA000C0F3421200F01F0053F8223023FA00F084
:100CB00000F001007047FF2806D04038044BC0F315
:100CC000421200F01F00EFE7012070476000002093
:100CD000D0080020074B0146006849681A4603C245
:100CE00040F48C2200201A6041F0107242F4FF623E
:100CF0005A607047600000200246034B006851684C
:100D000003C30020704700BFD00800200246034BF9
:100D10000068516803C30020704700BF68000020CE
:100D20000138064BC0F3421200F01F0003EB8203B0
:100D30009B6823FA00F000F001007047600000207B
:100D40000A8870B595B2C67CC2F30E0204880236DA
:100D500002F118033444C35AA4B233442344013B80
:100D6000B3FBF4F303FB0422438892B29342044B97
:100D70008BBF2B40AB4313439BB20B8070BD00BFB6
:100D80000080FFFF4A1E062A08B50346084604D81D
:100D90004FF4D1711520FFF737FD094A914202D96E
:100DA00040F2A311F6E711B903B1196008BD2BB1E8
:100DB0001B680022C3E901211A1D1A600430F5E7FF
:100DC000FAFFFF7F10B5114B00EB41041A786389DD
:100DD000B3FBF2F303FB0223013A1A44B2F5706F3E
:100DE0000279807828BF00231A440B18B2FBF0F177
:100DF00000FB11215B1AB3FBF0F100FB113313442C
:100E00006FEA43436FEA5343638110BDD808002063
:100E1000024B03EB80035960704700BFD8080020E5
:100E2000034B03EB80035868003818BF012070475C
:100E3000D80800202DE9F04F10F0070A85B00546CC
:100E400004D040F26F111720FFF7DEFC534F044629
:100E50004FF0010B07F15406B146B04657F8043B7A
:100E60008DF80BA03BB101A898479DF80A30082BDC
:100E700001D9F521E7E79DF80B1041BB05B13160C1
:100E80004F4506F10406E9D1002D6FD00022DFF8AE
:100E900010911427964689F8002058F827A0013FA2
:100EA000BAF1000F55D09AF804609AF802C0FF2EEC
:100EB00060D039460023481C38D19C44BCF1FF0F58
:100EC0003FD90AB189F800E04FF49A71BBE79DF869
:100ED0000AC04B1D60465A0004EB4303022838BF8A
:100EE0000220441E40422344BDF808406444CCF133
:100EF000000C0340013C04EA0C04B4F5803F02D32B
:100F000040F205119FE775B19A1A32609170148012
:100F100082F803B09DF80C00107101984FEA104C54
:100F20001081A2F806C004FB0134A9E758F821009B
:100F300028B190F804B0B34504BF80781B1801397C
:100F4000B9E7DBB2E6458AF804303CBF5FFA8CFEB5
:100F500001227B1CA1D10AB189F800E0142640F6D9
:100F6000FF6A58F82670B7B9013EFAD2601B05B087
:100F7000BDE8F08F0023E5E707EB410309F1010924
:100F80003846A3F80AA0FFF71DFF5FFA89F1BB7886
:100F90008B42F1D8E8E74FF00009F6E7DC080020C3
:100FA000D808002038B54FF6FF7302460380184B6F
:100FB00003EB8103986DA8B184780379B3FBF4F156
:100FC00004FB1133DBB2194600EB4105B5F90A50B9
:100FD000002D0EDB0131B1FBF4F504FB1511C9B294
:100FE0008B42F1D1002038BD6381BDE838400BF061
:100FF000A2BB00EB41046389C3F30E031380C278E4
:10100000002AF1D14FF4E5711720FFF7FDFB00BF77
:10101000D80800201C4B03EB810370B59C6D05467E
:1010200044B3030404D54FF4EC711720FFF7ECFB35
:10103000014620460BF062FBFF28014604D0204603
:10104000BDE870400BF077BBA078B5FBF0F300FB78
:101050001353DBB219460A1D04EB4206B6F90260CF
:10106000002E09DB0131B1FBF0F200FB1211C9B215
:101070008B42F0D1002070BD8B4201D00023E37081
:1010800004EB42025580DAE7D8080020094B03EB55
:101090008103014610B59C6D20460BF02FFBFF2805
:1010A000014604D02046BDE810400BF044BB0020B0
:1010B00010BD00BFD8080020F8B5104B074603EB61
:1010C000810301469C6D20460BF018FBFF28054666
:1010D00011D0E288238953EA024606D00146204611
:1010E0000BF029FB01463846B04720462946FFF75A
:1010F00069FE0020F8BD0520FCE700BFD8080020ED
:1011000038B50E4B0446827903EB8203986D08B91B
:10111000052038BD8278E1799142F9D24B1CE37108
:1011200000EB41035D89B3F90A30002BF3DBA580A6
:101130000BF001FB20600020EBE700BFD808002087
:1011400008B5124B03EB81039A6D22B940F2462198
:101150001720FFF759FB9178831A481DA3EB400332
:101160001088B3FBF0F3002B01DB994202DC40F264
:101170004921EDE702EB4302B2F90A305089002B16
:1011800002DA40F24B21E3E708BD00BFD808002097
:1011900070B5044610F003000E4603D04E2118200F
:1011A000FFF732FBFFF7EEFD054624B10348314659
:1011B0000460FFF7E7FD284670BD00BF84090020EA
:1011C0002DE9F14FDFF870B01E4607460D46DBF8FB
:1011D000003090469DF828A09DF82C901BB9602106
:1011E0001820FFF711FB5246092140460BF00AF97F
:1011F0004A4684B2092130460BF004F981B2DBF88B
:10120000000021440BF04EFA386018B9286001B094
:10121000BDE8F08F04445346414609222C603868EB
:101220000BF0B3F84B4609223146286801B0BDE8FF
:10123000F04F0BF0AAB800BF8409002070B50E462D
:1012400004460BF0F2F8054630460BF0EEF8044B7E
:101250002A1821461868BDE870400BF048BA00BF54
:1012600084090020024B186808B10BF00FBA7047D0
:10127000840900201F2AF8B5044613460ED89200B0
:10128000033222F00303B3F5803F2DD2184DACB1E9
:10129000A00710D068210920FFF7B6FAFF2B4FEA0C
:1012A000420204D9FF339A42A8BF1A46E8E77C2AD3
:1012B000B8BF7C22E4E729706C602B8122F0030226
:1012C00028230127120403FB01F06B680025120C90
:1012D000EEB2B14200D8F8BD14B126181F705E609E
:1012E000104401352833F3E74FF0FF30F3E700BF38
:1012F00088090020154A002170B553681578C8B2D6
:10130000854203D8BA210920FFF77EFA1C46184609
:10131000013114F8286B0EB92346F0E700219970CB
:1013200001241289996103F126055C709208D96144
:1013300003F11E04596824F8022FA54243F8041F44
:101340001144F8D100234361037070BD8809002067
:101350000A4B1B89B3F5FF7F4FEA930006D25A0868
:101360009B1A9BB2984238BF18467047B3F5EE6F90
:1013700001D8FF22F4E740F27263F3E78809002006
:101380004B782DE9F04106460C4602F0040702F0C6
:10139000FB05E3B1A5BBFF23A3707B0804EB570754
:1013A0003A7D032A02D1022D18BF0133E218012130
:1013B000117503F10C01002204EB830324F81120C2
:1013C0005B68A27030463360B280BDE8F081002DCA
:1013D000E1D1012301F11E028D6120464B7004F121
:1013E000260C1A4BCD611B8949689B0822F8023FE5
:1013F000944540F8041F1944F8D100236361CAE7FB
:10140000D1F8048014220021A01861700FF00AFCAA
:101410000E4B1B89B3F5FF7F0FD25A089B1A9BB264
:1014200008EB0301C4F804802384A1606284C4F83B
:101430000C80A3842161E284ADE7B3F5EE6F4FF039
:10144000FF02EBD940F27263EAE700BF880900208F
:101450002DE9F84305460C46F720052191460AF090
:10146000D1FF061E21DB1DB906FB04F0BDE8F883A1
:1014700015F0030703D098211920FFF7C5F9DFF80D
:101480003080C8F81050A8F81460BBB29C42EBD969
:10149000B8F814504B46D8F810000522F72107FB86
:1014A000050001370AF071FFEFE74FF0FF30DDE78D
:1014B0009C09002007B5CDE900230B4603490246ED
:1014C000081D0BF06EFA03B05DF804FBB4090020B0
:1014D00013B5064CCDE900230B46024604F1080182
:1014E00004F10C000BF05DFA02B010BDB40900204D
:1014F00008B54B1E032B03D923219020FFF784F955
:101500000028054A0CBF05230C2303EB8103053398
:1015100023F00103137008BDC4090020114B012200
:101520004FF0FF3000215A60C3F80803C3F80015DC
:10153000C3F804255A6040F6FE72C3F80803402041
:10154000C3F8001503F570330749C3F80825C1F83F
:101550008800BFF34F8FBFF36F8FC1F88801C3F8C6
:10156000082570470060045000E100E00268002098
:10157000014B1A60704700BFC8090020014B1B686F
:10158000184700BFC8090020024B1868003818BF70
:1015900001207047C80900200A4606489C2302F82B
:1015A000033BC368C1F80330036953604369936028
:1015B000704700BFCC090020024B5A8C02435A846A
:1015C0005B6A1847CC090020014B00215B6A184771
:1015D000CC09002010B5154C07F0DEFE08F008FA23
:1015E000208DFFF7F1FF237E63B12246104904F1FD
:1015F000190052F80C3BE36063685360A368936082
:101600000CF07AFE218DE06A03F0EAFBE36AB3F89E
:10161000AA0003F05FFB636B94F8301094F831007C
:101620009847002384F8383010BD00BFCC09002053
:1016300099150000034B93F838300BB1FFF7CABF80
:10164000704700BFCC0900202DE9F041DFF8808011
:1016500005460E4608F12C000BF007FA044618B1B7
:1016600001242046BDE8F081D8F82C3093F8A8700A
:101670004FB1012D07D1B8F822301A0703D598F8D9
:101680003930002BECD1012EEAD8D8F83C3028466E
:1016900098470028E4D098F83030002BE0D167B9A3
:1016A000012DDED1B8F82230002BD9D198F8403086
:1016B000002BD6D198F8414007E0002DD1D1B8F8E1
:1016C00022309B07EED598F8394084F00104C8E732
:1016D000CC09002070B5204C0646636DE56A636452
:1016E0004FF4817394F85800A4F848302B7D95F896
:1016F000211100EB83002EB9FF2803D195F820318A
:101700008B4201D007F0F2FA2B7DFBB1E06D07F0C0
:1017100081FDE16D606C08F0F1F866B995F8213152
:10172000033B012BB5F8E4308CBF0020282018447F
:1017300080B207F0BDFDB5F8E00007F097FA002091
:1017400007F0F4FD022384F8383070BD606C07F0B8
:1017500061FD08F04DF9E0E7CC09002008B5094B20
:1017600093F83820022A04D040F257312720FFF79F
:101770004BF8DA7A42F00102DA72BDE80840FFF76E
:1017800029BF00BFCC09002010B590F86A1086B0C0
:10179000D1B9C2880B4605910021CDE903110C494E
:1017A00091F85840029400F190040194C96A91F8AC
:1017B000A810003918BF0121009100F1800102201A
:1017C00007F0ACFF06B010BDD0E91E23E3E700BF71
:1017D000CC0900202DE9F041274C06460F4694F82D
:1017E0003830012B5FFA83F804D040F60C11272023
:1017F000FFF70AF8E56A2B7953B10021042029711B
:10180000FFF7DAFEE36A93F8A8300BB185F805809C
:1018100094F860308BB92B7A052B0ED11749022032
:10182000FFF7CAFEE36A93F8A83033B1E36E1B7882
:101830009A1E5342534184F839301EB1BDE8F0413D
:10184000FFF7C8BE002FF9D031463046FFF7FCFE47
:101850000028F3D12B7DE46A13B12846FFF794FFEB
:1018600094F821210120B4F8E2100EF09AFE002035
:10187000BDE8F041FFF72EBFCC090020380A002058
:101880007FB590F86A10D1B9C2880B460591002146
:10189000CDE90311FB21029100F190010191094969
:1018A000C96A91F8A810B1FA81F14909009100F1D3
:1018B0008001042007F032FF07B05DF804FBD0E997
:1018C0001C23E3E7CC0900201E4A10B5546E417872
:1018D0002378C90003F0F30301F008010B4381787A
:1018E000890001F004010B43C178090103F0EC0306
:1018F00001F010010B43017801F003010B43237049
:10190000B2F8703063700223516EA2F86830047927
:101910000B786001012C23F0200300F0200043EA43
:1019200000030B700CD1D36A93F8BA2093F8BB3044
:10193000032A03F01F0308BF002243EA82138B70BF
:1019400010BD00BFCC090020F7B5184C0646656FE6
:101950000DB1E36C23B940F6C4012720FEF754FF14
:10196000B4F8503001F003012F466B702B7823F050
:1019700003030B4307F8033B3846B4F85020E16CEF
:101980000AF006FA0DF1020201A9A06F6564E7648E
:101990000AF072FE01980AF05DFE0122B4F85010C0
:1019A0003060A06F0AF001FE03B0F0BDCC0900204A
:1019B0002DE9F04FAC4C87B0D4F82C8098F820116A
:1019C00058B998F8142094F8583003EB8203FF2B91
:1019D00003D198F821318B4202D0FF2007F086F91D
:1019E000002304AA02A9A14804938DF8143084F8B6
:1019F000603001AB0BF02EF80746002845D0029A64
:101A0000BDF8043022B940F213412720FEF7FCFE56
:101A10006266A4F8703003B1D31CE366012384F836
:101A200060309DF8133004A8003B18BF012384F8F0
:101A3000403098F81330002B00F01C81B4F870305F
:101A4000002B00F01781FFF73FFFE06D07F0E2FB8E
:101A50009DF81420E16D003A606E18BF012207F076
:101A600063FD18B9616EE06D07F0D2FEB8F8E200D0
:101A700007F0FCF8012007F059FC012384F88830B6
:101A800084F8383007B0BDE8F08FE66A8DF80300BF
:101A9000337AADF80600062B00F2CA80DFE803F0C7
:101AA00004CBA1A1C8B8B80094F87F300DF10601AD
:101AB00003A8A6F81031ADF8063001F03BFD38B1AF
:101AC000039D2DB1012384F88030052333729CE0FF
:101AD000E36A93F85130002B6BD10DF103020DF145
:101AE0000601D4F884000AF0C7FC0546002860D03F
:101AF0009DF80370FFB10146D4F884000AF0A6FDFA
:101B00000AF0A8FDD0F800B0D0F804A081465BEA46
:101B10000A0348D1002389F8003089F8013089F898
:101B2000023089F8033089F8043089F8053089F8E3
:101B3000063089F80730BDF80630002B40D101236C
:101B400033720123002784F88030BDF806306566C3
:101B5000A4F8703003B1EB1CE366727A357A8DF825
:101B60001120022DB27A8DF8122004D0053D012DEE
:101B70008CBF012503258DF81050002F5ED000206A
:101B80009DF810308DF81300032B6BD1E36E1B789A
:101B90001B2B67D1012106F1BA0007F0EFF80123F2
:101BA0008DF814303DE70EF040FE83457AEB0101DD
:101BB000B0D2002301222E4DADF806303272C6E7B6
:101BC0009DF803301BB92B80AB700323B8E72B784B
:101BD00003F00303012BF8D0022333720023B37503
:101BE000AFE7B6F810310DF103020DF10601D4F89C
:101BF0008400ADF806300AF03FFC054610B940F20B
:101C0000C35102E7012384F88030BDF806309EE717
:101C10000DF1060103A801F08DFC08B1039D15B973
:101C200040F2D251F1E6012384F8803006234DE7DB
:101C300040F2DC51E9E60E4D002388E7032D02D186
:101C40001B78022B9BD0D4F884000AF06DFC38B9C5
:101C5000032D94D001F08AFC80F00100C0B28FE720
:101C600001208DE700239BE7CC090020F809002024
:101C7000480A0020FFF728FE606E07F0CBFA07F055
:101C8000B7FE9DF81410606E003918BF01210EF0E8
:101C900095FCEBE62DE9F04FB04C87B0002780466D
:101CA00094F83830E56A022B019105F1A80ACDE9D4
:101CB000027704D040F6AD112720FEF7A5FD616C38
:101CC00003200B784A780144A4F84800E16403EA51
:101CD0000001A4F850208DF81010C3F3C0018DF856
:101CE0001110C3F380018DF81210C3F30011C3F378
:101CF00040138DF813108DF81430B8F1000F00F078
:101D00000C8104A904F12C000AF0A6FE064630B9A5
:101D1000B4F8501009B3A06F0AF027FC0746238DD2
:101D20009DF8121043F40073676723856B7A0133C3
:101D3000DAB203F0010399424AD12B7A33B3032B71
:101D40006A720CD8012B21D002A9D4F884000AF0C1
:101D5000B5FBA0B940F2D471AEE70746DFE7053B1B
:101D6000012B02D940F2B371A6E701F0F1FB10B9E3
:101D700040F2DE71A0E700210820FFF71DFCD5E945
:101D80001C32013342F10002C5E91C320021E36A32
:101D9000297293F8A8302BB16B791BB110206971AF
:101DA000FFF70AFC238D4FF0000B43F400632385FB
:101DB0002B7DDBB1B4F85030C3B107F037FE0328F8
:101DC000FBD0022806D1FFF705FC07B0BDE8F08F75
:101DD000C346EDE750B9AB7A9DF8112003F001033B
:101DE0009A4203D1012384F83130ECE7B4F8507003
:101DF000E6B19DF81330591E4B424B4184F84130F7
:101E0000002F40F0B7800027B946019B002B00F05F
:101E1000B88007F0C1FAB9F1000F00F01E819DF8FB
:101E2000101003A8FFF790FD0127C9E0AB7A9DF8D9
:101E3000112003F001039A4223D19DF810307FB3A3
:101E40005A1E012A2CD8238D95F8149043F4805300
:101E5000238506F021FF032894F8893007D1B9F1D2
:101E6000000F0CBF1F221B22934228BF1346B4F859
:101E700050209A4208D994F8303043F0100384F887
:101E800030304FF000091EE0636F002BF9D094F85A
:101E90008A301BB12020FFF797FBF2E79DF8103046
:101EA000AA7A032B02F10102AA722CD05A1E012A2F
:101EB0001DD8002FE5D0C146D5E91E32013342F1CD
:101EC0000002C5E91E32626F9DF81310002A56D138
:101ED000B4F85020B2FA82F25209012914BF00224C
:101EE00002F001023746002684F841208DE7002FDA
:101EF000C7D0002BC5D1D5E91E32013342F1000213
:101F0000C5E91E32BDE7238D0120154943F48053F6
:101F100028712385FFF750FBEDE72B7D0BB107F010
:101F20009FFD94F88B30013384F88B30238D43F47C
:101F30008063238595F82131033B012B12D806F0ED
:101F4000ABFE032812D1B4F850604FF000091B2EED
:101F5000CB4694BF00260126B5E700BFCC09002080
:101F6000180A002002F0C2F80028E8D10026B14685
:101F7000B346A8E7238D43F48053238543E701222A
:101F8000ABE794F88B100120FFF75EFB00287FF48D
:101F900040AFEA7C12B12846FFF772FC002095F8AA
:101FA0002021B5F8E0100EF0FCFA0020FFF700FD4C
:101FB000B9F1000F5AD09DF8101003A8FFF7C4FC28
:101FC000238D5A0606D44020FFF7FEFA238D43F0F6
:101FD00040032385BBF1000F10D0EB884BB9E36AB7
:101FE00093F8A8302BB1B4F80530B4F807201343A8
:101FF00004D0B4F809300133A4F80930B8F1000F67
:102000003CD0B4F805300133A4F80530002384F83F
:102010008B301D4802F04CFE029830B10AF01AFBDA
:1020200000220272514602F029F8039B33B10022CC
:102030001A720C225146039801F0EEFF002F7FF434
:10204000C2AE238D1B063FF5C0AE8020FFF7BCFA61
:10205000238D43F080032385B7E6002E3FF4E4AEE2
:102060000A49A1F120000AF0F9FCDDE6002EA7D014
:102070000649A1F120000AF0F1FCA1E7B4F807300D
:102080000133A4F80730C4E7F8090020180A00203B
:10209000064B10B593F8382002F0FF0422B91C76E5
:1020A00002F096FE204610BD0C24FBE7CC09002070
:1020B000094B0A4A10B51A60FFF7EAFF20B14FF446
:1020C000B1712720FEF7A0FB054C00F087FF60658B
:1020D00000F088FFE06510BD001600201C23000002
:1020E000CC090020F8B5794C054694F8386006F024
:1020F000FF0016B909B102B123B94FF420712720AE
:10210000FEF782FB63639DF81830616284F88A30C1
:10211000E26384F8300084F88B0084F8310084F89E
:1021200088006084208584F8400084F8410084F8A9
:10213000800084F839006066E066A4F8700060648E
:10214000E064A4F85000E56206F03AFE07F050FCA7
:1021500095F9280106F098FED5F8D460D5F8CC00A2
:1021600006F098FE304607F039F895F8250006F09D
:102170009BFEB5F8E030622B03D9B5F8E230622B54
:1021800001D806F079FDE36A93F8A860002E40F0CC
:1021900085800CF07DFE95F820214D4B4FF47A712F
:1021A00053F8223003F5FA73B3FBF1F352331918E5
:1021B000304606F087FE474B186807F015F8D5F84B
:1021C000C030C4F88430D5F8C430A367AB7B243B5F
:1021D000072B6BD9EB7B243B072B67D9B5F8F23083
:1021E000B5F8F80095F82011984228BF1846042940
:1021F00008BF03210BF094FC034695F8F4009842C5
:1022000028BF184695F8F03080B2984200D3C3B288
:1022100095F8211105F1E80084F87F300CF010F9F1
:1022200095F821112F7D0329B5F8FC6008BF042122
:102230000BF076FC0FB9043080B2864228BF064608
:10224000F6B284F8896001F051FF28B101F054FF23
:10225000864238BF0646F6B284F858600AF001FCA0
:10226000E36A93F8A8301BBBEB7C13B12846FFF759
:1022700007FB0120FFF79CFB002323606360A36042
:10228000EB886380B5F8AA30238095F82530237158
:10229000D5F824310BB101221A60F8BD0CF0F8FD1D
:1022A00095F8212100F17101012082E71B23AFE79E
:1022B0002B7D13B12846FFF767FA0120FFF70AFAD2
:1022C000E36AD3F8F00106F0C1FFD5E7CC0900209E
:1022D0008C63020000160020014B93F888007047C1
:1022E000CC090020054A138D92F8800003F4805138
:1022F00010B113F4C06F00D1080B7047CC09002057
:10230000024B93F82900C0F3C0007047CC090020AD
:10231000014B93F88B007047CC0900205D1700003B
:10232000951C0000D517000035160000343270B53A
:10233000054692B20C461E460AF035FA25B1034A0C
:10234000556014745674147070BD00BF700A00207C
:102350000138C0B2032808B504D94FF43F710620F4
:10236000FEF752FA014B185C08BD00BFC0600200C6
:102370000138C0B2032808B504D94FF43F710620D4
:10238000FEF742FA014B185C08BD00BFDD60020099
:102390000138C0B2032808B504D94FF43F710620B4
:1023A000FEF732FA014B185C08BD00BF4061020025
:1023B0000138C0B2032808B504D94FF43F71062094
:1023C000FEF722FA014B185C08BD00BF396202001B
:1023D000014B1868704700BF3C0B002008B503464E
:1023E00010465A1E032A10D84A1E032A0DD8084A3E
:1023F000012951700CBF00210A2110719370917254
:102400001946FFF775F8002008BD6FF01500FBE7CF
:1024100006010020074A537A40B143F00403002923
:1024200053720CBF002307235371704703F0FB0363
:10243000F5E700BF0601002040EA4100014BD870DB
:10244000704700BF06010020304BF0B5B0F86C704B
:102450000C461146DA88B0F86A6085B097421D894B
:1024600028BF1746964228BF16461B2E2ED0B5F51C
:10247000A47F2DD040F6480301AA9D4228BF1D46E7
:102480000AF017FBBDF80A30BB4228BF3B46E38089
:10249000BDF80C30AB4228BF2B462381BDF8063077
:1024A000B34228BF33466380BDF80830AB4228BF33
:1024B0002B46A380FF232370E3881B3B9BB2E02BBA
:1024C00008D940F209513920FEF79EF91B2FCED1D1
:1024D00005B0F0BD63881B3B9BB2E02B02D940F2F4
:1024E0000B51F0E7238940F64812A3F5A4739BB281
:1024F000934202D940F20D51E5E7A388A3F5A473F6
:102500009BB29342E4D940F20F51DCE7480B002024
:10251000F7B5002304460E461746CDE9003368465A
:10252000FEF7EEFD08B100201AE0009DA542F6D0AE
:10253000304605F1AD030AF09CFA394695F8AC2017
:102540000BF066FA0028EAD005F1B40395F8B32041
:1025500004F1B40194F8B3000BF05AFA0028DED06D
:1025600003B0F0BD054A516A02F11D03127F11F854
:10257000030BC0F380100BF04BBA00BFB810002063
:1025800010B503210020FEF781FD044670B9032138
:10259000FEF740FD044620B940F225313920FEF710
:1025A00033F9034B93F970100CF072FF204610BD05
:1025B000480B0020014B5888704700BF480B002093
:1025C000044BD87BC0F3400080F0010000F0010014
:1025D000704700BF480B002038B50BF018FA0025F3
:1025E00001F064F9214C00F071FD0BF05DFE02F08A
:1025F000CDFB01F051FB05F09DFD012000F0F6FC44
:102600001B4B1C4A29461D604FF01B13A4F8685051
:10261000A58184F83650E573C4E900234FF4A47310
:102620001022A3604FF479432361134B58681B8930
:10263000A06304F14000A3870EF0F4FA012342F2F4
:10264000107204F15E0084F840306375C4E9112211
:102650000DF0F5FA04F150000DF017FB00220023F5
:1026600084F88050C4E91E2338BD00BF480B002009
:102670000416002003021B00DD600200064B41F639
:102680004C521B211A629973C3E9062241F2883227
:102690005A62FFF7A1BF00BF480B0020F0B53D4DC7
:1026A00085B000F1A8070446AB69C0F8E8302B7C80
:1026B000003B18BF012380F82931374BC0F8C830E0
:1026C00038460CF0F1FC064600F0D4FC8306A97BEA
:1026D00053BF1B236B88AA881A46A4F812312F4BCC
:1026E000A4F814211B6884F8F010A4F8F26023B158
:1026F00094F92811B4F8AA00984703A803940AF0A3
:10270000B6F9274B1B681BB12649B4F8AA009847B5
:10271000254938460AF0EBFF0123A4F8DE30234BAD
:102720001B681BB10021B4F8AA009847204B1B6816
:102730001BB10021B4F8AA0098471E4B1B6813B1C7
:10274000B4F8AA0098471C4B1B6813B1B4F8AA0050
:102750009847AB8804F1C0006A8869780333033274
:1027600001919BB2297892B2009104F1C401FEF765
:1027700027FDD4F8C03023B940F2E2413920FEF7FA
:1027800043F8D4F8C43013B940F2E341F6E705B09A
:10279000F0BD00BF480B002000093D0014160020CA
:1027A0000C160020700B0020520B00202416002075
:1027B000181600201C160020201600202DE9F341D9
:1027C00004460E460CF0A5FE002800F09680204638
:1027D0000CF0D7FF40B1B6F80130013B7F2B03D995
:1027E000122002B0BDE8F08120460CF0CEFF08B9FF
:1027F0000C20F6E720460CF00EFD0028F8D120460C
:102800000CF030FE80460028F2D1204603F0A6FFEF
:102810000028E5D042F21073B6F80170F178204636
:102820005F430CF099FF04213078FEF72FFC05463A
:1028300006213078FEF72AFC2DB140B141F6762111
:102840003920FDF7E1FF18B3054690F8E5802C4EDE
:102850003368EBB1403528460CF003FBC0B1284685
:102860000CF0F0FAA0B9B8F1000F07D0254B2846BC
:102870001B68984760B141F68A21E1E72249424648
:1028800033682846096A984710B141F68F21D7E787
:1028900020460CF06EFF014638B93A46204602F059
:1028A00057FF40B341F69821CAE702210DF1060017
:1028B000FEF778FB054608B90D2092E7BDF8061033
:1028C0000BF0C5F9294620460CF08FFF2846FFF78C
:1028D000E5FE3A462946204602F03AFF024610B18C
:1028E00041F6B421ACE7084BDB6E23B105F59771D7
:1028F00005F1A8009847002073E7422071E700BF68
:102900000816002010160020480B0020024B1B6800
:1029100003B118470C20704704160020034B5A8857
:1029200002801B7883700020704700BF480B002096
:1029300073B5837806461A2B08D8042B04D9334A7A
:1029400022FA03F3DB0705D412251AE0292B01D064
:102950003B2BF9D13088B0F5706FF5D269460BF09A
:1029600045F988B9009B93F82C2102F0FF05C2B904
:10297000B27883F82D21FF2283F82C2168460AF0D3
:1029800033FA284602B070BD09213088FEF77EFB7D
:102990000446002837D001A9B0F8AC010BF026F9A5
:1029A00008B10C25EDE70821B4F8AE01FEF76EFB87
:1029B00020B94FF404613920FDF726FF03781BB9D5
:1029C00094F8C831032BECD1019B93F84221002AE3
:1029D000E7D194F8F02102F0FF05002AE1D1B4F824
:1029E000B021A3F8442194F8B82183F84621027D50
:1029F00083F84721B27883F8482184F8F021FF2238
:102A000083F84221BDE70225BBE700BF2000380460
:102A10000188A1F11B039BB2E02B0CD8428844F241
:102A20004810A2F5A4739BB2834204D8034B002044
:102A3000D9801A8170471220704700BF480B0020D0
:102A400038B50278447802F0010302F0020254EA39
:102A5000030101D1112038BDBAB98578002DF9D014
:102A6000002B18BF002400E01D4620460AF0C1F8E4
:102A70000028EFD028460AF0BCF80028EAD0054B21
:102A800000209C72DD729881E5E7002BECD00024D9
:102A90002546EAE7480B002013B5008801A90BF092
:102AA000C7F8044620B9019890F83E311BB13A248A
:102AB000204602B010BD90F85C3003F0FF04002BFC
:102AC000F5D190F853309B0706D1FF2380F83E31B3
:102AD00001A80AF089F9EBE7024954300BF00CFC2D
:102AE000E6E700BFA7ED000037B5837805460A2B5F
:102AF00039D801A900880BF079F8044670B9122181
:102B00002888FEF7C3FA20B941F2D8513920FDF7E1
:102B10007BFE019B93F840211AB10C24204603B0A0
:102B200030BD827A02F0FF04002AF6D1019A92F8B1
:102B30006510090706D4FF2283F83F21FF2283F89E
:102B40004021EBE792F86920D20907D0027BAD78EB
:102B5000417BAA4228BF2A469142EFD30349023063
:102B60000BF0C1FBDAE71224D8E700BF4D040100E7
:102B7000F7B5067804460F46EF2E03D912263046E5
:102B800003B0F0BD90F901204378002AF6DB82788B
:102B90009207F3D113F010001DD19D0603F003023C
:102BA00016D5002AEAD11907E8D42179E278E57927
:102BB00042EA0122617942EA0142A17941EA052112
:102BC000257A41EA05418A42D8D81F2A12D8D5E78A
:102BD000032AE8D1D2E713F0600FCFD103F0070248
:102BE000052A05D003F00F010D22CA40D207C5D532
:102BF0001D07DAD5627A013A062ABFD8A27A032ADB
:102C0000BCD813F0040302D1023A012A03D8E27AB5
:102C1000012AB3D813B9A37C032BAFD8237DF8B115
:102C2000012BABD1237E012BA8D818B36378D90729
:102C300002D500F099F920B36378227D03F01803E0
:102C4000082B2ED1022A1CD103213046FEF71EFA92
:102C5000054660B30CF0DFFA002834D00C268EE76E
:102C6000022B8BD0A37D013B022B87D8E37D0F2B5A
:102C7000D8D983E700F01CFA820707D4237D022B02
:102C800001D111267BE7A37D022BFAD000F010FAC8
:102C90004307CBD4237D032BF3D0A37D032BC5D1D6
:102CA000EFE7022AD0D0237F002BCDD0E9E7032124
:102CB0003046FEF7AFF90546002843D0224B93F982
:102CC00070100CF0E5FB002130460CF092FF28BBA1
:102CD00028460CF04BFD21463870E07428460CF075
:102CE00046FCE37E0646002B3FF449AF00287FF404
:102CF00046AF0246E96C6846FEF742FB3246E86C96
:102D0000012109F0A5FDE96C68460422FEF738FBB5
:102D100032463146E86C09F09BFD30E740300CF05C
:102D2000A0F80028D4D0637813F0330F7FF426AFD7
:102D3000A67D2846296A0CF037FDFFF719FB86426D
:102D4000C6D08BE707261AE7480B002030B502797A
:102D50008BB00346042A4FD84088B0F5804F4BD83B
:102D6000264900241144ADF800408DF808408A7CC3
:102D70004D7B42F010028DF8244042EA4502CD7DA1
:102D8000097F42EA850242EAC102694602F01F0257
:102D90008DF80020BDF80020ADF809201A888DF8C4
:102DA0000E00000A8DF80B20120A8DF80D408DF8E8
:102DB0000C208DF80F008DF810405A7BD3F80700D7
:102DC0008DF811205A79059002A88DF812209A7971
:102DD0008DF81320B3F80B209B7BADF818208DF8ED
:102DE0001A307F238DF81B304FF00113CDE90734E3
:102DF000FFF7BEFE0BB030BD1220FBE7DD60020026
:102E00000278034672B1427862B142881A2A09D91F
:102E100082881A2A06D90068034A106000209B881D
:102E20009380704712207047480B002002680020F2
:102E3000014B9A61704700BF480B00200378A3F153
:102E40000A02112A9BBF024A002012209373704786
:102E5000480B0020014B587400207047480B00209D
:102E6000014B987400207047480B0020024B1B68F0
:102E700003B11847112070472816002008B5052017
:102E800000F0C0F805F0DEF8014B024ADA6608BD32
:102E9000480B00204924000008B53F2000F0B2F89C
:102EA00001F072FA01F08EFE05F0D8F8014B024AEB
:102EB0001A6008BD1C160020D581000008B541200D
:102EC00000F0A0F801F068FA05F0D0F805F07AF902
:102ED000034B044A1A60BDE8084000F09DB900BFEA
:102EE00020160020ABFE000008B50122054B1A7128
:102EF00003F01EFC04F046FA0AF0DFFBBDE80840D0
:102F000000F0B2BFCC0B002010B5064C064904F10E
:102F100008000AF089FB04F10C000449BDE81040E8
:102F20000AF082BBCC0B0020D0000020D80000208B
:102F300010B5094C094904F108000AF075FB04F1C9
:102F40000C0007490AF070FB04F110000549BDE8C8
:102F500010400AF069BB00BFCC0B0020E00000204D
:102F6000E8000020F0000020014B1879704700BFF6
:102F7000CC0B002038B5074C0D4600F051FFA0687F
:102F800025600AF049FBFFF779FB01F0EBF801231C
:102F9000237538BDCC0B0020014B187D704700BF56
:102FA000CC0B002010B50C4CE0680AF035FB206912
:102FB0000AF032FBFFF710FB202000F037F82F203B
:102FC00000F034F8262000F031F8292000F02EF827
:102FD0000023237510BD00BFCC0B002000487047B4
:102FE000E10B002000487047E30C0020014B83F800
:102FF00019027047CC0B0020014B93F8190270475F
:10300000CC0B0020C208074900F0070001238340D1
:10301000885C03438B5404490B78934238BF1346B2
:103020000B70704778000020E60D00200F4B012147
:1030300010B503EBD002C40800F0070001FA00F05D
:10304000195D21EA0001195509490B78A34205D100
:10305000002012F8014914B100B10B7010BD002B13
:10306000FAD0013B0120DBB2F3E700BF780000207B
:10307000E60D0020014BD3E90001704778000020E5
:103080000048704780000020064B1878072881BF51
:1030900008381823B0FBF3F001308CBFC0B2002019
:1030A000704700BFE60D0020004870470C61020029
:1030B000054B1868C0F3C022C0F30020400040EA6E
:1030C000820040F0010070477800002008B507F04A
:1030D0002FFA0023074A32F82310814205D302EB6E
:1030E00083029378044A137008BD01330C2BF2D18C
:1030F0000023F7E710610200E70D0020024B18786B
:10310000072828BF07207047E70D00202DE9F04F62
:103110009A4685B0814688469DF838300125147856
:103120009AF8007001920293AC420DD2334B1B7897
:10313000002B56D004EA0700029BC0B2002B3DD101
:10314000002856D1092051E02C4213D06A0714D42C
:1031500015F0010203D1C5F340025200D2B201269C
:103160004FF0000BB7420AD2BBF1000F23D124EA83
:103170000504E4B26D00EDB2D6E70322EFE7374273
:1031800014D0730715D416F0010303D1C6F340031E
:103190005B00DBB24946404603920BF075FAD8F863
:1031A0002030039A984298BF46EA0B0B7600F6B29D
:1031B000D8E70323EEE707EA0B07DBE7B9F1000FD7
:1031C0000FD098F8713098F870201340184009F02B
:1031D00063FCC31E0446DBB2012B96BF04272746BF
:1031E0003C46019B00201C708AF8007005B0BDE8C9
:1031F000F08FB9F1000FEAD1F3E700BFE80D00202E
:10320000014B1870704700BFE80D0020014B187883
:10321000704700BFE80D0020014B024A1A6070475A
:103220002C1600200D3100002DE9F04F046898465F
:103230000F4685B094F86330164604F1A80994F857
:103240000FA043EAD303D90702D4BAF1260F5FD106
:1032500094F8A850002F55D1FFF72AFF8DF80B00E6
:10326000002E51D1FFF724FF2B4B8DF80C00D3F823
:1032700000B0BBF1000F0CD0AAF126022846494647
:10328000534253410DF10B02009303ABD84705465F
:1032900030B99DF80B3013B19DF80C0028B9092501
:1032A000BAF1260F2AD10020034694F8292132B121
:1032B0009B0700F002002DD560B302200346FF22D9
:1032C00084F8392194F8382102F0FF05F2B99DF80D
:1032D000382003A984F83B01484684F8382184F853
:1032E0003A31A4F83C818DF80C708DF80D60ADF882
:1032F0000E800AF0FCF9002384F83931284605B025
:10330000BDE8F08F3846A9E73046ADE73A25F2E749
:103310001A25F3E70925F1E72C16002010B50468FB
:10332000B4F8AA3084F88411A4F8853194F8200107
:10333000FFF72EF884F8870194F82101FFF728F8A9
:10334000044984F8880104F27B10BDE810400AF0BB
:10335000D3BF00BFD9D600002DE9FF4704688946D6
:10336000054694F80EA0AAF1250359425941052AB1
:1033700035D1E37B272B37D104F10F0799F8018072
:1033800099F8026008F0070806F0070608F1FF3315
:10339000721E03EA0803324013431FD130460AF07D
:1033A0003EFA60B394F82031984228D094F83A213C
:1033B000164213D0BAF1250F21D094F819211642E4
:1033C0001DD10138013B474AC0B2DBB21044032B88
:1033D00000790FD81A441379834210D9284604B0D3
:1033E000BDE8F0470AF0E3B9BAF1250F77D104F14F
:1033F0000E07C3E74FF4DD710620FDF705FA4046DE
:103400000AF00DFA40B194F82131834204D094F8C7
:103410003B3118EA030FE1D0B9F8039003AB204623
:103420003246009341464B460AF006FA2C6878BBB8
:1034300094F83831012B28D1E38804F5367294F8DA
:103440002011B4F83C010AF058FA0646D0B90146FA
:103450002846FFF763FF2B6883F838613E702B68BE
:1034600003F10F02974201D10022DA732B6803F1B6
:103470000F0297422FD128460BF0C5F9002004B067
:10348000BDE8F0872C23A373E9E784F83801E6E769
:10349000E388A4F8D89209F1FF39A9EB030947F6AC
:1034A000FD731FFA89F9994506D92823284684F81F
:1034B000313001F0ABF9D9E7E37B0D2B02D00A3BA9
:1034C000012B01D82A23F1E7BDF80C30A4F8DA3239
:1034D00029233B70CAE7002283F84A20CEE7022066
:1034E000CDE700BF40610200034B002283F850206B
:1034F000A3F85220704700BFEA0D0020044B93F858
:103500005020012A1ABF036001200020704700BF2D
:10351000EA0D0020064B024693F8501001291BBF0C
:103520000120A3F85220002083F85000704700BF0C
:10353000EA0D0020054B024693F8500028B11360B5
:1035400011B1B3F852300B8001207047EA0D002012
:10355000054B002293F85000A3F8522010B101202F
:1035600083F85020704700BFEA0D0020034B93F80A
:103570005000B0FA80F04009704700BFEA0D00200B
:1035800050B90A4A0120134603F8010B0868C2F833
:1035900001008A889A807047012805D1034B0A6888
:1035A000D8719A608A889A81704700BF3E0E0020C9
:1035B00050B90B4B187888B1D3F80120B3F8053017
:1035C0000A6001208B807047012806D1044BD8790E
:1035D00020B19A689B890A60F3E70020704700BF1A
:1035E0003E0E002010B9044B18787047012806BF22
:1035F000014BD879002070473E0E0020F7B58A882D
:1036000000238DF80600ADF8042008680B4A8DF8F9
:1036100007300146147802F5A872019DD8B28442A1
:1036200001D8082007E052F8087F01335668AE42FF
:1036300008BF8F42F2D103B0F0BD00BF500E002092
:10364000084B0146002230B55C7803F20113D0B27A
:10365000844201D8082004E013F8015F01328D4252
:10366000F5D130BD500E0020F8B52D4C63782218EE
:10367000013B92F80251DBB28342637030D01A01F1
:103680000101961C8F1C2644274406F1100C56F8A5
:1036900004EB664547F804EBF9D1823282312244CB
:1036A000214402F1100652F8047BB24241F8047B37
:1036B000F9D1E118221891F8026182F80261062618
:1036C0007343704303F5857300F58570E618E3587E
:1036D00027182350B388BB8091F83A3182F83A31E9
:1036E0002846FFF7ADFF082818D12378013BDBB24D
:1036F0009D42237012D02B3305F12B0204EBC30340
:1037000004EBC20293E8030082E803002078FFF78D
:1037100097FF08281CBF241884F80251F8BD00BF89
:10372000500E0020F0B5254D89B095F8984105F26E
:1037300099116846224608F02BFB214668460AF09C
:1037400085F90446B8B300EB400102A8C9B2FDF701
:1037500015FF631E95F8A1610124DBB295F898115D
:1037600005E0721CB2FBF1F001FB1022D6B206F1AB
:1037700020020DEB020010F8202C002AF1D103EBFF
:10378000430100F8204C06EB460220312A446944EC
:1037900011F8187C82F8A27111F8177C11F8161C28
:1037A00082F8A37182F8A411013BAA19DBB282F856
:1037B0009941FF2BD2D109B0F0BD00BF500E0020BF
:1037C00070B5064688B00C46002A4ED0294A92F8B9
:1037D000A131D01890F8991119B9FF212820FDF7CF
:1037E00013F803EB43010133114491F8A251E57042
:1037F00091F8A35191F8A41125716171002180F80D
:10380000991192F89811B3FBF1F001FB103382F893
:10381000A13192F8C23123B9174902F5DD700AF0DF
:1038200068FD65790D220021684605F03F0545F0E9
:10383000400565710DF0F6F9E37804AA69468DF844
:103840000F30304623798DF80D508DF80E3004235B
:103850000DF03BF99DF81F3023709DF81E3063700A
:103860009DF81D30A37008B070BD03216018FDF7EE
:1038700085FED6E7500E002025370000044B5A780D
:10388000824286BF1B1893F84A010020704700BF90
:10389000500E0020044B5A78824286BF1B1893F8C2
:1038A00042010020704700BF500E0020064B00224E
:1038B0004FF461711A8083F8C32183F8C421A3F8FF
:1038C000C61183F8C2217047500E00202DE9F04741
:1038D0008246894617469846FFF790FE0828054617
:1038E000064603D0FFF7ACFE082860D1324C63785F
:1038F000072B5ED8082D15D12678731C072E237050
:1039000003D96C212820FCF77FFF06F12B02D9F8A0
:10391000000004EBC20344F83200B9F8042083F835
:1039200006A09A80657807F110026B1C290163706C
:103930004B1C234412F8010DBA4203F8010FF9D1D0
:10394000813108F11003214413F8012D984501F845
:10395000012FF9D12544102140460AF0A7F8102183
:1039600085F8420138460AF0A1F885F802616678C8
:10397000002385F84A013146104885F83A310AF0AB
:1039800065F80128054607D831460D480AF05EF86B
:10399000002818BF0135EDB284F89851002528465B
:1039A00084F8A151FFF7BEFE2846BDE8F08712203B
:1039B000FBE70720F9E700BF500E0020920F002020
:1039C0009A0F0020064B10B55878013840B20028F5
:1039D00000DA10BDC4B22046FFF746FE601EF5E7D0
:1039E000500E0020014B83F8C3017047500E002099
:1039F000014B93F8C3017047500E0020431E4AF25A
:103A0000B7129BB293429DBF024BA3F8C60101209F
:103A100000207047500E0020014BB3F8C6017047DC
:103A2000500E00200A4B30B55C7884420ED9184401
:103A300090F802012B3003EBC004A5790D7053F808
:103A4000300010600120A388938030BD0020FCE787
:103A5000500E00200246074810B590F8C34124B12B
:103A6000417821B1023004F0C1FC204610BD0C4663
:103A7000FBE700BF500E00202DE9F74F2F4C9A4670
:103A8000804689466378834256D9231893F8425179
:103A900085F00105F9B193F84A31E3B945F0020721
:103AA0000135BAF1000F18D1FA070AD5062104EB47
:103AB0000810524601FB0841823001F58571FFF77D
:103AC0007FFEBB0734D504EB08105246494602304E
:103AD000FFF776FE2CE02F46E3E794F8A1614FF064
:103AE000010B002DE0D0A31993F89911019399B916
:103AF0000092DAB100F006FB019B06EB4601009A4A
:103B00004FEA102C83F899B1214481F8A201000CEE
:103B100081F8A3C181F8A401013694F89831013DE0
:103B2000B6FBF3F103FB1166F6B2DAE747F00407E0
:103B3000384603B0BDE8F08F0027F9E7500E0020AB
:103B4000074B5A78824209D91A1892F842212AB9A9
:103B5000062202FB003000F5857070470020704798
:103B6000500E0020064B5A78824281BF1B1893F8F2
:103B70003A01B0FA80F0400998BF0020704700BFBA
:103B8000500E0020F8B50E46074606211546304671
:103B900009F08CFF044670B10C4B0022587803F2F8
:103BA0003913D1B2884202D801242046F8BD01322F
:103BB00003F8015FF5E73146384609F063FF08284E
:103BC000F3D0024B034483F83A51EDE7500E002046
:103BD000034B80F880101B680BB140881847704772
:103BE000301600200B2808B504D940F229112920ED
:103BF000FCF70AFE014B33F8100008BD48610200D3
:103C0000036830B50024D3F8C80042F21075A3F859
:103C10004040B3F844404443B4FBF1F4A3F84440BB
:103C20004C1E05FB0242B2FBF1F2A3F84220094A06
:103C3000B2FBF1F20132A3F848209A8F05FB02444F
:103C40005A6B5043B4FBF1F4B0FBF1F09C63586342
:103C500030BD00BF005A6202054B1B7833B9054BDB
:103C60001A681B79026003710120704700207047B9
:103C70001810002088000020054BFF221A70054A0A
:103C8000016811600179117100221A70704700BF3C
:103C9000181000208800002007B5064A1068127925
:103CA000009068468DF80420FFF7E6FF03B05DF84A
:103CB00004FB00BF618902000346084671B13F2B37
:103CC0000BD8074AD35C03F07F02914205D08CBF2A
:103CD0000120002000EAD31070470120704700BF88
:103CE00060610200FF230B7002234B7083238B70F3
:103CF000014B1B78CB7070471C1000202DE9F84F4A
:103D0000D0F804800C46D8F81C60304608F08CFCD3
:103D1000054620B94FF4AA711020FCF775FD014645
:103D2000304608F08FFCB5F800B082461FFA8BF7DA
:103D300017B94FF4AC71EFE7224B00F103091B6890
:103D4000D3B998F8023098F803202370637802F012
:103D50000F02A4F802B023F00F03134323F0C003B3
:103D600063709AF8003003F00303012B0FD0022B8D
:103D70000DD04FF4BB71CFE73A464946B8F8020080
:103D8000984705460028DCD12846BDE8F88F6278C0
:103D9000304663F30512627008F05EFC054610B908
:103DA0004FF4C071B8E7FB2F02D940F28F11B3E78F
:103DB0003A464946201D07F0EBFF304608F0A3FBCA
:103DC000E2E700BF3416002038B5134C1022002162
:103DD000201D0CF027FF0125257404F10803102293
:103DE000002104F11400C4E901330CF01BFF84F836
:103DF000205004F11803094AC4E905330023636223
:103E0000A36284F82C30C4F82D30C4F8313084F823
:103E100035301360A36338BD1C1000203416002019
:103E200010B5084C2378FF2B04D040F299111020D4
:103E3000FCF7EAFC07F018FF2070BDE81040FFF720
:103E4000C3BF00BF8D00002010B5034C207807F0E1
:103E500025FFFF23237010BD8D000020014B187833
:103E600007F02CBF8D000020014B024A1A607047FA
:103E70003C160020FD3C00002DE9F341DFF888816D
:103E8000054608F11407D8F80830D8F81840227A07
:103E9000012A22D1D8F8382052B1137A1BB9BF2198
:103EA0001020FCF7B1FCD8F83840C4B9002093E0EA
:103EB0001A7A012AFAD01C46544AEFF3108172B6DE
:103EC00050680068506001B962B6A34208BFC8F8E4
:103ED0003840237A1BB9EE21E2E73A46EDE7267A2D
:103EE000F6B205232372731E0B2B7ED8DFE803F096
:103EF0007A062336773F4E3F3F3F3F6B636813B9E7
:103F00004FF40371CCE72046294698470420EFF38D
:103F1000108272B6237A052BD9B24FF0000369D113
:103F20002372D8F83810A14201D1C8F83830002ADD
:103F300045D162B643E0636813B940F21521AFE79B
:103F40002946204698470346ADF80400C0B2C3F3A3
:103F50000723012B3ED0022BD9D129E0636813B986
:103F600040F21D219CE7204698470020CFE7284BD0
:103F70001B68002BF9D03246606829469847A6F1A5
:103F80000A020420534253415B00E4E763680BB923
:103F9000FE2185E786222A7001225988AA706A715B
:103FA00000229869A5F80310AA7108F0ACFA042061
:103FB000D8F83830A34202D10023C8F8383000289E
:103FC0003FF461AF08E0134B294620461B68984731
:103FD000034668B9267298B102B0BDE8F0814FF48B
:103FE00015715DE740F257215AE740F25A2157E731
:103FF0000220DDE711B940F27B2151E7184696E730
:10400000002B7FF440AF51E71C100020201000204F
:10401000381600203C160020134610B5027A22B153
:1040200040F202311020FCF7EFFB0A46014602483D
:10403000BDE810400AF03AB920100020044890F87A
:104040002C301BB9034924300AF04DB9704700BF2A
:104050001C1000209DE200000346064890F83C201A
:104060003AB190F8352022B9034900F82D3B0AF007
:104070003AB970471C100020E53C00000A4610B514
:10408000037A23B140F20A311020FCF7BDFB014650
:1040900007230248BDE810400AF008B9301000209C
:1040A0001346027A0AB1037270470A460146014874
:1040B0000AF0FCB82010002001490AF01DB900BF29
:1040C000FFE200000B8BA2F809001046A2F80B30AB
:1040D0004B8BA2F80D308B8BA2F80F30CB8B0249A3
:1040E000A2F811300AF002B9A9E30000014B1878D8
:1040F000704700BF59100020014B1878704700BF6F
:104100008E000020094AD2E90003434083EAB0113F
:1041100081EA43214FEAF34311605360044B584353
:104120004FEAF06000EB8000704700BF5C10002099
:10413000BB79379E094AD2E90003434083EAB011B4
:1041400081EA43214FEAF34311605360044B584323
:104150004FEAF06000EB8000704700BF9000002045
:10416000BB79379E10B50A4C08210948FDF706FABD
:10417000D4E900321343F7D0064CFFF7DBFF206091
:10418000FFF7D8FF236860601843F6D010BD00BF6A
:10419000900000205C10002038B5A0F10B031446FD
:1041A0000D46DBB22046432B96BF0C4AFE21D15C64
:1041B0000AF0CFFA88B985B12978342909D03F2986
:1041C00009D0272908BF26212046BDE838400AF03B
:1041D000C0BA3221F8E73E21F6E738BDA0610200FF
:1041E000094B0A4A1A600A4B0A4A1A600A4BC0F87D
:1041F000B0300A4BC0F8AC30094BC1F8B030094BB5
:10420000C1F8AC30704700BF841800201F050100C2
:1042100088180020C1820000F58200001D82000085
:10422000EB0401003D050100094B0A4A1A600A4BE4
:104230000A4A1A600A4BC0F8EC300A4BC0F8F0305A
:10424000094BC1F8EC30094BC1F8F030704700BFA2
:104250009C180020DFFE0000A01800201D000100B7
:1042600057000100A502010069FF0000BD03010025
:10427000174B184A9A60184A5A60184A1A60184A26
:104280009A62184ADA62184ADA60184A9A61184A39
:104290001A63184A1A62184ADA64184A9A64184A61
:1042A0005A62184B184A9A60184A5A62184ADA62D7
:1042B000184A1A61184A5A61184A9A61184A1A63C8
:1042C000184A9A64184ADA64184A9A63704700BF19
:1042D00040160020CDE80000F3E800001FEA0000CF
:1042E000BDEB000019EC0000354900002BEC00008C
:1042F0000D4C0000554A0000FDEC000023ED0000CD
:10430000B14A000040170020E3E80000C3EC0000C1
:1043100049EC0000F9EB000069EC0000E549000001
:10432000C9ED000067ED000053ED0000ADEC0000AA
:10433000044B054A5A65054B054A1A65054A5A65F4
:10434000704700BF4016002019EF00004017002002
:1043500003EF000043EF0000054B064A9A65064A4A
:104360001A66064B064A9A65064ADA65704700BF28
:1043700040160020ADD9000059330000401700203E
:1043800007D80000EFD9000001490248FFF728BF15
:10439000401700204016002001490248FFF744BFA3
:1043A0004017002040160020F7B5044601A80F462C
:1043B000FFF7A4F820B94FF4AA615120FCF724FAC2
:1043C0005022002101980CF02DFC019D3F2F2E461C
:1043D00006F8037F43D83F2F44D8DFE817F04600A4
:1043E0004C006C0075008D00740174019A00B300DC
:1043F0009E0074017401A300AF00B30043004300AA
:10440000B70074017401CC00CC00E300E300EA00C3
:10441000430043007401EF00FC00000104010B01A4
:104420000D010F0111011B0125015401560143002B
:1044300043002D015E015C0146013C013E0140014B
:10444000420148014C014A015001740143004E01F0
:104450004401520160016201430058015A01FF2FDB
:1044600000F0258140F24451A7E7214630460AF08A
:1044700043FBC0B9BBE02668D6F838326B6096F8CB
:104480003C322B72206890F89F3033B90AF00BFA57
:104490002368DB881844A6F83E02B6F83E320820AE
:1044A0006B721B0AAB72FFF735F8002840F00D81E4
:1044B00040F2575181E7236893F8A82052BB93F844
:1044C0002D3102202B71EEE723681720D3F88022CC
:1044D0006A60D3F88422AA60B3F88822AA81D3F84C
:1044E0006022C5F80E20D3F86422C5F81220D3F854
:1044F0009030C5F81630D6E722680D20D2F8FE318C
:104500006B60D2F80232AB602368D3F89430EB6072
:10451000C9E7236893F8A030D3E73146204600F07E
:1045200033FBA6E7112306202B7159236B7100235F
:10453000AB713923EB7130232B72B4E7236893F806
:104540009A30BEE7304600F00DFB92E7236893F8FF
:10455000A82052B993F8A0203AB193F89D202A716F
:1045600093F89C3003206B719DE793F89B202A7190
:1045700093F89A30F6E723680920B3F80C212A71E2
:10458000120A6A71B3F8A220AA71120AEA71B3F88A
:1045900008212A72120A6A72B3F8A030AB721B0AA1
:1045A000EB7280E7236893F83A212A7193F83B3144
:1045B000D8E72146304609F0BCF95AE723681121B3
:1045C000B3F8AA00FCF762FD00F15B01304609F088
:1045D000B8FD232067E730460BF01FFB49E7304664
:1045E0000BF024FB45E73A4B1B68002B5BD140F2F4
:1045F0004951E2E6374BF7E7374BF5E7374BF3E73F
:10460000374B1B68002BF2D02320224631469847B7
:10461000042048E7324B1B68002BE8D02246314685
:104620002420984705203EE72D4B1B68002BDED049
:10463000224631462520F4E723681121B3F8AA0069
:10464000FCF724FD00F17D0200F15B01304609F02A
:1046500084FD2B2027E7234BC6E7234BC4E7234BDE
:10466000C2E7234BC0E7234BBEE7234BBCE7234BFA
:10467000BAE7234BB8E7234BB6E7234BB4E7234B0A
:10468000B2E7234BB0E7234BAEE7234BACE7234B1A
:10469000AAE7234BA8E7234BA6E7234BA4E7234B2A
:1046A000A2E7234BA0E7214630469847E1E623687E
:1046B000304693F8CF22D3F8D01209F00FFD2368CB
:1046C00093F8CF02D5E60120EDE603B0F0BD00BFC0
:1046D0004018002048180020441800204C180020E2
:1046E0005018002054180020581800205C18002092
:1046F00060180020741800207C1800206418002026
:104700007818002080180020681800206C180020FD
:10471000701800208C180020901800209418002099
:104720009818002084180020881800209C18002069
:10473000A01800203F289ABF024B53F82000002009
:10474000704700BF401600203F289ABF024B53F825
:1047500020000020704700BF4017002030F8023CC6
:10476000F7B504460E46B0F8825073B10122684690
:10477000ADF801508DF80020ADF80330FEF7C6F813
:1047800018B195216320FCF73FF81C4B1B6813B14F
:10479000A4F1280098471A4B1B680BB1284698478C
:1047A000184B1B680BB12846984783230027A6F8AF
:1047B00003503370B770637AD4F89C00737107F0BC
:1047C000ACFE08B9BA21DDE739462846FCF774FC8F
:1047D00002212846FCF770FC18B90B4B1B6803B18B
:1047E00098474FF40173002003F004021B0A62F3A0
:1047F000070063F30F2003B0F0BD00BFA418002032
:10480000A8180020B0180020AC180020F7B50568E3
:1048100004464FF6FF77D5F8C0600DF102010DF1A7
:1048200001023046ADF8027007F026FE01A93046BD
:1048300007F044FE48B1019807F00CFF2168A83149
:1048400000220272FFF71AFCE7E7044905F128008D
:1048500003B0BDE8F04009F049BD00BF5D4700006E
:10486000F0B5044685B00D46FF2600F8E96C10F857
:10487000EA3CF3B1174F3B781BB162211F20FBF7D5
:10488000C3FF0C21381DFCF779FE3E70002304F8AD
:10489000E93C8A232A4602F8033BD4F80930C5F8DC
:1048A0000330D4F80D305360D4F81130936005B064
:1048B000F0BD01A80C21FCF761FEA4F51773039A63
:1048C0001A6001AB03CB44F8F20C44F8EE1C04F878
:1048D000EA6CDBE76410002010B5054C23782BB997
:1048E0000C21201DFCF74AFEFF23237010BD00BFE2
:1048F00064100020024690F80632BBB990F80732E7
:1049000003F0FF010BB100207047094B1878002815
:10491000F9D01970D9680433C2F8941003CBC2F8E7
:10492000FE01C2F80212FF2382F80632012070470E
:1049300064100020026870B5D37B04460D463BB17D
:10494000132B05D0113B0F2B8CBF0120082070BD0D
:10495000D2F8A430002B3BD192F8523013B9204644
:1049600009F03FFFD5F80B302268C2F8F631D5F8D0
:104970000F30C2F8FA312368D5F81320C3F890201D
:10498000B3F8AA20A3F8F922D5F80120C3F8FB2236
:10499000D5F80520C3F8FF222368B5F809200025C3
:1049A000A3F80323236883F8BE5183F806522068D6
:1049B0000B4900F53C7009F096FC2668204608F08B
:1049C0004EF8162286F86A0028462368DA73BEE796
:1049D00020460C220321BDE8704009F028BF00BF2B
:1049E00061480000036810B5DA7B0446202A04D031
:1049F00040F29D211F20FBF707FF002193F8522072
:104A0000B3F8AA0083F8511082B1C3F8C91183F832
:104A10005210A3F8CD11A3F8CA0103F5E0700B49B9
:104A200009F061FC23680022DA7310BD0121A3F8AC
:104A3000B90183F8B82103F2AF1083F8BB1183F8F2
:104A4000BF210349A3F8BC21EAE700BFA5EB0000A2
:104A50008DEB000038B5046894F8A8501DB9E37BCD
:104A600023B101201AE02368DB07FAD4D1F8012032
:104A70000D4BD1F8051013400C4AC4F86230C3F353
:104A800007630A4043F00803C4F8662084F86530E1
:104A900009F0A7FE1DB90423E373002038BD236885
:104AA00043F001032360F8E72FC904F76FDB0080B0
:104AB00038B503689A7B042A34D1D1F801204C1C04
:104AC000D1F80550C3F86220C2F30762C3F86650FC
:104AD00042F0080283F86520002283F84A209A7386
:104AE000026892F8A8200AB983F83F2193F8402180
:104AF000B2B993F8912102F0FF008AB9B3F8AA2065
:104B000083F8920103F28910A3F89321D1F80120D0
:104B10000549C3F895216268C3F8992109F0E3FBC0
:104B2000002038BD0120FCE783EC0000036893F807
:104B3000402112B1094B1B68184793F891215AB9CB
:104B4000B3F8AA2003F289100549A3F893211A2289
:104B500083F8922109F0C7BB704700BFB41800204A
:104B600083EC000010B50446FEF784FA044A054BB6
:104B7000024009200B40C4F80120C4F8053010BDE4
:104B80002FC904F76FDB008037B50C460568FEF7C8
:104B900071FA0A4B0A4A03400A4095F862100093E2
:104BA0000B4001928DF800306B4603CBC4F8010036
:104BB0000920C4F8051003B030BD00BF2FC904F7A9
:104BC0006FDB0080014B024A1A607047B418002066
:104BD0008583000038B5DB04154604D5037D13B189
:104BE0000023436338BD446B013444630AF0CBF8BF
:104BF000836B9C42F6D30023034943632846BDE8F8
:104C0000384009F079BB00BFF1EC000070B50468D2
:104C10000546A37B94F8A860012B07D01EB9E37B5F
:104C200023B1012038E023689807FAD494F8533070
:104C30009A0713D44A78D80784F85D204A88A4F8E4
:104C40005E208A88A4F8602043F0020284F8532092
:104C50000FD5164904F1540009F04EFB94F8533077
:104C6000D90710D4CEB9E37B43B153214020FBF7E1
:104C7000CBFD94F83E31002BEBD1EFE70123E3733A
:104C8000284609F0AEFDA37B0020012B4FF0000366
:104C900004BFA37384F84A3070BD23689A0701D516
:104CA0005821E3E743F002032360E9E7A7ED0000A2
:104CB00070B50568044603F01BFA054B0146E8721F
:104CC0001B681BB12046BDE87040184770BD00BF8F
:104CD000BC180020024B1B6803B11847704700BF87
:104CE000B8180020F0B51F4D00242B7814709BB12C
:104CF000013B6D68DBB21E1B012E0FDC05EBC40609
:104D000055F8347076688E4208BF874227D0B84283
:104D100071EB060612D214700020F0BD1E19771038
:104D2000C6F3470655F837C005EBC70E8445DEF8D5
:104D300004708F412CBF33463446DCE705EBC304D7
:104D400055F8335064688C4208BF854206D0A842AB
:104D500071EB040428BF01331370DDE71C4601200A
:104D60001470DAE78410002010F0070208B503D0B1
:104D700063214820FBF748FD18B1034B19725860B6
:104D80001A70C80008BD00BF84100020014B00222B
:104D90001A70704784100020024B1879003818BF31
:104DA0000120704794100020FF23084A0B700D2348
:104DB0004B7082238B701368C1F803305368C1F8BD
:104DC00007309368C1F80B30704700BF9A1000207D
:104DD0001622002101480BF025BF00BF9A100020C9
:104DE000F8B51C4D04466B7D9BB390F8A83023BBEF
:104DF000D0E978760AF04CF894F82021164B52301E
:104E000053F822304FF47A7203F2E733B3FBF2F334
:104E1000DB19B4F8AA2046F100061B182A8046F1D7
:104E200000066B60AE60E38805F10C0002220B49BE
:104E30006B80BDE8F840FFF733B94B0609D5B0F8F1
:104E4000AA302B80D0F880326B60D0F88432AB600F
:104E5000E9E7F8BD9A1000208C630200A94D00001C
:104E6000094B53F8203003F5224370B5B133164691
:104E70004FF47A720C46B3FBF2F5344404F044FB71
:104E80002C44204470BD00BF786302002DE9F04F30
:104E900098468BB0002304460F460392069390F881
:104EA00021B108F017FC064694F82B01FEF79AFE94
:104EB000064409F0EDFFE37B00F14805B6B2472B4D
:104EC00047D00D2B45D094F80E90A9F14701D1F1B0
:104ED000000949EB0109039B002B40F08580637BAF
:104EE000032B40F08180B9F1000F6AD0B4F8D832BA
:104EF000BB4266D1D4F820322046B4F8F421C4F87D
:104F00001032D4F8C830C4F81432B4F892321344D2
:104F1000C4F8183203F022F894F829A1BAF1000F6E
:104F200009D0D4F8E02241F64B539A428CBF4FF09F
:104F3000000A4FF0010A94F8EC326BB9D4F8C8209B
:104F4000D4F8E0329A4221D0B4F8AA000AF084FEE4
:104F50001CE04FF00109BEE7B4F8AA000AF079FEA0
:104F600020B940F242713020FBF74EFCB4F8E83231
:104F70004FF0000AA4F8DE30B4F8EA328381B4F8C6
:104F8000D832A0F80EA04381013B038294F82A3165
:104F9000002B4ED1BAF1000F4ED1D4F8DC3284F898
:104FA0002AA1C4F8D830B4F8DA32A4F8DC30D4F846
:104FB000E032C4F8C830D4F8E432C4F8D030022368
:104FC0006373A17B292946D0A1F12C0251425141A2
:104FD000E27B292A00D039B1B4F8D832FB1A1B047D
:104FE00002D4204602F074F9B4F890A204F51873C4
:104FF00094F82101A7EB0A0A0293E3880FFA8AFAD0
:10500000FB1ABAF1000F0FFA83FC26DAE246D4E964
:105010009E23C4E9A223002384F833320123627B58
:10502000032A00F2B581DFE812F01A002A017000AD
:105030004E01BAF1000F07D04FF04D13C4F8E03025
:105040000023A4F8E430A8E74FF09613A4F8E4A0F6
:10505000C4F8E030A1E70121BAE74346DFE70146A3
:1050600094F8ED0108F07DFD8246D4F8D800314671
:10507000504405F011FA3146C4F81C02D4F8C800B7
:1050800005F00AFA07A9C4F8200208A804F094F968
:10509000079B0093DDE90823D4E9A2010BF023FB71
:1050A000064604F1A80009F07CFFD4F8943294F885
:1050B0002101D4F8D8B0069304F02EFA069B00F52F
:1050C0002240D4F81C124FF47A72203BB1305B447A
:1050D0005B1A30315B1BB0FBF2F053442A469B1B3A
:1050E0001B1A94F821010693B4F8DC3003EB41015C
:1050F000FFF7B6FED4F89422069BC4F824029B1A4C
:10510000B92B5CD840F2C7412DE7D4F8D8303146EE
:10511000D4F81402184405F0BFF93146C4F81C0253
:10512000D4F8C80005F0B8F9C4F8200204F1A800CA
:1051300009F037FFD4F8D830D4F814621E44B4F81C
:10514000F431002B40F09780B8F1000F00F093800D
:1051500094F8210104F0E0F9D4F81C12D4F880325C
:1051600000F52240761A94F82121B130203E1E44E9
:10517000A44B53F822204FF47A7302F2E732D4E9B9
:105180009EABB2FBF3F2A6EB0A06B0FBF3F01644BB
:10519000761B361AD4F81032D4F8182294F821016C
:1051A00002FB0311B4F8DC302A460696303103EBDB
:1051B0004101FFF755FE0123C4F824026373D4F8BC
:1051C000C83004F1E800D4F82022723B06999B1AFB
:1051D0005D1BD4F824329D4228BF1D46002384F86D
:1051E0006032C4F8F051D4E9A2325B1842F10002F7
:1051F000C4E99C3209F022F904232844A4F89072EF
:1052000084F86932C4F86402D4E99C23C4E9A22377
:1052100002F074F920B1D4F864321E33C4F8643259
:10522000B4F8E031DB1B18B20028D4BF00230123FF
:105230005B0084F86832B9F1000F40F0AC80B8F13F
:10524000000F40F0AB80637B002B00F0C380D4F8EC
:10525000C81004F51870D4F82032C91A08F032FCCE
:1052600080B2002800F0B680149B03B118800120A2
:105270000BB0BDE8F08FD4F81C12761A8AE7D4F888
:105280002022D4F8C830D4F818129B1AD4F810622F
:105290000AFB03F30693B4F8F4319C44D4F81C32AF
:1052A000ACEB010C30330CF1FF3C06FB0133B4F8DE
:1052B000DC1002FB0C332A4601EB4301FFF7D0FD63
:1052C000C4F824027BE7D4F8C82002FB0AF2069255
:1052D000B8F1000F1CD0B4F8F411C9B984F8331236
:1052E000D4F8201201FB1A2EB4F8F4A10291CDF8E3
:1052F00018E06BB3BAF1000F2AD1D4E9A061D4E968
:105300009E23B24273EB010108D340F20E512AE60C
:1053100094F8331200297FF452AFE1E7394B203E75
:1053200053F82B104FF47A7BD4E99E23CDE9042364
:1053300001F2E73301F52241049AB131B61AB3FB09
:10534000FBF3B1FBFBF11E44761A761B76440696FE
:10535000029BE2442A4603FB0AFA0AF1300A4FEAAA
:105360004A0A5146FFF77CFD41F64B53C4F824022C
:10537000D4F8C80098423FF622AF06AB2A46514601
:10538000009304F5097308F008FC84F8330216E76B
:1053900040F22651E7E5B8F1000F1BD0B4F808122F
:1053A00039B3B4F80A2294F80C32551CA4F80A2236
:1053B00002FB033399420DDD00280BDD0023A4F826
:1053C0000A5284F86832FEF79DFE00F007000130B3
:1053D00084F80C02394608A8089407F045FB04F548
:1053E000187104F50E7005F0FFFF20B940F27651F8
:1053F000B9E50A46D7E7039B83F0010384F830320E
:10540000002035E778630200F0B5044685B018B98E
:10541000A5213020FBF7F8F9052900F2DA80DFE852
:1054200011F00600D30038003300D800CE0090F809
:105430003032C288FBB1B0F82E32934208BFB0F8C8
:10544000E4319A1AA0F8E621E3802046D4E99C23AF
:10545000C4E99E2301F0A4FF94F84C30002B00F027
:10546000AC805D4B1B68002B00F0A780204605B088
:10547000BDE8F0401847B0F82C329B1AA0F8E6318E
:10548000B0F82C329BB2DFE705B0BDE8F04003F086
:105490009FBF0BF020F9D4E99E23801A61EB030132
:1054A000012871F1000302DA40F20161B1E76FF007
:1054B000010383424FF000038B4102DA40F20261A4
:1054C000A7E7D4F8C8300BB1B0FBF3F3E07BB4F836
:1054D0002E2247280ED0A17B463901290AD90D2852
:1054E00008D0E1880B449BB2D11A0D0443D5013397
:1054F0009BB242E00132A4F82E22B4F8923203AEFD
:10550000E5880133354FA4F89232B4F842301D4497
:10551000B4F84030013DED1AADB23B685BB1B4F870
:105520002E1200222046013989B29847B4F82E3253
:105530001844A4F82E02B4F82E126B1A18042CD4B6
:105540000023204600961A46FFF7A0FC012834D11C
:10555000B4F82E22B4F8E011BDF80C301344521AFE
:1055600012049BB204D5EA1A12F4004F18BF0B467E
:10557000A4F82E32D1E7013293B2A4F82E3294F877
:105580003132002BB9D1B4F8E431B4F82E22934271
:1055900004BF0133A4F82E32AFE7A37C3046039456
:1055A000002B14BF08233E2384F83130FFF72EF977
:1055B00020460AF0CCFA0023637305B0F0BD05B0B5
:1055C000BDE8F04007F015BA437B042BF3D0C621A9
:1055D0001FE7CB211DE700BFC0180020C81800201E
:1055E0002DE9F8430E46044618B9D3213020FBF7C5
:1055F0000BF9052900F2A780DFE801F00376413DB1
:10560000A52E0BF012F9C4E95001204601F05AFA18
:10561000D4F83401A4380BF060F820460AF0B1F851
:10562000054600BB0146204609F078FF00F1AE06B2
:10563000D4F83401B04209D2301A0321192838BFF6
:1056400019200BF0C4F860B10BF049F8C4F83461CC
:1056500020460AF0D8F845B12046BDE8F8430AF0E4
:10566000D3B80125F2E70025F2E7D4E95023C4E9D5
:105670004A23BDE8F883BDE8F84303F0A9BE09F06A
:1056800073FF04238146884684F839310BF023F8F0
:1056900007220F46A9FB023102FB0811D4E94A5246
:1056A0005B1941EB0205D4F810213AB159EA08021E
:1056B00004D0984277EB050228BF012684F83861B0
:1056C000D4E95226121A66EB070694F8581139B934
:1056D000012A76F100010BDA204601F0FBF903E024
:1056E000012A76F10006F7DB002384F85031C0E789
:1056F000984277EB05010FD259EA08080CD01B1A23
:1057000065EB07019A4276EB010005DB012B71F195
:105710000000A4BF1A460E460C49012304F1E8001C
:10572000914284F851314FF0000384F83031B34195
:10573000B8BF0A4604F5987105F0B6FE002898D166
:1057400040F2B26152E7EF2150E700BF0040420F44
:105750002DE9F84304460E46154690F8503103F003
:10576000FF07002B40F0948000F1E80839467822CA
:1057700040460BF057FA2246464940460BF0D2F815
:10578000C4F81061FF2384F8503166B1FEF7D2FCF3
:1057900000F0070032464049013086F80C0206F559
:1057A0000E700BF0BFF840F202434FF00009A4F86E
:1057B000383184F8309104F0C5FE00F149062046E6
:1057C00009F0DFFF0146B6B2C0B307F083FF00F176
:1057D0002801284689B204F05FFE2844AE3DC4F893
:1057E00034010AF078FF3018A4F8269041F1000146
:1057F000C4E95001012084F814010AF09CF82D1A24
:10580000C4F818514FF0FF356FF000414046D4E91D
:105810005023C4E95251002504F59871C4E9482386
:10582000C4E94A2384F8515142F2107205F03CFE5B
:1058300038BB40F2B9113020FAF7E6FF2046DFF816
:105840005C9009F06BFEAE30C4F83401B9F800008A
:1058500048B1E08C38B1FEF76DFCB9F80030B0FB10
:10586000F3F202FB130006440AF035FF361841F14B
:105870000001C4E95061002DC4D0AD1941F100010F
:10588000C4E72946204609F0C1FF3846BDE8F88341
:105890000C27FAE7E155000009540000B010002081
:1058A000F0B5002385B0CDE9003303238DF8063031
:1058B0006846FBF725FC88B10123114EB370002325
:1058C000CDE9023302238DF80E3002A8FBF718FC55
:1058D000044638B10023B37005B0F0BD009809F05C
:1058E000B6FBE5E7029D6B7B002BEED005F50E774E
:1058F00038460AF013FF38460AF01CFF6C73E4E7E1
:10590000B0100020044B0022DA709A7042F210723C
:105910001A80FFF7C5BF00BFB0100020014BD87040
:10592000704700BFB010002008B503F0BBF9044B6E
:105930005A6882422ABF9878002080F0010008BD92
:10594000B0100020F0B5044685B090F84C3003F05C
:10595000FF05002B68D1437B032B65D10AF0BBFE0A
:10596000D4E99E23801A61EB0301012871F1000341
:105970005ADB6FF00103834275EB010104DA40F258
:10598000AA513020FAF740FFD4F8C820E3880AB1C2
:10599000B0FBF2F2013313449BB2A4F82C32B4F8FA
:1059A000E431B4F82C229B1A1BB2002B3CDD04F529
:1059B0000E700AF0B3FE002836D0FF2384F831328F
:1059C000B4F842300DF10E07E588184E1D44B4F8C6
:1059D0004030013DED1AADB2336863B1B4F82C121A
:1059E00000222046013989B29847B4F82C32184475
:1059F00080B2A4F82C02B4F82C32EB1A1B0413D496
:105A0000B4F82C1200230122204689B20097FFF738
:105A10003DFA012808D1B4F82C32BDF80E20134409
:105A20009BB2A4F82C32D7E705B0F0BDC81800200F
:105A30002DE9F7430446062900F2A980DFE801F0CA
:105A400004251422282DA100524B9B7803F0FF025D
:105A500053B900920123B0F8E411FFF717FA28B107
:105A600040F2CE61302031E00423637303F022FB67
:105A700005F0A6FC0023E288A4F89232A4F82E22B6
:105A800084F8313203B0BDE8F08303234373F9E7B0
:105A90000AF07DFDC4E9A001F4E73F4B00F1A8083E
:105AA0001B681BB14246D0E9A00198471321B4F806
:105AB000AA00FBF7EBFA002861D094F82131022B01
:105AC0005BD005D8012B08D0DC21B420FAF79CFE6E
:105AD000033B012BF8D81E3000E00A30858894F88B
:105AE0002101DFF8B090C31E012B8CBF00272827AF
:105AF00009F040FA6430D4F82022373FA842FFB2C0
:105B000034BF2B1A0023D4F8C85099188D428ABF8D
:105B1000AD1A0025ED1A99F8033023B9D4F8E8300E
:105B20009D4228BF1D46D4F8F06104F1E80008F05A
:105B300085FC064402200AF020FE0221AD1B25EA66
:105B4000E575854228BF054628460AF040FE10B19B
:105B50002E440AF0C4FD01233A463146404608F07F
:105B600079FDD4F8F031C9F80400D4F8C80018441D
:105B700003B0BDE8F0430AF0B0BD1430AEE796259F
:105B8000ADE7A83003B0BDE8F04309F00ABA40F22F
:105B90009C7167E7B0100020C4180020014B1880EA
:105BA000704700BFB0100020044B1A78012AD0B211
:105BB00003D01878831E584258417047B81000200F
:105BC0000C4B4FF47A7253F82130023903F2E73369
:105BD000C9B2B3FBF2F3022900F1FF3210B54FEA6C
:105BE000C21296BF044CF02134F81110134400FB8C
:105BF000013010BD8C630200E4610200D928F0B5C9
:105C0000054628BFD925BDF814600446303501F596
:105C1000A57006F00207ADB2FF2D28BFFF2516F0D4
:105C2000010621D10FBB002B00F0C580911EC9B227
:105C3000022996BF7B4D40F6480135F81110084403
:105C4000D92C7FD9D93C951EF721A4B2EDB2002BF7
:105C500000F0CF80F634022DB4FBF1F400F2C680E0
:105C6000714B33F815306BE0EFB1911EC9B20229C8
:105C700097BF6E4D4FF4147105EB4101C988014483
:105C8000D01E012837D801F614409830002E3BD0A2
:105C9000023AD2B2022A97BF644BC02303EB4203FD
:105CA0005B8A18444EE053B1911EC9B2022997BFD6
