:10000000F06D0020512C0000F9B201003D2C0000E1
:100010003D2C00003D2C00003D2C00003D2C00003C
:10002000000000000000000000000000892C00001B
:100030003D2C0000000000005D2E00003D2C000063
:10004000DD2E0000DD2E0000DD2E0000DD2E000084
:10005000DD2E0000DD2E0000DD2E0000DD2E000074
:10006000DD2E0000DD2E0000DD2E0000DD2E000064
:10007000DD2E0000DD2E0000DD2E0000DD2E000054
:10026000DD2E0000DD2E0000853D0100DD2E0000AA
:10027000DD2E0000DD2E0000DD2E0000DD2E000052
:10028000DD2E0000DD2E0000DD2E0000DD2E000042
:10029000DD2E0000DD2E0000DD2E0000DD2E000032
:1002A000DD2E0000DD2E0000DD2E0000DD2E000022
:1004800053B94AB9002908BF00281CBF4FF0FF31FB
:100490004FF0FF3000F00CB8ADF1080C6DE904CE60
:1004A00000F018F8DDF804E0DDE9022304B070473D
:1004B000704700BF034611F8012B03F8012B002AF7
:1004C000F9D17047034613F8012B002AFBD1181A03
:1004D000013870472DE9F0478C468E46089E154638
:1004E00004461946002B40F0D080724547D9B2FA35
:1004F00082F74FB1C7F120030EFA07FCBD40BC40A4
:1005000020FA03F343EA0C0C4FEA154EA8B2230C71
:10051000BCFBFEF80EFB18CC08FB00F943EA0C43C9
:10052000994528D9EB1808F1FF3204D2994502D930
:10053000A8F102022B44A3EB0903A4B2B3FBFEFC17
:100540000EFB1C330CFB00F044EA0344A04214D918
:100550002C190CF1FF3304D2A04202D9ACF10203F2
:100560002C44241A43EA02401EB1FC4000233460AC
:100570007360BDE8F0874246DDE76346F1E7002A95
:1005800079D0B2FA82F3002B3FD01946C1F1200393
:1005900002FA01F500FA01F42EFA03F20EFA01FE56
:1005A00020FA03F3AFB243EA0E034FEA154EB2FB53
:1005B000FEFC0EFB1C201A0C0CFB07F842EA004262
:1005C00090455AD9AA180CF1FF3004D2904502D9AF
:1005D000ACF102002A44A2EB08029BB2B2FBFEFC83
:1005E0000EFB1C220CFB07F743EA02439F4246D94D
:1005F000EB180CF1FF3204D29F4202D9ACF1020297
:100600002B44DB1B42EA004202E0AEEB0203012274
:100610004FEA154EAFB2200CB3FBFEFC0EFB1C33B1
:100620000CFB07F840EA034398452AD9EB180CF174
:10063000FF3004D2984502D9ACF102002B44A3EB61
:100640000803A4B2B3FBFEFC0EFB1C330CFB07F744
:1006500044EA0344A74216D92C190CF1FF3304D203
:10066000A74202D9ACF102032C44E41B43EA004048
:100670000F46114678E71F2188E76046ABE76246E0
:10068000BFE76046DBE76346EFE7734506D916B977
:10069000002108466DE7C6E9000EF9E7B3FA83F7D3
:1006A00087B9734501D3824207D8841A6EEB0303DE
:1006B00001209C461EB900215BE73846FAE7C6E9EF
:1006C000004CF8E7C7F1200CBB4000FA07F422FA0F
:1006D0000CF520FA0CF1BA401D432EFA0CF30EFA79
:1006E00007FE4FEA154941EA0E011FFA85FEB3FBEA
:1006F000F9F809FB18300B0C08FB0EFA43EA00432B
:100700009A4540D9EB1808F1FF3004D29A4502D936
:10071000A8F102002B44A3EB0A0389B2B3FBF9F85A
:1007200009FB183308FB0EFE41EA03418E452CD924
:10073000691808F1FF3304D28E4502D9A8F10203EB
:10074000294443EA0040A1EB0E01A0FB0298414579
:10075000CE46434602D306D14C4504D20138B9EB0C
:10076000020E68EB0503002EA5D0B4EB0E0261EB80
:10077000030101FA0CFC22FA07F3F9404CEA0303E7
:10078000C6E9003197E74046C5E74346D9E7000090
:100790002DE9F043044640F2712690F84C0094F89D
:1007A0003830C0F3400060F386138DB004F13A0195
:1007B00084F838300AF046FE0021B4F840303E4D4F
:1007C0003E4AA3FB0663651B94F83830A2FB05255F
:1007D000A26C03F0790384F8383002F21313B342A9
:1007E00032BF184630460A46C4E90211217024611E
:1007F000626460600AF0DAFD6369C5F3871500F290
:100800001317002B41D00DF12C08022391214FF03A
:100810000009CDF820800694294A0B932948B4F8A2
:1008200040300792A3FB000201FB0321264BCDF8C9
:100830000C9005936368023504931DA3D3E900234C
:10084000FFF71EFE104619464FF47A720023FFF799
:1008500017FEEDB20321CDE901603B462A4648462A
:10086000CDF800900AF078FC41460BF0A9FA40B9A7
:1008700094F84C3043F0010384F84C300DB0BDE8DF
:10088000F0830C200DB0BDE8F0830DF12C08CDE90C
:100890000A330320434661680AAA13F075F800285A
:1008A000B3D1DDE90A371F44AFE700BFAFF30080E3
:1008B00000CA9A3B00000000E0100020CDCCCCCC58
:1008C000ADB40000002AE784CDD90000032910B59B
:1008D0000C4607D80122074B1A7019F012FE064B7E
:1008E000C3E900012146BDE810404FF4FA72034805
:1008F00019F0ACBF623E00205008002058F90100FA
:100900001FB53023074A0849CDE90123002301A878
:10091000039305F00DFA0146044819F097FF05B05E
:100920005DF804FB01006000C50A00008EF90100BB
:10093000F8B51CF0A7FC104A1368BBB10F49136847
:100940000C68C31A9C4288BF0B600D490C689C421E
:1009500038BF0B600B49D1E900679C1947F10005CE
:10096000C1E9004508490B6801330B601060074A74
:10097000136801331360F8BDB0150020E8010020B2
:10098000AC15002048080020A8150020B415002050
:1009900073B506460C4629B91E4819F057FF0020CA
:1009A00002B070BD137C1C4D032B19D108461CF0FE
:1009B000DBF81A4B1A4918801B8830462B8100231C
:1009C0008DF8043042F60213ADF8063001AB0B602F
:1009D000238A02330B8104230B7408F099FBDEE7B2
:1009E0000126104BAE812B600B8A29466B8109F0E2
:1009F00043F8014610B110F1780F08D10A4B0B48AB
:100A00001E70064B198889B219F020FFC7E7084805
:100A1000FAE700BF9AF90100E0150020443D0020EC
:100A2000F8150020B50B0000633E0020B3F901006B
:100A3000C6F90100084B1B786BB1084B1B7853B10A
:100A4000074B1A783AB9012206481A7043F6095240
:100A5000002318F071BC70475F3E0020613E00200B
:100A60005E3E00206808002010B50C461CF0D6F849
:100A700021460246044819F0E9FE0122034B1A7090
:100A8000BDE81040FFF7D6BFD7F901005F3E002058
:100A900010B50C464A780948097819F0D7FE237832
:100AA000022B09D16378022B06D10122044B1A7064
:100AB000BDE81040FFF7BEBF10BD00BFEAF901005E
:100AC000613E002070B5134E05461846336888B065
:100AD000F3B911490DF107028DF8073002F0FCFE61
:100AE0009DF80730A3B105F073F90C4B02AA186802
:100AF0005968083303C214460FCB84E80F0033460D
:100B00002146284602AA06F0ADF808B1FFF7F8FE24
:100B100008B070BD0C160020A50C000070ED01009F
:100B200010B504468CB069B1174C184819F08EFE08
:100B3000206805F03FFB002323600CB0BDE81040A7
:100B4000FFF7DEBE01A906F02BF858B90699104848
:100B500019F07CFE01220F4B1A7019F0D2FC0E4BDB
:100B6000C3E9000100230D4A204613700C4A13709C
:100B70000C4A13700C4A13700C4A0D4B114613604B
:100B800008F09AFA0CB010BD0C160020FBF9010019
:100B900012FA0100623E002050080020603E002052
:100BA000613E00205F3E00205E3E0020DC150020FC
:100BB000690A000070B50F4ED6E90045181945F1D5
:100BC0000001C6E900011AB910460B4B1A7070BD3E
:100BD000082B08D0094A136801331360084818F03D
:100BE00057F90120F3E7074B196813689942F5D0CC
:100BF000054AF0E760080020633E0020BC15002095
:100C000020060020C4150020C015002038B50C4671
:100C1000174819F01BFE174A174813680133136071
:100C2000164B1C700024164B1C70164B1C70164B78
:100C30001C80164B1C70164B1C70164B1C701DF044
:100C400026F8154818F07EF9144D4FF0FF324FF09A
:100C5000FF33134818F028F8286810B105F0AAFAF5
:100C60002C600F4818F092F8BDE83840FFF748BEF6
:100C70002DFA0100B8150020680800205D3E002014
:100C8000633E0020623E0020443D00205F3E002085
:100C90005E3E0020613E0020200600200C16002051
:100CA000EC05002010B503780C46083B012B0CD84E
:100CB0004278072A09D1064940681DF0F7F9034632
:100CC00001200BB92070184610BD0120FCE700BFC1
:100CD00046FA01002DE9F04F0025AB46A8462F4605
:100CE0002C46B1B04FF47A7019F01AFC414BDFF882
:100CF00008911B78DFF804A108F1010833B1404BDB
:100D00001B781BB13F4B1B68002B6DD1D9F800300D
:100D100001350133C9F80030DAF80030AB4201D2B6
:100D2000CAF800506022384B0DEB020000211E680B
:100D30001DF0B4F9354B1A68002A57D03449002306
:100D4000D1E900011692FFF79BFB324B169A1B6804
:100D50003149DFF8C8C009680DF1600E16913049BD
:100D6000096817912F4909689CF800C0CDF854E034
:100D7000DAF800E0DFF8B0A0CDF850E0D9F800E0F4
:100D800007911799CDE9124E06911699CDE908C43D
:100D90000591A6EB0B01CDE91044CDE90E44CDE958
:100DA0000C44CDE90A44CDE90361DFF88090B346F5
:100DB000D9F80010CDE90121DAF80020414600926F
:100DC00002461B4819F042FD002000214FF0FF327F
:100DD0000E4BCAF800701F600D4BC9F80070C3E9D4
:100DE00000010C4B1A607DE700259BE71046134677
:100DF000AEE700BF633E0020CC150020C8150020E0
:100E0000623E00200C160020E0370020D81500209C
:100E100058080020EC010020C01500205D3E002095
:100E2000BC150020B8150020D4150020D0150020D6
:100E30004EFA010010B54FF0FF334FF0FF32074874
:100E400017F032FF064B1C681CB120461AF0FFFD5C
:100E50000446024817F09AFF204610BDEC0500201A
:100E60000C1600202DE9F04FB7B019F04AFB00270F
:100E700010F57A73139341F1000314934FF0FF338D
:100E80003D463C463E46CDE90C77159711971093A9
:100E90000E970A9712970F970997994B1B7803F0B3
:100EA000FF020B9213B1974B1B6843B9322019F024
:100EB00037FB0023A8460B9345460B9FEDE7FFF752
:100EC000B9FF824628B9022019F02AFBA8460B97E1
:100ED000F2E747B98C4B1BA91B931AF04EFE014653
:100EE0008A4819F0B3FC50461BF098FE884A099BCB
:100EF00007461370C3F307235370099B1B0C9370B1
:100F00001B0AD3701CF0BEF90022824B8046198860
:100F1000FB1E9BB28048F72B28BFF723CDE90020AA
:100F2000029289B27A4A50461BF076FF07461CF0BF
:100F3000A9F90F9BA0EB08090F2B00F2B7800F9ABD
:100F400036AB03EB820343F8409C134601330F9307
:100F5000504605F02FF90A9B01330A93109B4B452D
:100F600028BF4B461093119B4B4538BF4B461193FE
:100F7000159B19EB060943F100034E461693159392
:100F8000002F40F0AD80099B013309930E9B013384
:100F90000E9325B1A8EB0505AC4238BF2C4619F0DD
:100FA000B0FA139B9842149B994185DB139B13F570
:100FB0007A731393149B43F100031493FFF73AFFE2
:100FC0001BA9159005F0ECFD002840F09680239DAC
:100FD000002D00F093802E786D78504A1368179397
:100FE000002313604E4A126818924E4A12681992F2
:100FF0004D4A106828B14D49D1E900011268FFF748
:101000003FFA4FF0FF320027454B48491A60454BE5
:1010100000221F600023C1E90023434BDFF810E1E9
:10102000444A1F60DEE900ABD2E90031BAEB0303AA
:101030004FEA932C199B6BEB0101DEE900ABC2E98F
:1010400000AB4CEA8152CDE900031799189B3A484E
:1010500019F0FCFB0A9A119B012A38BF012216994C
:10106000059348463B460694FFF70AFA109B049006
:1010700003930C9B2A4602930D9B314601930E9BD2
:101080002E4800930A9B19F0E1FB159B13B11846FB
:1010900005F090F800244FF0FF332646CDE90C44CC
:1010A0001594119410930E940A9405E7129BA3B91A
:1010B000234819F0CBFBDDF848B026AB53F8041BEE
:1010C00020480BF1010B129319F0C0FBBBF1100F7C
:1010D000129BF3D11C4819F0B9FB0B9B129337E715
:1010E0000C370BBF0D9B0C9B013301330CBF0D93D1
:1010F0000C9318F097FBA84651E700252E466CE7A5
:10110000633E00200C160020000002022AFB0100B2
:10111000663D0020443D002031090000B415002048
:10112000E8010020AC150020A81500204808002088
:1011300060080020400700205EFB010096FB0100D4
:1011400047FB0100DD0302003BFE010010B58CB03F
:10115000FFF770FE0446F0B101A905F021FDE0B9EA
:10116000069A0F4B4FF4FA711B780E4819F06EFB7C
:101170000D4A0E4B114613600D4B20465360012360
:1011800013814FF6FF73D3810323137407F0C0FF5D
:10119000204605F00FF80CB010BD4FF0FF32E0E72D
:1011A000613E0020F3FB0100F8150020240500201B
:1011B00091090000002008B503F08AFF014620B124
:1011C000074819F043FB002008BD064906481CF0FB
:1011D00050FD064819F03AFBFFF792FBF3E700BF1A
:1011E0002AFC01004D1100006808002038FC0100B5
:1011F0002DE9F84F8A4600AF002974D004680E1F0D
:10120000361BF50826F0070604EB0608B8F802B00E
:101210001BF0010B16D1E94688B06A46334BCDE985
:101220000531032342F8103F4FF4C2515B4630486A
:1012300000F0A4FFCD468BF31188BFF36F8F04231A
:10124000184602DF2946204619F07CF9284434F874
:101250003030C01A854217D0E94688B06A46254B1F
:10126000CDE9053A032342F8103F00234FF4C25161
:101270001F4800F083FF0023CD4683F31188BFF39E
:101280006F8F0423184602DFB8F80230294623F096
:101290000103A8F80230204619F054F905EB0008C4
:1012A00004EBC8035B88DA0708D44146204619F0EE
:1012B00092F942462946204619F0D2F9A65BAE1BA8
:1012C00004EBC6035B88DB0709D43146204619F0DE
:1012D00082F92A463146204619F0C2F93546294698
:1012E000204619F034F9BD46BDE8F88FC2FC010074
:1012F00038ED010099FC01002DE9F04F91B0009309
:1013000002F004030293C2F3C203013384070546CB
:101310000E46DDF868A00392059340F09C81041D01
:10132000002849D101F00706341DC6F10806009BCC
:1013300000274FF004085A1E4FF0FF33B9460193BF
:10134000BB46434604970DB10099216005980028DB
:1013500000F3D6808F480099814203D38E488142A2
:10136000C0F0CE800399601B11F0020C40F0D680D3
:10137000B9F10F0F00F2CF80002D00F0D68009F1F7
:1013800040010DEB010E0199C0F387000EF8200C0F
:101390000EF8101CBCF1000F00F0C38060F07F005D
:1013A0000EF8200C013709F10109C5F108014FF6CB
:1013B000DA7E043406918CE00729B8D86FF01B0060
:1013C00011B0BDE8F08F7A285BD84B280FD847289A
:1013D00057D829282ED8252850D052D8202818BFD1
:1013E00023280CBF4FF0010B4FF0000B71E04C387D
:1013F0002E2846D8DFE800F06D4545454545454572
:101400004545454548454545454545454556454875
:10141000485656566D486A456D4518481845457FEB
:101420007C48454548457C0000204FF0000B4FF0BC
:10143000040835E001212A38C0B201FA00F010EAB0
:101440000E0F46D110F0625C2CD110EA010B40D097
:101450006046013C4444B4FBF8F408FB04F425B1B5
:10146000A3EB050CA444B445A8D8002870D0059976
:10147000013905915AF8041B009164E7019901397B
:1014800001914FF0000B24E012F8010C6C2834D1CC
:10149000002012F8023C83466C2BC8D14FF008089C
:1014A0004346D6E70AF1070A2AF0070A073424F070
:1014B0000704FAE802BC35B106982044B0423FF672
:1014C0007DAFC4E900BC4FF0000B08344FF00808B2
:1014D000434612F8010F002853D0BBF1000F7FF4F0
:1014E00072AF2528F5D14FF0010B019B0133019319
:1014F0004FF00408ECE7584697E700208346A8E73A
:10150000039988077FF551AF4FF0010C601BB0F5D0
:10151000007FFFF42DAF6FF0150051E74FF0000C86
:10152000F5E70498013004903DE7BCF1000F01D0CD
:10153000013638E70298023600287FF434AF00986D
:10154000CDE90632FEF7BEFFDDE9063206442AE7A2
:10155000042B08D10AF1040015B1DAF8001021605B
:1015600082460434B5E70AF1070323F0070303F1C9
:10157000080A1DB1D3E90001C4E9000108230834B9
:10158000A7E7631BB3F5806FC5D23DB9A6F1080488
:10159000E01815E7A8E10100A81B0200029A9B08C9
:1015A00028602B709DF81030AAB1EB70AF702FB18E
:1015B000002208A8C5F1010C91450ED14FF0000A98
:1015C000C5F101030DF1200801930DF1300BD14558
:1015D00012D1601BF4E66B70E8E710F8013B1906C6
:1015E00008D50CEB040EB64503F07F033FF6E6AEDC
:1015F00004F8013B0132DFE71FB198F90020002A0F
:1016000017DB029BD3B11AF80B2004F8012B002240
:10161000019B18191044B0423FF6D0AE98F8000074
:10162000009904F8010B204603921CF02AFD039A4E
:1016300014440AF1010A08F10108C8E798F80020EB
:1016400055F822300093029B009845F82230FEF7AF
:1016500039FF421CDCE76FF00D00B1E62DE9F04FD9
:1016600097B000AF05468A46C7E90A3249B9037800
:101670004678807800EB83002844564524D8A0EBB8
:10168000050AD7F8803095F8028003F00103D7F8F7
:101690008040FB61EB78B8F1000F0CBF002404F030
:1016A00001047B621BB1D7F880309A0715D4A4B926
:1016B000FB6A1BB151462846BA6A984756463046DF
:1016C0005C37BD46BDE8F08F441C2046FEF7FAFEAD
:1016D000013020440AF1010ACFE7D7F88030C3F384
:1016E000C0033B622B78BB619B003B616B687B61F5
:1016F000BB6905EB830BFB6A002B77D15646D844B8
:10170000BCB11C461BF8013B55F82300FEF7DAFE7E
:10171000D7F88430013043B1D7F88830A34282BF74
:10172000D7F8843023F814000134C3450644E9D1C6
:10173000D846D7F880304FF0000913F0050F0CBFE2
:101740004FF0020B4FF0010B7B6A9945B7D298F826
:10175000013008F1020855F823A0AE4B9A45C0F0BD
:101760004C81AD4B3A6A9A452CBF002301230AB342
:1017700018F8021C7869FB6219F047F8FB6AC8B1D7
:10178000EA468AB06A46A54B05937B69CDE90631E6
:101790004FF40073ADF82030A14B42F8103F002306
:1017A0004FF412519F4800F0E9FCD546023E09F182
:1017B0000109C9E723B1FB6933B9A6EB0B06F6E7CC
:1017C000D7F880309B07F2D55046FEF77BFED7F85E
:1017D00084304BB1D7F888309C423FBFD7F8842083
:1017E000431C22F8143001340644E0E7002C6AD18F
:1017F000B8F1000F6DD0D7F8803058076CD5C146CE
:1018000007F14800424659461CF03BFC00220BEB16
:101810000803FB600233796A8A425FD3D7F88020DD
:1018200095F801B0F969920704EB0B0348BF002259
:10183000DBB258BF4FEA5902002940F0A680D7F822
:10184000801011F0040F14BF494600216B70A9707D
:10185000EA702846BA6A3969FB6A9847061EFFF69D
:101860002EAFBB6949462B707B6ABA6AEB7085F86C
:1018700001B0FB6A85F8028007F148009847B0F193
:101880000009C0F2B6803B697A6A786A03EB4201CC
:10189000FB68414403EB4000BA6AFB6AAAEB010112
:1018A00098470028C0F2A7804FF0000BB14409EB25
:1018B000000607F1380AA34569D30021BA6A084631
:1018C000FB6A9847FBE644464FF0000907F13800F1
:1018D00098E74446C14699E7A14697E713F8016C9B
:1018E000DFF830C155F8260013F8021C6045C0F03F
:1018F0008A80DFF824C16045386A2CBF4FF0000BA6
:101900004FF0010B38B17869C7E9013218F07DFF5B
:10191000D7E90132F0B9BBF1000F1ED0F96949B126
:10192000611C04F1280007F13004041904F8206C4C
:10193000CCB20FE0D7F8801049070BD509F1280089
:1019400007F1300C09F1010100EB0C0909F8106CEA
:101950005FFA81F9013202335DE7D7F88000800732
:10196000DED409F1280C07F1300EF44409F101002E
:101970000CF8101C07F1580109F1020951FA80F026
:101980005FFA89F900F8106CE4E700215EE71BF8C4
:101990000A3055F8239087F83730D7F884302BB3C6
:1019A000D7F888309B4521D2D7F8843033F81B8094
:1019B0000121BA6AFB6A07F13700984700281ADB51
:1019C0000644B8F1000F06D14846FEF77BFD00F152
:1019D00001081FFA88F841464846BA6AFB6A9847E8
:1019E000002808DB06440BF1010B64E74FF0000808
:1019F000DEE74E4663E6064661E63B6A002B3FF4AF
:101A0000DFAE0023B4E6386A0028A6D04FF0000B02
:101A100079E700BFA8E10100A81B0200EFFC01006C
:101A200004000001F0EC0100014B1860704700BF9A
:101A3000F001002080B505460E461746984617F07F
:101A40006FFF034601F05CFA0446DFF81890424647
:101A500049F8003039463046A84754F8090001F0EB
:101A6000E7F900BF080000002DE9F047058B0446A8
:101A7000280717460CD501290CBF45F0100545F085
:101A80002005258387F31188BFF36F8FBDE8F087AA
:101A9000022905F0070540F09480204619F077F9F7
:101AA000052864D801A353F820F000BF851A000070
:101AB000C31B00006F1B0000311B00004B1B00000C
:101AC0005D1B000001F007035A1F012A1FD80022E6
:101AD00021F00701062BD4F8008089B2C4E9002266
:101AE00009D1434603E0628B013262831B68002BFD
:101AF000F9D141F002012046218319F048F94FF055
:101B0000000900286DD041F02001218369E0042BF9
:101B10000AD121F0070189B22046218319F037F953
:101B200010B141F0200121834FF00008C14658E078
:101B30002369D3F80090238B23F0070343F00603B7
:101B40004FF00008238346464BE02369D3F8049006
:101B5000238B23F0070343F00403F1E72369D3F851
:101B60000890238B23F0070343F00503E8E74FF0C9
:101B70000008C146E7E7012243F00803238387F307
:101B80001188BFF36F8F002A3BD1B8F1000F4AD103
:101B9000B9F1000F02D020462C49C847EFF3118756
:101BA000202383F31288BFF36F8F238B23F0080366
:101BB0009BB22383D9063FD523F01002228303F082
:101BC00007056669218B002EBFF67CAF002399467E
:101BD000D4F8008021F00701C4E9003341F001018D
:101BE0002183238B03F0070AAA4502D0A268002AAA
:101BF000C1D1B8F1000F02D1B9F1000FDAD0002243
:101C0000BAE7A1680029C0D00D680029BDD03346CD
:101C1000524620464F68B8471DB12B6829461D46DD
:101C2000F3E72B46FAE74146334652462046D8F8BA
:101C3000008019F0D8F8A8E79A067FF523AF23F0C3
:101C40002002228303F0070527E700BF13AE01003F
:101C50002DE9F047044607464FF00109DFF84C80B4
:101C600094FAA4F5B5FA85F509FA05F32E0108EB07
:101C700005156FEA030A24EA03042B7B63B158F8C5
:101C800006301B696BB946447368042228461968FC
:101C900007EA0A0719F0B6F9002CE1D13846BDE889
:101CA000F087284698470028F6D1ECE758ED010068
:101CB00010B5002288B00E490E481CF0B7F900227A
:101CC00000230024CDE906230E234FF44072CDE912
:101CD0000334CDE90144084B08490094084817F043
:101CE000A3FB084906481BF0EBFF204608B010BDD7
:101CF000091D0000200D002025200000204B0020A1
:101D000098080020AEFD0100014817F0C1B800BFDF
:101D1000000600202DE9F047804621480F4619F0C3
:101D200055F90646002833D000252846BDE8F0873F
:101D3000237B83B12368DB680BB120469847636837
:101D400083F8069023681B69D3B963680422204690
:101D5000196819F057F9013610345445E8D3B8F131
:101D6000000FE2D0002DDFD02846FFF771FF0546B7
:101D7000002FF7D0002140F239101CF061F8F1E794
:101D8000204698470028E0D009FA06F31D43E2E711
:101D900005464FF00109034CDFF80CA0DDE700BF5A
:101DA0002016002058ED010068ED0100014B53F8AA
:101DB000200070471CEE010008B5034608462BB111
:101DC000044A136000F03AFC002008BD6FF01500D3
:101DD000FBE700BFF401002010B5044C237813B9D1
:101DE000034817F055F80123237010BD643E00200E
:101DF0000006002010B50446094819F0E7F83CB188
:101E0000084BD3E8EF1F0139C3E8E21F002AF8D1DD
:101E1000054818F0A9F8BDE81040044817F038B894
:101E2000181600201C160020200D0020000600209F
:101E30000022044BD3E8EF0FC3E8E12F0029F9D1CA
:101E4000704700BF1816002070B5FFF7F1FF054678
:101E5000074C084EB44200D370BD63685B792BB168
:101E600023685B6813B12946204698471034F1E790
:101E700058ED010068ED010010B5044C04492046FE
:101E800018F0FFFD034B1C6010BD00BF480500208B
:101E900008EE01001016002000230D4A10B5137043
:101EA0000C4A0D4913600D4A0D481360FFF784FF7B
:101EB000FFF7E2FF0B4B0C4918468B4200D310BDD5
:101EC0001A1A5C681211013222711033F5E700BF53
:101ED000653E00201816002040420F001C1600200E
:101EE000C9AF010058ED010068ED01000146002274
:101EF0000023014818F0E6BD48050020014818F00D
:101F00007DBE00BF48050020024B0146186818F04E
:101F1000D0BE00BF10160020014818F005BF00BF5A
:101F200048050020F8B5284B1B78002B4AD0FFF756
:101F3000E5FF0446002842D1244B254D1B68002BA9
:101F400019DD1CF02BF84FF47A76A0FB060747F654
:101F50001222002306FB0171FEF792FAD5E9003246
:101F6000C01A40F2E93361EB0201984271F10001BD
:101F700001D3FFF769FFD5E9003213F57A7342F117
:101F80000002C5E90032ECB1BDE8F840FFF7C4BF7C
:101F90006B685B7923B12B68214628461B689847FC
:101FA0001035B542F4D32046FFF7AEFF094BD3E816
:101FB000EF1F0139C3E8E21F002ABDD0F7E7064D45
:101FC000064EEEE70020F8BD643E00201816002003
:101FD000180D00201C16002058ED010068ED0100CE
:101FE00070B50D4D297861B90120FFF793FE0B4CB8
:101FF0000B4EB44206D3FFF795FF0028FBD1012317
:102000002B7070BD63685B791BB1236820469B68A9
:1020100098471034EDE700BF653E002058ED010001
:1020200068ED010000212DE9F8430846FFF772FE34
:10203000044648B340F21B684FF0000900F060FF0F
:102040001A4B1B4A1B58136033B11A4B1B68092BE0
:1020500002DD194816F01CFF0025184F44B1204638
:10206000FFF7F6FD044618B94FF0FF384FF0FF397F
:10207000FFF758FF064628B9B5B90F4842464B4608
:1020800016F03AFF3546E9E74FF0FF384FF0FF39D9
:10209000D4E72B689B691BB100222846114698475C
:1020A0001035BD42F5D3E8E7054DFAE7080000001A
:1020B000141600201C1600200006002068ED010008
:1020C00058ED010013B5184818F080FF174B1B7826
:1020D00073B1EFF31184202383F31288BFF36F8F62
:1020E000FFF720FF84F31188BFF36F8F02B010BD9C
:1020F0000F4B1B68002BF9D050B9002200230D486C
:10210000CDE9002347F61222002317F0F5FEEDE794
:102110000928EBD1074817F027FF074802B0BDE8B0
:10212000104016F0B5BE00BF1C160020653E002012
:1021300014160020200D00200006002010B5064BCC
:1021400004461B6898472146A060044818F037FDF4
:10215000BDE81040FFF7B6BFF4010020480500209D
:10216000044A054B9B1AB1EBD30F34BF52F8310030
:102170000020704778EC010058ED01002DE9F04F88
:102180008FB0C1F34A2604AF0D469046B8607B601D
:102190000C0D002E61D04FF000090A234FF0040B04
:1021A00007F1140AFE60C7E90799C7F82490009365
:1021B000CDF808B0CDF804A007F11C034A4640460C
:1021C000F968FFF74BFAB0F5006F03461CD36C4675
:1021D0008AB0D8F8041004AB24481A46C3E90501B4
:1021E00040F2FF71D9614FF400711984204B42F81D
:1021F000103F4FF412514B461E48FFF7BFFFA54654
:102200002C37BD46BDE8F08FC0F30A0604F1170075
:10221000184420F0070080083B60FFF767FE66F374
:102220005325044680B13B6800F11001C7E9083925
:102230000A23F961CDE901AB009340460E4AF968E3
:1022400007F11C03FFF70AFA66F353252A462046D6
:102250007B68B96818F0F6FED2E704F1170020F0A9
:1022600007008008FFF742FE0446EDE7C3FD0100CA
:102270000400000100ED010017B001002DE9F04F4E
:1022800087B00546DDE9106BDDE9127A8846144611
:102290009946BFB110213B465A460020CDF800A018
:1022A000CDF814A0FFF728F8B0F5006F01460BD366
:1022B00040F2FF730221184A184807B0BDE8F04FFA
:1022C00018F019BF3946384604F0070305F0070433
:1022D000E40044EA831444EA402444EA065406F144
:1022E0001700084420F0070080080391FFF7FEFD67
:1022F000054640B13FB13B465A460399CDF800A090
:102300001030FEF7F9FF4B4622464146284607B0FB
:10231000BDE8F04F18F096BE02FE010000ED01008E
:10232000406820B1034BC01A40F3CF0070474FF014
:10233000FF30704778EC01000EB403B503AB53F8DF
:10234000042B01460448019301F00EF802B05DF839
:1023500004EB03B0704700BF59B10100CA0605D4B1
:102360008B064CBF02490349FFF7E6BF704700BF29
:102370003BFE01003AFE01002DE9F04F89B098467E
:102380009DF85090159B044606930D46DDE916A373
:10239000189F05920493B9F1000F00F0B08007F484
:1023A0008073079318F02CFE07F0020B02460028FA
:1023B00074D020467749FFF7BFFF0646BBF1000FF8
:1023C00008D017F0440F6BD12A4620467249FFF718
:1023D000B3FF064407F0010353B1704B204653F896
:1023E00029206F4B6F49002A08BF1A46FFF7A4FF48
:1023F00007F48073002B07F0080318BF4FF00008A4
:10240000002B79D0684B204653F829206749FFF705
:1024100093FF0546059B2BB11A4620466449FFF7FA
:102420008BFF0544B8F1000F05D0424620466149B4
:10243000FFF782FF054460483544069B1BB12246E6
:102440005E4918F0B1F9049B002B00F08E80DDF896
:1024500010803946B8F1100F204628BF4FF0100801
:102460000026FFF77BFFB54250DC002633462046AE
:102470001AF803205249FFF75FFF0136102E4BD0A8
:10248000710703D120464F49FFF756FF46453346B3
:10249000EDD320464C49FFF74FFFEEE706468DE7A8
:1024A0004A4B1868002894D0494B4FF47A7B1B683C
:1024B0004FF03C0CB5FBF3F5B5FBF0F14FF4616365
:1024C00000FB11550BFB05F5B1FBF3F2B5FBF0FE7C
:1024D00003FB121100FB1E55B1FBFCF30BFB05F5D2
:1024E000B5FBF0F50CFB131120460091CDE901E599
:1024F0003849FFF721FF6CE707F008058AE7B8F1D4
:10250000010F4D460CBF2C48334896E720462D4915
:10251000FFF712FF0136A6E7002620462F49FFF7F6
:102520000BFF33461AF803202046A2F120035F2B4D
:1025300028BF2E222A49FFF7FFFE0136102E0DD0AC
:10254000720703D120461F49FFF7F6FEB045334618
:10255000E8D820461B49FFF7EFFEEEE7049BC24494
:10256000B3EB080304937FF472AFB9F1000F0AD004
:10257000FB0704D520460A4A0A49FFF7DDFE394623
:102580002046FFF7EBFE204609B0BDE8F04F18F0FB
:10259000D6BD00BF42FE010046FE01002CEE010048
:1025A0003DFE0100CC08020040EE01006BFE010080
:1025B00071FE010075FE010059B101006933000090
:1025C0007AFE010082FE010080FE01002816002034
:1025D000241600204FFE010087B1010084FE010097
:1025E00086FE010042F20F7373B58B4228BF0B4683
:1025F00005680446052168460D4A17F015FD064694
:10260000636828460B225B680A4918F08AFD6368F4
:102610003246694628465B6818F083FD63681B22D2
:1026200028465B68044918F07CFD02B070BD00BF0D
:102630007C040200011B0200E51A020000210123B4
:10264000064A904206D8064A01B901231360054B99
:1026500018607047012140085B00F2E740420F001C
:102660002416002028160020F8B50D460446064F13
:102670004618B44201D12846F8BD14F8011BBB68C6
:1026800001485B689847F4E7BCE20100014B036036
:102690000020704788EE010008B50348034A002176
:1026A000121A18F021FE08BD40070020203F00202C
:1026B000074808B5074A0849121A18F017FEBDE87E
:1026C00008400648064A0749121A18F00FBE00BF14
:1026D000000000203C070020A81B02000000002092
:1026E00000000020A81B02002DE9F04706460C461A
:1026F00000AF002936D0D1E90012E9468AB06D4614
:10270000A3684FF0050AE8461F48CDE90723CDE945
:10271000050148F810AF002342464FF421511B48F1
:10272000FFF72CFDD4E90312CD466369AD46184886
:10273000C5E90723C5E90501C5F810A000234246F5
:102740004FF421511148FFF719FDCD46E3690121EE
:10275000104A0E4818F0CFFCA36901210E4A0B481D
:1027600018F0C9FC012E07D1EFF305830B4A31465F
:102770000648103B18F0BFFC2146304616F0B6F86C
:10278000BD46BDE8F08700BFBFFE010030ED01008F
:10279000EEFE01001DFF01002CFF01005AFF0100A9
:1027A00030BFFFF7FDBF00BF2DE9F04105460B4EDE
:1027B000DFF82C80324606EB0807CC1B204609497F
:1027C0001BF05FFCA01942460021083C1BF066FC90
:1027D0002C6707F10800BDE8F08100BF0000000091
:1027E0000400000068ED010010B5244C2449254880
:1027F00018F089FDA36A99013ED52248224918F0B4
:1028000082FD1E20A36ADA0104D51E481F4918F074
:102810007AFD1F20194CA36ADB0204D519481C4914
:1028200018F071FD0220A36A1C0304D5154819494C
:1028300018F069FD2120114CA36A590304D51148F1
:10284000154918F060FD2220A36A9A0304D50D48AB
:10285000124918F058FD2320084CA36ADB0304D565
:1028600008480F4918F04FFD2420A36A6FEA03437C
:102870006FEA1343A36210BD1D20C3E700ED00E023
:102880006DFF010030ED010085FF010098FF0100A0
:10289000B2FF0100DCFF0100FAFF01001F0002008F
:1028A0003900020070B506460D46294C29492A48D0
:1028B00018F029FDA36ADB0647D52748274918F0F9
:1028C00022FD1120A36A1C0704D52348244918F0CF
:1028D0001AFD12201E4CA36A990712D521491E48E1
:1028E00018F011FD636BA26A120609D501211E4A78
:1028F000194818F000FC1EB1A36A23F08003A362FC
:102900001320134CA36ADE0704D51348174918F0A7
:10291000FAFC1420A36A9C0604D50F48144918F049
:10292000F2FC15200A4B9A6AD10658BF9A6A9A6A35
:10293000920642BF5A6A22F400525A629A6A42F0E0
:10294000FF029A6200232B7070BD1020BAE700BF0F
:1029500000ED00E06400020030ED01007A000200AA
:10296000AD000200C0000200D8000200EE0002002C
:102970000D01020070B506460D46284C284929482D
:1029800018F0C1FCA36AD9043CD52648264918F0A2
:10299000BAFC1720A36A1A0504D52248234918F067
:1029A000B2FC18201D4CA36A9B0512D51D48204976
:1029B00018F0A9FCA36BA26A100409D501211D4AD5
:1029C000184818F098FB1EB1A36A23F40043A362D1
:1029D0001920124CA36A590504D51248164918F05B
:1029E00092FC1A20A36ADA050ED50E48134918F096
:1029F0008AFC1B20094A936A43F47F4393620023B5
:102A00002B7070BD1620C5E7A36A9B04F2D505485C
:102A10000B4918F078FC1C20ECE700BF00ED00E04B
:102A20003C01020030ED010052010200AD00020045
:102A3000630102007C01020091010200AC0102006E
:102A40000D0102002DE9F0418AB0674B0446D3F82E
:102A50000480002500AFC8F3080685F31188BFF392
:102A60006F8F02F07F43B3F17F4F07D102F00C0369
:102A7000082B12D15D495E4818F045FC00252C4614
:102A80000023FB71F31E092B00F28E80DFE803F0B8
:102A90000A8487808C8C8C8C8C8A10074CBF0C46E7
:102AA0000125EDE75349524818F02DFC00234E4E06
:102AB000FB71F36A9A0705D54F494D4818F023FC7E
:102AC00000232DE0F36A002B01DA4C49F5E7F36AA5
:102AD0005B00F5D54A49464818F015FC7369A269B0
:102AE00043F480737361BFF34F8FBFF36F8F32F87E
:102AF000023C726922F480727261BFF34F8FBFF3A0
:102B00006F8F03F47F42B2F55F4F2BD1DBB2022B04
:102B100028D1236801213B4A354818F0ECFA236894
:102B2000FA79DAB907F1080604F1200C3246206878
:102B30006168083403C264451646F7D17A6A002DED
:102B40004FD0C2F3080121B96FEA52226FEA422244
:102B50007A62184607F10801FFF7C6FD2837BD461F
:102B6000BDE8F081204B9A6AD2B222B10120F91D52
:102B7000FFF798FE0EE09A6A12F47F4F04D001200E
:102B8000F91DFFF7F7FE05E09B6AB3F5803F97D389
:102B9000FFF72AFE0346C3E70020F91DE8E70020FF
:102BA000F91DEEE7184988E7184A18F4F87FE84657
:102BB0008AB0174B08BF13466A461649103ECDE946
:102BC00005134FF40073ADF82030134B079642F80D
:102BD000103F00234FF411510548FFF7CFFAC546C7
:102BE0006EE76FF30802B3E700ED00E0F2010200C8
:102BF00030ED01001D020200340202005502020005
:102C000063020200820202009E020200C40102006E
:102C1000D9010200C202020004000001064B5A69F9
:102C200042F010025A615A6942F480625A615A694C
:102C300022F008025A61704700ED00E0EFF30880CF
:102C4000EFF3098101B57246FFF7FCFE01BD00BF3D
:102C50000B4880F3088814F095FE202080F311883B
:102C600008484FF40061401880F30988EFF314809E
:102C70000221084380F31488BFF36F8F00F06AF8D5
:102C8000F06D0020B05C00201EF0040F0CBFEFF3CD
:102C90000880EFF30980816911F8021C0229FFD036
:102CA00001B5724618F024FB01BD00BF00B2002838
:102CB00007DB01234109034A00F01F00834042F86B
:102CC0002130704700E100E000B200280CDB012257
:102CD0000649430900F01F008240203341F82320B9
:102CE000BFF34F8FBFF36F8F704700BF00E100E06D
:102CF000054B420953F82220012300F01F0003FA7C
:102D000000F01040704700BF00E100E000B2002872
:102D100001F10101ACBF00F16040064B4FEA4111E7
:102D2000C9B2ABBF00F5614000F00F0080F800139E
:102D30001954704714ED00E0044B054A23F07F035B
:102D40009360BFF34F8FBFF36F8F70470000000099
:102D500000ED00E008B5FFF7EFFF0B4AD2F888302E
:102D600023F47003C2F88830EFF3148323F00403D4
:102D700083F31488BFF36F8FFFF78EFCFFF798FC87
:102D800000F09CF815F0D4FE00ED00E042F8203C85
:102D9000009B0B4942F81C3C019B21F0010142F8C9
:102DA000183C029B42F8081C42F8143C4FF0807318
:102DB00042F8043C0023203A02654367704700BF95
:102DC000351A000000B50D4B15469860026F0C4B8C
:102DD0000E461A60036E83F30B882C4686F309882F
:102DE0000020044B98472046002100220023024C7B
:102DF0002047000025B30100351A0000103D0020D7
:102E0000501600201022014B1A61704700ED00E0BF
:102E1000054B5A699B689A421FBF044A536843F0A6
:102E200080535360704700BF103D002000ED00E06C
:102E3000084B9B6883420BD1EFF3058343B1064BEC
:102E40005A6842F080525A605A6A22F400425A622A
:102E500016F06CBD103D002000ED00E014498A68BA
:102E60004FF030001044EFF3098C80E8F01F202071
:102E700080F31288BFF36F8F0E4F4FF000664A69E0
:102E80008A603E60106F0C4C2060506F00235367C7
:102E900080F3118802F1300090E8F01F8CF309886C
:102EA00002F1000004B518F036FABDE8044070479E
:102EB000103D002004ED00E05016002000232020EB
:102EC00040F20F1210B5044CE1180133934281F81F
:102ED0000003F9D110BD00BF00E100E008B5EFF339
:102EE0000583064A103B02EBC30152F833004968E0
:102EF0008847BDE80840FFF78BBF00BFF4E2010040
:102F00000148006870470000501600201FB50121DD
:102F1000094B0A4A0A4800F00FF90023064A0393B6
:102F2000084B0121019301A8D31A029300F00EF976
:102F300005B05DF804FB00BF000004200000002085
:102F4000ECEE0100400700200A7A0B6810B562F32E
:102F500004031C46CB68520923F01F0343EA4203D3
:102F6000044A43F00103C2F89800C2F89C40C2F83A
:102F7000A03010BD00ED00E010B50A4BD3F8903042
:102F8000C3F30723013B984208D901210346064AAF
:102F9000064818F0B0F86FF0150010BDFFF7D4FF29
:102FA000FBE700BF00ED00E0D902020018ED0100D0
:102FB0002DE9F04F8946144606464FF000084F4D64
:102FC00085B0C84527DAD6F804A0BAF1000F44D07E
:102FD000BAF11F0F17D91AF01F0F14D1D6F800B08D
:102FE0001BF01F0F0FD1584618F0BFF907460AEB28
:102FF0000B00013818F0B9F9874210D06FF01507AF
:103000003F4A3B4601E043463E4A01213E4818F014
:1030100072F86FF01504204605B0BDE8F08F17F187
:10302000160FEDD0BC42EBDDC5F89870D5F89C10BA
:10303000C5F89870D5F8A03021F01F0143F01F0BA0
:10304000D6E900321A44994202F1FF3A1AD1D34527
:1030500007D13146F8B218F091F908F101080C36A1
:10306000AFE73146C5F89870D5F89C30E0B263F30D
:103070000402C5F89C2018F081F910F1160FC8D091
:10308000441CEAE7C5F89870D5F8A020013B23F06E
:103090001F0302F01F021343D3453146E0B2C5F8C7
:1030A000A030E8D018F06AF910F1160FB1D0C5F8C9
:1030B0009870D5F89C209DF808300BF1FF3B62F327
:1030C00004038DF80830D5F8A0309DF808205B087F
:1030D00063F347128DF80820D6E9003213440093B9
:1030E00023F01F035B44A3EB0A03013023F01F030B
:1030F0006946C0B20393FFF73FFFBEE700ED00E073
:1031000025030200FF02020018ED01000522044B16
:10311000C3F89420BFF34F8FBFF36F8F704700BF8A
:1031200000ED00E0BFF35F8F0022024BC3F8942054
:10313000704700BF00ED00E010B5034C2278FFF7A8
:1031400037FF207010BD00BF673E00202DE9F74F0C
:10315000294D8A4606464FF00008AB46274FD0451A
:103160001BDAD6F80490B9F1000F3FD03168084659
:10317000019118F0FAF80199044609EB01000138B1
:1031800018F0F3F884424FF014021D4B08D002FBF4
:1031900008F36FF015024BF8032003B0BDE8F08F81
:1031A00014F1160F2C60F8D01978A142F5DD02FB5E
:1031B00008B0C7F89840C7F89840D7F89C4000F18D
:1031C0000801007B64F304000871D7F8A0000C79B3
:1031D000400860F347140C71D7F89C1021F01F01D0
:1031E0006960D7F8A01021F01F01296108F10108DA
:1031F00014350C36B3E700BF5416002000ED00E094
:10320000673E0020F0B55349534DD1F890302C68FB
:10321000C3F307239C4287B000F299800020FFF798
:1032200081FF4E4BC1F8C030844216D14C4D01A8ED
:103230002C70FFF72BFA002607464A4CB74213D1F1
:1032400000202B784349D1F89020C2F30722934203
:1032500077DBFFF75BFF002046E0696801EB0011B8
:10326000FFF772FE0130DFE70199300101EB061331
:10327000DA682240B2F1807F52D00AD8B2F5001F3E
:1032800034D0B2F5800F3ED0B2F5801F12D0013697
:10329000D4E7B2F1006F43D0B2F1805FF7D15A6842
:1032A0009B680958013B22F01F00034423F01F03D1
:1032B000012032E05A689B680958013B22F01F0048
:1032C00003440120844623F01F0340EA4C10CDE95B
:1032D00002218DF8100002A928780593FFF74CFE13
:1032E00000282ADA6FF0150007B0F0BD5A689B6815
:1032F0000958013B22F01F0003444FF0020C01204B
:1033000023F01F03E1E75A689B680958013B22F04C
:103310001F000344062023F01F034FF0000CD4E7E6
:103320005A689B680958013B22F01F0003444FF084
:10333000030C012023F01F03C7E72B7801332B7008
:10334000A5E7C1F89830C1F8A00001337BE74FF042
:10335000FF30C9E700ED00E0F8EE0100AAFF4400ED
:10336000673E00200000F0FFF0B587B007460E462C
:1033700014460021102268461D461AF08FFE0223D3
:103380008DF80230054B2A4621466846CDE9047681
:10339000019316F073FE07B0F0BD00BFAFB301009C
:1033A00008B5024B1B689847002008BD681600202E
:1033B000034B044A1860937843F0020393707047FC
:1033C000681600201002002008B50649064821F0C2
:1033D0000701C1F1005202F5802217F0A4F9002084
:1033E00008BD00BF63B100206C16002070B54169B4
:1033F0000446867A0A4D59B1437ADB0706D4242362
:1034000003FB0653DB691B689B68984700236361D5
:103410002420214600FB0650BDE870401AF037BB5F
:10342000400600202422024B02FB0030704700BF00
:10343000400600202421827A054B01FB02331A6AE0
:103440001B7D801A1B3323F00303B0FBF3F070479E
:103450004006002038B52424827A064B04FB023350
:10346000DB69D3E901240C601568FFF7E3FF04FB77
:10347000005038BD400600202DE9F04385B00546D8
:10348000684690461C4603911AF08AFDDDE9006704
:10349000EFF31189202383F31288BFF36F8F6B8AB8
:1034A000002B41D02A8A9A4225D90022002328469F
:1034B00015F0BCFC0446F0B189F31188BFF36F8F9F
:1034C000039B002B41D032463B4668461AF08DFDE7
:1034D0002421A27A254B204601FB0233DB6903A994
:1034E0001B681D68DDE90023A847606170BB2046AA
:1034F000FFF77CFF24E0698A4B1E6B8289F31188F9
:10350000BFF36F8F2B7D2A8A2C6A1B3323F00303B2
:10351000521A02FB0344154B154AEB1A9B105343F6
:10352000A3722B7DE372CBE789F31188BFF36F8F12
:1035300023464246284615F079FC04460028BFD1B0
:103540000024204605B0BDE8F08363610123002517
:103550002381039B29466382E27A656004F11800A7
:103560001AF09CFD63692582E360EAE740060020CB
:10357000398EE33870B524250C4C00B970BD037A40
:103580004668002BFAD0013BDBB20372002BF5D169
:10359000C3604360837A05FB03439B6913B198477B
:1035A0003046EAE7FFF722FFFAE700BF40060020B7
:1035B0002DE9F84F06460D4617460446A3466468B3
:1035C000002CFBD14FF02409DFF878A0BBF81030B5
:1035D000BBF81220DBF81410D21ADBF80C300BF118
:1035E0000C005B1AD21AAA4228BF2A461FFA82F898
:1035F0003946424617F064FFB5EB0805444447449A
:103600001DD00C9B53B1DDE90A010D9A9847834602
:10361000A8B10146304617F01FFFD7E7B07A09FB83
:1036200000A0C3699B6843B1AB4228BF2B46194633
:10363000DDE90A23FFF720FFE9E72946F8E72046FE
:10364000BDE8F88F4006002008B5244A244B1A60D4
:1036500013F002FC4FF47A612248D0F82436C3F309
:103660000802C3F309434B4382F480721E49883237
:1036700001FB02334FF4FA215B00B3FBF1F201FBD3
:1036800012331A49B3F57A3F28BF0132C1F8042931
:10369000D0F820364FF47A60C3F30802C3F309432D
:1036A000434342F21C5082F4807202F2172200FB64
:1036B00002334FF47A701B0AB3FBF0F200FB1233B3
:1036C0000020B3F5FA7F4FF0010328BF0132C1F8A3
:1036D0001C27C1F80009C1F8003608BD0020A10769
:1036E0000C05002000C0FF00F82A008000001250E6
:1036F00048B1054B054A1B68B3FBF2F35843044B32
:1037000043F00103184770470C05002040420F00AA
:10371000F0ED01000E4B402928BF402170B51D4639
:103720000C4C4618B04203F1020304D1002305F803
:103730001130074870BD02781209A25C03F8022C10
:1037400010F8012B02F00F02A25C03F8012CE9E74C
:10375000863E0020201B020030B503788BB0044663
:1037600007AD032B21D8DFE803F0021A1C1E124913
:103770002846FCF79FFE059563781E210493A378E5
:103780000E4A0393E3780E480293237901936379F9
:103790000093A37916F048FC09480BB030BD0949E5
:1037A000E6E70949E4E70949E2E70A212846084A29
:1037B00016F03AFCDFE700BF720302009403020038
:1037C000683E002079030200800302008A030200A1
:1037D0006915020030B50378012B11D0022B21D0DE
:1037E0006BB90A46144B03F1100453F8045BA3426F
:1037F00042F8045BF9D143881A0A8A70CB7030BD55
:103800000A460D4B03F1100453F8045BA34242F83F
:10381000045BF9D143681A0C180E4A700870C3F3A0
:103820000722EAE700F11003013913F80129984251
:1038300001F8012FF9D1E2E7311B020010B517F0B2
:10384000F5FE1AF037FA044608B915F0A5FF064B45
:10385000D3E8AF3F0BB10A2098471CB9BDE8104030
:1038600015F0AEBF10BD00BF7816002038B5044675
:10387000084817F0ADFD054648B1631EDBB21F2BAB
:1038800096BF054A0021D15C0C3017F022FE284675
:1038900038BD00BFF4060020411B02000F2810B500
:1038A0000CD80D280CD90A4817F092FD044618B11F
:1038B00004210C3017F00DFE204610BD1328F2D065
:1038C00009B10448F0E70220BDE81040FFF7CEBF81
:1038D0001807002088060020F0B505460E4617465A
:1038E00085B0AB88012B0ED9284617F025FE04467B
:1038F00048B1AB88984208D9022100930D4A03468B
:103900000D4817F002FC05B0F0BD284617F014FE74
:103910002B688DF80800013C394602A88DF8094053
:103920000393B0470028EED02146284617F0F4FD57
:10393000D7E700BFBE030200B0EC0100C3681B78EC
:103940000221024A024817F0E9BE00BFE903020063
:10395000C0EC010038B5C5682B7893B9B5F80140C3
:103960000F21204602F07EFDEB78054650B90A4A49
:10397000118831B96FEA04506FEA10501080074A7D
:10398000137038BD4372012102F066FC2846BDE881
:10399000384002F00FBC00BF463D0020073F00202A
:1039A00070B5C3681D787DBBB3F801600F21304648
:1039B00002F058FD044638B901213346BDE8704095
:1039C000124A134817F0AABE294602F045FCA37814
:1039D000012B04D02046BDE8704002F0EBBB231D54
:1039E000D3E8AF3FDB07F5D50321204602F034FCD6
:1039F000032017F0E0FF03460028EBD00221054A20
:103A0000034817F08BFEE5E770BD00BF110402000C
:103A1000C0EC01003704020010B501210C3017F092
:103A200083FD03780121BDE81040024A024817F0E7
:103A300075BE00BF5D040200C0EC0100014610B578
:103A4000084817F0C9FC084908481AF0E1F8031EB5
:103A500006DABDE810400121054A064817F05EBEAF
:103A600010BD00BF2C01002020030020F80D002015
:103A70007F040200C0EC01002DE9F14FC56801216F
:103A80002E88304602F0EEFC044640B90121334650
:103A9000284A294801B0BDE8F04F17F03FBEB5F8FD
:103AA0000280EE881FFA88F3AF88A3F11B022D89EC
:103AB000E02A1FFA86FA1FFA87F91FFA85FB04D954
:103AC00002211E4A1C4817F029FEAAF11B03E02B15
:103AD00005D9022153461A4A174817F01FFE44F22F
:103AE0004812A9F5A4739BB2934205D902214B4613
:103AF000144A114817F012FE44F24812ABF5A473B1
:103B00009BB2934205D902215B460F4A0A4817F03F
:103B100005FE2046A4F8A680A4F8A870A4F8AA6020
:103B2000A4F8AC5002F0EAFE204601B0BDE8F04F28
:103B300002F040BB9C040200C0EC0100C004020083
:103B4000E9040200120502003905020073B5C568D8
:103B50000121B5F80160304602F084FC044640B90A
:103B6000012133462D4A2E4802B0BDE8704017F0BF
:103B7000D5BD2B781A2B19D1C378012B4AD14FF41C
:103B80008041043017F0CCFD43040FD4D4F88C30BE
:103B900069460093D4F894302046019303F0D0FB9B
:103BA000204602B0BDE8704002F004BB2B788BBB0E
:103BB00040F2E242B5F803301A495343C4F8883062
:103BC000B5F80520A4F89020B5F80720A4F89220B5
:103BD000A3F5EA520C3A8A4204D90221124A10484B
:103BE00017F09CFDB4F89030B3F5FA7F04D30221AE
:103BF0000E4A0B4817F092FD40F67641B4F8923029
:103C0000A3F10A0292B28A4204D90221084A044866
:103C100017F084FD204602F025FEC1E79C04020057
:103C2000C0EC010095F03C00600502008705020031
:103C3000AE05020010B5002486B003AB00934FF42C
:103C400080624FF0FF3305490548CDE903440594F0
:103C500015F008FB204606B010BD00BF204E002026
:103C6000580D00200121024A024817F04EBD00BF46
:103C7000DA050200C0EC01000B46B0B50D8A00AFBA
:103C800004462946D868FFF745FD8AB06A46094BC5
:103C9000CDE90750CDE9053440F20243ADF82430B8
:103CA000054B4FF43251054842F8103F17F043FDE1
:103CB000BD46B0BDF405020005000001C0EC0100E6
:103CC00070B5C5680121B5F80160304602F0CAFB45
:103CD000044638B901213346BDE870400B4A0C4810
:103CE00017F01CBD2B783BB9D5F80330C0F89830DD
:103CF000D5F80730C0F89C30201D4FF4003117F084
:103D00000FFD2046BDE8704002F054BA9C0402004A
:103D1000C0EC01002DE9F84FD0F80C90018A99F819
:103D2000004000AFA30001338B425FD96D468AB0DB
:103D30006A46CDE9073105232E484FF42151CDE9DC
:103D400005042D4842F8103F17F0F5FCAD46BD467E
:103D5000BDE8F88F01212B46284A274817F0DEFCE2
:103D6000013699F800309E42F1DA09EB8603B3F888
:103D700001500F212846B3F8038002F073FB04467C
:103D80000028E7D000F1C80AB8F1000F06D0656935
:103D900045B901211A4A184817F0B7FC204602F02D
:103DA00009FADDE7A2692B6895422046636108BFE6
:103DB000A36102F025F915F06BF8C5F800B0236A8D
:103DC0008BB9C4E90755DAE8EF3F013BCAE8E23FA7
:103DD000002AF8D10021204608F1FF3802F01CF932
:103DE0001FFA88F8D0E71D602562ECE70026B3468D
:103DF000B7E700BF16060200C0EC01004106020052
:103E00005D06020037B50446084602EBC3039A423A
:103E100002D16FF05E0010E0114611F8085BA54278
:103E200011D1038A5178994209D908480121084AD9
:103E3000009417F06AF96FF0150003B030BD5368B5
:103E400098470020F9E70A46E1E700BFC0EC01000F
:103E5000740602002DE9F0470C4615F09DFCE5685C
:103E60002B78022B75D0042B0AD001213D4A3E4805
:103E700017F054FC2046FFF77DFB6FF015040EE0B1
:103E8000B4F81080B8F1020F0ED84346374A3648CE
:103E9000012117F043FC2046FFF76CFB002415F0CE
:103EA0008FFC2046BDE8F08768783E280CD1B8F139
:103EB000030F02D12E4A4346E9E7EB78012B01D0EC
:103EC0000A2B46D1032704E017F00CFC0746F8073D
:103ED0003FD504F10C0601213046D4F814A017F0A8
:103EE0001BFB0221304617F01FFB814600783E285D
:103EF00007D1E3681B78012B01D00A2B06D10326DA
:103F000014E017F0EFFBC10706460FD441F2681327
:103F1000184A1949194816F0A6FC002383F31188A2
:103F2000BFF36F8F0323184602DF0226144A0623CD
:103F3000214699F8000017F00AFCB2070DD5636915
:103F4000A5EB0A0513FA85F5E560A4F81080BB0718
:103F5000A4D52046FFF772FDA0E72046FFF70AFB35
:103F6000F5E700BF3C070200C0EC01009606020026
:103F7000B2060200D2060200060702001F07020076
:103F8000A4EF010010B5012104460C3017F0CCFA63
:103F90002146BDE810400223014A007817F0D7BB44
:103FA000D4EF010073B53E4817F02BFA0446002801
:103FB00073D000F10C05284617F0BEFA022803461C
:103FC00003D0042847D0374A03E0238A032B05D8BF
:103FD000354A0121354817F0A1FB13E0042128469A
:103FE00017F0A2FAFF23428806882376238AC6F3B5
:103FF0000B009A42608309D0012100922B482C4A81
:1040000017F083F82046FFF7B5FA12E00F2102F00F
:1040100029FA054610B9638B264ADAE702F048FA16
:1040200021462076320B284602F048F8284602F056
:10403000C1F8214BD3F82C317BB32049204819F02B
:10404000E7FD031E29DA01211E4A184802B0BDE827
:10405000704017F063BB2846022117F065FA054649
:1040600000783E2812D017F03DFB10F002060DD16B
:1040700040F69A43144A1549154816F0F4FB86F3A6
:104080001188BFF36F8F0323184602DF04232146F4
:10409000104A287817F05BFBB4E702B070BD00BF90
:1040A0002C010020E507020050070200C0EC0100CF
:1040B0007107020095070200000000202003002085
:1040C000F80D00207F040200D2060200B7070200AC
:1040D0001F070200E4EF010010B5012104460C3077
:1040E00017F022FA2146BDE810400823014A007863
:1040F00017F02DBB04F00100F8B50121044600AF14
:104100000C3017F011FA0678002321463046104A89
:10411000FFF778FE5F3019D1258AE0682946FFF75E
:10412000F9FA6C468AB06A460A4BCDE90750CDE9E8
:10413000053640F20243ADF82430074B4FF43251BC
:10414000064842F8103F17F0F6FAA546BD46F8BDFE
:1041500044F00100F907020005000001C0EC010075
:104160002DE9F74F0023804689461746DFF800A166
:10417000DAE8EF4FCAE8E23F002AF9D1264644B90F
:10418000012143463B4A3C4803B0BDE8F04F17F0DD
:10419000C5BA2046FFF74EF94FF00C0B374D0BFB1D
:1041A0000050438843451BD02046FFF743F90BFBE3
:1041B0000050438801210093314A43462E4816F0AF
:1041C000A4FFDAE8EF3FCAE8E26F002AF9D1002B3A
:1041D0004BD01E46304603B0BDE8F04FFFF7CAB9DA
:1041E000A74208D0204617F0EEF83A8AF96804F1A1
:1041F0000C0017F065F92046FFF71CF90C2707FBA8
:1042000000504368ABB1B9F1000F12D12046FFF75F
:1042100011F9012107FB00504268536803F01F00A9
:10422000814010685B0900EB8300137ACBB117F073
:1042300077FA2046FFF7FEF80C2707FB005083684B
:10424000002BC7D02046FFF7F5F8784305F800901B
:104250002046FFF7EFF807FB0055A86814F018FE9A
:10426000B8E7C94317F06AFAE3E703B0BDE8F08F97
:10427000280100202B080200C0EC01007C16002061
:104280005308020008B501F0EDFB064BD3E8AF2F51
:1042900002F00B02D3E8EF1FC3E8E02F0028F9D1AA
:1042A00008BD00BFD400002010B5C1E900239DF86F
:1042B00008300C460B72FFF7BDF80C22024B02FBD4
:1042C00000335C6010BD00BF7C160020F8B50246CC
:1042D0000B46104817F07CF80446C0B104210C309E
:1042E00017F0DDF82046FFF7A5F80C2700260A4D49
:1042F00007FB005046802046FFF79CF807FB005064
:1043000086602046FFF796F807FB00556E60204652
:10431000F8BD00BFD00600207C1600200138C0B2D6
:1043200002289ABF014B185C00207047611B0200F5
:1043300070B5C5680121B5F80160304602F092F809
:10434000044638B901213346BDE870400A4A0B489B
:1043500017F0E4B9E878FFF7E1FF84F8A4002879C2
:10436000FFF7DCFF84F8A500204602F0EDFA2046B6
:10437000BDE8704001F01EBF9C040200C0EC0100CB
:1043800010B5044692B04422064901A819F079FEFE
:10439000102C9DBF12AB03EB840454F8440C02486C
:1043A00012B010BD88ED010086080200034B0146E3
:1043B000D3F8440182689268104700BF00000020D3
:1043C0002DE9F047042100AF474817F0A9F96D46E1
:1043D00001F048FB88B06A46444B4FF4E651059320
:1043E000434B444806934FF40073ADF81C30424BE6
:1043F000424C42F8103F17F09EF9AD46E179404B30
:10440000404E2046012998BF1E46FFF7A5F98AB005
:104410006A463D4B0790CDE905363C4B4FF423519E
:1044200008933B4B334842F8103F17F084F9A246FB
:10443000AD460125374EDFF8E080E3790AF1070A3F
:104440009D423ADB94F870506E462846FFF798FF7D
:104450008CB06A46B4F87210B4F87630CDE90751E2
:104460004FF40075DFF8B4C009932D4BCDE905C0BA
:10447000ADF828504FF4535142F8103F1D4817F043
:104480005AF9B54694F871603046FFF779FF8AB063
:104490006A46B4F874302349CDE90763224BCDE96D
:1044A0000510ADF824504FF43351124842F8103F34
:1044B00017F041F9BD46BDE8F0875046FFF74CF9CB
:1044C000E9468AB06A4640F20133CDE905650790B6
:1044D000ADF820304FF41351064842F8108F17F012
:1044E0002AF90135CD46A8E7D40000209208020041
:1044F000A4080200C0EC010003000001000000203D
:104500003CFE01008E080200AF0802000002010319
:1045100004000002BE08020004000001CF080200EF
:10452000060000010D090200050000010048704767
:10453000340902000149024819F06ABB1003002047
:10454000580D002070B505460C4639B1CB684A6954
:104550009B1A032B0ED86FF0150509E04FF0FF30C2
:104560004FF0FF31FFF7B2FE044618B96FF068054F
:10457000284670BD2046FEF75DFF0C22164BA6189C
:1045800002FB0033032130465D8016F0B4FF058046
:10459000238A0121033B8370304616F0B4FF40F6B6
:1045A00035439D420FD12046FFF700FF0546002806
:1045B000DED001210346094A094817F0AFF820462A
:1045C000FEF7D8FFD4E72146064819F055FA002532
:1045D000FFF7B0FFCCE700BF7C16002044090200C3
:1045E000C0EC0100340100202DE9F04784B0804682
:1045F00091460C4600AF71B94FF0FF304FF0FF31DC
:10460000FFF764FE044660B96FF06805284610376E
:10461000BD46BDE8F087887AFEF704FF3B4B834236
:104620006ED101220021384619F03FFA2046FEF7EC
:1046300001FF0C23DFF8D8A003FB00A08760204611
:1046400016F0F5FE01464046FFF77CFF054618B11F
:104650002046FEF78FFFD9E7002338462D4A14F095
:104660004BFC064690B14FF4F1732B4A2B492C4872
:1046700016F0F9F8324641462A4816F0F4F885F368
:104680001188BFF36F8F0323184602DF2046FEF721
:10469000D1FE0C2358431AF800605EB36D468AB011
:1046A0006A46214B0796CDE90538204B4FF432512D
:1046B000089340F20243ADF824301D4B1D4842F8E8
:1046C000103F17F038F82046AD46093EFEF752FF7E
:1046D000092E0CD8DFE806F0050B0B08170B0B0BA7
:1046E0000B146FF06E0591E76FF00C058EE76FF01D
:1046F00004058BE7B9F1000FAAD0C9F8004085E79F
:104700006FF0150582E76FF00B057FE7D0060020FC
:104710007C160020B4C40400D20602006609020020
:104720001F0702006F090200B40902003CFE0100ED
:1047300005000001C0EC010073B506460D4642F2CB
:104740002F00002101AAFFF74FFF044638B10121D5
:10475000144A154816F0D9FF204602B070BD0198E2
:10476000C368B3F801203280B3F803302B80FEF722
:1047700001FF3388A3F11B02E02A04D902210B4A6E
:10478000094816F0CBFF44F248112B88A3F5A47218
:1047900092B28A42E0D90221054A034816F0BEFFD0
:1047A000DAE700BFD3090200C0EC0100C404020034
:1047B00016050200F0B585B006460DF10301002094
:1047C00000F0ECFF0446002846D14FF0FF304FF0D8
:1047D000FF31FFF77BFD0746002840D019210C3040
:1047E00016F068FE05462146192219F057FC9DF87F
:1047F000033006F170012B73681D16F088FF194B0A
:1048000038469A89D4332A8033F8C62C6A800193BB
:10481000072302930123B6F88C208DF80C30A5F8FD
:104820000D20B6F88E20A5F80F20B6F89020A5F838
:104830001120B6F89220A5F81320FEF7FBFD0C22FC
:10484000094B394602FB003301AA5A6042F20D00BF
:104850002246FFF7C9FE0446204605B0F0BD6FF0C2
:104860006804F9E7000000207C160020F8B5022853
:10487000054600AF3DD100210246084602F06EF920
:10488000044680B90121264A264816F03EFF03203F
:1048900017F091F8034620B10221234A214816F06F
:1048A0003DFFBD46F8BD031DD3E8AF3FDB0706D58E
:1048B000032101F0D1FC204601F07CFCE7E7403009
:1048C00019F0E3F910F00C0608D116482946174AEA
:1048D00016F01BFF314620466572EAE72046FFF7D7
:1048E00069FF0028E7D00121114A0E4816F00DFF9C
:1048F000E1E76C468AB06A460E4B4FF41251CDE99F
:1049000005300D4B0748079340F20133ADF82030D6
:104910000A4B42F8103F16F00EFFA546C1E700BF54
:10492000F3090200C0EC010037040200110A020082
:10493000370A0200530A02003CFE01000400000195
:1049400030B54FF0FF304FF0FF3185B0FFF7BEFCC0
:104950000446B0B10C4B0025019307238DF80C5091
:104960000293FEF767FD0C22084B214602FB003341
:1049700001AA5A6042F20E002A46FFF735FE05B042
:1049800030BD6FF06800FAE7D40000207C160020EC
:104990002DE9F04385B000265D4BB0F801901988F1
:1049A00049F47042914204BF1E805A4B00F1040842
:1049B00008BF1E78C3780546012B08BF564B4046FA
:1049C00000AF14BF002493F86F4016F02BFE414651
:1049D000B0B307F1080016F01AFED5F81130C7F889
:1049E0000130B5F81530A7F8053001233B70E878A1
:1049F00040B9022207F1080102F0B0F8EB78044652
:104A00005BB384BB4046FEF7A7FE6C4688B06A469F
:104A1000424B4FF4E251CDE905304FF40073ADF84D
:104A20001C303F4B3F4842F8103F16F084FE1321E4
:104A3000A546484616F0C1FE1437BD46BDE8F083D2
:104A4000204616F08BFF014607F1080016F05FFEC6
:104A50004146384616F05BFEC9E76FF080013248E8
:104A600016F06CFECDE7204640F2E242B5F8013088
:104A700007F1080120F8703B16F049FEB5F8173031
:104A800053430022C4F88830B5F81930A4F89030A8
:104A9000B5F81B30A4F89230EB786272234AE370C9
:104AA000C4F8A4204732C4F8A8204FF4A472A4F894
:104AB000AC206BB9394604F17E0016F028FE217A4D
:104AC000154BC1EBC101194404F1770016F01FFE2C
:104AD0000721204601F0C0FB26B101212046667265
:104AE00001F0BAFB204601F01FFD204601F062FBF9
:104AF000E378002BA0D1032016F05DFF03460028C9
:104B00009AD002210A4A074816F008FE94E700BF2F
:104B1000463D0020073F0020000000206F0A0200F1
:104B200003000001C0EC0100D400002001011B00C3
:104B30003704020000B5C16889B0087820B109B017
:104B40005DF804EBFFF792BEB1F801308DF800007C
:104B5000ADF80130CB7801A88DF80330B1F80B30F7
:104B60000431ADF81730B1F80930ADF81930B1F8AB
:104B70000B30ADF81B304B7B8DF81D3016F0C7FDA8
:104B8000084B68461A689B88CDF80B20ADF80F30AB
:104B9000CDF81120ADF81530FFF7FAFE09B05DF839
:104BA00004FB00BF1A1B02000022F0B585B01146BD
:104BB00040F6034002AFFFF717FD044600285BD123
:104BC000FFF760FB214641F203003A1DFFF70CFDA1
:104BD0000446002850D17A68C64DD16805F17803A3
:104BE000D1F80100D1F8051003C31046FEF7C2FC4E
:104BF000214641F201003A1DFFF7F6FC0446002869
:104C00003AD17868C3685A7885F870205A88A5F830
:104C100072201A7985F87120B3F80720A5F874205E
:104C2000B3F80530A5F87630FEF7A4FC214641F232
:104C300002003A1DFFF7D8FC0446E8B9D7F804C0D3
:104C400005F18006DCF80C20531C4132344618680C
:104C50005968083303C493422646F7D16046FEF7ED
:104C600089FC95F87C3059060AD40121A24AA34850
:104C700016F04BFD6FF0120420460C37BD46F0BD18
:104C8000002142F203003A1DFFF7AEFC0446002863
:104C9000F2D17A689A4BD168D1F80100D1F80510A9
:104CA00003C31046FEF766FC214642F202003A1D9D
:104CB000FFF79AFC04460028DED17E68F468B4F859
:104CC00001309AB292B1E27882B1A5F8FC30E37873
:104CD0000A2B06D00A22022100928848894A16F03F
:104CE00014FAE2788848114618F0DFFE3046FEF7E5
:104CF00041FC95F87C6016F0200619D14FF0FF308A
:104D00004FF0FF31FFF7E2FA0446002800F09F81E0
:104D100002210C3016F0CEFB0123214603704670B1
:104D2000324640F66D40FFF75FFC04460028A3D1F1
:104D300095F89C301A0712D5002142F21C003A1D4A
:104D4000FFF752FC0446002896D17868C368D3F870
:104D50000120D3F80530C5E93823FEF70BFC95F8A0
:104D6000D8309B0622D53846B91CFFF7E5FC04462F
:104D7000002881D14FF0FF304FF0FF31FFF7A6FA46
:104D80000646002800F0638104210C3016F092FBE7
:104D90003B88224603807B883146438042F22400D0
:104DA000FFF722FC044600287FF466AF4FF0FF3087
:104DB0004FF0FF31FFF78AFA0446002800F04781E0
:104DC00008210C3016F076FB95F8D820214612F019
:104DD000020F14BF2F230F23960695F8D92048BF42
:104DE00043F0400312F0090F4FF0000218BF43F4E4
:104DF00000630370C3F3072343708270C2700271B3
:104E000042718271C27142F20100FFF7EDFB04466C
:104E100000287FF431AF95F87C30B5F8FC10980687
:104E20005DD4C9B941F205003A1DFFF7DDFB044628
:104E300000287FF421AFB5F8FC307C684BB9E368FB
:104E4000B3F80120A5F8FC209A882F48114618F0E5
:104E50002CFE2046FEF78EFB4FF0FF304FF0FF3167
:104E6000FFF734FA0446002800F0F18008210C30E6
:104E700016F020FB102303708823002243700226C3
:104E8000202321468270C670027142718271C37103
:104E900040F60140FFF7A8FB044600287FF4ECAE83
:104EA00001463A1D4FF60140FFF79EFB90B3174AAB
:104EB0000221124816F029FCEB79002B40F0B78054
:104EC00000F082FC044600287FF4D6AE01F0DAFF41
:104ED000044600287FF4D0AEFFF772FACCE6002932
:104EE000BAD101210A4A054816F00FFC6FF00404FC
:104EF000C2E600BF000000208B0A0200C0EC0100E7
:104F0000D8000020AF0A020000010020180B0200A8
:104F1000F50A02007B686E46DC688AB0B4F801309E
:104F2000042B96BF574A584952F8231002AAD3615E
:104F30004FF4007355481384554BC2E9050142F8FC
:104F4000103F4FF41351534816F0F5FBB4F801200D
:104F5000B546022AB4F8033049D1052B47D84E4A4A
:104F600052F823106E468AB002AAD3614FF4007340
:104F70004A481384464BC2E9050142F8103F4FF4FA
:104F80001351444816F0D7FBB546637994F806C030
:104F9000032B98BF424AB4F80760D4F809006C4666
:104FA0008CB094BF52F82310374902AAC2E9073CDB
:104FB0004FF40073DFF8ECE093853B4BC2E905E169
:104FC000C2E909604FF4735142F8103F314816F0BE
:104FD000B2FBA5467868FEF7CDFA00214FF60240F5
:104FE0003A1DFFF701FB044618B1304A60E7264935
:104FF000B8E77868C368B3F80130A5F8C130FEF7A8
:10500000B9FA95F8C1305A077FF556AF21464FF6E9
:1050100003403A1DFFF7E8FA08B1254A48E77868E7
:10502000C3685B7885F8C030FEF7A4FA44E72E78B1
:10503000002E7FF445AF95F8C1309B061FD54FF089
:10504000FF304FF0FF31FFF741F9044610B96FF020
:10505000680411E606210C3016F02CFAD5F8013060
:1050600021460360134B32469B8883804FF60640EF
:10507000FFF7BAFA044600283FF422AFFCE56FF0D0
:105080008504F9E590EF0100860802003C0B020060
:1050900004000001C0EC010078EF0100550B020094
:1050A00068EF01006D0B0200070000019A0B02007F
:1050B000C30B02000100002010B5FFF775FD034B84
:1050C0001B6813B1BDE81040184710BDA0160020A2
:1050D00073B52A4D0646D5F8440118F075FB48B95A
:1050E0000121274A274816F010FB6FF012042046D2
:1050F00002B070BD6FF0020105F1D40016F01EFB86
:10510000012116F00DFB10EA010434D11E4B1E6084
:105110000A4605F58C7018F0C8FC05F59A7018F071
:105120007DFC1A4818F09FFD6FF007034FF496625C
:1051300017491648009414F095F81649134818F0CA
:10514000BFFDD5F84401144983681B68984704469D
:1051500030B101210346114A0A4816F0DFFAC6E7CA
:1051600026B902B0BDE87040FFF71EBD05F1C400CE
:1051700014F072F8BBE76FF07704B8E70000002086
:10518000EC0B0200C0EC0100A0160020F80D00207E
:1051900020520020040C0200553E00000D0C0200BD
:1051A00073B5C368D9789A781E8842EA0122ADF8AF
:1051B000002059791A79B4B242EA0122ADF80220EE
:1051C000D9799A79204642EA0122ADF804201A7A68
:1051D0005B7A012142EA0323ADF8063001F042F97F
:1051E000054658B901211D4823461D4A16F096FA76
:1051F0000221204616F068FB02B070BD694601F03E
:10520000C9FB38B91E21204616F05EFB284600F087
:10521000D1FFF1E74FF0FF304FF0FF31FFF756F8C5
:1052200004460028F2D00E210C3016F043F900237A
:105230000680C0F80A30BDF8003021464380BDF832
:1052400002308380BDF80430C380BDF8063003818E
:1052500042F22000FFF776F9D8E700BFC0EC01006A
:105260009C04020038B5042104460C3016F05CF9A9
:10527000034640885D7818B122461978FEF770FF22
:1052800035B1044813F004FEBDE83840FFF752B9C9
:1052900038BD00BF18010020B0B50446032100AF9F
:1052A0000C3016F041F9E2680346117840F63542B9
:1052B000B0F80100904216D16C468AB06A46104B95
:1052C0001048CDE90531104B4FF41251079340F2CD
:1052D0000133ADF820300D4B42F8103F16F02BFA99
:1052E000A546BD46B0BD1D7810B12246FEF738FF79
:1052F000002DF6D0064813F0CBFDFFF71BF9F0E7C1
:10530000290C0200C0EC01003CFE01000400000179
:105310001801002038B514F03FFA2F4DD5F834317C
:10532000002B56D00022002305F58C7013F0E4FD0D
:1053300000284ED10022002305F59A7013F076FD67
:10534000044668B940F6AA43244A2549254815F081
:105350008AFA84F31188BFF36F8F0323184602DFA4
:10536000D5F828315BB101211F4A204816F0CDF94C
:10537000D5F82801FEF7FEF80023C5F828312046AD
:1053800016F055F8C5F828012046FFF70FF8034638
:10539000C8B10121164A154816F0C0F9154813F096
:1053A00077FD2046FEF746F80C22134B02FB003334
:1053B000588818B122461F21FEF7D2FE2046FEF77C
:1053C000D9F8FFF7B7F8FFF7B5F8BDE8384014F0A3
:1053D000F7B901F0B9F8F8E700000020D2060200A2
:1053E000BA0302001F070200610C0200C0EC0100BA
:1053F00044090200180100207C16002070B54FF00F
:10540000FF320D464FF0FF3300210646FEF746FA05
:10541000044660B91A230A4A0A490B4815F023FAD0
:1054200084F31188BFF36F8F0323184602DF022134
:1054300004F10C0016F03EF806704570204670BD71
:105440009D0D0200BA0302001F070200F8B50646D0
:105450000024094DEF79E3B29F4202D86FF00100BA
:1054600007E02946304616F06FFA0735631C08B18D
:105470002046F8BD1C46EEE70000002070B51A4E2D
:1054800006223146054618F011FE38B34FF0FF30C2
:105490004FF0FF31FEF71AFF044608B306222946F3
:1054A0000C3016F00DF82146002242F20500FFF7FD
:1054B0009BF8044648B110F10D0F04D102210B4AAC
:1054C0000B4816F049FA204670BD33462A6843F867
:1054D0006929AA88B280012283F868200024F2E7B3
:1054E0006FF06804EFE700BF69000020D30D0200F1
:1054F000C8EC010073B504460D4689B1284617492A
:1055000016F022FA60B9164A2968C4EBC404115196
:10551000A318AA889A80AA799A71002002B070BD57
:105520006E46304616F065F80028F7D13046FFF792
:105530008DFF0028F5DA0A4A0098C4EBC404105124
:10554000B179B088A31898809971002DE5D01259CF
:105550002A609A88AA809B79AB71DEE70D1B020056
:105560000000002070B5044629BB38B3264916F068
:10557000EBF918BB2046FFF769FF00283EDA2378D5
:105580006BB9224AD379002B38D120681060A179F9
:10559000A0889171012190801846D17170BD012BB6
:1055A00004D1A37903F0C003C02B07D00121184A0E
:1055B000184816F0D1F96FF01500EFE7134DEB79AD
:1055C000012B1ED005F1D403D3E8AF3FDB0707D48E
:1055D000002CF0D020460C4916F0B6F90028EAD18C
:1055E000EE792146731C3046EB71FFF783FF08B953
:1055F0003046D3E7EB79013BEB71CFE76FF07700F3
:10560000CCE76FF00B00C9E70D1B02000000002083
:10561000E20D0200C8EC01002DE9F341044640B957
:105620001A4A02211A4816F097F9002002B0BDE884
:10563000F081002141F2090001AAFEF7D5FF0546DD
:1056400008B1144AEDE7019E0622D6F80C801249F3
:1056500008F10107384618F029FD28B1062238461E
:105660000E4918F023FD18B93046FDF783FFDCE73B
:10567000D8F801303046C4F80130BB882570A4F852
:105680000530FDF777FF0120D0E700BF100E0200C4
:10569000C8EC0100290E02001A1B0200141B0200B4
:1056A00007B56846FFF7B8FF044BD87118B16946D3
:1056B0000020FFF71FFF03B05DF804FB000000208F
:1056C0002DE9F041304E88B0F179002954D196F897
:1056D000C24014F0010411D12C4A02212C4816F0CA
:1056E0003BF90024F471162500240127F379E0B278
:1056F00083422BD8002B3FD000203AE06A464FF679
:105700000940FEF771FF08B1224AE6E7DDF800C064
:10571000DCF80C5095F80180B8F1000F0ED0AB1CEE
:1057200002AA1235174618685968083303C7AB42F6
:105730003A46F7D1186838609B88BB806046FDF711
:1057400019FFB8F1000FCDD1134AC6E708AB05FB2E
:10575000003353F8182C33F8143C6946CDF8012077
:10576000ADF805308DF80070FFF7C4FE0134002855
:10577000BCD008B0BDE8F0810021084608B0BDE803
:10578000F041FFF7EFBE00BF00000020470E02000F
:10579000C8EC0100730E0200930E020038B50C46EF
:1057A00061B108480578012D05D10130FFF766FE8B
:1057B00000B9257038BD00200870FBE76FF01500B8
:1057C000F8E700BF0000002038B5104DEB7913B1A9
:1057D0000024204638BDFFF763FF044628B10C4A79
:1057E00001210C4816F0B8F8F3E7EB79002BEFD164
:1057F000FFF766FF04460028F1D1681CFFF73EFE64
:1058000004460028E5D0044AEAE700BF0000002073
:10581000BC0E0200C8EC0100DB0E020070B50546AC
:105820000E464FF0FF304FF0FF3186B0FEF74EFDD1
:105830000446A0B102210C3015F03CFE094A467026
:10584000057003A9204605230095FEF72DFD0022D3
:10585000214642F20C00FEF7C7FE06B070BD6FF0A5
:105860006800FAE7D400002008B50C4B0246400956
:1058700003EB800016F09CF802F01F0340FA03F3DC
:1058800013F0010006D122B9054816F091F840F353
:10589000C01008BD6FF07700FBE700BFA416002022
:1058A000D4000020084A430902EB8302012300F0E0
:1058B0001F008340DB43D2E8EF0F1840C2E8E10F3E
:1058C0000029F8D1704700BFA416002030B587B07A
:1058D000002200235D4813F0E7F90446002840F059
:1058E00092805B4816F064F810F00103584D46D0E2
:1058F0002B1D93E8070006AB03E90700554816F097
:1059000057F8C0F34013524816F052F804460028E6
:105910006CD07BB10C2250490DEB020018F0C6FB95
:10592000044600286CD000210846FFF777FF0446A4
:10593000002865D10023ADF80930BDF80E309DF880
:105940000C00ADF80530BDF810308DF80400ADF84E
:105950000730431E58420DF10901584116F01BF85B
:10596000044600284CD14FF0FF304FF0FF31FEF7D6
:10597000ADFC0546002849D16FF0680440E0354889
:1059800016F016F810F0800F344A0ED04FF48074E1
:105990009089D1891269ADF80C40ADF80E00ADF8D0
:1059A0001010ADF812300592A8E72D4C03AB20681B
:1059B000616803C3A068186092F8D930180748BF1F
:1059C0000523234848BF8DF80D3015F0F1FF8107FE
:1059D00006D53023ADF810306023ADF80E308DE7DA
:1059E0001B4815F0E5FF4207F3D487E743B10146B2
:1059F000FFF714FF044618B9174B2861C3E90100EB
:105A0000124813F0C3F9204607B030BD072201A9A0
:105A10000C3015F055FD2246294642F20B00FEF7E8
:105A2000E3FD04460028EBD19DF80D10012001F0A4
:105A30000101FFF7F3FE04460028E1D1064B06AA58
:105A400012E9070083E80700DAE700BFC01600206C
:105A5000A4160020D4000020B4160020000000206E
:105A6000E0ED01004422002110B5084818F016FBB3
:105A7000064B03F11C001C4617F049FF04F13000EF
:105A800017F045FF0022024B1A6010BDA41600203B
:105A9000F0160020032838B5054603D1BDE838408C
:105AA000FFF714BFFFF7E0FE0446A8B90B4B6A09E5
:105AB00003EB8203012205F01F018A40D3E8EF0FB8
:105AC0001043C3E8E10F0029F8D1FFF7FFFE0446B9
:105AD00010B12846FFF7E6FE204638BDA416002088
:105AE0002DE9F04F00F10C088BB00446404615F04C
:105AF00023FD0646864815F05BFF00F0010384484D
:105B0000039315F055FFC0F38003029316B90BB051
:105B1000BDE8F08F039B13B9029B002BF7D0238ABB
:105B2000082B07D801217B4A7B480BB0BDE8F04F1A
:105B300015F0D8BA0921404615F0F6FC037A228AFE
:105B400001339A420546EDD30123ADF824307F237B
:105B50008DF81E30037A471C03445B7A8DF81D30A4
:105B6000FF238DF81C300023ADF822300278042A80
:105B700098BF6A4B8DF81F2098BF9B5CADF8203012
:105B8000037A6348019315F013FF00F001096048A0
:105B900015F00EFF8246B9F1000F0BD0BDF8203092
:105BA0005A0707D5297A40460131013E15F0B4FC69
:105BB000F6B2ABE7384615F035FD0DF1100B0028B5
:105BC0004FD03946584615F022FDB9F1000F02D1E9
:105BD0001AF0040F59D1524BD3F800A0BAF1000FBC
:105BE00014D0E2686369B4F810B0A2EB0309019B1A
:105BF0009DF81F2023829DF91D10434604A8D0471D
:105C00006369A4F810B013FA89F3E36004AB069358
:105C1000444B1B68002B36D053F80899B9F1000F9C
:105C200001D0A9F108091A688AB1E1686269B4F87B
:105C300010B0A1EB020A019A414622821B6806A815
:105C400098476369A4F810B013FA8AF3E360B9F1D6
:105C5000000F18D0D9F8082002B1083A4B469146F7
:105C6000E1E76B78FF2B09D12F4B186804909A88D5
:105C70009B79ABF804208BF80630A6E7394615F07F
:105C80006DFE0346F1E7002306932148BDF820305E
:105C900015F08EFE10F0010984D1DB0782D50322B6
:105CA000484604A900F05AFF824600283FF47AAF24
:105CB000022015F080FED5F801305046CAF87E303B
:105CC000BB88AAF88230BB798AF8843015F073FD5E
:105CD000A8B11F2349468AF80930504600F0BCFAA3
:105CE000504600F067FAFFF7F1FD034600283FF445
:105CF00059AF02210D4A084815F0FDF952E7504608
:105D0000022100F0A9FA504600F054FA4AE700BF19
:105D1000A4160020FE0E0200D8EC0100641B020055
:105D2000F0160020E81600200D1B020037040200C8
:105D3000F8B50546224815F03BFE43070F463CD513
:105D40002A78012A03D96FF015042046F8BD6B7834
:105D50000F2BF8D843F6FC746888031F9BB2A3424C
:105D6000F1D8A9880B1F9BB2A342ECD88842EAD392
:105D70007AB900220023134812F096FF0446002847
:105D8000E3D1FFF771FD044640B10E4812F0FEFF6B
:105D9000DBE715F0FEFD0028EBD1D4E72868696841
:105DA000094E0A4B03C6A8681F6030602046FFF703
:105DB00071FE044606F12400E8E76FF00A04C4E728
:105DC000D4000020D4160020A8160020F0160020D1
:105DD0000020024B186015F0EEBD00BFF016002049
:105DE00008B5034815F0E4FD00F0010008BD00BF50
:105DF000A416002070B505460B4B1C6844B154F83E
:105E00001C3C1C3C13B12846697A9847E469F5E7C5
:105E1000064C074EB44200D370BD236813B1284628
:105E2000697A98472034F5E77C17002048EC010098
:105E300068EC010010B50446FDF7FCFA044901EBDB
:105E40000011204615F02FFCBDE81040FEF772BB94
:105E5000F4160020002270B50446D1E90156074827
:105E6000C1E9012217F008FE3DB1314620462B461C
:105E7000BDE870406FF06D02184770BD300600201D
:105E80001FB504460430D0E8EF3F43F48062C0E819
