:10000000E8C800201D170000C7B80100091700004C
:100010000917000009170000091700000917000060
:100020000000000000000000000000005517000064
:10003000091700000000000029190000091700003E
:10004000A9190000A9190000A9190000A9190000A8
:10005000A9190000A9190000A9190000A919000098
:10006000A9190000A9190000A9190000A919000088
:10007000A9190000A9190000A9190000A919000078
:10026000A9190000A91900004D340100A9190000C6
:10027000A9190000A9190000A9190000A919000076
:10028000A9190000A9190000A9190000A919000066
:10029000A9190000A9190000A9190000A919000056
:1002A000A9190000A9190000A9190000A919000046
:1004800053B94AB9002908BF00281CBF4FF0FF31FB
:100490004FF0FF3000F00CB8ADF1080C6DE904CE60
:1004A00000F010F8DDF804E0DDE9022304B0704745
:1004B000704700BF034613F8012B002AFBD1181A1E
:1004C000013870472DE9F0478C468E46089E154648
:1004D00004461946002B40F0D080724547D9B2FA45
:1004E00082F74FB1C7F120030EFA07FCBD40BC40B4
:1004F00020FA03F343EA0C0C4FEA154EA8B2230C82
:10050000BCFBFEF80EFB18CC08FB00F943EA0C43D9
:10051000994528D9EB1808F1FF3204D2994502D940
:10052000A8F102022B44A3EB0903A4B2B3FBFEFC27
:100530000EFB1C330CFB00F044EA0344A04214D928
:100540002C190CF1FF3304D2A04202D9ACF1020302
:100550002C44241A43EA02401EB1FC4000233460BC
:100560007360BDE8F0874246DDE76346F1E7002AA5
:1005700079D0B2FA82F3002B3FD01946C1F12003A3
:1005800002FA01F500FA01F42EFA03F20EFA01FE66
:1005900020FA03F3AFB243EA0E034FEA154EB2FB63
:1005A000FEFC0EFB1C201A0C0CFB07F842EA004272
:1005B00090455AD9AA180CF1FF3004D2904502D9BF
:1005C000ACF102002A44A2EB08029BB2B2FBFEFC93
:1005D0000EFB1C220CFB07F743EA02439F4246D95D
:1005E000EB180CF1FF3204D29F4202D9ACF10202A7
:1005F0002B44DB1B42EA004202E0AEEB0203012285
:100600004FEA154EAFB2200CB3FBFEFC0EFB1C33C1
:100610000CFB07F840EA034398452AD9EB180CF184
:10062000FF3004D2984502D9ACF102002B44A3EB71
:100630000803A4B2B3FBFEFC0EFB1C330CFB07F754
:1006400044EA0344A74216D92C190CF1FF3304D213
:10065000A74202D9ACF102032C44E41B43EA004058
:100660000F46114678E71F2188E76046ABE76246F0
:10067000BFE76046DBE76346EFE7734506D916B987
:10068000002108466DE7C6E9000EF9E7B3FA83F7E3
:1006900087B9734501D3824207D8841A6EEB0303EE
:1006A00001209C461EB900215BE73846FAE7C6E9FF
:1006B000004CF8E7C7F1200CBB4000FA07F422FA1F
:1006C0000CF520FA0CF1BA401D432EFA0CF30EFA89
:1006D00007FE4FEA154941EA0E011FFA85FEB3FBFA
:1006E000F9F809FB18300B0C08FB0EFA43EA00433B
:1006F0009A4540D9EB1808F1FF3004D29A4502D947
:10070000A8F102002B44A3EB0A0389B2B3FBF9F86A
:1007100009FB183308FB0EFE41EA03418E452CD934
:10072000691808F1FF3304D28E4502D9A8F10203FB
:10073000294443EA0040A1EB0E01A0FB0298414589
:10074000CE46434602D306D14C4504D20138B9EB1C
:10075000020E68EB0503002EA5D0B4EB0E0261EB90
:10076000030101FA0CFC22FA07F3F9404CEA0303F7
:10077000C6E9003197E74046C5E74346D9E70000A0
:10078000F7B5002240F60340114602F0AFF80446E8
:10079000002853D101F046FE214641F2030001AA90
:1007A00002F0A4F80446002848D1019A254DD168EA
:1007B00005F17803D1F80100D1F8051003C3104604
:1007C00001F05CFC214641F2010001AA02F08EF822
:1007D000044698BB0198C3685A7885F870205A88F7
:1007E000A5F872201A7985F87120B3F80720A5F8CA
:1007F0007420B3F80530A5F8763001F03FFC2146AF
:1008000041F2020001AA02F071F80446B0B9019F5A
:1008100005F18006FA68531C41323446186859685D
:10082000083303C493422646F7D1384601F026FC2C
:1008300095F87C305B0607D46FF01204204603B0B5
:10084000F0BD00BF0000002095F8AF1001AA11F024
:10085000040100F07581002142F2870002F046F8A1
:1008600004460028EAD1019AC54FD468A31C22345B
:100870003E4618685968083303C6A3423746F7D185
:10088000104601F0FBFB002142F2020001AA02F037
:100890002DF804460028D1D1019CE368B3F801206B
:1008A00091B241B1D97831B1A5F81421DA78B548BF
:1008B00011461EF0C3FF204601F0E0FB1F2395F810
:1008C0007C60A5F8283116F0200619D14FF0FF30D2
:1008D0004FF0FF3101F06CFF0446002800F0658105
:1008E00002210C301BF0C9F8012321460370467029
:1008F000324640F66D4001F0F9FF044600289DD1D4
:1009000095F89C301F0712D5002142F21C0001AA65
:1009100001F0ECFF0446002890D10198C368D3F899
:100920000120D3F80530C5E93E2301F0A7FB95F877
:10093000D8309E0626D568460DF102011BF06EFCEC
:10094000044600287FF47AAF4FF0FF304FF0FF31BC
:1009500001F02EFF0646002800F0278104210C300C
:100960001BF08BF8BDF8003022460380BDF8023042
:100970003146438042F2240001F0B8FF04460028CB
:100980007FF45CAF95F8D8305C0610D5002142F2B8
:100990002A0001AA01F0AAFF044600287FF44EAF06
:1009A0000198C3685B7885F82A3101F067FB4FF046
:1009B000FF304FF0FF3101F0FBFE0646002800F04B
:1009C000F48008210C301BF058F895F8D84040F21C
:1009D000022314F0400F08BF032314F002011ABFD2
:1009E00043F02C03002143F00C030246A00695F8C7
:1009F000D90048BF43F0400310F0090F95F9DF001C
:100A000018BF43F400630028B8BF4FF4806195F825
:100A1000E00004F00104870748BF41F4801143EA75
:100A200004101BF02DFB0022314642F2010001F0C0
:100A30005DFF044600287FF401AF95F87C30B5F8DF
:100A40001411980600F18D80C9B941F2050001AA80
:100A500001F04CFF044600287FF4F0AEB5F81431E5
:100A6000019C4BB9E368B3F80120A5F814219A88DA
:100A7000444811461EF0E2FE204601F0FFFA4FF016
:100A8000FF304FF0FF3101F093FE0446002800F0E4
:100A90008C8008210C301AF0F0FF95F8D83002460F
:100AA000D90763D44FF0005137481BF0E9FA2146CB
:100AB000002240F6014001F019FF044600287FF4AF
:100AC000BDAE014601AA4FF6014001F00FFF0446FA
:100AD00020BB019801F0D2FA21464FF6024001AA4C
:100AE00001F004FF0446C8B90198C368B3F80130A7
:100AF000A5F8C13001F0C2FA95F8C1305A070DD5FA
:100B000021464FF6034001AA01F0F0FE30B90198EA
:100B1000C3685B7885F8C03001F0B0FAEB79002B40
:100B200034D102F073FC044600287FF487AE03F052
:100B3000FBFE044600287FF481AE01F07DFE7DE6D9
:100B400042F2030001F0D2FE044600287FF476AEA4
:100B5000019A0B4BD168D1F80100D1F8051003C3FD
:100B60008EE600298BD16FF0040467E602A1D1E97B
:100B700000019AE7AFF30080908800020080002017
:100B8000D800002018010020108800022E78002EC6
:100B9000C7D195F8C1309B061ED54FF0FF304FF0FE
:100BA000FF3101F005FE044610B96FF0680445E618
:100BB00006210C301AF061FFD5F8013021460360A0
:100BC000074B32469B8883804FF6064001F08EFE2D
:100BD00004460028A5D031E66FF085042EE600BF5C
:100BE000010000200000000070B5044603F0BEFEC6
:100BF0000A2201460646142003F01AFF054608B3F0
:100C000014230A2184F86D3084F86C600C301AF0DB
:100C100034FFB4F86A3029460380A38A4380E38A0C
:100C20008380238BC380E369038120681CF0E3F891
:100C300030B907A3D3E9002304F1700017F0B0FE28
:100C4000002070BD6FF00B00FBE700BFAFF300802A
:100C5000D0121300000000000B4607B509785A882F
:100C600009B9064802805878019018790090DB880D
:100C700003481AF099FC03B05DF804FB3895002096
:100C8000A23002008A88024809881AF08DBC00BF91
:100C9000F03002004A78024809781AF085BC00BF9B
:100CA000123102000022024B02481A701AF07CBC7A
:100CB000589600202C3102000122074B40211A7067
:100CC0000023064A06481360064A1360064A13606A
:100CD000F7221AF069BC00BF5896002010170020B8
:100CE000363102000C1700200817002000220023D4
:100CF000014817F055BE00BFA808002010B5084CE9
:100D000008481AF051FC206818B103F0A1F800233C
:100D100023600022044B1A70BDE81040FFF7E6BFC5
:100D2000141700206E3102005896002030B5104D87
:100D300089B003AC0FCD0FC42B680E49236000238C
:100D40000222009303A802F0ABFB014650B10A480F
:100D50001AF02AFC41F66A020023084817F020FE28
:100D600009B030BD064907481AF01EFCF8E700BF7D
:100D7000701D0200F81D020089310200A808002041
:100D8000A9310200B931020008B50748074B4021DC
:100D900043604FF40073C382F723038310601CF099
:100DA000D6F8002008BD00BFD8080020081E0200A9
:100DB00010B50D499B880A680C4C1A440A600C4A0D
:100DC00011680B4413600B4A216813680139013321
:100DD00017291360216006DCC1F1400189B21CF0C3
:100DE000B6F84023236010BD101700200802002031
:100DF0000C1700200817002010B504468CB029B14C
:100E00000A480CB0BDE810401AF0CEBB1BF077FDCD
:100E1000074B01A91860204603F048FC20B9BDF833
:100E20001C1004481AF0C0FB0CB010BDCE310200FB
:100E300014170020EB31020070B5F42259211F482D
:100E400020F09FF91E4E33781BB932201AF09FF91B
:100E5000F9E74FF0FF334FF0FF321A481AF09DFDCB
:100E6000054600F10C0420460B211AF0FBFDF4228C
:100E7000204612491AF007FE2946134804F0E8F903
:100E8000041E0EDA284601F0F9F8104B1C600B34F2
:100E900003BF0F4A012013680A2004BF0133136007
:100EA000D4E70C4A1368013313600B4A136801330B
:100EB00013605B07C7D117F0EDFFC4E7649500200E
:100EC0005896002084070020D8080020FC16002037
:100ED0000017002004170020F81600202DE9F0412B
:100EE000184F194C88B04FF47A701AF050F93B78CB
:100EF000002BF8D00021154B226821601B88144874
:100F0000144D154EDFF854C0DFF854E000689BB272
:100F10002D683668DCF800C0DEF800E0DFF84480B9
:100F2000D8E8AF8FCDE90030CDE906814FF47A7370
:100F3000CDE904CECDE902560B48910A1AF034FBF4
:100F4000D1E700BF589600201017002038950020E8
:100F50000C1700200817002004170020001700209D
:100F6000FC1600200409002007320200002008B50A
:100F700001F046FE014620B10A481AF015FB002098
:100F800008BD09481AF010FB084803F0A9FE8021AB
:100F900007481AF009FB074907481EF024FDFFF730
:100FA000A5FEECE7873202009E3202000C02002010
:100FB000D63202002D0D0000A8080020014B1B684E
:100FC000184700BF18020020014B1860704700BF8F
:100FD0001802002030B5044685B00D4610220021CD
:100FE000684620F0CEF802238DF80230044B2A46E2
:100FF00021466846019319F087FE05B030BD00BF59
:10100000BD0F000080B505460E461746984617F0FE
:10101000BFFF034600F0DAFC0446DFF818904246B2
:1010200049F8003039463046A84754F8090000F026
:1010300065FC00BF080000002DE9F047058B044661
:10104000280717460CD501290CBF45F0100545F0BF
:101050002005258387F31188BFF36F8FBDE8F087E4
:10106000022905F0070540F0948020461AF0D1FAD5
:10107000052864D801A353F820F000BF55100000E4
:10108000931100003F110000011100001B1100002E
:101090002D11000001F007035A1F012A1FD800225A
:1010A00021F00701062BD4F8008089B2C4E90022A0
:1010B00009D1434603E0628B013262831B68002B37
:1010C000F9D141F00201204621831AF0A2FA4FF033
:1010D000000900286DD041F02001218369E0042B34
:1010E0000AD121F0070189B2204621831AF091FA32
:1010F00010B141F0200121834FF00008C14658E0B3
:101100002369D3F80090238B23F0070343F00603F1
:101110004FF00008238346464BE02369D3F8049040
:10112000238B23F0070343F00403F1E72369D3F88B
:101130000890238B23F0070343F00503E8E74FF003
:101140000008C146E7E7012243F00803238387F341
:101150001188BFF36F8F002A3BD1B8F1000F4AD13D
:10116000B9F1000F02D020462C49C847EFF3118790
:10117000202383F31288BFF36F8F238B23F00803A0
:101180009BB22383D9063FD523F01002228303F0BC
:1011900007056669218B002EBFF67CAF00239946B8
:1011A000D4F8008021F00701C4E9003341F00101C7
:1011B0002183238B03F0070AAA4502D0A268002AE4
:1011C000C1D1B8F1000F02D1B9F1000FDAD000227D
:1011D000BAE7A1680029C0D00D680029BDD0334608
:1011E000524620464F68B8471DB12B6829461D4618
:1011F000F3E72B46FAE74146334652462046D8F8F5
:1012000000801AF032FAA8E79A067FF523AF23F0A0
:101210002002228303F0070527E700BF97B60100ED
:10122000014B036000207047481E020008B50348C8
:10123000034A0021121A1AF03EFB08BDA80700203D
:101240001C970020074808B5074A0849121A1AF0E7
:1012500034FBBDE808400648064A0749121A1AF04E
:101260002CBB00BF00000020A8070020703C02003B
:101270000000002000000020703C020038B5054648
:101280000C4699B1D1E901230F4809681AF08CF98D
:10129000D4E90423E1680D481AF086F9E1690C48A5
:1012A0001AF082F9A1690B481AF07EF9012D05D1D7
:1012B000EFF30581084810391AF076F921462846DF
:1012C000BDE8384016F050BE04330200343302004B
:1012D0006433020074330200A333020030BFFFF70F
:1012E000FDBF00BF2DE9F04105460B4EDFF82C8015
:1012F000324606EB0807CC1B204609491FF01BFFAE
:10130000A01942460021083C1FF03BFF2C6707F163
:101310000800BDE8F08100BF0000000008000000E8
:10132000681D020010B5204C20481AF03DF9A36A50
:10133000990137D51E481AF037F91E20A36ADA0141
:1013400003D51C481AF030F91F20174CA36ADB02A2
:1013500003D519481AF028F90220A36A1C0303D503
:1013600016481AF021F921200F4CA36A590303D51E
:1013700013481AF019F92220A36A9A0303D51148D9
:101380001AF012F92320084CA36ADB0303D50E4898
:101390001AF00AF92420A36A6FEA03436FEA1343A1
:1013A000A36210BD1D20C9E700ED00E0B7330200C5
:1013B000D0330200E4330200FF3302002A3402007B
:1013C000493402006F3402008A34020070B5244CA4
:1013D000064624480D461AF0E7F8A36AD90435D525
:1013E00021481AF0E1F81720A36A1A0503D51F480F
:1013F0001AF0DAF818201A4CA36A9B050FD51C487E
:101400001AF0D2F8A16BA36A180407D519481AF08C
:10141000CBF81EB1A36A23F40043A3621920104C39
:10142000A36A590503D514481AF0BEF81A20A36A16
:10143000DA050DD511481AF0B7F81B20084A936A4F
:1014400043F47F43936200232B7070BD1620CBE7DB
:10145000A36A9B04F2D50A481AF0A6F81C20EDE70F
:1014600000ED00E0B6340200CD340200DF340200AB
:10147000F33402000D350200233502003F3502002F
:101480005835020070B5264C064626480D461AF01F
:101490008BF8A36AD80640D523481AF085F81120A6
:1014A000A36A190703D521481AF07EF812201C4CB4
:1014B000A36A9A070FD51E481AF076F8616BA36AE3
:1014C0001B0607D51B481AF06FF81EB1A36A23F05C
:1014D0008003A3621320124CA36ADE0703D51648CB
:1014E0001AF062F81420A36A9C0603D513481AF078
:1014F0005BF815200A4B9A6AD10658BF9A6A9A6A15
:10150000920642BF5A6A22F400525A629A6A42F024
:10151000FF029A6200232B7070BD1020C0E700BF4D
:1015200000ED00E0883502009F350200DF34020044
:10153000D3350200EC3502000336020058350200B4
:101540002DE9F0415D4B04465F6800258AB0C7F382
:10155000080685F31188BFF36F8F02F07F43B3F164
:101560007F4F06D102F00C03082B13D154481AF018
:101570001BF800252C464FF00008F31E8DF807805D
:10158000092B00F28B80DFE803F00A7F837B8989D7
:101590008989898710074CBF0C460125EBE749482C
:1015A000464E1AF001F88DF80780F36A9A0704D5C1
:1015B000454819F0F9FF00232AE0F36A002B01DA0D
:1015C0004248F6E7F36A5B00F5D5414819F0ECFFB5
:1015D0007369A26943F480737361BFF34F8FBFF3E4
:1015E0006F8F32F8023C726922F480727261BFF32D
:1015F0004F8FBFF36F8F03F47F42B2F55F4F27D158
:10160000DBB2022B24D12168324819F0CDFF2368C8
:101610009DF80720CAB902AE04F1200732462068BF
:101620006168083403C2BC421646F7D1099A002DFE
:1016300040D0C2F3080121B96FEA52226FEA422278
:101640000992184602A9FFF719FE0AB0BDE8F08119
:101650001A4B9A6AD2B22AB101200DF10701FFF7A5
:1016600011FF0FE09A6A12F47F4F05D001200DF1AF
:101670000701FFF7ABFE05E09B6AB3F5803F9AD305
:10168000FFF750FE0346C3E700200DF10701E6E730
:1016900000200DF10701ECE70F488AE70F4B17F424
:1016A000F87F0F490F4808BF1946A6F1100219F03C
:1016B0007BFF80E76FF30802C2E700BF00ED00E0A8
:1016C000513602007D36020095360200B736020020
:1016D000C6360200E6360200033702002336020057
:1016E0003836020028370200064B5A6942F01002D1
:1016F0005A615A6942F480625A615A6922F00802BA
:101700005A61704700ED00E0EFF30880EFF30981C4
:1017100001B57246FFF714FF01BD00BF0B4880F30F
:10172000088815F065FC202080F3118808484FF4E4
:101730000061401880F30988EFF314800221084308
:1017400080F31488BFF36F8F00F06AF8E8C80020B8
:10175000A8B700201EF0040F0CBFEFF30880EFF3D2
:101760000980816911F8021C0229FFD001B5724677
:101770001AF0A5F801BD00BF00B2002807DB012365
:101780004109034A00F01F00834042F821307047AE
:1017900000E100E000B200280CDB01220649430909
:1017A00000F01F008240203341F82320BFF34F8F09
:1017B000BFF36F8F704700BF00E100E0054B4209A7
:1017C00053F82220012300F01F0003FA00F010401C
:1017D000704700BF00E100E000B2002801F1010104
:1017E000ACBF00F16040064B4FEA4111C9B2ABBF3C
:1017F00000F5614000F00F0080F8001319547047A5
:1018000014ED00E0044B054A23F07F039360BFF31F
:101810004F8FBFF36F8F70470000000000ED00E0B6
:1018200008B5FFF7EFFF0B4AD2F8883023F47003B6
:10183000C2F88830EFF3148323F0040383F3148891
:10184000BFF36F8FFFF7F2FCFFF7FCFC00F09CF892
:1018500016F04EFC00ED00E042F8203C009B0B49E6
:1018600042F81C3C019B21F0010142F8183C029B0C
:1018700042F8081C42F8143C4FF0807342F8043CD4
:101880000023203A02654367704700BF051000003F
:1018900000B50D4B15469860026F0C4B0E461A6052
:1018A000036E83F30B882C4686F309880020044BD3
:1018B00098472046002100220023024C20470000C8
:1018C000EBB8010005100000708E002018170020F2
:1018D0001022014B1A61704700ED00E0054B5A6978
:1018E0009B689A421FBF044A536843F08053536079
:1018F000704700BF708E002000ED00E0084B9B6831
:1019000083420BD1EFF3058343B1064B5A6842F093
:1019100080525A605A6A22F400425A6217F03EBB63
:10192000708E002000ED00E014498A684FF030000E
:101930001044EFF3098C80E8F01F202080F3128818
:10194000BFF36F8F0E4F4FF000664A698A603E60AA
:10195000106F0C4C2060506F0023536780F3118888
:1019600002F1300090E8F01F8CF3098802F10000CA
:1019700004B519F0B3FFBDE804407047708E002035
:1019800004ED00E0181700200023202040F20F1281
:1019900010B5044CE1180133934281F80003F9D1EA
:1019A00010BD00BF00E100E008B5EFF30583064A73
:1019B000103B02EBC30152F8330049688847BDE889
:1019C0000840FFF78BBF00BFD41302000148006836
:1019D00070470000181700201FB50121094B0A4A63
:1019E0000A4800F0F7F80023064A0393084B012148
:1019F000019301A8D31A029300F0F6F805B05DF840
:101A000004FB00BF0000042000000020D41E0200E0
:101A1000A80700200A7A0B6810B562F304031C467D
:101A2000CB68520923F01F0343EA4203044A43F000
:101A30000103C2F89800C2F89C40C2F8A03010BD63
:101A400000ED00E010B5074BD3F89030C3F3072347
:101A5000013B984202D8FFF7DDFF10BD6FF0150083
:101A6000FBE700BF00ED00E02DE9F04F0F46144604
:101A700006464FF000084B4D85B0B84580F28E8089
:101A8000D6F80490B9F1000F35D0B9F11F0F40F22C
:101A9000838019F01F0F7FD1D6F800A01AF01F0F16
:101AA0007AD1504619F044FF834609EB0A00013809
:101AB00019F03EFF83456FD11BF1160F6CD05C45CA
:101AC0006ADDC5F898B0D5F89C10C5F898B0D5F87F
:101AD000A03021F01F0143F01F0AD6E900321A445A
:101AE000994202F1FF391BD1CA4508D131465FFA4C
:101AF0008BF019F026FF08F101080C36BDE73146DE
:101B0000C5F898B0D5F89C30E0B263F30402C5F88C
:101B10009C2019F016FF10F1160F3DD0441CEAE787
:101B2000C5F898B0D5F8A020013B23F01F0302F0C0
:101B30001F021343CA453146E0B2C5F8A030E8D0D1
:101B400019F0FFFE10F1160F26D0C5F898B0D5F8A1
:101B50009C209DF808300AF1FF3A62F304038DF8E7
:101B60000830D5F8A0309DF808205B0863F34712D1
:101B70008DF80820D6E900321344009323F01F03A8
:101B80005344A3EB0903013023F01F036946C0B29D
:101B90000393FFF757FFBEE76FF01504204605B02B
:101BA000BDE8F08F00ED00E00522044BC3F894205F
:101BB000BFF34F8FBFF36F8F704700BF00ED00E0A2
:101BC000BFF35F8F0022024BC3F89420704700BF21
:101BD00000ED00E010B5034C2278FFF745FF2070C0
:101BE00010BD00BF599600202DE9F74F294D8A46B8
:101BF00006464FF00008AB46274FD0451BDAD6F813
:101C00000490B9F1000F3FD031680846019119F0F6
:101C10008FFE0199044609EB0100013819F088FE96
:101C200084424FF014021D4B08D002FB08F36FF002
:101C300015024BF8032003B0BDE8F08F14F1160F26
:101C40002C60F8D01978A142F5DD02FB08B0C7F886
:101C50009840C7F89840D7F89C4000F10801007BF5
:101C600064F304000871D7F8A0000C79400860F311
:101C700047140C71D7F89C1021F01F016960D7F848
:101C8000A01021F01F01296108F1010814350C365C
:101C9000B3E700BF1C17002000ED00E059960020BC
:101CA000F0B55349534DD1F890302C68C3F3072356
:101CB0009C4287B000F299800020FFF781FF4E4BD5
:101CC000C1F8C030844216D14C4D01A82C70FFF7EA
:101CD000A7FA002607464A4CB74213D100202B78BA
:101CE0004349D1F89020C2F30722934277DBFFF7F4
:101CF0005BFF002046E0696801EB0011FFF78AFEF8
:101D00000130DFE70199300101EB0613DA68224068
:101D1000B2F1807F52D00AD8B2F5001F34D0B2F5AC
:101D2000800F3ED0B2F5801F12D00136D4E7B2F159
:101D3000006F43D0B2F1805FF7D15A689B680958B1
:101D4000013B22F01F00034423F01F03012032E077
:101D50005A689B680958013B22F01F000344012088
:101D6000844623F01F0340EA4C10CDE902218DF890
:101D7000100002A928780593FFF764FE00282ADAEC
:101D80006FF0150007B0F0BD5A689B680958013B19
:101D900022F01F0003444FF0020C012023F01F0328
:101DA000E1E75A689B680958013B22F01F00034491
:101DB000062023F01F034FF0000CD4E75A689B68FD
:101DC0000958013B22F01F0003444FF0030C01208F
:101DD00023F01F03C7E72B7801332B70A5E7C1F869
:101DE0009830C1F8A00001337BE74FF0FF30C9E71E
:101DF00000ED00E0E01E0200AAFF4400599600201A
:101E00000000F0FF08B5024B1B689847002008BD92
:101E100030170020034B044A1860937843F0020304
:101E200093707047301700203402002008B506492F
:101E3000064821F00701C1F1005202F5802219F095
:101E400070FB002008BD00BF4B1402203417002097
:101E50004FF0FF324FF0FF33014816F003BA00BFD6
:101E600044020020014816F06FBA00BF440200206F
:101E700038B50546FFF7ECFF2A460821074819F058
:101E8000DFFA044628B925B1FFF7A0FD0C22044B68
:101E90001A50FFF7E7FF204638BD00BF3417002077
:101EA0000C00000010B50446FFF7D2FF214603489E
:101EB00019F040FABDE81040FFF7D4BF34170020F6
:101EC00070B5A0FB015434B92846FFF7D1FF064690
:101ED00040B9304670BDFFF779FD0C22044B002657
:101EE0001A50F6E72A4621461FF04BF9F1E700BFEA
:101EF0000C00000070B541690446867A0A4D59B15C
:101F0000437ADB0706D4242303FB0653DB691B68F3
:101F10009B689847002363612420214600FB0650FC
:101F2000BDE870401DF06EBC640600202422024B08
:101F300002FB0030704700BF640600202421827A33
:101F4000054B01FB02331A6A1B7D801A1B3323F0F9
:101F50000303B0FBF3F070476406002038B5242477
:101F6000827A064B04FB0233DB69D3E901240C605F
:101F70001568FFF7E3FF04FB005038BD640600203E
:101F80002DE9F04385B00546684690461C4603910E
:101F90001DF0CDFEDDE90067EFF31189202383F307
:101FA0001288BFF36F8F6B8A002B41D02A8A9A4226
:101FB00025D900220023284616F016FA0446F0B16F
:101FC00089F31188BFF36F8F039B002B41D03246FA
:101FD0003B4668461DF0D0FE2421A27A254B2046C0
:101FE00001FB0233DB6903A91B681D68DDE90023DF
:101FF000A847606170BB2046FFF77CFF24E0698A38
:102000004B1E6B8289F31188BFF36F8F2B7D2A8A59
:102010002C6A1B3323F00303521A02FB0344154BB3
:10202000154AEB1A9B105343A3722B7DE372CBE747
:1020300089F31188BFF36F8F23464246284616F076
:10204000D3F904460028BFD10024204605B0BDE8DE
:10205000F0836361012300252381039B294663826A
:10206000E27A656004F118001FF08BF8636925823D
:10207000E360EAE764060020398EE338F8B500240F
:1020800024260F4D00B9F8BD476800F10802D2E8D8
:10209000EF3F591EC2E8EC1FBCF1000FF7D1DBB2D5
:1020A000012BF0D1837AC46006FB035344609B6923
:1020B00013B198473846E5E7FFF71CFFFAE700BF82
:1020C000640600202DE9F84F06460D4617460446E3
:1020D000A3466468002CFBD14FF02409DFF878A0F8
:1020E000BBF81030BBF81220DBF81410D21ADBF862
:1020F0000C300BF10C005B1AD21AAA4228BF2A46F8
:102100001FFA82F83946424619F0BDFCB5EB0805C6
:10211000444447441DD00C9B53B1DDE90A010D9A9C
:1021200098478346A8B10146304619F07DFCD7E7B1
:10213000B07A09FB00A0C3699B6843B1AB4228BFDA
:102140002B461946DDE90A23FFF71AFFE9E729467E
:10215000F8E72046BDE8F88F6406002008B5244A59
:10216000244B1A6014F0AEF94FF47A612248D0F88B
:102170002436C3F30802C3F309434B4382F480724D
:102180001E49883201FB02334FF4FA215B00B3FB96
:10219000F1F201FB12331A49B3F57A3F28BF01323D
:1021A000C1F80429D0F820364FF47A60C3F308024E
:1021B000C3F30943434342F21C5082F4807202F29B
:1021C000172200FB02334FF47A701B0AB3FBF0F2C4
:1021D00000FB12330020B3F5FA7F4FF0010328BF54
:1021E0000132C1F81C27C1F80009C1F8003608BD4A
:1021F0000020A107A805002000C0FF00F82A0080E9
:102200000000125048B1054B054A1B68B3FBF2F3BE
:102210005843044B43F0010318477047A8050020BA
:1022200040420F00E01D020010B50024094B86B0AB
:1022300009480393CDE904441DF0CFFB03AB0093A1
:102240004FF4AF620A230549034816F00BFB204602
:1022500006B010BD4B370200A009002020A30020CB
:102260000146014816F03EBBA00900200146014886
:102270001DF088BBA009002030B50378012B11D0D8
:10228000022B21D06BB90A46144B03F1100453F80A
:10229000045BA34242F8045BF9D143881A0A8A70AE
:1022A000CB7030BD0A460D4B03F1100453F8045BAC
:1022B000A34242F8045BF9D143681A0C180E4A7025
:1022C0000870C3F30722EAE700F11003013913F89D
:1022D0000129984201F8012FF9D1E2E74F390200B4
:1022E00010B519F0CFFC1DF0D5FB044608B916F067
:1022F0008BFD064BD3E8AF3F0BB10A2098471CB9C2
:10230000BDE8104016F094BD10BD00BF401700207E
:1023100038B50446084819F040FB054648B1631E2D
:10232000DBB21F2B96BF054A0021D15C0C3019F09F
:10233000B3FB284638BD00BF3C0700205F390200D0
:102340000F2810B50CD80D280CD90A4819F025FB18
:10235000044618B104210C3019F09EFB204610BD34
:102360001328F2D009B10448F0E70220BDE810407C
:10237000FFF7CEBF60070020D006002038B5C56843
:102380002B7893B9B5F801400F21204601F040FEAB
:10239000EB78054650B90A4A118831B96FEA045002
:1023A0006FEA10501080074A137038BD0373012183
:1023B00001F09AFD2846BDE8384001F049BD00BF54
:1023C0003A9500205A96002010B5002486B003AB41
:1023D00000934FF480624FF0FF3305490548CDE983
:1023E0000344059416F03EFA204606B010BD00BF27
:1023F00098A80020400A002010B5084C014606228B
:1024000094F86F0002F030F938B994F86F000522A3
:10241000BDE81040024902F027B910BD00000020BD
:1024200035390200054BD3E8AF2F02F00B02D3E899
:10243000EF1FC3E8E02F0028F9D17047D400002037
:1024400010B5012104460C3019F053FB2146BDE8BC
:1024500010400023014A007819F07ABD10200200D4
:1024600010B5012104460C3019F043FB2146BDE8AC
:1024700010400A23014A007819F06ABDC01F02000B
:1024800070B5314819F0A2FA044600285AD000F17C
:102490000C05284619F035FB022805D004282FD05A
:1024A0002046FFF7EBFD21E0238A032BF8D9042116
:1024B000284619F01EFBFF22438806882276228ACE
:1024C000C6F30B009A426083EAD10F2101F0A0FD10
:1024D00005460028E4D001F0B7FD21462076320BF6
:1024E00028461AF0BCF9284601F0B2FC174BD3F885
:1024F0004C313BB3BDE87040154916481DF042BA57
:102500002846022119F0F5FA054600783E2812D037
:1025100019F02DFC10F002060DD140F69A430E4A38
:102520000E490F4819F04DF886F31188BFF36F8FED
:102530000323184602DF062321460A4A287819F0A9
:1025400007FDADE770BD00BF4C010020000000207A
:1025500058030020E00A00205437020088370200A8
:10256000B6370200901F020010B5012104460C305E
:1025700019F0BFFA2146BDE810400223014A007855
:1025800019F0E6BC801F02002DE9F0470C4616F05A
:102590003BFCE5682B78022B67D0042B05D0204646
:1025A000FFF76CFD6FF0150408E0B4F81080B8F187
:1025B000020F08D82046FFF761FD002416F038FC12
:1025C0002046BDE8F08768783E2809D1B8F1030FAE
:1025D000F0D0EB78012B01D00A2B46D1032704E081
:1025E00019F0C5FB0746F8073FD504F10C06012199
:1025F0003046D4F814A019F074FA0221304619F0CC
:1026000078FA814600783E2807D1E3681B78012BD1
:1026100001D00A2B06D1032614E019F0A8FBC1074C
:1026200006460FD441F26813164A1749174818F0A6
:10263000C8FF002383F31188BFF36F8F032318466D
:1026400002DF0226124A0623214699F8000019F0FB
:102650007FFCB20712D56369A5EB0A0513FA85F56D
:10266000E560A4F81080BB07A7D52146094819F0FA
:1026700098F9094909481DF085F99EE72046FFF7BA
:10268000FDFCF0E754370200D3370200B6370200F2
:10269000501F02004C01002058030020E00A0020D7
:1026A0002DE9F047884616468246002868D0002368
:1026B000DFF8D090D9E8EF4FC9E8E23F002AF9D11E
:1026C000002C5DD02046FFF739FC0C232E4D274609
:1026D00003FB0050438853450DD0D9E8EF3FC9E8CC
:1026E000E27F002AF9D1002B4AD01F463846BDE8C8
:1026F000F047FFF7C3BCA64208D0204619F048F9BE
:10270000328AF16804F10C0019F0BDF92046FFF798
:1027100015FC0C2606FB00504368ABB1B8F1000F66
:1027200012D12046FFF70AFC012106FB0050426847
:10273000536803F01F00814010685B0900EB8300C1
:10274000137ACBB119F039FB2046FFF7F7FB0C26C3
:1027500006FB00508368002BC8D02046FFF7EEFB35
:10276000704305F800802046FFF7E8FB06FB0055A4
:10277000A86815F06FFEB9E7C94319F000FCE3E75C
:10278000BDE8F087480100204417002010B5C1E9DA
:1027900000239DF808300C460B72FFF7CFFB0C228C
:1027A000024B02FB00335C6010BD00BF44170020E9
:1027B000F8B502460B46104819F0EFF80446C0B1D0
:1027C00004210C3019F04EF92046FFF7B7FB0C2717
:1027D00000260A4D07FB005046802046FFF7AEFB5F
:1027E00007FB005086602046FFF7A8FB07FB00555B
:1027F0006E602046F8BD00BF180700204417002077
:102800000138C0B202289ABF014B185C0020704703
:10281000A939020029289ABF014B185C092070478A
:102820007F390200034B0146D3F864018268926845
:10283000104700BF000000200421014819F0BDBA74
:10284000D400002000487047A93102000149024825
:102850001DF098B848030020400A002070B50546D6
:102860000C4639B1CB684A699B1A032B0ED86FF01E
:10287000150509E04FF0FF304FF0FF31FFF798FFEB
:10288000044618B96FF06805284670BD2046FFF76A
:1028900055FB0C22134BA61802FB003303213046D4
:1028A0005D8019F001F90580238A0121033B8370C3
:1028B000304619F00DF940F635439D4209D12046C6
:1028C000FFF7B0FF05460028DED02046FFF7D6FB15
:1028D000DAE7214604481CF08AFF0025FFF7B6FF1F
:1028E000D2E700BF44170020540100202DE9F04337
:1028F000064617460C4685B069B94FF0FF304FF0D9
:10290000FF31FFF755FF044658B96FF068052846B8
:1029100005B0BDE8F083887AFFF708FB304B8342AF
:1029200057D10122002168461CF088FF2046FFF79E
:1029300005FB0C23DFF8AC9003FB0090C0F808D037
:10294000204619F059F801463046FFF787FF054643
:1029500018B12046FFF792FBD9E700236846224AC8
:1029600015F0ACFD804690B14FF4F1731F4A204939
:10297000204818F026FE424631461F4818F021FE36
:1029800085F31188BFF36F8F0323184602DF2046BB
:10299000FFF7D4FA0C23584319F80060AEB1204673
:1029A000093EFFF76BFB092E0CD8DFE806F0050B9C
:1029B0000B08150B0B0B0B126FF06E05A7E76FF0F2
:1029C0000C05A4E76FF00405A1E7002FC1D03C601F
:1029D0009DE76FF015059AE76FF00B0597E700BFCD
:1029E0001807002044170020B4C404005437020024
:1029F000EC370200B6370200F53702002DE9F0434C
:102A000000260546544BB0F80180198848F47042FE
:102A1000914285B004BF1E80504B05F1040408BFED
:102A20001E7800F085FAEB782046012B0ABF4C4B4C
:102A30004FF0000993F86F9019F020F902AF21468A
:102A4000B0B14FF00109384619F00DF9D5F8113041
:102A5000CDF80130B5F81530ADF80530EB78012B25
:102A60001BD01321404619F0F1FB05B0BDE8F083FF
:102A7000484619F0E2FD0346006895F8049002907C
:102A80009A889B796868BA80BB71A288A379009004
:102A9000ADF804208DF80630E0E73846FFF7ACFCCF
:102AA00004460028DDD00346B5F8012023F8702B3A
:102AB000BA790298B98820679A7140F2E242998007
:102AC000B5F8173053430022C4F88830B5F81930F0
:102AD000A4F89030B5F81B30A4F89230EB7822734C
:102AE000204A012BC4F8A42002F14702C4F8A82010
:102AF0004FF4A472E370A4F8AC201CD18DF80090C0
:102B0000BDF804209DF806300098A4F87B2084F8D6
:102B10007D30C4F8770000F0BFFC237A1049C3EB86
:102B2000C3035A18CB58C4F87E309388A4F8823077
:102B3000937984F884300721204601F0D5F926B135
:102B400001212046267301F0CFF9204601F0AEFAAC
:102B5000204601F07DF988E73A9500205A9600203A
:102B60000000002001011B0000B5C36889B01A787D
:102B700032B13C2A32D109B05DF804EB19F007BA42
:102B80008DF80020B3F80120ADF80120DA788DF837
:102B90000320B3F80B20ADF81720B3F80D20ADF8E3
:102BA0001920B3F80F20ADF81B205A7C8DF81D209A
:102BB000586801901A899B7AADF808208DF80A3080
:102BC000084B68461A689B88CDF80B20ADF80F308B
:102BD000CDF81120ADF81530FFF710FF09B05DF802
:102BE00004FB00BF4939020010B5FDF7C9FD034BD6
:102BF0001B6813B1BDE81040184710BD68170020CE
:102C000073B5254D0646D5F864011CF0A8FC0028D4
:102C10003BD06FF0020105F1D40019F0B0F90121A9
:102C200019F0CBF810EA010432D11C4B1E600A46A1
:102C300005F59C701CF002FE05F5AA701CF0A9FDBC
:102C400017481CF0CAFE6FF007034FF4966215494F
:102C50001348009415F006FE134911481CF020FF9C
:102C6000D5F86401114983681B689847044648B940
:102C700026B902B0BDE87040FDF782BD05F1C40081
:102C800015F0EAFD204602B070BD6FF01204F9E7BE
:102C90006FF07704F6E700BF0000002068170020FF
:102CA000E00A002098AC00203A3802008925000094
:102CB00038B5032104460C3018F01BFF40F63542AE
:102CC0000346B0F8010090420DD01D78E36822461B
:102CD0001978FFF7E5FC35B1034815F0BBFBBDE8FB
:102CE0003840FFF7B3BD38BD3801002038B516F0C5
:102CF0008BF8284DD5F85431002B48D00022002302
:102D000005F59C7015F0DAFB002840D10022002365
:102D100005F5AA7015F068FB044668B940F6AA43A9
:102D20001D4A1E491E4818F04CFC84F31188BFF35D
:102D30006F8F0323184602DFD5F8480120B1FFF753
:102D40009DF90023C5F84831204618F055FEC5F816
:102D500048012046FFF766FD98B1124815F07AFB4E
:102D60002046FFF7EBF80C220F4B1F2102FB00302F
:102D700022464088FFF794FC2046FFF77FF9FFF7D3
:102D800065FDFFF763FDBDE8384016F051B801F06E
:102D90009DF9F8E700000020543702004338020094
:102DA000B6370200380100204417002038B504214E
:102DB00004460C3018F09DFE457801782246408884
:102DC000FFF76EFC35B1044815F044FBBDE8384010
:102DD000FFF73CBD38BD00BF3801002070B54FF093
:102DE000FF320D464FF0FF3300210646FFF7A8FAE9
:102DF000044660B91A230A4A0A490B4818F0E1FB55
:102E000084F31188BFF36F8F0323184602DF02217A
:102E100004F10C0018F031FE06704570204670BDBC
:102E20004738020043380200B6370200F8B50646BC
:102E30000024094DEF79E3B29F4202D86FF0010000
:102E400007E02946304619F040FB0735631C08B1FE
:102E50002046F8BD1C46EEE70000002037B50446CA
:102E60000D4671B12846124919F02FFB48B9294681
:102E70001048C4EBC404204419F02FFB002003B019
:102E800030BD684618F0E1FE0028F8D16846FFF72B
:102E9000CDFF0028F5DA074BC4EBC400694618449F
:102EA00019F01BFB002DE9D001462846E4E700BFDE
:102EB0003C3902000000002070B5144E0622314655
:102EC00004461EF066F9E0B14FF0FF304FF0FF31DD
:102ED000FFF76EFC0546A8B1062221460C3018F01B
:102EE000D2FD0022294642F20500FFF7FFFC40B95F
:102EF0003346226843F86929A288B280012283F808
:102F0000682070BD6FF06800FBE700BF690000201B
:102F1000064BD3E8EFCF4CF4806CC3E8E2CF002A35
:102F2000F7D1037A19430172704700BFD400002023
:102F3000084BD3E8EF2F22F48061C3E8E01F00289C
:102F4000F7D1530504D500220220034904F03EBD09
:102F5000704700BFD400002099C60100002307B5C8
:102F60000549CDE900036A46022004F02FFD0198CF
:102F700003B05DF804FB00BFBBC50100F7B5044614
:102F800070B1404D95F82A2195F82B310AB19A423B
:102F900008D2013385F82B31237A43F004032372DE
:102FA00003B0F0BD00210222084601F05DFB064699
:102FB00048B120460121FFF7ABFF304603B0BDE822
:102FC000F04000F045BF01462F4800F05FFA95F849
:102FD0002B31B3B995F82B2195F82A319A421CD19F
:102FE000002242F229001146FFF780FC70B995F8E3
:102FF0002B31013385F82B31237A43F004032372FC
:1030000004E0304619F0ADFA0028E3D000211F4853
:1030100003B0BDE8F04000F039BA2246671C3946DB
:1030200012F82E0B19F060FA064630BB95F82B31DA
:10303000013385F82B31237A43F00403237295F88A
:10304000A7305B0719D53946684619F046FA0123BF
:103050004FF0FF304FF0FF318DF80730FFF7A8FB3E
:10306000044650B1082269460C3018F00CFD324677
:10307000214642F24E00FFF739FC012019F071FAA7
:10308000C4E700BF0000002017C6010095C501007D
:103090002DE9F041044600B3364D95F82A2195F804
:1030A0002B3192B10132934210DC002102220846FA
:1030B00001F0DAFA064690B120460221FFF728FF18
:1030C0003046BDE8F04100F0C3BE13B1013B85F8C6
:1030D0002B31237A23F004032372BDE8F0810146EB
:1030E000254800F0D3F9304619F03BFA074688B975
:1030F00095F82B3195F82A219A4217D2013B85F891
:103100002B31237A024623F0040302201B49237249
:1031100004F05CFC95F82B3113B1012019F021FA71
:10312000BDE8F0410021164800F0B0B94FF0FF3083
:103130004FF0FF31FFF73CFB04F101080646002881
:10314000E8D007210C3018F098FC414619F0C5F979
:103150003A46314642F22800FFF7C8FB0028D9D191
:1031600095F82B31013B85F82B31237A23F00403AA
:103170002372CFE70000002017C601004DC50100F3
:1031800095C5010070B5044611B16FF0150070BD12
:10319000D8B1214919F099F9B8B92046FFF746FE90
:1031A000002832DA23784BB91C48C2796ABB214621
:1031B00019F093F90123C3711046E8E7012BE4D11C
:1031C000A37903F0C003C02BDFD1144DEB79012BA1
:1031D0001ED005F1D403D3E8AF3FDB0707D4002CA2
:1031E000D3D020460C4919F070F90028CDD1EE79E2
:1031F0002146731C3046EB71FFF730FE08B93046AC
:10320000C5E7EB79013BEB71C1E76FF07700BEE7F3
:103210006FF00B00BBE700BF3C390200000000204C
:103220002DE9F3410446D8B1002141F2090001AA79
:10323000FFF75CFB054698B9019E0622D6F80C8084
:10324000104908F1010738461DF0A3FF28B10622F6
:1032500038460D491DF09DFF30B93046FEF70EFF90
:10326000002002B0BDE8F081D8F801303046C4F843
:103270000130BB882570A4F80530FEF7FFFE012061
:10328000EFE700BF493902004339020007B568463D
:10329000FFF7C6FF044BD87118B169460020FFF74D
:1032A000DDFD03B05DF804FB00000020F0B5294D02
:1032B00089B0EE79002E46D195F8C230DB0722D5D1
:1032C0006A4631464FF60940FFF710FBD8B9DDF8E2
:1032D00000C0DCF80C406378012B1E4628BF012695
:1032E00073B1A31C02AA1234174618685968083330
:1032F00003C7A3423A46F7D1186838609B88BB8061
:103300006046FEF7BBFEEE71002416260127EB791E
:10331000E0B2984202D3B3B1002012E008AB06FB42
:10332000003353F8182C33F8143C6946CDF80120CB
:10333000ADF805308DF80070FFF790FD01340028DE
:10334000E5D009B0F0BD0021084609B0BDE8F04065
:10335000FFF718BF000000202DE9F0411D460E4682
:1033600017460346002849D0002D47D00A0307D549
:103370004C0743D419F075F910BB01232B701FE0E3
:10338000B10704781ED020492FB1B20603D591F8B9
:10339000D820500635D5C4EBC40411F80480B8F128
:1033A000010F08D101341846214419F052F938B9F7
:1033B00085F8008002E0B8F1000FF9D0A7B900202D
:1033C000BDE8F081720716D50F49C4EBC4040F5D48
:1033D000012F07D10134214419F03BF90028EFD126
:1033E0002F7001E0002FFBD0B306E8D52B7843F017
:1033F00002032B70E3E719F034F9BEE76FF0150014
:10340000DEE76FF08500DBE70000002010B50A4C16
:10341000E3790BB1002010BDFFF738FF0028FAD187
:10342000E379002BF6D1FFF741FF0028F3D1601CB0
:10343000BDE81040FFF740BD00000020F7B5CDE922
:103440000001694642F2080016461D469DF82070AC
:1034500019F032F9044648B95FB90B4BD3E8EF1FB6
:1034600041F00401C3E8E21F002AF7D1204603B06F
:10347000F0BD694642F20900CDE9006519F01CF97A
:103480000028EAD00446F1E728000020034601485E
:10349000184700BF1800002000487047180000209F
:1034A0002DE9F04FD0F810A089B0BAF1000405461C
:1034B000934618BF0124DFF8C09202910393D9E824
:1034C000AF3F5A0740F17981466873050CD56FF01C
:1034D0001504002240F20110029B934540F07681D2
:1034E000204609B0BDE8F08FD0F81080B8F1000F89
:1034F00001D0B707EBD0A14F2878FB798342E6D9FA
:10350000C0EBC00007229E4938441DF042FE00284F
:10351000DDD0B00706D197F87030082B02D8AB6821
:103520009F2BD4D916F0300F72D0B8F1000FCED047
:10353000F10670D406F46036B6F5603FC7D0284671
:1035400019F0A6F880460028C1D08E4ED6E8AF3FCD
:10355000DA0500F13581D9E8AF3F5B0501D5FFF70A
:10356000E7FC0023CDE90533CDF81B30AB686A6872
:10357000ADF81030EB6812F4004FADF8123014BF04
:1035800006230723D00348BF03F00503910348BF78
:1035900003F0FB038DF81D30D9E8EF3F23F480736F
:1035A000C9E8E23F002AF7D12B7822463B7687F81C
:1035B0006F30696874480DF11503FFF7CDFE0446BE
:1035C000002886D1714BBAF1000F30D02A691168FA
:1035D00049F8B31C9188998092799A716B689A071F
:1035E00027D0BAF1000F2BD013F0100F0CBF01231E
:1035F00004238DF814302B691A68CDF816209A88A8
:10360000ADF81A209B798DF81C304FF000081AE0B5
:10361000B8F1000F8ED1D5E902239A423FF657AF99
:103620001F2A7FF654AFB3F5804F83D94FE7544A32
:10363000CDE79B0502D4039B002B37D0022300E08B
:1036400053468DF814304FF0FF304FF0FF31FFF745
:10365000AFF80446002800F0B6800F2204A90C3011
:1036600018F011FA2146002242F20600FFF73EF957
:10367000044600287FF42DAFBAF1000F1AD0686815
:1036800010F0030022D1074601213F4819F06EF8DF
:103690000446002840D0002F3FF41BAF38460021DD
:1036A00000F022FC384600F0D3FB12E703238DF82C
:1036B0001430AAE75946129B039A0298CDF800806D
:1036C000FFF7BCFE04460028D9D002E73C7E072263
:1036D0002B492E4887F86F401DF05BFD60B92046EE
:1036E0002B4900F07BFF074610B96FF00B04F0E6A2
:1036F000052100F0F9FBC7E72046244919F0B2F98B
:1037000000287FF4E4AE387E204900F067FF0746CA
:103710000028EAD00621ECE717B1384600F098FB04
:103720006B689F071FD0D6E8EF3F43F40073C6E8ED
:10373000E23F002AF7D1B8F1000F2BD0D6E8EF3FD7
:1037400043F48063C6E8E23F002AF7D16B6858076C
:1037500029D5D6E8EF3F43F48053C6E8E23F002A7C
:103760003FF4B7AEF5E7D6E8EF3F23F40073C6E8C1
:10377000E23F002ADFD0F6E7D4000020000000205E
:103780003C39020028000020180000202100002001
:1037900035390200D6E8EF3F23F48063C6E8E23F04
:1037A000002AD3D0F6E7D6E8EF3F23F48053C6E8EB
:1037B000E23F002A3FF48DAEF5E76FF00A0488E699
:1037C0006FF0770485E66FF0680482E6198881421D
:1037D00004D1596811B10978C90702D401320833FC
:1037E0007BE6054905481CF0FEF80023044A03481F
:1037F00015F0D6F874E600BFC3C701003000002002
:103800001C4E0E0010B5184818F0D8FF174CD4E81D
:10381000AF3FDA05C3F3002024D5D4E8AF3F9B05C2
:1038200017D513490722E01F1DF0B3FC0346A4F18E
:10383000280114F8100C93B905220E4900F014FF6A
:10384000044630B10021017300F04EFB204600F029
:10385000FFFABDE810400021034818F087BF062298
:103860002131EBE710BD00BF180000202800002028
:103870003C3902003539020070B59AB0142200219B
:1038800004A81DF07EFC47F21213ADF80C304FF483
:10389000807344F20102ADF80E30304B01A903A849
:1038A000CDE9052316F04AF8F0B11F252C4BD3E8DB
:1038B000EF1F21F00101C3E8E21F002AF7D1294ED2
:1038C00015F0A2FA346804B1043C002D264D18BF4F
:1038D0000025002C3BD023680BB12846984764682C
:1038E000002C34D0043CF6E74122019802AB09A930
:1038F0001CF0A0FC0028D8D11C4A0DF125030DF1C5
:10390000650153F8040B8B4242F8040BF9D12022D5
:103910001749019802AB1CF035FC0028C5D101986D
:103920001CF0E8FB05460028BFD110490E4818F0EE
:103930004AFF1048203118F046FF0F4BD3E8EF1F25
:1039400041F01001C3E8E21F002AAFD0F6E70023E0
:10395000C6E9003315F06CFA1AB070BD0000020918
:103960006C17002074170020BB9600207B96002067
:103970005B960020DB960020D400002030B5A7B075
:103980001422002108A81DF0FCFB04233D22002185
:1039900016A815931DF0F5FB47F21213ADF81C3075
:1039A0004FF4807344F20102ADF81E30234B2449DA
:1039B000CDE9092307A8202205AB1CF065FCB8B1AE
:1039C0006FF0040415F020FA1E4B1D6865B100204D
:1039D00018601D4BD3E8EF1F21F00201C3E8E21F7E
:1039E000002AF7D124B3A84715F022FA27B030BD3A
:1039F000164B0DF15502194603F1400053F8044BE4
:103A0000834242F8044BF9D106AB029320230B48C2
:103A1000CDE9001315AA412305991CF089FD002862
:103A2000CED105981CF066FB04460028CAD0C7E733
:103A30000DA8064918F0C7FE0DA8D4E7000002093A
:103A40005B960020701700206C1700207B960020EA
:103A5000402208B503491DF09CFBB0FA80F04009F4
:103A600008BD00BFAC39020010B598B0044614225E
:103A7000002102A81DF085FB44F21213ADF80430BA
:103A80004FF480734FF48042ADF80630114B21465D
:103A9000CDE9032304230DF11D008DF81C3018F02F
:103AA00092FE04F120010DF13D0018F08CFE6B46F2
:103AB000412207A901A81CF0E7FB044601A81CF05D
:103AC0005DFE2CB900981CF015FB012018B010BD4C
:103AD0000020FBE70000020910B560B31A4A136822
:103AE00023B1043B834229D05B68F9E7174BD3E845
:103AF000AF1F890725D41468011D44605068116008
:103B000000B95160D3E8EF2F42F00101C3E8E01F94
:103B10000028F7D1D30701D5002010BD0C4BD3E806
:103B2000EF1F21F01001C3E8E21F002AF7D1094876
:103B3000FEF79CFBF0E76FF01500EEE76FF0770003
:103B4000EBE76FF00F00E8E7741700206C17002018
:103B5000D400002078030020044BD3E8AF3F13F0DB
:103B6000100F034808BF0020704700BFD40000209A
:103B7000BB96002070B50546194803688B4228D0D3
:103B8000184BD3E8AF3FDA0626D5036813B16FF0C0
:103B90000F0070BD144AD2E8AF3FDB07F7D4D2E87C
:103BA000EF3F43F00204C2E8E64F002EF7D113F0D6
:103BB0000204ECD1016029460C4818F004FE0C48C0
:103BC00005F1200118F0FFFD0A48FEF74FFB2046E3
:103BD000DFE76FF07700DCE76FF07C00D9E700BF2C
:103BE00070170020D40000206C1700207B96002066
:103BF0009B9600206803002070B505460B4B1C689F
:103C000044B154F82C3C2C3C13B12846297B9847EE
:103C1000E46AF5E7064C074EB44200D370BD236852
:103C200013B12846297B98473034F5E78C1A0020D9
:103C3000281D0200581D020010B50446FEF77EF94B
:103C4000044901EB0011204618F059F8BDE8104076
:103C5000FEF7FCBD7C170020002270B50446D1E9B8
:103C600001560748C1E901221BF0C1FD3DB13146B3
:103C700020462B46BDE870406FF06D02184770BDBE
:103C80005406002070B50546002200230E4814F0AB
:103C900015FCB8B90D4B1C6834B154F8243C2C3CCD
:103CA00003B19847E46AF7E7094C0A4EB44204D3DB
:103CB0002846BDE8704014F0CFBDA36803B1984713
:103CC0003034F3E770BD00BF440600208C1A00209A
:103CD000281D0200581D02002DE9F041044620274E
:103CE0000025EFF3118287F31288BFF36F8FE1692C
:103CF00029B1206A0B688142E36108BF236282F325
:103D00001188BFF36F8F71B1D1E901680748C1E92C
:103D100001551BF06CFD1EB1002241462046B04704
:103D2000FEF794FDDDE7BDE8F08100BF54060020FA
:103D300037B5437B0446072B28D1031DD3E8EF2F6B
:103D400042F48061C3E8E51F002DF7D151051DD471
:103D5000D3E8AF3FDA0301D418F09EFA637B072B58
:103D600014D10B4B93F8D8309B060FD518F0A0F95F
:103D700060B10DF1060101A818F050FA30B92046E3
:103D8000BDF80620BDF8041018F0A1FA03B030BD4C
:103D9000000000200448B0F8143100F58C70002BAE
:103DA00008BF0020704700BF0000002030B5044667
:103DB000FDF70CFE0D460D4A0D4989B00858D2F8A2
:103DC0008010884205D1204609B0BDE83040FFF799
:103DD00083BF2434214610461BF0D4FD1DB1694633
:103DE00020461BF0DFFD09B030BD00BFB815002034
:103DF0000800000038B5002204468A4202D100249F
:103E0000204638BD012004F1D003D3E8EF5F002D38
:103E100004D1C3E8EC0FBCF1000FF6D102D0D834C6
:103E20000244EAE7002CEAD0D022002120461DF00F
:103E3000A8F904F1400004491BF0D5FD034904F141
:103E400024001BF083FDDBE77548000011C801006A
:103E500008B500F1D003D3E8EF2F013AC3E8E12F12
:103E60000029F8D1AAB90B4B984212D303F1D8021A
:103E700090420ED2C01AD823B0FBF3F203FB12001B
:103E800038B9054814F0E6FABDE80840034814F0D4
:103E9000E3BC08BD800B00204406002098030020EE
:103EA00010B5044618F02BFD14F0AEFF0C4B04F1D6
:103EB000C401D3F82C3143B90A4818F08EFC14F031
:103EC000B7FFBDE81040FEF7C1BC994201D01B68A6
:103ED000F1E714F0ADFF2046FFF7BAFFF1E700BFAE
:103EE000000000202C01002070B5457B04468D4267
:103EF00013D041730DB918F002FD637B012B09D17A
:103F0000314D05F58C76616900294AD1BDE87040D4
:103F1000FEF79CBC072B01D073B170BD0023C4E930
:103F20000D33E378012BF8D104F140000023BDE804
:103F30007040264A14F000BD082DEED801A353F8B6
:103F400025F000BF1B3F0000693F00008F3F0000CD
:103F5000993F0000993F0000993F00008F3F00000B
:103F60001B3F00001B3F000004F1400528461BF0EA
:103F700046FD20460121FFF719FF204618F066FC98
:103F80002846BDE870400022002314F009BD237BC1
:103F900013B12046FFF730FE2046BDE87040FFF722
:103FA00057BFA2690B68914208BFA36120466361B5
:103FB000FFF752FEB5F81431002B14BF3046002035
:103FC00014F048FA9FE700BF000000205A62020088
:103FD000F8B5074609480D46164618F090FC044609
:103FE00050B183781F4203D1BDE8F840FFF730BFDE
:103FF0003146A8472046F7E7F8BD00BF800B0020F8
:10400000002201200149FFF7E3BF00BF313D00005E
:1040100038B505460B480C4618F071FC034670B1E4
:10402000427B012A02D0073A012A06D81A88AA42FE
:1040300002D19A78144203D11846FFF709FF0023F2
:10404000184638BD800B0020034BC01A034BC0102C
:104050005843C0B2704700BF800B002013DA4B6892
:1040600070B51C46144305460E4608D0FDF7AEFC5D
:104070000B4908580B49D1F88010884201D1002221
:1040800013460949002D14BF2846084617F085FC41
:10409000044618B1711D0C3017F0E4FC204670BDC9
:1040A00008000000B81500206406002010B5044682
:1040B000054814F0D1FB204600F0C6FD2046BDE8BF
:1040C0001040FFF799BD00BF8803002000232DE9B1
:1040D000F04F87B003930593A54B5A8A32B1A54D93
:1040E000D5F82C4134B907B0BDE8F08F1B68002B20
:1040F000F5D1F8E754F8C43903B1C43B00269E4912
:1041000001E01C461346B5F81421002A00F02E8168
:10411000D5F820214AB904F1C406002BE3D0D3F826
:10412000C420002AEDD0C43AEBE70A68002AF2D096
:10413000D4F8B020002AEED0D4F8B420002AEAD077
:10414000D4F8B820002AE6D0637B072B66D120463E
:104150009047002862D004F1C803D3E8AF3F022B98
:104160005CDC204618F0CBFB04460028BBD0637B08
:10417000072B40F0F2802046D4F8B030B5F8141187
:1041800004AA98470746002800F0CA80B5F8142111
:10419000049B9A4206D30146D4F8B460204605AB8E
:1041A00003AAB047059BDDF80C9001933B8A002BD6
:1041B00000F0D6803846DDF810A017F0B6FD804636
:1041C000002840F0D080B5F81431DFF8B0B1002BF2
:1041D00014BF584600200022002314F06FF978B96C
:1041E00000220023644814F0FFF8064600283BD163
:1041F000B5F81431002B18BF5E46304614F02AF98A
:104200006FF00B053846FDF739FFB9F1000F00F0EC
:1042100083802A4620460199C8477DE0D4F8C430FF
:1042200004F1C402C6B9D5F83011C5F82C318A4260
:1042300001D1C5F8303100232046C4F8C430D4F889
:10424000B8309847002892D0637B072B40F08580D8
:104250002046FFF725FE8AE73360D5F830319A42D1
:1042600008BFC5F83061E6E7019BC0F804908360A1
:10427000B5F814B10022DA454FF000034FF0000109
:104280003B4898BF1FFA8AFBFDF77AFE814650B182
:10429000FDF754FE3A4B5A4603EB001339464846A5
:1042A00017F008FD8146B5F8143194F8CC709A45A2
:1042B0008CBF4FF00108023784F8CC8098BFFFB262
:1042C00004F1C808D8E8EF3F0133C8E8E23F002A0C
:1042D000F8D104F1140A3146504618F07EFAA3785A
:1042E000012B21D0D8E8EF3F013BC8E8E23F002A8C
:1042F000F8D13146504618F08EFA4846FDF7BEFE1A
:1043000020463146FFF7A8FCB5F814311B48002BB6
:1043100008BF002014F09EF81321204618F003FB7C
:104320002046FFF795FDDEE609F10C0B0421584607
:1043300017F0BAFB238807F0FD0743EA0733038031
:10434000B9F810300221043B4380584617F0C0FBF7
:104350004846FEF767FA0028C4D1FEF777FADFE790
:104360006FF079054EE76FF004054BE79368FFDEC9
:10437000F406002000000020540600201801002050
:104380007C17002040F2E2432DE9F041D0F888602C
:104390000446B6FBF3F6031DB6B2D3E8AF2F920482
:1043A00013D5B0F88C20B2420FD8B0F88E20B242AC
:1043B0000BD3D0E92412914207D1D3E8EF1F21F4A7
:1043C0000051C3E8E21F002AF7D1114B1D6865B107
:1043D00055F81C7C2C3D37B131462046B4F892305C
:1043E000B4F89020B847ED6AF1E70A4DDFF828806D
:1043F000454501D3BDE8F0812F6937B131462046EC
:10440000B4F89230B4F89020B8473035F0E700BFE8
:104410008C1A0020281D0200581D0200F8B50F4B11
:1044200005461C685CB12C3C00F1A606236A13B15A
:10443000314628469847E46A0CB12C3CF6E7084C14
:10444000084E05F1A607B44200D3F8BD236A13B1A4
:104450003946284698473034F5E700BF8C1A0020CB
:10446000281D0200581D0200F8B50F4B05461C68B8
:104470005CB12C3C00F1A406E36913B13146284637
:104480009847E46A0CB12C3CF6E7084C084E05F15D
:10449000A407B44200D3F8BDE36913B139462846F6
:1044A00098473034F5E700BF8C1A0020281D020021
:1044B000581D02002DE9F041074608460D4617F049
:1044C00015FE064618B900263046BDE8F081144BAB
:1044D0001C6884B154F8203C2C3C0BB9E46AF8E722
:1044E0002946384698470028EDD0284617F0FEFDAB
:1044F0000028F3D1E7E70B4CDFF82C804445E3D2EA
:10450000E3680BB93034F9E7294638469847002864
:10451000D9D0284617F0EAFD0028F3D1D3E700BF31
:104520008C1A0020281D0200581D02002DE9F041C0
:10453000C37804468BB900F17E06114B1D687DB12E
:104540002C3D04F170076B691BB13A463146204699
:104550009847ED6A25B12C3DF5E700F17706ECE7C9
:10456000084D094F04F17008BD4201D3BDE8F08148
:104570006B691BB142463146204698473035F3E718
:104580008C1A0020281D0200581D0200F8B5437A3D
:1045900005468372164618F091FC0D4B1C684CB111
:1045A00054F8143C2C3C1BB132462846697A984793
:1045B000E46AF4E7074C084FBC4200D3F8BDA36996
:1045C0001BB132462846697A98473034F4E700BF79
:1045D0008C1A0020281D0200581D020038B505461F
:1045E0000C460F480121FFF705FCC0B10572236896
:1045F0000367A388A0F87430A37980F8763001238C
:10460000437283728370074BC0F8B030064BC0F81A
:10461000B430064BC0F8B830054BC0F88C3038BD0C
:10462000800B0020694A0000FBC70100EFC70100B2
:104630001800280070B505460A480E4618F05FF9C4
:10464000044620B18378012B04D0FFF701FC00243D
:10465000204670BD3246294618F0E4F90028F7D10B
:104660002046F2E7800B0020F8B505460E480E46BE
:10467000174618F044F9044620B18378012B03D083
:10468000FFF7E6FB00240DE036B13246294618F06C
:10469000C9F908B92046F3E7637BBB42FAD1237A14
:1046A000AB42F7D12046F8BD800B0020002210B5A8
:1046B000837804460B70C3784B70037A8B70437B0E
:1046C00081F82B20023BDBB2062B8EBF13462B4812
:1046D000C35C204681F82830A378012B14BF002347
:1046E000637A81F8293018F055F981F82A00A37807
:1046F000012B40D104F170038B60237A204AC3EB75
:10470000C30313444B60E27804F1770304F17E00A5
:1047100042BB1A460346C1E9032340F2E242D4F801
:1047200088304B61B3FBF2F30B83B4F890304B83CA
:10473000B4F892308B8304F1A4030B6204F1A60356
:104740004B62D4F8A0302BB15B7CDA0644BF012366
:1047500081F82B30D4F8A03013B15B7C9B0603D4D6
:10476000002010BD0246D6E791F82B3043F002033B
:1047700081F82B30F4E76FF01500F2E7EC39020016
:1047800000000020F8B505460E460C4B1C6844B1ED
:1047900054F8083C2C3C13B1314628469847E46A4B
:1047A000F5E7074C074FBC4200D3F8BD636A13B16D
:1047B0003146284698473034F5E700BF8C1A002070
:1047C000281D0200581D0200F8B505460E460C4B88
:1047D0001C6844B154F8043C2C3C13B131462846C3
:1047E0009847E46AF5E7074C074FBC4200D3F8BD91
:1047F000A36A13B13146284698473034F5E700BF25
:104800008C1A0020281D0200581D020038B50446ED
:1048100008460D4617F06AFC38B3154B93F8D830AC
:10482000990707D4E37873B129462046BDE838409C
:1048300018F0D9BB94F898309A07F3D5231DD3E824
:10484000AF3F5B04EED42946204618F013F958B95F
:104850002B88A4F88C306B88A4F88E30AB88A4F831
:104860009430EB88A4F8963038BD6FF01500FBE764
:1048700000000020F7B510F8333C0446A0F14006D4
:104880000BBB304618F07CFA244B1D684DB155F82F
:10489000283C2C3D1BB1304614F8341C9847ED6A77
:1048A000F4E71F4D1F4FBD4205D3304603B0BDE8AE
:1048B000F040FFF7CDBA6B681BB1304614F8341CDA
:1048C00098473035EFE710F83E3C012B24D1A0F19A
:1048D0003C05D5E8EF3F23F40052C5E8E12F00295D
:1048E000F7D19B0410D5E36C69460093636D3046A5
:1048F0000193FFF78BFF38B9D5E8EF3F23F48053DE
:10490000C5E8E23F002AF7D1D5E8EF3F43F4006362
:10491000C5E8E23F002AF7D103B0F0BD8C1A0020B1
:10492000281D0200581D020038B50E481AF031FF4C
:1049300000240D4D29460B4801341AF058FF402C35
:1049400005F10C05F6D119F0FBF802F04DF904461B
:1049500028B903F001F8044608B918F065FB2046B1
:1049600038BD00BF540600208C170020054A10787F
:10497000013010F0FF000ABF0123034618461370F0
:10498000704700BFFB960020044B186818B9044A12
:104990005A600B6070476FF00B007047580C002096
:1049A0004C20020070B5D0F89820044600F1700346
:1049B0002AB1FDF70BF8104909588A4215D018465C
:1049C00004F1A0011BF02EF804F158060022002388
:1049D000304613F009FD054658B9206C20B1FDF7AB
:1049E0004DFB2564A4F8445070BD18461BF007F831
:1049F000EAE7FDF743FBE9E70800000070B504466D
:104A000052EA030008D0FCF7E1FF074D074ED5F846
:104A100080503058854201D1002213462046BDE81F
:104A200070400431FFF71CBBB815002008000000DF
:104A3000F8B50F46002106280546164609484FF2EC
:104A400024424FF0000318BF0846FFF7D7FF044683
:104A500030B104210C3017F010F805704770468013
:104A60002046F8BDAC0600202DE9F0470E469046E2
:104A7000D0F8BC4044B1C03C236B5BB9206818F04F
:104A8000A5F8D4F8C040F5E7FDF7E0FE002528467C
:104A9000BDE8F08704F1300948461AF0BDFE05462E
:104AA0000028F1D017F041F90028EFD1D4F8C43034
:104AB00073B9A38C403B9BB23F2B09D804F12C0067
:104AC00018F066F8002803DC206818F07FF8DDE7AE
:104AD000284616F091FFD4F8C43005469BBBA38C42
:104AE000078A403B9BB23F2B03D8238D9F4228BFB0
:104AF0001F46042105F10C0016F0D6FF0780A38C99
:104B000004374380A38CC4F8C470403B9BB23F2B56
:104B100019D804F12C03184618F03AF8002840D1AF
:104B2000184618F035F870B904F11001D1E8EF3FDC
:104B300023F00103C1E8E23F002AF7D16368DB6993
:104B40000BB120469847D4F8C470BE421ED3B5F8C6
:104B500010A0574506D100220023484613F044FC1C
:104B6000FDF78CFAA38CA3F140023F2A06D85745E3
:104B70001ABF00221346104AEB61AA61206818F0A0
:104B800025F8236B13B1204618F008F8D4F8C43088
:104B90009E422CBF00269E1BC8F80030C4F8C4609B
:104BA00075E7421ED3E8EF1F814203D1C3E8E72F28
:104BB000002FF7D1B4D0AEE723CF010070B58B8AB8
:104BC00005460C462BB94021284618F0B7F918BB0A
:104BD000A182002304F11001D1E8EF0FC1E8E63F04
:104BE000002EF9D1C4E91033C4F8C030C4F8C43081
:104BF00004F1080105F1340017F065FF1049256044
:104C0000E26004F170001AF0EEFEA38A403B9BB212
:104C10003F2B07D9012004E0013189B28029D3D18B
:104C2000002070BD074904F148001AF08FFE04F11E
:104C300058001AF0AEFD012384F86830EAE700BF9F
:104C400051CD0100CDD10100F7B505461B4C1C4FDD
:104C5000BC4201D303B0F0BD2188284618F0C2F849
:104C60006368019001A928469847002824DB019E2B
:104C70002388002231462846B382B384FFF79EFF83
:104C80000028E7D006F130001AF083FD0198436850
:104C90001B6803B19847019B1033D3E8EF1F41F025
:104CA0000101C3E8E21F002AF7D101984368DB69DC
:104CB00013B100F1100198470834C9E7101D020034
:104CC000281D0200054A0346106830B130F8082C50
:104CD00008389A4201D08068F7E77047A01A002090
:104CE00010B54368014613B96FF0150010BD008878
:104CF00040B1431EFE2BF7D8FFF7E4FF80B16FF001
:104D00006F00F3E780242046FFF7DCFF38B1013461
:104D1000A4B2B4F5807FF6D16FF07C00E6E70C809A
:104D20008B78042BE0D80BB901238B700248083133
:104D300017F0C9FE0020D9E7A01A002030B5026C98
:104D40000446108A0D4685B060B1138B298A014450
:104D5000B4F84400814207DD204605B0BDE830408C
:104D600018F063B90346F1E701331383214B0022A6
:104D700002930023CDE900230394EA68298A206C7A
:104D8000FDF7A0F92B8A80B28342E5D1256CB4F8F7
:104D900044302A8A9A420BD204F11C0017F0F8FE24
:104DA00028BB0121204605B0BDE8304018F034B8DA
:104DB00000232364A4F844306368294620465B69D5
:104DC000984700280ADA773011D0204618F02DF9DC
:104DD000284605B0BDE83040FDF750B994F868307A
:104DE000032BF5D10121204618F016F8F0E705B0A5
:104DF00030BD00BF7BCB01002DE9F04F0B8A06468A
:104E0000032B0D4685B067D9042105F10C0016F07F
:104E100070FEB5F810B042885A455DD14478002C38
:104E20005AD00278012A00F0EC81063AD1B210295A
:104E300000F2F581102A00F2F281DFE812F05E0143
:104E4000A401F001F001F001F001F001F001F00126
:104E5000F001F001F001F0014D001100D900BE0198
:104E6000BBF10A0F38D1EA68214613881520009358
:104E7000B2F802A036681FFA8AF30193B2F80480F0
:104E80001FFA88F301931389B2F806905A460193EA
:104E9000FFF7CEFD1FFA89F50746E8B159460C30F9
:104EA00016F0EBFD00221FFA88F3162B0446026071
:104EB0004260028114D84FF00B0B39463046A4F8FB
:104EC00008B017F098FF38B9BBF1000F04D1039870
:104ED00043681B6803B19847002005B0BDE8F08F18
:104EE0004FF6E671A5F1170292B28A42E3D8009814
:104EF000FFF7E8FE054610B94FF0020BDDE7727AC6
:104F00008178914208D81FFA8AF3A3F140023F2A20
:104F10000CD94FF0090BD0E7012A04D8304617F01E
:104F200022FD002861D14FF0050BC6E730461FFA7D
:104F30008AF117F057FF03900028BED1294630466A
:104F40006B6803AA9847002815DA10F10C0F0FD0F0
:104F500010F10B0F07DA10F1860FCDD00D30AAD16A
:104F60004FF0060BA9E70130A5D14FF0070BA4E7DE
:104F70004FF0040BA1E7DDF80CB0DBF804305A6900
:104F80009B6A003AB3FA83F318BF01225B099A4285
:104F900091D1AB7858468BF86E3017F06EFE5846BC
:104FA000ABF824A0ABF82890ABF8268017F03EFEB3
:104FB0003046A54A0399FFF701FE0028D8D058468D
:104FC000019917F010FE03222B88ABF86A30039B7F
:104FD0004FF0000B83F868209A8A22801A8BA280F7
:104FE000DA8A6280DB69E38067E74FF0080B64E7E9
:104FF000BBF10A0F7FF470AFEB683668B3F802902C
:10500000B3F800A01FFA89F20092DA88B3F804809E
:1050100000921D891FFA8AF7082D1FFA88FB2DD8E8
:1050200040F22113EB40D90728D500232146142252
:10503000304617F062FD044600283FF44DAF703053
:105040001AF0DDFC0023052DA4F86C302BD0082DC0
:1050500029D0002D4DD1403F3F2F0AD81FFA89F3A8
:10506000162B06D94FF6E672ABF117039BB29342AB
:1050700006D93B21304617F056FC2DE70123D5E732
:10508000032384F868306368A4F824A0A4F8269069
:10509000A4F828801B680BB1204698472046009949
:1050A00017F0A1FD18E7274657F8103B384617F0D0
:1050B0006FFD420719D4052D5B7A11D0012B14D84E
:1050C0000221206817F073FC00280EDBD7E8EF3FC1
:1050D00043F00403C7E8E23F002A3FF4FDAEF5E7E2
:1050E000032B02D8594AD15CEBE72146304617F032
:1050F00019FE204617F0D2FDEEE6BBF1040F7FF457
:10510000EBAEEF6836683988304617F016FD054675
:1051100020BBF978BA78012042EA0122ADF80C20D0
:105120003A882146ADF80E200622FFF781FC04469E
:1051300000283FF4D1AE00F10C070221384616F0EA
:105140009CFC02224570027003A95A46384616F0AC
:105150009AFC2146304617F04EFEBDE621465A46DF
:105160000720FFF765FC044600283FF4B5AE59461A
:105170000C3016F082FCAB8A0380AB8C438028464F
:1051800017F08CFDE5E7BBF1040F7FF4A5AE3668A0
:105190000023062221463046ED6817F0AEFC0028B9
:1051A0003FF49AAE6B88818A99427FF495AE30467F
:1051B00017F0C3FC00289DD18EE6BBF1040F7FF4ED
:1051C0008BAEEB681988A1F140023F2A3FF684AE0E
:1051D0005A88002A3FF480AE306817F003FE034679
:1051E00000283FF479AE2C3017F0D2FC1044B0F513
:1051F000803F03DB184617F018FF6DE6114618468E
:105200004EE7356801234FF480722146284617F097
:1052100074FC00283FF460AE17F040FDF2E7214631
:10522000022201203568FFF703FC044600283FF402
:1052300053AE02210C3016F020FC002321460370EF
:105240004370284687E700BFA5490000F3390200F4
:1052500070B504460D4611B96FF0150070BD0028F9
:10526000FAD00B7A012BF7D1036883B35B7B072B52
:105270002DD1103017F08CFC83072BD4A38CA3F115
:1052800040023F2A19D8098AE38C8B4225D32B7A16
:10529000012BE1D1EB686A699B1A0A2BDCD905F175
:1052A0000C0016F009FC294604F130001AF09FFAB0
:1052B000204617F073FC0020D0E7013B3E2BCBD8F3
:1052C00023462046BDE87040054A17F06DBD6FF0DB
:1052D0007F00C3E76FF06D00C0E76FF07900BDE7B6
:1052E00085CB010023281FD81A2804D8431E182B69
:1052F0000ED906207047A0F11B03082B1ED8DFE84B
:1053000003F0051D1B231D19251D050003207047F3
:1053100001230F4A83401A40C2B90E4A1A40002A9C
:105320000CBF06200120704700F07F03522B05D1EF
:1053300000207047012070470520704710F0400F93
:1053400014BF0020062070470420704702207047D9
:10535000AAAA8A02545545012DE9F74F0546084689
:105360008946FCF7EBFD18234343264F0446FA1801
:105370009168D9F80C60019105F1D000D0E8AF0F29
:10538000C1073CD5D9F80C00007810710022FA5002
:105390003378D22B0ED12B684946186819F086FA5B
:1053A00040B101904846FCF769FE019B184603B0E6
:1053B000BDE8F08F18235C43002349461A4607EBEB
:1053C000040805F10800D9F80C60D9F814B0B9F850
:1053D00010A0C8F8085017F0E7FC03460028E5D0F5
:1053E000D9F81420A6EB0B0612FA86F6019AC9F832
:1053F0000C60A9F810A0C8F808203851D6E76FF063
:105400001503D3E7B01A002070B50E46C38DC18BCB
:1054100001328B4228BF0B469A42054631D83046AE
:10542000FFF760FF6FF01403034113F0010310D086
:10543000FCF7CCFA144B1958144BD3F8803099422E
:105440001DD0134B1B685A1A18BF4FF0FF3213467A
:1054500000E0104A00211048FFF7D0FA044660B17E
:10546000FCF76CFD18220D4B012102FB003304F107
:105470000C009D6016F001FB0670204670BD0022F6
:10548000E5E70024F9E700BF08000000B815002098
:10549000B02000201C4E0E0088060020B01A00200C
:1054A000A0F108014022002010B4064B9C6818337C
:1054B0008C4208BF43F8100C013AF7D1024810BCE7
:1054C0001AF0A9B8B01A0020F8050020F8B50F4A64
:1054D000074600230E480E4616F05FFA044690B1C8
:1054E00000F10C050921284616F0BCFA2046FCF70D
:1054F00025FD1822074B012102FB003328469F603F
:1055000016F0BBFA06702046F8BD00BF1C4E0E0018
:1055100088060020B01A002008B5EFF3118120237F
:1055200083F31288BFF36F8F002303600C4B5A681C
:105530009AB9C3E9000081F31188BFF36F8F09485E
:1055400013F08AF9002807DA002383F31188BFF3E8
:105550006F8F0323184602DF08BD10605860EAE72A
:10556000A81A0020D40300207FB5CB6804461D880C
:105570008DB15E8876B1AE420DD31022002168460F
:105580001BF0FFFD05212046FFF7A0FF019058B951
:10559000112007E0354601232A460421204618F051
:1055A00006F8002004B070BD6B4631462846084A14
:1055B000009418F019F8DDE9011323B90846FCF747
:1055C0005DFD0A23E8E7204617F019FFE9E700BF71
:1055D0001BD4010010B5044600F1C803D3E8EF1F47
:1055E00041F00101C3E8E21F002AF7D1A4F108004D
:1055F00017F06FFF04F1E00003491AF0F4F9206896
:10560000BDE8104001F07EBA45DB0100F0B51D4653
:10561000036804460E4685B001211868174618F045
:1056200080FE38B904F1D00018F002F850BB122007
:1056300005B0F0BD65B31022002168461BF0A1FD46
:1056400039462046FFF742FF029018B3BDF82830D4
:105650002946ADF80430012328468DF80C300E4A57
:105660006B46009417F0C0FF9DF80C3002995BB1B7
:105670000846FCF703FD2A46314620469DF80C30CB
:1056800017F095FF0020D3E7204617F0B8FEF9E7A2
:105690000120CDE71120CBE7C5D901002DE9FF415D
:1056A000036804460D461868012118F03AFE40B917
:1056B00004F1D00017F0BCFFA0BB122004B0BDE87D
:1056C000F0811022002168461BF05BFD0F2120466F
:1056D000FFF7FCFE029038B34FF00108009405F18B
:1056E0000C072B8A012B04D82046029917F087FE5D
:1056F00018E0384616F00DFA6B4601460B4A06468E
:105700008DF80C8017F070FF9DF80C30002BE8D05E
:105710000298FCF7B3FC32460E2120469DF80C306F
:1057200017F045FF0020C9E71120C7E7C5D90100E0
:105730002DE9FF41036804460D461868012118F061
:10574000F0FD40B904F1D00017F072FFA0BB1220A9
:1057500004B0BDE8F0811022002168461BF011FD65
:1057600021212046FFF7B2FE029038B34FF0010826
:10577000009405F10C072B8A012B04D820460299CE
:1057800017F03DFE18E0384616F0C3F96B460146A7
:105790000B4A06468DF80C8017F026FF9DF80C305A
:1057A000002BE8D00298FCF769FC32462021204605
:1057B0009DF80C3017F0FBFE0020C9E71120C7E769
:1057C00041D901002DE9F0430F460446062187B078
:1057D00007F10C0016F08DF90588EDB1B0F80280E4
:1057E000B8F1000F17D0A84516D3002382888DF892
:1057F00000308DF804304FF42053684601A9D7F8E3
:105800000C90ADF80220ADF8063016F0D1F906463E
:1058100060B10A2301E0454601232A4606212046BD
:1058200017F0C5FE002007B0BDE8F0830146142242
:1058300001A83F7C1BF0A5FC07212046FFF746FE90
:105840000290D8B10A2341468DF81530284601ABA5
:105850000B4ACDE9036901948DF8147017F0C4FE6A
:105860009DF8153002992BB10846FCF707FC9DF80E
:105870001530D2E7204617F0C2FDD3E71120D2E75A
:10588000F5D601002DE9F0410E8A0446043EF6B239
:10589000022E08468CB001D0102E76D104210C3097
:1058A00016F027F90DF1040805884788011D3246D6
:1058B000404616F0AAF9002869D085B377B3BD42F7
:1058C0002DD80121A06818F02CFD064678BB42F6C1
:1058D00002038DF8000069464046ADF8023016F02C
:1058E00067F920B342F60303404606A98DF8186015
:1058F000ADF81A3016F05CF9C8B1012D03D14FF69E
:10590000FF739F4213D004F1D00017F091FE0028DE
:1059100014BF002012200CB0BDE8F0813D460123E9
:105920002A460821204617F042FE0020F3E71822FD
:1059300000210DEB02001BF024FC09212046FFF79B
:10594000C5FD0890F8B101210C30CDE9064816F0EC
:1059500094F80023099003700A2339468DF82C30FF
:10596000284606AB0B4A17F03FFE9DF82C300899ED
:105970002BB10846FCF782FB9DF82C30D0E720467F
:1059800017F03DFDD1E71120C5E70420C3E70E2045
:10599000C1E700BF955C00002DE9F0410E8A044686
:1059A000043EF6B2022E08468CB001D0102E64D10F
:1059B00004210C3016F09DF80DF108080588478881
:1059C000011D3246404616F020F9002857D0A5B3F5
:1059D00000268FB3BD4230D84FF42053404601A972
:1059E0008DF80460ADF8063016F0E2F848BB1422DA
:1059F000002107A81BF0C5FB11212046FFF766FD1B
:105A00000990002837D001210C30CDE9074816F065
:105A100034F800230A90394603701A4A0B9328463B
:105A200007AB17F0E1FDDDE909131B78FBB9084668
:105A3000FCF724FB0A2301E03D4601232A461021FE
:105A40000EE042F60103404607A98DF81C60ADF850
:105A50001E3016F0ADF80028C9D010232A4619468A
:105A6000204617F0A4FD00200CB0BDE8F0812046D0
:105A700017F0C5FCF7E71120F6E70420F4E70E2045
:105A8000F2E700BFDD5B0000F0B51D4603680E467F
:105A90000039044618BF012187B01868174618F06E
:105AA00040FC40B904F1D00017F0C2FD002844D0FA
:105AB000002007B0F0BD002D41D01822002168461B
:105AC0001BF05FFB47BB236829461B6828460093F1
:105AD0000023ADF812300C9B1A4A0393BDF8343002
:105AE0008DF80860ADF8103001238DF814306B4646
:105AF00017F07AFD9DF81430C3B1002FD8D001986B
:105B0000FCF7BCFA002ED3D02A46122120469DF87D
:105B1000143017F04CFDCBE7002213212046FFF78D
:105B200073FC01900028CED11120C2E70199002911
:105B3000BED0204617F063FCBAE71220B9E7012077
:105B4000B7E700BF8DD301002DE9F0410B8A044671
:105B50000D46002B3AD00668012105F10C0015F026
:105B6000C8FF737B0746072B30D154F8083C6BB352
:105B700000230178184E083C16F833004FEAC3089A
:105B8000884206EBC30211D1298A5378994220D367
:105B9000536829462046984703464644B278012A6E
:105BA00014D19BB1397889B100220CE001330C2B60
:105BB000E2D10846FFF796FB2122C24012F0010213
:105BC00004D119B10623204617F0F1FC0020BDE8EE
:105BD000F0810423E1E700BF8C2002002DE9FF41A2
:105BE0004FF000084FF4205305460E46006802A906
:105BF000144617688DF80880ADF80A3015F0D8FF04
:105C0000A0B142F60103286803A98DF80C80ADF815
:105C10000E3015F0CDFF48B123691BB15A88B2424E
:105C200000D25E80012004B0BDE8F0816168286880
:105C300015F0BEFF10B100232361F3E7E368A0680D
:105C40001A786AB1B7F82EC0F98B038A8C4594BFD5
:105C5000C3EB0C03C3EB0103934201DA0020E2E73C
:105C600004210C3015F009FF2061068023692946C4
:105C70005E80074B0194009338460023A26817F01A
:105C8000D6FD0028EADB2069003818BF0120CAE7EA
:105C90008FD501002DE9F34717680546894600684E
:105CA00051681446D7F808A015F082FF80460028F6
:105CB0004BD195222946504618F02EFA06462075FB
:105CC00040B1E3681B780BB184F81480002002B067
:105CD000BDE8F0872946504618F060FB10B908234C
:105CE0002375F3E7A068267515F08DFE02210C30B0
:105CF00015F0C3FE164B2061A0F8009000930194AC
:105D0000334629463846A26817F091FD002807DA85
:105D100010F1FF0F32BF0E204042C0B22075D5E710
:105D20002369002BD2D0A06817F0B3FAFB8BFA8D51
:105D30009A4294BFC0EB0200C0EB0300E3681B78FB
:105D4000984294BF00200120C1E70120BFE700BFB7
:105D5000A3D20100F7B5002304460E46002269468F
:105D6000284812F051FA0546D0B9FBF72FFE264B12
:105D700029461A58254B00981A6024221BF001FA74
:105D8000009B00221C60009C0023C4E90155C4E96B
:105D900007551F4801A9019512F036FA054620B1B2
:105DA0006FF00B05284603B0F0BD01464FF490722A
:105DB00001981BF0E6F90198164BC360D83019F032
:105DC000E8FC019BD033D3E8EF2FC3E8E15F002963
:105DD000F9D1019B1C60E369019F1BB904F10C0020
:105DE00019F0D7FCE26907F58C73C7F81821226A0D
:105DF000E36102B923621722019BDA85DA83083353
:105E00003360CFE7DC05002008000000B020002050
:105E1000F8050020A80300202DE9F74F0646EFF310
:105E20001187202383F31288BFF36F8F414C2046E4
:105E300017F025FA23680546009387F31188BFF30E
:105E40006F8F002860D0FCF779F8182202FB00F36E
:105E50003949C81851F803B003690021D0E9024755
:105E6000019390F80480B0F806A01BF08AF9A87A94
:105E7000FCF75CF86969814651B16A7AD00705D4AC
:105E8000D9F81C20284612689268904700226A615F
