:10000000D841002035140000575E01002114000083
:10001000211400002114000021140000211400000C
:100020000000000000000000000000006D1400004F
:1000300021140000000000004116000021140000FF
:10004000C1160000C1160000C1160000C116000054
:10005000C1160000C1160000C1160000C116000044
:10006000C1160000C1160000C1160000C116000034
:10007000C1160000C1160000C1160000C116000024
:10026000C1160000C1160000A9F40000C11600006C
:10027000C1160000C1160000C1160000C116000022
:10028000C1160000C1160000C1160000C116000012
:10029000C1160000C1160000C1160000C116000002
:1002A000C1160000C1160000C1160000C1160000F2
:1004800053B94AB9002908BF00281CBF4FF0FF31FB
:100490004FF0FF3000F00CB8ADF1080C6DE904CE60
:1004A00000F010F8DDF804E0DDE9022304B0704745
:1004B000704700BF034613F8012B002AFBD1181A1E
:1004C000013870472DE9F0478C468E46089E154648
:1004D00004461946002B40F0D080724547D9B2FA45
:1004E00082F74FB1C7F120030EFA07FCBD40BC40B4
:1004F00020FA03F343EA0C0C4FEA154EA8B2230C82
:10050000BCFBFEF80EFB18CC08FB00F943EA0C43D9
:10051000994528D9EB1808F1FF3204D2994502D940
:10052000A8F102022B44A3EB0903A4B2B3FBFEFC27
:100530000EFB1C330CFB00F044EA0344A04214D928
:100540002C190CF1FF3304D2A04202D9ACF1020302
:100550002C44241A43EA02401EB1FC4000233460BC
:100560007360BDE8F0874246DDE76346F1E7002AA5
:1005700079D0B2FA82F3002B3FD01946C1F12003A3
:1005800002FA01F500FA01F42EFA03F20EFA01FE66
:1005900020FA03F3AFB243EA0E034FEA154EB2FB63
:1005A000FEFC0EFB1C201A0C0CFB07F842EA004272
:1005B00090455AD9AA180CF1FF3004D2904502D9BF
:1005C000ACF102002A44A2EB08029BB2B2FBFEFC93
:1005D0000EFB1C220CFB07F743EA02439F4246D95D
:1005E000EB180CF1FF3204D29F4202D9ACF10202A7
:1005F0002B44DB1B42EA004202E0AEEB0203012285
:100600004FEA154EAFB2200CB3FBFEFC0EFB1C33C1
:100610000CFB07F840EA034398452AD9EB180CF184
:10062000FF3004D2984502D9ACF102002B44A3EB71
:100630000803A4B2B3FBFEFC0EFB1C330CFB07F754
:1006400044EA0344A74216D92C190CF1FF3304D213
:10065000A74202D9ACF102032C44E41B43EA004058
:100660000F46114678E71F2188E76046ABE76246F0
:10067000BFE76046DBE76346EFE7734506D916B987
:10068000002108466DE7C6E9000EF9E7B3FA83F7E3
:1006900087B9734501D3824207D8841A6EEB0303EE
:1006A00001209C461EB900215BE73846FAE7C6E9FF
:1006B000004CF8E7C7F1200CBB4000FA07F422FA1F
:1006C0000CF520FA0CF1BA401D432EFA0CF30EFA89
:1006D00007FE4FEA154941EA0E011FFA85FEB3FBFA
:1006E000F9F809FB18300B0C08FB0EFA43EA00433B
:1006F0009A4540D9EB1808F1FF3004D29A4502D947
:10070000A8F102002B44A3EB0A0389B2B3FBF9F86A
:1007100009FB183308FB0EFE41EA03418E452CD934
:10072000691808F1FF3304D28E4502D9A8F10203FB
:10073000294443EA0040A1EB0E01A0FB0298414589
:10074000CE46434602D306D14C4504D20138B9EB1C
:10075000020E68EB0503002EA5D0B4EB0E0261EB90
:10076000030101FA0CFC22FA07F3F9404CEA0303F7
:10077000C6E9003197E74046C5E74346D9E70000A0
:100780002DE9F043044640F2712690F84C0094F8AD
:100790003830C0F3400060F386138DB004F13A01A5
:1007A00084F8383006F0BAFD0021B4F840303E4DF0
:1007B0003E4AA3FB0663651B94F83830A2FB05256F
:1007C000A26C03F0790384F8383002F21313B342B9
:1007D00032BF184630460A46C4E90211217024612E
:1007E0006264606006F04EFD6369C5F3871500F230
:1007F0001317002B41D00DF12C08022391214FF04B
:100800000009CDF820800694294A0B932948B4F8B2
:1008100040300792A3FB000201FB0321264BCDF8D9
:100820000C9005936368023504931DA3D3E900235C
:10083000FFF726FE104619464FF47A720023FFF7A1
:100840001FFEEDB20321CDE901603B462A46484632
:10085000CDF8009006F0ECFB414607F01BFA40B9DA
:1008600094F84C3043F0010384F84C300DB0BDE8EF
:10087000F0830C200DB0BDE8F0830DF12C08CDE91C
:100880000A330320434661680AAA0EF00FFC0028D1
:10089000B3D1DDE90A371F44AFE700BFAFF30080F3
:1008A00000CA9A3B00000000280A0020CDCCCCCC26
:1008B00085730000002AE784FD9800001FB50B46F1
:1008C000EFF31180202282F31288BFF36F8F0B4A5F
:1008D00011680B4A126880F31188BFF36F8F587844
:1008E000039018790290D8880190588800901B785E
:1008F000044815F034F905B05DF804FBF81C00203D
:10090000FC1C002064A001007FB50C461546EFF3E7
:100910001180202282F31288BFF36F8F0A4A116878
:100920000A4A126880F31188BFF36F8F084E30684F
:1009300001303060CDE9013000952346054815F0BF
:100940000EF904B070BD00BFF81C0020FC1C002094
:10095000C80E0020C4A001001FB50B4C0B4815F0B9
:10096000FEF8206803F002F80023094A23601068AB
:10097000516801AB03C390680649186001A802F0F2
:100980006DFE04B010BD00BFCC0E002012A101000E
:10099000B0970100990900002DE9F041074618467B
:1009A0000023DFF874808AB08DF80330D8F8003067
:1009B0000E466BBB012A2BD818490DF1030215F026
:1009C00026FC9DF803301BB3154C02F097FEE0683F
:1009D000216901AB03C306AD04F114030FCB85E815
:1009E0000F00294601AA4346384603F03DFC054660
:1009F000024631460B4815F0B2F84DB120686168E7
:100A000003AB03C3A0680849186003A802F026FEE0
:100A10000AB0BDE8F08100BFCC0E00202D0A000016
:100A2000B097010039A101009909000040F60903BF
:100A300010B502880C469A420AD1427805494068AE
:100A400018F00BF9034601200BB92070184610BDB1
:100A50000120FCE76AA1010010B58AB0A9B1134CCE
:100A6000134815F07CF8206802F080FF0023114A3B
:100A700023601068516801AB03C390680E49186089
:100A800001A802F0EBFD0AB010BD01A903F04CFB78
:100A900040F2E240094BBDF81C101A68084B414374
:100AA0001B68084815F05BF8EDE700BFCC0E00208E
:100AB00073A10100B097010099090000FC1C0020FF
:100AC000F81C002090A101002DE9F04F00208DB00E
:100AD00002F0A6F8054617F0F6F9044629466A48DA
:100AE00015F03DF8694B6A48D3F80813D3F804238E
:100AF000234615F034F80023664F8DF824309DF816
:100B00002430432B40F08680B5B9634801F072FE73
:100B10000A220146614815F022F8614A09AB1068C3
:100B2000516803C390685F49186009A802F096FDF8
:100B300001465D4815F013F80025AA462E46DFF859
:100B40006C81DFF86C91BB681B683BB3514809A905
:100B5000984718BB9DF82430532B6CD1EFF3118CC0
:100B6000202383F31288BFF36F8F52495248D8F87D
:100B70000030D9F80020896A806A8CF31188BFF3AD
:100B80006F8FCDE902100A214C48CDE9002106F112
:100B9000010B3146224614F0E2FF5E4617F0F9FFE2
:100BA0004FF47A7CA0FB0C0E47F6122200230CFBBC
:100BB00001E1FFF765FC421B8B4661EB0A01642AE9
:100BC00071F10001034620DBEFF3118C202282F348
:100BD0001288BFF36F8F3748374DD8F80010D9F817
:100BE0000020806AAD6A8CF31188BFF36F8FCDE966
:100BF00003050A2000930290CDF804B03048079313
:100C000014F0ADFF079BDA461D4600213F2017F088
:100C100012FF98E7BB681B682BB1384609A99847B3
:100C200000283FF46CAF00238DF8243000213F20D2
:100C300017F001FF63E7462B08D1224B1B681BB955
:100C4000214814F08CFFA9E72048FAE74D2BA5D1E5
:100C5000EFF3118C202383F31288BFF36F8F1549B4
:100C60001548D8F80020D9F80030896A806A8CF3DA
:100C70001188BFF36F8FCDE901100A21144800914C
:100C8000214614F06CFF89E7E1A1010000C0FF00DC
:100C900001A20100548E0100B2A901002DA20100A1
:100CA000B0970100990900006AA20100F81C002019
:100CB000FC1C0020A01D0020001D00207FA20100C0
:100CC00066A30100CC0E0020CBA20100EFA2010020
:100CD0001CA30100014B1B68184700BF0002002045
:100CE000014B1860704700BF0002002030B5044679
:100CF00085B00D4610220021684617F0A6FF02239A
:100D00008DF80230044B2A4621466846019314F0C0
:100D100059FB05B030BD00BFD50C000080B50546BD
:100D20000E461746984614F0B1F8034600F0DAFC78
:100D30000446DFF81890424649F8003039463046FC
:100D4000A84754F8090000F065FC00BF0800000047
:100D50002DE9F047058B0446280717460CD50129D5
:100D60000CBF45F0100545F02005258387F3118859
:100D7000BFF36F8FBDE8F087022905F0070540F04B
:100D80009480204614F020FF052864D801A353F86E
:100D900020F000BF6D0D0000AB0E0000570E0000EC
:100DA000190E0000330E0000450E000001F007038D
:100DB0005A1F012A1FD8002221F00701062BD4F860
:100DC000008089B2C4E9002209D1434603E0628B66
:100DD000013262831B68002BF9D141F002012046E9
:100DE000218314F0F1FE4FF0000900286DD041F08E
:100DF0002001218369E0042B0AD121F0070189B287
:100E00002046218314F0E0FE10B141F0200121833F
:100E10004FF00008C14658E02369D3F80090238BB7
:100E200023F0070343F006034FF0000823834646F0
:100E30004BE02369D3F80490238B23F0070343F09E
:100E40000403F1E72369D3F80890238B23F0070309
:100E500043F00503E8E74FF00008C146E7E7012249
:100E600043F00803238387F31188BFF36F8F002AB1
:100E70003BD1B8F1000F4AD1B9F1000F02D02046A2
:100E80002C49C847EFF31187202383F31288BFF35F
:100E90006F8F238B23F008039BB22383D9063FD5A2
:100EA00023F01002228303F007056669218B002ED0
:100EB000BFF67CAF00239946D4F8008021F00701EB
:100EC000C4E9003341F001012183238B03F0070AB9
:100ED000AA4502D0A268002AC1D1B8F1000F02D100
:100EE000B9F1000FDAD00022BAE7A1680029C0D01A
:100EF0000D680029BDD03346524620464F68B8479A
:100F00001DB12B6829461D46F3E72B46FAE74146FB
:100F1000334652462046D8F8008014F081FEA8E7F8
:100F20009A067FF523AF23F02002228303F0070502
:100F300027E700BF4D5C0100014B036000207047B4
:100F40001898010008B50348034A0021121A14F04A
:100F50007AFF08BDB006002008220020074808B527
:100F6000074A0849121A14F070FFBDE80840064805
:100F7000064A0749121A14F068BF00BF000000209B
:100F8000AC06002024AA0100000000200000002080
:100F900024AA010038B505460C4699B1D1E90123D0
:100FA0000F48096814F0DBFDD4E90423E1680D481B
:100FB00014F0D5FDE1690C4814F0D1FDA1690B488E
:100FC00014F0CDFD012D05D1EFF30581084810394E
:100FD00014F0C5FD21462846BDE8384012F0D6BFC2
:100FE000A4A30100D4A3010004A4010014A40100DF
:100FF00043A4010030BFFFF7FDBF00BF2DE9F04162
:1010000005460B4EDFF82C80324606EB0807CC1B5A
:101010002046094917F00CFEA01942460021083C61
:1010200017F013FE2C6707F10800BDE8F08100BF40
:101030000000000004000000AC97010010B5204C37
:10104000204814F08CFDA36A990137D51E4814F08E
:1010500086FD1E20A36ADA0103D51C4814F07FFD2B
:101060001F20174CA36ADB0203D5194814F077FD43
:101070000220A36A1C0303D5164814F070FD21203A
:101080000F4CA36A590303D5134814F068FD2220BE
:10109000A36A9A0303D5114814F061FD2320084C7C
:1010A000A36ADB0303D50E4814F059FD2420A36A7C
:1010B0006FEA03436FEA1343A36210BD1D20C9E723
:1010C00000ED00E057A4010070A4010084A4010019
:1010D0009FA40100CAA40100E9A401000FA501001A
:1010E0002AA5010070B5244C064624480D4614F08C
:1010F00036FDA36AD90435D5214814F030FD1720F8
:10110000A36A1A0503D51F4814F029FD18201A4CAC
:10111000A36A9B050FD51C4814F021FDA16BA36A9F
:10112000180407D5194814F01AFD1EB1A36A23F458
:101130000043A3621920104CA36A590503D5144833
:1011400014F00DFD1A20A36ADA050DD5114814F02C
:1011500006FD1B20084A936A43F47F4393620023F1
:101160002B7070BD1620CBE7A36A9B04F2D50A480A
:1011700014F0F5FC1C20EDE700ED00E056A50100A1
:101180006DA501007FA5010093A50100ADA501009B
:10119000C3A50100DFA50100F8A5010070B5264C2C
:1011A000064626480D4614F0DAFCA36AD80640D558
:1011B000234814F0D4FC1120A36A190703D5214851
:1011C00014F0CDFC12201C4CA36A9A070FD51E48C0
:1011D00014F0C5FC616BA36A1B0607D51B4814F00D
:1011E000BEFC1EB1A36A23F08003A3621320124C3D
:1011F000A36ADE0703D5164814F0B1FC1420A36AD5
:101200009C0603D5134814F0AAFC15200A4B9A6AD1
:10121000D10658BF9A6A9A6A920642BF5A6A22F465
:1012200000525A629A6A42F0FF029A6200232B70BF
:1012300070BD1020C0E700BF00ED00E028A601004F
:101240003FA601007FA5010073A601008CA6010046
:10125000A3A60100F8A501002DE9F0415D4B04466D
:101260005F6800258AB0C7F3080685F31188BFF3CD
:101270006F8F02F07F43B3F17F4F06D102F00C0372
:10128000082B13D1544814F06AFC00252C464FF06B
:101290000008F31E8DF80780092B00F28B80DFE831
:1012A00003F00A7F837B89898989898710074CBF6E
:1012B0000C460125EBE74948464E14F050FC8DF8EA
:1012C0000780F36A9A0704D5454814F048FC0023C8
:1012D0002AE0F36A002B01DA4248F6E7F36A5B0082
:1012E000F5D5414814F03BFC7369A26943F480735F
:1012F0007361BFF34F8FBFF36F8F32F8023C726997
:1013000022F480727261BFF34F8FBFF36F8F03F4CB
:101310007F42B2F55F4F27D1DBB2022B24D1216887
:10132000324814F01CFC23689DF80720CAB902AEAD
:1013300004F12007324620686168083403C2BC42C9
:101340001646F7D1099A002D40D0C2F3080121B901
:101350006FEA52226FEA42220992184602A9FFF769
:1013600019FE0AB0BDE8F0811A4B9A6AD2B22AB1CE
:1013700001200DF10701FFF711FF0FE09A6A12F447
:101380007F4F05D001200DF10701FFF7ABFE05E00F
:101390009B6AB3F5803F9AD3FFF750FE0346C3E73D
:1013A00000200DF10701E6E700200DF10701ECE751
:1013B0000F488AE70F4B17F4F87F0F490F4808BF13
:1013C0001946A6F1100214F0CAFB80E76FF3080279
:1013D000C2E700BF00ED00E0F1A601001DA701007B
:1013E00035A7010057A7010066A7010086A70100E5
:1013F000A3A70100C3A60100D8A60100C8A7010049
:10140000064B5A6942F010025A615A6942F48062EE
:101410005A615A6922F008025A61704700ED00E0F3
:10142000EFF30880EFF3098101B57246FFF714FF6F
:1014300001BD00BF0B4880F3088811F003FE202097
:1014400080F3118808484FF40061401880F3098840
:10145000EFF314800221084380F31488BFF36F8FE9
:1014600000F06AF8D8410020983000201EF0040FE8
:101470000CBFEFF30880EFF30980816911F8021CBB
:101480000229FFD001B5724614F0E1FC01BD00BF96
:1014900000B2002807DB01234109034A00F01F00C6
:1014A000834042F82130704700E100E000B200289C
:1014B0000CDB01220649430900F01F008240203363
:1014C00041F82320BFF34F8FBFF36F8F704700BFEA
:1014D00000E100E0054B420953F82220012300F00F
:1014E0001F0003FA00F01040704700BF00E100E069
:1014F00000B2002801F10101ACBF00F16040064BD1
:101500004FEA4111C9B2ABBF00F5614000F00F00D6
:1015100080F800131954704714ED00E0044B054A9D
:1015200023F07F039360BFF34F8FBFF36F8F70473C
:101530000000000000ED00E008B5FFF7EFFF0B4AE8
:10154000D2F8883023F47003C2F88830EFF31483A4
:1015500023F0040383F31488BFF36F8FFFF7F2FCCB
:10156000FFF7FCFC00F09CF812F0D4FD00ED00E069
:1015700042F8203C009B0B4942F81C3C019B21F0A7
:10158000010142F8183C029B42F8081C42F8143C46
:101590004FF0807342F8043C0023203A0265436711
:1015A000704700BF1D0D000000B50D4B154698603B
:1015B000026F0C4B0E461A60036E83F30B882C46A9
:1015C00086F309880020044B98472046002100221A
:1015D0000023024C204700007B5E01001D0D00002F
:1015E000A0210020D00E00201022014B1A6170476C
:1015F00000ED00E0054B5A699B689A421FBF044A00
:10160000536843F080535360704700BFA02100200F
:1016100000ED00E0084B9B6883420BD1EFF305839C
:1016200043B1064B5A6842F080525A605A6A22F41B
:1016300000425A6213F030BCA021002000ED00E00F
:1016400014498A684FF030001044EFF3098C80E8A9
:10165000F01F202080F31288BFF36F8F0E4F4FF0E2
:1016600000664A698A603E60106F0C4C2060506FC3
:101670000023536780F3118802F1300090E8F01FD7
:101680008CF3098802F1000004B514F0EFFBBDE80B
:1016900004407047A021002004ED00E0D00E00209F
:1016A0000023202040F20F1210B5044CE118013342
:1016B000934281F80003F9D110BD00BF00E100E0C2
:1016C00008B5EFF30583064A103B02EBC30152F85D
:1016D000330049688847BDE80840FFF78BBF00BF6B
:1016E0008C8E01000148006870470000D00E002079
:1016F0001FB50121094B0A4A0A4800F0F7F80023F8
:10170000064A0393084B0121019301A8D31A0293BF
:1017100000F0F6F805B05DF804FB00BF00000420FF
:10172000000000207C980100B00600200A7A0B68B7
:1017300010B562F304031C46CB68520923F01F0363
:1017400043EA4203044A43F00103C2F89800C2F896
:101750009C40C2F8A03010BD00ED00E010B5074B72
:10176000D3F89030C3F30723013B984202D8FFF728
:10177000DDFF10BD6FF01500FBE700BF00ED00E0DE
:101780002DE9F04F0F46144606464FF000084B4D2A
:1017900085B0B84580F28E80D6F80490B9F1000F7C
:1017A00035D0B9F11F0F40F2838019F01F0F7FD1A0
:1017B000D6F800A01AF01F0F7AD1504614F080FB23
:1017C000834609EB0A00013814F07AFB83456FD198
:1017D0001BF1160F6CD05C456ADDC5F898B0D5F8E2
:1017E0009C10C5F898B0D5F8A03021F01F0143F047
:1017F0001F0AD6E900321A44994202F1FF391BD17F
:10180000CA4508D131465FFA8BF014F062FB08F14B
:1018100001080C36BDE73146C5F898B0D5F89C30C4
:10182000E0B263F30402C5F89C2014F052FB10F1FF
:10183000160F3DD0441CEAE7C5F898B0D5F8A020B3
:10184000013B23F01F0302F01F021343CA45314638
:10185000E0B2C5F8A030E8D014F03BFB10F1160F51
:1018600026D0C5F898B0D5F89C209DF808300AF12C
:10187000FF3A62F304038DF80830D5F8A0309DF8E4
:1018800008205B0863F347128DF80820D6E9003280
:101890001344009323F01F035344A3EB09030130C7
:1018A00023F01F036946C0B20393FFF757FFBEE75B
:1018B0006FF01504204605B0BDE8F08F00ED00E0A4
:1018C0000522044BC3F89420BFF34F8FBFF36F8FF3
:1018D000704700BF00ED00E0BFF35F8F0022024BB6
:1018E000C3F89420704700BF00ED00E010B5034C32
:1018F0002278FFF745FF207010BD00BFEE210020C9
:101900002DE9F74F294D8A4606464FF00008AB46B1
:10191000274FD0451BDAD6F80490B9F1000F3FD01D
:1019200031680846019114F0CBFA0199044609EB9D
:101930000100013814F0C4FA84424FF014021D4B28
:1019400008D002FB08F36FF015024BF8032003B038
:10195000BDE8F08F14F1160F2C60F8D01978A14271
:10196000F5DD02FB08B0C7F89840C7F89840D7F8F3
:101970009C4000F10801007B64F304000871D7F873
:10198000A0000C79400860F347140C71D7F89C1044
:1019900021F01F016960D7F8A01021F01F01296113
:1019A00008F1010814350C36B3E700BFD40E00204F
:1019B00000ED00E0EE210020F0B55349534DD1F881
:1019C00090302C68C3F307239C4287B000F29980C3
:1019D0000020FFF781FF4E4BC1F8C030844216D182
:1019E0004C4D01A82C70FFF7A7FA002607464A4C79
:1019F000B74213D100202B784349D1F89020C2F38D
:101A00000722934277DBFFF75BFF002046E069681F
:101A100001EB0011FFF78AFE0130DFE70199300189
:101A200001EB0613DA682240B2F1807F52D00AD867
:101A3000B2F5001F34D0B2F5800F3ED0B2F5801F52
:101A400012D00136D4E7B2F1006F43D0B2F1805F1B
:101A5000F7D15A689B680958013B22F01F000344E4
:101A600023F01F03012032E05A689B680958013BAC
:101A700022F01F0003440120844623F01F0340EAA4
:101A80004C10CDE902218DF8100002A928780593A9
:101A9000FFF764FE00282ADA6FF0150007B0F0BDEA
:101AA0005A689B680958013B22F01F0003444FF01D
:101AB000020C012023F01F03E1E75A689B680958D4
:101AC000013B22F01F000344062023F01F034FF0C8
:101AD000000CD4E75A689B680958013B22F01F00AC
:101AE00003444FF0030C012023F01F03C7E72B78BA
:101AF00001332B70A5E7C1F89830C1F8A00001337D
:101B00007BE74FF0FF30C9E700ED00E08898010067
:101B1000AAFF4400EE2100200000F0FF08B5024BB0
:101B20001B689847002008BDE80E0020034B044ABC
:101B30001860937843F0020393707047E80E00201A
:101B40001402002008B50649064821F00701C1F13A
:101B5000005202F5802213F0BFFF002008BD00BF35
:101B60009F590020EC0E002070B541690446867A2A
:101B70000A4D59B1437ADB0706D4242303FB0653ED
:101B8000DB691B689B68984700236361242021461A
:101B900000FB0650BDE8704016F09DBDB00500206A
:101BA0002422024B02FB0030704700BFB00500202A
:101BB0002421827A054B01FB02331A6A1B7D801AAD
:101BC0001B3323F00303B0FBF3F07047B005002094
:101BD00038B52424827A064B04FB0233DB69D3E94F
:101BE00001240C601568FFF7E3FF04FB005038BDCB
:101BF000B00500202DE9F04385B0054668469046C3
:101C00001C46039116F0C7FFDDE90067EFF3118969
:101C1000202383F31288BFF36F8F6B8A002B41D090
:101C20002A8A9A4225D900220023284612F0EEFB88
:101C30000446F0B189F31188BFF36F8F039B002B2B
:101C400041D032463B46684616F0CAFF2421A27AAC
:101C5000254B204601FB0233DB6903A91B681D6885
:101C6000DDE90023A847606170BB2046FFF77CFFD9
:101C700024E0698A4B1E6B8289F31188BFF36F8F52
:101C80002B7D2A8A2C6A1B3323F00303521A02FB92
:101C90000344154B154AEB1A9B105343A3722B7D3B
:101CA000E372CBE789F31188BFF36F8F2346424677
:101CB000284612F0ABFB04460028BFD10024204682
:101CC00005B0BDE8F0836361012300252381039BF8
:101CD00029466382E27A656004F1180016F0B5FFC8
:101CE00063692582E360EAE7B0050020398EE338B6
:101CF00070B524250C4C00B970BD037A4668002BE2
:101D0000FAD0013BDBB20372002BF5D1C360436014
:101D1000837A05FB03439B6913B198473046EAE792
:101D2000FFF722FFFAE700BFB005002008B5244AFC
:101D3000244B1A6010F0F0FB4FF47A612248D0F87F
:101D40002436C3F30802C3F309434B4382F4807281
:101D50001E49883201FB02334FF4FA215B00B3FBCA
:101D6000F1F201FB12331A49B3F57A3F28BF013271
:101D7000C1F80429D0F820364FF47A60C3F3080282
:101D8000C3F30943434342F21C5082F4807202F2CF
:101D9000172200FB02334FF47A701B0AB3FBF0F2F8
:101DA00000FB12330020B3F5FA7F4FF0010328BF88
:101DB0000132C1F81C27C1F80009C1F8003608BD7E
:101DC0000020A1071005002000C0FF00F82A0080B5
:101DD0000000125048B1054B054A1B68B3FBF2F3F3
:101DE0005843044B43F00103184770471005002087
:101DF00040420F000098010030B50378012B11D04C
:101E0000022B21D06BB90A46144B03F1100453F88E
:101E1000045BA34242F8045BF9D143881A0A8A7032
:101E2000CB7030BD0A460D4B03F1100453F8045B30
:101E3000A34242F8045BF9D143681A0C180E4A70A9
:101E40000870C3F30722EAE700F11003013913F821
:101E50000129984201F8012FF9D1E2E7CAA901004E
:101E600010B514F078F916F049FD044608B912F0DF
:101E700049FF064BD3E8AF3F0BB10A2098471CB986
:101E8000BDE8104012F052BF10BD00BFF80E002098
:101E900038B50446084814F040F8054648B1631EBA
:101EA000DBB21F2B96BF054A0021D15C0C3014F029
:101EB000AFF8284638BD00BF64060020DAA901004B
:101EC0000F2810B50CD80D280CD90A4814F025F8A5
:101ED000044618B104210C3014F09AF8204610BDC5
:101EE0001328F2D009B10448F0E70220BDE8104001
:101EF000FFF7CEBF88060020F805002038B5C5687A
:101F00002B7893B9B5F801400F21204601F034FE3B
:101F1000EB78054650B90A4A118831B96FEA045086
:101F20006FEA10501080074A137038BD43720121C8
:101F300001F06EFD2846BDE8384001F017BD00BF36
:101F4000D4210020EF21002010B5002486B003AB7F
:101F500000934FF480624FF0FF3305490548CDE907
:101F60000344059412F038FC204606B010BD00BFB3
:101F700008220020B006002010B5012104460C30D4
:101F800014F067F82146BDE810400023014A0078AC
:101F900014F05DBAA099010010B5012104460C307F
:101FA00014F057F82146BDE810400923014A007893
:101FB00014F04DBA5899010070B5314813F0C6FFBE
:101FC000044600285AD000F10C05284614F049F8C0
:101FD000022805D004282FD02046FFF789FE21E0F3
:101FE000238A032BF8D90421284614F032F8FF2263
:101FF000438806882276228AC6F30B009A426083C1
:10200000EAD10F2101F0B8FD05460028E4D001F027
:10201000CFFD21462076320B284614F048FC284696
:1020200001F0A4FC174BD3F844313BB3BDE870403A
:102030001549164816F010BC2846022114F009F87C
:10204000054600783E2812D014F008F910F0020678
:102050000DD140F69A430E4A0E490F4813F08CFDFD
:1020600086F31188BFF36F8F0323184602DF042322
:1020700021460A4A287814F0EAF9ADE770BD00BF9E
:10208000440100200000002024030020500700200D
:10209000EBA701001FA801004DA80100389901001D
:1020A00010B5012104460C3013F0D3FF2146BDE8E2
:1020B00010400223014A007814F0C9B928990100A0
:1020C0002DE9F0470C4612F01DFEE5682B78022B37
:1020D00067D0042B05D02046FFF70AFE6FF01504E9
:1020E00008E0B4F81080B8F1020F08D82046FFF7D6
:1020F000FFFD002412F01AFE2046BDE8F087687844
:102100003E2809D1B8F1030FF0D0EB78012B01D0B4
:102110000A2B46D1032704E014F0A0F80746F8077D
:102120003FD504F10C0601213046D4F814A013F079
:1021300088FF0221304613F08CFF814600783E284C
:1021400007D1E3681B78012B01D00A2B06D10326A7
:1021500014E014F083F8C10706460FD441F2681367
:10216000164A1749174813F007FD002383F3118817
:10217000BFF36F8F0323184602DF0226124A06239D
:10218000214699F8000014F062F9B20712D563698C
:10219000A5EB0A0513FA85F5E560A4F81080BB07E6
:1021A000A7D52146094813F0BCFE0949094816F095
:1021B00053FB9EE72046FFF79BFDF0E7EBA70100EE
:1021C0006AA801004DA80100F89801004401002010
:1021D00024030020500700202DE9F04788461646CA
:1021E0008246002868D00023DFF8D090D9E8EF4F6E
:1021F000C9E8E23F002AF9D1002C5DD02046FFF764
:10220000D7FC0C232E4D274603FB00504388534533
:102210000DD0D9E8EF3FC9E8E27F002AF9D1002BC1
:102220004AD01F463846BDE8F047FFF761BDA642D9
:1022300008D0204613F06CFE328AF16804F10C00DD
:1022400013F0DDFE2046FFF7B3FC0C2606FB005022
:102250004368ABB1B8F1000F12D12046FFF7A8FCDC
:10226000012106FB00504268536803F01F008140C3
:1022700010685B0900EB8300137ACBB114F038F8D7
:102280002046FFF795FC0C2606FB00508368002BC8
:10229000C8D02046FFF78CFC704305F8008020462C
:1022A000FFF786FC06FB0055A86812F0E1F8B9E7D5
:1022B000C94314F0E3F8E3E7BDE8F08740010020EC
:1022C000FC0E002008B501F07BF8064BD3E8AF2FD9
:1022D00002F00B02D3E8EF1FC3E8E02F0028F9D18A
:1022E00008BD00BFD400002010B5C1E900239DF84F
:1022F00008300C460B72FFF75BFC0C22024B02FB12
:1023000000335C6010BD00BFFC0E0020F8B5024633
:102310000B46104813F001FE0446C0B104210C30F6
:1023200013F05CFE2046FFF743FC0C2700260A4D05
:1023300007FB005046802046FFF73AFC07FB0050A1
:1023400086602046FFF734FC07FB00556E60204690
:10235000F8BD00BF40060020FC0E0020034B0146E4
:10236000D3F85C0182689268104700BF000000202B
:1023700008B50421034813F0BBFFBDE8084001F095
:102380001FB800BFD40000200048704783A8010098
:102390000149024816F060BA14030020B00600207C
:1023A00070B505460C4639B1CB684A699B1A032BB8
:1023B0000ED86FF0150509E04FF0FF304FF0FF31F8
:1023C000FFF7A4FF044618B96FF06805284670BDF2
:1023D0002046FFF7EDFB0C22134BA61802FB00333F
:1023E000032130465D8013F01BFE0580238A012106
:1023F000033B8370304613F01BFE40F635439D428D
:1024000009D12046FFF7AAFF05460028DED0204666
:10241000FFF76EFCDAE72146044816F051F9002573
:10242000FFF7B6FFD2E700BFFC0E00204C010020F2
:102430002DE9F043064617460C4685B069B94FF0C2
:10244000FF304FF0FF31FFF761FF044658B96FF0DE
:102450006805284605B0BDE8F083887AFFF7A0FB41
:10246000304B834257D101220021684616F041F9D2
:102470002046FFF79DFB0C23DFF8AC9003FB009098
:10248000C0F808D0204613F077FD01463046FFF72C
:1024900087FF054618B12046FFF72AFCD9E700233D
:1024A0006846224A12F018F8804690B14FF4F17352
:1024B0001F4A2049204813F05FFB424631461F481F
:1024C00013F05AFB85F31188BFF36F8F032318466F
:1024D00002DF2046FFF76CFB0C23584319F800601D
:1024E000AEB12046093EFFF703FC092E0CD8DFE809
:1024F00006F0050B0B08150B0B0B0B126FF06E059E
:10250000A7E76FF00C05A4E76FF00405A1E7002F23
:10251000C1D03C609DE76FF015059AE76FF00B05A1
:1025200097E700BF40060020FC0E0020B4C4040062
:10253000EBA701008DA801004DA8010096A801009D
:10254000F0B585B006460DF10301002000F0E6FD70
:102550000446002846D14FF0FF304FF0FF31FFF71F
:10256000D5FE0746002840D019210C3013F041FD5C
:1025700005462146192216F068FB9DF8033006F146
:1025800070012B73681D13F07BFE194B38469A8936
:10259000D4332A8033F8C62C6A8001930723029330
:1025A0000123B6F88C208DF80C30A5F80D20B6F874
:1025B0008E20A5F80F20B6F89020A5F81120B6F8C7
:1025C0009220A5F81320FFF7F3FA0C22094B3946A5
:1025D00002FB003301AA5A6042F20D002246FFF7C7
:1025E00027FF0446204605B0F0BD6FF06804F9E708
:1025F00000000020FC0E002030B54FF0FF304FF0FF
:10260000FF3185B0FFF782FE0446B0B10C4B0025C8
:10261000019307238DF80C500293FFF7C9FA0C229F
:10262000084B214602FB003301AA5A6042F20E0019
:102630002A46FFF7FDFE05B030BD6FF06800FAE7EF
:10264000D4000020FC0E00202DE9FF410026474B5E
:10265000B0F80170198847F47042914204BF1E809F
:10266000434B00F1040408BF1E78C3780546012BD4
:1026700008BF404B204614BF4FF0000893F86F800E
:1026800013F065FD2146F0B102A813F055FDD5F811
:102690001130CDF80130B5F81530ADF80530012313
:1026A0008DF80030E87838B9022202A901F01AFD4D
:1026B000EB7804469BB1C4B91321384613F080FF70
:1026C00004B0BDE8F081404614F080F8014602A84D
:1026D00013F0D6FD2146684613F0D2FDE2E76FF015
:1026E0008001254813F0CAFEE5E7204640F2E242A9
:1026F000B5F8013002A920F8703B13F0C1FDB5F820
:10270000173053430022C4F88830B5F81930A4F8C4
:102710009030B5F81B30A4F89230EB786272E37019
:102720006BB9694604F17E0013F0AAFD217A114BC2
:10273000C1EBC101194404F1770013F0A1FD072199
:10274000204601F065F926B101212046667201F0AC
:102750005FF9204601F05EFA204601F007F9E378C0
:10276000002BADD1032014F05EF8A9E7D42100209E
:10277000EF21002000000020D400002000B5C16837
:1027800089B00B7833B1022B2ED109B05DF804EB80
:1027900013F0F0BE8DF80030B1F8013001A8ADF8AB
:1027A0000130CB7804318DF80330B1F80730ADF843
:1027B0001730B1F80930ADF81930B1F80B30ADF879
:1027C0001B304B7B8DF81D3013F05AFD084B6846CB
:1027D0001A689B88CDF80B20ADF80F30CDF811208A
:1027E000ADF81530FFF730FF09B05DF804FB00BF0E
:1027F000C4A9010038B5134B054693F89B301B075D
:1028000019D54FF0FF304FF0FF31FFF77FFD044641
:10281000A0B105210C3013F0ECFB2B6821460360BE
:102820002B79002203F01F030371BDE8384042F208
:102830001400FFF7FDBD6FF0850038BD6FF0680034
:10284000FBE700BF00000020F7B5002240F6034080
:102850001146FFF7EDFD0446002853D1FFF732FD86
:10286000214641F2030001AAFFF7E2FD04460028D9
:1028700048D1019ABF4DD16805F17803D1F8010024
:10288000D1F8051003C31046FFF732FA214641F292
:10289000010001AAFFF7CCFD044698BB0198C3686C
:1028A0005A7885F870205A88A5F872201A7985F828
:1028B0007120B3F80720A5F87420B3F80530A5F807
:1028C0007630FFF715FA214641F2020001AAFFF720
:1028D000AFFD0446B0B9019F05F18006FA68531CAC
:1028E0004132344618685968083303C49342264677
:1028F000F7D13846FFF7FCF995F87C305B0604D435
:102900006FF01204204603B0F0BD95F8AF1001AA95
:1029100011F0040100F03481002142F28700FFF73A
:1029200087FD04460028EDD1019A934FD468A31C7B
:1029300022343E4618685968083303C6A342374616
:10294000F7D11046FFF7D4F9002142F2020001AAA4
:10295000FFF76EFD04460028D4D1019CE368B3F86C
:10296000012091B241B1D97831B1A5F81421DA78BA
:102970008248114615F0BDFE2046FFF7B9F995F8DB
:102980007C6016F0200619D14FF0FF304FF0FF3178
:10299000FFF7BCFC0446002800F0178102210C3030
:1029A00013F027FB0123214603704670324640F6A0
:1029B0006D40FFF73DFD04460028A3D195F89C30FB
:1029C0001F0712D5002142F21C0001AAFFF730FDBB
:1029D0000446002896D10198C368D3F80120D3F8A3
:1029E0000530C5E93E23FFF783F94FF0FF304FF084
:1029F000FF31FFF78BFC0446002800F0E680082139
:102A00000C3013F0F6FA95F8D83095F8D91013F089
:102A1000020316BF2F220F22002311F0090F95F990
:102A2000DF1018BF42F400620029B8BF4FF4806382
:102A300095F8E0100270C2F30722427000228E0760
:102A400048BF43F48013C3F307211B0C417182700C
:102A50002146C27002718371C27142F20100FFF718
:102A6000E7FC044600287FF44DAF95F87C30B5F8BC
:102A70001411980600F19580C9B941F2050001AA28
:102A8000FFF7D6FC044600287FF43CAFB5F81431BC
:102A9000019C4BB9E368B3F80120A5F814219A888A
:102AA0003648114615F025FE2046FFF721F94FF074
:102AB000FF304FF0FF31FFF729FC0446002800F0FB
:102AC000848008210C3013F094FA102303708823BB
:102AD000437002230022C3702023214682700271BA
:102AE00042718271C37140F60140FFF7A1FC0446B8
:102AF00000287FF407AF014601AA4FF60140FFF717
:102B000097FC044620BB0198FFF7F2F821464FF6E8
:102B1000024001AAFFF78CFC0446C8B90198C368BB
:102B2000B3F80130A5F8C130FFF7E2F895F8C130ED
:102B30005A070DD521464FF6034001AAFFF778FC4E
:102B400030B90198C3685B7885F8C030FFF7D0F8DA
:102B5000EB795BBB00F0F8FA044600287FF4D2AEB4
:102B600001F06AFC044600287FF4CCAEFFF700FCBD
:102B7000C8E600BF00000020D80000201801002097
:102B800042F20300FFF754FC044600287FF4BAAE7B
:102B9000019A1B4BD168D1F80100D1F8051003C38D
:102BA000CFE6002983D16FF00404ABE62E78002E27
:102BB000D0D195F8C1309B061ED54FF0FF304FF0B5
:102BC000FF31FFF7A3FB044610B96FF0680499E6E4
:102BD00006210C3013F00DFAD5F8013021460360C0
:102BE000084B32469B8883804FF60640FFF720FC57
:102BF00004460028AED085E66FF0850482E600BF6B
:102C0000D80000200100002010B5FFF71DFE034B87
:102C10001B6813B1BDE81040184710BD140F002009
:102C200073B5254D0646D5F85C0115F0EEFB00287E
:102C30003BD06FF0020105F1D40013F01FFC01211D
:102C400013F056FB10EA010432D11C4B1E600A46F9
:102C500005F5987015F04DFD05F5A67015F002FD0F
:102C6000174815F024FE6FF007034FF496621549DC
:102C70001348009411F0B0FD1349114815F044FEBB
:102C8000D5F85C01114983681B689847044648B928
:102C900026B902B0BDE87040FFF7D6BD05F1C4000B
:102CA00011F094FD204602B070BD6FF01204F9E7F8
:102CB0006FF07704F6E700BF00000020140F00203B
:102CC0005007002008260020DBA80100C1200000DA
:102CD00038B5032104460C3013F0BBF940F63542F9
:102CE0000346B0F8010090420DD01D78E3682246FB
:102CF0001978FFF771FA35B1034811F0B9FBBDE857
:102D00003840FFF745BB38BD3001002038B511F021
:102D1000F9FF284DD5F84C31002B48D00022002374
:102D200005F5987011F0D8FB002840D1002200234F
:102D300005F5A67011F06AFB044668B940F6AA438F
:102D40001D4A1E491E4812F017FF84F31188BFF375
:102D50006F8F0323184602DFD5F8400120B1FEF73C
:102D6000C7FF0023C5F84031204613F005F9C5F828
:102D700040012046FFF7F2FA98B1124811F078FBB3
:102D80002046FEF715FF0C220F4B1F2102FB0030DF
:102D900022464088FFF720FA2046FEF7A9FFFFF7FA
:102DA000F7FAFFF7F5FABDE8384011F0BFBF00F0C1
:102DB00041FFF8E700000020EBA70100E4A80100B4
:102DC0004DA8010030010020FC0E002038B5042180
:102DD00004460C3013F03DF94578017822464088CE
:102DE000FFF7FAF935B1044811F042FBBDE838406D
:102DF000FFF7CEBA38BD00BF3001002070B54FF0EC
:102E0000FF320D464FF0FF3300210646FFF758F81A
:102E1000044660B91A230A4A0A490B4812F0ACFE6C
:102E200084F31188BFF36F8F0323184602DF02215A
:102E300004F10C0013F0DDF806704570204670BDFB
:102E4000E8A80100E4A801004DA80100F8B5064675
:102E50000024094DEF79E3B29F4202D86FF00100E0
:102E600007E02946304613F0A9FC0735631C08B17A
:102E70002046F8BD1C46EEE70000002070B5144E59
:102E800006223146044615F0E8FEE0B14FF0FF306F
:102E90004FF0FF31FFF73AFA0546A8B10622214666
:102EA0000C3013F0ACF80022294642F20500FFF77F
:102EB000BFFA40B93346226843F86929A288B28034
:102EC000012283F8682070BD6FF06800FBE700BF47
:102ED0006900002073B504460D4689B1284617499C
:102EE00013F06CFC60B9164A2968C4EBC404115194
:102EF000A318AA889A80AA799A71002002B070BD9E
:102F00006E46304613F00AF90028F7D13046FFF735
:102F10009DFF0028F5DA0A4A0098C4EBC40410515A
:102F2000B179B088A31898809971002DE5D0125915
:102F30002A609A88AA809B79AB71DEE7B7A9010065
:102F40000000002070B5044611B16FF0150070BD8F
:102F5000F0B1224913F032FCD0B92046FFF776FFDA
:102F6000002835DA237863B91D4AD37983BB2068FA
:102F70001060A179A088917101219080D1711846CB
:102F8000E5E7012BE1D1A37903F0C003C02BDCD12D
:102F9000134DEB79012B1ED005F1D403D3E8AF3FDD
:102FA000DB0707D4002CD0D020460C4913F006FCD8
:102FB0000028CAD1EE792146731C3046EB71FFF729
:102FC00089FF08B93046C2E7EB79013BEB71BEE7F8
:102FD0006FF07700BBE76FF00B00B8E7B7A901000F
:102FE000000000202DE9F3410446D8B1002141F250
:102FF000090001AAFFF71CFA054698B9019E0622AE
:10300000D6F80C80104908F10107384615F025FE66
:1030100028B1062238460D4915F01FFE30B930465A
:10302000FEF766FE002002B0BDE8F081D8F801305E
:103030003046C4F80130BB882570A4F80530FEF78F
:1030400057FE0120EFE700BFC4A90100BEA901009F
:1030500007B56846FFF7C6FF044BD87118B169463B
:103060000020FFF737FF03B05DF804FB00000020ED
:10307000F0B5294D89B0EE79002E46D195F8C230D1
:10308000DB0722D56A4631464FF60940FFF7D0F9F3
:10309000D8B9DDF800C0DCF80C406378012B1E467F
:1030A00028BF012673B1A31C02AA12341746186860
:1030B0005968083303C7A3423A46F7D11868386005
:1030C0009B88BB806046FEF713FEEE710024162637
:1030D0000127EB79E0B2984202D3B3B1002012E0AD
:1030E00008AB06FB003353F8182C33F8143C694640
:1030F000CDF80120ADF805308DF80070FFF7EAFE3D
:1031000001340028E5D009B0F0BD0021084609B01F
:10311000BDE8F040FFF716BF0000002038B50C46B0
:1031200061B108480578012D05D10130FFF7A6FEF1
:1031300000B9257038BD00200870FBE76FF015005E
:10314000F8E700BF0000002010B50A4CE3790BB18E
:10315000002010BDFFF77CFF0028FAD1E379002B97
:10316000F6D1FFF785FF0028F3D1601CBDE81040C1
:10317000FFF784BE0000002070B505460E464FF0F4
:10318000FF304FF0FF3186B0FFF7C0F80446A0B122
:1031900002210C3012F02DFF094A4670057003A978
:1031A000204605230095FFF79FF80022214642F2B2
:1031B0000C00FFF73DF906B070BD6FF06800FAE74C
:1031C000D400002008B50C4B0246400903EB8000F8
:1031D00013F026FB02F01F0340FA03F313F0010083
:1031E00006D122B9054813F01BFB40F3C01008BDFF
:1031F0006FF07700FBE700BF180F0020D40000201D
:10320000084A430902EB8302012300F01F008340B8
:10321000DB43D2E8EF0F1840C2E8E10F0029F8D1F4
:10322000704700BF180F002030B587B00022002380
:103230005D4811F029F80446002840F092805B4870
:1032400013F0EEFA10F00103584D46D02B1D93E811
:10325000070006AB03E90700554813F0E1FAC0F395
:103260004013524813F0DCFA044600286CD07BB1BE
:103270000C2250490DEB020015F0EFFC044600282B
:103280006CD000210846FFF777FF0446002865D17F
:103290000023ADF80930BDF80E309DF80C00ADF8F4
:1032A0000530BDF810308DF80400ADF80730431E2E
:1032B00058420DF10901584113F0A5FA04460028BF
:1032C0004CD14FF0FF304FF0FF31FFF71FF80546AC
:1032D000002849D16FF0680440E0354813F0A0FAA7
:1032E00010F0800F344A0ED04FF480749089D18949
:1032F0001269ADF80C40ADF80E00ADF81010ADF845
:1033000012300592A8E72D4C03AB2068616803C317
:10331000A068186092F8D930180748BF05232348E1
:1033200048BF8DF80D3013F07BFA810706D53023A6
:10333000ADF810306023ADF80E308DE71B4813F068
:103340006FFA4207F3D487E743B10146FFF714FF52
:10335000044618B9174B2861C3E90100124811F05F
:1033600005F8204607B030BD072201A90C3012F045
:1033700046FE2246294642F20B00FFF759F8044662
:103380000028EBD19DF80D10012001F00101FFF79D
:10339000F3FE04460028E1D1064B06AA12E9070015
:1033A00083E80700DAE700BF340F0020180F002081
:1033B000D4000020280F002000000020E897010022
:1033C0004422002110B5084815F03FFC064B03F1DC
:1033D0001C001C4615F0BFF804F1300015F0BBF8D6
:1033E0000022024B1A6010BD180F0020640F00204D
:1033F000032838B5054603D1BDE83840FFF714BFB0
:10340000FFF7E0FE0446A8B90B4B6A0903EB820301
:10341000012205F01F018A40D3E8EF0F1043C3E8F3
:10342000E10F0029F8D1FFF7FFFE044610B128464E
:10343000FFF7E6FE204638BD180F00202DE9F04FBB
:1034400000F10C088BB00446404612F00AFE064616
:103450007D4813F0E5F900F001037B48039313F076
:10346000DFF9C0F38003029316B90BB0BDE8F08F0B
:10347000039B13B9029B002BF7D0238A082BF4D9A6
:103480000921404612F0E5FD037A228A01339A426F
:103490000546EAD30123ADF824307F238DF81E3092
:1034A000037A471C03445B7A8DF81D30FF238DF8A7
:1034B0001C300023ADF822300278042A98BF634BF9
:1034C0008DF81F2098BF9B5CADF82030037A5E48D2
:1034D000019313F0A5F900F001095B4813F0A0F97E
:1034E0008246B9F1000F0BD0BDF820305A0707D53E
:1034F000297A40460131013E12F0A3FDF6B2B3E74E
:10350000384612F024FE0DF1100B00284FD039463A
:10351000584612F011FEB9F1000F02D11AF0040F53
:1035200059D14B4BD3F800A0BAF1000F14D0E26888
:103530006369B4F810B0A2EB0309019B9DF81F204A
:1035400023829DF91D10434604A8D0476369A4F85F
:1035500010B013FA89F3E36004AB06933D4B1B688C
:10356000002B36D053F80899B9F1000F01D0A9F11A
:1035700008091A688AB1E1686269B4F810B0A1EB71
:10358000020A019A414622821B6806A8984763698D
:10359000A4F810B013FA8AF3E360B9F1000F18D061
:1035A000D9F8082002B1083A4B469146E1E76B781A
:1035B000FF2B09D1284B186804909A889B79ABF8A7
:1035C00004208BF80630A6E7394613F0FFF80346CF
:1035D000F1E7002306931C48BDF8203013F020F9D2
:1035E00010F0010984D1DB0782D50322484604A9E3
:1035F00000F078FD824600283FF47AAF022013F0F5
:1036000012F9D5F801305046CAF87E30BB88AAF8C6
:103610008230BB798AF8843012F0AAFF60B11F2390
:10362000494650468AF8093000F0F2F9504600F059
:103630009DF9FFF7F9FD5BE75046022100F0E8F93C
:10364000504600F093F953E7180F0020FAA9010043
:10365000640F00205C0F0020B7A90100F8B50546F3
:10366000224813F0DDF843070F463CD52A78012A9B
:1036700003D96FF015042046F8BD6B780F2BF8D8EE
:1036800043F6FC746888031F9BB2A342F1D8A98853
:103690000B1F9BB2A342ECD88842EAD37AB900222E
:1036A0000023134810F0F0FD04460028E3D1FFF793
:1036B00089FD044640B10E4810F058FEDBE713F0D8
:1036C000A0F80028EBD1D4E728686968094E0A4BB6
:1036D00003C6A8681F6030602046FFF789FE0446D5
:1036E00006F12400E8E76FF00A04C4E7D4000020E4
:1036F000480F00201C0F0020640F00200020024B08
:10370000186013F090B800BF640F002008B503489C
:1037100013F086F800F0010008BD00BF180F00206C
:1037200070B505460B4B1C6844B154F81C3C1C3C5E
:1037300013B12846697A9847E469F5E7064C074EC5
:10374000B44200D370BD236813B12846697A984704
:103750002034F5E79C0F00207C9701009C97010026
:1037600010B50446FEF724FA044901EB0011204687
:1037700012F02EFDBDE81040FEF70ABE680F0020D3
:10378000002270B50446D1E901560748C1E901227B
:1037900014F096FF3DB1314620462B46BDE87040FF
:1037A0006FF06D02184770BDA005002013B5837A35
:1037B0000446072B22D10430D0E8EF3F43F4806267
:1037C000C0E8E12F0029F7D1590517D413F045F8C7
:1037D000C2030DD5E17889B9094B93F8D930DB07DD
:1037E0000CD5022320461A46009112F02AFF05E06C
:1037F000204612F00BFFA37A072BEBD002B010BDCE
:103800000000002070B50546002200230E4810F08D
:1038100063FEB8B90D4B1C6834B154F8143C1C3C21
:1038200003B19847E469F7E7094C0A4EB44204D360
:103830002846BDE8704010F0C9BFA36803B198479F
:103840002034F3E770BD00BF900500209C0F0020DE
:103850007C9701009C9701002DE9F0410446202748
:103860000025EFF3118287F31288BFF36F8FE169B0
:1038700029B1206A0B688142E36108BF236282F3A9
:103880001188BFF36F8F71B1D1E901680748C1E9B1
:10389000015514F015FF1EB1002241462046B047E5
:1038A000FEF776FDDDE7BDE8F08100BFA005002052
:1038B0000448B0F8143100F58C70002B08BF0020CC
:1038C000704700BF0000002030B50446FDF70AFF36
:1038D0000D460D4A0D4989B00858D2F8801088422B
:1038E00005D1204609B0BDE83040FFF7B5BF24340C
:1038F0002146104614F0B0FF1DB16946204614F071
:10390000BBFF09B030BD00BF880D002008000000DB
:1039100038B5002204468A4202D10024204638BD30
:10392000012004F1C403D3E8EF5F002D04D1C3E804
:10393000EC0FBCF1000FF6D102D0C8340244EAE724
:10394000002CEAD0C4220021204615F07EF904F1B3
:103950004000044914F0B1FF034904F1240014F0BD
:1039600050FFDBE7654300006168010008B500F126
:10397000C403D3E8EF2F013AC3E8E12F0029F8D1BF
:10398000AAB90B4B984212D303F1C80290420ED24F
:10399000C01AC823B0FBF3F203FB120038B9054884
:1039A00010F066FDBDE80840034810F00FBF08BDE9
:1039B000F0070020900500204403002010B50446C5
:1039C00012F0C5FF11F09EF9104A04F1B803D2F8C5
:1039D000281161B9C4F8B810D2F82C1159B9C2E94C
:1039E0004A3311F0A3F9BDE81040FEF7D1BC8B4279
:1039F00005D00968EDE70B60C2F82C31F1E711F052
:103A000095F92046FFF7B2FFEDE700BF0000002068
:103A100070B5857A04468D4223D0817255B1022D4E
:103A20000BD0A37A072B1CD8DFE803F01C0E541B25
:103A30001B1B1B1812F08BFFF3E78378012BF0D1CF
:103A4000403014F048FFECE73A4D05F58C7661699B
:103A500000295CD1BDE87040FEF79ABC0023C4E9A0
:103A60000D3370BD082DFCD801A353F825F000BF1D
:103A7000633A0000953A0000C13A0000BB3A0000EA
:103A8000CB3A0000CB3A0000C13A0000633A000094
:103A9000633A000004F14005284614F01CFF20465C
:103AA0000121FFF711FF204612F0F8FE2846BDE87D
:103AB00070400022002310F02DBF022012F0B3FE50
:103AC000637A13B12046FFF72BFE2046BDE8704015
:103AD000FFF74CBFA378012BC3D1164B9D8A002D55
:103AE000BFD00A2347F6122640F2E73000215D439B
:103AF0004FF47A720023E5FB0601FCF7C1FC024695
:103B00000B4604F14000BDE8704010F0CFBEA26942
:103B10000B68914208BFA36120466361FFF730FE46
:103B2000B5F81431002B14BF3046002010F0A0FC73
:103B30008DE700BF00000020F8B5074609480D4694
:103B4000164612F004FF044650B183781F4203D199
:103B5000BDE8F840FFF70ABF3146A8472046F7E71F
:103B6000F8BD00BFF0070020002201200149FFF747
:103B7000E3BF00BFAD37000038B505460B480C4623
:103B800012F0E5FE034670B1827A012A02D0073AAC
:103B9000012A06D81A88AA4202D19A78144203D17F
:103BA0001846FFF7E3FE0023184638BDF007002053
:103BB000034BC01A034BC0105843C0B2704700BF3C
:103BC000F0070020295C8FC270B51C4614430546DF
:103BD0000E4608D0FDF786FD0B4908580B49D1F871
:103BE0008010884201D1002213460949002D14BFDC
:103BF0002846084612F091F9044618B1711D0C30A0
:103C000012F0ECF9204670BD08000000880D00207D
:103C1000B005002010B50446054810F0D7FD204639
:103C200000F0D6FC2046BDE81040FFF779BD00BF8C
:103C30003403002000232DE9F04F87B00393059350
:103C4000A74B5A8A32B1A74DD5F8284134B907B0ED
:103C5000BDE8F08F1B68002BF5D1F8E754F8B839B0
:103C600003B1B83B0026A04901E01C461346B5F855
:103C70001421002A00F03281D5F820214AB904F13C
:103C8000B806002BE3D0D3F8B820002AEDD0B83A1C
:103C9000EBE70A68002AF2D0D4F8A420002AEED07C
:103CA000D4F8A820002AEAD0D4F8AC20002AE6D024
:103CB000A37A072B66D120469047002862D004F1F2
:103CC000BC0012F0CAFD02285CDC204612F03FFE68
:103CD00004460028BBD0A37A072B40F0F68020468C
:103CE000D4F8A430B5F8141104AA98470746002860
:103CF00000F0CB80B5F81421049B9A4206D301460C
:103D0000D4F8A860204605AB03AAB047059BDDF8B0
:103D10000C9001933B8A002B00F0DA803846DDF8E6
:103D200010A012F06BFA8046002840F0D480B5F85D
:103D30001431DFF8B8B1002B14BF58460020002220
:103D4000002310F0C9FB78B900220023664810F068
:103D50005DFB064600283BD1B5F81431002B18BF97
:103D60005E46304610F084FB6FF00B053846FDF7D9
:103D7000BFFFB9F1000F00F084802A462046019968
:103D8000C8477EE0D4F8B83004F1B802C6B9D5F817
:103D90002C11C5F828318A4201D1C5F82C310023F5
:103DA0002046C4F8B830D4F8AC309847002892D0F8
:103DB000A37A072B40F089802046FFF7FFFD8AE7B2
:103DC0003360D5F82C319A4208BFC5F82C61E6E77C
:103DD000019BC0F804908360B5F814B10022DA4565
:103DE0004FF000034FF000013D4898BF1FFA8AFBD7
:103DF000FDF700FF814650B1FDF7DAFE3C4B5A4615
:103E000003EB00133946484612F0BDF98146B5F878
:103E1000143194F8C0709A458CBF4FF001080237F6
:103E200084F8C08098BFFFB204F1BC08D8E8EF3F27
:103E30000133C8E8E23F002AF8D100233360A369C8
:103E40003BBBC4E90566A378012B25D0D8E8EF3F3A
:103E5000013BC8E8E23F002AF8D1314604F11400E2
:103E600012F001FD4846FDF743FF20463146FFF7BB
:103E700087FCB5F814311D48002B08BF002010F056
:103E8000F7FA1321204612F079FD2046FFF76EFD68
:103E9000DDE61E60A661D6E709F10C0A0421504652
:103EA00012F0BEF8238807F0FD0743EA07330380CA
:103EB000B9F810300221043B4380504612F0B8F8A4
:103EC0004846FEF74BFA0028C0D1FEF761FADCE75E
:103ED0006FF079054AE76FF0040547E79368FFDE66
:103EE0001C06002000000020A00500201801002072
:103EF000680F002040F2E2432DE9F041D0F88860DD
:103F00000446B6FBF3F6031D184612F0A6FC820425
:103F1000B6B213D5B4F88C20B2420FD8B4F88E20C4
:103F2000B2420BD3D4E92412914207D1D3E8EF1F58
:103F300021F40051C3E8E21F002AF7D1104B1D689D
:103F400065B155F80C7C1C3D37B131462046B4F8BC
:103F50009230B4F89020B847ED69F1E7094DDFF8E9
:103F60002880454501D3BDE8F0812F6937B131463E
:103F70002046B4F89230B4F89020B8472035F0E7E6
:103F80009C0F00207C9701009C9701002DE9F041D7
:103F9000074608460D4612F0C7FA064618B900262D
:103FA0003046BDE8F081144B1C6884B154F8103CD5
:103FB0001C3C0BB9E469F8E72946384698470028C5
:103FC000EDD0284612F0B0FA0028F3D1E7E70B4C09
:103FD000DFF82C804445E3D2E3680BB92034F9E7DD
:103FE0002946384698470028D9D0284612F09CFA2E
:103FF0000028F3D1D3E700BF9C0F00207C9701007D
:104000009C97010038B505460C460E480121FFF784
:104010007FFCB0B1057223680367A388A0F87430F1
:10402000A37980F8763001238370074BC0F8A43061
:10403000064BC0F8A830064BC0F8AC30054BC0F8B2
:104040008C3038BDF0070020FD44000045680100B9
:10405000396801001800280070B505460A480E4668
:1040600012F075FC044620B18378012B04D0FFF7D1
:104070007DFC0024204670BD3246294612F0D7FC54
:104080000028F7D12046F2E7F007002038B50446B3
:10409000134812F0E2FB420702D46FF00A0038BD69
:1040A000084612F041FA10B96FF01500F7E7FFF774
:1040B0002DFB0028F1D10A4812F0CFFB0306C0F314
:1040C000C0150AD412F09DFB0028EDD021462846E9
:1040D00012F0CDFC0028E2D0E6E76FF07700DEE7D3
:1040E000D4000020F8B505460E480E46174612F0DB
:1040F0002EFC044620B18378012B03D0FFF736FC59
:1041000000240DE036B13246294612F090FC08B981
:104110002046F3E7A37ABB42FAD1237AAB42F7D128
:104120002046F8BDF007002010B583780B70C378E7
:104130004B70037A8B70837A023BDBB2062B8EBF07
:104140000023254AD35C81F82030012381F82130F7
:1041500000234B848378012B3AD100F170038B60EC
:10416000037A1E4AC3EBC30313444B60C27800F1C9
:10417000770300F17E0412BB1A462346C1E90323EC
:1041800040F2E242D0F888304B61B3FBF2F30B838C
:10419000B0F890304B83B0F892308B83D0F8A030D9
:1041A0002BB15B7CDA0644BF012381F82330D0F8C1
:1041B000A03013B15B7C9B0603D4002010BD2246C7
:1041C000DCE791F8233043F0020381F82330F4E771
:1041D0006FF01500F2E700BFFFA90100000000200A
:1041E000F8B505460E460C4B1C6844B154F8083C23
:1041F0001C3C13B1314628469847E469F5E7074C63
:10420000074FBC4200D3F8BD636913B1314628465D
:1042100098472034F5E700BF9C0F00207C970100F1
:104220009C970100F8B505460E460C4B1C6844B13E
:1042300054F8043C1C3C13B1314628469847E469C5
:10424000F5E7074C074FBC4200D3F8BDA36913B193
:104250003146284698472034F5E700BF9C0F0020E0
:104260007C9701009C9701002DE9F04180460E46A5
:1042700015461F46002B38D01146FFF707FF0446AE
:1042800070BB2946404612F0A8FB054680B396E86D
:104290000F00194C04F1080C8CE80F00A38A002BC6
:1042A00008BF4FF49673A382238A03B9A38923829C
:1042B000638A03B9E389022128466382FFF7A8FBDA
:1042C000284612F055F9044668B100212846697263
:1042D000FFF79EFB2846FFF749FB0320FFF788F80E
:1042E0002046BDE8F0813D60FAE76FF01504F7E77E
:1042F0006FF00B04F4E700BF0000002038B504465F
:1043000008460D4612F010F938B3154B93F8D83023
:10431000990707D4E37873B129462046BDE83840B1
:1043200000F0A4B994F898309A07F3D5201D12F044
:1043300094FA4304EED42946204612F0A0FB58B963
:104340002B88A4F88C306B88A4F88E30AB88A4F846
:104350009430EB88A4F8963038BD6FF01500FBE779
:1043600000000020F7B510F8363C0446A0F14006E6
:104370000BBB304612F0D6FB2C4B1D684DB155F8E7
:10438000183C1C3D1BB1304614F8371C9847ED69AA
:10439000F4E7274D274FBD4205D3304603B0BDE8B3
:1043A000F040FFF7E3BA6B681BB1304614F8371CD6
:1043B00098472035EFE710F83E3C012B34D110F838
:1043C0003D3C63B9FEF718F969302DD140F239123E
:1043D0000023204603B0BDE8F04010F09BBAA0F1E6
:1043E0003C05D5E8EF3F23F40052C5E8E12F002952
:1043F000F7D19B0410D5E36C69460093636D30469A
:104400000193FFF77BFF38B9D5E8EF3F23F48053E2
:10441000C5E8E23F002AF7D1D5E8EF3F43F4006357
:10442000C5E8E23F002AF7D103B0F0BD9C0F0020A1
:104430007C9701009C97010038B5174814F012F9D9
:104440001649154814F03CF91549134814F038F989
:104450001449114814F034F913F009F901F026FC5D
:104460000446B8B913F0A9FB044698B912F0ABFCA6
:104470000D4812F06CFA054660B1043012F0EDF907
:10448000C30704D5032128462C72FFF7C1FA28463A
:10449000FFF76CFA204638BDA0050020780F0020F9
:1044A000840F0020900F0020F0070020044B1868B4
:1044B00018B9044A5A600B6070476FF00B007047E0
:1044C000A40F0020DC99010070B5044652EA0300F5
:1044D00008D0FDF707F9074D074ED5F88050305842
:1044E000854201D1002213462046BDE870400431C8
:1044F000FFF76ABB880D0020080000002DE9F04797
:104500000F469046D0F8B04044B1403C236B5BB9B5
:104510002068B03012F0FCFA246CF5E7FDF738FFA4
:1045200000263046BDE8F08704F13009484614F013
:10453000DCF805460028F1D011F060FE0028EFD12C
:10454000284611F019FD656C06469DB9A38C058AB5
:10455000403B9BB23F2B03D8238D9D4228BF1D4675
:10456000042106F10C0011F05BFD0580A38C0435DD
:1045700043806564BD421FD8B6F810A0554506D1EA
:104580000022002348460FF041FFFDF7B1FBA38C4A
:10459000A3F140023F2A06D855451ABF0022134610
:1045A0000A4AF361B2612068B03012F0B1FA236BAD
:1045B00013B1204612F08DFA636C9F422CBF002786
:1045C000DF1BC8F800306764ABE700BF596C01001F
:1045D000F7B504460026234D234FBD4201D303B057
:1045E000F0BD2988204612F02EFB6B68019001A9CE
:1045F00020469847002830DB019B2A889A829A84BB
:1046000003F11002D2E8EF1FC2E8E06F0028F9D1F1
:104610001E645E649E60A16B03F10802F9B9C4E9EF
:104620000D221C60DE6003F1300014F01BF80198CD
:1046300043681B6803B19847019B1033D3E8EF1F11
:1046400041F00101C3E8E21F002AF7D10198436855
:10465000DB6913B100F1100198470835BDE70A6026
:10466000A263DEE7649701007C97010070B5134AEE
:104670000C4613780646013313F0FF010ABF0123ED
:104680000B46194613701220082212F0A8FA0546AC
:1046900088B108210C3011F0ACFC22882946028038
:1046A00062884280A2888280E288C2803046BDE86B
:1046B000704012F0DEBA6FF00B0070BDF0210020E8
:1046C00023281FD81A2804D8431E182B0ED90620D9
:1046D0007047A0F11B03082B1ED8DFE803F0051D6F
:1046E0001B231D19251D05000320704701230F4AB8
:1046F00083401A40C2B90E4A1A40002A0CBF062055
:104700000120704700F07F03522B05D10020704735
:10471000012070470520704710F0400F14BF0020A3
:10472000062070470420704702207047AAAA8A0218
:10473000545545012DE9F74F054608468946FDF7D2
:1047400037FA18234343264F0446FA189168D9F8DC
:104750000C60019105F14C00D0E8AF0FC1073BD5CB
:10476000D9F80C00007810710022FA503378D22B5F
:104770000ED12B684946186813F01CFA40B101901D
:104780004846FDF7B5FA019B184603B0BDE8F08F27
:1047900018235C43002349461A4607EB0408281DEA
:1047A000D9F80C60D9F814B0B9F810A0C8F80850BE
:1047B00012F02BFA03460028E6D0D9F81420A6EB15
:1047C0000B0612FA86F6019AC9F80C60A9F810A037
:1047D000C8F808203851D7E76FF01503D4E700BFB9
:1047E000F40F002070B50E46438D418B01328B4291
:1047F00028BF0B469A42054631D83046FFF760FF86
:104800006FF01403034113F0010310D0FCF76AFFAB
:10481000144B1958144BD3F8803099421DD0134BC8
:104820001B685A1A18BF4FF0FF32134600E0104AB7
:1048300000211048FFF748FE044660B1FDF7B8F9C3
:1048400018220D4B012102FB003304F10C009D6086
:1048500011F0CFFB0670204670BD0022E5E7002472
:10486000F9E700BF08000000880D00203C10002080
:104870001C4E0E00D4050020F40F0020011F01483B
:1048800013F01FBE58050020F8B50F4A0746002355
:104890000E480E4611F041FB044690B100F10C05A4
:1048A0000921284611F09AFB2046FDF781F91822CC
:1048B000074B012102FB003328469F6011F099FB52
:1048C00006702046F8BD00BF1C4E0E00D405002027
:1048D000F40F002008B5EFF31181202383F3128831
:1048E000BFF36F8F002303600C4B5A689AB9C3E97A
:1048F000000081F31188BFF36F8F09480FF066FF46
:10490000002807DA002383F31188BFF36F8F032396
:10491000184602DF08BD10605860EAE7EC0F00207F
:104920007C0300207FB5CB6804461D888DB15E886E
:1049300076B1AE420DD310220021684614F085F9FD
:1049400005212046FFF7A0FF019058B9112007E08C
:10495000354601232A460421204612F0C5FB0020DB
:1049600004B070BD6B4631462846084A009412F0E8
:10497000D8FBDDE9011323B90846FDF7B9F90A238D
:10498000E8E7204612F0DAFAE9E700BF596F0100C4
:1049900010B5044600F14803D3E8EF1F41F00101D0
:1049A000C3E8E21F002AF7D1201F12F031FB04F107
:1049B0006400044913F081FF2068BDE8104001F055
:1049C0003BB900BF73760100F0B51D46036804468D
:1049D0000E4685B001211868174613F0ABF838B9B8
:1049E00004F14C0012F0C1FB50BB122005B0F0BD29
:1049F00065B310220021684614F027F93946204695
:104A0000FFF742FF029018B3BDF828302946ADF8F1
:104A10000430012328468DF80C300E4A6B46009472
:104A200012F07FFB9DF80C3002995BB10846FDF750
:104A30005FF92A46314620469DF80C3012F054FBAF
:104A40000020D3E7204612F079FAF9E70120CDE7FC
:104A50001120CBE7FF7401002DE9FF4103680446F4
:104A60000D461868012113F065F840B904F14C00B7
:104A700012F07BFBA0BB122004B0BDE8F081102235
:104A80000021684614F0E1F80F212046FFF7FCFEF4
:104A9000029038B34FF00108009405F10C072B8AFF
:104AA000012B04D82046029912F048FA18E0384643
:104AB00011F0DFFA6B4601460B4A06468DF80C8072
:104AC00012F02FFB9DF80C30002BE8D00298FDF778
:104AD0000FF932460E2120469DF80C3012F004FBEF
:104AE0000020C9E71120C7E7FF7401002DE9FF414D
:104AF000036804460D461868012113F01BF840B9FD
:104B000004F14C0012F031FBA0BB122004B0BDE850
:104B1000F08110220021684614F097F821212046E8
:104B2000FFF7B2FE029038B34FF00108009405F190
:104B30000C072B8A012B04D82046029912F0FEF9AB
:104B400018E0384611F095FA6B4601460B4A0646C6
:104B50008DF80C8012F0E5FA9DF80C30002BE8D0AF
:104B60000298FDF7C5F83246202120469DF80C300A
:104B700012F0BAFA0020C9E71120C7E77B740100E0
:104B80002DE9F0430F460446062187B007F10C00DB
:104B900011F05FFA0588EDB1B0F80280B8F1000FAE
:104BA00017D0A84516D3002382888DF800308DF8E1
:104BB00004304FF42053684601A9D7F80C90ADF8A3
:104BC0000220ADF8063011F05CFA064660B10A2307
:104BD00001E0454601232A460621204612F084FAC8
:104BE000002007B0BDE8F0830146142201A83F7CF5
:104BF00014F02BF807212046FFF746FE0290D8B1AB
:104C00000A2341468DF81530284601AB0B4ACDE901
:104C1000036901948DF8147012F083FA9DF8153031
:104C200002992BB10846FDF763F89DF81530D2E7DD
:104C3000204612F083F9D3E71120D2E72F7201004A
:104C40002DE9F0410E8A0446043EF6B2022E0846D3
:104C50008CB001D0102E76D104210C3011F0F9F96E
:104C60000DF1040805884788011D3246404611F0C1
:104C700035FA002869D085B377B3BD422DD801211C
:104C8000606812F057FF064678BB42F602038DF8C3
:104C9000000069464046ADF8023011F0F2F920B349
:104CA00042F60303404606A98DF81860ADF81A30A5
:104CB00011F0E7F9C8B1012D03D14FF6FF739F4200
:104CC00013D004F14C0012F050FA002814BF002059
:104CD00012200CB0BDE8F0813D4601232A46082190
:104CE000204612F001FA0020F3E7182200210DEB14
:104CF000020013F0AAFF09212046FFF7C5FD089026
:104D0000F8B101210C30CDE9064811F072F9002309
:104D1000099003700A2339468DF82C30284606ABDB
:104D20000B4A12F0FEF99DF82C3008992BB1084679
:104D3000FCF7DEFF9DF82C30D0E7204612F0FEF89D
:104D4000D1E71120C5E70420C3E70E20C1E700BF6B
:104D5000515000002DE9F0410E8A0446043EF6B29F
:104D6000022E08468CB001D0102E64D104210C30E4
:104D700011F06FF90DF1080805884788011D3246CA
:104D8000404611F0ABF9002857D0A5B300268FB3E9
:104D9000BD4230D84FF42053404601A98DF804603D
:104DA000ADF8063011F06DF948BB1422002107A8B8
:104DB00013F04BFF11212046FFF766FD09900028F4
:104DC00037D001210C30CDE9074811F012F900234A
:104DD0000A90394603701A4A0B93284607AB12F023
:104DE000A0F9DDE909131B78FBB90846FCF780FF41
:104DF0000A2301E03D4601232A4610210EE042F637
:104E00000103404607A98DF81C60ADF81E3011F073
:104E100038F90028C9D010232A461946204612F036
:104E200063F900200CB0BDE8F081204612F086F84E
:104E3000F7E71120F6E70420F4E70E20F2E700BFC1
:104E4000994F0000F0B51D4603680E460039044630
:104E500018BF012187B01868174612F06BFE40B9E1
:104E600004F14C0012F081F9002844D0002007B072
:104E7000F0BD002D41D018220021684613F0E5FE58
:104E800047BB236829461B68284600930023ADF8DA
:104E900012300C9B1A4A0393BDF834308DF8086029
:104EA000ADF8103001238DF814306B4612F039F94B
:104EB0009DF81430C3B1002FD8D00198FCF718FF2B
:104EC000002ED3D02A46122120469DF8143012F02D
:104ED0000BF9CBE7002213212046FFF783FC01905A
:104EE0000028CED11120C2E701990029BED020466A
:104EF00012F024F8BAE71220B9E70120B7E700BFA3
:104F0000CB6E01002DE9F0410B8A04460D46002BC3
:104F10003AD00668012105F10C0011F09AF8B37A35
:104F20000746072B30D154F8043C6BB300230178BB
:104F3000184E043C16F833004FEAC308884206EBCB
:104F4000C30211D1298A5378994220D35368294644
:104F50002046984703464644B278012A14D19BB1B3
:104F6000397889B100220CE001330C2BE2D10846DC
:104F7000FFF7A6FB2122C24012F0010204D119B1B1
:104F80000623204612F0B0F80020BDE8F08104238B
:104F9000E1E700BF049A01002DE9FF414FF000084E
:104FA0004FF4205305460E46006802A914461768C0
:104FB0008DF80880ADF80A3011F063F8A0B142F620
:104FC0000103286803A98DF80C80ADF80E3011F0AC
:104FD00058F848B123691BB15A88B24200D25E80AA
:104FE000012004B0BDE8F0816168286811F049F83B
:104FF00010B100232361F3E7E368A0681A786AB16F
:10500000B7F82AC0798B038A8C4594BFC3EB0C0395
:10501000C3EB0103934201DA0020E2E704210C30E4
:1050200010F0E7FF20610680236929465E80074B68
:105030000194009338460023A26812F095F90028E5
:10504000EADB2069003818BF0120CAE7C9700100F7
:105050002DE9F347176805468946006851681446EC
:10506000D7F804A011F00DF8804600284BD1952206
:105070002946504612F078FC0646207540B1E36898
:105080001B780BB184F81480002002B0BDE8F087D3
:105090002946504612F051FD10B908232375F3E755
:1050A000A068267510F06CFF02210C3010F0A1FFF3
:1050B000164B2061A0F800900093019433462946D6
:1050C0003846A26812F050F9002807DA10F1FF0FF5
:1050D00032BF0E204042C0B22075D5E72369002BB5
:1050E000D2D0A06811F07AFE7B8B7A8D9A4294BF61
:1050F000C0EB0200C0EB0300E3681B78984294BF4A
:1051000000200120C1E70120BFE700BFED6D0100D5
:10511000F7B5002304460E460022694628480FF0E2
:1051200085F80546D0B9FCF7DDFA264B29461A5812
:10513000254B00981A60242213F087FD009B002263
:105140001C60009C0023C4E90155C4E907551F48B1
:1051500001A901950FF06AF8054620B16FF00B0523
:10516000284603B0F0BD0146A022019813F06DFD62
:105170000198174B8360543013F074FA019B4C3341
:10518000D3E8EF2FC3E8E15F0029F9D1019B1C6050
:10519000E369019F1BB904F10C0013F063FAE269A3
:1051A00007F19803C7F89820226AE36102B92362E5
:1051B0001722019B5A855A8304333360D0E700BF1E
:1051C0003C050020080000003C100020580500208D
:1051D000540300202DE9F74F0646EFF311872023F3
:1051E00083F31288BFF36F8F404C204611F0ECFD23
:1051F00023680546009387F31188BFF36F8F00285B
:105200005ED0FCF7D5FC182202FB00F33849C81821
:1052100051F803B003690021D0E90247019390F8E7
:105220000480B0F806A013F010FDA87AFCF7B8FCD3
:105230006969814651B16A7AD00705D4D9F81C2032
:10524000284612689268904700226A6129464846BB
:1052500013F041FAB8F1000F22D00CB32368FBB170
:105260001B68EBB1BBF1000F1AD1201D12F077F9CA
:105270004046FFF725FA052812D8DFE800F024039E
:105280001124110304F14C03D3E8AF3FDA0707D52B
:10529000236D2BB10023174A04F168000FF03AFB8D
:1052A000009B6BB13146002013F0D6FA002807DAD4
:1052B000002383F31188BFF36F8F0323184602DFA7
:1052C00003B0BDE8F08F54F84C3B1D68D4E8AF3F05
:1052D000DB07E5D5002FE3D0002403E02846019941
:1052E000B8470134A3B25345F8D3D9E7EC0F0020F7
:1052F000F40F00201C4E0E0007B50B46002102469D
:10530000FCF7F0F901910E4909580E4800688842EF
:1053100004D00D48D0F88000884201D10022134605
:1053200001A90A480EF082FF014638B910220198FF
:1053300013F08BFC019803B05DF804FB0020FAE742
:10534000080000003C100020880D0020740500209B
:1053500010B50446806818B1FCF7CAFC0023A360AE
:105360002146BDE81040014813F0ABB87405002099
:105370002DE9F743044668300F4690461E4613F069
:10538000AAFA206D48B9201D00F028F813216068A2
:1053900003B0BDE8F04311F0F1BA0F4B98424FF063
:1053A000000317D045684360206DD0F80C90FFF7DC
:1053B000CFFF00232068236511F057FD3DB1206821
:1053C000CDF8009043463A4631460068A84703B0FE
:1053D000BDE8F0831D46ECE740100020F7B550F81B
:1053E000044C0546002C55D000F1940104F11C003A
:1053F00011F0A2FE2E1F05F15007002200233846AF
:105400000FF004F8024658BBEB6C2BB101466FF06D
:1054100067033046FFF7ACFF002345F8043C05F175
:105420004803D3E8EF1F21F00101C3E8E21F002A7F
:10543000F7D1E36973BB04F10C0600220023304668
:105440000EF0E4FF78B9666886B9214612482660F6
:1054500013F037F8286803B0BDE8F04000F01CBC3A
:10546000FCF746FCC9E7FCF743FCE6E7A2683368B3
:105470009642636008BFA36077683FB1F3686FF03E
:1054800067010093002320681A46B8473046FFF7AB
:105490005FFFD8E703B0F0BD3C050020F8B51D461E
:1054A0000F461646FCF784FB1823044C03FB004010
:1054B0000123C0E90376C3800575F8BDF40F002011
:1054C00010B5074C2378834208D10722601C13F0E3
:1054D000C4FB00280CBF2046002010BD0020FCE7C4
:1054E000DA2100202DE9F04180460F4616461D4680
:1054F000FFF7E6FF044670B91149FFF7E1FF0446E4
:1055000078B1034603F8018B3A68C0F80120BA88E5
:105510009A80BA799A7123892BB962892AB926812E
:105520006581BDE8F0819E4204D36289AA42F8D227
:105530009E42F5D263892681AB42F2D2F0E700BFEA
:10554000B7A901000948D0E8EF3F23F00203C0E803
:10555000E23F002AF7D1D0E8AF3FDB0704D50022B5
:10556000002330380FF0D6B9704700BF080900207B
:105570002DE9F041254B1646826807469A4202D132
:10558000C46863892BBB0120BDE8F08106F1700877
:105590004146307A10F0EAFF88B91D4B9C4202D197
:1055A000304612F010F91B4B1A68C4F801209A8893
:1055B0009B79AA80AB710023237023811EE0336F97
:1055C000C4F80130B8F80430AB8098F80630AB71FD
:1055D00014E0238993B1254615F8011B30462A466D
:1055E00011F025FA0028D1D129462078FEF734FDA4
:1055F00020B1857AFEF7BAF9072DC4D00021E368FF
:105600006181002BBFD038469847BCE74556000063
:1056100094030020B7A9010010B54B1C0C4630B113
:105620001A46097811F003FA40B1204610BD07224E
:105630001846034913F011FB0028F6D00020F5E7C7
:10564000B7A901002DE9F8431E46BDF82030814678
:105650000F46D1F80C80002B49D1731E012B49D87D
:10566000012E41460CBF15781588FFF7D5FF04467B
:10567000B8B915B93046BDE8F8834146FFF7CCFF0D
:105680000446002839D0D9F87030C0F80130B9F894
:105690007430A0F8053099F87630C37199F8083065
:1056A0000370D8F81030B3B92581B8F80A30AB428E
:1056B00003D04146384612F05AF8002DDAD1104B8B
:1056C00025701A682581C4F801209A889B79A4F86E
:1056D0000520E371CEE72A46394648469847002818
:1056E000C9DB01380128DFD96FF00D00C3E76FF087
:1056F0000600C0E76FF00C00BDE76FF01000BAE7DE
:10570000B7A9010010B4154AD2E8EF3F43F00101F8
:10571000C2E8E01F0028F7D1DB071DD4D2E8EF3F35
:1057200043F00201C2E8E01F0028F7D113F00203A2
:1057300007D10B480B4902880B4CA14206D303B199
:1057400002800A490A4810BC13F0B7B84B68083108
:105750001A4492B20123F0E710BC70476810002091
:10576000E62100209C970100AC9701003D5A000003
:10577000D808002003462DE9F04148B1008A38B925
:1057800001244FF0140C1149DFF844E0714501D3B6
:10579000BDE8F081D1E90076BB4204D30CFB067270
:1057A000143A93420ED93444A2B214460831EDE7BC
:1057B0000CFB0578434507D001356219AE4292B221
:1057C000F6D1F2E70025F8E71046E1E79C970100E3
:1057D000AC9701002DE9F74F99464FF6FF73BDF8DE
:1057E00030500746002D08BF1D46244B90461B88AD
:1057F000009183423CD203B0BDE8F08F736823442C
:10580000BB4232D29CB208361D4B9E42F6D3F2E721
:1058100040468958019310F034FC019B90B101344B
:105820000AF1010AA4B273685345ECD9009B9C426B
:10583000E1D8BC42F3D30BFB0AF231688B18B8F104
:10584000000FE5D1B9F1000F0BD1013D1846ADB203
:1058500021460E9A0D9B9847002DCCD00028DED112
:10586000C9E7DA689145DAD1EFE74FF0000ADAE7E5
:1058700001244FF0140B034EC6E700BFE6210020C1
:10588000AC9701009C970100002307B50193FFF737
:1058900071FF411C89B20846034A01AB12F059F866
:1058A000019803B05DF804FB337701002DE9F8435C
:1058B000894651680746B1F81280154618F09408D9
:1058C0003AD1022212F06EF8002838D000211D488B
:1058D000AE8AFFF711FD0236044660B11A4B32461C
:1058E0004360C5601D21384611F09CFE064628B96C
:1058F0002046FFF72DFD6FF00B051AE0012342460D
:105900004146FFF7CBFDA98A06F10C00023110F0E9
:1059100070FB20F8029BAA8A296913F089F92146B5
:105920003846A66011F0E8FE054610B12046FFF7A4
:105930000FFD2846BDE8F8834FF0FF35F9E76FF01B
:105940001505F6E71C4E0E003977010070B50446C8
:105950000D468AB0364BD3E8AF3F5A0761D510B138
:10596000837A072B60D16E6830460596FFF702FFF9
:105970002A68ADF8180032B305A902912D49002319
:105980000191012100914FF6FF710593FFF722FF6E
:10599000059E1EB96FF001000AB070BD6E60002355
:1059A00030688DF8103042F6030304A9ADF81230C8
:1059B00010F067FB70B90598C3689B799B0605D406
:1059C0006FF01500E8E70028E9D1E3E711F072FF76
:1059D000ADF81800BDF818003CB1012301462A4675
:1059E0002046AB75FFF762FFD6E76FF07F030793A2
:1059F0000223ADF8203042F60213ADF8123005ABA9
:105A0000AC7502930C4B4FF6FF710193012304AA6E
:105A10000093234609958DF81040FFF7DBFE0798A9
:105A2000BAE76FF00A00B7E76FF07F00B4E700BF96
:105A3000D4000020677701004D5B0000034613B5DA
:105A400050F8082CA0F12001019200F13004D4E8B4
:105A5000EF2F22F00102C4E8E02F0028F7D10F4A0F
:105A6000002043F81C2C0E4A23F8080C43F8182C8D
:105A700001AA43F8102C042223F8060C23F80C2C5E
:105A8000FFF764FF38B9D4E8EF3F43F00203C4E8FE
:105A9000E23F002AF7D102B010BD00BFA09A01007A
:105AA0004555000070B5234B8168044699423FD1AB
:105AB000C6683389002B3BD015683246284612F859
:105AC000011B10F0B4FF002832D04FF4957221462C
:105AD000284611F049FF03282AD03146204611F00C
:105AE00046FE154B9E4223D1287A05F17001FFF73F
:105AF000E7FC0446E0B103890BB94389C3B12846EA
:105B0000FEF756F822890D4B0D4923F820206289B3
:105B100003EB80035A80182202FB00110B6104235F
:105B2000084A28464A60084A8B828A60FFF70EFFBF
:105B3000012070BD4556000094030020D6210020AE
:105B400050100020A09A01009F770100F8B515467B
:105B5000354B826804469A4201D00120F8BDC768DF
:105B6000324B9F4246D03A89AB899A42F5D13946A9
:105B700011F8010BFEF770FA06460028EDD0837A83
:105B8000072B05D0FDF7F2FEE7E7FDF7EFFEEAE7AA
:105B90007B6923B12146984708B93046F2E7648A09
:105BA00014F09404F9D1AB89022B16D13C8914F07E
:105BB00002040AD030462A69A988FFF777FE044616
:105BC00018B92A69937D013393753046FDF7CEFEEF
:105BD000002CAC60C1DA0020C0E7012BF5D13C8974
:105BE00014F00104F1D030462A69A98811F06DFF44
:105BF0000446EAE70E4E072230460E4913F02DF810
:105C00000028B0D00722314616F8010CFEF76AFAD8
:105C10000028BAD12B6931461A6916F8010C53884D
:105C20001288FFF75FFC9EE74556000094030020B2
:105C3000DB210020B7A9010007B5009001206B46C9
:105C40004FF6FF71034A8DF8040011F082FE03B095
:105C50005DF804FBA55A00002DE9F0410D4B064606
:105C60001B680F46904623B153F8044904B1043C25
:105C70000BB9BDE8F0811B681BB14246394630467E
:105C800098472CB1656805B1043D23462C46EFE7E3
:105C90002546FAE76C10002003464FF6FF710120FD
:105CA000014A11F056BE00BF715500007FB54FF498
:105CB00020520023ADF8162004AA02920A4A0120BD
:105CC000CDE900324FF6FF7105AA04938DF8143028
:105CD000FFF780FD049B012B14BF6FF0150000201F
:105CE00007B05DF804FB00BF437B0100044B18685C
:105CF00018B9044A5A600B6070476FF00B00704788
:105D000074100020C89A010010B54FF0000E00F189
:105D1000070C541E2CF0030C1860A4B2ACF8002041
:105D2000023A93B201FB04F240F802E074B14FF67C
:105D3000FF7C03FB011403FB01F22044121B013B17
:105D40009BB263458050A0EB0100F8D110BD00BFAD
:105D50000346006810B102680AB91A607047C11D95
:105D600021F00301B1F800C0D11D21F003010CF1B5
:105D7000FF3CA1F800C0F0E70B687BB1073323F0CC
:105D800003031A88013292B20346D1F800C043F8E7
:105D900007CB23F003031A80086070470122F3E762
:105DA00002FB0100704700BF401A90FBF2F080B286
:105DB000704700BF531E11449BB242B1DB43013810
:105DC000CA1811F8013D914200F8013FF9D170471E
:105DD000014402E010F8013B1BB98842FAD10020CF
:105DE00070470120704700BF10600860704700BF17
:105DF0000A6803460068904209BF002200200A603A
:105E00001A607047D2F800C0CCF80000D2F800C089
:105E1000CCF8041010607047884203D01AB1436870
:105E200013607047002070470B68834209D02AB185
:105E3000586810601A680A6018467047002BF9D13C
:105E4000FAE70023F8E700BF2DE9F8434FF0900888
:105E50000C270D4EDFF8349006F1200409EB0805FD
:105E6000294620462A1D083CFFF7BEFFB442A5F193
:105E70000C05F5D1043F3B1DA8F13008A4F1200624
:105E8000EAD1BDE8F88300BF18110020641100209A
