:10000000687A0020952F0000ED080200812F000083
:10001000812F0000812F0000812F0000812F000020
:10002000000000000000000000000000CD2F0000D4
:10003000812F000000000000A1310000812F00008E
:100040002132000021320000213200002132000064
:100050002132000021320000213200002132000054
:100060002132000021320000213200002132000044
:100070002132000021320000213200002132000034
:1002600021320000213200003575010021320000EA
:100270002132000021320000213200002132000032
:100280002132000021320000213200002132000022
:100290002132000021320000213200002132000012
:1002A0002132000021320000213200002132000002
:1004800053B94AB9002908BF00281CBF4FF0FF31FB
:100490004FF0FF3000F00CB8ADF1080C6DE904CE60
:1004A00000F018F8DDF804E0DDE9022304B070473D
:1004B000704700BF034611F8012B03F8012B002AF7
:1004C000F9D17047034613F8012B002AFBD1181A03
:1004D000013870472DE9F0478C468E46089E154638
:1004E00004461946002B40F0D080724547D9B2FA35
:1004F00082F74FB1C7F120030EFA07FCBD40BC40A4
:1005000020FA03F343EA0C0C4FEA154EA8B2230C71
:10051000BCFBFEF80EFB18CC08FB00F943EA0C43C9
:10052000994528D9EB1808F1FF3204D2994502D930
:10053000A8F102022B44A3EB0903A4B2B3FBFEFC17
:100540000EFB1C330CFB00F044EA0344A04214D918
:100550002C190CF1FF3304D2A04202D9ACF10203F2
:100560002C44241A43EA02401EB1FC4000233460AC
:100570007360BDE8F0874246DDE76346F1E7002A95
:1005800079D0B2FA82F3002B3FD01946C1F1200393
:1005900002FA01F500FA01F42EFA03F20EFA01FE56
:1005A00020FA03F3AFB243EA0E034FEA154EB2FB53
:1005B000FEFC0EFB1C201A0C0CFB07F842EA004262
:1005C00090455AD9AA180CF1FF3004D2904502D9AF
:1005D000ACF102002A44A2EB08029BB2B2FBFEFC83
:1005E0000EFB1C220CFB07F743EA02439F4246D94D
:1005F000EB180CF1FF3204D29F4202D9ACF1020297
:100600002B44DB1B42EA004202E0AEEB0203012274
:100610004FEA154EAFB2200CB3FBFEFC0EFB1C33B1
:100620000CFB07F840EA034398452AD9EB180CF174
:10063000FF3004D2984502D9ACF102002B44A3EB61
:100640000803A4B2B3FBFEFC0EFB1C330CFB07F744
:1006500044EA0344A74216D92C190CF1FF3304D203
:10066000A74202D9ACF102032C44E41B43EA004048
:100670000F46114678E71F2188E76046ABE76246E0
:10068000BFE76046DBE76346EFE7734506D916B977
:10069000002108466DE7C6E9000EF9E7B3FA83F7D3
:1006A00087B9734501D3824207D8841A6EEB0303DE
:1006B00001209C461EB900215BE73846FAE7C6E9EF
:1006C000004CF8E7C7F1200CBB4000FA07F422FA0F
:1006D0000CF520FA0CF1BA401D432EFA0CF30EFA79
:1006E00007FE4FEA154941EA0E011FFA85FEB3FBEA
:1006F000F9F809FB18300B0C08FB0EFA43EA00432B
:100700009A4540D9EB1808F1FF3004D29A4502D936
:10071000A8F102002B44A3EB0A0389B2B3FBF9F85A
:1007200009FB183308FB0EFE41EA03418E452CD924
:10073000691808F1FF3304D28E4502D9A8F10203EB
:10074000294443EA0040A1EB0E01A0FB0298414579
:10075000CE46434602D306D14C4504D20138B9EB0C
:10076000020E68EB0503002EA5D0B4EB0E0261EB80
:10077000030101FA0CFC22FA07F3F9404CEA0303E7
:10078000C6E9003197E74046C5E74346D9E7000090
:100790000022F0B585B0114640F6034002AF04F0E8
:1007A000F5F9044600285BD103F09AFF214641F297
:1007B00003003A1D04F0EAF90446002850D17A6893
:1007C000C34DD16805F17803D1F80100D1F80510C7
:1007D00003C3104603F0C2F8214641F201003A1D5E
:1007E00004F0D4F9044600283AD17868C3685A78EE
:1007F00085F870205A88A5F872201A7985F871203A
:10080000B3F80720A5F87420B3F80530A5F87630C2
:1008100003F0A4F8214641F202003A1D04F0B6F9B3
:100820000446E8B9D7F804C005F18006DCF80C20CE
:10083000531C4132344618685968083303C4934244
:100840002646F7D1604603F089F895F87C305B06C0
:100850000AD401219F4AA04820F0A0FA6FF01204A8
:1008600020460C37BD46F0BD002142F203003A1D80
:1008700004F08CF904460028F2D17A68974BD168CD
:10088000D1F80100D1F8051003C3104603F066F853
:10089000214642F202003A1D04F078F9044600288D
:1008A000DED17E68F468B4F801309AB292B1E27891
:1008B00082B1A5F8FC30E378032B06D00322022195
:1008C00000928548864A1FF01AFFE2788548114653
:1008D00022F0D4FF304603F041F895F87C6016F022
:1008E000200619D14FF0FF304FF0FF3103F01CFF0D
:1008F0000446002800F09B8102210C3020F0CEF845
:100900000123214603704670324640F66D4004F0E4
:100910003DF904460028A3D195F89C301E0712D556
:10092000002142F21C003A1D04F030F90446002870
:1009300096D17868C368D3F80120D3F80530C5E9AB
:10094000382303F00BF895F8D8305C0610D5002159
:1009500042F22A003A1D04F019F9044600287FF4F7
:100960007FAF7868C3685B7885F8103102F0F6FFD6
:100970004FF0FF304FF0FF3103F0D6FE064600285F
:1009800000F0558108210C3020F088F895F8D84007
:1009900040F2022314F0400F08BF03230246A007D1
:1009A0004CBF43F02C0343F00C03A10695F8D9107B
:1009B00048BF43F0400311F0090F18BF43F4006330
:1009C00004F0010443EA0410002120F009FA002297
:1009D000314642F2010004F0D9F8044600287FF4C1
:1009E0003FAF95F87C30B5F8FC1098065CD4C9B9D7
:1009F00041F205003A1D04F0C9F8044600287FF4CE
:100A00002FAFB5F8FC307C684BB9E368B3F8012030
:100A1000A5F8FC209A883348114622F02FFF204683
:100A200002F09CFF4FF0FF304FF0FF3103F07CFEEF
:100A30000446002800F0FB8008210C3020F02EF83E
:100A400095F8D8300246D90738D44FF000512648DF
:100A500020F0C6F92146002240F6014004F096F845
:100A6000044600287FF4FCAE01463A1D4FF60140D3
:100A700004F08CF800283DD01C4A0221164820F0D2
:100A80008DF9EB79002B40F0C28005F09FF8044609
:100A900000287FF4E5AE06F069FE044600287FF4E6
:100AA000DFAE03F05FFFDBE60029BBD10121104A76
:100AB000094820F073F96FF00404D1E602A1D1E9EE
:100AC0000001C5E7AFF3008090880002008000209D
:100AD00000000020EE880200A05E0200D800002086
:100AE0001289020000010020108800027B890200A8
:100AF000588902007B686E46DC688AB0B4F8013021
:100B0000042B96BF574A584952F8231002AAD361C2
:100B10004FF4007355481384554BC2E9050142F860
:100B2000103F4FF41351534820F04EF9B4F8012010
:100B3000B546022AB4F8033049D1052B47D84E4AAE
:100B400052F823106E468AB002AAD3614FF40073A4
:100B50004A481384464BC2E9050142F8103F4FF45E
:100B60001351444820F030F9B546637994F806C033
:100B7000032B98BF424AB4F80760D4F809006C46CA
:100B80008CB094BF52F82310374902AAC2E9073C3F
:100B90004FF40073DFF8ECE093853B4BC2E905E1CD
:100BA000C2E909604FF4735142F8103F314820F018
:100BB0000BF9A546786802F0D1FE00214FF60240FD
:100BC0003A1D03F0E3FF044618B1304A55E72649C1
:100BD000B8E77868C368B3F80130A5F8C13002F00F
:100BE000BDFE95F8C1305A077FF54BAF21464FF651
:100BF00003403A1D03F0CAFF08B1254A3DE7786873
:100C0000C3685B7885F8C03002F0A8FE39E72E781B
:100C1000002E7FF43AAF95F8C1309B061FD54FF0F8
:100C2000FF304FF0FF3103F07FFD044610B96FF045
:100C3000680415E606210C301FF030FFD5F80130AE
:100C400021460360134B32469B8883804FF6064053
:100C500003F09CFF044600283FF417AF00E66FF056
:100C60008504FDE5FC610200078702009F89020000
:100C700004000001A05E0200E4610200B8890200E5
:100C8000D4610200D089020007000001FD89020042
:100C9000268A02000100002070B5044606F0A0FD7F
:100CA0000A2201460646142006F08CFE054608B3CB
:100CB00014230A2184F86D3084F86C600C301FF026
:100CC000EDFEB4F86A3029460380A38A4380E38AA4
:100CD0008380238BC380E3690381206820F09FFD1C
:100CE00030B907A3D3E9002304F170001CF0A6F982
:100CF000002070BD6FF00B00FBE700BFAFF300807A
:100D0000D0121300000000002DE9F047044640F225
:100D1000712690F84C0094F83830C0F3400060F32E
:100D200086138CB004F13B0184F838300CF0E6FDFA
:100D30000021B4F84230404D404AA3FB0663651BD6
:100D400094F83830A2FB0525A26C03F0790384F8EF
:100D5000383002F21313B34232BF184630460A4607
:100D6000C4E9021121702461626460600CF07AFDB4
:100D70006369C5F3871500F21317002B48D00DF1F6
:100D80002C0991214FF0000A4FF00208CDF8209075
:100D90000694B4F842302A4A2A480792A3FB00027C
:100DA00001FB0321284BCDF80CA005936368CDF817
:100DB0002C8004931EA3D3E90023FFF761FB1046A8
:100DC00019464FF47A720023FFF75AFB0235EDB251
:100DD0002A463B460321CDE90160CDF800A05046EC
:100DE0000CF016FC49460DF05BFA054660B994F824
:100DF0004C30404643F0010384F84C3016F070F854
:100E000028460CB0BDE8F0870C200CB0BDE8F08798
:100E10000DF12C09CDE90A3303204B4661680AAA7B
:100E200015F000FA0028ACD1DDE90A371F44A8E725
:100E300000CA9A3B00000000D8150020CDCCCCCCD5
:100E400065D90000002AE7845101010008B5034874
:100E50001EF0F6FF0022024B1A7008BDE275020078
:100E60003B49002070B50C461A4D8A882B680988CA
:100E700019481EF0E5FF2388FA2B28D9A388FA2BFE
:100E800094BF0023012315491A460B70144B19789F
:100E9000F9B914490868E0B113490978C9B1C2B178
:100EA00001221A70114A124B104953604FF400731B
:100EB000D382F7231383802207F046F80D4B0146B7
:100EC0002A681B680C48BDE870401EF0B9BF0023BB
:100ED000D9E770BD241C0020F675020038490020B7
:100EE0003A490020301C0020394900201009002018
:100EF000486002001C1C0020177602001FB530233A
:100F0000074A0849CDE90123002301A8039305F00E
:100F100023F9014604481EF093FF05B05DF804FB79
:100F200001006000191100005676020038B5134A1E
:100F3000134B12681B6813481EF082FF124B1B787C
:100F400003F0FF042BB111481EF07AFF012000F0DE
:100F500017FF0F4822F084FD0E4B0F4D1C700F4BF6
:100F600028681C700E4B1C700E4B1C7010B105F0E5
:100F700013FD2C60BDE83840FFF7C0BF241C0020E3
:100F80001C1C002068760200364900209276020080
:100F9000E00800203B490020301C00203A49002096
:100FA00039490020384900201FB51E4B1B78ABB9CA
:100FB0001D4B186890B11D491D4C0A68531C052A29
:100FC0000B6021780CD91B4A1B48126801921B4AFE
:100FD000126800921A4A12781EF032FF04B010BD57
:100FE00091B9184B03A9039320F090FA2278014697
:100FF00015481EF025FF45F68E320023134804B035
:10100000BDE810401CF01AB80D4C2378002BF2D12B
:101010000F4B03A9039320F063FA227801460D4891
:10102000E7E700BF3A490020301C0020181C0020D0
:10103000394900201C1C0020CB760200241C002013
:10104000384900200000020214770200E008002066
:10105000FB0090423877020010B5134C236813B39D
:10106000124B1978612905D111481EF0E9FE0120C3
:1010700000F086FE67290BD10E481EF0E1FE01222A
:101080000D4B1A7020681321BDE8104020F00AB9FA
:10109000732903D109481EF0D3FEF3E70848BDE8E1
:1010A00010401EF0CDBE10BD301C0020A405002055
:1010B0005D770200AC77020036490020F37702002A
:1010C0003B78020037B50C460E4B4A781B68054644
:1010D00009780D481EF0B4FE2378022B10D16378F6
:1010E000022B0DD10122094B01A91A70084B186877
:1010F0000190284620F0F4F9014606481EF0A0FEB3
:1011000003B030BD241C002074780200394900204F
:10111000605F02008D78020070B5164E05461846D5
:10112000336888B023BB012A22D813490DF1070286
:101130008DF8073002F0FEFD9DF80730C3B105F0D1
:101140005BF80E4B02AA586899680C3303C2144628
:101150000FCB84E80F0021463346284602AA06F04A
:10116000CDF9014620B106481EF06AFEFFF7C6FE23
:1011700008B070BD301C00206D130000605F0200DD
:101180009C78020038B50446EFF31182202383F3E4
:101190001288BFF36F8F184B1968184B196082F3D0
:1011A0001188BFF36F8F0021154AD2E8EF0FC2E814
:1011B000E51F002DF9D1134A134D12681B682968E9
:1011C00012481EF03DFE1421204606F0FDFD0122CE
:1011D0000F4B1A700F4B197861B91A700E48002323
:1011E0000E4A1BF02BFF2A681021BDE838400C483E
:1011F0001EF026BE38BD00BF383D00201C1C00205C
:101200002C1C00203C3D0020241C0020AF78020054
:101210003B49002037490020B008002020A10700EA
:10122000EF780200F0B506469DB069B13B4C3C48F2
:101230001EF006FE206805F0AFFB002323601DB002
:10124000BDE8F040FFF75ABEEFF31183202282F38E
:101250001288BFF36F8F334A334F12683A6083F3BB
:101260001188BFF36F8F3F231A220AA8099323F036
:10127000EEFF304611A906F0D5F806ACE0B9139D93
:101280002B78032B43D8DFE803F0023C3E4027498C
:101290002046FFF70FF9AB7905946A781E21049276
:1012A000AA7809A80392EA7802922A7901926A79C7
:1012B00000921F4A1EF062F93A681E4B09A91B688A
:1012C00000921D4A1D4812681EF0BAFD00231C4AF8
:1012D000214613701B4A304613701B4A13701B4A79
:1012E00013601B4B069320F011F9014619481EF0BC
:1012F000A7FD45F68E32002317481BF09FFE1DB058
:10130000F0BD1649C4E71649C2E71649C0E70A21ED
:101310002046154A1EF032F9BDE700BF301C002000
:101320002F790200383D00201C1C00204679020065
:10133000687902003C3D0020241C00208B790200CB
:101340003A4900203949002038490020181C002063
:1013500000000202BC790200E00800204D79020082
:10136000547902005E790200F8A0020010B50378FB
:101370000C46083B012B0CD842780F2A09D10649AC
:10138000406823F06CFF034601200BB9207018461B
:1013900010BD0120FCE700BFCB790200F7B515486E
:1013A00022F0FBF820B3134D134FAC68134E2368A3
:1013B0002BB9002140F2712022F063FCF7E72846A8
:1013C0000DF1070198470028F3D19DF80710A1F10E
:1013D0006103DBB2122BEAD827FA03F3DB07E6D569
:1013E00033788B42E3D0064831701EF029FDDEE7EA
:1013F00003B0F0BD8054020041200400A405002089
:10140000DB79020030B5114D114C85B047F6122042
:10141000002122F036FC2B78002BF7D00023D4E8F3
:10142000EF2FC4E8E13F0029F9D10A4BD3E8AF3FE1
:1014300009490A4809680068CDE9011008490948C6
:1014400009680091910A1EF0FBFCDFE73B49002090
:101450002C1C0020281C00203C3D00201C1C0020CF
:10146000241C0020E679020010B40B4A9988D2E8C7
:10147000EFCF8C44C2E8E4CF002CF8D1074A9B8818
:10148000D2E8EF4F1C44C2E8E14F0029F8D1012116
:1014900010BC06F099BC00BF2C1C0020281C0020AA
:1014A00010B521F0D0FD104C2060002003F028FE84
:1014B000014620B10D481EF0C3FC002010BD21F0F4
:1014C000C2FD0B4B2268186001460A481EF0B8FCAA
:1014D00009490A4822F0B6FA09490A4822F0B2FA44
:1014E000FFF70CFDE9E700BF201C0020347A020062
:1014F000241C0020497A0200A90F0000E008002007
:1015000059100000B00800202DE9F84F8A4600AFBE
:10151000002974D004680E1F361BF50826F0070654
:1015200004EB0608B8F802B01BF0010B16D1E9462F
:1015300088B06A46334BCDE90531032342F8103FAA
:101540004FF4C2515B46304800F0BAFFCD468BF3F2
:101550001188BFF36F8F0423184602DF2946204607
:101560001EF079FA284434F83030C01A854217D07A
:10157000E94688B06A46254BCDE9053A032342F88F
:10158000103F00234FF4C2511F4800F099FF002381
:10159000CD4683F31188BFF36F8F0423184602DF13
:1015A000B8F80230294623F00103A8F8023020469B
:1015B0001EF051FA05EB000804EBC8035B88DA075C
:1015C00008D4414620461EF08FFA4246294620465E
:1015D0001EF0CFFAA65BAE1B04EBC6035B88DB07ED
:1015E00009D4314620461EF07FFA2A46314620466D
:1015F0001EF0BFFA3546294620461EF031FABD4698
:10160000BDE8F88FF67A0200285F0200CD7A02006A
:101610002DE9F04F91B0009302F004030293C2F35E
:10162000C2030133840705460E46DDF868A0039225
:10163000059340F09C81041D002849D101F0070664
:10164000341DC6F10806009B00274FF004085A1EFF
:101650004FF0FF33B9460193BB46434604970DB1A3
:10166000009921600598002800F3D6808F480099E2
:10167000814203D38E488142C0F0CE800399601B23
:1016800011F0020C40F0D680B9F10F0F00F2CF80BC
:10169000002D00F0D68009F140010DEB010E0199FB
:1016A000C0F387000EF8200C0EF8101CBCF1000FE0
:1016B00000F0C38060F07F000EF8200C013709F1C4
:1016C0000109C5F108014FF6DA7E043406918CE079
:1016D0000729B8D86FF01B0011B0BDE8F08F7A2849
:1016E0005BD84B280FD8472857D829282ED825282B
:1016F00050D052D8202818BF23280CBF4FF0010B20
:101700004FF0000B71E04C382E2846D8DFE800F08F
:101710006D4545454545454545454545484545454E
:101720004545454545564548485656566D486A45CF
:101730006D4518481845457F7C48454548457C001F
:1017400000204FF0000B4FF0040835E001212A384B
:10175000C0B201FA00F010EA0E0F46D110F0625C40
:101760002CD110EA010B40D06046013C4444B4FB4C
:10177000F8F408FB04F425B1A3EB050CA444B4452C
:10178000A8D8002870D00599013905915AF8041B92
:10179000009164E70199013901914FF0000B24E0B9
:1017A00012F8010C6C2834D1002012F8023C834658
:1017B0006C2BC8D14FF008084346D6E70AF1070A58
:1017C0002AF0070A073424F00704FAE802BC35B10E
:1017D00006982044B0423FF67DAFC4E900BC4FF00C
:1017E000000B08344FF00808434612F8010F002898
:1017F00053D0BBF1000F7FF472AF2528F5D14FF025
:10180000010B019B013301934FF00408ECE75846AC
:1018100097E700208346A8E7039988077FF551AF33
:101820004FF0010C601BB0F5007FFFF42DAF6FF09F
:10183000150051E74FF0000CF5E7049801300490D3
:101840003DE7BCF1000F01D0013638E702980236BF
:1018500000287FF434AF0098CDE90632FEF732FE5F
:10186000DDE9063206442AE7042B08D10AF1040018
:1018700015B1DAF80010216082460434B5E70AF1A8
:10188000070323F0070303F1080A1DB1D3E90001A0
:10189000C4E9000108230834A7E7631BB3F5806F90
:1018A000C5D23DB9A6F10804E01815E75C53020063
:1018B00068A70200029A9B0828602B709DF81030E0
:1018C000AAB1EB70AF702FB1002208A8C5F1010CCE
:1018D00091450ED14FF0000AC5F101030DF120082A
:1018E00001930DF1300BD14512D1601BF4E66B7002
:1018F000E8E710F8013B190608D50CEB040EB645D5
:1019000003F07F033FF6E6AE04F8013B0132DFE768
:101910001FB198F90020002A17DB029BD3B11AF8F7
:101920000B2004F8012B0022019B18191044B0422F
:101930003FF6D0AE98F80000009904F8010B20465D
:10194000039223F05EFC039A14440AF1010A08F1A1
:101950000108C8E798F8002055F822300093029B50
:10196000009845F82230FEF7ADFD421CDCE76FF031
:101970000D00B1E62DE9F04F97B000AF05468A465D
:10198000C7E90A3249B903784678807800EB8300CA
:101990002844564524D8A0EB050AD7F8803095F89E
:1019A000028003F00103D7F88040FB61EB78B8F1C7
:1019B000000F0CBF002404F001047B621BB1D7F8B8
:1019C00080309A0715D4A4B9FB6A1BB1514628464A
:1019D000BA6A9847564630465C37BD46BDE8F08F38
:1019E000441C2046FEF76EFD013020440AF1010A36
:1019F000CFE7D7F88030C3F3C0033B622B78BB61DD
:101A00009B003B616B687B61BB6905EB830BFB6AE9
:101A1000002B77D15646D844BCB11C461BF8013B7D
:101A200055F82300FEF74EFDD7F88430013043B15E
:101A3000D7F88830A34282BFD7F8843023F8140047
:101A40000134C3450644E9D1D846D7F880304FF079
:101A5000000913F0050F0CBF4FF0020B4FF0010B04
:101A60007B6A9945B7D298F8013008F1020855F819
:101A700023A0AE4B9A45C0F04C81AD4B3A6A9A45D3
:101A80002CBF002301230AB318F8021C7869FB62FB
:101A90001EF0B5F9FB6AC8B1EA468AB06A46A54BA2
:101AA00005937B69CDE906314FF40073ADF8203022
:101AB000A14B42F8103F00234FF412519F4800F011
:101AC000FFFCD546023E09F10109C9E723B1FB69D4
:101AD00033B9A6EB0B06F6E7D7F880309B07F2D5B3
:101AE0005046FEF7EFFCD7F884304BB1D7F888307A
:101AF0009C423FBFD7F88420431C22F814300134A5
:101B00000644E0E7002C6AD1B8F1000F6DD0D7F899
:101B1000803058076CD5C14607F148004246594607
:101B200023F06FFB00220BEB0803FB600233796AA2
:101B30008A425FD3D7F8802095F801B0F9699207FF
:101B400004EB0B0348BF0022DBB258BF4FEA590237
:101B5000002940F0A680D7F8801011F0040F14BFC0
:101B6000494600216B70A970EA702846BA6A396943
:101B7000FB6A9847061EFFF62EAFBB6949462B70DD
:101B80007B6ABA6AEB7085F801B0FB6A85F802805F
:101B900007F148009847B0F10009C0F2B6803B69F0
:101BA0007A6A786A03EB4201FB68414403EB400028
:101BB000BA6AFB6AAAEB010198470028C0F2A78025
:101BC0004FF0000BB14409EB000607F1380AA345BA
:101BD00069D30021BA6A0846FB6A9847FBE6444687
:101BE0004FF0000907F1380098E74446C14699E7ED
:101BF000A14697E713F8016CDFF830C155F82600CD
:101C000013F8021C6045C0F08A80DFF824C16045EB
:101C1000386A2CBF4FF0000B4FF0010B38B17869D8
:101C2000C7E901321EF0EBF8D7E90132F0B9BBF198
:101C3000000F1ED0F96949B1611C04F1280007F1B9
:101C40003004041904F8206CCCB20FE0D7F88010EF
:101C500049070BD509F1280007F1300C09F1010102
:101C600000EB0C0909F8106C5FFA81F901320233BC
:101C70005DE7D7F880008007DED409F1280C07F172
:101C8000300EF44409F101000CF8101C07F1580162
:101C900009F1020951FA80F05FFA89F900F8106C35
:101CA000E4E700215EE71BF80A3055F8239087F837
:101CB0003730D7F884302BB3D7F888309B4521D202
:101CC000D7F8843033F81B800121BA6AFB6A07F128
:101CD0003700984700281ADB0644B8F1000F06D1F8
:101CE0004846FEF7EFFB00F101081FFA88F841466D
:101CF0004846BA6AFB6A9847002808DB06440BF19D
:101D0000010B64E74FF00008DEE74E4663E6064647
:101D100061E63B6A002B3FF4DFAE0023B4E6386A8D
:101D20000028A6D04FF0000B79E700BF5C530200FB
:101D300068A70200237B020004000001E05E0200AD
:101D4000014B1860704700BFF001002080B50546C8
:101D50000E46174698461BF069FC034601F072FADE
:101D60000446DFF81890424649F8003039463046BC
:101D7000A84754F8090001F0FDF900BF0800000071
:101D8000044608B5EFF31183202383F31288BFF3D1
:101D90006F8F19F04DFB204601F0B0FE02481EF097
:101DA0004FF81EF0C0FDFCE7D77B02002DE9F0479D
:101DB000058B0446280717460CD501290CBF45F0B2
:101DC000100545F02005258387F31188BFF36F8F39
:101DD000BDE8F087022905F0070540F09480204611
:101DE0001EF0CFFA052864D801A353F820F000BFF5
:101DF000C91D0000071F0000B31E0000751E000073
:101E00008F1E0000A11E000001F007035A1F012AC7
:101E10001FD8002221F00701062BD4F8008089B2D8
:101E2000C4E9002209D1434603E0628B0132628398
:101E30001B68002BF9D141F00201204621831EF0DE
:101E4000A0FA4FF0000900286DD041F02001218355
:101E500069E0042B0AD121F0070189B220462183D1
:101E60001EF08FFA10B141F0200121834FF00008DD
:101E7000C14658E02369D3F80090238B23F0070371
:101E800043F006034FF00008238346464BE02369E6
:101E9000D3F80490238B23F0070343F00403F1E706
:101EA0002369D3F80890238B23F0070343F005033D
:101EB000E8E74FF00008C146E7E7012243F00803D6
:101EC000238387F31188BFF36F8F002A3BD1B8F1CA
:101ED000000F4AD1B9F1000F02D020462C49C84763
:101EE000EFF31187202383F31288BFF36F8F238BC7
:101EF00023F008039BB22383D9063FD523F01002B9
:101F0000228303F007056669218B002EBFF67CAFA4
:101F100000239946D4F8008021F00701C4E900337A
:101F200041F001012183238B03F0070AAA4502D067
:101F3000A268002AC1D1B8F1000F02D1B9F1000F97
:101F4000DAD00022BAE7A1680029C0D00D680029C4
:101F5000BDD03346524620464F68B8471DB12B6866
:101F600029461D46F3E72B46FAE7414633465246DB
:101F70002046D8F800801EF030FAA8E79A067FF5D0
:101F800023AF23F02002228303F0070527E700BFD9
:101F9000070402002DE9F047044607464FF0010907
:101FA000DFF84C8094FAA4F5B5FA85F509FA05F343
:101FB0002E0108EB05156FEA030A24EA03042B7BC4
:101FC00063B158F806301B696BB946447368042244
:101FD0002846196807EA0A071EF00EFB002CE1D11B
:101FE0003846BDE8F087284698470028F6D1ECE748
:101FF000485F020010B5002288B00E490E4821F05B
:1020000036FF002200230024CDE906230E234FF4DF
:102010004072CDE90334CDE90144084B08490094EE
:1020200008481BF087F80849064821F06AFD204659
:1020300008B010BD4D200000600E00206923000094
:10204000A0510020D80900200B7C020001481AF0A2
:1020500085BD00BF5C0600202DE9F0478046214881
:102060000F461EF0ADFA0646002833D0002528465C
:10207000BDE8F087237B83B12368DB680BB1204682
:102080009847636883F8069023681B69D3B963682F
:102090000422204619681EF0AFFA01361034544568
:1020A000E8D3B8F1000FE2D0002DDFD02846FFF7CB
:1020B00071FF0546002FF7D0002140F2391021F0C2
:1020C000E0FDF1E7204698470028E0D009FA06F342
:1020D0001D43E2E705464FF00109034CDFF80CA071
:1020E000DDE700BF441C0020485F0200585F02008B
:1020F000014B53F8200070478860020008B5034682
:1021000008462BB1044A136000F03AFC002008BDD9
:102110006FF01500FBE700BFF401002010B5044C80
:10212000237813B903481AF019FD0123237010BD59
:102130003C4900205C06002010B5044609481EF00A
:102140003FFA3CB1084BD3E8EF1F0139C3E8E21F67
:10215000002AF8D105481BF08DFDBDE81040044869
:102160001AF0FCBC3C1C0020401C0020600E00202B
:102170005C0600200022044BD3E8EF0FC3E8E12FF8
:102180000029F9D1704700BF3C1C002070B5FFF753
:10219000F1FF0546074C084EB44200D370BD63689A
:1021A0005B792BB123685B6813B1294620469847B9
:1021B0001034F1E7485F0200585F020010B5044C8C
:1021C000044920461DF057FF034B1C6010BD00BFA3
:1021D000B805002074600200341C002000230D4A62
:1021E00010B513700C4A0D4913600D4A0D48136069
:1021F000FFF784FFFFF7E2FF0B4B0C4918468B42B9
:1022000000D310BD1A1A5C6812110132227110330A
:10221000F5E700BF3D4900203C1C002040420F0074
:10222000401C0020BD050200485F0200585F02000C
:1022300001460022002301481DF03EBFB8050020E2
:1022400001481DF0D5BF00BFB8050020024B014674
:1022500018681EF028B800BF341C002001481EF08A
:102260005DB800BFB8050020F8B5284B1B78002BDF
:102270004AD0FFF7E5FF0446002842D1244B254D04
:102280001B68002B19DD21F0AAFD4FF47A76A0FB24
:10229000060747F61222002306FB0171FEF7F0F84D
:1022A000D5E90032C01A40F2E93361EB02019842ED
:1022B00071F1000101D3FFF769FFD5E9003213F591
:1022C0007A7342F10002C5E90032ECB1BDE8F84092
:1022D000FFF7C4BF6B685B7923B12B6821462846A2
:1022E0001B6898471035B542F4D32046FFF7AEFF80
:1022F000094BD3E8EF1F0139C3E8E21F002ABDD024
:10230000F7E7064D064EEEE70020F8BD3C490020F9
:102310003C1C0020580E0020401C0020485F02009A
:10232000585F020070B50D4D297861B90120FFF7A3
:1023300093FE0B4C0B4EB44206D3FFF795FF0028DB
:10234000FBD101232B7070BD63685B791BB12368DF
:1023500020469B6898471034EDE700BF3D490020B8
:10236000485F0200585F020000212DE9F84308464B
:10237000FFF772FE044648B340F21B684FF00009B5
:1023800000F060FF1A4B1B4A1B58136033B11A4B05
:102390001B68092B02DD19481AF0E0FB0025184FD5
:1023A00044B12046FFF7F6FD044618B94FF0FF3858
:1023B0004FF0FF39FFF758FF064628B9B5B90F4867
:1023C00042464B461AF0FEFB3546E9E74FF0FF3830
:1023D0004FF0FF39D4E72B689B691BB100222846D8
:1023E000114698471035BD42F5D3E8E7054DFAE7A9
:1023F00008000000381C0020401C00205C06002063
:10240000585F0200485F020013B518481EF0D8F864
:10241000174B1B7873B1EFF31184202383F31288D9
:10242000BFF36F8FFFF720FF84F31188BFF36F8F27
:1024300002B010BD0F4B1B68002BF9D050B9002221
:1024400000230D48CDE9002347F6122200231BF09C
:10245000D9FBEDE70928EBD107481BF00BFC074837
:1024600002B0BDE810401AF079BB00BF401C00204C
:102470003D490020381C0020600E00205C06002032
:1024800010B5064B04461B6898472146A0600448D7
:102490001DF08FFEBDE81040FFF7B6BFF40100202D
:1024A000B8050020044A054B9B1AB1EBD30F34BF8B
:1024B00052F8310000207047405E0200485F020081
:1024C0002DE9F04F8FB0C1F34A2604AF0D46904678
:1024D000B8607B600C0D002E61D04FF000090A231C
:1024E0004FF0040B07F1140AFE60C7E90799C7F81B
:1024F00024900093CDF808B0CDF804A007F11C0398
:102500004A464046F968FFF735FAB0F5006F0346D2
:102510001CD36C468AB0D8F8041004AB24481A4681
:10252000C3E9050140F2FF71D9614FF400711984CC
:10253000204B42F8103F4FF412514B461E48FFF714
:10254000BFFFA5462C37BD46BDE8F08FC0F30A0695
:1025500004F11700184420F0070080083B60FFF7E3
:1025600067FE66F35325044680B13B6800F1100115
:10257000C7E908390A23F961CDE901AB0093404668
:102580000E4AF96807F11C03FFF7F4F966F35325C7
:102590002A4620467B68B9681EF04EF8D2E704F15F
:1025A000170020F007008008FFF742FE0446EDE721
:1025B000207C020004000001F05E02000B06020015
:1025C0002DE9F04F87B00546DDE9106BDDE9127AA1
:1025D000884614469946BFB110213B465A46002012
:1025E000CDF800A0CDF814A0FFF712F8B0F5006FF9
:1025F00001460BD340F2FF730221184A184807B076
:10260000BDE8F04F1EF071B83946384604F00703B4
:1026100005F00704E40044EA831444EA402444EA51
:10262000065406F11700084420F0070080080391C3
:10263000FFF7FEFD054640B13FB13B465A460399C0
:10264000CDF800A01030FEF7E3FF4B46224641468E
:10265000284607B0BDE8F04F1DF0EEBF5F7C0200DA
:10266000F05E0200406820B1034BC01A40F3CF0077
:1026700070474FF0FF307047405E02000EB403B564
:1026800003AB53F8042B01460448019301F00EF804
:1026900002B05DF804EB03B0704700BF4D070200C5
:1026A000CA0605D48B064CBF02490349FFF7E6BFB3
:1026B000704700BF987C0200977C02002DE9F04F24
:1026C00089B098469DF85090159B044606930D4698
:1026D000DDE916A3189F05920493B9F1000F00F0ED
:1026E000B08007F4807307931DF084FF07F0020B9E
:1026F0000246002874D020467749FFF7BFFF064600
:10270000BBF1000F08D017F0440F6BD12A462046CA
:102710007249FFF7B3FF064407F0010353B1704B52
:10272000204653F829206F4B6F49002A08BF1A46EC
:10273000FFF7A4FF07F48073002B07F0080318BF0E
:102740004FF00008002B79D0684B204653F8292021
:102750006749FFF793FF0546059B2BB11A462046B4
:102760006449FFF78BFF0544B8F1000F05D04246DE
:1027700020466149FFF782FF054460483544069BC7
:102780001BB122465E491DF009FB049B002B00F0A3
:102790008E80DDF810803946B8F1100F204628BF32
:1027A0004FF010080026FFF77BFFB54250DC0026F3
:1027B000334620461AF803205249FFF75FFF0136DF
:1027C000102E4BD0710703D120464F49FFF756FF1B
:1027D00046453346EDD320464C49FFF74FFFEEE721
:1027E00006468DE74A4B1868002894D0494B4FF4B1
:1027F0007A7B1B684FF03C0CB5FBF3F5B5FBF0F1B1
:102800004FF4616300FB11550BFB05F5B1FBF3F2CF
:10281000B5FBF0FE03FB121100FB1E55B1FBFCF3F0
:102820000BFB05F5B5FBF0F50CFB131120460091F1
:10283000CDE901E53849FFF721FF6CE707F008050E
:102840008AE7B8F1010F4D460CBF2C48334896E794
:1028500020462D49FFF712FF0136A6E70026204645
:102860002F49FFF70BFF33461AF803202046A2F149
:1028700020035F2B28BF2E222A49FFF7FFFE0136D7
:10288000102E0DD0720703D120461F49FFF7F6FE28
:10289000B0453346E8D820461B49FFF7EFFEEEE788
:1028A000049BC244B3EB080304937FF472AFB9F105
:1028B000000F0AD0FB0704D520460A4A0A49FFF751
:1028C000DDFE39462046FFF7EBFE204609B0BDE8A5
:1028D000F04F1DF02EBF00BF9F7C0200A37C0200C2
:1028E000986002009A7C02004D870200AC600200F2
:1028F000C87C0200CE7C0200D27C02004D070200A0
:10290000AD360000D77C0200DF7C0200DD7C0200D7
:102910004C1C0020481C0020AC7C02007B070200FD
:10292000E17C0200E37C020042F20F7373B58B423C
:1029300028BF0B4605680446052168460D4A1CF071
:102940001DFE0646636828460B225B680A491DF097
:10295000E2FE63683246694628465B681DF0DBFE8E
:1029600063681B2228465B6804491DF0D4FE02B050
:1029700070BD00BFA8820200DCA30200C0A3020059
:1029800000210123064A904206D8064A01B90123D4
:102990001360054B18607047012140085B00F2E7A7
:1029A00040420F00481C00204C1C0020F8B50D468A
:1029B0000446064F4618B44201D12846F8BD14F823
:1029C000011BBB6801485B689847F4E7805402002C
:1029D000014B036000207047F460020008B5034813
:1029E000034A0021121A1DF079FF08BDB00700202C
:1029F000A04A0020074808B5074A0849121A1DF0E6
:102A00006FFFBDE808400648064A0749121A1DF044
:102A100067BF00BF00000020AC07002068A70200CD
:102A2000000000200000002068A702002DE9F04708
:102A300006460C4600AF002936D0D1E90012E9461F
:102A40008AB06D46A3684FF0050AE8461F48CDE9F5
:102A50000723CDE9050148F810AF002342464FF4A3
:102A600021511B48FFF72CFDD4E90312CD466369C1
:102A7000AD461848C5E90723C5E90501C5F810A00A
:102A8000002342464FF421511148FFF719FDCD466E
:102A9000E3690121104A0E481DF027FEA3690121B8
:102AA0000E4A0B481DF021FE012E07D1EFF30583DE
:102AB0000B4A31460648103B1DF017FE21463046B2
:102AC00019F07AFDBD46BDE8F08700BF207D020009
:102AD000205F02004F7D02007E7D02008D7D02009E
:102AE000BB7D020030BFFFF7FDBF00BF2DE9F04105
:102AF00005460B4EDFF82C80324606EB0807CC1B50
:102B00002046094922F07DFBA01942460021083CDD
:102B100022F09DFB2C6707F10800BDE8F08100BFA3
:102B20000000000008000000585F020010B5244CAF
:102B3000244925481DF0E1FEA36A99013ED52248AB
:102B400022491DF0DAFE1E20A36ADA0104D51E48D0
:102B50001F491DF0D2FE1F20194CA36ADB0204D5C9
:102B600019481C491DF0C9FE0220A36A1C0304D5A4
:102B7000154819491DF0C1FE2120114CA36A5903C3
:102B800004D5114815491DF0B8FE2220A36A9A0306
:102B900004D50D4812491DF0B0FE2320084CA36A4D
:102BA000DB0304D508480F491DF0A7FE2420A36AC3
:102BB0006FEA03436FEA1343A36210BD1D20C3E70E
:102BC00000ED00E0CE7D0200205F0200E67D020005
:102BD000F97D0200137E02003D7E02005B7E020052
:102BE000807E02009A7E020070B506460D46294C92
:102BF00029492A481DF081FEA36ADB0647D52748EC
:102C000027491DF07AFE1120A36A1C0704D523482A
:102C100024491DF072FE12201E4CA36A990712D59A
:102C200021491E481DF069FE636BA26A120609D590
:102C300001211E4A19481DF058FD1EB1A36A23F058
:102C40008003A3621320134CA36ADE0704D5134844
:102C500017491DF052FE1420A36A9C0604D50F48A4
:102C600014491DF04AFE15200A4B9A6AD10658BF36
:102C70009A6A9A6A920642BF5A6A22F400525A62CB
:102C80009A6A42F0FF029A6200232B7070BD1020F6
:102C9000BAE700BF00ED00E0C57E0200205F020041
:102CA000DB7E02000E7F0200217F0200397F0200DE
:102CB0004F7F02006E7F020070B506460D46284C1D
:102CC000284929481DF019FEA36AD9043CD5264895
:102CD00026491DF012FE1720A36A1A0504D52248C2
:102CE00023491DF00AFE18201D4CA36A9B0512D52E
:102CF0001D4820491DF001FEA36BA26A100409D5EE
:102D000001211D4A18481DF0F0FC1EB1A36A23F4EE
:102D10000043A3621920124CA36A590504D5124836
:102D200016491DF0EAFD1A20A36ADA050ED50E48F1
:102D300013491DF0E2FD1B20094A936A43F47F43C7
:102D4000936200232B7070BD1620C5E7A36A9B0415
:102D5000F2D505480B491DF0D0FD1C20ECE700BF63
:102D600000ED00E09D7F0200205F0200B37F0200C3
:102D70000E7F0200C47F0200DD7F0200F27F0200AE
:102D80000D8002006E7F02002DE9F0418AB0674B92
:102D90000446D3F80480002500AFC8F3080685F385
:102DA0001188BFF36F8F02F07F43B3F17F4F07D1DC
:102DB00002F00C03082B12D15D495E481DF09DFD09
:102DC00000252C460023FB71F31E092B00F28E8098
:102DD000DFE803F00A8487808C8C8C8C8C8A100747
:102DE0004CBF0C460125EDE7534952481DF085FDC7
:102DF00000234E4EFB71F36A9A0705D54F494D48A3
:102E00001DF07BFD00232DE0F36A002B01DA4C4915
:102E1000F5E7F36A5B00F5D54A4946481DF06DFDBC
:102E20007369A26943F480737361BFF34F8FBFF37B
:102E30006F8F32F8023C726922F480727261BFF3C4
:102E40004F8FBFF36F8F03F47F42B2F55F4F2BD1EB
:102E5000DBB2022B28D1236801213B4A35481DF003
:102E600044FC2368FA79DAB907F1080604F1200C6A
:102E7000324620686168083403C264451646F7D1BB
:102E80007A6A002D4FD0C2F3080121B96FEA5222AD
:102E90006FEA42227A62184607F10801FFF7C6FD81
:102EA0002837BD46BDE8F081204B9A6AD2B222B1E4
:102EB0000120F91DFFF798FE0EE09A6A12F47F4F89
:102EC00004D00120F91DFFF7F7FE05E09B6AB3F57A
:102ED000803F97D3FFF72AFE0346C3E70020F91D82
:102EE000E8E70020F91DEEE7184988E7184A18F4CA
:102EF000F87FE8468AB0174B08BF13466A46164962
:102F0000103ECDE905134FF40073ADF82030134B9C
:102F1000079642F8103F00234FF411510548FFF780
:102F2000CFFAC5466EE76FF30802B3E700ED00E0A5
:102F300053800200205F02007E8002009580020024
:102F4000B6800200C4800200E3800200FF8002001D
:102F5000258002003A800200238102000400000163
:102F6000064B5A6942F010025A615A6942F4806273
:102F70005A615A6922F008025A61704700ED00E078
:102F8000EFF30880EFF3098101B57246FFF7FCFE0D
:102F900001BD00BF0B4880F3088818F0DFFA20203D
:102FA00080F3118808484FF40061401880F30988C5
:102FB000EFF314800221084380F31488BFF36F8F6E
:102FC00000F06AF8687A0020286900201EF0040FDB
:102FD0000CBFEFF30880EFF30980816911F8021C40
:102FE0000229FFD001B572461DF07CFC01BD00BF77
:102FF00000B2002807DB01234109034A00F01F004B
:10300000834042F82130704700E100E000B2002820
:103010000CDB01220649430900F01F0082402033E7
:1030200041F82320BFF34F8FBFF36F8F704700BF6E
:1030300000E100E0054B420953F82220012300F093
:103040001F0003FA00F01040704700BF00E100E0ED
:1030500000B2002801F10101ACBF00F16040064B55
:103060004FEA4111C9B2ABBF00F5614000F00F005B
:1030700080F800131954704714ED00E0044B054A22
:1030800023F07F039360BFF34F8FBFF36F8F7047C1
:103090000000000000ED00E008B5FFF7EFFF0B4A6D
:1030A000D2F8883023F47003C2F88830EFF3148329
:1030B00023F0040383F31488BFF36F8FFFF78EFCB4
:1030C000FFF798FC00F09CF819F098FB00ED00E089
:1030D00042F8203C009B0B4942F81C3C019B21F02C
:1030E000010142F8183C029B42F8081C42F8143CCB
:1030F0004FF0807342F8043C0023203A0265436796
:10310000704700BF4D1D000000B50D4B154698607F
:10311000026F0C4B0E461A60036E83F30B882C462D
:1031200086F309880020044B98472046002100229E
:103130000023024C20470000190902004D1D000029
:1031400044420020741C00201022014B1A61704779
:1031500000ED00E0054B5A699B689A421FBF044A84
:10316000536843F080535360704700BF44420020CF
:1031700000ED00E0084B9B6883420BD1EFF3058321
:1031800043B1064B5A6842F080525A605A6A22F4A0
:1031900000425A621AF050BA4442002000ED00E0AA
:1031A00014498A684FF030001044EFF3098C80E82E
:1031B000F01F202080F31288BFF36F8F0E4F4FF067
:1031C00000664A698A603E60106F0C4C2060506F48
:1031D0000023536780F3118802F1300090E8F01F5C
:1031E0008CF3098802F1000004B51DF08EFBBDE8E8
:1031F000044070474442002004ED00E0741C0020AD
:103200000023202040F20F1210B5044CE1180133C6
:10321000934281F80003F9D110BD00BF00E100E046
:1032200008B5EFF30583064A103B02EBC30152F8E1
:10323000330049688847BDE80840FFF78BBF00BFEF
:10324000B85402000148006870470000741C002058
:103250001FB50121094B0A4A0A4800F00FF9002363
:10326000064A0393084B0121019301A8D31A029344
:1032700000F00EF905B05DF804FB00BF000004206B
:103280000000002058610200B00700200A7A0B6895
:1032900010B562F304031C46CB68520923F01F03E8
:1032A00043EA4203044A43F00103C2F89800C2F81B
:1032B0009C40C2F8A03010BD00ED00E010B50A4BF4
:1032C000D3F89030C3F30723013B984208D901217A
:1032D0000346064A06481DF008FA6FF0150010BDB7
:1032E000FFF7D4FFFBE700BF00ED00E03A810200EA
:1032F000085F02002DE9F04F8946144606464FF05C
:1033000000084F4D85B0C84527DAD6F804A0BAF1B9
:10331000000F44D0BAF11F0F17D91AF01F0F14D1A4
:10332000D6F800B01BF01F0F0FD158461DF017FB49
:1033300007460AEB0B0001381DF011FB874210D045
:103340006FF015073F4A3B4601E043463E4A0121E4
:103350003E481DF0CAF96FF01504204605B0BDE8DF
:10336000F08F17F1160FEDD0BC42EBDDC5F8987069
:10337000D5F89C10C5F89870D5F8A03021F01F0141
:1033800043F01F0BD6E900321A44994202F1FF3A8A
:103390001AD1D34507D13146F8B21DF0E9FA08F148
:1033A00001080C36AFE73146C5F89870D5F89C3067
:1033B000E0B263F30402C5F89C201DF0D9FA10F1C5
:1033C000160FC8D0441CEAE7C5F89870D5F8A020BD
:1033D000013B23F01F0302F01F021343D345314684
:1033E000E0B2C5F8A030E8D01DF0C2FA10F1160F17
:1033F000B1D0C5F89870D5F89C209DF808300BF135
:10340000FF3B62F304038DF80830D5F8A0309DF837
:1034100008205B0863F347128DF80820D6E90032D4
:103420001344009323F01F035B44A3EB0A03013012
:1034300023F01F036946C0B20393FFF73FFFBEE7C7
:1034400000ED00E08681020060810200085F02005A
:103450000522044BC3F89420BFF34F8FBFF36F8F47
:10346000704700BF00ED00E0BFF35F8F0022024B0A
:10347000C3F89420704700BF00ED00E010B5034C86
:103480002278FFF737FF207010BD00BF3F490020B2
:103490002DE9F74F294D8A4606464FF00008AB4606
:1034A000274FD0451BDAD6F80490B9F1000F3FD072
:1034B0003168084601911DF052FA0199044609EB62
:1034C000010001381DF04BFA84424FF014021D4BED
:1034D00008D002FB08F36FF015024BF8032003B08D
:1034E000BDE8F08F14F1160F2C60F8D01978A142C6
:1034F000F5DD02FB08B0C7F89840C7F89840D7F848
:103500009C4000F10801007B64F304000871D7F8C7
:10351000A0000C79400860F347140C71D7F89C1098
:1035200021F01F016960D7F8A01021F01F01296167
:1035300008F1010814350C36B3E700BF781C0020F1
:1035400000ED00E03F490020F0B55349534DD1F85C
:1035500090302C68C3F307239C4287B000F2998017
:103560000020FFF781FF4E4BC1F8C030844216D1D6
:103570004C4D01A82C70FFF72BFA002607464A4C49
:10358000B74213D100202B784349D1F89020C2F3E1
:103590000722934277DBFFF75BFF002046E0696874
:1035A00001EB0011FFF772FE0130DFE701993001F6
:1035B00001EB0613DA682240B2F1807F52D00AD8BC
:1035C000B2F5001F34D0B2F5800F3ED0B2F5801FA7
:1035D00012D00136D4E7B2F1006F43D0B2F1805F70
:1035E000F7D15A689B680958013B22F01F00034439
:1035F00023F01F03012032E05A689B680958013B01
:1036000022F01F0003440120844623F01F0340EAF8
:103610004C10CDE902218DF8100002A928780593FD
:10362000FFF74CFE00282ADA6FF0150007B0F0BD56
:103630005A689B680958013B22F01F0003444FF071
:10364000020C012023F01F03E1E75A689B68095828
:10365000013B22F01F000344062023F01F034FF01C
:10366000000CD4E75A689B680958013B22F01F0000
:1036700003444FF0030C012023F01F03C7E72B780E
:1036800001332B70A5E7C1F89830C1F8A0000133D1
:103690007BE74FF0FF30C9E700ED00E06461020016
:1036A000AAFF44003F4900200000F0FFF0B587B0BA
:1036B00007460E4614460021102268461D4621F09A
:1036C000C6FD02238DF80230054B2A462146684686
:1036D000CDE9047601931BF07BFF07B0F0BD00BF7E
:1036E000A309020008B5024B1B689847002008BDDB
:1036F0008C1C0020034B044A1860937843F00203AB
:10370000937070478C1C00201002002008B50649F9
:10371000064821F00701C1F1005202F580221CF099
:10372000FCFA002008BD00BF6FC10020901C0020E3
:103730004FF0FF324FF0FF33014819F01BB900BFC3
:1037400020020020014819F087B900BF20020020A4
:1037500038B50546FFF7ECFF2A46082107481CF05C
:103760006BFA044628B925B1FFF76CFD0C22044B17
:103770001A50FFF7E7FF204638BD00BF901C00201D
:103780000C00000010B50446FFF7D2FF21460348A5
:10379000FDF7BAFEBDE81040FFF7D4BF901C002033
:1037A00070B5A0FB015434B92846FFF7D1FF064697
:1037B00040B9304670BDFFF745FD0C22044B002692
:1037C0001A50F6E72A46214621F041FDF1E700BFF5
:1037D0000C00000070B541690446867A0A4D59B163
:1037E000437ADB0706D4242303FB0653DB691B68FB
:1037F0009B689847002363612420214600FB065004
:10380000BDE8704020F02CB88C0600202422024B2A
:1038100002FB0030704700BF8C0600202421827A12
:10382000054B01FB02331A6A1B7D801A1B3323F000
:103830000303B0FBF3F070478C06002038B5242456
:10384000827A064B04FB0233DB69D3E901240C6066
:103850001568FFF7E3FF04FB005038BD8C0600201D
:103860002DE9F04385B00546684690461C46039115
:1038700020F0B7FADDE90067EFF31189202383F325
:103880001288BFF36F8F6B8A002B41D02A8A9A422D
:1038900025D900220023284619F02EF90446F0B15C
:1038A00089F31188BFF36F8F039B002B41D0324601
:1038B0003B46684620F0BAFA2421A27A254B2046DE
:1038C00001FB0233DB6903A91B681D68DDE90023E6
:1038D000A847606170BB2046FFF77CFF24E0698A3F
:1038E0004B1E6B8289F31188BFF36F8F2B7D2A8A61
:1038F0002C6A1B3323F00303521A02FB0344154BBB
:10390000154AEB1A9B105343A3722B7DE372CBE74E
:1039100089F31188BFF36F8F23464246284619F07A
:10392000EBF804460028BFD10024204605B0BDE8CE
:10393000F0836361012300252381039B2946638271
:10394000E27A656004F1180021F081FC6369258248
:10395000E360EAE78C060020398EE33870B5242551
:103960000C4C00B970BD037A4668002BFAD0013BBD
:10397000DBB20372002BF5D1C3604360837A05FB91
:1039800003439B6913B198473046EAE7FFF722FFEC
:10399000FAE700BF8C0600202DE9F84F06460D46D9
:1039A00017460446A3466468002CFBD14FF0240957
:1039B000DFF878A0BBF81030BBF81220DBF8141049
:1039C000D21ADBF80C300BF10C005B1AD21AAA42A7
:1039D00028BF2A461FFA82F8394642461DF064F88D
:1039E000B5EB0805444447441DD00C9B53B1DDE9B9
:1039F0000A010D9A98478346A8B1014630461DF04A
:103A000025F8D7E7B07A09FB00A0C3699B6843B1EA
:103A1000AB4228BF2B461946DDE90A23FFF720FFFA
:103A2000E9E72946F8E72046BDE8F88F8C06002034
:103A300008B5244A244B1A6016F0DEFF4FF47A6171
:103A40002248D0F82436C3F30802C3F309434B439A
:103A500082F480721E49883201FB02334FF4FA214E
:103A60005B00B3FBF1F201FB12331A49B3F57A3F65
:103A700028BF0132C1F80429D0F820364FF47A600B
:103A8000C3F30802C3F30943434342F21C5082F4D8
:103A9000807202F2172200FB02334FF47A701B0A85
:103AA000B3FBF0F200FB12330020B3F5FA7F4FF0C6
:103AB000010328BF0132C1F81C27C1F80009C1F871
:103AC000003608BD0020A1078405002000C0FF00CB
:103AD000F82A00800000125048B1054B054A1B68C7
:103AE000B3FBF2F35843044B43F00103184770470C
:103AF0008405002040420F0020600200BFF34F8F7A
:103B00000549064BCA6802F4E0621343CB60BFF379
:103B10004F8F00BFFDE700BF00ED00E00400FA0595
:103B20000E4B402928BF402170B51D460C4C46184D
:103B3000B04203F1020304D1002305F81130074815
:103B400070BD02781209A25C03F8022C10F8012B58
:103B500002F00F02A25C03F8012CE9E75E490020A5
:103B6000FBA3020030B503788BB0044607AD032BEE
:103B700021D8DFE803F0021A1C1E12492846FCF780
:103B800099FC059563781E210493A3780E4A03934C
:103B9000E3780E4802932379019363790093A37924
:103BA0001BF0ECFC09480BB030BD0949E6E70949B8
:103BB000E4E70949E2E70A212846084A1BF0DEFC4F
:103BC000DFE700BF46790200687902004049002023
:103BD0004D790200547902005E790200F8A00200DB
:103BE00010B50024094B86B009480393CDE904447D
:103BF0001FF022FF03AB00934FF4AF620A23054985
:103C0000034819F07DF9204606B010BDDA810200A4
:103C1000980E0020A05400200146014819F0B0B9C8
:103C2000980E0020014601481FF0DBBE980E0020D0
:103C300030B50378012B11D0022B21D06BB90A4685
:103C4000144B03F1100453F8045BA34242F8045BE5
:103C5000F9D143881A0A8A70CB7030BD0A460D4BE1
:103C600003F1100453F8045BA34242F8045BF9D15A
:103C700043681A0C180E4A700870C3F30722EAE76B
:103C800000F11003013913F80129984201F8012FBE
:103C9000F9D1E2E70CA4020010B51CF0F8FF1FF008
:103CA0002AFF044608B919F0FDFB064BD3E8AF3FE5
:103CB0000BB10A2098471CB9BDE8104019F006BCAA
:103CC00010BD00BF9C1C002038B5044608481CF0FD
:103CD00079FE054648B1631EDBB21F2B96BF054A2D
:103CE0000021D15C0C301CF0E8FE284638BD00BF36
:103CF000640700201CA402000F2810B50CD80D2862
:103D00000CD90A481CF05EFE044618B104210C30A0
:103D10001CF0D3FE204610BD1328F2D009B1044890
:103D2000F0E70220BDE81040FFF7CEBF8807002073
:103D3000F8060020F0B505460E46174685B0AB885C
:103D4000012B0ED928461CF0E1FE044648B1AB8891
:103D5000984208D9022100930D4A03460D481CF0F1
:103D6000CEFC05B0F0BD28461CF0D0FE2B688DF8C7
:103D70000800013C394602A88DF809400393B0477A
:103D80000028EED0214628461CF0B0FED7E700BF41
:103D9000EA810200885E0200C3681B780221024AA1
:103DA00002481DF004B800BF15820200A05E0200A8
:103DB00038B5C5682B7893B9B5F801400F21204676
:103DC00002F03CFFEB78054650B90A4A118831B938
:103DD0006FEA04506FEA10501080074A137038BD24
:103DE0000373012102F024FE2846BDE8384002F0AA
:103DF000D3BD00BF0C490020DF49002070B5C36867
:103E00001D787DBBB3F801600F21304602F016FF2C
:103E1000044638B901213346BDE87040124A1348C0
:103E20001CF0C5BF294602F003FEA378012B04D085
:103E30002046BDE8704002F0AFBD231DD3E8AF3F80
:103E4000DB07F5D50321204602F0F2FD03201DF02B
:103E5000B2F903460028EBD00221054A03481CF0C2
:103E6000A6FFE5E770BD00BF3D820200A05E020034
:103E70006382020010B501210C301CF03FFE037874
:103E80000121BDE81040024A02481CF090BF00BF6B
:103E900089820200A05E0200014610B508481CF0AD
:103EA00095FD084908481FF09CFD031E06DABDE891
:103EB00010400121054A06481CF079BF10BD00BF23
:103EC0003401002034030020D80F0020AB82020010
:103ED000A05E02002DE9F14FC56801212E88304611
:103EE00002F0ACFE044640B901213346284A294875
:103EF00001B0BDE8F04F1CF05ABFB5F80280EE8863
:103F00001FFA88F3AF88A3F11B022D89E02A1FFA5C
:103F100086FA1FFA87F91FFA85FB04D902211E4A87
:103F20001C481CF044FFAAF11B03E02B05D9022119
:103F300053461A4A17481CF03AFF44F24812A9F5B2
:103F4000A4739BB2934205D902214B46144A1148EF
:103F50001CF02DFF44F24812ABF5A4739BB29342C0
:103F600005D902215B460F4A0A481CF020FF204673
:103F7000A4F8A680A4F8A870A4F8AA60A4F8AC508D
:103F800003F0A4F8204601B0BDE8F04F02F004BDF4
:103F9000C8820200A05E0200EC82020015830200CB
:103FA0003E8302006583020073B5C5680121B5F840
:103FB0000160304602F042FE044640B9012133461A
:103FC0002D4A2E4802B0BDE870401CF0F0BE2B78A0
:103FD0001A2B19D1C378012B4AD14FF480410430F8
:103FE0001CF0E7FE43040FD4D4F88C3069460093EC
:103FF000D4F89430204601931DF08FFC204602B087
:10400000BDE8704002F0C8BC2B788BBB40F2E242A6
:10401000B5F803301A495343C4F88830B5F8052081
:10402000A4F89020B5F80720A4F89220A3F5EA524E
:104030000C3A8A4204D90221124A10481CF0B7FEF9
:10404000B4F89030B3F5FA7F04D302210E4A0B483E
:104050001CF0ADFE40F67641B4F89230A3F10A02AE
:1040600092B28A4204D90221084A04481CF09FFEF9
:10407000204602F0DFFFC1E7C8820200A05E020016
:1040800095F03C008C830200B3830200DA830200C7
:1040900010B5002486B003AB00934FF480624FF05C
:1040A000FF3305490548CDE90344059418F028FF7E
:1040B000204606B010BD00BF185A0020380F00205F
:1040C0000121024A02481CF069BE00BF06840200BA
:1040D000A05E02000B46B0B50D8A00AF044629462B
:1040E000D868FFF71DFD8AB06A46094BCDE9075035
:1040F000CDE9053440F20243ADF82430054B4FF4CE
:104100003251054842F8103F1CF05EFEBD46B0BD7E
:104110002084020005000001A05E020070B5C568A1
:104120000121B5F80160304602F088FD044638B937
:1041300001213346BDE870400B4A0C481CF037BEE5
:104140002B783BB9D5F80330C0F89830D5F8073054
:10415000C0F89C30201D4FF480311CF02AFE204610
:10416000BDE8704002F018BCC8820200A05E0200E8
:104170002DE9F84FD0F80C90018A99F8004000AF73
:10418000A30001338B425FD96D468AB06A46CDE900
:10419000073105232E484FF42151CDE905042D4860
:1041A00042F8103F1CF010FEAD46BD46BDE8F88F4A
:1041B00001212B46284A27481CF0F9FD013699F8C1
:1041C00000309E42F1DA09EB8603B3F801500F216B
:1041D0002846B3F8038002F031FD04460028E7D0FA
:1041E00000F1C80AB8F1000F06D0656945B9012190
:1041F0001A4A18481CF0D2FD204602F0CDFBDDE73C
:10420000A2692B6895422046636108BFA36102F052
:10421000E9FA18F0A3FCC5F800B0236A8BB9C4E929
:104220000755DAE8EF3F013BCAE8E23F002AF8D140
:104230000021204608F1FF3802F0E0FA1FFA88F862
:10424000D0E71D602562ECE70026B346B7E700BF64
:1042500042840200A05E02006D8402008984020094
:1042600037B50446084602EBC3039A4202D16FF009
:104270005E0010E0114611F8085BA54211D1038AD7
:104280005178994209D908480121084A00941CF044
:1042900036FA6FF0150003B030BD53689847002020
:1042A000F9E70A46E1E700BFA05E0200A084020031
:1042B0002DE9F0470C4619F0F5F8E5682B78022B4C
:1042C00075D0042B0AD001213D4A3E481CF06FFDF9
:1042D0002046FFF743FB6FF015040EE0B4F81080A2
:1042E000B8F1020F0ED84346374A364801211CF078
:1042F0005EFD2046FFF732FB002419F0E7F8204668
:10430000BDE8F08768783E280CD1B8F1030F02D1E0
:104310002E4A4346E9E7EB78012B01D00A2B46D120
:10432000032704E01CF027FD0746F8073FD504F1FA
:104330000C0601213046D4F814A01CF0D7FB022152
:1043400030461CF0DBFB814600783E2807D1E3684D
:104350001B78012B01D00A2B06D1032614E01CF098
:104360000AFDC10706460FD441F26813184A1949DD
:1043700019481BF072FD002383F31188BFF36F8F80
:104380000323184602DF0226144A0623214699F821
:1043900000001CF035FDB2070DD56369A5EB0A05D9
:1043A00013FA85F5E560A4F81080BB07A4D5204674
:1043B000FFF772FDA0E72046FFF7D0FAF5E700BF50
:1043C00068850200A05E0200C2840200DE84020052
:1043D000FE840200328502004B850200106202005A
:1043E00010B5012104460C301CF088FB2146BDE8C5
:1043F00010400223014A00781CF002BD4062020016
:1044000073B53E481CF0F7FA0446002873D000F15B
:104410000C0528461CF07AFB0228034603D004282A
:1044200047D0374A03E0238A032B05D8354A0121B8
:1044300035481CF0BCFC13E0042128461CF05EFB50
:10444000FF23428806882376238AC6F30B009A420C
:10445000608309D0012100922B482C4A1CF04FF9AF
:104460002046FFF77BFA12E00F2102F0E7FB05463A
:1044700010B9638B264ADAE702F006FC2146207663
:10448000320B284602F00CFA284602F085FA214B3E
:10449000D3F834317BB3204920481FF0A2FA031E21
:1044A00029DA01211E4A184802B0BDE870401CF00C
:1044B0007EBC284602211CF021FB054600783E28E0
:1044C00012D01CF058FC10F002060DD140F69A43B1
:1044D000144A154915481BF0C0FC86F31188BFF338
:1044E0006F8F0323184602DF06232146104A2878DF
:1044F0001CF086FCB4E702B070BD00BF34010020A0
:10450000118602007C850200A05E02009D850200EB
:10451000C18502000000002034030020D80F0020D5
:10452000AB820200FE840200E38502004B8502009C
:104530005062020010B5012104460C301CF0DEFA76
:104540002146BDE810400923014A00781CF058BC00
:1045500080620200F8B50121044600AF0C301CF067
:10456000CDFA0678002321463046104AFFF778FE40
:104570005F3019D1258AE0682946FFF7D1FA6C46E9
:104580008AB06A460A4BCDE90750CDE9053640F2BC
:104590000243ADF82430074B4FF43251064842F83D
:1045A000103F1CF011FCA546BD46F8BDC8620200D4
:1045B0002586020005000001A05E02002DE9F74FEC
:1045C0000023804689461746DFF800A1DAE8EF4F5E
:1045D000CAE8E23F002AF9D1264644B90121434600
:1045E0003B4A3C4803B0BDE8F04F1CF0E0BB20461E
:1045F000FFF714F94FF00C0B374D0BFB00504388BD
:1046000043451BD02046FFF709F90BFB00504388B8
:1046100001210093314A43462E481CF070F8DAE835
:10462000EF3FCAE8E26F002AF9D1002B4BD01E46BB
:10463000304603B0BDE8F04FFFF790B9A74208D06D
:1046400020461CF0BAF93A8AF96804F10C001CF013
:104650002BFA2046FFF7E2F80C2707FB00504368CF
:10466000ABB1B9F1000F12D12046FFF7D7F8012105
:1046700007FB00504268536803F01F008140106838
:104680005B0900EB8300137ACBB11CF092FB204650
:10469000FFF7C4F80C2707FB00508368002BC7D036
:1046A0002046FFF7BBF8784305F800902046FFF757
:1046B000B5F807FB0055A86818F050FAB8E7C943E9
:1046C0001CF085FBE3E703B0BDE8F08F300100206C
:1046D00057860200A05E0200A01C00207F86020018
:1046E00008B501F0C7FB064BD3E8AF2F02F00B0271
:1046F000D3E8EF1FC3E8E02F0028F9D108BD00BFC1
:10470000D400002010B5C1E900239DF808300C4604
:104710000B72FFF783F80C22024B02FB00335C6044
:1047200010BD00BFA01C0020F8B502460B46104883
:104730001CF048F90446C0B104210C301CF0A3F968
:104740002046FFF76BF80C2700260A4D07FB0050A8
:1047500046802046FFF762F807FB0050866020463F
:10476000FFF75CF807FB00556E602046F8BD00BF00
:1047700040070020A01C00200138C0B202289ABFC8
:10478000014B185C0020704766A4020070B5C56834
:104790000121B5F80160304602F050FA044638B9FC
:1047A00001213346BDE870400A4A0B481CF0FFBAAD
:1047B000E878FFF7E1FF84F8A4002879FFF7DCFF31
:1047C00084F8A500204602F0A7FC2046BDE8704012
:1047D00002F0E2B8C8820200A05E020029289ABF57
:1047E000014B185C092070473CA4020070B5C368F7
:1047F0000F21B3F801601D78304602F01FFA04461D
:1048000038B901213346BDE87040184A18481CF0F9
:10481000CEBA65B12846FFF7E1FF29460246204699
:1048200002F00CFD2046BDE8704002F0B5B8837878
:10483000012B07D107F018FB20461CF084FA002852
:1048400008BF05252846FFF7C9FF2946024620462E
:1048500002F0F4FC002DE5D00121064A04481CF0CA
:104860009DFA052120461CF01DFDDBE73D8202007C
:10487000A05E0200B28602002DE9F041C6680F2159
:10488000B6F801703578384602F0D8F9044638B9E0
:1048900001213B46BDE8F0411E4A1F481CF087BA83
:1048A00065B12846FFF79AFF29460246204602F0E6
:1048B000C5FC2046BDE8F04102F06EB8F278C37A3C
:1048C000934205D10221154A13481CF070FAF0E713
:1048D0008378C272012B08D10AB107F0C5FA2046CD
:1048E0001CF031FA002808BF05252846FFF776FF9F
:1048F00029460246204602F0A1FC002DD9D0012114
:10490000074A05481CF04AFA052120461CF0CAFC5B
:10491000CFE700BF3D820200A05E0200D886020001
:10492000B286020010B5044692B04422064901A89E
:1049300020F067FC102C9DBF12AB03EB840454F8ED
:10494000440C024812B010BD7C5F020007870200D1
:10495000034B0146D3F84C0182689268104700BFB0
:10496000000000202DE9F047042100AF47481CF06B
:1049700020FA6D4601F07EFA88B06A46444B4FF447
:10498000E6510593434B444806934FF40073ADF84A
:104990001C30424B424C42F8103F1CF015FAAD4619
:1049A000E179404B404E2046012998BF1E46FFF753
:1049B000D9F88AB06A463D4B0790CDE905363C4BA5
:1049C0004FF4235108933B4B334842F8103F1CF0FF
:1049D000FBF9A246AD460125374EDFF8E080E379CA
:1049E0000AF1070A9D423ADB94F870506E46284659
:1049F000FFF798FF8CB06A46B4F87210B4F87630BE
:104A0000CDE907514FF40075DFF8B4C009932D4B81
:104A1000CDE905C0ADF828504FF4535142F8103F8E
:104A20001D481CF0D1F9B54694F871603046FFF787
:104A300079FF8AB06A46B4F874302349CDE9076338
:104A4000224BCDE90510ADF824504FF433511248F4
:104A500042F8103F1CF0B8F9BD46BDE8F08750465B
:104A6000FFF780F8E9468AB06A4640F20133CDE9A3
:104A700005650790ADF820304FF41351064842F811
:104A8000108F1CF0A1F90135CD46A8E7D400002015
:104A90001387020025870200A05E020003000001C8
:104AA00000000020997C02000F870200308702007E
:104AB00000020103040000023F870200040000011D
:104AC00050870200060000018E87020005000001E9
:104AD00000487047B5870200014902481EF081BFB7
:104AE00024030020380F002070B505460C4639B16C
:104AF000CB684A699B1A032B0ED86FF0150509E0A5
:104B00004FF0FF304FF0FF31FFF70EFE044618B9AB
:104B10006FF06805284670BD2046FEF77FFE0C2228
:104B2000164BA61802FB0033032130465D801BF0B4
:104B3000CCFF0580238A0121033B837030461BF0A4
:104B4000CCFF40F635439D420FD12046FFF700FFD2
:104B500005460028DED001210346094A09481CF019
:104B600026F92046FEF7FAFED4E7214606481EF055
:104B70006CFE0025FFF7B0FFCCE700BFA01C0020B3
:104B8000C7870200A05E02003C0100202DE9F0472B
:104B900084B0804691460C4600AF71B94FF0FF30AB
:104BA0004FF0FF31FFF7C0FD044660B96FF06805B4
:104BB00028461037BD46BDE8F087887AFEF726FE06
:104BC0003B4B83426ED10122002138461EF056FE37
:104BD0002046FEF723FE0C23DFF8D8A003FB00A03D
:104BE000876020461BF01DFF01464046FFF77CFF13
:104BF000054618B12046FEF7B1FED9E70023384636
:104C00002D4A17F0DFFF064690B14FF4F1732B4A9F
:104C10002B492C481BF021F9324641462A481BF00B
:104C20001CF985F31188BFF36F8F0323184602DF49
:104C30002046FEF7F3FD0C2358431AF800605EB3DC
:104C40006D468AB06A46214B0796CDE90538204B60
:104C50004FF43251089340F20243ADF824301D4B1B
:104C60001D4842F8103F1CF0AFF82046AD46093E03
:104C7000FEF774FE092E0CD8DFE806F0050B0B08D2
:104C8000170B0B0B0B146FF06E0591E76FF00C0513
:104C90008EE76FF004058BE7B9F1000FAAD0C9F8D1
:104CA000004085E76FF0150582E76FF00B057FE7A1
:104CB00040070020A01C0020B4C40400FE840200B1
:104CC000E98702004B850200F28702003788020064
:104CD000997C020005000001A05E0200F0B585B0DD
:104CE00006460DF10301002000F05AFF054600289A
:104CF0004DD14FF0FF304FF0FF31FFF715FD074664
:104D0000002847D019210C301BF0C8FE0446294664
:104D1000192220F09CFA9DF80330204A237392F860
:104D2000111192F81031601D994294BF06F1700183
:104D300006F17E011CF034F8938938462380D3892C
:104D40006380B6F88C30A4F80D30B6F88E30A4F835
:104D50000F30B6F89030A4F81130B6F89230A4F8BD
:104D600013300F4B01930723029301238DF80C306E
:104D7000FEF754FD0C220B4B394602FB003301AA0F
:104D80005A6042F20D000022FFF700FF0546284658
:104D900005B0F0BD6FF06805F9E700BF0000002026
:104DA000D4000020A01C0020F8B50228054600AF62
:104DB0003DD100210246084602F012FB044680B9AC
:104DC0000121264A26481BF0E9FF03201CF0F3F9D5
:104DD000034620B10221234A21481BF0E8FFBD46CB
:104DE000F8BD031DD3E8AF3FDB0706D5032101F073
:104DF0001FFE204601F0D0FDE7E740301EF02EFEFA
:104E000010F00C0608D116482946174A1BF0C6FFB9
:104E1000314620462573EAE72046FFF75FFF00286A
:104E2000E7D00121114A0E481BF0B8FFE1E76C46BC
:104E30008AB06A460E4B4FF41251CDE905300D4B46
:104E40000748079340F20133ADF820300A4B42F88F
:104E5000103F1BF0B9FFA546C1E700BF568802000E
:104E6000A05E020063820200748802009A88020039
:104E7000B6880200997C02000400000130B54FF0B2
:104E8000FF304FF0FF3185B0FFF74EFC0446B0B164
:104E90000C4B0025019307238DF80C500293FEF76D
:104EA000BDFC0C22084B214602FB003301AA5A60CC
:104EB00042F20E002A46FFF769FE05B030BD6FF0E2
:104EC0006800FAE7D4000020A01C00202DE9F04380
:104ED00085B0002605465E4BB0F80190198849F46C
:104EE0007042914204BF1E805A4B00AF08BF1E782B
:104EF00000F0E2FCEB7805F10408012B08BF564BEB
:104F0000404614BF002493F86F401BF0BCFE41469E
:104F1000B0B307F108001BF0ABFED5F81130C7F8AD
:104F20000130B5F81530A7F8053001233B70E8785B
:104F300040B9022207F1080102F052FAEB78044668
:104F40005BB384BB4046FEF70DFE6C4688B06A46F4
:104F5000424B4FF4E251CDE905304FF40073ADF808
:104F60001C303F4B3F4842F8103F1BF02DFF1321F0
:104F7000A54648461BF07FFF1437BD46BDE8F083C9
:104F800020461CF0D4F8014607F108001BF008FF8A
:104F9000414638461BF004FFC9E76FF080013248F4
:104FA0001BF015FFCDE7204640F2E242B5F8013094
:104FB00007F1080120F8703B1BF0F2FEB5F817303E
:104FC00053430022C4F88830B5F81930A4F8903063
:104FD000B5F81B30A4F89230EB782273234AE370C3
:104FE000C4F8A4204732C4F8A8204FF4A472A4F84F
:104FF000AC206BB9394604F17E001BF0D1FE217A5A
:10500000154BC1EBC101194404F177001BF0C8FE38
:105010000721204601F00CFD26B101212046267310
:1050200001F006FD204601F06BFE204601F0B4FCC5
:10503000E378002BA0D103201CF0BDF80346002824
:105040009AD002210A4A07481BF0B1FE94E700BF3C
:105050000C490020DF49002000000020D288020017
:1050600003000001A05E0200D400002001011B002B
:105070006382020000B5C16889B0087820B109B028
:105080005DF804EBFFF790BEB1F801308DF8000039
:10509000ADF80130CB7801A88DF80330B1F80B30B2
:1050A0000431ADF81730B1F80930ADF81930B1F866
:1050B0000B30ADF81B304B7B8DF81D301BF070FEB4
:1050C000084B68461A689B88CDF80B20ADF80F3066
:1050D000CDF81120ADF81530FFF7F8FE09B05DF8F6
:1050E00004FB00BFF5A3020010B5FBF751FB034B17
:1050F0001B6813B1BDE81040184710BDB81C002054
:1051000073B52A4D0646D5F84C011EF046FA48B94B
:105110000121274A27481BF041FE6FF01204204668
:1051200002B070BD6FF0020105F1D4001BF04FFE1C
:1051300001211BF03EFE10EA010434D11E4B1E601B
:105140000A4605F590701EF099FB05F59E701EF05D
:105150004EFB1A481EF070FC6FF007034FF4966286
:1051600017491648009417F0CBFE164913481EF055
:10517000C8FCD5F84C01144983681B68984704465D
:1051800030B101210346114A0A481BF010FEC6E760
:1051900026B902B0BDE87040FBF7FABA05F1C400C9
:1051A00017F0A8FEBBE76FF07704B8E70000002017
:1051B0004F8A0200A05E0200B81C0020D80F002019
:1051C000185E0020678A0200B1420000708A020067
:1051D000F0B5C56801212F8887B0BCB2204601F028
:1051E0002DFD064640B901212346274A274807B02E
:1051F000BDE8F0401BF0DBBD02ACD5F80220D5F8CD
:1052000006300194698900911DF090FB48B34FF07E
:10521000FF304FF0FF31FFF787FA054648B901210B
:105220001B4A1A481BF0BAFD304601F0B5FB07B027
:10523000F0BD12210C301BF031FC0346224623F84E
:10524000027B144603CC596006A98C4218602246A2
:1052500003F10803F5D1294642F21A00FFF744FC96
:10526000E2E74FF0FF304FF0FF31FFF75DFA044601
:105270000028D4D002210C301BF010FC21460780FE
:1052800042F21B00EAE700BFC8820200A05E0200F3
:105290008C8A020073B5C368D9789A781E8842EA6E
:1052A0000122ADF8002059791A79B4B242EA0122FC
:1052B000ADF80220D9799A79204642EA0122ADF868
:1052C00004201A7A5B7A012142EA0323ADF8063002
:1052D00001F0B4FC054658B901211D4823461D4A7A
:1052E0001BF065FD022120461BF04CFE02B070BD94
:1052F000694601F037FF38B91E2120461BF042FEF7
:10530000284601F049FBF1E74FF0FF304FF0FF3145
:10531000FFF70AFA04460028F2D00E210C301BF0E9
:10532000BDFB00230680C0F80A30BDF800302146DE
:105330004380BDF802308380BDF80430C380BDF8DF
:105340000630038142F22000FFF7CEFBD8E700BF12
:10535000A05E0200C882020038B5042104460C3069
:105360001BF0CCFB034640885D7818B122461978C3
:10537000FFF724F935B1044817F0F0FBBDE83840D9
:10538000FFF7AABB38BD00BF20010020B0B504461E
:10539000032100AF0C301BF0B1FBE268034611782B
:1053A00040F63542B0F80100904216D16C468AB002
:1053B0006A46104B1048CDE90531104B4FF412519D
:1053C000079340F20133ADF820300D4B42F8103F07
:1053D0001BF0FAFCA546BD46B0BD1D7810B12246B3
:1053E000FFF7ECF8002DF6D0064817F0B7FBFFF7F3
:1053F00073FBF0E7A38A0200A05E0200997C020022
:10540000040000012001002038B518F04BF82F4DA2
:10541000D5F83C31002B56D00022002305F59070C2
:1054200017F0D0FB00284ED10022002305F59E7016
:1054300017F062FB044668B940F6AA43244A25499E
:1054400025481AF00AFD84F31188BFF36F8F0323F8
:10545000184602DFD5F830315BB101211F4A2048E0
:105460001BF09CFCD5F83001FEF778FA0023C5F854
:10547000303120461BF0D5FAC5F830012046FFF741
:1054800067FA0346C8B10121164A15481BF08FFC84
:10549000154817F063FB2046FEF7C0F90C22134BAA
:1054A00002FB0033588818B122461F21FFF786F807
:1054B0002046FEF753FAFFF70FFBFFF70DFBBDE8A1
:1054C000384018F003B801F02BFCF8E7000000208A
:1054D000FE840200E68102004B850200DB8A0200A6
:1054E000A05E0200C787020020010020A01C00204F
:1054F00070B54FF0FF320D464FF0FF3300210646E6
:10550000FEF7FAFB044660B91A230A4A0A490B4817
:105510001AF0A3FC84F31188BFF36F8F032318469E
:1055200002DF022104F10C001BF0B8FA067045708E
:10553000204670BD178C0200E68102004B850200F8
:10554000F8B506460024094DEF79E3B29F4202D830
:105550006FF0010007E0294630461BF053FD073588
:10556000631C08B12046F8BD1C46EEE70000002091
:1055700037B504460D4671B1284612491BF042FD6D
:1055800048B929461048C4EBC40420441BF044FD2C
:10559000002003B030BD68461BF05CFB0028F8D14A
:1055A0006846FFF7CDFF0028F5DA074BC4EBC400CF
:1055B000694618441BF030FD002DE9D0014628460D
:1055C000E4E700BFE8A3020000000020014BD3E89D
:1055D000AF0F7047D400002070B51A4E0622314636
:1055E00005461FF03CFE38B34FF0FF304FF0FF315F
:1055F000FFF79AF8044608B3062229460C301BF040
:1056000053FA2146002242F20500FFF7BFFA044692
:1056100048B110F10D0F04D102210B4A0B481BF0C9
:10562000F9FC204670BD33462A6843F86929AA88E8
:10563000B280012283F868200024F2E76FF068044A
:10564000EFE700BF690000204D8C0200A85E020059
:10565000064BD3E8EFCF4CF4806CC3E8E2CF002ACE
:10566000F7D1037A19430172704700BFD4000020BC
:105670002DE9F341002104460222084601F0B0FE64
:10568000054648B120460121FFF7E2FF284602B057
:10569000BDE8F04101F080B9FFF798FF8206C0F342
:1056A000401702D5284600F0FDFB3C4D95F811311E
:1056B00083B100201BF0F4FC60B10221384A394864
:1056C0001BF0A8FC002F65D0012002B0BDE8F0411E
:1056D00000F0E8BB95F8112195F810319A4218D1E5
:1056E0000221314A2F481BF095FC002242F229008A
:1056F0001146FFF74BFA10B101212C4ADFE795F86C
:105700001131013385F81131237A43F004032372F8
:10571000D8E7224604F10108414612F82E0B1BF08F
:1057200082FC064610B1224A01210EE095F81131A3
:10573000013385F81131237A43F00403237295F87D
:10574000A7305B0708D402211A4A16481BF062FCF6
:1057500001201BF0A5FCB5E7414668461BF05CFC48
:1057600001234FF0FF304FF0FF318DF80730FEF787
:10577000DBFF044660B1082269460C301BF094F947
:105780003246214642F24E00FFF700FA0028DFD0F1
:10579000094AC9E702B0BDE8F08100BF000000205F
:1057A0005C8C0200A85E0200818C0200B28C0200B8
:1057B000D28C0200F28C02001C8D020000212DE927
:1057C000F84302220446084601F00AFE054640B1AD
:1057D00020460221FFF73CFF2846BDE8F84301F0D0
:1057E000DBB8FFF7F3FE8306C0F3401802D5284666
:1057F00000F058FB00201BF053FC2A4D064698B1E0
:1058000001210346284A29481AF06FFF95F8113103
:1058100013B101201BF044FCB8F1000F3FD0BDE8EC
:10582000F843012000F03EBB95F8113195F81021A6
:105830009A420CD2013B85F81131237A024623F0BB
:10584000040302201A49237206F0F2FBDEE74FF050
:10585000FF304FF0FF31FEF767FF04F10109074603
:1058600068B107210C301BF019F949461BF0D4FB35
:105870003246394642F22800FFF788F928B1012163
:105880000C4A0A481BF0C6FBC0E795F81131013BF2
:1058900085F81131237A23F004032372B6E7BDE8BB
:1058A000F88300BF00000020378D0200A85E0200D0
:1058B0008B100200648D0200084BD3E8EF2F22F416
:1058C0008061C3E8E01F0028F7D1530504D500220A
:1058D0000220034906F0ACBB704700BFD400002093
:1058E00077110200002307B50549CDE900036A4698
:1058F000022006F09DFB019803B05DF804FB00BF99
:10590000D3100200034610B470B10A4991F8104157
:1059100091F811210CB1944208D2013281F8112181
:105920001A7A42F004021A7210BC704710BCFFF7DA
:105930009FBE00BF00000020034610B498B10B4C7E
:1059400094F8101194F8112129B101318A4203DC35
:1059500010BCFFF733BF12B1013A84F811211A7A53
:1059600022F004021A7210BC704700BF0000002031
:1059700070B5044611BB20B324491BF043FB00BBA8
:105980002046FFF7DDFD002839DA237853B9204897
:10599000C279002A33D121461BF03EFB0123C3719B
:1059A000104670BD012B04D1A37903F0C003C02BB6
:1059B00007D00121174A18481BF02CFB6FF0150087
:1059C000EFE7134DEB79012B1CD0FFF7FFFDC30769
:1059D00007D4002CF2D020460C491BF013FB002802
:1059E000ECD1EE792146731C3046EB71FFF7C0FD18
:1059F00008B93046D5E7EB79013BEB71D1E76FF0A1
:105A00007700CEE76FF00B00CBE700BFE8A3020002
:105A100000000020898D0200A85E02002DE9F341FC
:105A2000044640B91A4A02211A481BF0F3FA002032
:105A300002B0BDE8F081002141F2090001AAFFF7A0
:105A4000A5F8054608B1144AEDE7019E0622D6F8EE
:105A50000C80124908F1010738461FF000FC28B1FC
:105A6000062238460E491FF0FAFB18B93046FDF7FA
:105A700075FFDCE7D8F801303046C4F80130BB8848
:105A80002570A4F80530FDF769FF0120D0E700BFBD
:105A9000B78D0200A85E0200D08D0200F5A30200BF
:105AA000EFA3020007B56846FFF7B8FF044BD871B3
:105AB00018B169460020FFF75BFD03B05DF804FBF9
:105AC000000000202DE9F041304E88B0F179002926
:105AD00054D196F8C24014F0010411D12C4A02218D
:105AE0002C481BF097FA0024F47116250024012796
:105AF000F379E0B283422BD8002B3FD000203AE06C
:105B00006A464FF60940FFF741F808B1224AE6E736
:105B1000DDF800C0DCF80C5095F80180B8F1000FFA
:105B20000ED0AB1C02AA1235174618685968083304
:105B300003C7AB423A46F7D1186838609B88BB80F0
:105B40006046FDF70BFFB8F1000FCDD1134AC6E751
:105B500008AB05FB003353F8182C33F8143C6946A6
:105B6000CDF80120ADF805308DF80070FFF700FD8D
:105B700001340028BCD008B0BDE8F08100210846FF
:105B800008B0BDE8F041FFF7F3BE00BF0000002001
:105B9000EE8D0200A85E02001A8E02003A8E02000C
:105BA00038B50C4661B108480578012D05D10130A2
:105BB000FFF712FD00B9257038BD00200870FBE723
:105BC0006FF01500F8E700BF0000002038B5104D59
:105BD000EB7913B10024204638BDFFF763FF04467C
:105BE00028B10C4A01210C481BF014FAF3E7EB79B9
:105BF000002BEFD1FFF766FF04460028F1D1681CA7
:105C0000FFF7EAFC04460028E5D0044AEAE700BFB3
:105C100000000020638E0200A85E0200828E020057
:105C200070B505460E464FF0FF304FF0FF3186B09D
:105C3000FEF77AFD0446A0B102210C301AF02EFFC7
:105C4000094A4670057003A9204605230095FEF712
:105C500059FD0022214642F20C00FEF797FF06B0E4
:105C600070BD6FF06800FAE7D400002008B50C4B57
:105C70000246400903EB80001BF09AFA02F01F0372
:105C800040FA03F313F0010006D122B905481BF0D6
:105C90008FFA40F3C01008BD6FF07700FBE700BF3C
:105CA000BC1C0020D4000020084A430902EB8302F8
:105CB000012300F01F008340DB43D2E8EF0F1840C0
:105CC000C2E8E10F0029F8D1704700BFBC1C0020DA
:105CD00030B587B000220023604816F04BFE044622
:105CE000002840F098805E481BF062FA10F0010333
:105CF0005B4D4DD02B1D93E8070006AB03E9070071
:105D000058481BF055FAC0F3401355481BF050FAA1
:105D10000446002872D07BB10C2253490DEB0200DF
:105D20001FF09DFA0446002872D000210846FFF7B4
:105D300077FF044600286BD14A481BF039FA420528
:105D400001D5FFF7B9FD0023ADF80930BDF80E30DD
:105D50009DF80C00ADF80530BDF810308DF804004A
:105D6000ADF80730431E58420DF1090158411BF0B0
:105D700012FA044600284BD14FF0FF304FF0FF31AC
:105D8000FEF7D2FC0546002848D16FF068043FE0DA
:105D900034481BF00DFA10F0800F344A0ED04FF447
:105DA00080749089D1891269ADF80C40ADF80E006D
:105DB000ADF81010ADF812300592A1E72C4C03ABF2
:105DC0002068616803C3A068186092F8D93024483D
:105DD0001C0744BF05238DF80D301BF0E9F980073F
:105DE00006D53023ADF810306023ADF80E3087E7CC
:105DF0001B481BF0DDF94107F3D481E743B10146AD
:105E0000FFF70EFF044618B9174B2861C3E90100DC
:105E1000124816F021FE204607B030BD072201A926
:105E20000C301AF041FE2246294642F20B00FEF7E2
:105E3000ADFE04460028EBD19DF80D10012001F0C5
:105E40000101FFF7EDFE04460028E1D1064B06AA4A
:105E500012E9070083E80700DAE700BFD81C00203A
:105E6000BC1C0020D4000020CC1C0020000000201E
:105E7000D45F02004422002110B508481FF0E7F962
:105E8000064B03F11C001C461DF02AFC04F13000F7
