:1000000070850020652E0000B7020200512E00000E
:10001000512E0000512E0000512E0000512E0000E4
:100020000000000000000000000000009D2E000005
:10003000512E00000000000071300000512E000021
:10004000F1300000F1300000F1300000F13000002C
:10005000F1300000F1300000F1300000F13000001C
:10006000F1300000F1300000F1300000F13000000C
:10007000F1300000F1300000F1300000F1300000FC
:10026000F1300000F130000069730100F13000004E
:10027000F1300000F1300000F1300000F1300000FA
:10028000F1300000F1300000F1300000F1300000EA
:10029000F1300000F1300000F1300000F1300000DA
:1002A000F1300000F1300000F1300000F1300000CA
:1004800053B94AB9002908BF00281CBF4FF0FF31FB
:100490004FF0FF3000F00CB8ADF1080C6DE904CE60
:1004A00000F018F8DDF804E0DDE9022304B070473D
:1004B000704700BF034611F8012B03F8012B002AF7
:1004C000F9D17047034613F8012B002AFBD1181A03
:1004D000013870472DE9F0478C468E46089E154638
:1004E00004461946002B40F0D080724547D9B2FA35
:1004F00082F74FB1C7F120030EFA07FCBD40BC40A4
:1005000020FA03F343EA0C0C4FEA154EA8B2230C71
:10051000BCFBFEF80EFB18CC08FB00F943EA0C43C9
:10052000994528D9EB1808F1FF3204D2994502D930
:10053000A8F102022B44A3EB0903A4B2B3FBFEFC17
:100540000EFB1C330CFB00F044EA0344A04214D918
:100550002C190CF1FF3304D2A04202D9ACF10203F2
:100560002C44241A43EA02401EB1FC4000233460AC
:100570007360BDE8F0874246DDE76346F1E7002A95
:1005800079D0B2FA82F3002B3FD01946C1F1200393
:1005900002FA01F500FA01F42EFA03F20EFA01FE56
:1005A00020FA03F3AFB243EA0E034FEA154EB2FB53
:1005B000FEFC0EFB1C201A0C0CFB07F842EA004262
:1005C00090455AD9AA180CF1FF3004D2904502D9AF
:1005D000ACF102002A44A2EB08029BB2B2FBFEFC83
:1005E0000EFB1C220CFB07F743EA02439F4246D94D
:1005F000EB180CF1FF3204D29F4202D9ACF1020297
:100600002B44DB1B42EA004202E0AEEB0203012274
:100610004FEA154EAFB2200CB3FBFEFC0EFB1C33B1
:100620000CFB07F840EA034398452AD9EB180CF174
:10063000FF3004D2984502D9ACF102002B44A3EB61
:100640000803A4B2B3FBFEFC0EFB1C330CFB07F744
:1006500044EA0344A74216D92C190CF1FF3304D203
:10066000A74202D9ACF102032C44E41B43EA004048
:100670000F46114678E71F2188E76046ABE76246E0
:10068000BFE76046DBE76346EFE7734506D916B977
:10069000002108466DE7C6E9000EF9E7B3FA83F7D3
:1006A00087B9734501D3824207D8841A6EEB0303DE
:1006B00001209C461EB900215BE73846FAE7C6E9EF
:1006C000004CF8E7C7F1200CBB4000FA07F422FA0F
:1006D0000CF520FA0CF1BA401D432EFA0CF30EFA79
:1006E00007FE4FEA154941EA0E011FFA85FEB3FBEA
:1006F000F9F809FB18300B0C08FB0EFA43EA00432B
:100700009A4540D9EB1808F1FF3004D29A4502D936
:10071000A8F102002B44A3EB0A0389B2B3FBF9F85A
:1007200009FB183308FB0EFE41EA03418E452CD924
:10073000691808F1FF3304D28E4502D9A8F10203EB
:10074000294443EA0040A1EB0E01A0FB0298414579
:10075000CE46434602D306D14C4504D20138B9EB0C
:10076000020E68EB0503002EA5D0B4EB0E0261EB80
:10077000030101FA0CFC22FA07F3F9404CEA0303E7
:10078000C6E9003197E74046C5E74346D9E7000090
:100790000022F0B585B0114640F6034002AF04F0E8
:1007A00071F9044600285BD103F01CFF214641F299
:1007B00003003A1D04F066F90446002850D17A6817
:1007C000C54DD16805F17803D1F80100D1F80510C5
:1007D00003C3104603F02AF8214641F201003A1DF6
:1007E00004F050F9044600283AD17868C3685A7872
:1007F00085F870205A88A5F872201A7985F871203A
:10080000B3F80720A5F87420B3F80530A5F87630C2
:1008100003F00CF8214641F202003A1D04F032F9CF
:100820000446E8B9D7F804C005F18006DCF80C20CE
:10083000531C4132344618685968083303C4934244
:100840002646F7D1604602F0F1FF95F87C305B0652
:100850000AD40121A14AA2481FF090FF6FF01204B0
:1008600020460C37BD46F0BD002142F203003A1D80
:1008700004F008F904460028F2D17A68994BD1684F
:10088000D1F80100D1F8051003C3104602F0CEFFE5
:10089000214642F202003A1D04F0F4F80446002812
:1008A000DED17E68F468B4F801309AB292B1E27891
:1008B00082B1A5F8FC30E378032B06D00322022195
:1008C00000928748884A1FF0ECFBE278874811467F
:1008D00022F0C5FB304602F0A9FF1F2395F87C608B
:1008E000A5F8103116F0200619D14FF0FF304FF067
:1008F000FF3103F097FE0446002800F09C8102219E
:100900000C301FF0B0FD01232146037046703246C3
:1009100040F66D4004F0B6F804460028A0D195F8E2
:100920009C301E0712D5002142F21C003A1D04F033
:10093000A9F80446002893D17868C368D3F8012049
:10094000D3F80530C5E9382302F070FF95F8D830A8
:100950005C0610D5002142F22A003A1D04F092F8FC
:10096000044600287FF47CAF7868C3685B7885F81C
:10097000123102F05BFF4FF0FF304FF0FF3103F018
:1009800051FE0646002800F0568108210C301FF069
:100990006AFD95F8D84040F2022314F0400F08BFDA
:1009A00003230246A0074CBF43F02C0343F00C0383
:1009B000A10695F8D91048BF43F0400311F0090F84
:1009C00018BF43F4006304F0010443EA041000215B
:1009D0001FF003FF0022314642F2010004F052F8FA
:1009E000044600287FF43CAF95F87C30B5F8FC1045
:1009F00098065CD4C9B941F205003A1D04F042F8EA
:100A0000044600287FF42CAFB5F8FC307C684BB965
:100A1000E368B3F80120A5F8FC209A883348114612
:100A200022F01DFB204602F001FF4FF0FF304FF097
:100A3000FF3103F0F7FD0446002800F0FC80082198
:100A40000C301FF010FD95F8D8300246D90738D485
:100A50004FF0005126481FF0C0FE2146002240F60C
:100A6000014004F00FF8044600287FF4F9AE014677
:100A70003A1D4FF6014004F005F800283ED01D4A0B
:100A8000022117481FF07AFEEB79002B40F0C3805B
:100A900004F06CFF044600287FF4E2AE06F018FC78
:100AA000044600287FF4DCAE03F0DAFED8E6002925
:100AB000BBD10121104A0A481FF060FE6FF0040408
:100AC000CEE603A1D1E90001C5E700BFAFF3008086
:100AD000908800020080002000000020567F020065
:100AE00068560200D80000207A7F02000001002032
:100AF00010880002E37F0200C07F02007B686E4620
:100B0000DC688AB0B4F80130042B96BF574A5849C4
:100B100052F8231002AAD3614FF40073554813848E
:100B2000554BC2E9050142F8103F4FF413515348A9
:100B30001FF033FEB4F80120B546022AB4F80330A2
:100B400049D1052B47D84E4A52F823106E468AB039
:100B500002AAD3614FF400734A481384464BC2E99A
:100B6000050142F8103F4FF4135144481FF015FEA1
:100B7000B546637994F806C0032B98BF424AB4F88F
:100B80000760D4F809006C468CB094BF52F823106B
:100B9000374902AAC2E9073C4FF40073DFF8ECE0E2
:100BA00093853B4BC2E905E1C2E909604FF47351FB
:100BB00042F8103F31481FF0F0FDA546786802F07A
:100BC00035FE00214FF602403A1D03F05BFF04465C
:100BD00018B1304A54E72649B8E77868C368B3F8D3
:100BE0000130A5F8C13002F021FE95F8C1305A0756
:100BF0007FF54AAF21464FF603403A1D03F042FF0E
:100C000008B1254A3CE77868C3685B7885F8C0304E
:100C100002F00CFE38E72E78002E7FF439AF95F8FD
:100C2000C1309B061FD54FF0FF304FF0FF3103F06E
:100C3000F9FC044610B96FF0680411E606210C3087
:100C40001FF011FCD5F8013021460360134B3246EA
:100C50009B8883804FF6064003F014FF044600286B
:100C60003FF416AFFCE56FF08504F9E5E4590200A6
:100C7000FD7D0200078002000400000168560200AA
:100C8000CC59020020800200BC59020038800200CA
:100C900007000001658002008E8002000100002034
:100CA00070B5044606F03AFB0A22014606461420B7
:100CB00006F020FC054608B314230A2184F86D30A1
:100CC00084F86C600C301FF0CEFBB4F86A30294613
:100CD0000380A38A4380E38A8380238BC380E369F4
:100CE0000381206820F01BFA30B907A3D3E9002361
:100CF00004F170001BF04EFE002070BD6FF00B0081
:100D0000FBE700BFAFF30080D0121300000000002B
:100D1000034B8A881B68098802481EF063BD00BF28
:100D2000EC210020166D0200034B4A781B680978FD
:100D300002481EF057BD00BFEC2100203F6D0200AD
:100D4000002008B50C4BD3E8EF1F012904D1C3E8FC
:100D5000EC0FBCF1000FF6D105D008481EF042FDA3
:100D60006FF00F0008BD064B064959604FF4007143
:100D7000D9821360F6E700BFFC010020606D02001D
:100D800070090020F85702000022002301481BF0E0
:100D900001BE00BF1009002038B50025094B0A4AE2
:100DA0000A4C1B680A4812681EF01CFD094B20689B
:100DB0001D7010B105F03EFC2560BDE83840FFF71E
:100DC000E3BF00BFE4210020EC210020F02100203F
:100DD000A16D02001D4E00200022F0B5134B87B01C
:100DE00013481A701EF0E5FA014612481EF0E1FAA7
:100DF00002460B1A10481EF0DCFA04460F481EF09B
:100E0000D8FA05460E481EF0D4FA0E4E0E4F36683C
:100E10003F68CDE904670D4E3668CDE90045CDE960
:100E200002060B481EF0DEFC07B0F0BD1D4E002090
:100E3000E0210020DC210020D8210020D421002046
:100E4000D02100201C410020E4210020EC210020C2
:100E5000CD6D020007B500220D4B0E481A701EF032
:100E6000A8FA01460C481EF0A4FA091A0B481EF015
:100E7000A0FA0B4B02460B481B680068CDE9003016
:100E8000094B0A481B681EF0ADFC03B05DF804FB7B
:100E9000C1050020E0210020DC210020D421002019
:100EA0001C410020E4210020EC2100204A6E0200B9
:100EB00030B5134D89B003AC0FCD0FC42B68114969
:100EC000236000230222009303A804F00FFE00F128
:100ED0000C03012B014607D840F6354200230A488F
:100EE0001BF058FD09B030BD18B108481EF07AFC5F
:100EF000F8E7074B07491A6807481EF073FCF1E74B
:100F000020570200E857020010090020966E0200E8
:100F1000EC210020AD6E0200BD6E0200F0B5064669
:100F20000C469DB029B135481DB0BDE8F0401EF01B
:100F300059BC1FF0C1FE324B1A2218603F232146D4
:100F40000AA8099323F063FDEFF31183202282F3B3
:100F50001288BFF36F8F2B4A2B4F12683A6083F3CE
:100F60001188BFF36F8F304611A906F095F806ACD3
:100F7000002829D1139D2B78032B38D8DFE803F004
:100F80000231333521492046FFF794FAAB790594B5
:100F90006A781E210492AA7809A80392EA7802923C
:100FA0002A7901926A790092194A1DF093FF194B30
:100FB0003A681B68BDF85C10CDE90032164B174843
:100FC0001B6809AA1EF00EFC154B214658690690B5
:100FD00030461FF026FF014612481EF003FC1DB0EC
:100FE000F0BD1149CFE71149CDE71149CBE70A21FF
:100FF0002046104A1DF06EFFC8E700BFD96E020000
:10100000F021002018410020E4210020F66E0200AB
:10101000186F02001C410020EC2100203B6F0200F1
:1010200020570200786F0200FD6E0200046F02007C
:101030000E6F0200289602002DE9F04F0024DFF821
:10104000A8A0DFF8A890DFF8A8808DB04FF47A70E0
:101050001EF0B2F99AF80030D9F80020002B34D0F5
:101060000024244B244819681C600B911EF0A1F940
:10107000014622481EF09DF9054621481EF099F9C7
:10108000034620481EF095F906461F481EF091F9C8
:1010900007461E481EF08DF9DFF874C0DFF874E0D3
:1010A000DCF800C0DEF800E0CDE905020B9AA1EB08
:1010B000050B0091CDE907CECDE90367CDE9015BD2
:1010C0001548910A1EF08EFBC0E7D8F800001346C1
:1010D0001249134A0134002808BF0A462146114824
:1010E0001EF080FBB2E700BF1D4E0020EC21002067
:1010F000F0210020C8210020E0210020DC21002078
:10110000CC210020D8210020D4210020D021002093
:101110001C410020E42100209B6F0200966F02001A
:10112000926F02001A70020008B504481EF05DF9C3
:10113000BDE8084002481BF087B900BFDC21002051
:10114000A806002007B50B481EF04FF901210A48F8
:101150001EF044F9094B07481968094B1A68094BF6
:101160001B681EF026F9009007481EF03BFB03B0F9
:101170005DF804FBD0210020FC010020EC210020C0
:101180001C410020E4210020547002002DE9F843A6
:10119000F4225521354823F03AFC354E354F4FF0B7
:1011A000FF324FF0FF3334481BF082F9F4213368EB
:1011B0003A6832481EF016FBDFF8C48098F8003019
:1011C000002BECD02F4B1B781BB914201EF0F4F829
:1011D000F4E740F21B6200232B481FF0D8F80546C5
:1011E00018B92A481EF001F9E8E700F10C0420467E
:1011F0000B21DFF89C901FF02BF9F42220461B49AD
:101200001FF037F948461EF0F0F82946214807F04C
:1012100005F8041E1CDAD9E8EF3F013BC9E8E23FBC
:10122000002AF8D1284602F001FB14F10B0F01D17E
:101230000120CBE718481EF0D8F814F1800FAED08B
:1012400014F16E0FABD0214614481EF0CBFAA6E77E
:10125000134A1368F4331360124BD3E8EF1FF431D1
:10126000C3E8E21F002AA9D0F7E700BF284D0020FD
:10127000E4210020EC210020780600209E7002006E
:101280001D4E0020C1050020E8070020D4210020C9
:10129000E021002070090020D8210020D070020039
:1012A000C8210020CC21002073B50446EFF3118340
:1012B000202282F31288BFF36F8F214A214E1268D9
:1012C000326083F31188BFF36F8F00211E481EF038
:1012D00085F81E481EF082F81D481EF07FF81D4854
:1012E0001EF07CF81C481EF079F81C4B1C4A196053
:1012F000012313701B4A13701B4A117829B913700C
:101300001A4800231A4A1BF045FB1A481BF0F6F84E
:10131000042518481BF098F8013DFAD116481BF037
:1013200093F8164B32681B681548CDE90032154B0F
:10133000228D1B68E18C1EF055FA02B070BD00BF13
:1013400018410020E4210020E0210020DC210020C1
:10135000D8210020D4210020D0210020C821002045
:101360001D4E0020C10500201C4E00204009002019
:1013700090D00300A8060020780600201C41002021
:10138000DD700200EC21002010B521F054FA134C5E
:101390002060002003F048FD014620B110481EF0F7
:1013A00021FA002010BD21F046FA0E4B2268186089
:1013B00001460D481EF016FA0C490D4821F024FF95
:1013C0000C490D4821F020FF0C4806F099FA8021C5
:1013D0000B481EF007FAFFF7D7FCE2E7E8210020F0
:1013E0002B710200EC21002042710200B10E0000BE
:1013F00010090020550E000040090020F0010020D7
:10140000A67102002DE9F84F8A4600AF002974D07A
:1014100004680E1F361BF50826F0070604EB0608C5
:10142000B8F802B01BF0010B16D1E94688B06A4645
:10143000334BCDE90531032342F8103F4FF4C2513D
:101440005B46304800F0A4FFCD468BF31188BFF314
:101450006F8F0423184602DF294620461DF0CDFF7A
:10146000284434F83030C01A854217D0E94688B095
:101470006A46254BCDE9053A032342F8103F002385
:101480004FF4C2511F4800F083FF0023CD4683F381
:101490001188BFF36F8F0423184602DFB8F80230BB
:1014A000294623F00103A8F8023020461DF0A5FFCD
:1014B00005EB000804EBC8035B88DA0708D4414653
:1014C00020461DF0E3FF4246294620461EF023F841
:1014D000A65BAE1B04EBC6035B88DB0709D4314671
:1014E00020461DF0D3FF2A46314620461EF013F851
:1014F0003546294620461DF085FFBD46BDE8F88FDC
:1015000021720200E8560200F87102002DE9F04F46
:1015100091B0009302F004030293C2F3C2030133BB
:10152000840705460E46DDF868A00392059340F057
:101530009C81041D002849D101F00706341DC6F125
:101540000806009B00274FF004085A1E4FF0FF3397
:10155000B9460193BB46434604970DB100992160FB
:101560000598002800F3D6808F480099814203D364
:101570008E488142C0F0CE800399601B11F0020CAE
:1015800040F0D680B9F10F0F00F2CF80002D00F0AF
:10159000D68009F140010DEB010E0199C0F38700DF
:1015A0000EF8200C0EF8101CBCF1000F00F0C380E8
:1015B00060F07F000EF8200C013709F10109C5F138
:1015C00008014FF6DA7E043406918CE00729B8D87A
:1015D0006FF01B0011B0BDE8F08F7A285BD84B2864
:1015E0000FD8472857D829282ED8252850D052D888
:1015F000202818BF23280CBF4FF0010B4FF0000B21
:1016000071E04C382E2846D8DFE800F06D4545459E
:101610004545454545454545484545454545454577
:1016200045564548485656566D486A456D451848D2
:101630001845457F7C48454548457C0000204FF0D3
:10164000000B4FF0040835E001212A38C0B201FA3E
:1016500000F010EA0E0F46D110F0625C2CD110EAB7
:10166000010B40D06046013C4444B4FBF8F408FB55
:1016700004F425B1A3EB050CA444B445A8D8002874
:1016800070D00599013905915AF8041B009164E75F
:101690000199013901914FF0000B24E012F8010C7F
:1016A0006C2834D1002012F8023C83466C2BC8D140
:1016B0004FF008084346D6E70AF1070A2AF0070A5E
:1016C000073424F00704FAE802BC35B10698204438
:1016D000B0423FF67DAFC4E900BC4FF0000B0834C8
:1016E0004FF00808434612F8010F002853D0BBF111
:1016F000000F7FF472AF2528F5D14FF0010B019B4D
:10170000013301934FF00408ECE7584697E70020B7
:101710008346A8E7039988077FF551AF4FF0010C86
:10172000601BB0F5007FFFF42DAF6FF0150051E79F
:101730004FF0000CF5E70498013004903DE7BCF150
:10174000000F01D0013638E70298023600287FF4F6
:1017500034AF0098CDE90632FEF7B4FEDDE906327B
:1017600006442AE7042B08D10AF1040015B1DAF87F
:101770000010216082460434B5E70AF1070323F024
:10178000070303F1080A1DB1D3E90001C4E9000110
:1017900008230834A7E7631BB3F5806FC5D23DB9B2
:1017A000A6F10804E01815E71C4B0200949C020007
:1017B000029A9B0828602B709DF81030AAB1EB703C
:1017C000AF702FB1002208A8C5F1010C91450ED1D0
:1017D0004FF0000AC5F101030DF1200801930DF14E
:1017E000300BD14512D1601BF4E66B70E8E710F8BE
:1017F000013B190608D50CEB040EB64503F07F0338
:101800003FF6E6AE04F8013B0132DFE71FB198F97D
:101810000020002A17DB029BD3B11AF80B2004F832
:10182000012B0022019B18191044B0423FF6D0AEA4
:1018300098F80000009904F8010B2046039223F069
:10184000C0F8039A14440AF1010A08F10108C8E734
:1018500098F8002055F822300093029B009845F834
:101860002230FEF72FFE421CDCE76FF00D00B1E6E0
:101870002DE9F04F97B000AF05468A46C7E90A3216
:1018800049B903784678807800EB830028445645B0
:1018900024D8A0EB050AD7F8803095F8028003F031
:1018A0000103D7F88040FB61EB78B8F1000F0CBF63
:1018B000002404F001047B621BB1D7F880309A0742
:1018C00015D4A4B9FB6A1BB151462846BA6A984799
:1018D000564630465C37BD46BDE8F08F441C204676
:1018E000FEF7F0FD013020440AF1010ACFE7D7F8F6
:1018F0008030C3F3C0033B622B78BB619B003B612C
:101900006B687B61BB6905EB830BFB6A002B77D1AE
:101910005646D844BCB11C461BF8013B55F8230081
:10192000FEF7D0FDD7F88430013043B1D7F88830C6
:10193000A34282BFD7F8843023F814000134C34592
:101940000644E9D1D846D7F880304FF0000913F0AB
:10195000050F0CBF4FF0020B4FF0010B7B6A99454E
:10196000B7D298F8013008F1020855F823A0AE4B21
:101970009A45C0F04C81AD4B3A6A9A452CBF002382
:1019800001230AB318F8021C7869FB621DF009FFF5
:10199000FB6AC8B1EA468AB06A46A54B05937B69E3
:1019A000CDE906314FF40073ADF82030A14B42F879
:1019B000103F00234FF412519F4800F0E9FCD54638
:1019C000023E09F10109C9E723B1FB6933B9A6EB6E
:1019D0000B06F6E7D7F880309B07F2D55046FEF7A6
:1019E00071FDD7F884304BB1D7F888309C423FBFA7
:1019F000D7F88420431C22F8143001340644E0E771
:101A0000002C6AD1B8F1000F6DD0D7F8803058079C
:101A10006CD5C14607F148004246594622F0D1FF35
:101A200000220BEB0803FB600233796A8A425FD322
:101A3000D7F8802095F801B0F969920704EB0B0301
:101A400048BF0022DBB258BF4FEA5902002940F0DC
:101A5000A680D7F8801011F0040F14BF494600216A
:101A60006B70A970EA702846BA6A3969FB6A9847B0
:101A7000061EFFF62EAFBB6949462B707B6ABA6A19
:101A8000EB7085F801B0FB6A85F8028007F1480029
:101A90009847B0F10009C0F2B6803B697A6A786A6B
:101AA00003EB4201FB68414403EB4000BA6AFB6A66
:101AB000AAEB010198470028C0F2A7804FF0000B65
:101AC000B14409EB000607F1380AA34569D30021A8
:101AD000BA6A0846FB6A9847FBE644464FF000099D
:101AE00007F1380098E74446C14699E7A14697E7D1
:101AF00013F8016CDFF830C155F8260013F8021C0A
:101B00006045C0F08A80DFF824C16045386A2CBF88
:101B10004FF0000B4FF0010B38B17869C7E9013283
:101B20001DF03FFED7E90132F0B9BBF1000F1ED026
:101B3000F96949B1611C04F1280007F13004041966
:101B400004F8206CCCB20FE0D7F8801049070BD511
:101B500009F1280007F1300C09F1010100EB0C0933
:101B600009F8106C5FFA81F9013202335DE7D7F8AA
:101B700080008007DED409F1280C07F1300EF44410
:101B800009F101000CF8101C07F1580109F10209D4
:101B900051FA80F05FFA89F900F8106CE4E700214F
:101BA0005EE71BF80A3055F8239087F83730D7F8EE
:101BB00084302BB3D7F888309B4521D2D7F88430B6
:101BC00033F81B800121BA6AFB6A07F13700984796
:101BD00000281ADB0644B8F1000F06D14846FEF78C
:101BE00071FC00F101081FFA88F841464846BA6ABC
:101BF000FB6A9847002808DB06440BF1010B64E7F9
:101C00004FF00008DEE74E4663E6064661E63B6AB3
:101C1000002B3FF4DFAE0023B4E6386A0028A6D0DC
:101C20004FF0000B79E700BF1C4B0200949C0200B0
:101C30004E72020004000001A0560200014B186021
:101C4000704700BF0002002080B505460E461746CB
:101C500098461BF097F9034601F05CFA0446DFF85A
:101C60001890424649F8003039463046A84754F8A3
:101C7000090001F0E7F900BF080000002DE9F04776
:101C8000058B0446280717460CD501290CBF45F0E3
:101C9000100545F02005258387F31188BFF36F8F6A
:101CA000BDE8F087022905F0070540F09480204642
:101CB0001EF039F8052864D801A353F820F000BFBE
:101CC000991C0000D71D0000831D0000451D000069
:101CD0005F1D0000711D000001F007035A1F012A5B
:101CE0001FD8002221F00701062BD4F8008089B20A
:101CF000C4E9002209D1434603E0628B01326283CA
:101D00001B68002BF9D141F00201204621831EF00F
:101D10000AF84FF0000900286DD041F0200121831E
:101D200069E0042B0AD121F0070189B22046218302
:101D30001DF0F9FF10B141F0200121834FF00008A0
:101D4000C14658E02369D3F80090238B23F00703A2
:101D500043F006034FF00008238346464BE0236917
:101D6000D3F80490238B23F0070343F00403F1E737
:101D70002369D3F80890238B23F0070343F005036E
:101D8000E8E74FF00008C146E7E7012243F0080307
:101D9000238387F31188BFF36F8F002A3BD1B8F1FB
:101DA000000F4AD1B9F1000F02D020462C49C84794
:101DB000EFF31187202383F31288BFF36F8F238BF8
:101DC00023F008039BB22383D9063FD523F01002EA
:101DD000228303F007056669218B002EBFF67CAFD6
:101DE00000239946D4F8008021F00701C4E90033AC
:101DF00041F001012183238B03F0070AAA4502D099
:101E0000A268002AC1D1B8F1000F02D1B9F1000FC8
:101E1000DAD00022BAE7A1680029C0D00D680029F5
:101E2000BDD03346524620464F68B8471DB12B6897
:101E300029461D46F3E72B46FAE74146334652460C
:101E40002046D8F800801DF09AFFA8E79A067FF593
:101E500023AF23F02002228303F0070527E700BF0A
:101E6000ABFD01002DE9F047044607464FF001099C
:101E7000DFF84C8094FAA4F5B5FA85F509FA05F374
:101E80002E0108EB05156FEA030A24EA03042B7BF5
:101E900063B158F806301B696BB946447368042275
:101EA0002846196807EA0A071EF078F8002CE1D1E5
:101EB0003846BDE8F087284698470028F6D1ECE779
:101EC0000857020010B5002288B00E490E4821F0D4
:101ED000AEFB002200230024CDE906230E234FF49D
:101EE0004072CDE90334CDE90144084B0849009420
:101EF00008481AF0CBFD0849064821F0E2F92046CF
:101F000008B010BD1D1F0000C00E002039220000C7
:101F1000885B0020380A00200D73020001481AF087
:101F200093BA00BF880600202DE9F047804621487B
:101F30000F461EF017F80646002833D00025284625
:101F4000BDE8F087237B83B12368DB680BB12046B3
:101F50009847636883F8069023681B69D3B9636860
:101F60000422204619681EF019F801361034544531
:101F7000E8D3B8F1000FE2D0002DDFD02846FFF7FC
:101F800071FF0546002FF7D0002140F2391021F0F3
:101F900058FAF1E7204698470028E0D009FA06F3FE
:101FA0001D43E2E705464FF00109034CDFF80CA0A2
:101FB000DDE700BF04220020085702001857020086
:101FC000014B53F8200070474858020008B50346FB
:101FD00008462BB1044A136000F03AFC002008BD0B
:101FE0006FF01500FBE700BF0402002010B5044CA1
:101FF000237813B903481AF027FA0123237010BD80
:102000001E4E00208806002010B5044609481DF029
:10201000A9FF3CB1084BD3E8EF1F0139C3E8E21F29
:10202000002AF8D105481BF0D1FABDE81040044859
:102030001AF00ABAFC21002000220020C00E002065
:10204000880600200022044BD3E8EF0FC3E8E12FFD
:102050000029F9D1704700BFFC21002070B5FFF7BF
:10206000F1FF0546074C084EB44200D370BD6368CB
:102070005B792BB123685B6813B1294620469847EA
:102080001034F1E7085702001857020010B5044C4D
:10209000044920461DF0C1FC034B1C6010BD00BF6D
:1020A000D405002034580200F421002000230D4AFA
:1020B00010B513700C4A0D4913600D4A0D4813609A
:1020C000FFF784FFFFF7E2FF0B4B0C4918468B42EA
:1020D00000D310BD1A1A5C6812110132227110333C
:1020E000F5E700BF1F4E0020FC21002040420F00FA
:1020F0000022002061FF010008570200185702006B
:1021000001460022002301481DF0A8BCD405002090
:1021100001481DF03FBD00BFD4050020024B014621
:1021200018681DF092BD00BFF421002001481DF089
:10213000C7BD00BFD4050020F8B5284B1B78002B85
:102140004AD0FFF7E5FF0446002842D1244B254D35
:102150001B68002B19DD21F022FA4FF47A76A0FBE0
:10216000060747F61222002306FB0171FEF788F9E5
:10217000D5E90032C01A40F2E93361EB020198421E
:1021800071F1000101D3FFF769FFD5E9003213F5C2
:102190007A7342F10002C5E90032ECB1BDE8F840C3
:1021A000FFF7C4BF6B685B7923B12B6821462846D3
:1021B0001B6898471035B542F4D32046FFF7AEFFB1
:1021C000094BD3E8EF1F0139C3E8E21F002ABDD055
:1021D000F7E7064D064EEEE70020F8BD1E4E002044
:1021E000FC210020B80E0020002200200857020029
:1021F0001857020070B50D4D297861B90120FFF71D
:1022000093FE0B4C0B4EB44206D3FFF795FF00280C
:10221000FBD101232B7070BD63685B791BB1236810
:1022200020469B6898471034EDE700BF1F4E002002
:10223000085702001857020000212DE9F84308460C
:10224000FFF772FE044648B340F21B684FF00009E6
:1022500000F060FF1A4B1B4A1B58136033B11A4B36
:102260001B68092B02DD19481AF0EEF80025184FFB
:1022700044B12046FFF7F6FD044618B94FF0FF3889
:102280004FF0FF39FFF758FF064628B9B5B90F4898
:1022900042464B461AF00CF93546E9E74FF0FF3855
:1022A0004FF0FF39D4E72B689B691BB10022284609
:1022B000114698471035BD42F5D3E8E7054DFAE7DA
:1022C00008000000F82100200022002088060020DD
:1022D000185702000857020013B518481DF042FEB7
:1022E000174B1B7873B1EFF31184202383F312880B
:1022F000BFF36F8FFFF720FF84F31188BFF36F8F59
:1023000002B010BD0F4B1B68002BF9D050B9002252
:1023100000230D48CDE9002347F6122200231BF0CD
:102320001DF9EDE70928EBD107481BF04FF90748E5
:1023300002B0BDE810401AF087B800BF00220020AC
:102340001F4E0020F8210020C00E0020880600202B
:1023500010B5064B04461B6898472146A060044808
:102360001DF0F9FBBDE81040FFF7B6BF04020020E6
:10237000D4050020044A054B9B1AB1EBD30F34BFA0
:1023800052F8310000207047005602000857020042
:102390002DE9F04F8FB0C1F34A2604AF0D469046A9
:1023A000B8607B600C0D002E61D04FF000090A234D
:1023B0004FF0040B07F1140AFE60C7E90799C7F84C
:1023C00024900093CDF808B0CDF804A007F11C03C9
:1023D0004A464046F968FFF74BFAB0F5006F0346EE
:1023E0001CD36C468AB0D8F8041004AB24481A46B3
:1023F000C3E9050140F2FF71D9614FF400711984FE
:10240000204B42F8103F4FF412514B461E48FFF745
:10241000BFFFA5462C37BD46BDE8F08FC0F30A06C6
:1024200004F11700184420F0070080083B60FFF714
:1024300067FE66F35325044680B13B6800F1100146
:10244000C7E908390A23F961CDE901AB0093404699
:102450000E4AF96807F11C03FFF70AFA66F35325E1
:102460002A4620467B68B9681DF0B8FDD2E704F122
:10247000170020F007008008FFF742FE0446EDE752
:102480002273020004000001B0560200AFFF0100F9
:102490002DE9F04F87B00546DDE9106BDDE9127AD2
:1024A000884614469946BFB110213B465A46002043
:1024B000CDF800A0CDF814A0FFF728F8B0F5006F14
:1024C00001460BD340F2FF730221184A184807B0A7
:1024D000BDE8F04F1DF0DBBD3946384604F0070378
:1024E00005F00704E40044EA831444EA402444EA83
:1024F000065406F11700084420F0070080080391F5
:10250000FFF7FEFD054640B13FB13B465A460399F1
:10251000CDF800A01030FEF7F9FF4B4622464146A9
:10252000284607B0BDE8F04F1DF058BD61730200AA
:10253000B0560200406820B1034BC01A40F3CF00F0
:1025400070474FF0FF307047005602000EB403B5DD
:1025500003AB53F8042B01460448019301F00EF835
:1025600002B05DF804EB03B0704700BFF100020059
:10257000CA0605D48B064CBF02490349FFF7E6BFE4
:10258000704700BF9A730200997302002DE9F04F63
:1025900089B098469DF85090159B044606930D46C9
:1025A000DDE916A3189F05920493B9F1000F00F01E
:1025B000B08007F4807307931DF0EEFC07F0020B68
:1025C0000246002874D020467749FFF7BFFF064631
:1025D000BBF1000F08D017F0440F6BD12A462046FC
:1025E0007249FFF7B3FF064407F0010353B1704B84
:1025F000204653F829206F4B6F49002A08BF1A461E
:10260000FFF7A4FF07F48073002B07F0080318BF3F
:102610004FF00008002B79D0684B204653F8292052
:102620006749FFF793FF0546059B2BB11A462046E5
:102630006449FFF78BFF0544B8F1000F05D042460F
:1026400020466149FFF782FF054460483544069BF8
:102650001BB122465E491DF073F8049B002B00F06D
:102660008E80DDF810803946B8F1100F204628BF63
:102670004FF010080026FFF77BFFB54250DC002624
:10268000334620461AF803205249FFF75FFF013610
:10269000102E4BD0710703D120464F49FFF756FF4C
:1026A00046453346EDD320464C49FFF74FFFEEE752
:1026B00006468DE74A4B1868002894D0494B4FF4E2
:1026C0007A7B1B684FF03C0CB5FBF3F5B5FBF0F1E2
:1026D0004FF4616300FB11550BFB05F5B1FBF3F201
:1026E000B5FBF0FE03FB121100FB1E55B1FBFCF322
:1026F0000BFB05F5B5FBF0F50CFB13112046009123
:10270000CDE901E53849FFF721FF6CE707F008053F
:102710008AE7B8F1010F4D460CBF2C48334896E7C5
:1027200020462D49FFF712FF0136A6E70026204676
:102730002F49FFF70BFF33461AF803202046A2F17A
:1027400020035F2B28BF2E222A49FFF7FFFE013608
:10275000102E0DD0720703D120461F49FFF7F6FE59
:10276000B0453346E8D820461B49FFF7EFFEEEE7B9
:10277000049BC244B3EB080304937FF472AFB9F136
:10278000000F0AD0FB0704D520460A4A0A49FFF782
:10279000DDFE39462046FFF7EBFE204609B0BDE8D6
:1027A000F04F1DF098BC00BFA1730200A57302009A
:1027B000585802009C730200437E02006C580200CD
:1027C000CA730200D0730200D4730200F100020049
:1027D0007D350000D9730200E1730200DF7302004F
:1027E0000C22002008220020AE7302001F0102000C
:1027F000E3730200E573020042F20F7373B58B427C
:1028000028BF0B4605680446052168460D4A1CF0A2
:1028100061FB0646636828460B225B680A491DF087
:102820004CFC63683246694628465B681DF045FCEF
:1028300063681B2228465B6804491DF03EFC02B019
:1028400070BD00BF61790200219902000599020064
:1028500000210123064A904206D8064A01B9012305
:102860001360054B18607047012140085B00F2E7D8
:1028700040420F00082200200C220020F8B50D462F
:102880000446064F4618B44201D12846F8BD14F854
:10289000011BBB6801485B689847F4E7404C0200A5
:1028A000014B036000207047B458020008B503488C
:1028B000034A0021121A1DF0F6FC08BD1008002082
:1028C000844F0020074808B5074A0849121A1DF02E
:1028D000ECFCBDE808400648064A0749121A1DF0FC
:1028E000E4BC00BF000000200C080020949C020003
:1028F0000000002000000020949C02002DE9F04719
:1029000006460C4600AF002936D0D1E90012E94650
:102910008AB06D46A3684FF0050AE8461F48CDE926
:102920000723CDE9050148F810AF002342464FF4D4
:1029300021511B48FFF72CFDD4E90312CD466369F2
:10294000AD461848C5E90723C5E90501C5F810A03B
:10295000002342464FF421511148FFF719FDCD469F
:10296000E3690121104A0E481DF091FBA369012182
:102970000E4A0B481DF08BFB012E07D1EFF30583A8
:102980000B4A31460648103B1DF081FB214630467C
:1029900019F088FABD46BDE8F08700BF2274020036
:1029A000E056020051740200807402008F7402002D
:1029B000BD74020030BFFFF7FDBF00BF2DE9F0413D
:1029C00005460B4EDFF82C80324606EB0807CC1B81
:1029D0002046094921F0F5FFA01942460021083C94
:1029E00022F015F82C6707F10800BDE8F08100BF60
:1029F00000000000080000001857020010B5244C29
:102A0000244925481DF05EFCA36A99013ED5224861
:102A100022491DF057FC1E20A36ADA0104D51E4886
:102A20001F491DF04FFC1F20194CA36ADB0204D57F
:102A300019481C491DF046FC0220A36A1C0304D55A
:102A4000154819491DF03EFC2120114CA36A590379
:102A500004D5114815491DF035FC2220A36A9A03BC
:102A600004D50D4812491DF02DFC2320084CA36A03
:102A7000DB0304D508480F491DF024FC2420A36A79
:102A80006FEA03436FEA1343A36210BD1D20C3E73F
:102A900000ED00E0D0740200E0560200E87402008D
:102AA000FB740200157502003F7502005D7502009F
:102AB000827502009C75020070B506460D46294CD1
:102AC00029492A481DF0FEFBA36ADB0647D52748A3
:102AD00027491DF0F7FB1120A36A1C0704D52348E2
:102AE00024491DF0EFFB12201E4CA36A990712D552
:102AF00021491E481DF0E6FB636BA26A120609D548
:102B000001211E4A19481DF0C2FA1EB1A36A23F022
:102B10008003A3621320134CA36ADE0704D5134875
:102B200017491DF0CFFB1420A36A9C0604D50F485B
:102B300014491DF0C7FB15200A4B9A6AD10658BFED
:102B40009A6A9A6A920642BF5A6A22F400525A62FC
:102B50009A6A42F0FF029A6200232B7070BD102027
:102B6000BAE700BF00ED00E0C7750200E0560200C2
:102B7000DD75020010760200237602003B7602002B
:102B8000517602007076020070B506460D46284C5C
:102B9000284929481DF096FBA36AD9043CD526484C
:102BA00026491DF08FFB1720A36A1A0504D5224879
:102BB00023491DF087FB18201D4CA36A9B0512D5E5
:102BC0001D4820491DF07EFBA36BA26A100409D5A5
:102BD00001211D4A18481DF05AFA1EB1A36A23F4B8
:102BE0000043A3621920124CA36A590504D5124868
:102BF00016491DF067FB1A20A36ADA050ED50E48A8
:102C000013491DF05FFB1B20094A936A43F47F437D
:102C1000936200232B7070BD1620C5E7A36A9B0446
:102C2000F2D505480B491DF04DFB1C20ECE700BF19
:102C300000ED00E09F760200E0560200B57602004B
:102C400010760200C6760200DF760200F4760200FB
:102C50000F770200707602002DE9F0418AB0674BD1
:102C60000446D3F80480002500AFC8F3080685F3B6
:102C70001188BFF36F8F02F07F43B3F17F4F07D10D
:102C800002F00C03082B12D15D495E481DF01AFBBF
:102C900000252C460023FB71F31E092B00F28E80C9
:102CA000DFE803F00A8487808C8C8C8C8C8A100778
:102CB0004CBF0C460125EDE7534952481DF002FB7D
:102CC00000234E4EFB71F36A9A0705D54F494D48D4
:102CD0001DF0F8FA00232DE0F36A002B01DA4C49CD
:102CE000F5E7F36A5B00F5D54A4946481DF0EAFA74
:102CF0007369A26943F480737361BFF34F8FBFF3AD
:102D00006F8F32F8023C726922F480727261BFF3F5
:102D10004F8FBFF36F8F03F47F42B2F55F4F2BD11C
:102D2000DBB2022B28D1236801213B4A35481DF034
:102D3000AEF92368FA79DAB907F1080604F1200C34
:102D4000324620686168083403C264451646F7D1EC
:102D50007A6A002D4FD0C2F3080121B96FEA5222DE
:102D60006FEA42227A62184607F10801FFF7C6FDB2
:102D70002837BD46BDE8F081204B9A6AD2B222B115
:102D80000120F91DFFF798FE0EE09A6A12F47F4FBA
:102D900004D00120F91DFFF7F7FE05E09B6AB3F5AB
:102DA000803F97D3FFF72AFE0346C3E70020F91DB3
:102DB000E8E70020F91DEEE7184988E7184A18F4FB
:102DC000F87FE8468AB0174B08BF13466A46164993
:102DD000103ECDE905134FF40073ADF82030134BCE
:102DE000079642F8103F00234FF411510548FFF7B2
:102DF000CFFAC5466EE76FF30802B3E700ED00E0D7
:102E000055770200E05602008077020097770200B3
:102E1000B8770200C6770200E57702000178020069
:102E2000277702003C7702002578020004000001A9
:102E3000064B5A6942F010025A615A6942F48062A4
:102E40005A615A6922F008025A61704700ED00E0A9
:102E5000EFF30880EFF3098101B57246FFF7FCFE3E
:102E600001BD00BF0B4880F3088818F04FF8202000
:102E700080F3118808484FF40061401880F30988F6
:102E8000EFF314800221084380F31488BFF36F8F9F
:102E900000F06AF870850020307400201EF0040FE6
:102EA0000CBFEFF30880EFF30980816911F8021C71
:102EB0000229FFD001B572461DF0F9F901BD00BF2E
:102EC00000B2002807DB01234109034A00F01F007C
:102ED000834042F82130704700E100E000B2002852
:102EE0000CDB01220649430900F01F008240203319
:102EF00041F82320BFF34F8FBFF36F8F704700BFA0
:102F000000E100E0054B420953F82220012300F0C4
:102F10001F0003FA00F01040704700BF00E100E01E
:102F200000B2002801F10101ACBF00F16040064B86
:102F30004FEA4111C9B2ABBF00F5614000F00F008C
:102F400080F800131954704714ED00E0044B054A53
:102F500023F07F039360BFF34F8FBFF36F8F7047F2
:102F60000000000000ED00E008B5FFF7EFFF0B4A9E
:102F7000D2F8883023F47003C2F88830EFF314835A
:102F800023F0040383F31488BFF36F8FFFF78EFCE5
:102F9000FFF798FC00F09CF819F0A6F800ED00E0AF
:102FA00042F8203C009B0B4942F81C3C019B21F05D
:102FB000010142F8183C029B42F8081C42F8143CFC
:102FC0004FF0807342F8043C0023203A02654367C7
:102FD000704700BF491C000000B50D4B15469860B6
:102FE000026F0C4B0E461A60036E83F30B882C465F
:102FF00086F309880020044B9847204600210022D0
:103000000023024C20470000E3020200491C00009C
:1030100024460020342200201022014B1A61704700
:1030200000ED00E0054B5A699B689A421FBF044AB5
:10303000536843F080535360704700BF244600201C
:1030400000ED00E0084B9B6883420BD1EFF3058352
:1030500043B1064B5A6842F080525A605A6A22F4D1
:1030600000425A6219F094BF2446002000ED00E0AF
:1030700014498A684FF030001044EFF3098C80E85F
:10308000F01F202080F31288BFF36F8F0E4F4FF098
:1030900000664A698A603E60106F0C4C2060506F79
:1030A0000023536780F3118802F1300090E8F01F8D
:1030B0008CF3098802F1000004B51DF00BF9BDE89E
:1030C000044070472446002004ED00E03422002034
:1030D0000023202040F20F1210B5044CE1180133F8
:1030E000934281F80003F9D110BD00BF00E100E078
:1030F00008B5EFF30583064A103B02EBC30152F813
:10310000330049688847BDE80840FFF78BBF00BF20
:10311000784C02000148006870470000342200200B
:103120001FB50121094B0A4A0A4800F00FF9002394
:10313000064A0393084B0121019301A8D31A029375
:1031400000F00EF905B05DF804FB00BF000004209C
:103150000000002040590200100800200A7A0B6885
:1031600010B562F304031C46CB68520923F01F0319
:1031700043EA4203044A43F00103C2F89800C2F84C
:103180009C40C2F8A03010BD00ED00E010B50A4B25
:10319000D3F89030C3F30723013B984208D90121AB
:1031A0000346064A06481CF072FF6FF0150010BD7A
:1031B000FFF7D4FFFBE700BF00ED00E03C78020022
:1031C000C85602002DE9F04F8946144606464FF0D6
:1031D00000084F4D85B0C84527DAD6F804A0BAF1EB
:1031E000000F44D0BAF11F0F17D91AF01F0F14D1D6
:1031F000D6F800B01BF01F0F0FD158461DF094F801
:1032000007460AEB0B0001381DF08EF8874210D0FC
:103210006FF015073F4A3B4601E043463E4A012115
:103220003E481CF034FF6FF01504204605B0BDE8A1
:10323000F08F17F1160FEDD0BC42EBDDC5F898709A
:10324000D5F89C10C5F89870D5F8A03021F01F0172
:1032500043F01F0BD6E900321A44994202F1FF3ABB
:103260001AD1D34507D13146F8B21DF066F808F1FE
:1032700001080C36AFE73146C5F89870D5F89C3098
:10328000E0B263F30402C5F89C201DF056F810F17B
:10329000160FC8D0441CEAE7C5F89870D5F8A020EE
:1032A000013B23F01F0302F01F021343D3453146B5
:1032B000E0B2C5F8A030E8D01DF03FF810F1160FCD
:1032C000B1D0C5F89870D5F89C209DF808300BF166
:1032D000FF3B62F304038DF80830D5F8A0309DF869
:1032E00008205B0863F347128DF80820D6E9003206
:1032F0001344009323F01F035B44A3EB0A03013044
:1033000023F01F036946C0B20393FFF73FFFBEE7F8
:1033100000ED00E08878020062780200C8560200E2
:103320000522044BC3F89420BFF34F8FBFF36F8F78
:10333000704700BF00ED00E0BFF35F8F0022024B3B
:10334000C3F89420704700BF00ED00E010B5034CB7
:103350002278FFF737FF207010BD00BF214E0020FC
:103360002DE9F74F294D8A4606464FF00008AB4637
:10337000274FD0451BDAD6F80490B9F1000F3FD0A3
:103380003168084601911CF0CFFF0199044609EB12
:10339000010001381CF0C8FF84424FF014021D4B9D
:1033A00008D002FB08F36FF015024BF8032003B0BE
:1033B000BDE8F08F14F1160F2C60F8D01978A142F7
:1033C000F5DD02FB08B0C7F89840C7F89840D7F879
:1033D0009C4000F10801007B64F304000871D7F8F9
:1033E000A0000C79400860F347140C71D7F89C10CA
:1033F00021F01F016960D7F8A01021F01F01296199
:1034000008F1010814350C36B3E700BF382200205C
:1034100000ED00E0214E0020F0B55349534DD1F8A6
:1034200090302C68C3F307239C4287B000F2998048
:103430000020FFF781FF4E4BC1F8C030844216D107
:103440004C4D01A82C70FFF72BFA002607464A4C7A
:10345000B74213D100202B784349D1F89020C2F312
:103460000722934277DBFFF75BFF002046E06968A5
:1034700001EB0011FFF772FE0130DFE70199300127
:1034800001EB0613DA682240B2F1807F52D00AD8ED
:10349000B2F5001F34D0B2F5800F3ED0B2F5801FD8
:1034A00012D00136D4E7B2F1006F43D0B2F1805FA1
:1034B000F7D15A689B680958013B22F01F0003446A
:1034C00023F01F03012032E05A689B680958013B32
:1034D00022F01F0003440120844623F01F0340EA2A
:1034E0004C10CDE902218DF8100002A9287805932F
:1034F000FFF74CFE00282ADA6FF0150007B0F0BD88
:103500005A689B680958013B22F01F0003444FF0A2
:10351000020C012023F01F03E1E75A689B68095859
:10352000013B22F01F000344062023F01F034FF04D
:10353000000CD4E75A689B680958013B22F01F0031
:1035400003444FF0030C012023F01F03C7E72B783F
:1035500001332B70A5E7C1F89830C1F8A000013302
:103560007BE74FF0FF30C9E700ED00E04C59020067
:10357000AAFF4400214E00200000F0FFF0B587B004
:1035800007460E4614460021102268461D4621F0CB
:103590003EFA02238DF80230054B2A462146684642
:1035A000CDE9047601931BF0BFFC07B0F0BD00BF6E
:1035B0006D03020008B5024B1B689847002008BD48
:1035C0004C220020034B044A1860937843F0020316
:1035D000937070474C2200202802002008B506494D
:1035E000064821F00701C1F1005202F580221CF0CB
:1035F00066F8002008BD00BF67E2002050220020CE
:103600004FF0FF324FF0FF33014818F029BE00BFE2
:1036100038020020014818F095BE00BF3802002093
:1036200038B50546FFF7ECFF2A46082107481BF08E
:10363000D5FF044628B925B1FFF76CFD0C22044BD9
:103640001A50FFF7E7FF204638BD00BF5022002088
:103650000C00000010B50446FFF7D2FF21460348D6
:10366000FDF7D0FEBDE81040FFF7D4BF5022002088
:1036700070B5A0FB015434B92846FFF7D1FF0646C8
:1036800040B9304670BDFFF745FD0C22044B0026C3
:103690001A50F6E72A46214621F0B9F9F1E700BFB2
:1036A0000C00000070B541690446867A0A4D59B194
:1036B000437ADB0706D4242303FB0653DB691B682C
:1036C0009B689847002363612420214600FB065035
:1036D000BDE870401FF0B5BCC80600202422024B94
:1036E00002FB0030704700BFC80600202421827A08
:1036F000054B01FB02331A6A1B7D801A1B3323F032
:103700000303B0FBF3F07047C806002038B524244B
:10371000827A064B04FB0233DB69D3E901240C6097
:103720001568FFF7E3FF04FB005038BDC806002012
:103730002DE9F04385B00546684690461C46039146
:103740001FF02FFFDDE90067EFF31189202383F3DA
:103750001288BFF36F8F6B8A002B41D02A8A9A425E
:1037600025D900220023284618F03CFE0446F0B17B
:1037700089F31188BFF36F8F039B002B41D0324632
:103780003B4668461FF032FF2421A27A254B204693
:1037900001FB0233DB6903A91B681D68DDE9002317
:1037A000A847606170BB2046FFF77CFF24E0698A70
:1037B0004B1E6B8289F31188BFF36F8F2B7D2A8A92
:1037C0002C6A1B3323F00303521A02FB0344154BEC
:1037D000154AEB1A9B105343A3722B7DE372CBE780
:1037E00089F31188BFF36F8F23464246284618F0AD
:1037F000F9FD04460028BFD10024204605B0BDE8ED
:10380000F0836361012300252381039B29466382A2
:10381000E27A656004F1180021F0F9F86369258205
:10382000E360EAE7C8060020398EE33870B5242546
:103830000C4C00B970BD037A4668002BFAD0013BEE
:10384000DBB20372002BF5D1C3604360837A05FBC2
:1038500003439B6913B198473046EAE7FFF722FF1D
:10386000FAE700BFC80600202DE9F84F06460D46CE
:1038700017460446A3466468002CFBD14FF0240988
:10388000DFF878A0BBF81030BBF81220DBF814107A
:10389000D21ADBF80C300BF10C005B1AD21AAA42D8
:1038A00028BF2A461FFA82F8394642461CF0E1FD3D
:1038B000B5EB0805444447441DD00C9B53B1DDE9EA
:1038C0000A010D9A98478346A8B1014630461CF07C
:1038D000A2FDD7E7B07A09FB00A0C3699B6843B19A
:1038E000AB4228BF2B461946DDE90A23FFF720FF2C
:1038F000E9E72946F8E72046BDE8F88FC80600202A
:1039000008B5244A244B1A6016F06AFD4FF47A6118
:103910002248D0F82436C3F30802C3F309434B43CB
:1039200082F480721E49883201FB02334FF4FA217F
:103930005B00B3FBF1F201FB12331A49B3F57A3F96
:1039400028BF0132C1F80429D0F820364FF47A603C
:10395000C3F30802C3F30943434342F21C5082F409
:10396000807202F2172200FB02334FF47A701B0AB6
:10397000B3FBF0F200FB12330020B3F5FA7F4FF0F7
:10398000010328BF0132C1F81C27C1F80009C1F8A2
:10399000003608BD0020A107A005002000C0FF00E0
:1039A000F82A00800000125048B1054B054A1B68F8
:1039B000B3FBF2F35843044B43F00103184770473D
:1039C000A005002040420F00D05702000E4B4029B6
:1039D00028BF402170B51D460C4C4618B04203F17B
:1039E000020304D1002305F81130074870BD0278A6
:1039F0001209A25C03F8022C10F8012B02F00F024E
:103A0000A25C03F8012CE9E7404E00204799020030
:103A100030B503788BB0044607AD032B21D8DFE81F
:103A200003F0021A1C1E12492846FCF743FD0595B7
:103A300063781E210493A3780E4A0393E3780E481B
:103A400002932379019363790093A3791BF042FADF
:103A500009480BB030BD0949E6E70949E4E70949DF
:103A6000E2E70A212846084A1BF034FADFE700BFE4
:103A7000F66E0200186F0200224E0020FD6E02005A
:103A8000046F02000E6F02002896020010B5002499
:103A9000094B86B009480393CDE904441FF0AEFBFF
:103AA00003AB00934FF4AF620A230549034818F0B3
:103AB000D3FE204606B010BDDC780200F80E0020D0
:103AC000885E00200146014818F006BFF80E00206D
:103AD000014601481FF067BBF80E002030B503789F
:103AE000012B11D0022B21D06BB90A46144B03F1E4
:103AF000100453F8045BA34242F8045BF9D14388F5
:103B00001A0A8A70CB7030BD0A460D4B03F11004BF
:103B100053F8045BA34242F8045BF9D143681A0CE2
:103B2000180E4A700870C3F30722EAE700F1100389
:103B3000013913F80129984201F8012FF9D1E2E780
:103B40005899020010B51CF093FD1FF0B4FB044619
:103B500008B919F053F9064BD3E8AF3F0BB10A206F
:103B600098471CB9BDE8104019F05CB910BD00BF02
:103B70005C22002038B5044608481CF008FC0546C5
:103B800048B1631EDBB21F2B96BF054A0021D15CF2
:103B90000C301CF077FC284638BD00BFA007002081
:103BA000689902000F2810B50CD80D280CD90A48C6
:103BB0001CF0EDFB044618B104210C301CF062FC33
:103BC000204610BD1328F2D009B10448F0E70220C6
:103BD000BDE81040FFF7CEBFC40700203407002027
:103BE000C3681B780221024A02481CF0C9BD00BF0D
:103BF000F47802006856020038B5C5682B78B3B96E
:103C0000B5F801400F21204602F050FEE978054644
:103C100070B90C4A138813B1538843B901236FEA72
:103C200004506FEA105022F81300074AD15438BDEF
:103C30000173012102F04AFD2846BDE8384002F038
:103C4000F9BC00BFEC4C0020C14E002070B5C36829
:103C50001D78BDB9B3F801600F21304602F026FE91
:103C6000044638B901213346BDE87040064A07488A
:103C70001CF086BD294602F029FD2046BDE87040B3
:103C800002F0D8BC70BD00BF1C790200685602006B
:103C900010B501210C301CF022FC03780121BDE895
:103CA0001040024A02481CF06BBD00BF427902007E
:103CB00068560200014610B508481CF06CFB084924
:103CC00008481FF070FA031E06DABDE81040012113
:103CD000054A06481CF054BD10BD00BF3401002049
:103CE0004C0300203810002064790200685602005E
:103CF0002DE9F14FC56801212E88304602F0D6FD2E
:103D0000044640B901213346284A294801B0BDE89C
:103D1000F04F1CF035BDB5F80280EE881FFA88F32D
:103D2000AF88A3F11B022D89E02A1FFA86FA1FFA39
:103D300087F91FFA85FB04D902211E4A1C481CF092
:103D40001FFDAAF11B03E02B05D9022153461A4A95
:103D500017481CF015FD44F24812A9F5A4739BB254
:103D6000934205D902214B46144A11481CF008FD24
:103D700044F24812ABF5A4739BB2934205D90221D9
:103D80005B460F4A0A481CF0FBFC2046A4F8AA80B8
:103D9000A4F8AC70A4F8AE60A4F8B05002F0E0FF54
:103DA000204601B0BDE8F04F02F044BC817902002A
:103DB00068560200A5790200CE790200F779020068
:103DC0001E7A020010B5002486B003AB00934FF4B6
:103DD00080624FF0FF3305490548CDE9034405945F
:103DE00018F03AFD204606B010BD00BF0064002068
:103DF000980F002010B5084C0146062294F86F0079
:103E000003F01AF938B994F86F000522BDE81040A4
:103E1000024903F011B910BD000000202D990200E5
:103E20000121024A02481CF0A9BC00BF457A0200E9
:103E3000685602000B46B0B50D8A00AF044629460D
:103E4000D868FFF7C3FD8AB06A46094BCDE9075031
:103E5000CDE9053440F20243ADF82430054B4FF470
:103E60003251054842F8103F1CF097FCBD46B0BDEA
:103E70005F7A0200050000016856020070B5C5684F
:103E80000121B5F80160304602F010FD044638B952
:103E900001213346BDE870400B4A0C481CF070BC51
:103EA0002B783BB9D5F80330C0F89930D5F80730F6
:103EB000C0F89D30201D4FF480311CF063FC20467B
:103EC000BDE8704002F0B6BB81790200685602007E
:103ED0002DE9F84FD0F80C90018A99F8004000AF16
:103EE000A30001338B425FD96D468AB06A46CDE9A3
:103EF000073105232E484FF42151CDE905042D4803
:103F000042F8103F1CF049FCAD46BD46BDE8F88FB5
:103F100001212B46284A27481CF032FC013699F82B
:103F200000309E42F1DA09EB8603B3F801500F210D
:103F30002846B3F8038002F0B9FC04460028E7D015
:103F400000F1CC0AB8F1000F06D0656945B901212E
:103F50001A4A18481CF012FC204602F06BFBDDE701
:103F6000A2692B6895422046636108BFA36102F0F5
:103F700087FA18F069FAC5F800B0236A8BB9C4E96A
:103F80000755DAE8EF3F013BCAE8E23F002AF8D1E3
:103F90000021204608F1FF3802F07EFA1FFA88F867
:103FA000D0E71D602562ECE70026B346B7E700BF07
:103FB000817A020068560200AC7A0200C87A0200D8
:103FC00037B50446084602EBC3039A4202D16FF0AC
:103FD0005E0010E0114611F8085BA54211D1038A7A
:103FE0005178994209D908480121084A00941CF0E7
:103FF00058F86FF0150003B030BD536898470020A3
:10400000F9E70A46E1E700BF68560200DF7A0200DE
:104010002DE9F0470C4618F0F1FEE5682B78022BED
:1040200075D0042B0AD001213D4A3E481CF0A8FB64
:104030002046FFF7FBFB6FF015040EE0B4F810808C
:10404000B8F1020F0ED84346374A364801211CF01A
:1040500097FB2046FFF7EAFB002418F0E3FE20461A
:10406000BDE8F08768783E280CD1B8F1030F02D183
:104070002E4A4346E9E7EB78012B01D00A2B46D1C3
:10408000032704E01CF068FB0746F8073FD504F15E
:104090000C0601213046D4F814A01CF018FA0221B5
:1040A00030461CF01CFA814600783E2807D1E368B0
:1040B0001B78012B01D00A2B06D1032614E01CF03B
:1040C0004BFBC10706460FD441F26813184A194941
:1040D00019481BF094FB002383F31188BFF36F8F03
:1040E0000323184602DF0226144A0623214699F8C4
:1040F00000001CF089FBB2070DD56369A5EB0A052A
:1041000013FA85F5E560A4F81080BB07A4D5204616
:10411000FFF7D0FDA0E72046FFF788FBF5E700BFDB
:10412000A77B020068560200017B02001D7B020093
:104130003D7B0200717B02008A7B0200F85902007D
:1041400010B5012104460C301CF0C9F92146BDE828
:1041500010400223014A00781CF056BB285A020086
:1041600073B53E481CF02CF90446002873D000F1CA
:104170000C0528461CF0BBF90228034603D004288E
:1041800047D0374A03E0238A032B05D8354A01215B
:1041900035481CF0F5FA13E0042128461CF09FF97D
:1041A000FF23428806882376238AC6F30B009A42AF
:1041B000608309D0012100922B482C4A1BF071FF2B
:1041C0002046FFF733FB12E00F2102F06FFB05469C
:1041D00010B9638B264ADAE702F0A0FB214620766D
:1041E000320B284602F0AAF9284602F023FA214BA6
:1041F000D3F834317BB3204920481EF0D4FF031E8E
:1042000029DA01211E4A184802B0BDE870401CF0AE
:10421000B7BA284602211CF062F9054600783E280C
:1042200012D01CF099FA10F002060DD140F69A4314
:10423000144A154915481BF0E2FA86F31188BFF3BA
:104240006F8F0323184602DF06232146104A287881
:104250001CF0DAFAB4E702B070BD00BF34010020F0
:10426000507C0200BB7B020068560200DC7B02002F
:10427000007C0200000000204C03002038100020C9
:10428000647902003D7B0200227C02008A7B0200EE
:10429000385A020010B5012104460C301CF01FF9F9
:1042A0002146BDE810400823014A00781CF0ACBA52
:1042B000685A0200F8B50121044600AF0C301CF02A
:1042C0000EF90678002321463046104AFFF778FEA3
:1042D0005F3019D1258AE0682946FFF777FB6C46E5
:1042E0008AB06A460A4BCDE90750CDE9053640F25F
:1042F0000243ADF82430074B4FF43251064842F8E0
:10430000103F1CF04AFAA546BD46F8BDA85A020067
:10431000647C020005000001685602002DE9F74F99
:104320000023804689461746DFF800A1DAE8EF4F00
:10433000CAE8E23F002AF9D1264644B901214346A2
:104340003B4A3C4803B0BDE8F04F1CF019BA204688
:10435000FFF7CCF94FF00C0B374D0BFB00504388A7
:1043600043451BD02046FFF7C1F90BFB00504388A3
:1043700001210093314A43462E481BF092FEDAE8B1
:10438000EF3FCAE8E26F002AF9D1002B4BD01E465E
:10439000304603B0BDE8F04FFFF748BAA74208D057
:1043A00020461BF0EFFF3A8AF96804F10C001CF07C
:1043B00060F82046FFF79AF90C2707FB0050436886
:1043C000ABB1B9F1000F12D12046FFF78FF90121EF
:1043D00007FB00504268536803F01F0081401068DB
:1043E0005B0900EB8300137ACBB11CF0CBF92046BC
:1043F000FFF77CF90C2707FB00508368002BC7D020
:104400002046FFF773F9784305F800902046FFF740
:104410006DF907FB0055A86818F016F8B8E7C9430E
:104420001CF0BEF9E3E703B0BDE8F08F30010020D7
:10443000967C02006856020060220020BE7C0200CA
:1044400073B5C5680121B5F80160304602F02EFA57
:10445000044640B9012133463B4A3C4802B0BDE81E
:1044600070401CF08DB92B78061D1A2B19D1C3781A
:10447000012B50D14FF4804130461CF083F94204A7
:104480000FD4D4F88C3069460093D4F89430204689
:1044900001931CF09EFE204602B0BDE8704002F081
:1044A000C9B82B78BBBB40F2E242B5F803302849CB
:1044B0005343C4F88830B5F80520A4F89020B5F827
:1044C0000720A4F89220A3F5EA520C3A8A4204D9B4
:1044D0000221204A1D481CF053F9B4F89030B3F57E
:1044E000FA7F04D302211C4A18481CF049F940F60F
:1044F0007641B4F89230A3F10A0292B28A4204D90A
:104500000221164A11481CF03BF96FF480513046E5
:104510001CF046F913E0D6E8AF3FDB04F5D52B7865
:10452000202BF2D194F89830002BEED0013B84F888
:1045300098300B4A002304F1400018F0F7F92046A8
:1045400002F0C2FBA7E700BF8179020068560200B3
:1045500095F03C00F17C0200187D02003F7D0200D6
:104560005A620200B0B53C28044600AF1AD101F0EF
:10457000B9FA6FF4807110301CF012F90020FFF7C7
:1045800039FC054630B90121114A12481CF0F6F8F1
:10459000BD46B0BD0473002102F098F8284602F031
:1045A00049F8F5E76D468AB06A460B4B4FF4125155
:1045B000CDE90530094B0748079340F20133ADF8C8
:1045C0002030074B42F8103F1CF0E7F8AD46DFE71C
:1045D0006B7D0200685602008C7D02009B73020016
:1045E00004000001054BD3E8AF2F02F00B02D3E823
:1045F000EF1FC3E8E02F0028F9D17047D400002056
:1046000010B5C1E900239DF808300C460B72FFF786
:104610006DF80C22024B02FB00335C6010BD00BF42
:1046200060220020F8B502460B4610481BF0AFFE92
:104630000446C0B104210C301BF00AFF2046FFF7EE
:1046400055F80C2700260A4D07FB005046802046EF
:10465000FFF74CF807FB005086602046FFF746F84E
:1046600007FB00556E602046F8BD00BF7C070020A8
:10467000602200200138C0B202289ABF014B185CAA
:1046800000207047B299020070B5C5680121B5F8E5
:104690000160304602F00AF9044638B90121334678
:1046A000BDE870400A4A0B481CF06AB8E878FFF78A
:1046B000E1FF84F8A8002879FFF7DCFF84F8A9005F
:1046C000204602F073FB2046BDE8704001F0B2BF07
:1046D000817902006856020029289ABF014B185CB4
:1046E000092070478899020070B5C3680F21B3F89C
:1046F00001601D78304602F0D9F8044638B901212E
:104700003346BDE87040184A18481CF039B865B106
:104710002846FFF7E1FF29460246204602F0D8FB73
:104720002046BDE8704001F085BF8378012B07D19A
:1047300007F02CF820461BF0F7FF002808BF0525DE
:104740002846FFF7C9FF29460246204602F0C0FB73
:10475000002DE5D00121064A04481CF00FF8052180
:1047600020461CF0BDFADBE71C7902006856020007
:10477000A87D02002DE9F041C6680F21B6F801704E
:104780003578384602F092F8044638B901213B46A4
:10479000BDE8F0411E4A1F481BF0F2BF65B1284634
:1047A000FFF79AFF29460246204602F091FB204679
:1047B000BDE8F04101F03EBFF278C37A934205D1E3
:1047C0000221154A13481BF0DBFFF0E78378C27221
:1047D000012B08D10AB106F0D9FF20461BF0A4FF37
:1047E000002808BF05252846FFF776FF2946024620
:1047F000204602F06DFB002DD9D00121074A054863
:104800001BF0BCFF052120461CF06AFACFE700BF71
:104810001C79020068560200CE7D0200A87D0200CD
:1048200010B5044692B04422064901A820F0C9F808
:10483000102C9DBF12AB03EB840454F8440C0248C7
:1048400012B010BD38570200FD7D0200034B014637
:10485000D3F84C0182689268104700BF0000002026
:104860002DE9F047042100AF46481BF08BFF6D4651
:1048700088B06A46444B4FF4E6510593434B444895
:1048800006934FF40073ADF81C30424B424C42F893
:10489000103F1BF082FFAD46E179404B404E204671
:1048A000012998BF1E46FFF7B3F88AB06A463D4B10
:1048B0000790CDE905363C4B4FF4235108933B4B11
:1048C000334842F8103F1BF068FFA246AD46012571
:1048D000374EDFF8E080E3790AF1070A9D423ADBC0
:1048E00094F870506E462846FFF79AFF8CB06A46DF
:1048F000B4F87210B4F87630CDE907514FF4007572
:10490000DFF8B4C009932D4BCDE905C0ADF82850B0
:104910004FF4535142F8103F1D481BF03EFFB5467F
:1049200094F871603046FFF77BFF8AB06A46B4F8AE
:1049300074302349CDE90763224BCDE90510ADF86A
:1049400024504FF43351124842F8103F1BF025FF1A
:10495000BD46BDE8F0875046FFF75AF8E9468AB0F1
:104960006A4640F20133CDE905650790ADF8203085
:104970004FF41351064842F8108F1BF00EFF01351B
:10498000CD46A8E7D4000020097E02001B7E02006D
:104990006856020003000001000000209B73020023
:1049A000057E0200267E02000002010304000002D0
:1049B000357E020004000001467E02000600000170
:1049C000847E02000500000100487047AD6E0200C1
:1049D000014902481EF0E7BB3C030020980F00206D
:1049E00070B505460C4639B1CB684A699B1A032B52
:1049F0000ED86FF0150509E04FF0FF304FF0FF3192
:104A0000FFF710FE044618B96FF06805284670BD20
:104A10002046FEF76BFE0C22164BA61802FB003355
:104A2000032130465D801BF035FD0580238A01217E
:104A3000033B837030461BF041FD40F635439D42F9
:104A40000FD12046FFF702FF05460028DED00121E6
:104A50000346094A09481BF093FE2046FEF7E6FE8E
:104A6000D4E7214606481EF0E1FA0025FFF7B0FF23
:104A7000CCE700BF60220020AB7E02006856020037
:104A80003C0100202DE9F04784B0804691460C4659
:104A900000AF71B94FF0FF304FF0FF31FFF7C2FDAB
:104AA000044660B96FF0680528461037BD46BDE87A
:104AB000F087887AFEF712FE3B4B83426ED10122CB
:104AC000002138461EF0CBFA2046FEF70FFE0C23DD
:104AD000DFF8D8A003FB00A0876020461BF086FC0F
:104AE00001464046FFF77CFF054618B12046FEF719
:104AF0009DFED9E7002338462D4A17F0D9FC06461B
:104B000090B14FF4F1732B4A2B492C481AF077FEE1
:104B1000324641462A481AF072FE85F31188BFF3E7
:104B20006F8F0323184602DF2046FEF7DFFD0C23BC
:104B300058431AF800605EB36D468AB06A46214B4E
:104B40000796CDE90538204B4FF43251089340F2D7
:104B50000243ADF824301D4B1D4842F8103F1BF0B6
:104B60001CFE2046AD46093EFEF760FE092E0CD81D
:104B7000DFE806F0050B0B08170B0B0B0B146FF09F
:104B80006E0591E76FF00C058EE76FF004058BE77B
:104B9000B9F1000FAAD0C9F8004085E76FF01505FC
:104BA00082E76FF00B057FE77C0700206022002082
:104BB000B4C404003D7B0200CD7E02008A7B02006B
:104BC000D67E02001B7F02009B73020005000001DD
:104BD000685602002DE9F04F85B0674AB0F80190A1
:104BE000118849F470439942054600AF4AD0518874
:104BF000994249D10123002122F813105F4A12F88B
:104C000003A000F0D9FCEB7805F10408012B08BFE4
:104C10005B4B404614BF002493F86F401BF024FD0B
:104C200007F10806414690B34FF0010B30461BF0E8
:104C300010FDD5F81130C7F80130B5F81530A7F8D8
:104C40000530EB78012B37D04046FEF7E1FE6C468D
:104C500088B06A464B4B4FF4E251CDE905304FF432
:104C60000073ADF81C30484B484842F8103F1BF029
:104C700094FD1321A54648461BF0FFFD1437BD46A1
:104C8000BDE8F08F0023B6E74FF0000AB9E72046F1
:104C90001BF04BFF0346006895F804B0B8609A8893
:104CA0009B796868B280B371B8F8042098F8063030
:104CB0003860BA80BB71C4E73046FFF79BF8044602
:104CC0000028C1D00346B5F8012023F8702BB27933
:104CD000B868B18820679A7140F2E2429980B5F8CD
:104CE000173053430022C4F88830B5F81930A4F8BF
:104CF0009030B5F81B30A4F89230EB782273244A38
:104D0000012BC4F8A82002F14702C4F8AC204FF4EC
:104D1000A472E370A4F8B0201AD187F800B0BA8862
:104D2000BB793868A4F87B2084F87D30C4F877001C
:104D300000F0D8FE237A1249C3EBC3035A18CB58AC
:104D4000C4F87E309388A4F88230937984F8843054
:104D50000721204601F0BAFCBAF1000F05D001216D
:104D6000204684F80CA001F0B1FC204601F012FEB0
:104D7000204601F05FFC81E7EC4C0020C14E002092
:104D8000000000203A7F0200030000016856020084
:104D900001011B0000B5C36889B0187820B109B0C3
:104DA0005DF804EBFFF7DEBBB3F801208DF80000DF
:104DB000ADF80120DA788DF80320B3F80B20ADF8B8
:104DC0001720B3F80D20ADF81920B3F80F20ADF877
:104DD0001B205A7C8DF81D20586801901A899B7AF7
:104DE000ADF808208DF80A30084B68461A689B8891
:104DF000CDF80B20ADF80F30CDF81120ADF81530FF
:104E0000FFF7E8FE09B05DF804FB00BF419902001E
:104E100010B5FBF7BDFC034B1B6813B1BDE8104098
:104E2000184710BD7822002073B52A4D0646D5F8E4
:104E30004C011DF0AAFF48B90121274A27481BF061
:104E40009DFC6FF01204204602B070BD6FF00201AD
:104E500005F1D4001BF0A4FC01211BF093FC10EA27
:104E6000010434D11E4B1E600A4605F590701EF0F9
:104E7000F6F805F59E701EF0ABF81A481EF0BEF964
:104E80006FF007034FF4966217491648009417F025
:104E9000E3FC164913481EF014FAD5F84C011449E6
:104EA00083681B689847044630B101210346114AC4
:104EB0000A481BF065FCC6E726B902B0BDE87040A1
:104EC000FBF766BC05F1C40017F0C0FCBBE76FF050
:104ED0007704B8E700000020B7800200685602009F
:104EE000782200203810002000680020CF800200C7
:104EF00011400000D8800200F0B5C56801212F885C
:104F000087B0BCB2204601F0D1FC064640B9012171
:104F10002346274A274807B0BDE8F0401BF030BCC5
:104F200002ACD5F80220D5F80630019469890091C9
:104F30001DF064F948B34FF0FF304FF0FF31FFF739
:104F400071FB054648B901211B4A1A481BF016FCA3
:104F5000304601F06FFB07B0F0BD12210C301BF0A2
:104F600082FA0346224623F8027B144603CC59609A
:104F700006A98C421860224603F10803F5D12946A0
:104F800042F21A00FFF72CFDE2E74FF0FF304FF03E
:104F9000FF31FFF747FB04460028D4D002210C3034
:104FA0001BF061FA2146078042F21B00EAE700BFCE
:104FB0008179020068560200F480020073B5C3686C
:104FC000D9789A781E8842EA0122ADF800205979F2
:104FD0001A79B4B242EA0122ADF80220D9799A795D
:104FE000204642EA0122ADF804201A7A5B7A0121B8
:104FF00042EA0323ADF8063001F058FC054658B9E3
:1050000001211D4823461D4A1BF0BAFB0221204600
:105010001BF091FC02B070BD694601F0EDFE38B99D
:105020001E2120461BF087FC284601F003FBF1E718
:105030004FF0FF304FF0FF31FFF7F4FA044600283D
:10504000F2D00E210C301BF00EFA00230680C0F8BF
:105050000A30BDF8003021464380BDF8023083801D
:10506000BDF80430C380BDF80630038142F2200051
:10507000FFF7B6FCD8E700BF68560200817902004E
:1050800038B5042104460C301BF029FA0346408849
:105090005D7818B122461978FFF740F935B1044818
:1050A00017F0D2F9BDE83840FFF792BC38BD00BF19
:1050B00020010020B0B50446032100AF0C301BF0E6
:1050C0000EFAE2680346117840F63542B0F8010066
:1050D000904216D16C468AB06A46104B1048CDE912
:1050E0000531104B4FF41251079340F20133ADF8E4
:1050F00020300D4B42F8103F1BF04FFBA546BD463C
:10510000B0BD1D7810B12246FFF708F9002DF6D08A
:10511000064817F099F9FFF75BFCF0E70B810200F6
:10512000685602009B730200040000012001002069
:1051300038B517F063FE2F4DD5F83C31002B56D013
:105140000022002305F5907017F0B2F900284ED127
:105150000022002305F59E7017F044F9044668B953
:1051600040F6AA43244A254925481AF048FB84F30F
:105170001188BFF36F8F0323184602DFD5F8303153
:105180005BB101211F4A20481BF0F8FAD5F8300125
:10519000FEF74CFB0023C5F8303120461BF026F902
:1051A000C5F830012046FFF751FB0346C8B1012185
:1051B000164A15481BF0E4FA154817F045F9204641
:1051C000FEF794FA0C22134B02FB0033588818B1F7
:1051D00022461F21FFF7A2F82046FEF727FBFFF724
:1051E000F7FBFFF7F5FBBDE8384017F01BBE01F0F9
:1051F000E1FBF8E7000000203D7B0200E8780200B8
:105200008A7B02004381020068560200AB7E0200E6
:10521000200100206022002070B54FF0FF320D46C3
:105220004FF0FF3300210646FEF7BCFC044660B990
:105230001A230A4A0A490B481AF0E1FA84F3118842
:10524000BFF36F8F0323184602DF022104F10C0025
:105250001BF009F906704570204670BD7F82020080
:10526000E87802008A7B0200F8B506460024094D62
:10527000EF79E3B29F4202D86FF0010007E02946C0
:1052800030461BF098FB0735631C08B12046F8BD7B
:105290001C46EEE70000002037B504460D4671B10C
:1052A000284612491BF087FB48B929461048C4EB31
:1052B000C40420441BF089FB002003B030BD6846C5
:1052C0001BF0B9F90028F8D16846FFF7CDFF002898
:1052D000F5DA074BC4EBC400694618441BF075FBB4
:1052E000002DE9D001462846E4E700BF34990200CA
:1052F0000000002070B51A4E0622314605461FF008
:105300008EFB38B34FF0FF304FF0FF31FFF78AF9D3
:10531000044608B3062229460C301BF0AAF82146A1
:10532000002242F20500FFF7ADFB044648B110F140
:105330000D0F04D102210B4A0B481BF044FB204601
:1053400070BD33462A6843F86929AA88B2800122D1
:1053500083F868200024F2E76FF06804EFE700BFED
:1053600069000020B582020070560200064BD3E8A7
:10537000EFCF4CF4806CC3E8E2CF002AF7D1037A78
:1053800019430172704700BFD4000020F7B5002117
:1053900004460222084601F04FFE064648B1204668
:1053A0000121FFF7E3FF304603B0BDE8F04001F014
:1053B00041B93B4D01463B4800F08EFB95F8133157
:1053C0007BB130461BF045FB58B10221364A3748C5
:1053D0001BF0F9FA0021364803B0BDE8F04000F0B8
:1053E0007BBB95F8132195F812319A4218D102210E
:1053F000304A2E481BF0E7FA002242F229001146FB
:10540000FFF740FB10B101212B4AE0E795F813317B
:10541000013385F81331237A43F004032372D9E76B
:105420002246671C394612F82E0B1BF0D5FA0646A9
:1054300010B1224A01210EE095F81331013385F8AD
:105440001331237A43F00403237295F8A7305B07E6
:1054500008D402211A4A15481BF0B5FA01201BF0A6
:10546000F8FAB7E7394668461BF0AFFA01234FF068
:10547000FF304FF0FF318DF80730FFF7D3F80446C7
:1054800060B1082269460C301AF0F3FF324621461B
:1054900042F24E00FFF7F6FA0028DFD0094AC9E7CA
:1054A00000000020070B0200C482020070560200B8
:1054B000850A0200E98202001A8302003A83020090
:1054C0005A8302008483020000212DE9F041022268
:1054D0000446084601F0B0FD054640B120460221D1
:1054E000FFF744FF2846BDE8F04101F0A3B80146AC
:1054F0002A4800F0F1FA28461BF0ABFA284D064680
:1055000088B101210346274A27481AF0C0FD95F8C3
:10551000133113B101201BF09CFABDE8F0410021CA
:10552000224800F0D9BA95F8133195F812219A4221
:105530000CD2013B85F81331237A024623F0040391
:1055400002201B49237206F005FAE0E74FF0FF3016
:105550004FF0FF31FFF766F804F10108074668B124
:1055600007210C301AF07FFF41461BF02EFA32461D
:10557000394642F22800FFF785FA28B101210D4A89
:1055800009481BF020FAC2E795F81331013B85F872
:105590001331237A23F004032372B8E7070B0200C8
:1055A000000000209F83020070560200850A02005E
:1055B0003D0A0200CC830200084BD3E8EF2F22F40F
:1055C0008061C3E8E01F0028F7D1530504D500220D
:1055D0000220034906F0BEB9704700BFD400002086
:1055E000890B0200002307B50549CDE900036A468F
:1055F000022006F0AFF9019803B05DF804FB00BF8C
:10560000AB0A0200034610B470B10A4991F8124186
:1056100091F813210CB1944208D2013281F8132180
:105620001A7A42F004021A7210BC704710BCFFF7DD
:10563000ADBE00BF00000020034610B498B10B4C73
:1056400094F8121194F8132129B101318A4203DC34
:1056500010BCFFF739BF12B1013A84F813211A7A4E
:1056600022F004021A7210BC704700BF0000002034
:1056700070B5044611BB20B325491BF09CF900BB53
:105680002046FFF7F1FD00283BDA237853B9214883
:10569000C279002A35D121461BF097F90123C37145
:1056A000104670BD012B04D1A37903F0C003C02BB9
:1056B00007D00121184A19481BF085F96FF0150031
:1056C000EFE7144DEB79012B1ED005F1D403D3E89D
:1056D000AF3FDB0707D4002CF0D020460C491BF06D
:1056E0006AF90028EAD1EE792146731C3046EB7145
:1056F000FFF7D2FD08B93046D3E7EB79013BEB71F8
:10570000CFE76FF07700CCE76FF00B00C9E700BF81
:105710003499020000000020F1830200705602005C
:105720002DE9F341044640B91A4A02211A481BF0F8
:105730004AF9002002B0BDE8F081002141F20900E1
:1057400001AAFFF79FF9054608B1144AEDE7019E4B
:105750000622D6F80C80124908F1010738461FF0DE
:105760005EF928B1062238460E491FF058F918B9DB
:105770003046FEF75BF8DCE7D8F801303046C4F875
:105780000130BB882570A4F80530FEF74FF80120E2
:10579000D0E700BF1F840200705602003884020068
:1057A000419902003B99020007B56846FFF7B8FF30
:1057B000044BD87118B169460020FFF76DFD03B0A6
:1057C0005DF804FB000000202DE9F041304E88B068
:1057D000F179002954D196F8C24014F0010411D196
:1057E0002C4A02212C481BF0EEF80024F4711625F7
:1057F00000240127F379E0B283422BD8002B3FD05D
:1058000000203AE06A464FF60940FFF73BF908B13D
:10581000224AE6E7DDF800C0DCF80C5095F801807C
:10582000B8F1000F0ED0AB1C02AA1235174618684B
:105830005968083303C7AB423A46F7D11868386055
:105840009B88BB806046FDF7F1FFB8F1000FCDD11A
:10585000134AC6E708AB05FB003353F8182C33F89E
:10586000143C6946CDF80120ADF805308DF8007084
:10587000FFF712FD01340028BCD008B0BDE8F0816C
:105880000021084608B0BDE8F041FFF7F1BE00BFB7
:10589000000000205684020070560200828402003C
:1058A000A28402002DE9F0411D460E46174603462C
:1058B00048B145B10A0311D54C0708D50121284A42
:1058C00028481BF080F86FF01500BDE8F0811BF050
:1058D00040F90028F9D101232B70F6E7B1070478CD
:1058E00024D021492FB1B20603D591F8D820500613
:1058F00032D5C4EBC40411F80480B8F1010F09D10A
:105900000134184621441BF01CF90028DDD185F82C
:10591000008002E0B8F1000FF9D02FB1B30642BF0A
:105920002B7843F002032B700020CEE7720710D5CE
:105930000D49C4EBC4040F5D012F07D1013421448C
:105940001BF0FFF80028C0D12F70E7E7002FE5D14A
:10595000FAE71BF0FEF8BEE76FF08500B5E700BF81
:10596000CB840200705602000000002038B5104DB4
:10597000EB7913B10024204638BDFFF715FF04462C
:1059800028B10C4A01210C481BF01DF8F3E7EB7914
:10599000002BEFD1FFF718FF04460028F1D1681C57
:1059A000FFF7A8FC04460028E5D0044AEAE700BF58
:1059B00000000020EA8402007056020009850200FF
:1059C0002DE9F74F884601904FF0FF314FF0FF303F
:1059D000FEF728FE044600284ED020210C301AF095
:1059E00042FD00270646002120221FF010F839460C
:1059F000D8F8005006F1010BD8F804309F4208D3C4
:105A0000317000222146019803B0BDE8F04FFFF746
:105A100039B86A78881C13181F2B95F800C05FFAF4
:105A200080F915D9BCF1090FC9F11F0201D1002A73
:105A30000CDC0121124A13481AF020FB2046FDF726
:105A4000F5FE6FF0150003B0BDE8F08F4FF0080CC5
:105A50005FFA82FA0AF1010E0BF801E00131C9B2D6
:105A60000BF801C069685844D1441EF0AAFF013701
:105A70005FFA89F10835BFE76FF06800E3E700BF20
:105A80002C85020000560200F7B5CDE900016946F9
:105A900042F2080016461D469DF82070FFF790FF61
:105AA000044648B95FB90B4BD3E8EF1F41F004013E
:105AB000C3E8E21F002AF7D1204603B0F0BD6946D3
:105AC00042F20900CDE90065FFF77AFF0028EAD02D
:105AD0000446F1E72800002003460148184700BFAC
:105AE0001800002000487047180000202DE9F04FF2
:105AF000D0F810A089B0BAF100040546934618BF4B
:105B00000124DFF8B89202910393D9E8AF3F5A0716
:105B100040F18281466873050CD56FF015040022B0
:105B200040F20110029B934540F07F81204609B06E
:105B3000BDE8F08FD0F81080B8F1000F01D0B707A2
:105B4000EBD09F4F2878FB798342E6D9C0EBC000A9
:105B500007229C4938441EF062FF0028DDD0B007C0
:105B600006D197F87030082B02D8AB689F2BD4D998
:105B700016F0300F72D0B8F1000FCED0F10670D40D
:105B800006F46036B6F5603FC7D028461AF0F8FF35
:105B900080460028C1D08C4ED6E8AF3FDA0500F130
:105BA0003E81D9E8AF3F5B0501D5FFF705FD002336
:105BB000CDE90533CDF81B30AB686A68ADF810301D
:105BC000EB6812F4004FADF8123014BF0623072320
:105BD000D00348BF03F00503910348BF03F0FB0364
:105BE0008DF81D30D9E8EF3F23F48073C9E8E23F18
:105BF000002AF7D12B7822463B7687F86F30696808
:105C000072480DF11503FFF74DFE0446002886D1BA
:105C10006F4BBAF1000F30D02A69116849F8B31CF4
:105C20009188998092799A716B689A0727D0BAF116
:105C3000000F2BD013F0100F0CBF012304238DF89D
:105C400014302B691A68CDF816209A88ADF81A20FE
:105C50009B798DF81C304FF000081AE0B8F1000F66
:105C60008ED1D5E902239A423FF657AF1F2A7FF61D
:105C700054AFB3F5804F83D94FE7524ACDE79B0528
:105C800002D4039B002B3CD0022300E053468DF846
:105C900014304FF0FF304FF0FF31FEF7C3FC0446E5
:105CA000002800F0BF800F2204A90C301AF0E1FB9D
:105CB0002146002242F20600FEF7E4FE04460028D8
:105CC0007FF42DAFBAF1000F1FD0686810F0030009
:105CD00027D1074601213D481AF066FF04460028F7
:105CE00045D001213B4A3C481AF0C8F9002F3FF447
:105CF00016AF3846002100F0E9FC384600F09AFC67
:105D00000DE703238DF81430A5E75946129B039A3B
:105D10000298CDF80080FFF7B7FE04460028D4D0E3
:105D2000FDE63C7E07222749294887F86F401EF090
:105D300076FE60B92046294901F0F2F8074610B90D
:105D40006FF00B04EBE6052100F0C0FCC2E7204633
:105D50001F4901F039F900287FF4DFAE387E1C4975
:105D600001F0DEF807460028EAD00621ECE717B17B
:105D7000384600F05FFC6B689F0731D0D6E8EF3FF4
:105D800043F40073C6E8E23F002AF7D1B8F1000FF0
:105D90002FD0D6E8EF3F43F48063C6E8E23F002A05
:105DA000F7D16B6858072DD5D6E8EF3F43F4805301
:105DB000C6E8E23F002A3FF4B2AEF5E7D400002087
:105DC0000000002034990200280000201800002064
:105DD0002100002045850200005602002D99020096
:105DE000D6E8EF3F23F40073C6E8E23F002ACDD0A7
:105DF000F6E7D6E8EF3F23F48063C6E8E23F002AE7
:105E0000CFD0F6E7D6E8EF3F23F48053C6E8E23F71
:105E1000002A3FF484AEF5E76FF00A047FE66FF0E6
:105E200077047CE66FF0680479E61988814204D132
:105E3000596811B10978C90702D40132083372E6F2
:105E4000044905481DF0E0F90023044A024816F011
:105E5000A1FD6BE6D55E0000300000201C4E0E0058
:105E600010B518481AF0C8FE174CD4E8AF3FDA0551
:105E7000C3F3002024D5D4E8AF3F9B0517D51349C1
:105E80000722E01F1EF0CBFD0346A4F1280114F801
