:10000000705B0020F92B000025AC0100E52B0000FF
:10001000E52B0000E52B0000E52B0000E52B0000A0
:10002000000000000000000000000000312C000073
:10003000E52B000000000000052E0000E52B00006D
:10004000852E0000852E0000852E0000852E0000E4
:10005000852E0000852E0000852E0000852E0000D4
:10006000852E0000852E0000852E0000852E0000C4
:10007000852E0000852E0000852E0000852E0000B4
:10026000852E0000852E0000F1360100852E00004D
:10027000852E0000852E0000852E0000852E0000B2
:10028000852E0000852E0000852E0000852E0000A2
:10029000852E0000852E0000852E0000852E000092
:1002A000852E0000852E0000852E0000852E000082
:1004800053B94AB9002908BF00281CBF4FF0FF31FB
:100490004FF0FF3000F00CB8ADF1080C6DE904CE60
:1004A00000F018F8DDF804E0DDE9022304B070473D
:1004B000704700BF034611F8012B03F8012B002AF7
:1004C000F9D17047034613F8012B002AFBD1181A03
:1004D000013870472DE9F0478C468E46089E154638
:1004E00004461946002B40F0D080724547D9B2FA35
:1004F00082F74FB1C7F120030EFA07FCBD40BC40A4
:1005000020FA03F343EA0C0C4FEA154EA8B2230C71
:10051000BCFBFEF80EFB18CC08FB00F943EA0C43C9
:10052000994528D9EB1808F1FF3204D2994502D930
:10053000A8F102022B44A3EB0903A4B2B3FBFEFC17
:100540000EFB1C330CFB00F044EA0344A04214D918
:100550002C190CF1FF3304D2A04202D9ACF10203F2
:100560002C44241A43EA02401EB1FC4000233460AC
:100570007360BDE8F0874246DDE76346F1E7002A95
:1005800079D0B2FA82F3002B3FD01946C1F1200393
:1005900002FA01F500FA01F42EFA03F20EFA01FE56
:1005A00020FA03F3AFB243EA0E034FEA154EB2FB53
:1005B000FEFC0EFB1C201A0C0CFB07F842EA004262
:1005C00090455AD9AA180CF1FF3004D2904502D9AF
:1005D000ACF102002A44A2EB08029BB2B2FBFEFC83
:1005E0000EFB1C220CFB07F743EA02439F4246D94D
:1005F000EB180CF1FF3204D29F4202D9ACF1020297
:100600002B44DB1B42EA004202E0AEEB0203012274
:100610004FEA154EAFB2200CB3FBFEFC0EFB1C33B1
:100620000CFB07F840EA034398452AD9EB180CF174
:10063000FF3004D2984502D9ACF102002B44A3EB61
:100640000803A4B2B3FBFEFC0EFB1C330CFB07F744
:1006500044EA0344A74216D92C190CF1FF3304D203
:10066000A74202D9ACF102032C44E41B43EA004048
:100670000F46114678E71F2188E76046ABE76246E0
:10068000BFE76046DBE76346EFE7734506D916B977
:10069000002108466DE7C6E9000EF9E7B3FA83F7D3
:1006A00087B9734501D3824207D8841A6EEB0303DE
:1006B00001209C461EB900215BE73846FAE7C6E9EF
:1006C000004CF8E7C7F1200CBB4000FA07F422FA0F
:1006D0000CF520FA0CF1BA401D432EFA0CF30EFA79
:1006E00007FE4FEA154941EA0E011FFA85FEB3FBEA
:1006F000F9F809FB18300B0C08FB0EFA43EA00432B
:100700009A4540D9EB1808F1FF3004D29A4502D936
:10071000A8F102002B44A3EB0A0389B2B3FBF9F85A
:1007200009FB183308FB0EFE41EA03418E452CD924
:10073000691808F1FF3304D28E4502D9A8F10203EB
:10074000294443EA0040A1EB0E01A0FB0298414579
:10075000CE46434602D306D14C4504D20138B9EB0C
:10076000020E68EB0503002EA5D0B4EB0E0261EB80
:10077000030101FA0CFC22FA07F3F9404CEA0303E7
:10078000C6E9003197E74046C5E74346D9E7000090
:100790002DE9F043044640F2712690F84C0094F89D
:1007A0003830C0F3400060F386138DB004F13A0195
:1007B00084F838300AF0F4FD0021B4F840303E4DA2
:1007C0003E4AA3FB0663651B94F83830A2FB05255F
:1007D000A26C03F0790384F8383002F21313B342A9
:1007E00032BF184630460A46C4E90211217024611E
:1007F000626460600AF088FD6369C5F3871500F2E2
:100800001317002B41D00DF12C08022391214FF03A
:100810000009CDF820800694294A0B932948B4F8A2
:1008200040300792A3FB000201FB0321264BCDF8C9
:100830000C9005936368023504931DA3D3E900234C
:10084000FFF71EFE104619464FF47A720023FFF799
:1008500017FEEDB20321CDE901603B462A4648462A
:10086000CDF800900AF026FC41460BF055FA40B94D
:1008700094F84C3043F0010384F84C300DB0BDE8DF
:10088000F0830C200DB0BDE8F0830DF12C08CDE90C
:100890000A330320434661680AAA12F02BFD0028A0
:1008A000B3D1DDE90A371F44AFE700BFAFF30080E3
:1008B00000CA9A3B0000000008110020CDCCCCCC2F
:1008C00009B40000002AE784C5DA000007B54B78B8
:1008D00005480193CB8800930B794A88097819F071
:1008E0004BFC03B05DF804FB90F20100032970B5E6
:1008F0000C4612D801220D4B1A701CF0D3FF4FF496
:100900007A75A0FB0506002347F6122205FB01615C
:10091000FFF7B6FD064BC3E900012146BDE8704074
:100920004FF4FA72034819F027BC00BFE12B0020F6
:1009300080080020DCF201001FB53023074A084977
:10094000CDE90123002301A8039305F07FF90146B7
:10095000044819F011FC05B05DF804FB01006000CB
:10096000B10A000012F3010073B506460C4629B91E
:10097000214819F001FC002002B070BD137C1F4D0E
:10098000032B19D108461BF05CFD1D4B1D49188037
:100990001B8830462B8100238DF8043042F6021369
:1009A000ADF8063001AB0B60238A02330B810423C0
:1009B0000B7408F053FBDEE70126134BAE812B606E
:1009C0000B8A29466B8109F005F8014610B110F138
:1009D000780F0DD10D4B0E481E70094B198889B246
:1009E00019F0CAFB00230B4A0B4818F041F9C2E783
:1009F0000A4819F0C1FBBEE71EF30100FC150020F8
:100A0000C02B0020141600200D0B0000E22B00204C
:100A100037F30100366E0100000000204AF30100A8
:100A2000084B1B786BB1084B1B7853B1074B1A78F6
:100A30003AB9012206481A7043F60952002318F009
:100A400017B97047DE2B0020E02B0020DD2B0020A3
:100A50009808002010B50C461BF062FD21460246A6
:100A6000044819F089FB0122034B1A70BDE81040BD
:100A7000FFF7D6BF5BF30100DE2B002010B50C465C
:100A80004A780948097819F077FB2378022B09D1B5
:100A90006378022B06D10122044B1A70BDE8104086
:100AA000FFF7BEBF10BD00BF6EF30100E02B0020BA
:100AB00070B5134E05461846336888B0F3B911492E
:100AC0000DF107028DF8073002F0E0FE9DF80730C7
:100AD000A3B105F00BF90C4B02AA1868596808334A
:100AE00003C214460FCB84E80F0033462146284644
:100AF00002AA06F041F808B1FFF71EFF08B070BD6A
:100B0000281600200D0C0000A0E6010070B5104E64
:100B1000D6E90045181945F10001C6E900011AB9E6
:100B200010460C4B1A7070BD082B05D00A4A13688A
:100B3000013313600120F6E7084B196813689942E6
:100B400001D0074AF3E7074817F03EFEF2E700BF7F
:100B500090080020E22B0020AC150020B4150020E6
:100B6000B01500206406002038B50C46194819F06D
:100B700003FB194A1948136801331360184B1C70A2
:100B80000024184B1C70184B1C70184B1C80184B01
:100B90001C70184B1C70184B1C701CF0FCFC174888
:100BA0001CF0F9FC164817F069FE164D4FF0FF32A5
:100BB0004FF0FF33144817F00FFD286810B105F00F
:100BC00069FA2C60104817F079FDBDE83840FFF74E
:100BD000B3BE00BF7FF30100A815002098080020D5
:100BE000DC2B0020E22B0020E12B0020C02B00207A
:100BF000DE2B0020DD2B0020E02B00200000002059
:100C000064060020281600203006002010B5037866
:100C10000C46083B012B0CD84278072A09D106491B
:100C200040681CF0C7FE034601200BB9207018462F
:100C300010BD0120FCE700BF98F301002DE9F04F43
:100C40000024A1462646DFF82CB1DFF82CA1B1B074
:100C50004FF47A7019F0F1F8484B494F1B78DFF8E0
:100C60002481013633B1484B1B781BB1474B1B68BD
:100C7000002B7AD13B68013401333B60D8F8003057
:100C8000A34201D2C8F800406022414B0DEB0200A4
:100C900000211D681CF086FEDBF80020002A66D0CB
:100CA000DAE9000100231692FFF7EAFB394B169AA6
:100CB0001B683949DFF8E4C009680DF1600E169130
:100CC000374909681791374909689CF800C0CDF881
:100CD00054E0D8F800E0DFF8D080CDF850E03F686D
:100CE0001397324F3F681297314F3F681197314F3A
:100CF0003F681097304F3F680F97304F3F680E970F
:100D00002F4F3F680D972F4F3F680C972E4F3F682E
:100D10000B972E4F3F680A972D4F3F68CDE908C7C4
:100D2000079117992B4F069116990591A5EB09018B
:100D3000CDE903513968A946CDE90121D8F8002051
:100D4000314600920246244819F016FA002100208C
:100D500000234FF0FF32CAE900010E49CBF8003002
:100D60000A60C8F800303B6072E700248CE7104648
:100D700013469EE7F415002088080020E22B00208F
:100D8000BC150020B8150020E12B002028160020FB
:100D9000E024002030020020B0150020DC2B0020D1
:100DA000AC150020A8150020F0150020C01500206B
:100DB000C4150020CC150020D0150020D41500202B
:100DC000D8150020DC150020E0150020E4150020D7
:100DD000E8150020EC150020A0F3010010B54FF03D
:100DE000FF334FF0FF32074817F0F6FB064B1C6845
:100DF0001CB120461AF0ACFA0446024817F05EFC1B
:100E0000204610BD300600202816002010B58AB0FC
:100E1000FFF7E4FF0446F0B1694605F00BFEE0B9C8
:100E2000059A0F4B4FF4FA711B780E4819F0A4F98C
:100E30000D4A0E4B114613600D4B204653600123A3
:100E400013814FF6FF73D3810323137408F006F95F
:100E5000204605F01FF90AB010BD4FF0FF32E0E761
:100E6000E02B00207CF4010014160020680500200F
:100E7000690900002DE9F04F002635463446DFF8B9
:100E8000CCA1DFF8CCB189B0724B1B782BB1DAF86A
:100E9000003013B19BF800302BB9322018F0CDFF91
:100EA000A1464C46F0E71CF0FDFC4FF47A77A0FB1E
:100EB000070C694B07FB01C1D3E90023CDE90423EB
:100EC000002347F61222FFF7DBFA049B4FF00008DD
:100ED000C01A059B61EB0301B0F5FA7F71F10001C7
:100EE00001DA0A20DAE75D4B1C605D4817F0C6FCAA
:100EF0005C4A0694136804F1010901331360FFF79B
:100F00006DFF044618B9022018F097FFC9E71BF0DF
:100F10003BFE554B074619882046CDE90188CDF8A0
:100F20000080082306AA89B21BF0F8FB8046204601
:100F300005F0B0F8B8F1000F19D04C4A46451368D7
:100F400005F1010403F10103136005D1C822B5FBCB
:100F5000F2F302FB13532BB922464146444819F0E1
:100F60000BF94646022018F068FF254699E741F63E
:100F70006A0200233A4817F05BFC002858D11BF0A6
:100F800003FE3C4A3C491368C01B01331360D1E99E
:100F900000321B1842F10002C1E90032374B1A68D7
:100FA000824288BF1860364B1A688242354A38BF81
:100FB0001860136801331360334B1A68824238BFDC
:100FC00018604FF47A73B0F5FA6FB0FBF3F327D9DA
:100FD0002E490A6801320A6041F2883290421FD9D4
:100FE0002B490A6801320A6043F69822904217D9C9
:100FF00028490A6801320A6044F6206290420FD9FB
:1010000025490A6801320A6047F23052904207D9F6
:10101000B0F57A3F28BFFF2320490A6801320A60F1
:101020001F4931F81320013221F8132003206BE708
:101030001C4A1368013313601B4A136801331360A1
:101040001A4A136801331360F0E700BF2816002026
:10105000E12B0020E22B002080080020B4150020A6
:1010600064060020C4150020C02B0020C0150020FD
:10107000B3F40100F415002088080020300200209D
:10108000F0150020E8150020E0150020DC150020F8
:10109000D8150020D4150020D0150020CC15002034
:1010A000C0290020EC150020E4150020C815002000
:1010B00070B504468AB069B11D4C1E4819F05CF841
:1010C000206804F0E7FF002323600AB0BDE8704009
:1010D000FFF732BC694605F0ADFCB0B9059916487A
:1010E00019F04AF80122154B1A701CF0DBFB4FF483
:1010F0007A75A0FB0506002347F6122205FB016165
:10110000FFF7BEF90E4BC3E9000100230D4A20464C
:1011100013700D4A13700D4A13700D4A13700D4A67
:101120000D4B1146136007F06DFF0AB070BD00BF94
:1011300028160020D0F40100E7F40100E12B002084
:1011400080080020DF2B0020E02B0020DE2B002079
:10115000DD2B0020F8150020550A0000002008B5FE
:1011600003F044FF014620B1074819F005F80020BC
:1011700008BD064906481CF000FA064818F0FCFFB6
:10118000FFF7DAFBF3E700BF02F501000D0E0000E8
:101190009808002010F501002DE9F84F8A4600AFAD
:1011A000002974D004680E1F361BF50826F00706C8
:1011B00004EB0608B8F802B01BF0010B16D1E946A3
:1011C00088B06A46334BCDE90531032342F8103F1E
:1011D0004FF4C2515B46304800F0A4FFCD468BF37C
:1011E0001188BFF36F8F0423184602DF294620467B
:1011F00018F03EFE284434F83030C01A854217D02B
:10120000E94688B06A46254BCDE9053A032342F802
:10121000103F00234FF4C2511F4800F083FF00230A
:10122000CD4683F31188BFF36F8F0423184602DF86
:10123000B8F80230294623F00103A8F8023020460E
:1012400018F016FE05EB000804EBC8035B88DA070C
:1012500008D44146204618F054FE4246294620460E
:1012600018F094FEA65BAE1B04EBC6035B88DB079D
:1012700009D43146204618F044FE2A46314620461D
:1012800018F084FE35462946204618F0F6FDBD4686
:10129000BDE8F88F9AF5010068E6010071F50100DC
:1012A0002DE9F04F91B0009302F004030293C2F3D2
:1012B000C2030133840705460E46DDF868A0039299
:1012C000059340F09C81041D002849D101F00706D8
:1012D000341DC6F10806009B00274FF004085A1E73
:1012E0004FF0FF33B9460193BB46434604970DB117
:1012F000009921600598002800F3D6808F48009956
:10130000814203D38E488142C0F0CE800399601B96
:1013100011F0020C40F0D680B9F10F0F00F2CF802F
:10132000002D00F0D68009F140010DEB010E01996E
:10133000C0F387000EF8200C0EF8101CBCF1000F53
:1013400000F0C38060F07F000EF8200C013709F137
:101350000109C5F108014FF6DA7E043406918CE0EC
:101360000729B8D86FF01B0011B0BDE8F08F7A28BC
:101370005BD84B280FD8472857D829282ED825289E
:1013800050D052D8202818BF23280CBF4FF0010B93
:101390004FF0000B71E04C382E2846D8DFE800F003
:1013A0006D454545454545454545454548454545C2
:1013B0004545454545564548485656566D486A4543
:1013C0006D4518481845457F7C48454548457C0093
:1013D00000204FF0000B4FF0040835E001212A38BF
:1013E000C0B201FA00F010EA0E0F46D110F0625CB4
:1013F0002CD110EA010B40D06046013C4444B4FBC0
:10140000F8F408FB04F425B1A3EB050CA444B4459F
:10141000A8D8002870D00599013905915AF8041B05
:10142000009164E70199013901914FF0000B24E02C
:1014300012F8010C6C2834D1002012F8023C8346CB
:101440006C2BC8D14FF008084346D6E70AF1070ACB
:101450002AF0070A073424F00704FAE802BC35B181
:1014600006982044B0423FF67DAFC4E900BC4FF07F
:10147000000B08344FF00808434612F8010F00280B
:1014800053D0BBF1000F7FF472AF2528F5D14FF098
:10149000010B019B013301934FF00408ECE7584620
:1014A00097E700208346A8E7039988077FF551AFA7
:1014B0004FF0010C601BB0F5007FFFF42DAF6FF013
:1014C000150051E74FF0000CF5E704980130049047
:1014D0003DE7BCF1000F01D0013638E70298023633
:1014E00000287FF434AF0098CDE90632FEF7EAFF1A
:1014F000DDE9063206442AE7042B08D10AF104008C
:1015000015B1DAF80010216082460434B5E70AF11B
:10151000070323F0070303F1080A1DB1D3E9000113
:10152000C4E9000108230834A7E7631BB3F5806F03
:10153000C5D23DB9A6F10804E01815E7B0DA0100FC
:10154000C0130200029A9B0828602B709DF810308F
:10155000AAB1EB70AF702FB1002208A8C5F1010C41
:1015600091450ED14FF0000AC5F101030DF120089D
:1015700001930DF1300BD14512D1601BF4E66B7075
:10158000E8E710F8013B190608D50CEB040EB64548
:1015900003F07F033FF6E6AE04F8013B0132DFE7DC
:1015A0001FB198F90020002A17DB029BD3B11AF86B
:1015B0000B2004F8012B0022019B18191044B042A3
:1015C0003FF6D0AE98F80000009904F8010B2046D1
:1015D00003921CF0DAF9039A14440AF1010A08F1A3
:1015E0000108C8E798F8002055F822300093029BC4
:1015F000009845F82230FEF765FF421CDCE76FF0EB
:101600000D00B1E62DE9F04F97B000AF05468A46D0
:10161000C7E90A3249B903784678807800EB83003D
:101620002844564524D8A0EB050AD7F8803095F811
:10163000028003F00103D7F88040FB61EB78B8F13A
:10164000000F0CBF002404F001047B621BB1D7F82B
:1016500080309A0715D4A4B9FB6A1BB151462846BD
:10166000BA6A9847564630465C37BD46BDE8F08FAB
:10167000441C2046FEF726FF013020440AF1010AEF
:10168000CFE7D7F88030C3F3C0033B622B78BB6150
:101690009B003B616B687B61BB6905EB830BFB6A5D
:1016A000002B77D15646D844BCB11C461BF8013BF1
:1016B00055F82300FEF706FFD7F88430013043B118
:1016C000D7F88830A34282BFD7F8843023F81400BB
:1016D0000134C3450644E9D1D846D7F880304FF0ED
:1016E000000913F0050F0CBF4FF0020B4FF0010B78
:1016F0007B6A9945B7D298F8013008F1020855F88D
:1017000023A0AE4B9A45C0F04C81AD4B3A6A9A4546
:101710002CBF002301230AB318F8021C7869FB626E
:1017200018F009FDFB6AC8B1EA468AB06A46A54BC3
:1017300005937B69CDE906314FF40073ADF8203095
:10174000A14B42F8103F00234FF412519F4800F084
:10175000E9FCD546023E09F10109C9E723B1FB695D
:1017600033B9A6EB0B06F6E7D7F880309B07F2D526
:101770005046FEF7A7FED7F884304BB1D7F8883033
:101780009C423FBFD7F88420431C22F81430013418
:101790000644E0E7002C6AD1B8F1000F6DD0D7F80D
:1017A000803058076CD5C14607F14800424659467B
:1017B0001CF0EBF800220BEB0803FB600233796AA4
:1017C0008A425FD3D7F8802095F801B0F969920773
:1017D00004EB0B0348BF0022DBB258BF4FEA5902AB
:1017E000002940F0A680D7F8801011F0040F14BF34
:1017F000494600216B70A970EA702846BA6A3969B7
:10180000FB6A9847061EFFF62EAFBB6949462B7050
:101810007B6ABA6AEB7085F801B0FB6A85F80280D2
:1018200007F148009847B0F10009C0F2B6803B6963
:101830007A6A786A03EB4201FB68414403EB40009B
:10184000BA6AFB6AAAEB010198470028C0F2A78098
:101850004FF0000BB14409EB000607F1380AA3452D
:1018600069D30021BA6A0846FB6A9847FBE64446FA
:101870004FF0000907F1380098E74446C14699E760
:10188000A14697E713F8016CDFF830C155F8260040
:1018900013F8021C6045C0F08A80DFF824C160455F
:1018A000386A2CBF4FF0000B4FF0010B38B178694C
:1018B000C7E9013218F03FFCD7E90132F0B9BBF1BA
:1018C000000F1ED0F96949B1611C04F1280007F12D
:1018D0003004041904F8206CCCB20FE0D7F8801063
:1018E00049070BD509F1280007F1300C09F1010176
:1018F00000EB0C0909F8106C5FFA81F90132023330
:101900005DE7D7F880008007DED409F1280C07F1E5
:10191000300EF44409F101000CF8101C07F15801D5
:1019200009F1020951FA80F05FFA89F900F8106CA8
:10193000E4E700215EE71BF80A3055F8239087F8AA
:101940003730D7F884302BB3D7F888309B4521D275
:10195000D7F8843033F81B800121BA6AFB6A07F19B
:101960003700984700281ADB0644B8F1000F06D16B
:101970004846FEF7A7FD00F101081FFA88F8414626
:101980004846BA6AFB6A9847002808DB06440BF110
:10199000010B64E74FF00008DEE74E4663E60646BB
:1019A00061E63B6A002B3FF4DFAE0023B4E6386A01
:1019B0000028A6D04FF0000B79E700BFB0DA010095
:1019C000C0130200C7F501000400000120E6010079
:1019D000014B1860704700BF3402002080B50546F7
:1019E0000E461746984617F037FC034601F05CFA9E
:1019F0000446DFF81890424649F800303946304630
:101A0000A84754F8090001F0E7F900BF08000000FA
:101A10002DE9F047058B0446280717460CD5012908
:101A20000CBF45F0100545F02005258387F311888C
:101A3000BFF36F8FBDE8F087022905F0070540F07E
:101A40009480204618F039FE052864D801A353F885
:101A500020F000BF2D1A00006B1B0000171B0000B8
:101A6000D91A0000F31A0000051B000001F007035B
:101A70005A1F012A1FD8002221F00701062BD4F893
:101A8000008089B2C4E9002209D1434603E0628B99
:101A9000013262831B68002BF9D141F0020120461C
:101AA000218318F00AFE4FF0000900286DD041F0A4
:101AB0002001218369E0042B0AD121F0070189B2BA
:101AC0002046218318F0F9FD10B141F02001218357
:101AD0004FF00008C14658E02369D3F80090238BEB
:101AE00023F0070343F006034FF000082383464624
:101AF0004BE02369D3F80490238B23F0070343F0D2
:101B00000403F1E72369D3F80890238B23F007033C
:101B100043F00503E8E74FF00008C146E7E701227C
:101B200043F00803238387F31188BFF36F8F002AE4
:101B30003BD1B8F1000F4AD1B9F1000F02D02046D5
:101B40002C49C847EFF31187202383F31288BFF392
:101B50006F8F238B23F008039BB22383D9063FD5D5
:101B600023F01002228303F007056669218B002E03
:101B7000BFF67CAF00239946D4F8008021F007011E
:101B8000C4E9003341F001012183238B03F0070AEC
:101B9000AA4502D0A268002AC1D1B8F1000F02D133
:101BA000B9F1000FDAD00022BAE7A1680029C0D04D
:101BB0000D680029BDD03346524620464F68B847CD
:101BC0001DB12B6829461D46F3E72B46FAE741462F
:101BD000334652462046D8F8008018F09AFDA8E710
:101BE0009A067FF523AF23F02002228303F0070536
:101BF00027E700BF3FA701002DE9F047044607464D
:101C00004FF00109DFF84C8094FAA4F5B5FA85F598
:101C100009FA05F32E0108EB05156FEA030A24EA19
:101C200003042B7B63B158F806301B696BB946443B
:101C3000736804222846196807EA0A0718F078FE34
:101C4000002CE1D13846BDE8F087284698470028A7
:101C5000F6D1ECE788E6010010B5002288B00E4905
:101C60000E481BF067FE002200230024CDE9062366
:101C70000E234FF44072CDE90334CDE90144084B03
:101C800008490094084817F06BF8084906481BF00B
:101C90009BFC204608B010BDB11C0000500D002078
:101CA000CD1F0000A0380020C808002086F60100E3
:101CB000014816F089BD00BF440600202DE9F04719
:101CC000804621480F4618F017FE0646002833D0FC
:101CD00000252846BDE8F087237B83B12368DB68B5
:101CE0000BB120469847636883F8069023681B6908
:101CF000D3B9636804222046196818F019FE01362A
:101D000010345445E8D3B8F1000FE2D0002DDFD0F5
:101D10002846FFF771FF0546002FF7D0002140F25B
:101D200039101BF011FDF1E7204698470028E0D05C
:101D300009FA06F31D43E2E705464FF00109034C9B
:101D4000DFF80CA0DDE700BF3C16002088E60100AC
:101D500098E60100014B53F8200070474CE7010062
:101D600008B5034608462BB1044A136000F03AFC5C
:101D7000002008BD6FF01500FBE700BF380200200F
:101D800010B5044C237813B9034816F01DFD012348
:101D9000237010BDE32B00204406002010B504463C
:101DA000094818F0A9FD3CB1084BD3E8EF1F0139F1
:101DB000C3E8E21F002AF8D1054817F071FDBDE81D
:101DC0001040044816F000BD3416002038160020DC
:101DD000500D0020440600200022044BD3E8EF0FF2
:101DE000C3E8E12F0029F9D1704700BF3416002065
:101DF00070B5FFF7F1FF0546074C084EB44200D31B
:101E000070BD63685B792BB123685B6813B12946A9
:101E1000204698471034F1E788E6010098E6010073
:101E200010B5044C0449204618F0C1FA034B1C605D
:101E300010BD00BF8C05002038E701002C160020E3
:101E400000230D4A10B513700C4A0D4913600D4A5A
:101E50000D481360FFF784FFFFF7E2FF0B4B0C49BF
:101E600018468B4200D310BD1A1A5C681211013259
:101E700022711033F5E700BFE42B00203416002058
:101E800040420F0038160020F5A8010088E6010046
:101E900098E60100014600220023014818F0A8BA84
:101EA0008C050020014818F03FBB00BF8C050020C6
:101EB000024B0146186818F092BB00BF2C16002098
:101EC000014818F0C7BB00BF8C050020F8B5284BAF
:101ED0001B78002B4AD0FFF7E5FF0446002842D1CB
:101EE000244B254D1B68002B19DD1BF0DBFC4FF448
:101EF0007A76A0FB060747F61222002306FB017143
:101F0000FEF7BEFAD5E90032C01A40F2E93361EBC0
:101F10000201984271F1000101D3FFF769FFD5E991
:101F2000003213F57A7342F10002C5E90032ECB1D8
:101F3000BDE8F840FFF7C4BF6B685B7923B12B683D
:101F4000214628461B6898471035B542F4D32046F1
:101F5000FFF7AEFF094BD3E8EF1F0139C3E8E21FDB
:101F6000002ABDD0F7E7064D064EEEE70020F8BD8B
:101F7000E32B002034160020480D002038160020E6
:101F800088E6010098E6010070B50D4D297861B929
:101F90000120FFF793FE0B4C0B4EB44206D3FFF724
:101FA00095FF0028FBD101232B7070BD63685B791E
:101FB0001BB1236820469B6898471034EDE700BFAB
:101FC000E42B002088E6010098E6010000212DE9BD
:101FD000F8430846FFF772FE044648B340F21B6818
:101FE0004FF0000900F060FF1A4B1B4A1B581360AA
:101FF00033B11A4B1B68092B02DD194816F0E4FBBC
:102000000025184F44B12046FFF7F6FD044618B9E5
:102010004FF0FF384FF0FF39FFF758FF064628B959
:10202000B5B90F4842464B4616F002FC3546E9E783
:102030004FF0FF384FF0FF39D4E72B689B691BB195
:1020400000222846114698471035BD42F5D3E8E7EF
:10205000054DFAE708000000301600203816002071
:102060004406002098E6010088E6010013B51848F0
:1020700018F042FC174B1B7873B1EFF31184202347
:1020800083F31288BFF36F8FFFF720FF84F311886B
:10209000BFF36F8F02B010BD0F4B1B68002BF9D040
:1020A00050B9002200230D48CDE9002347F6122243
:1020B000002317F0BDFBEDE70928EBD1074817F027
:1020C000EFFB074802B0BDE8104016F07DBB00BF33
:1020D00038160020E42B002030160020500D002080
:1020E0004406002010B5064B04461B68984721465D
:1020F000A060044818F0F9F9BDE81040FFF7B6BF3A
:10210000380200208C050020044A054B9B1AB1EBD5
:10211000D30F34BF52F8310000207047A8E501000A
:1021200088E601002DE9F04F8FB0C1F34A2604AFD5
:102130000D469046B8607B600C0D002E61D04FF0CC
:1021400000090A234FF0040B07F1140AFE60C7E9E7
:102150000799C7F824900093CDF808B0CDF804A0F3
:1021600007F11C034A464046F968FFF74BFAB0F501
:10217000006F03461CD36C468AB0D8F8041004AB39
:1021800024481A46C3E9050140F2FF71D9614FF4B2
:1021900000711984204B42F8103F4FF412514B4606
:1021A0001E48FFF7BFFFA5462C37BD46BDE8F08FA0
:1021B000C0F30A0604F11700184420F00700800855
:1021C0003B60FFF767FE66F35325044680B13B682A
:1021D00000F11001C7E908390A23F961CDE901AB23
:1021E000009340460E4AF96807F11C03FFF70AFA0C
:1021F00066F353252A4620467B68B96818F0B8FB79
:10220000D2E704F1170020F007008008FFF742FE34
:102210000446EDE79BF601000400000130E60100F2
:1022200043A901002DE9F04F87B00546DDE9106BA9
:10223000DDE9127A884614469946BFB110213B4623
:102240005A460020CDF800A0CDF814A0FFF728F8DA
:10225000B0F5006F01460BD340F2FF730221184A1C
:10226000184807B0BDE8F04F18F0DBBB39463846D8
:1022700004F0070305F00704E40044EA831444EA89
:10228000402444EA065406F11700084420F00700F1
:1022900080080391FFF7FEFD054640B13FB13B4684
:1022A0005A460399CDF800A01030FEF7F9FF4B46CF
:1022B00022464146284607B0BDE8F04F18F058BB0B
:1022C000DAF6010030E60100406820B1034BC01A85
:1022D00040F3CF0070474FF0FF307047A8E5010092
:1022E0000EB403B503AB53F8042B01460448019325
:1022F00001F00EF802B05DF804EB03B0704700BFC8
:1023000085AA0100CA0605D48B064CBF02490349C1
:10231000FFF7E6BF704700BF13F7010012F7010097
:102320002DE9F04F89B098469DF85090159B0446D2
:1023300006930D46DDE916A3189F05920493B9F1A3
:10234000000F00F0B08007F48073079318F0EEFAE6
:1023500007F0020B0246002874D020467749FFF7A9
:10236000BFFF0646BBF1000F08D017F0440F6BD13A
:102370002A4620467249FFF7B3FF064407F00103DF
:1023800053B1704B204653F829206F4B6F49002AF8
:1023900008BF1A46FFF7A4FF07F48073002B07F06D
:1023A000080318BF4FF00008002B79D0684B204677
:1023B00053F829206749FFF793FF0546059B2BB18A
:1023C0001A4620466449FFF78BFF0544B8F1000F19
:1023D00005D0424620466149FFF782FF0544604828
:1023E0003544069B1BB122465E4917F073FE049BE1
:1023F000002B00F08E80DDF810803946B8F1100F08
:10240000204628BF4FF010080026FFF77BFFB5429B
:1024100050DC0026334620461AF803205249FFF7C5
:102420005FFF0136102E4BD0710703D120464F4974
:10243000FFF756FF46453346EDD320464C49FFF79C
:102440004FFFEEE706468DE74A4B1868002894D008
:10245000494B4FF47A7B1B684FF03C0CB5FBF3F50E
:10246000B5FBF0F14FF4616300FB11550BFB05F573
:10247000B1FBF3F2B5FBF0FE03FB121100FB1E559E
:10248000B1FBFCF30BFB05F5B5FBF0F50CFB1311F1
:1024900020460091CDE901E53849FFF721FF6CE7BF
:1024A00007F008058AE7B8F1010F4D460CBF2C482C
:1024B000334896E720462D49FFF712FF0136A6E77D
:1024C000002620462F49FFF70BFF33461AF803205A
:1024D0002046A2F120035F2B28BF2E222A49FFF7B6
:1024E000FFFE0136102E0DD0720703D120461F4982
:1024F000FFF7F6FEB0453346E8D820461B49FFF704
:10250000EFFEEEE7049BC244B3EB080304937FF4B1
:1025100072AFB9F1000F0AD0FB0704D520460A4A72
:102520000A49FFF7DDFE39462046FFF7EBFE20465D
:1025300009B0BDE8F04F18F098BA00BF1AF70100D3
:102540001EF701005CE7010015F701001F01020002
:1025500070E7010043F7010049F701004DF7010062
:1025600085AA01001133000052F701005AF701005B
:1025700058F70100441600204016002027F70100FC
:10258000B3AA01005CF701005EF7010042F20F738D
:1025900073B58B4228BF0B46056804460521684683
:1025A0000D4A17F0DDF90646636828460B225B6882
:1025B0000A4918F04CFA63683246694628465B6857
:1025C00018F045FA63681B2228465B68044918F036
:1025D0003EFA02B070BD00BF54FD010018130200A6
:1025E000FC12020000210123064A904206D8064A46
:1025F00001B901231360054B1860704701214008A1
:102600005B00F2E740420F00401600204416002015
:10261000F8B50D460446064F4618B44201D1284687
:10262000F8BD14F8011BBB6801485B689847F4E7E4
:10263000C4DB0100014B036000207047B8E70100D4
:1026400008B50348034A0021121A18F0E3FA08BD3E
:1026500080070020A02C0020074808B5074A084939
:10266000121A18F0D9FABDE808400648064A074988
:10267000121A18F0D1BA00BF000000208007002015
:10268000C01302000000002000000020C013020060
:102690002DE9F04706460C4600AF002936D0D1E9B7
:1026A0000012E9468AB06D46A3684FF0050AE84675
:1026B0001F48CDE90723CDE9050148F810AF0023F5
:1026C00042464FF421511B48FFF72CFDD4E9031279
:1026D000CD466369AD461848C5E90723C5E905013C
:1026E000C5F810A0002342464FF421511148FFF7CE
:1026F00019FDCD46E3690121104A0E4818F091F901
:10270000A36901210E4A0B4818F08BF9012E07D15D
:10271000EFF305830B4A31460648103B18F081F968
:102720002146304615F07AFDBD46BDE8F08700BF72
:1027300097F7010060E60100C6F70100F5F7010018
:1027400004F8010032F8010030BFFFF7FDBF00BF01
:102750002DE9F04105460B4EDFF82C80324606EBA2
:102760000807CC1B204609491BF00FF9A019424667
:102770000021083C1BF016F92C6707F10800BDE8A2
:10278000F08100BF000000000400000098E6010096
:1027900010B5244C2449254818F04BFAA36A990136
:1027A0003ED52248224918F044FA1E20A36ADA01D5
:1027B00004D51E481F4918F03CFA1F20194CA36A83
:1027C000DB0204D519481C4918F033FA0220A36A29
:1027D0001C0304D51548194918F02BFA2120114C77
:1027E000A36A590304D51148154918F022FA22208A
:1027F000A36A9A0304D50D48124918F01AFA232047
:10280000084CA36ADB0304D508480F4918F011FAF5
:102810002420A36A6FEA03436FEA1343A36210BD47
:102820001D20C3E700ED00E045F8010060E601006F
:102830005DF8010070F801008AF80100B4F80100A9
:10284000D2F80100F7F8010011F9010070B5064651
:102850000D46294C29492A4818F0EBF9A36ADB06F2
:1028600047D52748274918F0E4F91120A36A1C0727
:1028700004D52348244918F0DCF912201E4CA36A21
:10288000990712D521491E4818F0D3F9636BA26A43
:10289000120609D501211E4A194818F0C2F81EB1C6
:1028A000A36A23F08003A3621320134CA36ADE07FC
:1028B00004D51348174918F0BCF91420A36A9C06E4
:1028C00004D50F48144918F0B4F915200A4B9A6A38
:1028D000D10658BF9A6A9A6A920642BF5A6A22F48F
:1028E00000525A629A6A42F0FF029A6200232B70E9
:1028F00070BD1020BAE700BF00ED00E03CF9010018
:1029000060E6010052F9010085F9010098F9010023
:10291000B0F90100C6F90100E5F9010070B50646FD
:102920000D46284C2849294818F083F9A36AD90490
:102930003CD52648264918F07CF91720A36A1A05C9
:1029400004D52248234918F074F918201D4CA36AB5
:102950009B0512D51D48204918F06BF9A36BA26A9C
:10296000100409D501211D4A184818F05AF81EB163
:10297000A36A23F40043A3621920124CA36A5905E9
:1029800004D51248164918F054F91A20A36ADA053A
:102990000ED50E48134918F04CF91B20094A936ACA
:1029A00043F47F43936200232B7070BD1620C5E76C
:1029B000A36A9B04F2D505480B4918F03AF91C208C
:1029C000ECE700BF00ED00E014FA010060E6010052
:1029D0002AFA010085F901003BFA010054FA0100CE
:1029E00069FA010084FA0100E5F901002DE9F041DE
:1029F0008AB0674B0446D3F80480002500AFC8F3C3
:102A0000080685F31188BFF36F8F02F07F43B3F19F
:102A10007F4F07D102F00C03082B12D15D495E48AD
:102A200018F007F900252C460023FB71F31E092B33
:102A300000F28E80DFE803F00A8487808C8C8C8C17
:102A40008C8A10074CBF0C460125EDE753495248CC
:102A500018F0EFF800234E4EFB71F36A9A0705D584
:102A60004F494D4818F0E5F800232DE0F36A002B9C
:102A700001DA4C49F5E7F36A5B00F5D54A49464867
:102A800018F0D7F87369A26943F480737361BFF3D8
:102A90004F8FBFF36F8F32F8023C726922F480725D
:102AA0007261BFF34F8FBFF36F8F03F47F42B2F5B4
:102AB0005F4F2BD1DBB2022B28D1236801213B4A87
:102AC000354817F0AEFF2368FA79DAB907F108063E
:102AD00004F1200C324620686168083403C2644562
:102AE0001646F7D17A6A002D4FD0C2F3080121B9FA
:102AF0006FEA52226FEA42227A62184607F1080111
:102B0000FFF7C6FD2837BD46BDE8F081204B9A6A25
:102B1000D2B222B10120F91DFFF798FE0EE09A6AA9
:102B200012F47F4F04D00120F91DFFF7F7FE05E0F6
:102B30009B6AB3F5803F97D3FFF72AFE0346C3E7AE
:102B40000020F91DE8E70020F91DEEE7184988E7A5
:102B5000184A18F4F87FE8468AB0174B08BF1346A6
:102B60006A461649103ECDE905134FF40073ADF8DF
:102B70002030134B079642F8103F00234FF41151B9
:102B80000548FFF7CFFAC5466EE76FF30802B3E7D3
:102B900000ED00E0CAFA010060E60100F5FA01006C
:102BA0000CFB01002DFB01003BFB01005AFB010067
:102BB00076FB01009CFA0100B1FA01009AFB0100CA
:102BC00004000001064B5A6942F010025A615A692A
:102BD00042F480625A615A6922F008025A617047D1
:102BE00000ED00E0EFF30880EFF3098101B57246D4
:102BF000FFF7FCFE01BD00BF0B4880F3088814F00E
:102C000059FB202080F3118808484FF400614018D8
:102C100080F30988EFF314800221084380F31488BD
:102C2000BFF36F8F00F06AF8705B0020304A00201D
:102C30001EF0040F0CBFEFF30880EFF309808169E9
:102C400011F8021C0229FFD001B5724617F0E6FF09
:102C500001BD00BF00B2002807DB01234109034A80
:102C600000F01F00834042F82130704700E100E08F
:102C700000B200280CDB01220649430900F01F00C6
:102C80008240203341F82320BFF34F8FBFF36F8F73
:102C9000704700BF00E100E0054B420953F82220D5
:102CA000012300F01F0003FA00F01040704700BF3E
:102CB00000E100E000B2002801F10101ACBF00F129
:102CC0006040064B4FEA4111C9B2ABBF00F561400D
:102CD00000F00F0080F800131954704714ED00E065
:102CE000044B054A23F07F039360BFF34F8FBFF37C
:102CF0006F8F70470000000000ED00E008B5FFF79F
:102D0000EFFF0B4AD2F8883023F47003C2F8883002
:102D1000EFF3148323F0040383F31488BFF36F8F5E
:102D2000FFF78EFCFFF798FC00F09CF815F098FB7D
:102D300000ED00E042F8203C009B0B4942F81C3CAF
:102D4000019B21F0010142F8183C029B42F8081C4B
:102D500042F8143C4FF0807342F8043C0023203AC0
:102D600002654367704700BFDD19000000B50D4BD9
:102D700015469860026F0C4B0E461A60036E83F383
:102D80000B882C4686F309880020044B9847204680
:102D9000002100220023024C2047000051AC01001A
:102DA000DD1900008C2900206C1600201022014B38
:102DB0001A61704700ED00E0054B5A699B689A4222
:102DC0001FBF044A536843F080535360704700BFED
:102DD0008C29002000ED00E0084B9B6883420BD15A
:102DE000EFF3058343B1064B5A6842F080525A60B4
:102DF0005A6A22F400425A6216F034BA8C29002032
:102E000000ED00E014498A684FF030001044EFF301
:102E1000098C80E8F01F202080F31288BFF36F8FA9
:102E20000E4F4FF000664A698A603E60106F0C4C8E
:102E30002060506F0023536780F3118802F1300047
:102E400090E8F01F8CF3098802F1000004B517F038
:102E5000F8FEBDE8044070478C29002004ED00E036
:102E60006C1600200023202040F20F1210B5044CF5
:102E7000E1180133934281F80003F9D110BD00BF7E
:102E800000E100E008B5EFF30583064A103B02EBD2
:102E9000C30152F8330049688847BDE80840FFF78E
:102EA0008BBF00BFFCDB01000148006870470000D9
:102EB0006C1600201FB50121094B0A4A0A4800F090
:102EC0000FF90023064A0393084B0121019301A83F
:102ED000D31A029300F00EF905B05DF804FB00BFB1
:102EE00000000420000000201CE8010080070020F2
:102EF0000A7A0B6810B562F304031C46CB685209CA
:102F000023F01F0343EA4203044A43F00103C2F8DB
:102F10009800C2F89C40C2F8A03010BD00ED00E05F
:102F200010B50A4BD3F89030C3F30723013B984206
:102F300008D901210346064A064817F072FD6FF0D2
:102F4000150010BDFFF7D4FFFBE700BF00ED00E068
:102F5000B1FB010048E601002DE9F04F8946144617
:102F600006464FF000084F4D85B0C84527DAD6F821
:102F700004A0BAF1000F44D0BAF11F0F17D91AF00C
:102F80001F0F14D1D6F800B01BF01F0F0FD15846F9
:102F900017F081FE07460AEB0B00013817F07BFEA5
:102FA000874210D06FF015073F4A3B4601E0434689
:102FB0003E4A01213E4817F034FD6FF015042046CB
:102FC00005B0BDE8F08F17F1160FEDD0BC42EBDD78
:102FD000C5F89870D5F89C10C5F89870D5F8A03051
:102FE00021F01F0143F01F0BD6E900321A44994229
:102FF00002F1FF3A1AD1D34507D13146F8B217F0A2
:1030000053FE08F101080C36AFE73146C5F8987059
:10301000D5F89C30E0B263F30402C5F89C2017F0A9
:1030200043FE10F1160FC8D0441CEAE7C5F89870AB
:10303000D5F8A020013B23F01F0302F01F02134329
:10304000D3453146E0B2C5F8A030E8D017F02CFEE9
:1030500010F1160FB1D0C5F89870D5F89C209DF8E6
:1030600008300BF1FF3B62F304038DF80830D5F80C
:10307000A0309DF808205B0863F347128DF8082004
:10308000D6E900321344009323F01F035B44A3EB03
:103090000A03013023F01F036946C0B20393FFF710
:1030A0003FFFBEE700ED00E0FDFB0100D7FB0100A4
:1030B00048E601000522044BC3F89420BFF34F8F6C
:1030C000BFF36F8F704700BF00ED00E0BFF35F8F6D
:1030D0000022024BC3F89420704700BF00ED00E0CF
:1030E00010B5034C2278FFF737FF207010BD00BFEA
:1030F000E62B00202DE9F74F294D8A4606464FF072
:103100000008AB46274FD0451BDAD6F80490B9F13A
:10311000000F3FD031680846019117F0BCFD0199BE
:10312000044609EB0100013817F0B5FD84424FF069
:1031300014021D4B08D002FB08F36FF015024BF888
:10314000032003B0BDE8F08F14F1160F2C60F8D007
:103150001978A142F5DD02FB08B0C7F89840C7F81E
:103160009840D7F89C4000F10801007B64F304000C
:103170000871D7F8A0000C79400860F347140C716F
:10318000D7F89C1021F01F016960D7F8A01021F03A
:103190001F01296108F1010814350C36B3E700BF9F
:1031A0007016002000ED00E0E62B0020F0B553493A
:1031B000534DD1F890302C68C3F307239C4287B05D
:1031C00000F299800020FFF781FF4E4BC1F8C0301C
:1031D000844216D14C4D01A82C70FFF72BFA002623
:1031E00007464A4CB74213D100202B784349D1F807
:1031F0009020C2F30722934277DBFFF75BFF0020AA
:1032000046E0696801EB0011FFF772FE0130DFE76D
:103210000199300101EB0613DA682240B2F1807F98
:1032200052D00AD8B2F5001F34D0B2F5800F3ED08C
:10323000B2F5801F12D00136D4E7B2F1006F43D04F
:10324000B2F1805FF7D15A689B680958013B22F0C0
:103250001F00034423F01F03012032E05A689B68DB
:103260000958013B22F01F0003440120844623F04B
:103270001F0340EA4C10CDE902218DF8100002A98D
:1032800028780593FFF74CFE00282ADA6FF0150026
:1032900007B0F0BD5A689B680958013B22F01F0037
:1032A00003444FF0020C012023F01F03E1E75A68AA
:1032B0009B680958013B22F01F000344062023F0BD
:1032C0001F034FF0000CD4E75A689B680958013B74
:1032D00022F01F0003444FF0030C012023F01F03D2
:1032E000C7E72B7801332B70A5E7C1F89830C1F8F8
:1032F000A00001337BE74FF0FF30C9E700ED00E0AD
:1033000028E80100AAFF4400E62B00200000F0FF9F
:10331000F0B587B007460E461446002110226846D5
:103320001D461AF03FFB02238DF80230054B2A465A
:1033300021466846CDE90476019316F03BFB07B0C1
:10334000F0BD00BFDBAC010008B5024B1B6898471D
:10335000002008BD84160020034B044A18609378AF
:1033600043F002039370704784160020540200203B
:1033700008B50649064821F00701C1F1005202F5DF
:10338000802216F066FE002008BD00BF7B8300206F
:103390008816002070B541690446867A0A4D59B1F5
:1033A000437ADB0706D4242303FB0653DB691B683F
:1033B0009B689847002363612420214600FB065048
:1033C000BDE8704019F0D9BF840600202422024BCA
:1033D00002FB0030704700BF840600202421827A5F
:1033E000054B01FB02331A6A1B7D801A1B3323F045
:1033F0000303B0FBF3F070478406002038B52424A3
:10340000827A064B04FB0233DB69D3E901240C60AA
:103410001568FFF7E3FF04FB005038BD8406002069
:103420002DE9F04385B00546684690461C46039159
:103430001AF03AFADDE90067EFF31189202383F3EC
:103440001288BFF36F8F6B8A002B41D02A8A9A4271
:1034500025D900220023284615F080F90446F0B152
:1034600089F31188BFF36F8F039B002B41D0324645
:103470003B4668461AF03DFA2421A27A254B2046A5
:1034800001FB0233DB6903A91B681D68DDE900232A
:10349000A847606170BB2046FFF77CFF24E0698A83
:1034A0004B1E6B8289F31188BFF36F8F2B7D2A8AA5
:1034B0002C6A1B3323F00303521A02FB0344154BFF
:1034C000154AEB1A9B105343A3722B7DE372CBE793
:1034D00089F31188BFF36F8F23464246284615F0C3
:1034E0003DF904460028BFD10024204605B0BDE8C0
:1034F000F0836361012300252381039B29466382B6
:10350000E27A656004F118001AF04CFA63692582CA
:10351000E360EAE784060020398EE338F8B500243A
:1035200024260F4D00B9F8BD476800F10802D2E823
:10353000EF3F591EC2E8EC1FBCF1000FF7D1DBB220
:10354000012BF0D1837AC46006FB035344609B696E
:1035500013B198473846E5E7FFF71CFFFAE700BFCD
:10356000840600202DE9F84F06460D46174604460E
:10357000A3466468002CFBD14FF02409DFF878A043
:10358000BBF81030BBF81220DBF81410D21ADBF8AD
:103590000C300BF10C005B1AD21AAA4228BF2A4643
:1035A0001FFA82F83946424617F02CFCB5EB0805A5
:1035B000444447441DD00C9B53B1DDE90A010D9AE8
:1035C00098478346A8B10146304617F0E6FBD7E797
:1035D000B07A09FB00A0C3699B6843B1AB4228BF26
:1035E0002B461946DDE90A23FFF71AFFE9E72946CA
:1035F000F8E72046BDE8F88F8406002008B5244A85
:10360000244B1A6013F0C0F84FF47A612248D0F8C6
:103610002436C3F30802C3F309434B4382F4807298
:103620001E49883201FB02334FF4FA215B00B3FBE1
:10363000F1F201FB12331A49B3F57A3F28BF013288
:10364000C1F80429D0F820364FF47A60C3F3080299
:10365000C3F30943434342F21C5082F4807202F2E6
:10366000172200FB02334FF47A701B0AB3FBF0F20F
:1036700000FB12330020B3F5FA7F4FF0010328BF9F
:103680000132C1F81C27C1F80009C1F8003608BD95
:103690000020A1075005002000C0FF00F82A00808C
:1036A0000000125048B1054B054A1B68B3FBF2F30A
:1036B0005843044B43F0010318477047500500205E
:1036C00040420F0020E701000E4B402928BF402157
:1036D00070B51D460C4C4618B04203F1020304D1EC
:1036E000002305F81130074870BD02781209A25C6A
:1036F00003F8022C10F8012B02F00F02A25C03F871
:10370000012CE9E7052C00203713020030B50378BF
:103710008BB0044607AD032B21D8DFE803F0021A73
:103720001C1E12492846FCF7C5FE059563781E212C
:103730000493A3780E4A0393E3780E480293237907
:10374000019363790093A37916F00AF909480BB045
:1037500030BD0949E6E70949E4E70949E2E70A21FA
:103760002846084A16F0FCF8DFE700BF4AFC0100D3
:103770006CFC0100E72B002051FC010058FC01000B
:1037800062FC0100800D020030B50378012B11D0DE
:10379000022B21D06BB90A46144B03F1100453F8E5
:1037A000045BA34242F8045BF9D143881A0A8A7089
:1037B000CB7030BD0A460D4B03F1100453F8045B87
:1037C000A34242F8045BF9D143681A0C180E4A7000
:1037D0000870C3F30722EAE700F11003013913F878
:1037E0000129984201F8012FF9D1E2E748130200BC
:1037F00010B517F0BDFB19F0E1FE044608B915F04D
:1038000067FC064BD3E8AF3F0BB10A2098471CB9C1
:10381000BDE8104015F070BC10BD00BF941600202C
:1038200038B50446084817F071FA054648B1631EDA
:10383000DBB21F2B96BF054A0021D15C0C3017F07C
:10384000EAFA284638BD00BF3807002058130200A6
:103850000F2810B50CD80D280CD90A4817F056FAC5
:10386000044618B104210C3017F0D5FA204610BDDB
:103870001328F2D009B10448F0E70220BDE8104057
:10388000FFF7CEBF5C070020CC060020F0B5054650
:103890000E46174685B0AB88012B0ED9284617F087
:1038A000EDFA044648B1AB88984208D9022100934A
:1038B0000D4A03460D4817F0BEF805B0F0BD284686
:1038C00017F0DCFA2B688DF80800013C394602A895
:1038D0008DF809400393B0470028EED021462846D2
:1038E00017F0BCFAD7E700BF96FC0100E0E5010045
:1038F000C3681B780221024A024817F0B1BB00BF1F
:10390000C1FC0100F0E5010038B5C5682B7893B91A
:10391000B5F801400F21204602F014FDEB78054672
:1039200050B90A4A118831B96FEA04506FEA105051
:103930001080074A137038BD4372012102F0FCFB6E
:103940002846BDE8384002F0A5BB00BFC22B0020CE
:10395000862C002070B5C3681D787DBBB3F801606C
:103960000F21304602F0EEFC044638B901213346FF
:10397000BDE87040124A134817F072BB294602F0A6
:10398000DBFBA378012B04D02046BDE8704002F099
:1039900081BB231DD3E8AF3FDB07F5D503212046CC
:1039A00002F0CAFB032017F087FC03460028EBD087
:1039B0000221054A034817F053FBE5E770BD00BF3D
:1039C000E9FC0100F0E501000FFD010010B5012147
:1039D0000C3017F04BFA03780121BDE81040024A81
:1039E000024817F03DBB00BF35FD0100F0E50100C6
:1039F000014610B5084817F08DF90849084819F034
:103A00008BFD031E06DABDE810400121054A064879
:103A100017F026BB10BD00BF740100206403002016
:103A2000280E002057FD0100F0E5010073B5C468C1
:103A30000121B4F80160304602F084FC054640B92B
:103A400001213346114A124802B0BDE8704017F018
:103A500007BB23788DF800307BB9A3798DF804304B
:103A6000B4F80730ADF806302379627943EA0223CF
:103A7000ADF80230E3788DF801306946284603F04E
:103A800059F8284602F006FB02B070BD74FD010033
:103A9000F0E5010073B5C4680121B4F80160304657
:103AA00002F050FC054640B9012133460E4A0F484A
:103AB00002B0BDE8704017F0D3BA23788DF800301B
:103AC00043B9E37805348DF8013014F8013C0194D2
:103AD0008DF802306946284603F00AF8284602F0BD
:103AE000D9FA02B070BD00BF74FD0100F0E501001D
:103AF00073B5C5680121B5F80160304602F022FCBB
:103B0000044640B9012133462D4A2E4802B0BDE893
:103B1000704017F0A5BA2B781A2B19D1C378012B56
:103B20004AD14FF48041043017F09CFA43040FD47B
:103B3000D4F88C3069460093D4F894302046019331
:103B400003F08CFB204602B0BDE8704002F0A2BA40
:103B50002B788BBB40F2E242B5F803301A4953434D
:103B6000C4F88830B5F80520A4F89020B5F80720EF
:103B7000A4F89220A3F5EA520C3A8A4204D9022111
:103B8000124A104817F06CFAB4F89030B3F5FA7F87
:103B900004D302210E4A0B4817F062FA40F6764130
:103BA000B4F89230A3F10A0292B28A4204D90221F7
:103BB000084A044817F054FA204602F0C3FDC1E752
:103BC0008FFD0100F0E5010095F03C00B3FD010020
:103BD000DAFD010001FE010010B5002486B003AB40
:103BE00000934FF480624FF0FF3305490548CDE95B
:103BF0000344059414F0D2FF204606B010BD00BF68
:103C0000A03B0020880D00200121024A024817F045
:103C100025BA00BF2DFE0100F0E501000B46B0B54E
:103C20000D8A00AF04462946D868FFF74DFD8AB0DB
:103C30006A46094BCDE90750CDE9053440F202430D
:103C4000ADF82430054B4FF43251054842F8103F8F
:103C500017F013FABD46B0BD47FE01000500000194
:103C6000F0E5010070B5C5680121B5F80160304686
:103C700002F068FB044638B901213346BDE87040C4
:103C80000B4A0C4817F0ECB92B783BB9D5F8033048
:103C9000C0F89830D5F80730C0F89C30201D4FF49C
:103CA000003117F0DFF92046BDE8704002F0F2B9AC
:103CB0008FFD0100F0E501002DE9F84FD0F80C90E0
:103CC000018A99F8004000AFA30001338B425FD90D
:103CD0006D468AB06A46CDE9073105232E484FF478
:103CE0002151CDE905042D4842F8103F17F0C5F9E0
:103CF000AD46BD46BDE8F88F01212B46284A27482E
:103D000017F0AEF9013699F800309E42F1DA09EB6E
:103D10008603B3F801500F212846B3F8038002F060
:103D200011FB04460028E7D000F1C00AB8F1000FEB
:103D300006D0656945B901211A4A184817F08EF96D
:103D4000204602F0A7F9DDE7A2692B6895422046DC
:103D5000636108BFA36102F0C3F814F035FDC5F834
:103D600000B0236A8BB9C4E90755DAE8EF3F013B9D
:103D7000CAE8E23F002AF8D10021204608F1FF38C6
:103D800002F0BAF81FFA88F8D0E71D602562ECE768
:103D90000026B346B7E700BF69FE0100F0E5010069
:103DA00094FE0100B0FE010037B50446084602EB60
:103DB000C3039A4202D16FF05E0010E0114611F881
:103DC000085BA54211D1038A5178994209D9084864
:103DD0000121084A009416F02EFE6FF0150003B082
:103DE00030BD536898470020F9E70A46E1E700BF75
:103DF000F0E50100C7FE01002DE9F0470C4615F083
:103E000067F9E5682B78022B75D0042B0AD00121C5
:103E10003D4A3E4817F024F92046FFF77FFB6FF03C
:103E200015040EE0B4F81080B8F1020F0ED8434626
:103E3000374A3648012117F013F92046FFF76EFB89
:103E4000002415F059F92046BDE8F08768783E282F
:103E50000CD1B8F1030F02D12E4A4346E9E7EB78C3
:103E6000012B01D00A2B46D1032704E017F0DCF820
:103E70000746F8073FD504F10C0601213046D4F877
:103E800014A016F0EBFF0221304616F0EFFF81463A
:103E900000783E2807D1E3681B78012B01D00A2B5C
:103EA00006D1032614E017F0BFF8C10706460FD469
:103EB00041F26813184A1949194816F06AF90023A3
:103EC00083F31188BFF36F8F0323184602DF0226A6
:103ED000144A0623214699F8000017F0DAF8B207D1
:103EE0000DD56369A5EB0A0513FA85F5E560A4F81D
:103EF0001080BB07A4D52046FFF77AFDA0E7204637
:103F0000FFF70CFBF5E700BF8FFF0100F0E50100B4
:103F1000E9FE010005FF010025FF010059FF010036
:103F200072FF0100D4E8010010B5012104460C30F5
:103F300016F09CFF2146BDE810400223014A00789C
:103F400017F0A7B804E9010073B53E4816F0F7FE74
:103F50000446002873D000F10C05284616F08EFFA9
:103F60000228034603D0042847D0374A03E0238AB7
:103F7000032B05D8354A0121354817F071F813E0B5
:103F80000421284616F072FFFF2342880688237614
:103F9000238AC6F30B009A42608309D00121009264
:103FA0002B482C4A16F047FD2046FFF7B7FA12E0DF
:103FB0000F2102F0C7F9054610B9638B264ADAE7EC
:103FC00002F0E6F921462076320B284601F0E6FFA2
:103FD000284602F05FF8214BD3F844317BB32049E7
:103FE000204819F099FA031E29DA01211E4A1848BF
:103FF00002B0BDE8704017F033B82846022116F031
:1040000035FF054600783E2812D017F00DF810F065
:1040100002060DD140F69A43144A1549154816F088
:10402000B8F886F31188BFF36F8F0323184602DFB9
:1040300004232146104A287817F02BF8B4E702B081
:1040400070BD00BF7401002038000200A3FF010012
:10405000F0E50100C4FF0100E8FF0100300000208E
:1040600064030020280E002057FD010025FF0100F9
:104070000A00020072FF010014E9010010B50121DD
:1040800004460C3016F0F2FE2146BDE8104009232C
:10409000014A007816F0FDBF34E90100F8B50121AE
:1040A000044600AF0C3016F0E1FE067800232146EE
:1040B0003046104AFFF778FE5F3019D1258AE06854
:1040C0002946FFF701FB6C468AB06A460A4BCDE9E8
:1040D0000750CDE9053640F20243ADF82430074BD6
:1040E0004FF43251064842F8103F16F0C6FFA5467D
:1040F000BD46F8BD7CE901004C000200050000014E
:10410000F0E501002DE9F74F002380468946174668
:10411000DFF800A1DAE8EF4FCAE8E23F002AF9D160
:10412000264644B9012143463B4A3C4803B0BDE81A
:10413000F04F16F095BF2046FFF750F94FF00C0BEB
:10414000374D0BFB0050438843451BD02046FFF7FB
:1041500045F90BFB0050438801210093314A434647
:104160002E4816F068FCDAE8EF3FCAE8E26F002A52
:10417000F9D1002B4BD01E46304603B0BDE8F04FBE
:10418000FFF7CCB9A74208D0204616F0BAFD3A8A0C
:10419000F96804F10C0016F035FE2046FFF71EF911
:1041A0000C2707FB00504368ABB1B9F1000F12D1E7
:1041B0002046FFF713F9012107FB005042685368BE
:1041C00003F01F00814010685B0900EB8300137A45
:1041D000CBB116F047FF2046FFF700F90C2707FB8D
:1041E00000508368002BC7D02046FFF7F7F87843CC
:1041F00005F800902046FFF7F1F807FB0055A86886
:1042000014F0E2FAB8E7C94316F03AFFE3E703B067
:10421000BDE8F08F700100207E000200F0E5010093
:1042200098160020A600020008B501F0A9FB064B75
:10423000D3E8AF2F02F00B02D3E8EF1FC3E8E02F63
:104240000028F9D108BD00BF0401002010B5C1E964
:1042500000239DF808300C460B72FFF7BFF80C22C4
:10426000024B02FB00335C6010BD00BF98160020BB
:10427000F8B502460B46104816F048FD0446C0B19A
:1042800004210C3016F0ADFD2046FFF7A7F80C27EF
:1042900000260A4D07FB005046802046FFF79EF897
:1042A00007FB005086602046FFF798F807FB005593
:1042B0006E602046F8BD00BF14070020981600204D
:1042C0000138C0B202289ABF014B185C0020704729
:1042D0007813020070B5C5680121B5F80160304659
:1042E00002F030F8044638B901213346BDE8704089
:1042F0000A4A0B4816F0B4BEE878FFF7E1FF84F8ED
:10430000A4002879FFF7DCFF84F8A500204602F01E
:1043100065FA2046BDE8704001F0BCBE8FFD01008B
:10432000F0E5010010B5044692B04422064901A808
:1043300019F02BFB102C9DBF12AB03EB840454F837
:10434000440C024812B010BDB8E60100D9000200CA
:10435000034B0146D3F85C0182689268104700BFA6
:10436000300000202DE9F047042100AF474816F047
:1043700079FE6D4601F004FB88B06A46444B4FF469
:10438000E6510593434B444806934FF40073ADF850
:104390001C30424B424C42F8103F16F06EFEAD46C8
:1043A000E179404B404E2046012998BF1E46FFF759
:1043B000ADF98AB06A463D4B0790CDE905363C4BD6
:1043C0004FF4235108933B4B334842F8103F16F00B
:1043D00054FEA246AD460125374EDFF8E080E37972
:1043E0000AF1070A9D423ADB94F870506E4628465F
:1043F000FFF798FF8CB06A46B4F87210B4F87630C4
:10440000CDE907514FF40075DFF8B4C009932D4B87
:10441000CDE905C0ADF828504FF4535142F8103F94
:104420001D4816F02AFEB54694F871603046FFF735
:1044300079FF8AB06A46B4F874302349CDE907633E
:10444000224BCDE90510ADF824504FF433511248FA
:1044500042F8103F16F011FEBD46BDE8F087504609
:10446000FFF754F9E9468AB06A4640F20133CDE9D4
:1044700005650790ADF820304FF41351064842F817
:10448000108F16F0FAFD0135CD46A8E70401002093
:10449000E5000200F7000200F0E501000300000162
:1044A0003000002014F70100E100020002010200C8
:1044B00000020103040000021101020004000001D7
:1044C0002201020006000001600102000500000157
:1044D00000487047870102000149024819F01CB8E2
:1044E00054030020880D002070B505460C4639B1F4
:1044F000CB684A699B1A032B0ED86FF0150509E0AB
:104500004FF0FF304FF0FF31FFF7B2FE044618B90D
:104510006FF06805284670BD2046FEF75FFF0C224D
:10452000164BA61802FB0033032130465D8016F0BF
:1045300084FC0580238A0121033B8370304616F0FA
:1045400084FC40F635439D420FD12046FFF700FF23
:1045500005460028DED001210346094A094816F025
:104560007FFD2046FEF7DAFFD4E72146064818F023
:10457000F9FE0025FFF7B0FFCCE700BF981600203A
:1045800097010200F0E501007C0100202DE9F047D1
:1045900084B0804691460C4600AF71B94FF0FF30B1
:1045A0004FF0FF31FFF764FE044660B96FF0680515
:1045B00028461037BD46BDE8F087887AFEF706FF2B
:1045C0003B4B83426ED101220021384618F0F1FEA8
:1045D0002046FEF703FF0C23DFF8D8A003FB00A062
:1045E0008760204616F0C1FB01464046FFF77CFF7E
:1045F000054618B12046FEF791FFD9E7002338465B
:104600002D4A14F015F9064690B14FF4F1732B4A78
:104610002B492C4815F0BDFD324641462A4815F07D
:10462000B8FD85F31188BFF36F8F0323184602DFAF
:104630002046FEF7D3FE0C2358431AF800605EB301
:104640006D468AB06A46214B0796CDE90538204B66
:104650004FF43251089340F20243ADF824301D4B21
:104660001D4842F8103F16F008FD2046AD46093EB1
:10467000FEF754FF092E0CD8DFE806F0050B0B08F7
:10468000170B0B0B0B146FF06E0591E76FF00C0519
:104690008EE76FF004058BE7B9F1000FAAD0C9F8D7
:1046A000004085E76FF0150582E76FF00B057FE7A7
:1046B0001407002098160020B4C4040025FF010050
:1046C000B901020072FF0100C201020007020200EC
:1046D00014F7010005000001F0E50100F0B585B018
:1046E00006460DF10301002000F0E6FF0446002815
:1046F00046D14FF0FF304FF0FF31FFF7B9FD0746CD
:10470000002840D019210C3016F076FB05462146D2
:10471000192219F047F99DF8033006F170012B7347
:10472000681D16F094FC194B38469A89D4332A80B8
:1047300033F8C62C6A800193072302930123B6F84D
:104740008C208DF80C30A5F80D20B6F88E20A5F839
:104750000F20B6F89020A5F81120B6F89220A5F801
:104760001320FEF73BFE0C22094B394602FB0033B7
:1047700001AA5A6042F20D002246FFF707FF0446E5
:10478000204605B0F0BD6FF06804F9E73000002066
:1047900098160020F8B50228054600AF3DD100214B
:1047A0000246084602F024F9044680B90121264A4F
:1047B000264816F053FC032016F07EFD034620B178
:1047C0000221234A214816F04BFCBD46F8BD031DCB
:1047D000D3E8AF3FDB0706D5032101F0ADFC20464F
:1047E00001F058FCE7E7403018F0D3FE10F00C065B
:1047F00008D116482946174A16F030FC31462046A3
:104800006572EAE72046FFF769FF0028E7D001213B
:10481000114A0E4816F022FCE1E76C468AB06A465F
:104820000E4B4FF41251CDE905300D4B074807935D
:1048300040F20133ADF820300A4B42F8103F16F039
:104840001CFCA546C1E700BF26020200F0E50100FE
:104850000FFD0100440202006A020200860202000B
:1048600014F701000400000130B54FF0FF304FF0A5
:10487000FF3185B0FFF7FCFC0446B0B10C4B0025BE
:10488000019307238DF80C500293FEF7A7FD0C222D
:10489000084B214602FB003301AA5A6042F20E0087
:1048A0002A46FFF773FE05B030BD6FF06800FAE7E7
:1048B00004010020981600202DE9F04385B0002661
:1048C0005A4BB0F80190198849F47042914204BFE4
:1048D0001E80574B00F1040808BF1E78C3780546B8
:1048E000012B08BF534B404600AF14BF002493F880
:1048F0006F4016F039FB4146B0B307F1080016F0DF
:1049000028FBD5F81130C7F80130B5F81530A7F8F5
:10491000053001233B70E87840B9022207F1080115
:1049200002F066F8EB7804465BB384BB4046FEF7C2
:10493000EDFE6C4688B06A463F4B4FF4E251CDE93C
:1049400005304FF40073ADF81C303C4B3C4842F846
:10495000103F16F092FB1321A546484616F0CDFBFA
:104960001437BD46BDE8F083204616F078FC0146BA
:1049700007F1080016F06BFB4146384616F067FB5E
:10498000C9E76FF080012F4816F07AFBCDE720468B
:1049900040F2E242B5F8013007F1080120F8703B1F
:1049A00016F055FBB5F8173053430022C4F8883091
:1049B000B5F81930A4F89030B5F81B30A4F892304F
:1049C000EB78627240F20112E370A4F8A4206BB994
:1049D000394604F17E0016F03AFB217A154BC1EB03
:1049E000C101194404F1770016F031FB072120467C
:1049F00001F0A2FB26B101212046667201F09CFB6A
:104A0000204601F001FD204601F044FBE378002B35
:104A1000A6D1032016F050FC03460028A0D00221A6
:104A2000094A074816F01CFB9AE700BFC22B00207A
:104A3000862C002030000020A202020003000001AA
:104A4000F0E50100040100200FFD010000B5C16880
:104A500089B0087820B109B05DF804EBFFF79ABE81
:104A6000B1F801308DF80000ADF80130CB7801A825
:104A70008DF80330B1F80B300431ADF81730B1F8D0
:104A80000930ADF81930B1F80B30ADF81B304B7B65
:104A90008DF81D3016F0DBFA084B68461A689B88C3
:104AA000CDF80B20ADF80F30CDF81120ADF8153052
:104AB000FFF702FF09B05DF804FB00BF31130200ED
:104AC0000022F0B585B0114640F6034002AFFFF773
:104AD0005DFD044600285BD1FFF7A6FB214641F2AD
:104AE00003003A1DFFF752FD0446002850D17A68B2
:104AF000C74DD16805F17803D1F80100D1F8051050
:104B000003C31046FEF70AFD214641F201003A1D9B
:104B1000FFF73CFD044600283AD17868C3685A780C
:104B200085F870205A88A5F872201A7985F87120C6
:104B3000B3F80720A5F87420B3F80530A5F876304F
:104B4000FEF7ECFC214641F202003A1DFFF71EFD84
:104B50000446E8B9D7F804C005F18006DCF80C205B
:104B6000531C4132344618685968083303C49342D1
:104B70002646F7D16046FEF7D1FC95F87C305A0600
:104B80000AD40121A34AA44816F068FA6FF012046F
:104B900020460C37BD46F0BD95F8AF103A1D11F018
:104BA000040100F01981002142F28700FFF7EEFCBA
:104BB00004460028ECD17A68DFF860C2D468A31CF0
:104BC0002234664618685968083303C6A342B446BF
:104BD000F7D11046FEF7A2FC002142F202003A1D76
:104BE000FFF7D4FC04460028D2D17E68F468B4F8FC
:104BF00001309AB292B1E27882B1A5F81431E3782B
:104C0000032B06D00322022100928348844A15F028
:104C100012FFE2788348114618F0CBFB3046FEF7CE
:104C20007DFC95F87C6016F0200619D14FF0FF301E
:104C30004FF0FF31FFF71CFB0446002800F0958180
:104C400002210C3016F0D8F801232146037046707B
:104C5000324640F66D40FFF799FC0446002897D194
:104C600095F89C301B0712D5002142F21C003A1D1A
:104C7000FFF78CFC044600288AD17868C368D3F813
:104C80000120D3F80530C5E93E23FEF747FC4FF07D
:104C9000FF304FF0FF31FFF7EBFA0446002800F039
:104CA000648108210C3016F0A7F895F8D83095F8F3
:104CB000D91013F0020316BF2F220F22002311F088
:104CC000090F95F9DF1018BF42F400620029B8BF40
:104CD0004FF4806395F8E0100270C2F3072242702F
:104CE00000228E0748BF43F48013C3F307211B0C37
:104CF000417182702146C27002718371C27142F2A9
:104D00000100FFF743FC044600287FF441AF95F80B
:104D10007C30B5F8141198066FD4C9B941F205007A
:104D20003A1DFFF733FC044600287FF431AFB5F895
:104D300014317C684BB9E368B3F80120A5F814215D
:104D40009A883848114618F034FB2046FEF7E6FBF7
:104D50004FF0FF304FF0FF31FFF78AFA044600288A
:104D600000F0038108210C3016F046F81023037080
:104D70008823002243700226202321468270C670B9
:104D8000027142718271C37140F60140FFF7FEFB70
:104D9000044600287FF4FCAE01463A1D4FF6014060
:104DA000FFF7F4FB002843D01F4A02211A4816F0EF
:104DB00055F9EB79002B40F0C88000F093FC0446D5
:104DC00000287FF4E5AE01F0E7FF044600287FF4F9
:104DD000DFAEFFF7C7FADBE642F20300FFF7D6FBD0
:104DE000044600287FF4D4AE7A680C4BD168D1F821
:104DF0000100D1F8051003C3EBE60029A8D1012179
:104E00000A4A054816F02AF96FF00404C0E600BF0C
:104E100030000020BE020200F0E501000801002081
:104E2000E2020200480100204B03020028030200B6
:104E30007B686E46DC688AB0B4F80130042B96BFFC
:104E4000574A584952F8231002AAD3614FF400730D
:104E500055481384554BC2E9050142F8103F4FF401
:104E60001351534816F009F9B4F80120B546022A47
:104E7000B4F8033049D1052B47D84E4A52F82310D5
:104E80006E468AB002AAD3614FF400734A48138475
:104E9000464BC2E9050142F8103F4FF41351444814
:104EA00016F0EBF8B546637994F806C0032B98BF6B
:104EB000424AB4F80760D4F809006C468CB094BF3D
:104EC00052F82310374902AAC2E9073C4FF4007395
:104ED000DFF8ECE093853B4BC2E905E1C2E90960EC
:104EE0004FF4735142F8103F314816F0C6F8A5460A
:104EF0007868FEF713FB00214FF602403A1DFFF7DA
:104F000045FB044618B1304A4FE72649B8E77868B0
:104F1000C368B3F80130A5F8C130FEF7FFFA95F881
:104F2000C1305A077FF545AF21464FF603403A1D81
:104F3000FFF72CFB08B1254A37E77868C3685B7830
:104F400085F8C030FEF7EAFA33E72E78002E7FF4BA
:104F500034AF95F8C1309B061FD54FF0FF304FF0AE
:104F6000FF31FFF785F9044610B96FF068040FE6CA
:104F700006210C3015F040FFD5F8013021460360C2
:104F8000134B32469B8883804FF60640FFF7FEFAAC
:104F9000044600283FF411AFFAE56FF08504F7E509
:104FA000C0E80100D90002006F0302000400000104
:104FB000F0E50100A8E801008803020098E801007C
:104FC000A003020007000001CD030200F603020067
:104FD0003100002010B5FFF773FD034B1B6813B1C0
:104FE000BDE81040184710BDB016002073B52A4D1B
:104FF0000646D5F85C0118F069F848B90121274A3E
:10500000274816F02BF86FF01204204602B070BD4E
:105010006FF0020105F1D40016F032F8012116F00C
:1050200021F810EA010434D11E4B1E600A4605F532
:10503000987018F0BEF905F5A67018F065F91A48D1
:1050400018F095FA6FF007034FF496621749164867
:10505000009413F0A3FD1649134818F0B5FAD5F8DB
:105060005C01144983681B689847044630B10121EC
:105070000346114A0A4815F0F3FFC6E726B902B005
:10508000BDE87040FFF71CBD05F1C40013F080FDC2
:10509000BBE76FF07704B8E7300000201F04020080
:1050A000F0E50100B0160020280E0020A03F0020EF
:1050B00037040200F93D00004004020073B5C368E4
:1050C000D9789A781E8842EA0122ADF800205979F1
:1050D0001A79B4B242EA0122ADF80220D9799A795C
:1050E000204642EA0122ADF804201A7A5B7A0121B7
:1050F00042EA0323ADF8063001F024F9054658B919
:1051000001211D4823461D4A15F0AAFF0221204611
:1051100016F05BF802B070BD694601F085FB38B946
:105120001E21204616F051F8284600F0B3FFF1E7A3
:105130004FF0FF304FF0FF31FFF79AF80446002898
:10514000F2D00E210C3015F057FE00230680C0F877
:105150000A30BDF8003021464380BDF8023083801C
:10516000BDF80430C380BDF80630038142F2200050
:10517000FFF7BAF9D8E700BFF0E501008FFD0100A5
:1051800038B5042104460C3015F070FE0346408803
:105190005D7818B122461978FEF7B4FF35B104489E
:1051A00013F012FBBDE83840FFF796B938BD00BFD9
:1051B00060010020B0B50446032100AF0C3015F0AB
:1051C00055FEE2680346117840F63542B0F801001A
:1051D000904216D16C468AB06A46104B1048CDE911
:1051E0000531104B4FF41251079340F20133ADF8E3
:1051F00020300D4B42F8103F15F03FFFA546BD464D
:10520000B0BD1D7810B12246FEF77CFF002DF6D010
:10521000064813F0D9FAFFF75FF9F0E75C040200E3
:10522000F0E5010014F70100040000016001002016
:1052300038B513F04DFF2F4DD5F84C31002B56D01B
:105240000022002305F5987013F0F2FA00284ED1E1
:105250000022002305F5A67013F080FA044668B911
:1052600040F6AA43244A2549254814F092FF84F3C6
:105270001188BFF36F8F0323184602DFD5F8403142
:105280005BB101211F4A204815F0E8FED5F8400126
:10529000FEF744F90023C5F84031204615F065FDBE
:1052A000C5F840012046FFF753F80346C8B1012175
:1052B000164A154815F0D4FE154813F085FA204615
:1052C000FEF78CF80C22134B02FB0033588818B100
:1052D00022461F21FEF716FF2046FEF71FF9FFF7B3
:1052E000FBF8FFF7F9F8BDE8384013F005BF01F00F
:1052F0009BF8F8E73000002025FF010092FC010038
:1053000072FF010094040200F0E501009701020021
:10531000600100209816002070B54FF0FF320D4656
:105320004FF0FF3300210646FEF792FA044660B9BB
:105330001A230A4A0A490B4814F02BFF84F31188F8
:10534000BFF36F8F0323184602DF022104F10C0024
:1053500015F052FD06704570204670BDD005020064
:1053600092FC010072FF0100F8B506460024094DC9
:10537000EF79E3B29F4202D86FF0010007E02946BF
:10538000304615F062FF0735631C08B12046F8BDB2
:105390001C46EEE73000002070B51A4E062231465A
:1053A000054618F007FB38B34FF0FF304FF0FF31E0
:1053B000FEF75EFF044608B3062229460C3015F0BE
:1053C00021FD2146002242F20500FFF7DFF80446E6
:1053D00048B110F10D0F04D102210B4A0B4815F012
:1053E0003CFF204670BD33462A6843F86929AA88E5
:1053F000B280012283F868200024F2E76FF068048D
:10540000EFE700BF9900002006060200F8E5010062
:1054100073B504460D4689B12846174915F015FFA6
:1054200060B9164A2968C4EBC4041151A318AA88AC
:105430009A80AA799A71002002B070BD6E463046FB
:1054400015F079FD0028F7D13046FFF78DFF0028D1
:10545000F5DA0A4A0098C4EBC4041051B179B08857
:10546000A31898809971002DE5D012592A609A8866
:10547000AA809B79AB71DEE7241302003000002084
:1054800070B5044629BB38B3264915F0DEFE18BBBB
:105490002046FFF769FF00283EDA23786BB9224ADD
:1054A000D379002B38D120681060A179A088917140
:1054B000012190801846D17170BD012B04D1A379D0
:1054C00003F0C003C02B07D00121184A184815F07B
:1054D000C4FE6FF01500EFE7134DEB79012B1ED0E2
:1054E00005F1D403D3E8AF3FDB0707D4002CF0D09D
:1054F00020460C4915F0A9FE0028EAD1EE79214694
:10550000731C3046EB71FFF783FF08B93046D3E7D1
:10551000EB79013BEB71CFE76FF07700CCE76FF0F1
:105520000B00C9E72413020030000020150602001A
:10553000F8E501002DE9F341044640B91A4A022179
:105540001A4815F08AFE002002B0BDE8F081002163
:1055500041F2090001AAFFF719F8054608B1144AFB
:10556000EDE7019E0622D6F80C80124908F10107EA
:10557000384618F01FFA28B1062238460E4918F0AE
:1055800019FA18B93046FDF7C9FFDCE7D8F8013041
:105590003046C4F80130BB882570A4F80530FDF70B
:1055A000BDFF0120D0E700BF43060200F8E501007F
:1055B0005C060200311302002B13020007B5684697
:1055C000FFF7B8FF044BD87118B169460020FFF708
:1055D0001FFF03B05DF804FB300000202DE9F0410F
:1055E000304E88B0F179002954D196F8C24014F0B9
:1055F000010411D12C4A02212C4815F02EFE002462
:10560000F471162500240127F379E0B283422BD8E8
:10561000002B3FD000203AE06A464FF60940FEF7E3
:10562000B5FF08B1224AE6E7DDF800C0DCF80C500F
:1056300095F80180B8F1000F0ED0AB1C02AA12350C
:10564000174618685968083303C7AB423A46F7D182
:10565000186838609B88BB806046FDF75FFFB8F133
:10566000000FCDD1134AC6E708AB05FB003353F852
:10567000182C33F8143C6946CDF80120ADF80530FC
:105680008DF80070FFF7C4FE01340028BCD008B0CC
:10569000BDE8F0810021084608B0BDE8F041FFF701
:1056A000EFBE00BF300000207A060200F8E50100DE
:1056B000A6060200C606020038B50C4661B10848CD
:1056C0000578012D05D10130FFF766FE00B9257080
:1056D00038BD00200870FBE76FF01500F8E700BF49
:1056E0003000002038B5104DEB7913B1002420466E
:1056F00038BDFFF763FF044628B10C4A01210C486E
:1057000015F0ABFDF3E7EB79002BEFD1FFF766FF68
:1057100004460028F1D1681CFFF73EFE044600282D
:10572000E5D0044AEAE700BF30000020EF0602009F
:10573000F8E501000E07020070B505460E464FF071
:10574000FF304FF0FF3186B0FEF792FD0446A0B166
:1057500002210C3015F050FB094A4670057003A970
:10576000204605230095FEF771FD0022214642F2F6
:105770000C00FEF70BFF06B070BD6FF06800FAE793
:105780000401002008B50C4B0246400903EB8000E1
:1057900015F08FFD02F01F0340FA03F313F0010030
:1057A00006D122B9054815F084FD40F3C01008BDAC
:1057B0006FF07700FBE700BFB41600200401002063
:1057C000084A430902EB8302012300F01F008340D3
:1057D000DB43D2E8EF0F1840C2E8E10F0029F8D10F
:1057E000704700BFB416002030B587B000220023F8
:1057F0005D4812F0F1FE0446002840F092805B48BC
:1058000015F057FD10F00103584D46D02B1D93E8BD
:10581000070006AB03E90700554815F04AFDC0F341
:105820004013524815F045FD044600286CD07BB16A
:105830000C2250490DEB020018F0BCF80446002879
:105840006CD000210846FFF777FF0446002865D199
:105850000023ADF80930BDF80E309DF80C00ADF80E
:105860000530BDF810308DF80400ADF80730431E48
:1058700058420DF10901584115F00EFD044600286B
:105880004CD14FF0FF304FF0FF31FEF7F1FC0546F1
:10589000002849D16FF0680440E0354815F009FD53
:1058A00010F0800F344A0ED04FF480749089D18963
:1058B0001269ADF80C40ADF80E00ADF81010ADF85F
:1058C00012300592A8E72D4C03AB2068616803C332
:1058D000A068186092F8D930180748BF05232348FC
:1058E00048BF8DF80D3015F0E4FC810706D5302354
:1058F000ADF810306023ADF80E308DE71B4815F081
:10590000D8FC4207F3D487E743B10146FFF714FF01
:10591000044618B9174B2861C3E90100124812F078
:10592000CDFE204607B030BD072201A90C3015F08E
:1059300069FA2246294642F20B00FEF727FE04468A
:105940000028EBD19DF80D10012001F00101FFF7B7
:10595000F3FE04460028E1D1064B06AA12E907002F
:1059600083E80700DAE700BFD0160020B416002055
:1059700004010020C41600203000002010E70100C0
:105980004422002110B5084818F00CF8064B03F12A
:105990001C001C4617F03DFC04F1300017F039FCE8
:1059A0000022024B1A6010BDB41600200017002020
:1059B000032838B5054603D1BDE83840FFF714BFCA
:1059C000FFF7E0FE0446A8B90B4B6A0903EB82031C
:1059D000012205F01F018A40D3E8EF0F1043C3E80E
:1059E000E10F0029F8D1FFF7FFFE044610B1284669
:1059F000FFF7E6FE204638BDB41600202DE9F04F33
:105A000000F10C088BB00446404615F037FA064604
:105A1000864815F04EFC00F001038448039315F00E
:105A200048FCC0F38003029316B90BB0BDE8F08FB9
:105A3000039B13B9029B002BF7D0238A082B07D8AE
:105A400001217B4A7B480BB0BDE8F04F14F0E0BF6A
:105A50000921404615F00AFA037A228A01339A4254
:105A60000546EDD30123ADF824307F238DF81E3099
:105A7000037A471C03445B7A8DF81D30FF238DF8B1
:105A80001C300023ADF822300278042A98BF6A4BFC
:105A90008DF81F2098BF9B5CADF82030037A6348D7
:105AA000019315F006FC00F00109604815F001FCB7
:105AB0008246B9F1000F0BD0BDF820305A0707D548
:105AC000297A40460131013E15F0C8F9F6B2ABE73C
:105AD000384615F049FA0DF1100B00284FD0394621
:105AE000584615F036FAB9F1000F02D11AF0040F3A
:105AF00059D1524BD3F800A0BAF1000F14D0E2688C
:105B00006369B4F810B0A2EB0309019B9DF81F2054
:105B100023829DF91D10434604A8D0476369A4F869
:105B200010B013FA89F3E36004AB0693444B1B688F
:105B3000002B36D053F80899B9F1000F01D0A9F124
:105B400008091A688AB1E1686269B4F810B0A1EB7B
:105B5000020A019A414622821B6806A89847636997
:105B6000A4F810B013FA8AF3E360B9F1000F18D06B
:105B7000D9F8082002B1083A4B469146E1E76B7824
:105B8000FF2B09D12F4B186804909A889B79ABF8AA
:105B900004208BF80630A6E7394615F060FB034673
:105BA000F1E7002306932148BDF8203015F081FB72
:105BB00010F0010984D1DB0782D50322484604A9ED
:105BC00000F016FF824600283FF47AAF022015F05D
:105BD00073FBD5F801305046CAF87E30BB88AAF86E
:105BE0008230BB798AF8843015F085FAA8B11F237A
:105BF00049468AF80930504600F09EFA504600F0B7
:105C000049FAFFF7F1FD034600283FF459AF02219E
:105C10000D4A084814F005FF52E75046022100F0F3
:105C20008BFA504600F036FA4AE700BFB41600205F
:105C30003107020008E601007B1302000017002074
:105C4000F8160020241302000FFD0100F8B50546E8
:105C5000224815F02EFB43070F463CD52A78012A2F
:105C600003D96FF015042046F8BD6B780F2BF8D8D8
:105C700043F6FC746888031F9BB2A342F1D8A9883D
:105C80000B1F9BB2A342ECD88842EAD37AB9002218
:105C90000023134812F0A0FC04460028E3D1FFF7CC
:105CA00071FD044640B10E4812F008FDDBE715F027
:105CB000F1FA0028EBD1D4E728686968094E0A4B4D
:105CC00003C6A8681F6030602046FFF771FE0446D7
:105CD00006F12400E8E76FF00A04C4E7040100209D
:105CE000E4160020B8160020001700200020024B08
:105CF000186015F0E1BA00BF0017002008B503488E
:105D000015F0D7FA00F0010008BD00BFB41600205E
:105D100070B505460B4B1C6844B154F8203C203C40
:105D200013B12846697A9847246AF5E7064C074E6E
:105D3000B44200D370BD236813B12846697A9847EE
:105D40002434F5E73817002050E5010098E50100FC
:105D500010B50446FDF742FB044901EB0011204653
:105D600015F043F9BDE81040FEF7B6BB041700205C
:105D7000002270B50446D1E901560748C1E9012265
:105D800017F0F0FA3DB1314620462B46BDE8704091
:105D90006FF06D02184770BD7406002013B50446FD
:105DA0000430D0E8EF3F43F48062C0E8E12F0029DF
:105DB000F7D1590507D415F099FA820305D5E17892
:105DC00089B101291DD002B010BD204615F0B9F9E6
:105DD000034620B10121124A124815F08AFAA37A2B
:105DE000072BF0D1EBE7104B93F8D930DB070AD43F
:105DF000022302210D4A0B4802B0BDE8104015F005
:105E000078BA0023F5E7022320461A46009115F0E0
:105E1000B3F903460028D6D00121054AEBE700BFBD
:105E200052070200B8E501003000002073070200AD
:105E30008C07020070B50546002200230E4812F0C0
:105E4000F7FCB8B90D4B1C6834B154F8183C203C31
:105E500003B19847246AF7E7094C0A4EB44204D3C9
:105E60002846BDE8704012F093BEA36803B198477E
:105E70002434F3E770BD00BF54060020381700201B
:105E800050E5010098E501002DE9F0410446202786
